{"abi":[{"anonymous":false,"inputs":[{"indexed":true,"internalType":"address","name":"Admin_Address","type":"address"}],"name":"AdminAdded","type":"event"},{"anonymous":false,"inputs":[{"indexed":true,"internalType":"address","name":"Admin_Address","type":"address"}],"name":"AdminRemoved","type":"event"},{"anonymous":false,"inputs":[{"indexed":true,"internalType":"address","name":"_from","type":"address"},{"indexed":true,"internalType":"address","name":"_to","type":"address"}],"name":"ManagerChanged","type":"event"},{"inputs":[{"internalType":"address","name":"_address","type":"address"}],"name":"addAdmin","outputs":[{"internalType":"bool","name":"success","type":"bool"}],"stateMutability":"nonpayable","type":"function"},{"inputs":[{"internalType":"string","name":"_doc_name","type":"string"},{"internalType":"string","name":"_doc_contact","type":"string"},{"internalType":"string","name":"_doc_specialisation","type":"string"},{"internalType":"string","name":"_doc_address","type":"string"},{"internalType":"address","name":"_doc_addr","type":"address"}],"name":"addDoctor","outputs":[{"internalType":"bool","name":"","type":"bool"}],"stateMutability":"nonpayable","type":"function"},{"inputs":[{"internalType":"uint256","name":"","type":"uint256"}],"name":"doctorList","outputs":[{"internalType":"address","name":"","type":"address"}],"stateMutability":"view","type":"function"},{"inputs":[{"internalType":"address","name":"_addr","type":"address"}],"name":"getDoctorByAddress","outputs":[{"internalType":"uint256","name":"id","type":"uint256"},{"internalType":"string","name":"_doc_name","type":"string"},{"internalType":"string","name":"_doc_contact","type":"string"},{"internalType":"string","name":"_doc_specialisation","type":"string"},{"internalType":"string","name":"_doc_address","type":"string"},{"internalType":"address","name":"_doc_addr","type":"address"},{"internalType":"bool","name":"isVerified","type":"bool"}],"stateMutability":"view","type":"function"},{"inputs":[{"internalType":"uint256","name":"_id","type":"uint256"}],"name":"getDoctorById","outputs":[{"internalType":"uint256","name":"id","type":"uint256"},{"internalType":"string","name":"_doc_name","type":"string"},{"internalType":"string","name":"_doc_contact","type":"string"},{"internalType":"string","name":"_doc_specialisation","type":"string"},{"internalType":"string","name":"_doc_address","type":"string"},{"internalType":"address","name":"_doc_addr","type":"address"},{"internalType":"bool","name":"isVerified","type":"bool"}],"stateMutability":"view","type":"function"},{"inputs":[],"name":"index","outputs":[{"internalType":"uint256","name":"","type":"uint256"}],"stateMutability":"view","type":"function"},{"inputs":[],"name":"manager","outputs":[{"internalType":"address","name":"","type":"address"}],"stateMutability":"view","type":"function"},{"inputs":[{"internalType":"address","name":"_address","type":"address"}],"name":"removeAdmin","outputs":[{"internalType":"bool","name":"success","type":"bool"}],"stateMutability":"nonpayable","type":"function"},{"inputs":[{"internalType":"address","name":"_addr","type":"address"}],"name":"setManager","outputs":[{"internalType":"bool","name":"success","type":"bool"}],"stateMutability":"nonpayable","type":"function"}],"devdoc":{"kind":"dev","methods":{},"version":1},"evm":{"assembly":"    /* \"PatientFile.sol\":1661:4008  contract DoctorContract is CentralContract{... */\n  mstore(0x40, 0x80)\n  callvalue\n  dup1\n  iszero\n  tag_1\n  jumpi\n  0x00\n  dup1\n  revert\ntag_1:\n  pop\n    /* \"PatientFile.sol\":449:459  msg.sender */\n  caller\n    /* \"PatientFile.sol\":439:446  manager */\n  0x00\n  dup1\n    /* \"PatientFile.sol\":439:459  manager = msg.sender */\n  0x0100\n  exp\n  dup2\n  sload\n  dup2\n  0xffffffffffffffffffffffffffffffffffffffff\n  mul\n  not\n  and\n  swap1\n  dup4\n  0xffffffffffffffffffffffffffffffffffffffff\n  and\n  mul\n  or\n  swap1\n  sstore\n  pop\n    /* \"PatientFile.sol\":492:496  true */\n  0x01\n    /* \"PatientFile.sol\":470:477  isAdmin */\n  dup1\n    /* \"PatientFile.sol\":470:489  isAdmin[msg.sender] */\n  0x00\n    /* \"PatientFile.sol\":478:488  msg.sender */\n  caller\n    /* \"PatientFile.sol\":470:489  isAdmin[msg.sender] */\n  0xffffffffffffffffffffffffffffffffffffffff\n  and\n  0xffffffffffffffffffffffffffffffffffffffff\n  and\n  dup2\n  mstore\n  0x20\n  add\n  swap1\n  dup2\n  mstore\n  0x20\n  add\n  0x00\n  keccak256\n  0x00\n    /* \"PatientFile.sol\":470:496  isAdmin[msg.sender] = true */\n  0x0100\n  exp\n  dup2\n  sload\n  dup2\n  0xff\n  mul\n  not\n  and\n  swap1\n  dup4\n  iszero\n  iszero\n  mul\n  or\n  swap1\n  sstore\n  pop\n    /* \"PatientFile.sol\":1661:4008  contract DoctorContract is CentralContract{... */\n  dataSize(sub_0)\n  dup1\n  dataOffset(sub_0)\n  0x00\n  codecopy\n  0x00\n  return\nstop\n\nsub_0: assembly {\n        /* \"PatientFile.sol\":1661:4008  contract DoctorContract is CentralContract{... */\n      mstore(0x40, 0x80)\n      callvalue\n      dup1\n      iszero\n      tag_1\n      jumpi\n      0x00\n      dup1\n      revert\n    tag_1:\n      pop\n      jumpi(tag_2, lt(calldatasize, 0x04))\n      shr(0xe0, calldataload(0x00))\n      dup1\n      0x58c5d4bf\n      gt\n      tag_12\n      jumpi\n      dup1\n      0x58c5d4bf\n      eq\n      tag_7\n      jumpi\n      dup1\n      0x70480275\n      eq\n      tag_8\n      jumpi\n      dup1\n      0x91e58375\n      eq\n      tag_9\n      jumpi\n      dup1\n      0xb20a8033\n      eq\n      tag_10\n      jumpi\n      dup1\n      0xd0ebdbe7\n      eq\n      tag_11\n      jumpi\n      jump(tag_2)\n    tag_12:\n      dup1\n      0x127ca4b4\n      eq\n      tag_3\n      jumpi\n      dup1\n      0x1785f53c\n      eq\n      tag_4\n      jumpi\n      dup1\n      0x2986c0e5\n      eq\n      tag_5\n      jumpi\n      dup1\n      0x481c6a75\n      eq\n      tag_6\n      jumpi\n    tag_2:\n      0x00\n      dup1\n      revert\n        /* \"PatientFile.sol\":2062:2089  address[] public doctorList */\n    tag_3:\n      tag_13\n      0x04\n      dup1\n      calldatasize\n      sub\n      dup2\n      add\n      swap1\n      tag_14\n      swap2\n      swap1\n      tag_15\n      jump\t// in\n    tag_14:\n      tag_16\n      jump\t// in\n    tag_13:\n      mload(0x40)\n      tag_17\n      swap2\n      swap1\n      tag_18\n      jump\t// in\n    tag_17:\n      mload(0x40)\n      dup1\n      swap2\n      sub\n      swap1\n      return\n        /* \"PatientFile.sol\":1292:1607  function removeAdmin(address _address) public onlyManager returns(bool success){... */\n    tag_4:\n      tag_19\n      0x04\n      dup1\n      calldatasize\n      sub\n      dup2\n      add\n      swap1\n      tag_20\n      swap2\n      swap1\n      tag_21\n      jump\t// in\n    tag_20:\n      tag_22\n      jump\t// in\n    tag_19:\n      mload(0x40)\n      tag_23\n      swap2\n      swap1\n      tag_24\n      jump\t// in\n    tag_23:\n      mload(0x40)\n      dup1\n      swap2\n      sub\n      swap1\n      return\n        /* \"PatientFile.sol\":1710:1730  uint256 public index */\n    tag_5:\n      tag_25\n      tag_26\n      jump\t// in\n    tag_25:\n      mload(0x40)\n      tag_27\n      swap2\n      swap1\n      tag_28\n      jump\t// in\n    tag_27:\n      mload(0x40)\n      dup1\n      swap2\n      sub\n      swap1\n      return\n        /* \"PatientFile.sol\":154:176  address public manager */\n    tag_6:\n      tag_29\n      tag_30\n      jump\t// in\n    tag_29:\n      mload(0x40)\n      tag_31\n      swap2\n      swap1\n      tag_18\n      jump\t// in\n    tag_31:\n      mload(0x40)\n      dup1\n      swap2\n      sub\n      swap1\n      return\n        /* \"PatientFile.sol\":3529:3999  function getDoctorByAddress(address _addr) public view returns(uint256 id,string memory _doc_name,string memory _doc_contact,string memory _doc_specialisation,string memory _doc_address,address _doc_addr,bool isVerified){... */\n    tag_7:\n      tag_32\n      0x04\n      dup1\n      calldatasize\n      sub\n      dup2\n      add\n      swap1\n      tag_33\n      swap2\n      swap1\n      tag_21\n      jump\t// in\n    tag_33:\n      tag_34\n      jump\t// in\n    tag_32:\n      mload(0x40)\n      tag_35\n      swap8\n      swap7\n      swap6\n      swap5\n      swap4\n      swap3\n      swap2\n      swap1\n      tag_36\n      jump\t// in\n    tag_35:\n      mload(0x40)\n      dup1\n      swap2\n      sub\n      swap1\n      return\n        /* \"PatientFile.sol\":1044:1286  function addAdmin(address _address) public onlyManager returns(bool success){... */\n    tag_8:\n      tag_37\n      0x04\n      dup1\n      calldatasize\n      sub\n      dup2\n      add\n      swap1\n      tag_38\n      swap2\n      swap1\n      tag_21\n      jump\t// in\n    tag_38:\n      tag_39\n      jump\t// in\n    tag_37:\n      mload(0x40)\n      tag_40\n      swap2\n      swap1\n      tag_24\n      jump\t// in\n    tag_40:\n      mload(0x40)\n      dup1\n      swap2\n      sub\n      swap1\n      return\n        /* \"PatientFile.sol\":2832:3476  function getDoctorById(uint256 _id) public view returns(uint256 id,string memory _doc_name,string memory _doc_contact,string memory _doc_specialisation,string memory _doc_address,address _doc_addr,bool isVerified){... */\n    tag_9:\n      tag_41\n      0x04\n      dup1\n      calldatasize\n      sub\n      dup2\n      add\n      swap1\n      tag_42\n      swap2\n      swap1\n      tag_15\n      jump\t// in\n    tag_42:\n      tag_43\n      jump\t// in\n    tag_41:\n      mload(0x40)\n      tag_44\n      swap8\n      swap7\n      swap6\n      swap5\n      swap4\n      swap3\n      swap2\n      swap1\n      tag_36\n      jump\t// in\n    tag_44:\n      mload(0x40)\n      dup1\n      swap2\n      sub\n      swap1\n      return\n        /* \"PatientFile.sol\":2279:2778  function addDoctor(string memory _doc_name,string memory _doc_contact,string memory _doc_specialisation,string memory _doc_address,address _doc_addr) public onlyAdmin returns(bool){... */\n    tag_10:\n      tag_45\n      0x04\n      dup1\n      calldatasize\n      sub\n      dup2\n      add\n      swap1\n      tag_46\n      swap2\n      swap1\n      tag_47\n      jump\t// in\n    tag_46:\n      tag_48\n      jump\t// in\n    tag_45:\n      mload(0x40)\n      tag_49\n      swap2\n      swap1\n      tag_24\n      jump\t// in\n    tag_49:\n      mload(0x40)\n      dup1\n      swap2\n      sub\n      swap1\n      return\n        /* \"PatientFile.sol\":798:1035  function setManager(address _addr) public onlyManager returns(bool success){... */\n    tag_11:\n      tag_50\n      0x04\n      dup1\n      calldatasize\n      sub\n      dup2\n      add\n      swap1\n      tag_51\n      swap2\n      swap1\n      tag_21\n      jump\t// in\n    tag_51:\n      tag_52\n      jump\t// in\n    tag_50:\n      mload(0x40)\n      tag_53\n      swap2\n      swap1\n      tag_24\n      jump\t// in\n    tag_53:\n      mload(0x40)\n      dup1\n      swap2\n      sub\n      swap1\n      return\n        /* \"PatientFile.sol\":2062:2089  address[] public doctorList */\n    tag_16:\n      0x05\n      dup2\n      dup2\n      sload\n      dup2\n      lt\n      tag_54\n      jumpi\n      0x00\n      dup1\n      revert\n    tag_54:\n      swap1\n      0x00\n      mstore\n      keccak256(0x00, 0x20)\n      add\n      0x00\n      swap2\n      pop\n      sload\n      swap1\n      0x0100\n      exp\n      swap1\n      div\n      0xffffffffffffffffffffffffffffffffffffffff\n      and\n      dup2\n      jump\t// out\n        /* \"PatientFile.sol\":1292:1607  function removeAdmin(address _address) public onlyManager returns(bool success){... */\n    tag_22:\n        /* \"PatientFile.sol\":1358:1370  bool success */\n      0x00\n        /* \"PatientFile.sol\":564:574  msg.sender */\n      caller\n        /* \"PatientFile.sol\":553:574  manager == msg.sender */\n      0xffffffffffffffffffffffffffffffffffffffff\n      and\n        /* \"PatientFile.sol\":553:560  manager */\n      0x00\n      dup1\n      sload\n      swap1\n      0x0100\n      exp\n      swap1\n      div\n      0xffffffffffffffffffffffffffffffffffffffff\n      and\n        /* \"PatientFile.sol\":553:574  manager == msg.sender */\n      0xffffffffffffffffffffffffffffffffffffffff\n      and\n      eq\n        /* \"PatientFile.sol\":545:625  require(manager == msg.sender, \"Only Manager has permission to do that action.\") */\n      tag_57\n      jumpi\n      mload(0x40)\n      0x08c379a000000000000000000000000000000000000000000000000000000000\n      dup2\n      mstore\n      0x04\n      add\n      tag_58\n      swap1\n      tag_59\n      jump\t// in\n    tag_58:\n      mload(0x40)\n      dup1\n      swap2\n      sub\n      swap1\n      revert\n    tag_57:\n        /* \"PatientFile.sol\":1400:1407  manager */\n      0x00\n      dup1\n      sload\n      swap1\n      0x0100\n      exp\n      swap1\n      div\n      0xffffffffffffffffffffffffffffffffffffffff\n      and\n        /* \"PatientFile.sol\":1390:1407  _address!=manager */\n      0xffffffffffffffffffffffffffffffffffffffff\n      and\n        /* \"PatientFile.sol\":1390:1398  _address */\n      dup3\n        /* \"PatientFile.sol\":1390:1407  _address!=manager */\n      0xffffffffffffffffffffffffffffffffffffffff\n      and\n      eq\n      iszero\n        /* \"PatientFile.sol\":1382:1440  require(_address!=manager,\"Can't remove owner from admin\") */\n      tag_61\n      jumpi\n      mload(0x40)\n      0x08c379a000000000000000000000000000000000000000000000000000000000\n      dup2\n      mstore\n      0x04\n      add\n      tag_62\n      swap1\n      tag_63\n      jump\t// in\n    tag_62:\n      mload(0x40)\n      dup1\n      swap2\n      sub\n      swap1\n      revert\n    tag_61:\n        /* \"PatientFile.sol\":1459:1466  isAdmin */\n      0x01\n        /* \"PatientFile.sol\":1459:1476  isAdmin[_address] */\n      0x00\n        /* \"PatientFile.sol\":1467:1475  _address */\n      dup4\n        /* \"PatientFile.sol\":1459:1476  isAdmin[_address] */\n      0xffffffffffffffffffffffffffffffffffffffff\n      and\n      0xffffffffffffffffffffffffffffffffffffffff\n      and\n      dup2\n      mstore\n      0x20\n      add\n      swap1\n      dup2\n      mstore\n      0x20\n      add\n      0x00\n      keccak256\n      0x00\n      swap1\n      sload\n      swap1\n      0x0100\n      exp\n      swap1\n      div\n      0xff\n      and\n        /* \"PatientFile.sol\":1451:1505  require(isAdmin[_address],\"User not admin already!!!\") */\n      tag_64\n      jumpi\n      mload(0x40)\n      0x08c379a000000000000000000000000000000000000000000000000000000000\n      dup2\n      mstore\n      0x04\n      add\n      tag_65\n      swap1\n      tag_66\n      jump\t// in\n    tag_65:\n      mload(0x40)\n      dup1\n      swap2\n      sub\n      swap1\n      revert\n    tag_64:\n        /* \"PatientFile.sol\":1534:1539  false */\n      0x00\n        /* \"PatientFile.sol\":1516:1523  isAdmin */\n      0x01\n        /* \"PatientFile.sol\":1516:1533  isAdmin[_address] */\n      0x00\n        /* \"PatientFile.sol\":1524:1532  _address */\n      dup5\n        /* \"PatientFile.sol\":1516:1533  isAdmin[_address] */\n      0xffffffffffffffffffffffffffffffffffffffff\n      and\n      0xffffffffffffffffffffffffffffffffffffffff\n      and\n      dup2\n      mstore\n      0x20\n      add\n      swap1\n      dup2\n      mstore\n      0x20\n      add\n      0x00\n      keccak256\n      0x00\n        /* \"PatientFile.sol\":1516:1539  isAdmin[_address]=false */\n      0x0100\n      exp\n      dup2\n      sload\n      dup2\n      0xff\n      mul\n      not\n      and\n      swap1\n      dup4\n      iszero\n      iszero\n      mul\n      or\n      swap1\n      sstore\n      pop\n        /* \"PatientFile.sol\":1568:1576  _address */\n      dup2\n        /* \"PatientFile.sol\":1555:1577  AdminRemoved(_address) */\n      0xffffffffffffffffffffffffffffffffffffffff\n      and\n      0xa3b62bc36326052d97ea62d63c3d60308ed4c3ea8ac079dd8499f1e9c4f80c0f\n      mload(0x40)\n      mload(0x40)\n      dup1\n      swap2\n      sub\n      swap1\n      log2\n        /* \"PatientFile.sol\":1595:1599  true */\n      0x01\n        /* \"PatientFile.sol\":1588:1599  return true */\n      swap1\n      pop\n        /* \"PatientFile.sol\":1292:1607  function removeAdmin(address _address) public onlyManager returns(bool success){... */\n      swap2\n      swap1\n      pop\n      jump\t// out\n        /* \"PatientFile.sol\":1710:1730  uint256 public index */\n    tag_26:\n      sload(0x02)\n      dup2\n      jump\t// out\n        /* \"PatientFile.sol\":154:176  address public manager */\n    tag_30:\n      0x00\n      dup1\n      sload\n      swap1\n      0x0100\n      exp\n      swap1\n      div\n      0xffffffffffffffffffffffffffffffffffffffff\n      and\n      dup2\n      jump\t// out\n        /* \"PatientFile.sol\":3529:3999  function getDoctorByAddress(address _addr) public view returns(uint256 id,string memory _doc_name,string memory _doc_contact,string memory _doc_specialisation,string memory _doc_address,address _doc_addr,bool isVerified){... */\n    tag_34:\n        /* \"PatientFile.sol\":3592:3602  uint256 id */\n      0x00\n        /* \"PatientFile.sol\":3603:3626  string memory _doc_name */\n      0x60\n        /* \"PatientFile.sol\":3627:3653  string memory _doc_contact */\n      dup1\n        /* \"PatientFile.sol\":3654:3687  string memory _doc_specialisation */\n      0x60\n        /* \"PatientFile.sol\":3688:3714  string memory _doc_address */\n      dup1\n        /* \"PatientFile.sol\":3715:3732  address _doc_addr */\n      0x00\n        /* \"PatientFile.sol\":3733:3748  bool isVerified */\n      dup1\n        /* \"PatientFile.sol\":3768:3775  doctors */\n      0x04\n        /* \"PatientFile.sol\":3768:3782  doctors[_addr] */\n      0x00\n        /* \"PatientFile.sol\":3776:3781  _addr */\n      dup10\n        /* \"PatientFile.sol\":3768:3782  doctors[_addr] */\n      0xffffffffffffffffffffffffffffffffffffffff\n      and\n      0xffffffffffffffffffffffffffffffffffffffff\n      and\n      dup2\n      mstore\n      0x20\n      add\n      swap1\n      dup2\n      mstore\n      0x20\n      add\n      0x00\n      keccak256\n        /* \"PatientFile.sol\":3768:3793  doctors[_addr].isApproved */\n      0x05\n      add\n      0x14\n      swap1\n      sload\n      swap1\n      0x0100\n      exp\n      swap1\n      div\n      0xff\n      and\n        /* \"PatientFile.sol\":3760:3821  require(doctors[_addr].isApproved ,\"Doctor is not approved.\") */\n      tag_68\n      jumpi\n      mload(0x40)\n      0x08c379a000000000000000000000000000000000000000000000000000000000\n      dup2\n      mstore\n      0x04\n      add\n      tag_69\n      swap1\n      tag_70\n      jump\t// in\n    tag_69:\n      mload(0x40)\n      dup1\n      swap2\n      sub\n      swap1\n      revert\n    tag_68:\n        /* \"PatientFile.sol\":3832:3850  Doctor memory temp */\n      0x00\n        /* \"PatientFile.sol\":3853:3860  doctors */\n      0x04\n        /* \"PatientFile.sol\":3853:3867  doctors[_addr] */\n      0x00\n        /* \"PatientFile.sol\":3861:3866  _addr */\n      dup11\n        /* \"PatientFile.sol\":3853:3867  doctors[_addr] */\n      0xffffffffffffffffffffffffffffffffffffffff\n      and\n      0xffffffffffffffffffffffffffffffffffffffff\n      and\n      dup2\n      mstore\n      0x20\n      add\n      swap1\n      dup2\n      mstore\n      0x20\n      add\n      0x00\n      keccak256\n        /* \"PatientFile.sol\":3832:3867  Doctor memory temp = doctors[_addr] */\n      mload(0x40)\n      dup1\n      0xe0\n      add\n      0x40\n      mstore\n      swap1\n      dup2\n      0x00\n      dup3\n      add\n      sload\n      dup2\n      mstore\n      0x20\n      add\n      0x01\n      dup3\n      add\n      dup1\n      sload\n      tag_71\n      swap1\n      tag_72\n      jump\t// in\n    tag_71:\n      dup1\n      0x1f\n      add\n      0x20\n      dup1\n      swap2\n      div\n      mul\n      0x20\n      add\n      mload(0x40)\n      swap1\n      dup2\n      add\n      0x40\n      mstore\n      dup1\n      swap3\n      swap2\n      swap1\n      dup2\n      dup2\n      mstore\n      0x20\n      add\n      dup3\n      dup1\n      sload\n      tag_73\n      swap1\n      tag_72\n      jump\t// in\n    tag_73:\n      dup1\n      iszero\n      tag_74\n      jumpi\n      dup1\n      0x1f\n      lt\n      tag_75\n      jumpi\n      0x0100\n      dup1\n      dup4\n      sload\n      div\n      mul\n      dup4\n      mstore\n      swap2\n      0x20\n      add\n      swap2\n      jump(tag_74)\n    tag_75:\n      dup3\n      add\n      swap2\n      swap1\n      0x00\n      mstore\n      keccak256(0x00, 0x20)\n      swap1\n    tag_76:\n      dup2\n      sload\n      dup2\n      mstore\n      swap1\n      0x01\n      add\n      swap1\n      0x20\n      add\n      dup1\n      dup4\n      gt\n      tag_76\n      jumpi\n      dup3\n      swap1\n      sub\n      0x1f\n      and\n      dup3\n      add\n      swap2\n    tag_74:\n      pop\n      pop\n      pop\n      pop\n      pop\n      dup2\n      mstore\n      0x20\n      add\n      0x02\n      dup3\n      add\n      dup1\n      sload\n      tag_77\n      swap1\n      tag_72\n      jump\t// in\n    tag_77:\n      dup1\n      0x1f\n      add\n      0x20\n      dup1\n      swap2\n      div\n      mul\n      0x20\n      add\n      mload(0x40)\n      swap1\n      dup2\n      add\n      0x40\n      mstore\n      dup1\n      swap3\n      swap2\n      swap1\n      dup2\n      dup2\n      mstore\n      0x20\n      add\n      dup3\n      dup1\n      sload\n      tag_78\n      swap1\n      tag_72\n      jump\t// in\n    tag_78:\n      dup1\n      iszero\n      tag_79\n      jumpi\n      dup1\n      0x1f\n      lt\n      tag_80\n      jumpi\n      0x0100\n      dup1\n      dup4\n      sload\n      div\n      mul\n      dup4\n      mstore\n      swap2\n      0x20\n      add\n      swap2\n      jump(tag_79)\n    tag_80:\n      dup3\n      add\n      swap2\n      swap1\n      0x00\n      mstore\n      keccak256(0x00, 0x20)\n      swap1\n    tag_81:\n      dup2\n      sload\n      dup2\n      mstore\n      swap1\n      0x01\n      add\n      swap1\n      0x20\n      add\n      dup1\n      dup4\n      gt\n      tag_81\n      jumpi\n      dup3\n      swap1\n      sub\n      0x1f\n      and\n      dup3\n      add\n      swap2\n    tag_79:\n      pop\n      pop\n      pop\n      pop\n      pop\n      dup2\n      mstore\n      0x20\n      add\n      0x03\n      dup3\n      add\n      dup1\n      sload\n      tag_82\n      swap1\n      tag_72\n      jump\t// in\n    tag_82:\n      dup1\n      0x1f\n      add\n      0x20\n      dup1\n      swap2\n      div\n      mul\n      0x20\n      add\n      mload(0x40)\n      swap1\n      dup2\n      add\n      0x40\n      mstore\n      dup1\n      swap3\n      swap2\n      swap1\n      dup2\n      dup2\n      mstore\n      0x20\n      add\n      dup3\n      dup1\n      sload\n      tag_83\n      swap1\n      tag_72\n      jump\t// in\n    tag_83:\n      dup1\n      iszero\n      tag_84\n      jumpi\n      dup1\n      0x1f\n      lt\n      tag_85\n      jumpi\n      0x0100\n      dup1\n      dup4\n      sload\n      div\n      mul\n      dup4\n      mstore\n      swap2\n      0x20\n      add\n      swap2\n      jump(tag_84)\n    tag_85:\n      dup3\n      add\n      swap2\n      swap1\n      0x00\n      mstore\n      keccak256(0x00, 0x20)\n      swap1\n    tag_86:\n      dup2\n      sload\n      dup2\n      mstore\n      swap1\n      0x01\n      add\n      swap1\n      0x20\n      add\n      dup1\n      dup4\n      gt\n      tag_86\n      jumpi\n      dup3\n      swap1\n      sub\n      0x1f\n      and\n      dup3\n      add\n      swap2\n    tag_84:\n      pop\n      pop\n      pop\n      pop\n      pop\n      dup2\n      mstore\n      0x20\n      add\n      0x04\n      dup3\n      add\n      dup1\n      sload\n      tag_87\n      swap1\n      tag_72\n      jump\t// in\n    tag_87:\n      dup1\n      0x1f\n      add\n      0x20\n      dup1\n      swap2\n      div\n      mul\n      0x20\n      add\n      mload(0x40)\n      swap1\n      dup2\n      add\n      0x40\n      mstore\n      dup1\n      swap3\n      swap2\n      swap1\n      dup2\n      dup2\n      mstore\n      0x20\n      add\n      dup3\n      dup1\n      sload\n      tag_88\n      swap1\n      tag_72\n      jump\t// in\n    tag_88:\n      dup1\n      iszero\n      tag_89\n      jumpi\n      dup1\n      0x1f\n      lt\n      tag_90\n      jumpi\n      0x0100\n      dup1\n      dup4\n      sload\n      div\n      mul\n      dup4\n      mstore\n      swap2\n      0x20\n      add\n      swap2\n      jump(tag_89)\n    tag_90:\n      dup3\n      add\n      swap2\n      swap1\n      0x00\n      mstore\n      keccak256(0x00, 0x20)\n      swap1\n    tag_91:\n      dup2\n      sload\n      dup2\n      mstore\n      swap1\n      0x01\n      add\n      swap1\n      0x20\n      add\n      dup1\n      dup4\n      gt\n      tag_91\n      jumpi\n      dup3\n      swap1\n      sub\n      0x1f\n      and\n      dup3\n      add\n      swap2\n    tag_89:\n      pop\n      pop\n      pop\n      pop\n      pop\n      dup2\n      mstore\n      0x20\n      add\n      0x05\n      dup3\n      add\n      0x00\n      swap1\n      sload\n      swap1\n      0x0100\n      exp\n      swap1\n      div\n      0xffffffffffffffffffffffffffffffffffffffff\n      and\n      0xffffffffffffffffffffffffffffffffffffffff\n      and\n      0xffffffffffffffffffffffffffffffffffffffff\n      and\n      dup2\n      mstore\n      0x20\n      add\n      0x05\n      dup3\n      add\n      0x14\n      swap1\n      sload\n      swap1\n      0x0100\n      exp\n      swap1\n      div\n      0xff\n      and\n      iszero\n      iszero\n      iszero\n      iszero\n      dup2\n      mstore\n      pop\n      pop\n      swap1\n      pop\n        /* \"PatientFile.sol\":3885:3889  temp */\n      dup1\n        /* \"PatientFile.sol\":3885:3892  temp.id */\n      0x00\n      add\n      mload\n        /* \"PatientFile.sol\":3893:3897  temp */\n      dup2\n        /* \"PatientFile.sol\":3893:3906  temp.doc_name */\n      0x20\n      add\n      mload\n        /* \"PatientFile.sol\":3907:3911  temp */\n      dup3\n        /* \"PatientFile.sol\":3907:3923  temp.doc_contact */\n      0x40\n      add\n      mload\n        /* \"PatientFile.sol\":3924:3928  temp */\n      dup4\n        /* \"PatientFile.sol\":3924:3947  temp.doc_specialisation */\n      0x60\n      add\n      mload\n        /* \"PatientFile.sol\":3948:3952  temp */\n      dup5\n        /* \"PatientFile.sol\":3948:3964  temp.doc_address */\n      0x80\n      add\n      mload\n        /* \"PatientFile.sol\":3965:3969  temp */\n      dup6\n        /* \"PatientFile.sol\":3965:3974  temp.addr */\n      0xa0\n      add\n      mload\n        /* \"PatientFile.sol\":3975:3979  temp */\n      dup7\n        /* \"PatientFile.sol\":3975:3990  temp.isApproved */\n      0xc0\n      add\n      mload\n        /* \"PatientFile.sol\":3878:3991  return(temp.id,temp.doc_name,temp.doc_contact,temp.doc_specialisation,temp.doc_address,temp.addr,temp.isApproved) */\n      swap8\n      pop\n      swap8\n      pop\n      swap8\n      pop\n      swap8\n      pop\n      swap8\n      pop\n      swap8\n      pop\n      swap8\n      pop\n      pop\n        /* \"PatientFile.sol\":3529:3999  function getDoctorByAddress(address _addr) public view returns(uint256 id,string memory _doc_name,string memory _doc_contact,string memory _doc_specialisation,string memory _doc_address,address _doc_addr,bool isVerified){... */\n      swap2\n      swap4\n      swap6\n      swap8\n      swap1\n      swap3\n      swap5\n      swap7\n      pop\n      jump\t// out\n        /* \"PatientFile.sol\":1044:1286  function addAdmin(address _address) public onlyManager returns(bool success){... */\n    tag_39:\n        /* \"PatientFile.sol\":1107:1119  bool success */\n      0x00\n        /* \"PatientFile.sol\":564:574  msg.sender */\n      caller\n        /* \"PatientFile.sol\":553:574  manager == msg.sender */\n      0xffffffffffffffffffffffffffffffffffffffff\n      and\n        /* \"PatientFile.sol\":553:560  manager */\n      0x00\n      dup1\n      sload\n      swap1\n      0x0100\n      exp\n      swap1\n      div\n      0xffffffffffffffffffffffffffffffffffffffff\n      and\n        /* \"PatientFile.sol\":553:574  manager == msg.sender */\n      0xffffffffffffffffffffffffffffffffffffffff\n      and\n      eq\n        /* \"PatientFile.sol\":545:625  require(manager == msg.sender, \"Only Manager has permission to do that action.\") */\n      tag_93\n      jumpi\n      mload(0x40)\n      0x08c379a000000000000000000000000000000000000000000000000000000000\n      dup2\n      mstore\n      0x04\n      add\n      tag_94\n      swap1\n      tag_59\n      jump\t// in\n    tag_94:\n      mload(0x40)\n      dup1\n      swap2\n      sub\n      swap1\n      revert\n    tag_93:\n        /* \"PatientFile.sol\":1140:1147  isAdmin */\n      0x01\n        /* \"PatientFile.sol\":1140:1157  isAdmin[_address] */\n      0x00\n        /* \"PatientFile.sol\":1148:1156  _address */\n      dup4\n        /* \"PatientFile.sol\":1140:1157  isAdmin[_address] */\n      0xffffffffffffffffffffffffffffffffffffffff\n      and\n      0xffffffffffffffffffffffffffffffffffffffff\n      and\n      dup2\n      mstore\n      0x20\n      add\n      swap1\n      dup2\n      mstore\n      0x20\n      add\n      0x00\n      keccak256\n      0x00\n      swap1\n      sload\n      swap1\n      0x0100\n      exp\n      swap1\n      div\n      0xff\n      and\n        /* \"PatientFile.sol\":1139:1157  !isAdmin[_address] */\n      iszero\n        /* \"PatientFile.sol\":1131:1187  require(!isAdmin[_address],\"User is already a admin!!!\") */\n      tag_96\n      jumpi\n      mload(0x40)\n      0x08c379a000000000000000000000000000000000000000000000000000000000\n      dup2\n      mstore\n      0x04\n      add\n      tag_97\n      swap1\n      tag_98\n      jump\t// in\n    tag_97:\n      mload(0x40)\n      dup1\n      swap2\n      sub\n      swap1\n      revert\n    tag_96:\n        /* \"PatientFile.sol\":1216:1220  true */\n      0x01\n        /* \"PatientFile.sol\":1198:1205  isAdmin */\n      dup1\n        /* \"PatientFile.sol\":1198:1215  isAdmin[_address] */\n      0x00\n        /* \"PatientFile.sol\":1206:1214  _address */\n      dup5\n        /* \"PatientFile.sol\":1198:1215  isAdmin[_address] */\n      0xffffffffffffffffffffffffffffffffffffffff\n      and\n      0xffffffffffffffffffffffffffffffffffffffff\n      and\n      dup2\n      mstore\n      0x20\n      add\n      swap1\n      dup2\n      mstore\n      0x20\n      add\n      0x00\n      keccak256\n      0x00\n        /* \"PatientFile.sol\":1198:1220  isAdmin[_address]=true */\n      0x0100\n      exp\n      dup2\n      sload\n      dup2\n      0xff\n      mul\n      not\n      and\n      swap1\n      dup4\n      iszero\n      iszero\n      mul\n      or\n      swap1\n      sstore\n      pop\n        /* \"PatientFile.sol\":1247:1255  _address */\n      dup2\n        /* \"PatientFile.sol\":1236:1256  AdminAdded(_address) */\n      0xffffffffffffffffffffffffffffffffffffffff\n      and\n      0x44d6d25963f097ad14f29f06854a01f575648a1ef82f30e562ccd3889717e339\n      mload(0x40)\n      mload(0x40)\n      dup1\n      swap2\n      sub\n      swap1\n      log2\n        /* \"PatientFile.sol\":1274:1278  true */\n      0x01\n        /* \"PatientFile.sol\":1267:1278  return true */\n      swap1\n      pop\n        /* \"PatientFile.sol\":1044:1286  function addAdmin(address _address) public onlyManager returns(bool success){... */\n      swap2\n      swap1\n      pop\n      jump\t// out\n        /* \"PatientFile.sol\":2832:3476  function getDoctorById(uint256 _id) public view returns(uint256 id,string memory _doc_name,string memory _doc_contact,string memory _doc_specialisation,string memory _doc_address,address _doc_addr,bool isVerified){... */\n    tag_43:\n        /* \"PatientFile.sol\":2888:2898  uint256 id */\n      0x00\n        /* \"PatientFile.sol\":2899:2922  string memory _doc_name */\n      0x60\n        /* \"PatientFile.sol\":2923:2949  string memory _doc_contact */\n      dup1\n        /* \"PatientFile.sol\":2950:2983  string memory _doc_specialisation */\n      0x60\n        /* \"PatientFile.sol\":2984:3010  string memory _doc_address */\n      dup1\n        /* \"PatientFile.sol\":3011:3028  address _doc_addr */\n      0x00\n        /* \"PatientFile.sol\":3029:3044  bool isVerified */\n      dup1\n        /* \"PatientFile.sol\":3056:3065  uint256 i */\n      0x00\n        /* \"PatientFile.sol\":3080:3211  for(;i<doctorList.length;i++){... */\n    tag_100:\n        /* \"PatientFile.sol\":3087:3097  doctorList */\n      0x05\n        /* \"PatientFile.sol\":3087:3104  doctorList.length */\n      dup1\n      sload\n      swap1\n      pop\n        /* \"PatientFile.sol\":3085:3086  i */\n      dup2\n        /* \"PatientFile.sol\":3085:3104  i<doctorList.length */\n      lt\n        /* \"PatientFile.sol\":3080:3211  for(;i<doctorList.length;i++){... */\n      iszero\n      tag_101\n      jumpi\n        /* \"PatientFile.sol\":3156:3159  _id */\n      dup9\n        /* \"PatientFile.sol\":3127:3134  doctors */\n      0x04\n        /* \"PatientFile.sol\":3127:3149  doctors[doctorList[i]] */\n      0x00\n        /* \"PatientFile.sol\":3135:3145  doctorList */\n      0x05\n        /* \"PatientFile.sol\":3146:3147  i */\n      dup5\n        /* \"PatientFile.sol\":3135:3148  doctorList[i] */\n      dup2\n      sload\n      dup2\n      lt\n      tag_103\n      jumpi\n      tag_104\n      tag_105\n      jump\t// in\n    tag_104:\n    tag_103:\n      swap1\n      0x00\n      mstore\n      keccak256(0x00, 0x20)\n      add\n      0x00\n      swap1\n      sload\n      swap1\n      0x0100\n      exp\n      swap1\n      div\n      0xffffffffffffffffffffffffffffffffffffffff\n      and\n        /* \"PatientFile.sol\":3127:3149  doctors[doctorList[i]] */\n      0xffffffffffffffffffffffffffffffffffffffff\n      and\n      0xffffffffffffffffffffffffffffffffffffffff\n      and\n      dup2\n      mstore\n      0x20\n      add\n      swap1\n      dup2\n      mstore\n      0x20\n      add\n      0x00\n      keccak256\n        /* \"PatientFile.sol\":3127:3152  doctors[doctorList[i]].id */\n      0x00\n      add\n      sload\n        /* \"PatientFile.sol\":3127:3159  doctors[doctorList[i]].id == _id */\n      eq\n        /* \"PatientFile.sol\":3124:3200  if(doctors[doctorList[i]].id == _id){... */\n      iszero\n      tag_107\n      jumpi\n        /* \"PatientFile.sol\":3179:3184  break */\n      jump(tag_101)\n        /* \"PatientFile.sol\":3124:3200  if(doctors[doctorList[i]].id == _id){... */\n    tag_107:\n        /* \"PatientFile.sol\":3105:3108  i++ */\n      dup1\n      dup1\n      tag_108\n      swap1\n      tag_109\n      jump\t// in\n    tag_108:\n      swap2\n      pop\n      pop\n        /* \"PatientFile.sol\":3080:3211  for(;i<doctorList.length;i++){... */\n      jump(tag_100)\n    tag_101:\n        /* \"PatientFile.sol\":3258:3261  _id */\n      dup9\n        /* \"PatientFile.sol\":3229:3236  doctors */\n      0x04\n        /* \"PatientFile.sol\":3229:3251  doctors[doctorList[i]] */\n      0x00\n        /* \"PatientFile.sol\":3237:3247  doctorList */\n      0x05\n        /* \"PatientFile.sol\":3248:3249  i */\n      dup5\n        /* \"PatientFile.sol\":3237:3250  doctorList[i] */\n      dup2\n      sload\n      dup2\n      lt\n      tag_110\n      jumpi\n      tag_111\n      tag_105\n      jump\t// in\n    tag_111:\n    tag_110:\n      swap1\n      0x00\n      mstore\n      keccak256(0x00, 0x20)\n      add\n      0x00\n      swap1\n      sload\n      swap1\n      0x0100\n      exp\n      swap1\n      div\n      0xffffffffffffffffffffffffffffffffffffffff\n      and\n        /* \"PatientFile.sol\":3229:3251  doctors[doctorList[i]] */\n      0xffffffffffffffffffffffffffffffffffffffff\n      and\n      0xffffffffffffffffffffffffffffffffffffffff\n      and\n      dup2\n      mstore\n      0x20\n      add\n      swap1\n      dup2\n      mstore\n      0x20\n      add\n      0x00\n      keccak256\n        /* \"PatientFile.sol\":3229:3254  doctors[doctorList[i]].id */\n      0x00\n      add\n      sload\n        /* \"PatientFile.sol\":3229:3261  doctors[doctorList[i]].id == _id */\n      eq\n        /* \"PatientFile.sol\":3221:3290  require(doctors[doctorList[i]].id == _id ,\"Doctor ID doesn't exist.\") */\n      tag_113\n      jumpi\n      mload(0x40)\n      0x08c379a000000000000000000000000000000000000000000000000000000000\n      dup2\n      mstore\n      0x04\n      add\n      tag_114\n      swap1\n      tag_115\n      jump\t// in\n    tag_114:\n      mload(0x40)\n      dup1\n      swap2\n      sub\n      swap1\n      revert\n    tag_113:\n        /* \"PatientFile.sol\":3301:3319  Doctor memory temp */\n      0x00\n        /* \"PatientFile.sol\":3322:3329  doctors */\n      0x04\n        /* \"PatientFile.sol\":3322:3344  doctors[doctorList[i]] */\n      0x00\n        /* \"PatientFile.sol\":3330:3340  doctorList */\n      0x05\n        /* \"PatientFile.sol\":3341:3342  i */\n      dup5\n        /* \"PatientFile.sol\":3330:3343  doctorList[i] */\n      dup2\n      sload\n      dup2\n      lt\n      tag_116\n      jumpi\n      tag_117\n      tag_105\n      jump\t// in\n    tag_117:\n    tag_116:\n      swap1\n      0x00\n      mstore\n      keccak256(0x00, 0x20)\n      add\n      0x00\n      swap1\n      sload\n      swap1\n      0x0100\n      exp\n      swap1\n      div\n      0xffffffffffffffffffffffffffffffffffffffff\n      and\n        /* \"PatientFile.sol\":3322:3344  doctors[doctorList[i]] */\n      0xffffffffffffffffffffffffffffffffffffffff\n      and\n      0xffffffffffffffffffffffffffffffffffffffff\n      and\n      dup2\n      mstore\n      0x20\n      add\n      swap1\n      dup2\n      mstore\n      0x20\n      add\n      0x00\n      keccak256\n        /* \"PatientFile.sol\":3301:3344  Doctor memory temp = doctors[doctorList[i]] */\n      mload(0x40)\n      dup1\n      0xe0\n      add\n      0x40\n      mstore\n      swap1\n      dup2\n      0x00\n      dup3\n      add\n      sload\n      dup2\n      mstore\n      0x20\n      add\n      0x01\n      dup3\n      add\n      dup1\n      sload\n      tag_119\n      swap1\n      tag_72\n      jump\t// in\n    tag_119:\n      dup1\n      0x1f\n      add\n      0x20\n      dup1\n      swap2\n      div\n      mul\n      0x20\n      add\n      mload(0x40)\n      swap1\n      dup2\n      add\n      0x40\n      mstore\n      dup1\n      swap3\n      swap2\n      swap1\n      dup2\n      dup2\n      mstore\n      0x20\n      add\n      dup3\n      dup1\n      sload\n      tag_120\n      swap1\n      tag_72\n      jump\t// in\n    tag_120:\n      dup1\n      iszero\n      tag_121\n      jumpi\n      dup1\n      0x1f\n      lt\n      tag_122\n      jumpi\n      0x0100\n      dup1\n      dup4\n      sload\n      div\n      mul\n      dup4\n      mstore\n      swap2\n      0x20\n      add\n      swap2\n      jump(tag_121)\n    tag_122:\n      dup3\n      add\n      swap2\n      swap1\n      0x00\n      mstore\n      keccak256(0x00, 0x20)\n      swap1\n    tag_123:\n      dup2\n      sload\n      dup2\n      mstore\n      swap1\n      0x01\n      add\n      swap1\n      0x20\n      add\n      dup1\n      dup4\n      gt\n      tag_123\n      jumpi\n      dup3\n      swap1\n      sub\n      0x1f\n      and\n      dup3\n      add\n      swap2\n    tag_121:\n      pop\n      pop\n      pop\n      pop\n      pop\n      dup2\n      mstore\n      0x20\n      add\n      0x02\n      dup3\n      add\n      dup1\n      sload\n      tag_124\n      swap1\n      tag_72\n      jump\t// in\n    tag_124:\n      dup1\n      0x1f\n      add\n      0x20\n      dup1\n      swap2\n      div\n      mul\n      0x20\n      add\n      mload(0x40)\n      swap1\n      dup2\n      add\n      0x40\n      mstore\n      dup1\n      swap3\n      swap2\n      swap1\n      dup2\n      dup2\n      mstore\n      0x20\n      add\n      dup3\n      dup1\n      sload\n      tag_125\n      swap1\n      tag_72\n      jump\t// in\n    tag_125:\n      dup1\n      iszero\n      tag_126\n      jumpi\n      dup1\n      0x1f\n      lt\n      tag_127\n      jumpi\n      0x0100\n      dup1\n      dup4\n      sload\n      div\n      mul\n      dup4\n      mstore\n      swap2\n      0x20\n      add\n      swap2\n      jump(tag_126)\n    tag_127:\n      dup3\n      add\n      swap2\n      swap1\n      0x00\n      mstore\n      keccak256(0x00, 0x20)\n      swap1\n    tag_128:\n      dup2\n      sload\n      dup2\n      mstore\n      swap1\n      0x01\n      add\n      swap1\n      0x20\n      add\n      dup1\n      dup4\n      gt\n      tag_128\n      jumpi\n      dup3\n      swap1\n      sub\n      0x1f\n      and\n      dup3\n      add\n      swap2\n    tag_126:\n      pop\n      pop\n      pop\n      pop\n      pop\n      dup2\n      mstore\n      0x20\n      add\n      0x03\n      dup3\n      add\n      dup1\n      sload\n      tag_129\n      swap1\n      tag_72\n      jump\t// in\n    tag_129:\n      dup1\n      0x1f\n      add\n      0x20\n      dup1\n      swap2\n      div\n      mul\n      0x20\n      add\n      mload(0x40)\n      swap1\n      dup2\n      add\n      0x40\n      mstore\n      dup1\n      swap3\n      swap2\n      swap1\n      dup2\n      dup2\n      mstore\n      0x20\n      add\n      dup3\n      dup1\n      sload\n      tag_130\n      swap1\n      tag_72\n      jump\t// in\n    tag_130:\n      dup1\n      iszero\n      tag_131\n      jumpi\n      dup1\n      0x1f\n      lt\n      tag_132\n      jumpi\n      0x0100\n      dup1\n      dup4\n      sload\n      div\n      mul\n      dup4\n      mstore\n      swap2\n      0x20\n      add\n      swap2\n      jump(tag_131)\n    tag_132:\n      dup3\n      add\n      swap2\n      swap1\n      0x00\n      mstore\n      keccak256(0x00, 0x20)\n      swap1\n    tag_133:\n      dup2\n      sload\n      dup2\n      mstore\n      swap1\n      0x01\n      add\n      swap1\n      0x20\n      add\n      dup1\n      dup4\n      gt\n      tag_133\n      jumpi\n      dup3\n      swap1\n      sub\n      0x1f\n      and\n      dup3\n      add\n      swap2\n    tag_131:\n      pop\n      pop\n      pop\n      pop\n      pop\n      dup2\n      mstore\n      0x20\n      add\n      0x04\n      dup3\n      add\n      dup1\n      sload\n      tag_134\n      swap1\n      tag_72\n      jump\t// in\n    tag_134:\n      dup1\n      0x1f\n      add\n      0x20\n      dup1\n      swap2\n      div\n      mul\n      0x20\n      add\n      mload(0x40)\n      swap1\n      dup2\n      add\n      0x40\n      mstore\n      dup1\n      swap3\n      swap2\n      swap1\n      dup2\n      dup2\n      mstore\n      0x20\n      add\n      dup3\n      dup1\n      sload\n      tag_135\n      swap1\n      tag_72\n      jump\t// in\n    tag_135:\n      dup1\n      iszero\n      tag_136\n      jumpi\n      dup1\n      0x1f\n      lt\n      tag_137\n      jumpi\n      0x0100\n      dup1\n      dup4\n      sload\n      div\n      mul\n      dup4\n      mstore\n      swap2\n      0x20\n      add\n      swap2\n      jump(tag_136)\n    tag_137:\n      dup3\n      add\n      swap2\n      swap1\n      0x00\n      mstore\n      keccak256(0x00, 0x20)\n      swap1\n    tag_138:\n      dup2\n      sload\n      dup2\n      mstore\n      swap1\n      0x01\n      add\n      swap1\n      0x20\n      add\n      dup1\n      dup4\n      gt\n      tag_138\n      jumpi\n      dup3\n      swap1\n      sub\n      0x1f\n      and\n      dup3\n      add\n      swap2\n    tag_136:\n      pop\n      pop\n      pop\n      pop\n      pop\n      dup2\n      mstore\n      0x20\n      add\n      0x05\n      dup3\n      add\n      0x00\n      swap1\n      sload\n      swap1\n      0x0100\n      exp\n      swap1\n      div\n      0xffffffffffffffffffffffffffffffffffffffff\n      and\n      0xffffffffffffffffffffffffffffffffffffffff\n      and\n      0xffffffffffffffffffffffffffffffffffffffff\n      and\n      dup2\n      mstore\n      0x20\n      add\n      0x05\n      dup3\n      add\n      0x14\n      swap1\n      sload\n      swap1\n      0x0100\n      exp\n      swap1\n      div\n      0xff\n      and\n      iszero\n      iszero\n      iszero\n      iszero\n      dup2\n      mstore\n      pop\n      pop\n      swap1\n      pop\n        /* \"PatientFile.sol\":3362:3366  temp */\n      dup1\n        /* \"PatientFile.sol\":3362:3369  temp.id */\n      0x00\n      add\n      mload\n        /* \"PatientFile.sol\":3370:3374  temp */\n      dup2\n        /* \"PatientFile.sol\":3370:3383  temp.doc_name */\n      0x20\n      add\n      mload\n        /* \"PatientFile.sol\":3384:3388  temp */\n      dup3\n        /* \"PatientFile.sol\":3384:3400  temp.doc_contact */\n      0x40\n      add\n      mload\n        /* \"PatientFile.sol\":3401:3405  temp */\n      dup4\n        /* \"PatientFile.sol\":3401:3424  temp.doc_specialisation */\n      0x60\n      add\n      mload\n        /* \"PatientFile.sol\":3425:3429  temp */\n      dup5\n        /* \"PatientFile.sol\":3425:3441  temp.doc_address */\n      0x80\n      add\n      mload\n        /* \"PatientFile.sol\":3442:3446  temp */\n      dup6\n        /* \"PatientFile.sol\":3442:3451  temp.addr */\n      0xa0\n      add\n      mload\n        /* \"PatientFile.sol\":3452:3456  temp */\n      dup7\n        /* \"PatientFile.sol\":3452:3467  temp.isApproved */\n      0xc0\n      add\n      mload\n        /* \"PatientFile.sol\":3355:3468  return(temp.id,temp.doc_name,temp.doc_contact,temp.doc_specialisation,temp.doc_address,temp.addr,temp.isApproved) */\n      swap9\n      pop\n      swap9\n      pop\n      swap9\n      pop\n      swap9\n      pop\n      swap9\n      pop\n      swap9\n      pop\n      swap9\n      pop\n      pop\n      pop\n        /* \"PatientFile.sol\":2832:3476  function getDoctorById(uint256 _id) public view returns(uint256 id,string memory _doc_name,string memory _doc_contact,string memory _doc_specialisation,string memory _doc_address,address _doc_addr,bool isVerified){... */\n      swap2\n      swap4\n      swap6\n      swap8\n      swap1\n      swap3\n      swap5\n      swap7\n      pop\n      jump\t// out\n        /* \"PatientFile.sol\":2279:2778  function addDoctor(string memory _doc_name,string memory _doc_contact,string memory _doc_specialisation,string memory _doc_address,address _doc_addr) public onlyAdmin returns(bool){... */\n    tag_48:\n        /* \"PatientFile.sol\":2454:2458  bool */\n      0x00\n        /* \"PatientFile.sol\":716:720  true */\n      0x01\n        /* \"PatientFile.sol\":693:720  isAdmin[msg.sender] == true */\n      iszero\n      iszero\n        /* \"PatientFile.sol\":693:700  isAdmin */\n      0x01\n        /* \"PatientFile.sol\":693:712  isAdmin[msg.sender] */\n      0x00\n        /* \"PatientFile.sol\":701:711  msg.sender */\n      caller\n        /* \"PatientFile.sol\":693:712  isAdmin[msg.sender] */\n      0xffffffffffffffffffffffffffffffffffffffff\n      and\n      0xffffffffffffffffffffffffffffffffffffffff\n      and\n      dup2\n      mstore\n      0x20\n      add\n      swap1\n      dup2\n      mstore\n      0x20\n      add\n      0x00\n      keccak256\n      0x00\n      swap1\n      sload\n      swap1\n      0x0100\n      exp\n      swap1\n      div\n      0xff\n      and\n        /* \"PatientFile.sol\":693:720  isAdmin[msg.sender] == true */\n      iszero\n      iszero\n      eq\n        /* \"PatientFile.sol\":685:769  require(isAdmin[msg.sender] == true, \"Only Admin has permission to do that action.\") */\n      tag_140\n      jumpi\n      mload(0x40)\n      0x08c379a000000000000000000000000000000000000000000000000000000000\n      dup2\n      mstore\n      0x04\n      add\n      tag_141\n      swap1\n      tag_142\n      jump\t// in\n    tag_141:\n      mload(0x40)\n      dup1\n      swap2\n      sub\n      swap1\n      revert\n    tag_140:\n        /* \"PatientFile.sol\":2479:2487  isDoctor */\n      0x03\n        /* \"PatientFile.sol\":2479:2498  isDoctor[_doc_addr] */\n      0x00\n        /* \"PatientFile.sol\":2488:2497  _doc_addr */\n      dup4\n        /* \"PatientFile.sol\":2479:2498  isDoctor[_doc_addr] */\n      0xffffffffffffffffffffffffffffffffffffffff\n      and\n      0xffffffffffffffffffffffffffffffffffffffff\n      and\n      dup2\n      mstore\n      0x20\n      add\n      swap1\n      dup2\n      mstore\n      0x20\n      add\n      0x00\n      keccak256\n      0x00\n      swap1\n      sload\n      swap1\n      0x0100\n      exp\n      swap1\n      div\n      0xff\n      and\n        /* \"PatientFile.sol\":2478:2498  !isDoctor[_doc_addr] */\n      iszero\n        /* \"PatientFile.sol\":2470:2530  require(!isDoctor[_doc_addr],\"Already a registered Doctor.\") */\n      tag_144\n      jumpi\n      mload(0x40)\n      0x08c379a000000000000000000000000000000000000000000000000000000000\n      dup2\n      mstore\n      0x04\n      add\n      tag_145\n      swap1\n      tag_146\n      jump\t// in\n    tag_145:\n      mload(0x40)\n      dup1\n      swap2\n      sub\n      swap1\n      revert\n    tag_144:\n        /* \"PatientFile.sol\":2541:2551  doctorList */\n      0x05\n        /* \"PatientFile.sol\":2557:2566  _doc_addr */\n      dup3\n        /* \"PatientFile.sol\":2541:2567  doctorList.push(_doc_addr) */\n      swap1\n      dup1\n      0x01\n      dup2\n      sload\n      add\n      dup1\n      dup3\n      sstore\n      dup1\n      swap2\n      pop\n      pop\n      0x01\n      swap1\n      sub\n      swap1\n      0x00\n      mstore\n      keccak256(0x00, 0x20)\n      add\n      0x00\n      swap1\n      swap2\n      swap1\n      swap2\n      swap1\n      swap2\n      0x0100\n      exp\n      dup2\n      sload\n      dup2\n      0xffffffffffffffffffffffffffffffffffffffff\n      mul\n      not\n      and\n      swap1\n      dup4\n      0xffffffffffffffffffffffffffffffffffffffff\n      and\n      mul\n      or\n      swap1\n      sstore\n      pop\n        /* \"PatientFile.sol\":2594:2595  1 */\n      0x01\n        /* \"PatientFile.sol\":2586:2591  index */\n      sload(0x02)\n        /* \"PatientFile.sol\":2586:2595  index + 1 */\n      tag_148\n      swap2\n      swap1\n      tag_149\n      jump\t// in\n    tag_148:\n        /* \"PatientFile.sol\":2578:2583  index */\n      0x02\n        /* \"PatientFile.sol\":2578:2595  index = index + 1 */\n      dup2\n      swap1\n      sstore\n      pop\n        /* \"PatientFile.sol\":2628:2632  true */\n      0x01\n        /* \"PatientFile.sol\":2606:2614  isDoctor */\n      0x03\n        /* \"PatientFile.sol\":2606:2625  isDoctor[_doc_addr] */\n      0x00\n        /* \"PatientFile.sol\":2615:2624  _doc_addr */\n      dup5\n        /* \"PatientFile.sol\":2606:2625  isDoctor[_doc_addr] */\n      0xffffffffffffffffffffffffffffffffffffffff\n      and\n      0xffffffffffffffffffffffffffffffffffffffff\n      and\n      dup2\n      mstore\n      0x20\n      add\n      swap1\n      dup2\n      mstore\n      0x20\n      add\n      0x00\n      keccak256\n      0x00\n        /* \"PatientFile.sol\":2606:2632  isDoctor[_doc_addr] = true */\n      0x0100\n      exp\n      dup2\n      sload\n      dup2\n      0xff\n      mul\n      not\n      and\n      swap1\n      dup4\n      iszero\n      iszero\n      mul\n      or\n      swap1\n      sstore\n      pop\n        /* \"PatientFile.sol\":2664:2748  Doctor(index,_doc_name,_doc_contact,_doc_specialisation,_doc_address,_doc_addr,true) */\n      mload(0x40)\n      dup1\n      0xe0\n      add\n      0x40\n      mstore\n      dup1\n        /* \"PatientFile.sol\":2671:2676  index */\n      sload(0x02)\n        /* \"PatientFile.sol\":2664:2748  Doctor(index,_doc_name,_doc_contact,_doc_specialisation,_doc_address,_doc_addr,true) */\n      dup2\n      mstore\n      0x20\n      add\n        /* \"PatientFile.sol\":2677:2686  _doc_name */\n      dup8\n        /* \"PatientFile.sol\":2664:2748  Doctor(index,_doc_name,_doc_contact,_doc_specialisation,_doc_address,_doc_addr,true) */\n      dup2\n      mstore\n      0x20\n      add\n        /* \"PatientFile.sol\":2687:2699  _doc_contact */\n      dup7\n        /* \"PatientFile.sol\":2664:2748  Doctor(index,_doc_name,_doc_contact,_doc_specialisation,_doc_address,_doc_addr,true) */\n      dup2\n      mstore\n      0x20\n      add\n        /* \"PatientFile.sol\":2700:2719  _doc_specialisation */\n      dup6\n        /* \"PatientFile.sol\":2664:2748  Doctor(index,_doc_name,_doc_contact,_doc_specialisation,_doc_address,_doc_addr,true) */\n      dup2\n      mstore\n      0x20\n      add\n        /* \"PatientFile.sol\":2720:2732  _doc_address */\n      dup5\n        /* \"PatientFile.sol\":2664:2748  Doctor(index,_doc_name,_doc_contact,_doc_specialisation,_doc_address,_doc_addr,true) */\n      dup2\n      mstore\n      0x20\n      add\n        /* \"PatientFile.sol\":2733:2742  _doc_addr */\n      dup4\n        /* \"PatientFile.sol\":2664:2748  Doctor(index,_doc_name,_doc_contact,_doc_specialisation,_doc_address,_doc_addr,true) */\n      0xffffffffffffffffffffffffffffffffffffffff\n      and\n      dup2\n      mstore\n      0x20\n      add\n        /* \"PatientFile.sol\":2743:2747  true */\n      0x01\n        /* \"PatientFile.sol\":2664:2748  Doctor(index,_doc_name,_doc_contact,_doc_specialisation,_doc_address,_doc_addr,true) */\n      iszero\n      iszero\n      dup2\n      mstore\n      pop\n        /* \"PatientFile.sol\":2643:2650  doctors */\n      0x04\n        /* \"PatientFile.sol\":2643:2661  doctors[_doc_addr] */\n      0x00\n        /* \"PatientFile.sol\":2651:2660  _doc_addr */\n      dup5\n        /* \"PatientFile.sol\":2643:2661  doctors[_doc_addr] */\n      0xffffffffffffffffffffffffffffffffffffffff\n      and\n      0xffffffffffffffffffffffffffffffffffffffff\n      and\n      dup2\n      mstore\n      0x20\n      add\n      swap1\n      dup2\n      mstore\n      0x20\n      add\n      0x00\n      keccak256\n        /* \"PatientFile.sol\":2643:2748  doctors[_doc_addr] = Doctor(index,_doc_name,_doc_contact,_doc_specialisation,_doc_address,_doc_addr,true) */\n      0x00\n      dup3\n      add\n      mload\n      dup2\n      0x00\n      add\n      sstore\n      0x20\n      dup3\n      add\n      mload\n      dup2\n      0x01\n      add\n      swap1\n      dup1\n      mload\n      swap1\n      0x20\n      add\n      swap1\n      tag_150\n      swap3\n      swap2\n      swap1\n      tag_151\n      jump\t// in\n    tag_150:\n      pop\n      0x40\n      dup3\n      add\n      mload\n      dup2\n      0x02\n      add\n      swap1\n      dup1\n      mload\n      swap1\n      0x20\n      add\n      swap1\n      tag_152\n      swap3\n      swap2\n      swap1\n      tag_151\n      jump\t// in\n    tag_152:\n      pop\n      0x60\n      dup3\n      add\n      mload\n      dup2\n      0x03\n      add\n      swap1\n      dup1\n      mload\n      swap1\n      0x20\n      add\n      swap1\n      tag_153\n      swap3\n      swap2\n      swap1\n      tag_151\n      jump\t// in\n    tag_153:\n      pop\n      0x80\n      dup3\n      add\n      mload\n      dup2\n      0x04\n      add\n      swap1\n      dup1\n      mload\n      swap1\n      0x20\n      add\n      swap1\n      tag_154\n      swap3\n      swap2\n      swap1\n      tag_151\n      jump\t// in\n    tag_154:\n      pop\n      0xa0\n      dup3\n      add\n      mload\n      dup2\n      0x05\n      add\n      exp(0x0100, 0x00)\n      dup2\n      sload\n      dup2\n      0xffffffffffffffffffffffffffffffffffffffff\n      mul\n      not\n      and\n      swap1\n      dup4\n      0xffffffffffffffffffffffffffffffffffffffff\n      and\n      mul\n      or\n      swap1\n      sstore\n      pop\n      0xc0\n      dup3\n      add\n      mload\n      dup2\n      0x05\n      add\n      exp(0x0100, 0x14)\n      dup2\n      sload\n      dup2\n      0xff\n      mul\n      not\n      and\n      swap1\n      dup4\n      iszero\n      iszero\n      mul\n      or\n      swap1\n      sstore\n      pop\n      swap1\n      pop\n      pop\n        /* \"PatientFile.sol\":2766:2770  true */\n      0x01\n        /* \"PatientFile.sol\":2759:2770  return true */\n      swap1\n      pop\n        /* \"PatientFile.sol\":2279:2778  function addDoctor(string memory _doc_name,string memory _doc_contact,string memory _doc_specialisation,string memory _doc_address,address _doc_addr) public onlyAdmin returns(bool){... */\n      swap6\n      swap5\n      pop\n      pop\n      pop\n      pop\n      pop\n      jump\t// out\n        /* \"PatientFile.sol\":798:1035  function setManager(address _addr) public onlyManager returns(bool success){... */\n    tag_52:\n        /* \"PatientFile.sol\":860:872  bool success */\n      0x00\n        /* \"PatientFile.sol\":564:574  msg.sender */\n      caller\n        /* \"PatientFile.sol\":553:574  manager == msg.sender */\n      0xffffffffffffffffffffffffffffffffffffffff\n      and\n        /* \"PatientFile.sol\":553:560  manager */\n      0x00\n      dup1\n      sload\n      swap1\n      0x0100\n      exp\n      swap1\n      div\n      0xffffffffffffffffffffffffffffffffffffffff\n      and\n        /* \"PatientFile.sol\":553:574  manager == msg.sender */\n      0xffffffffffffffffffffffffffffffffffffffff\n      and\n      eq\n        /* \"PatientFile.sol\":545:625  require(manager == msg.sender, \"Only Manager has permission to do that action.\") */\n      tag_156\n      jumpi\n      mload(0x40)\n      0x08c379a000000000000000000000000000000000000000000000000000000000\n      dup2\n      mstore\n      0x04\n      add\n      tag_157\n      swap1\n      tag_59\n      jump\t// in\n    tag_157:\n      mload(0x40)\n      dup1\n      swap2\n      sub\n      swap1\n      revert\n    tag_156:\n        /* \"PatientFile.sol\":905:910  _addr */\n      dup2\n        /* \"PatientFile.sol\":892:910  msg.sender!= _addr */\n      0xffffffffffffffffffffffffffffffffffffffff\n      and\n        /* \"PatientFile.sol\":892:902  msg.sender */\n      caller\n        /* \"PatientFile.sol\":892:910  msg.sender!= _addr */\n      0xffffffffffffffffffffffffffffffffffffffff\n      and\n      eq\n      iszero\n        /* \"PatientFile.sol\":884:930  require(msg.sender!= _addr,\"Already manager.\") */\n      tag_159\n      jumpi\n      mload(0x40)\n      0x08c379a000000000000000000000000000000000000000000000000000000000\n      dup2\n      mstore\n      0x04\n      add\n      tag_160\n      swap1\n      tag_161\n      jump\t// in\n    tag_160:\n      mload(0x40)\n      dup1\n      swap2\n      sub\n      swap1\n      revert\n    tag_159:\n        /* \"PatientFile.sol\":951:956  _addr */\n      dup2\n        /* \"PatientFile.sol\":941:948  manager */\n      0x00\n      dup1\n        /* \"PatientFile.sol\":941:956  manager = _addr */\n      0x0100\n      exp\n      dup2\n      sload\n      dup2\n      0xffffffffffffffffffffffffffffffffffffffff\n      mul\n      not\n      and\n      swap1\n      dup4\n      0xffffffffffffffffffffffffffffffffffffffff\n      and\n      mul\n      or\n      swap1\n      sstore\n      pop\n        /* \"PatientFile.sol\":999:1004  _addr */\n      dup2\n        /* \"PatientFile.sol\":972:1005  ManagerChanged(msg.sender, _addr) */\n      0xffffffffffffffffffffffffffffffffffffffff\n      and\n        /* \"PatientFile.sol\":987:997  msg.sender */\n      caller\n        /* \"PatientFile.sol\":972:1005  ManagerChanged(msg.sender, _addr) */\n      0xffffffffffffffffffffffffffffffffffffffff\n      and\n      0x605c2dbf762e5f7d60a546d42e7205dcb1b011ebc62a61736a57c9089d3a4350\n      mload(0x40)\n      mload(0x40)\n      dup1\n      swap2\n      sub\n      swap1\n      log3\n        /* \"PatientFile.sol\":1023:1027  true */\n      0x01\n        /* \"PatientFile.sol\":1016:1027  return true */\n      swap1\n      pop\n        /* \"PatientFile.sol\":798:1035  function setManager(address _addr) public onlyManager returns(bool success){... */\n      swap2\n      swap1\n      pop\n      jump\t// out\n    tag_151:\n      dup3\n      dup1\n      sload\n      tag_162\n      swap1\n      tag_72\n      jump\t// in\n    tag_162:\n      swap1\n      0x00\n      mstore\n      keccak256(0x00, 0x20)\n      swap1\n      0x1f\n      add\n      0x20\n      swap1\n      div\n      dup2\n      add\n      swap3\n      dup3\n      tag_164\n      jumpi\n      0x00\n      dup6\n      sstore\n      jump(tag_163)\n    tag_164:\n      dup3\n      0x1f\n      lt\n      tag_165\n      jumpi\n      dup1\n      mload\n      not(0xff)\n      and\n      dup4\n      dup1\n      add\n      or\n      dup6\n      sstore\n      jump(tag_163)\n    tag_165:\n      dup3\n      dup1\n      add\n      0x01\n      add\n      dup6\n      sstore\n      dup3\n      iszero\n      tag_163\n      jumpi\n      swap2\n      dup3\n      add\n    tag_166:\n      dup3\n      dup2\n      gt\n      iszero\n      tag_167\n      jumpi\n      dup3\n      mload\n      dup3\n      sstore\n      swap2\n      0x20\n      add\n      swap2\n      swap1\n      0x01\n      add\n      swap1\n      jump(tag_166)\n    tag_167:\n    tag_163:\n      pop\n      swap1\n      pop\n      tag_168\n      swap2\n      swap1\n      tag_169\n      jump\t// in\n    tag_168:\n      pop\n      swap1\n      jump\t// out\n    tag_169:\n    tag_170:\n      dup1\n      dup3\n      gt\n      iszero\n      tag_171\n      jumpi\n      0x00\n      dup2\n      0x00\n      swap1\n      sstore\n      pop\n      0x01\n      add\n      jump(tag_170)\n    tag_171:\n      pop\n      swap1\n      jump\t// out\n        /* \"#utility.yul\":7:82   */\n    tag_172:\n        /* \"#utility.yul\":40:46   */\n      0x00\n        /* \"#utility.yul\":73:75   */\n      0x40\n        /* \"#utility.yul\":67:76   */\n      mload\n        /* \"#utility.yul\":57:76   */\n      swap1\n      pop\n        /* \"#utility.yul\":7:82   */\n      swap1\n      jump\t// out\n        /* \"#utility.yul\":88:205   */\n    tag_173:\n        /* \"#utility.yul\":197:198   */\n      0x00\n        /* \"#utility.yul\":194:195   */\n      dup1\n        /* \"#utility.yul\":187:199   */\n      revert\n        /* \"#utility.yul\":211:328   */\n    tag_174:\n        /* \"#utility.yul\":320:321   */\n      0x00\n        /* \"#utility.yul\":317:318   */\n      dup1\n        /* \"#utility.yul\":310:322   */\n      revert\n        /* \"#utility.yul\":334:411   */\n    tag_175:\n        /* \"#utility.yul\":371:378   */\n      0x00\n        /* \"#utility.yul\":400:405   */\n      dup2\n        /* \"#utility.yul\":389:405   */\n      swap1\n      pop\n        /* \"#utility.yul\":334:411   */\n      swap2\n      swap1\n      pop\n      jump\t// out\n        /* \"#utility.yul\":417:539   */\n    tag_176:\n        /* \"#utility.yul\":490:514   */\n      tag_226\n        /* \"#utility.yul\":508:513   */\n      dup2\n        /* \"#utility.yul\":490:514   */\n      tag_175\n      jump\t// in\n    tag_226:\n        /* \"#utility.yul\":483:488   */\n      dup2\n        /* \"#utility.yul\":480:515   */\n      eq\n        /* \"#utility.yul\":470:533   */\n      tag_227\n      jumpi\n        /* \"#utility.yul\":529:530   */\n      0x00\n        /* \"#utility.yul\":526:527   */\n      dup1\n        /* \"#utility.yul\":519:531   */\n      revert\n        /* \"#utility.yul\":470:533   */\n    tag_227:\n        /* \"#utility.yul\":417:539   */\n      pop\n      jump\t// out\n        /* \"#utility.yul\":545:684   */\n    tag_177:\n        /* \"#utility.yul\":591:596   */\n      0x00\n        /* \"#utility.yul\":629:635   */\n      dup2\n        /* \"#utility.yul\":616:636   */\n      calldataload\n        /* \"#utility.yul\":607:636   */\n      swap1\n      pop\n        /* \"#utility.yul\":645:678   */\n      tag_229\n        /* \"#utility.yul\":672:677   */\n      dup2\n        /* \"#utility.yul\":645:678   */\n      tag_176\n      jump\t// in\n    tag_229:\n        /* \"#utility.yul\":545:684   */\n      swap3\n      swap2\n      pop\n      pop\n      jump\t// out\n        /* \"#utility.yul\":690:1019   */\n    tag_15:\n        /* \"#utility.yul\":749:755   */\n      0x00\n        /* \"#utility.yul\":798:800   */\n      0x20\n        /* \"#utility.yul\":786:795   */\n      dup3\n        /* \"#utility.yul\":777:784   */\n      dup5\n        /* \"#utility.yul\":773:796   */\n      sub\n        /* \"#utility.yul\":769:801   */\n      slt\n        /* \"#utility.yul\":766:885   */\n      iszero\n      tag_231\n      jumpi\n        /* \"#utility.yul\":804:883   */\n      tag_232\n      tag_173\n      jump\t// in\n    tag_232:\n        /* \"#utility.yul\":766:885   */\n    tag_231:\n        /* \"#utility.yul\":924:925   */\n      0x00\n        /* \"#utility.yul\":949:1002   */\n      tag_233\n        /* \"#utility.yul\":994:1001   */\n      dup5\n        /* \"#utility.yul\":985:991   */\n      dup3\n        /* \"#utility.yul\":974:983   */\n      dup6\n        /* \"#utility.yul\":970:992   */\n      add\n        /* \"#utility.yul\":949:1002   */\n      tag_177\n      jump\t// in\n    tag_233:\n        /* \"#utility.yul\":939:1002   */\n      swap2\n      pop\n        /* \"#utility.yul\":895:1012   */\n      pop\n        /* \"#utility.yul\":690:1019   */\n      swap3\n      swap2\n      pop\n      pop\n      jump\t// out\n        /* \"#utility.yul\":1025:1151   */\n    tag_178:\n        /* \"#utility.yul\":1062:1069   */\n      0x00\n        /* \"#utility.yul\":1102:1144   */\n      0xffffffffffffffffffffffffffffffffffffffff\n        /* \"#utility.yul\":1095:1100   */\n      dup3\n        /* \"#utility.yul\":1091:1145   */\n      and\n        /* \"#utility.yul\":1080:1145   */\n      swap1\n      pop\n        /* \"#utility.yul\":1025:1151   */\n      swap2\n      swap1\n      pop\n      jump\t// out\n        /* \"#utility.yul\":1157:1253   */\n    tag_179:\n        /* \"#utility.yul\":1194:1201   */\n      0x00\n        /* \"#utility.yul\":1223:1247   */\n      tag_236\n        /* \"#utility.yul\":1241:1246   */\n      dup3\n        /* \"#utility.yul\":1223:1247   */\n      tag_178\n      jump\t// in\n    tag_236:\n        /* \"#utility.yul\":1212:1247   */\n      swap1\n      pop\n        /* \"#utility.yul\":1157:1253   */\n      swap2\n      swap1\n      pop\n      jump\t// out\n        /* \"#utility.yul\":1259:1377   */\n    tag_180:\n        /* \"#utility.yul\":1346:1370   */\n      tag_238\n        /* \"#utility.yul\":1364:1369   */\n      dup2\n        /* \"#utility.yul\":1346:1370   */\n      tag_179\n      jump\t// in\n    tag_238:\n        /* \"#utility.yul\":1341:1344   */\n      dup3\n        /* \"#utility.yul\":1334:1371   */\n      mstore\n        /* \"#utility.yul\":1259:1377   */\n      pop\n      pop\n      jump\t// out\n        /* \"#utility.yul\":1383:1605   */\n    tag_18:\n        /* \"#utility.yul\":1476:1480   */\n      0x00\n        /* \"#utility.yul\":1514:1516   */\n      0x20\n        /* \"#utility.yul\":1503:1512   */\n      dup3\n        /* \"#utility.yul\":1499:1517   */\n      add\n        /* \"#utility.yul\":1491:1517   */\n      swap1\n      pop\n        /* \"#utility.yul\":1527:1598   */\n      tag_240\n        /* \"#utility.yul\":1595:1596   */\n      0x00\n        /* \"#utility.yul\":1584:1593   */\n      dup4\n        /* \"#utility.yul\":1580:1597   */\n      add\n        /* \"#utility.yul\":1571:1577   */\n      dup5\n        /* \"#utility.yul\":1527:1598   */\n      tag_180\n      jump\t// in\n    tag_240:\n        /* \"#utility.yul\":1383:1605   */\n      swap3\n      swap2\n      pop\n      pop\n      jump\t// out\n        /* \"#utility.yul\":1611:1733   */\n    tag_181:\n        /* \"#utility.yul\":1684:1708   */\n      tag_242\n        /* \"#utility.yul\":1702:1707   */\n      dup2\n        /* \"#utility.yul\":1684:1708   */\n      tag_179\n      jump\t// in\n    tag_242:\n        /* \"#utility.yul\":1677:1682   */\n      dup2\n        /* \"#utility.yul\":1674:1709   */\n      eq\n        /* \"#utility.yul\":1664:1727   */\n      tag_243\n      jumpi\n        /* \"#utility.yul\":1723:1724   */\n      0x00\n        /* \"#utility.yul\":1720:1721   */\n      dup1\n        /* \"#utility.yul\":1713:1725   */\n      revert\n        /* \"#utility.yul\":1664:1727   */\n    tag_243:\n        /* \"#utility.yul\":1611:1733   */\n      pop\n      jump\t// out\n        /* \"#utility.yul\":1739:1878   */\n    tag_182:\n        /* \"#utility.yul\":1785:1790   */\n      0x00\n        /* \"#utility.yul\":1823:1829   */\n      dup2\n        /* \"#utility.yul\":1810:1830   */\n      calldataload\n        /* \"#utility.yul\":1801:1830   */\n      swap1\n      pop\n        /* \"#utility.yul\":1839:1872   */\n      tag_245\n        /* \"#utility.yul\":1866:1871   */\n      dup2\n        /* \"#utility.yul\":1839:1872   */\n      tag_181\n      jump\t// in\n    tag_245:\n        /* \"#utility.yul\":1739:1878   */\n      swap3\n      swap2\n      pop\n      pop\n      jump\t// out\n        /* \"#utility.yul\":1884:2213   */\n    tag_21:\n        /* \"#utility.yul\":1943:1949   */\n      0x00\n        /* \"#utility.yul\":1992:1994   */\n      0x20\n        /* \"#utility.yul\":1980:1989   */\n      dup3\n        /* \"#utility.yul\":1971:1978   */\n      dup5\n        /* \"#utility.yul\":1967:1990   */\n      sub\n        /* \"#utility.yul\":1963:1995   */\n      slt\n        /* \"#utility.yul\":1960:2079   */\n      iszero\n      tag_247\n      jumpi\n        /* \"#utility.yul\":1998:2077   */\n      tag_248\n      tag_173\n      jump\t// in\n    tag_248:\n        /* \"#utility.yul\":1960:2079   */\n    tag_247:\n        /* \"#utility.yul\":2118:2119   */\n      0x00\n        /* \"#utility.yul\":2143:2196   */\n      tag_249\n        /* \"#utility.yul\":2188:2195   */\n      dup5\n        /* \"#utility.yul\":2179:2185   */\n      dup3\n        /* \"#utility.yul\":2168:2177   */\n      dup6\n        /* \"#utility.yul\":2164:2186   */\n      add\n        /* \"#utility.yul\":2143:2196   */\n      tag_182\n      jump\t// in\n    tag_249:\n        /* \"#utility.yul\":2133:2196   */\n      swap2\n      pop\n        /* \"#utility.yul\":2089:2206   */\n      pop\n        /* \"#utility.yul\":1884:2213   */\n      swap3\n      swap2\n      pop\n      pop\n      jump\t// out\n        /* \"#utility.yul\":2219:2309   */\n    tag_183:\n        /* \"#utility.yul\":2253:2260   */\n      0x00\n        /* \"#utility.yul\":2296:2301   */\n      dup2\n        /* \"#utility.yul\":2289:2302   */\n      iszero\n        /* \"#utility.yul\":2282:2303   */\n      iszero\n        /* \"#utility.yul\":2271:2303   */\n      swap1\n      pop\n        /* \"#utility.yul\":2219:2309   */\n      swap2\n      swap1\n      pop\n      jump\t// out\n        /* \"#utility.yul\":2315:2424   */\n    tag_184:\n        /* \"#utility.yul\":2396:2417   */\n      tag_252\n        /* \"#utility.yul\":2411:2416   */\n      dup2\n        /* \"#utility.yul\":2396:2417   */\n      tag_183\n      jump\t// in\n    tag_252:\n        /* \"#utility.yul\":2391:2394   */\n      dup3\n        /* \"#utility.yul\":2384:2418   */\n      mstore\n        /* \"#utility.yul\":2315:2424   */\n      pop\n      pop\n      jump\t// out\n        /* \"#utility.yul\":2430:2640   */\n    tag_24:\n        /* \"#utility.yul\":2517:2521   */\n      0x00\n        /* \"#utility.yul\":2555:2557   */\n      0x20\n        /* \"#utility.yul\":2544:2553   */\n      dup3\n        /* \"#utility.yul\":2540:2558   */\n      add\n        /* \"#utility.yul\":2532:2558   */\n      swap1\n      pop\n        /* \"#utility.yul\":2568:2633   */\n      tag_254\n        /* \"#utility.yul\":2630:2631   */\n      0x00\n        /* \"#utility.yul\":2619:2628   */\n      dup4\n        /* \"#utility.yul\":2615:2632   */\n      add\n        /* \"#utility.yul\":2606:2612   */\n      dup5\n        /* \"#utility.yul\":2568:2633   */\n      tag_184\n      jump\t// in\n    tag_254:\n        /* \"#utility.yul\":2430:2640   */\n      swap3\n      swap2\n      pop\n      pop\n      jump\t// out\n        /* \"#utility.yul\":2646:2764   */\n    tag_185:\n        /* \"#utility.yul\":2733:2757   */\n      tag_256\n        /* \"#utility.yul\":2751:2756   */\n      dup2\n        /* \"#utility.yul\":2733:2757   */\n      tag_175\n      jump\t// in\n    tag_256:\n        /* \"#utility.yul\":2728:2731   */\n      dup3\n        /* \"#utility.yul\":2721:2758   */\n      mstore\n        /* \"#utility.yul\":2646:2764   */\n      pop\n      pop\n      jump\t// out\n        /* \"#utility.yul\":2770:2992   */\n    tag_28:\n        /* \"#utility.yul\":2863:2867   */\n      0x00\n        /* \"#utility.yul\":2901:2903   */\n      0x20\n        /* \"#utility.yul\":2890:2899   */\n      dup3\n        /* \"#utility.yul\":2886:2904   */\n      add\n        /* \"#utility.yul\":2878:2904   */\n      swap1\n      pop\n        /* \"#utility.yul\":2914:2985   */\n      tag_258\n        /* \"#utility.yul\":2982:2983   */\n      0x00\n        /* \"#utility.yul\":2971:2980   */\n      dup4\n        /* \"#utility.yul\":2967:2984   */\n      add\n        /* \"#utility.yul\":2958:2964   */\n      dup5\n        /* \"#utility.yul\":2914:2985   */\n      tag_185\n      jump\t// in\n    tag_258:\n        /* \"#utility.yul\":2770:2992   */\n      swap3\n      swap2\n      pop\n      pop\n      jump\t// out\n        /* \"#utility.yul\":2998:3097   */\n    tag_186:\n        /* \"#utility.yul\":3050:3056   */\n      0x00\n        /* \"#utility.yul\":3084:3089   */\n      dup2\n        /* \"#utility.yul\":3078:3090   */\n      mload\n        /* \"#utility.yul\":3068:3090   */\n      swap1\n      pop\n        /* \"#utility.yul\":2998:3097   */\n      swap2\n      swap1\n      pop\n      jump\t// out\n        /* \"#utility.yul\":3103:3272   */\n    tag_187:\n        /* \"#utility.yul\":3187:3198   */\n      0x00\n        /* \"#utility.yul\":3221:3227   */\n      dup3\n        /* \"#utility.yul\":3216:3219   */\n      dup3\n        /* \"#utility.yul\":3209:3228   */\n      mstore\n        /* \"#utility.yul\":3261:3265   */\n      0x20\n        /* \"#utility.yul\":3256:3259   */\n      dup3\n        /* \"#utility.yul\":3252:3266   */\n      add\n        /* \"#utility.yul\":3237:3266   */\n      swap1\n      pop\n        /* \"#utility.yul\":3103:3272   */\n      swap3\n      swap2\n      pop\n      pop\n      jump\t// out\n        /* \"#utility.yul\":3278:3585   */\n    tag_188:\n        /* \"#utility.yul\":3346:3347   */\n      0x00\n        /* \"#utility.yul\":3356:3469   */\n    tag_262:\n        /* \"#utility.yul\":3370:3376   */\n      dup4\n        /* \"#utility.yul\":3367:3368   */\n      dup2\n        /* \"#utility.yul\":3364:3377   */\n      lt\n        /* \"#utility.yul\":3356:3469   */\n      iszero\n      tag_264\n      jumpi\n        /* \"#utility.yul\":3455:3456   */\n      dup1\n        /* \"#utility.yul\":3450:3453   */\n      dup3\n        /* \"#utility.yul\":3446:3457   */\n      add\n        /* \"#utility.yul\":3440:3458   */\n      mload\n        /* \"#utility.yul\":3436:3437   */\n      dup2\n        /* \"#utility.yul\":3431:3434   */\n      dup5\n        /* \"#utility.yul\":3427:3438   */\n      add\n        /* \"#utility.yul\":3420:3459   */\n      mstore\n        /* \"#utility.yul\":3392:3394   */\n      0x20\n        /* \"#utility.yul\":3389:3390   */\n      dup2\n        /* \"#utility.yul\":3385:3395   */\n      add\n        /* \"#utility.yul\":3380:3395   */\n      swap1\n      pop\n        /* \"#utility.yul\":3356:3469   */\n      jump(tag_262)\n    tag_264:\n        /* \"#utility.yul\":3487:3493   */\n      dup4\n        /* \"#utility.yul\":3484:3485   */\n      dup2\n        /* \"#utility.yul\":3481:3494   */\n      gt\n        /* \"#utility.yul\":3478:3579   */\n      iszero\n      tag_265\n      jumpi\n        /* \"#utility.yul\":3567:3568   */\n      0x00\n        /* \"#utility.yul\":3558:3564   */\n      dup5\n        /* \"#utility.yul\":3553:3556   */\n      dup5\n        /* \"#utility.yul\":3549:3565   */\n      add\n        /* \"#utility.yul\":3542:3569   */\n      mstore\n        /* \"#utility.yul\":3478:3579   */\n    tag_265:\n        /* \"#utility.yul\":3327:3585   */\n      pop\n        /* \"#utility.yul\":3278:3585   */\n      pop\n      pop\n      pop\n      jump\t// out\n        /* \"#utility.yul\":3591:3693   */\n    tag_189:\n        /* \"#utility.yul\":3632:3638   */\n      0x00\n        /* \"#utility.yul\":3683:3685   */\n      0x1f\n        /* \"#utility.yul\":3679:3686   */\n      not\n        /* \"#utility.yul\":3674:3676   */\n      0x1f\n        /* \"#utility.yul\":3667:3672   */\n      dup4\n        /* \"#utility.yul\":3663:3677   */\n      add\n        /* \"#utility.yul\":3659:3687   */\n      and\n        /* \"#utility.yul\":3649:3687   */\n      swap1\n      pop\n        /* \"#utility.yul\":3591:3693   */\n      swap2\n      swap1\n      pop\n      jump\t// out\n        /* \"#utility.yul\":3699:4063   */\n    tag_190:\n        /* \"#utility.yul\":3787:3790   */\n      0x00\n        /* \"#utility.yul\":3815:3854   */\n      tag_268\n        /* \"#utility.yul\":3848:3853   */\n      dup3\n        /* \"#utility.yul\":3815:3854   */\n      tag_186\n      jump\t// in\n    tag_268:\n        /* \"#utility.yul\":3870:3941   */\n      tag_269\n        /* \"#utility.yul\":3934:3940   */\n      dup2\n        /* \"#utility.yul\":3929:3932   */\n      dup6\n        /* \"#utility.yul\":3870:3941   */\n      tag_187\n      jump\t// in\n    tag_269:\n        /* \"#utility.yul\":3863:3941   */\n      swap4\n      pop\n        /* \"#utility.yul\":3950:4002   */\n      tag_270\n        /* \"#utility.yul\":3995:4001   */\n      dup2\n        /* \"#utility.yul\":3990:3993   */\n      dup6\n        /* \"#utility.yul\":3983:3987   */\n      0x20\n        /* \"#utility.yul\":3976:3981   */\n      dup7\n        /* \"#utility.yul\":3972:3988   */\n      add\n        /* \"#utility.yul\":3950:4002   */\n      tag_188\n      jump\t// in\n    tag_270:\n        /* \"#utility.yul\":4027:4056   */\n      tag_271\n        /* \"#utility.yul\":4049:4055   */\n      dup2\n        /* \"#utility.yul\":4027:4056   */\n      tag_189\n      jump\t// in\n    tag_271:\n        /* \"#utility.yul\":4022:4025   */\n      dup5\n        /* \"#utility.yul\":4018:4057   */\n      add\n        /* \"#utility.yul\":4011:4057   */\n      swap2\n      pop\n        /* \"#utility.yul\":3791:4063   */\n      pop\n        /* \"#utility.yul\":3699:4063   */\n      swap3\n      swap2\n      pop\n      pop\n      jump\t// out\n        /* \"#utility.yul\":4069:5307   */\n    tag_36:\n        /* \"#utility.yul\":4404:4408   */\n      0x00\n        /* \"#utility.yul\":4442:4445   */\n      0xe0\n        /* \"#utility.yul\":4431:4440   */\n      dup3\n        /* \"#utility.yul\":4427:4446   */\n      add\n        /* \"#utility.yul\":4419:4446   */\n      swap1\n      pop\n        /* \"#utility.yul\":4456:4527   */\n      tag_273\n        /* \"#utility.yul\":4524:4525   */\n      0x00\n        /* \"#utility.yul\":4513:4522   */\n      dup4\n        /* \"#utility.yul\":4509:4526   */\n      add\n        /* \"#utility.yul\":4500:4506   */\n      dup11\n        /* \"#utility.yul\":4456:4527   */\n      tag_185\n      jump\t// in\n    tag_273:\n        /* \"#utility.yul\":4574:4583   */\n      dup2\n        /* \"#utility.yul\":4568:4572   */\n      dup2\n        /* \"#utility.yul\":4564:4584   */\n      sub\n        /* \"#utility.yul\":4559:4561   */\n      0x20\n        /* \"#utility.yul\":4548:4557   */\n      dup4\n        /* \"#utility.yul\":4544:4562   */\n      add\n        /* \"#utility.yul\":4537:4585   */\n      mstore\n        /* \"#utility.yul\":4602:4680   */\n      tag_274\n        /* \"#utility.yul\":4675:4679   */\n      dup2\n        /* \"#utility.yul\":4666:4672   */\n      dup10\n        /* \"#utility.yul\":4602:4680   */\n      tag_190\n      jump\t// in\n    tag_274:\n        /* \"#utility.yul\":4594:4680   */\n      swap1\n      pop\n        /* \"#utility.yul\":4727:4736   */\n      dup2\n        /* \"#utility.yul\":4721:4725   */\n      dup2\n        /* \"#utility.yul\":4717:4737   */\n      sub\n        /* \"#utility.yul\":4712:4714   */\n      0x40\n        /* \"#utility.yul\":4701:4710   */\n      dup4\n        /* \"#utility.yul\":4697:4715   */\n      add\n        /* \"#utility.yul\":4690:4738   */\n      mstore\n        /* \"#utility.yul\":4755:4833   */\n      tag_275\n        /* \"#utility.yul\":4828:4832   */\n      dup2\n        /* \"#utility.yul\":4819:4825   */\n      dup9\n        /* \"#utility.yul\":4755:4833   */\n      tag_190\n      jump\t// in\n    tag_275:\n        /* \"#utility.yul\":4747:4833   */\n      swap1\n      pop\n        /* \"#utility.yul\":4880:4889   */\n      dup2\n        /* \"#utility.yul\":4874:4878   */\n      dup2\n        /* \"#utility.yul\":4870:4890   */\n      sub\n        /* \"#utility.yul\":4865:4867   */\n      0x60\n        /* \"#utility.yul\":4854:4863   */\n      dup4\n        /* \"#utility.yul\":4850:4868   */\n      add\n        /* \"#utility.yul\":4843:4891   */\n      mstore\n        /* \"#utility.yul\":4908:4986   */\n      tag_276\n        /* \"#utility.yul\":4981:4985   */\n      dup2\n        /* \"#utility.yul\":4972:4978   */\n      dup8\n        /* \"#utility.yul\":4908:4986   */\n      tag_190\n      jump\t// in\n    tag_276:\n        /* \"#utility.yul\":4900:4986   */\n      swap1\n      pop\n        /* \"#utility.yul\":5034:5043   */\n      dup2\n        /* \"#utility.yul\":5028:5032   */\n      dup2\n        /* \"#utility.yul\":5024:5044   */\n      sub\n        /* \"#utility.yul\":5018:5021   */\n      0x80\n        /* \"#utility.yul\":5007:5016   */\n      dup4\n        /* \"#utility.yul\":5003:5022   */\n      add\n        /* \"#utility.yul\":4996:5045   */\n      mstore\n        /* \"#utility.yul\":5062:5140   */\n      tag_277\n        /* \"#utility.yul\":5135:5139   */\n      dup2\n        /* \"#utility.yul\":5126:5132   */\n      dup7\n        /* \"#utility.yul\":5062:5140   */\n      tag_190\n      jump\t// in\n    tag_277:\n        /* \"#utility.yul\":5054:5140   */\n      swap1\n      pop\n        /* \"#utility.yul\":5150:5223   */\n      tag_278\n        /* \"#utility.yul\":5218:5221   */\n      0xa0\n        /* \"#utility.yul\":5207:5216   */\n      dup4\n        /* \"#utility.yul\":5203:5222   */\n      add\n        /* \"#utility.yul\":5194:5200   */\n      dup6\n        /* \"#utility.yul\":5150:5223   */\n      tag_180\n      jump\t// in\n    tag_278:\n        /* \"#utility.yul\":5233:5300   */\n      tag_279\n        /* \"#utility.yul\":5295:5298   */\n      0xc0\n        /* \"#utility.yul\":5284:5293   */\n      dup4\n        /* \"#utility.yul\":5280:5299   */\n      add\n        /* \"#utility.yul\":5271:5277   */\n      dup5\n        /* \"#utility.yul\":5233:5300   */\n      tag_184\n      jump\t// in\n    tag_279:\n        /* \"#utility.yul\":4069:5307   */\n      swap9\n      swap8\n      pop\n      pop\n      pop\n      pop\n      pop\n      pop\n      pop\n      pop\n      jump\t// out\n        /* \"#utility.yul\":5313:5430   */\n    tag_191:\n        /* \"#utility.yul\":5422:5423   */\n      0x00\n        /* \"#utility.yul\":5419:5420   */\n      dup1\n        /* \"#utility.yul\":5412:5424   */\n      revert\n        /* \"#utility.yul\":5436:5553   */\n    tag_192:\n        /* \"#utility.yul\":5545:5546   */\n      0x00\n        /* \"#utility.yul\":5542:5543   */\n      dup1\n        /* \"#utility.yul\":5535:5547   */\n      revert\n        /* \"#utility.yul\":5559:5739   */\n    tag_193:\n        /* \"#utility.yul\":5607:5684   */\n      0x4e487b7100000000000000000000000000000000000000000000000000000000\n        /* \"#utility.yul\":5604:5605   */\n      0x00\n        /* \"#utility.yul\":5597:5685   */\n      mstore\n        /* \"#utility.yul\":5704:5708   */\n      0x41\n        /* \"#utility.yul\":5701:5702   */\n      0x04\n        /* \"#utility.yul\":5694:5709   */\n      mstore\n        /* \"#utility.yul\":5728:5732   */\n      0x24\n        /* \"#utility.yul\":5725:5726   */\n      0x00\n        /* \"#utility.yul\":5718:5733   */\n      revert\n        /* \"#utility.yul\":5745:6026   */\n    tag_194:\n        /* \"#utility.yul\":5828:5855   */\n      tag_284\n        /* \"#utility.yul\":5850:5854   */\n      dup3\n        /* \"#utility.yul\":5828:5855   */\n      tag_189\n      jump\t// in\n    tag_284:\n        /* \"#utility.yul\":5820:5826   */\n      dup2\n        /* \"#utility.yul\":5816:5856   */\n      add\n        /* \"#utility.yul\":5958:5964   */\n      dup2\n        /* \"#utility.yul\":5946:5956   */\n      dup2\n        /* \"#utility.yul\":5943:5965   */\n      lt\n        /* \"#utility.yul\":5922:5940   */\n      0xffffffffffffffff\n        /* \"#utility.yul\":5910:5920   */\n      dup3\n        /* \"#utility.yul\":5907:5941   */\n      gt\n        /* \"#utility.yul\":5904:5966   */\n      or\n        /* \"#utility.yul\":5901:5989   */\n      iszero\n      tag_285\n      jumpi\n        /* \"#utility.yul\":5969:5987   */\n      tag_286\n      tag_193\n      jump\t// in\n    tag_286:\n        /* \"#utility.yul\":5901:5989   */\n    tag_285:\n        /* \"#utility.yul\":6009:6019   */\n      dup1\n        /* \"#utility.yul\":6005:6007   */\n      0x40\n        /* \"#utility.yul\":5998:6020   */\n      mstore\n        /* \"#utility.yul\":5788:6026   */\n      pop\n        /* \"#utility.yul\":5745:6026   */\n      pop\n      pop\n      jump\t// out\n        /* \"#utility.yul\":6032:6161   */\n    tag_195:\n        /* \"#utility.yul\":6066:6072   */\n      0x00\n        /* \"#utility.yul\":6093:6113   */\n      tag_288\n      tag_172\n      jump\t// in\n    tag_288:\n        /* \"#utility.yul\":6083:6113   */\n      swap1\n      pop\n        /* \"#utility.yul\":6122:6155   */\n      tag_289\n        /* \"#utility.yul\":6150:6154   */\n      dup3\n        /* \"#utility.yul\":6142:6148   */\n      dup3\n        /* \"#utility.yul\":6122:6155   */\n      tag_194\n      jump\t// in\n    tag_289:\n        /* \"#utility.yul\":6032:6161   */\n      swap2\n      swap1\n      pop\n      jump\t// out\n        /* \"#utility.yul\":6167:6475   */\n    tag_196:\n        /* \"#utility.yul\":6229:6233   */\n      0x00\n        /* \"#utility.yul\":6319:6337   */\n      0xffffffffffffffff\n        /* \"#utility.yul\":6311:6317   */\n      dup3\n        /* \"#utility.yul\":6308:6338   */\n      gt\n        /* \"#utility.yul\":6305:6361   */\n      iszero\n      tag_291\n      jumpi\n        /* \"#utility.yul\":6341:6359   */\n      tag_292\n      tag_193\n      jump\t// in\n    tag_292:\n        /* \"#utility.yul\":6305:6361   */\n    tag_291:\n        /* \"#utility.yul\":6379:6408   */\n      tag_293\n        /* \"#utility.yul\":6401:6407   */\n      dup3\n        /* \"#utility.yul\":6379:6408   */\n      tag_189\n      jump\t// in\n    tag_293:\n        /* \"#utility.yul\":6371:6408   */\n      swap1\n      pop\n        /* \"#utility.yul\":6463:6467   */\n      0x20\n        /* \"#utility.yul\":6457:6461   */\n      dup2\n        /* \"#utility.yul\":6453:6468   */\n      add\n        /* \"#utility.yul\":6445:6468   */\n      swap1\n      pop\n        /* \"#utility.yul\":6167:6475   */\n      swap2\n      swap1\n      pop\n      jump\t// out\n        /* \"#utility.yul\":6481:6635   */\n    tag_197:\n        /* \"#utility.yul\":6565:6571   */\n      dup3\n        /* \"#utility.yul\":6560:6563   */\n      dup2\n        /* \"#utility.yul\":6555:6558   */\n      dup4\n        /* \"#utility.yul\":6542:6572   */\n      calldatacopy\n        /* \"#utility.yul\":6627:6628   */\n      0x00\n        /* \"#utility.yul\":6618:6624   */\n      dup4\n        /* \"#utility.yul\":6613:6616   */\n      dup4\n        /* \"#utility.yul\":6609:6625   */\n      add\n        /* \"#utility.yul\":6602:6629   */\n      mstore\n        /* \"#utility.yul\":6481:6635   */\n      pop\n      pop\n      pop\n      jump\t// out\n        /* \"#utility.yul\":6641:7053   */\n    tag_198:\n        /* \"#utility.yul\":6719:6724   */\n      0x00\n        /* \"#utility.yul\":6744:6810   */\n      tag_296\n        /* \"#utility.yul\":6760:6809   */\n      tag_297\n        /* \"#utility.yul\":6802:6808   */\n      dup5\n        /* \"#utility.yul\":6760:6809   */\n      tag_196\n      jump\t// in\n    tag_297:\n        /* \"#utility.yul\":6744:6810   */\n      tag_195\n      jump\t// in\n    tag_296:\n        /* \"#utility.yul\":6735:6810   */\n      swap1\n      pop\n        /* \"#utility.yul\":6833:6839   */\n      dup3\n        /* \"#utility.yul\":6826:6831   */\n      dup2\n        /* \"#utility.yul\":6819:6840   */\n      mstore\n        /* \"#utility.yul\":6871:6875   */\n      0x20\n        /* \"#utility.yul\":6864:6869   */\n      dup2\n        /* \"#utility.yul\":6860:6876   */\n      add\n        /* \"#utility.yul\":6909:6912   */\n      dup5\n        /* \"#utility.yul\":6900:6906   */\n      dup5\n        /* \"#utility.yul\":6895:6898   */\n      dup5\n        /* \"#utility.yul\":6891:6907   */\n      add\n        /* \"#utility.yul\":6888:6913   */\n      gt\n        /* \"#utility.yul\":6885:6997   */\n      iszero\n      tag_298\n      jumpi\n        /* \"#utility.yul\":6916:6995   */\n      tag_299\n      tag_192\n      jump\t// in\n    tag_299:\n        /* \"#utility.yul\":6885:6997   */\n    tag_298:\n        /* \"#utility.yul\":7006:7047   */\n      tag_300\n        /* \"#utility.yul\":7040:7046   */\n      dup5\n        /* \"#utility.yul\":7035:7038   */\n      dup3\n        /* \"#utility.yul\":7030:7033   */\n      dup6\n        /* \"#utility.yul\":7006:7047   */\n      tag_197\n      jump\t// in\n    tag_300:\n        /* \"#utility.yul\":6725:7053   */\n      pop\n        /* \"#utility.yul\":6641:7053   */\n      swap4\n      swap3\n      pop\n      pop\n      pop\n      jump\t// out\n        /* \"#utility.yul\":7073:7413   */\n    tag_199:\n        /* \"#utility.yul\":7129:7134   */\n      0x00\n        /* \"#utility.yul\":7178:7181   */\n      dup3\n        /* \"#utility.yul\":7171:7175   */\n      0x1f\n        /* \"#utility.yul\":7163:7169   */\n      dup4\n        /* \"#utility.yul\":7159:7176   */\n      add\n        /* \"#utility.yul\":7155:7182   */\n      slt\n        /* \"#utility.yul\":7145:7267   */\n      tag_302\n      jumpi\n        /* \"#utility.yul\":7186:7265   */\n      tag_303\n      tag_191\n      jump\t// in\n    tag_303:\n        /* \"#utility.yul\":7145:7267   */\n    tag_302:\n        /* \"#utility.yul\":7303:7309   */\n      dup2\n        /* \"#utility.yul\":7290:7310   */\n      calldataload\n        /* \"#utility.yul\":7328:7407   */\n      tag_304\n        /* \"#utility.yul\":7403:7406   */\n      dup5\n        /* \"#utility.yul\":7395:7401   */\n      dup3\n        /* \"#utility.yul\":7388:7392   */\n      0x20\n        /* \"#utility.yul\":7380:7386   */\n      dup7\n        /* \"#utility.yul\":7376:7393   */\n      add\n        /* \"#utility.yul\":7328:7407   */\n      tag_198\n      jump\t// in\n    tag_304:\n        /* \"#utility.yul\":7319:7407   */\n      swap2\n      pop\n        /* \"#utility.yul\":7135:7413   */\n      pop\n        /* \"#utility.yul\":7073:7413   */\n      swap3\n      swap2\n      pop\n      pop\n      jump\t// out\n        /* \"#utility.yul\":7419:9050   */\n    tag_47:\n        /* \"#utility.yul\":7554:7560   */\n      0x00\n        /* \"#utility.yul\":7562:7568   */\n      dup1\n        /* \"#utility.yul\":7570:7576   */\n      0x00\n        /* \"#utility.yul\":7578:7584   */\n      dup1\n        /* \"#utility.yul\":7586:7592   */\n      0x00\n        /* \"#utility.yul\":7635:7638   */\n      0xa0\n        /* \"#utility.yul\":7623:7632   */\n      dup7\n        /* \"#utility.yul\":7614:7621   */\n      dup9\n        /* \"#utility.yul\":7610:7633   */\n      sub\n        /* \"#utility.yul\":7606:7639   */\n      slt\n        /* \"#utility.yul\":7603:7723   */\n      iszero\n      tag_306\n      jumpi\n        /* \"#utility.yul\":7642:7721   */\n      tag_307\n      tag_173\n      jump\t// in\n    tag_307:\n        /* \"#utility.yul\":7603:7723   */\n    tag_306:\n        /* \"#utility.yul\":7790:7791   */\n      0x00\n        /* \"#utility.yul\":7779:7788   */\n      dup7\n        /* \"#utility.yul\":7775:7792   */\n      add\n        /* \"#utility.yul\":7762:7793   */\n      calldataload\n        /* \"#utility.yul\":7820:7838   */\n      0xffffffffffffffff\n        /* \"#utility.yul\":7812:7818   */\n      dup2\n        /* \"#utility.yul\":7809:7839   */\n      gt\n        /* \"#utility.yul\":7806:7923   */\n      iszero\n      tag_308\n      jumpi\n        /* \"#utility.yul\":7842:7921   */\n      tag_309\n      tag_174\n      jump\t// in\n    tag_309:\n        /* \"#utility.yul\":7806:7923   */\n    tag_308:\n        /* \"#utility.yul\":7947:8010   */\n      tag_310\n        /* \"#utility.yul\":8002:8009   */\n      dup9\n        /* \"#utility.yul\":7993:7999   */\n      dup3\n        /* \"#utility.yul\":7982:7991   */\n      dup10\n        /* \"#utility.yul\":7978:8000   */\n      add\n        /* \"#utility.yul\":7947:8010   */\n      tag_199\n      jump\t// in\n    tag_310:\n        /* \"#utility.yul\":7937:8010   */\n      swap6\n      pop\n        /* \"#utility.yul\":7733:8020   */\n      pop\n        /* \"#utility.yul\":8087:8089   */\n      0x20\n        /* \"#utility.yul\":8076:8085   */\n      dup7\n        /* \"#utility.yul\":8072:8090   */\n      add\n        /* \"#utility.yul\":8059:8091   */\n      calldataload\n        /* \"#utility.yul\":8118:8136   */\n      0xffffffffffffffff\n        /* \"#utility.yul\":8110:8116   */\n      dup2\n        /* \"#utility.yul\":8107:8137   */\n      gt\n        /* \"#utility.yul\":8104:8221   */\n      iszero\n      tag_311\n      jumpi\n        /* \"#utility.yul\":8140:8219   */\n      tag_312\n      tag_174\n      jump\t// in\n    tag_312:\n        /* \"#utility.yul\":8104:8221   */\n    tag_311:\n        /* \"#utility.yul\":8245:8308   */\n      tag_313\n        /* \"#utility.yul\":8300:8307   */\n      dup9\n        /* \"#utility.yul\":8291:8297   */\n      dup3\n        /* \"#utility.yul\":8280:8289   */\n      dup10\n        /* \"#utility.yul\":8276:8298   */\n      add\n        /* \"#utility.yul\":8245:8308   */\n      tag_199\n      jump\t// in\n    tag_313:\n        /* \"#utility.yul\":8235:8308   */\n      swap5\n      pop\n        /* \"#utility.yul\":8030:8318   */\n      pop\n        /* \"#utility.yul\":8385:8387   */\n      0x40\n        /* \"#utility.yul\":8374:8383   */\n      dup7\n        /* \"#utility.yul\":8370:8388   */\n      add\n        /* \"#utility.yul\":8357:8389   */\n      calldataload\n        /* \"#utility.yul\":8416:8434   */\n      0xffffffffffffffff\n        /* \"#utility.yul\":8408:8414   */\n      dup2\n        /* \"#utility.yul\":8405:8435   */\n      gt\n        /* \"#utility.yul\":8402:8519   */\n      iszero\n      tag_314\n      jumpi\n        /* \"#utility.yul\":8438:8517   */\n      tag_315\n      tag_174\n      jump\t// in\n    tag_315:\n        /* \"#utility.yul\":8402:8519   */\n    tag_314:\n        /* \"#utility.yul\":8543:8606   */\n      tag_316\n        /* \"#utility.yul\":8598:8605   */\n      dup9\n        /* \"#utility.yul\":8589:8595   */\n      dup3\n        /* \"#utility.yul\":8578:8587   */\n      dup10\n        /* \"#utility.yul\":8574:8596   */\n      add\n        /* \"#utility.yul\":8543:8606   */\n      tag_199\n      jump\t// in\n    tag_316:\n        /* \"#utility.yul\":8533:8606   */\n      swap4\n      pop\n        /* \"#utility.yul\":8328:8616   */\n      pop\n        /* \"#utility.yul\":8683:8685   */\n      0x60\n        /* \"#utility.yul\":8672:8681   */\n      dup7\n        /* \"#utility.yul\":8668:8686   */\n      add\n        /* \"#utility.yul\":8655:8687   */\n      calldataload\n        /* \"#utility.yul\":8714:8732   */\n      0xffffffffffffffff\n        /* \"#utility.yul\":8706:8712   */\n      dup2\n        /* \"#utility.yul\":8703:8733   */\n      gt\n        /* \"#utility.yul\":8700:8817   */\n      iszero\n      tag_317\n      jumpi\n        /* \"#utility.yul\":8736:8815   */\n      tag_318\n      tag_174\n      jump\t// in\n    tag_318:\n        /* \"#utility.yul\":8700:8817   */\n    tag_317:\n        /* \"#utility.yul\":8841:8904   */\n      tag_319\n        /* \"#utility.yul\":8896:8903   */\n      dup9\n        /* \"#utility.yul\":8887:8893   */\n      dup3\n        /* \"#utility.yul\":8876:8885   */\n      dup10\n        /* \"#utility.yul\":8872:8894   */\n      add\n        /* \"#utility.yul\":8841:8904   */\n      tag_199\n      jump\t// in\n    tag_319:\n        /* \"#utility.yul\":8831:8904   */\n      swap3\n      pop\n        /* \"#utility.yul\":8626:8914   */\n      pop\n        /* \"#utility.yul\":8953:8956   */\n      0x80\n        /* \"#utility.yul\":8980:9033   */\n      tag_320\n        /* \"#utility.yul\":9025:9032   */\n      dup9\n        /* \"#utility.yul\":9016:9022   */\n      dup3\n        /* \"#utility.yul\":9005:9014   */\n      dup10\n        /* \"#utility.yul\":9001:9023   */\n      add\n        /* \"#utility.yul\":8980:9033   */\n      tag_182\n      jump\t// in\n    tag_320:\n        /* \"#utility.yul\":8970:9033   */\n      swap2\n      pop\n        /* \"#utility.yul\":8924:9043   */\n      pop\n        /* \"#utility.yul\":7419:9050   */\n      swap3\n      swap6\n      pop\n      swap3\n      swap6\n      swap1\n      swap4\n      pop\n      jump\t// out\n        /* \"#utility.yul\":9056:9289   */\n    tag_200:\n        /* \"#utility.yul\":9196:9230   */\n      0x4f6e6c79204d616e6167657220686173207065726d697373696f6e20746f2064\n        /* \"#utility.yul\":9192:9193   */\n      0x00\n        /* \"#utility.yul\":9184:9190   */\n      dup3\n        /* \"#utility.yul\":9180:9194   */\n      add\n        /* \"#utility.yul\":9173:9231   */\n      mstore\n        /* \"#utility.yul\":9265:9281   */\n      0x6f207468617420616374696f6e2e000000000000000000000000000000000000\n        /* \"#utility.yul\":9260:9262   */\n      0x20\n        /* \"#utility.yul\":9252:9258   */\n      dup3\n        /* \"#utility.yul\":9248:9263   */\n      add\n        /* \"#utility.yul\":9241:9282   */\n      mstore\n        /* \"#utility.yul\":9056:9289   */\n      pop\n      jump\t// out\n        /* \"#utility.yul\":9295:9661   */\n    tag_201:\n        /* \"#utility.yul\":9437:9440   */\n      0x00\n        /* \"#utility.yul\":9458:9525   */\n      tag_323\n        /* \"#utility.yul\":9522:9524   */\n      0x2e\n        /* \"#utility.yul\":9517:9520   */\n      dup4\n        /* \"#utility.yul\":9458:9525   */\n      tag_187\n      jump\t// in\n    tag_323:\n        /* \"#utility.yul\":9451:9525   */\n      swap2\n      pop\n        /* \"#utility.yul\":9534:9627   */\n      tag_324\n        /* \"#utility.yul\":9623:9626   */\n      dup3\n        /* \"#utility.yul\":9534:9627   */\n      tag_200\n      jump\t// in\n    tag_324:\n        /* \"#utility.yul\":9652:9654   */\n      0x40\n        /* \"#utility.yul\":9647:9650   */\n      dup3\n        /* \"#utility.yul\":9643:9655   */\n      add\n        /* \"#utility.yul\":9636:9655   */\n      swap1\n      pop\n        /* \"#utility.yul\":9295:9661   */\n      swap2\n      swap1\n      pop\n      jump\t// out\n        /* \"#utility.yul\":9667:10086   */\n    tag_59:\n        /* \"#utility.yul\":9833:9837   */\n      0x00\n        /* \"#utility.yul\":9871:9873   */\n      0x20\n        /* \"#utility.yul\":9860:9869   */\n      dup3\n        /* \"#utility.yul\":9856:9874   */\n      add\n        /* \"#utility.yul\":9848:9874   */\n      swap1\n      pop\n        /* \"#utility.yul\":9920:9929   */\n      dup2\n        /* \"#utility.yul\":9914:9918   */\n      dup2\n        /* \"#utility.yul\":9910:9930   */\n      sub\n        /* \"#utility.yul\":9906:9907   */\n      0x00\n        /* \"#utility.yul\":9895:9904   */\n      dup4\n        /* \"#utility.yul\":9891:9908   */\n      add\n        /* \"#utility.yul\":9884:9931   */\n      mstore\n        /* \"#utility.yul\":9948:10079   */\n      tag_326\n        /* \"#utility.yul\":10074:10078   */\n      dup2\n        /* \"#utility.yul\":9948:10079   */\n      tag_201\n      jump\t// in\n    tag_326:\n        /* \"#utility.yul\":9940:10079   */\n      swap1\n      pop\n        /* \"#utility.yul\":9667:10086   */\n      swap2\n      swap1\n      pop\n      jump\t// out\n        /* \"#utility.yul\":10092:10271   */\n    tag_202:\n        /* \"#utility.yul\":10232:10263   */\n      0x43616e27742072656d6f7665206f776e65722066726f6d2061646d696e000000\n        /* \"#utility.yul\":10228:10229   */\n      0x00\n        /* \"#utility.yul\":10220:10226   */\n      dup3\n        /* \"#utility.yul\":10216:10230   */\n      add\n        /* \"#utility.yul\":10209:10264   */\n      mstore\n        /* \"#utility.yul\":10092:10271   */\n      pop\n      jump\t// out\n        /* \"#utility.yul\":10277:10643   */\n    tag_203:\n        /* \"#utility.yul\":10419:10422   */\n      0x00\n        /* \"#utility.yul\":10440:10507   */\n      tag_329\n        /* \"#utility.yul\":10504:10506   */\n      0x1d\n        /* \"#utility.yul\":10499:10502   */\n      dup4\n        /* \"#utility.yul\":10440:10507   */\n      tag_187\n      jump\t// in\n    tag_329:\n        /* \"#utility.yul\":10433:10507   */\n      swap2\n      pop\n        /* \"#utility.yul\":10516:10609   */\n      tag_330\n        /* \"#utility.yul\":10605:10608   */\n      dup3\n        /* \"#utility.yul\":10516:10609   */\n      tag_202\n      jump\t// in\n    tag_330:\n        /* \"#utility.yul\":10634:10636   */\n      0x20\n        /* \"#utility.yul\":10629:10632   */\n      dup3\n        /* \"#utility.yul\":10625:10637   */\n      add\n        /* \"#utility.yul\":10618:10637   */\n      swap1\n      pop\n        /* \"#utility.yul\":10277:10643   */\n      swap2\n      swap1\n      pop\n      jump\t// out\n        /* \"#utility.yul\":10649:11068   */\n    tag_63:\n        /* \"#utility.yul\":10815:10819   */\n      0x00\n        /* \"#utility.yul\":10853:10855   */\n      0x20\n        /* \"#utility.yul\":10842:10851   */\n      dup3\n        /* \"#utility.yul\":10838:10856   */\n      add\n        /* \"#utility.yul\":10830:10856   */\n      swap1\n      pop\n        /* \"#utility.yul\":10902:10911   */\n      dup2\n        /* \"#utility.yul\":10896:10900   */\n      dup2\n        /* \"#utility.yul\":10892:10912   */\n      sub\n        /* \"#utility.yul\":10888:10889   */\n      0x00\n        /* \"#utility.yul\":10877:10886   */\n      dup4\n        /* \"#utility.yul\":10873:10890   */\n      add\n        /* \"#utility.yul\":10866:10913   */\n      mstore\n        /* \"#utility.yul\":10930:11061   */\n      tag_332\n        /* \"#utility.yul\":11056:11060   */\n      dup2\n        /* \"#utility.yul\":10930:11061   */\n      tag_203\n      jump\t// in\n    tag_332:\n        /* \"#utility.yul\":10922:11061   */\n      swap1\n      pop\n        /* \"#utility.yul\":10649:11068   */\n      swap2\n      swap1\n      pop\n      jump\t// out\n        /* \"#utility.yul\":11074:11249   */\n    tag_204:\n        /* \"#utility.yul\":11214:11241   */\n      0x55736572206e6f742061646d696e20616c726561647921212100000000000000\n        /* \"#utility.yul\":11210:11211   */\n      0x00\n        /* \"#utility.yul\":11202:11208   */\n      dup3\n        /* \"#utility.yul\":11198:11212   */\n      add\n        /* \"#utility.yul\":11191:11242   */\n      mstore\n        /* \"#utility.yul\":11074:11249   */\n      pop\n      jump\t// out\n        /* \"#utility.yul\":11255:11621   */\n    tag_205:\n        /* \"#utility.yul\":11397:11400   */\n      0x00\n        /* \"#utility.yul\":11418:11485   */\n      tag_335\n        /* \"#utility.yul\":11482:11484   */\n      0x19\n        /* \"#utility.yul\":11477:11480   */\n      dup4\n        /* \"#utility.yul\":11418:11485   */\n      tag_187\n      jump\t// in\n    tag_335:\n        /* \"#utility.yul\":11411:11485   */\n      swap2\n      pop\n        /* \"#utility.yul\":11494:11587   */\n      tag_336\n        /* \"#utility.yul\":11583:11586   */\n      dup3\n        /* \"#utility.yul\":11494:11587   */\n      tag_204\n      jump\t// in\n    tag_336:\n        /* \"#utility.yul\":11612:11614   */\n      0x20\n        /* \"#utility.yul\":11607:11610   */\n      dup3\n        /* \"#utility.yul\":11603:11615   */\n      add\n        /* \"#utility.yul\":11596:11615   */\n      swap1\n      pop\n        /* \"#utility.yul\":11255:11621   */\n      swap2\n      swap1\n      pop\n      jump\t// out\n        /* \"#utility.yul\":11627:12046   */\n    tag_66:\n        /* \"#utility.yul\":11793:11797   */\n      0x00\n        /* \"#utility.yul\":11831:11833   */\n      0x20\n        /* \"#utility.yul\":11820:11829   */\n      dup3\n        /* \"#utility.yul\":11816:11834   */\n      add\n        /* \"#utility.yul\":11808:11834   */\n      swap1\n      pop\n        /* \"#utility.yul\":11880:11889   */\n      dup2\n        /* \"#utility.yul\":11874:11878   */\n      dup2\n        /* \"#utility.yul\":11870:11890   */\n      sub\n        /* \"#utility.yul\":11866:11867   */\n      0x00\n        /* \"#utility.yul\":11855:11864   */\n      dup4\n        /* \"#utility.yul\":11851:11868   */\n      add\n        /* \"#utility.yul\":11844:11891   */\n      mstore\n        /* \"#utility.yul\":11908:12039   */\n      tag_338\n        /* \"#utility.yul\":12034:12038   */\n      dup2\n        /* \"#utility.yul\":11908:12039   */\n      tag_205\n      jump\t// in\n    tag_338:\n        /* \"#utility.yul\":11900:12039   */\n      swap1\n      pop\n        /* \"#utility.yul\":11627:12046   */\n      swap2\n      swap1\n      pop\n      jump\t// out\n        /* \"#utility.yul\":12052:12225   */\n    tag_206:\n        /* \"#utility.yul\":12192:12217   */\n      0x446f63746f72206973206e6f7420617070726f7665642e000000000000000000\n        /* \"#utility.yul\":12188:12189   */\n      0x00\n        /* \"#utility.yul\":12180:12186   */\n      dup3\n        /* \"#utility.yul\":12176:12190   */\n      add\n        /* \"#utility.yul\":12169:12218   */\n      mstore\n        /* \"#utility.yul\":12052:12225   */\n      pop\n      jump\t// out\n        /* \"#utility.yul\":12231:12597   */\n    tag_207:\n        /* \"#utility.yul\":12373:12376   */\n      0x00\n        /* \"#utility.yul\":12394:12461   */\n      tag_341\n        /* \"#utility.yul\":12458:12460   */\n      0x17\n        /* \"#utility.yul\":12453:12456   */\n      dup4\n        /* \"#utility.yul\":12394:12461   */\n      tag_187\n      jump\t// in\n    tag_341:\n        /* \"#utility.yul\":12387:12461   */\n      swap2\n      pop\n        /* \"#utility.yul\":12470:12563   */\n      tag_342\n        /* \"#utility.yul\":12559:12562   */\n      dup3\n        /* \"#utility.yul\":12470:12563   */\n      tag_206\n      jump\t// in\n    tag_342:\n        /* \"#utility.yul\":12588:12590   */\n      0x20\n        /* \"#utility.yul\":12583:12586   */\n      dup3\n        /* \"#utility.yul\":12579:12591   */\n      add\n        /* \"#utility.yul\":12572:12591   */\n      swap1\n      pop\n        /* \"#utility.yul\":12231:12597   */\n      swap2\n      swap1\n      pop\n      jump\t// out\n        /* \"#utility.yul\":12603:13022   */\n    tag_70:\n        /* \"#utility.yul\":12769:12773   */\n      0x00\n        /* \"#utility.yul\":12807:12809   */\n      0x20\n        /* \"#utility.yul\":12796:12805   */\n      dup3\n        /* \"#utility.yul\":12792:12810   */\n      add\n        /* \"#utility.yul\":12784:12810   */\n      swap1\n      pop\n        /* \"#utility.yul\":12856:12865   */\n      dup2\n        /* \"#utility.yul\":12850:12854   */\n      dup2\n        /* \"#utility.yul\":12846:12866   */\n      sub\n        /* \"#utility.yul\":12842:12843   */\n      0x00\n        /* \"#utility.yul\":12831:12840   */\n      dup4\n        /* \"#utility.yul\":12827:12844   */\n      add\n        /* \"#utility.yul\":12820:12867   */\n      mstore\n        /* \"#utility.yul\":12884:13015   */\n      tag_344\n        /* \"#utility.yul\":13010:13014   */\n      dup2\n        /* \"#utility.yul\":12884:13015   */\n      tag_207\n      jump\t// in\n    tag_344:\n        /* \"#utility.yul\":12876:13015   */\n      swap1\n      pop\n        /* \"#utility.yul\":12603:13022   */\n      swap2\n      swap1\n      pop\n      jump\t// out\n        /* \"#utility.yul\":13028:13208   */\n    tag_208:\n        /* \"#utility.yul\":13076:13153   */\n      0x4e487b7100000000000000000000000000000000000000000000000000000000\n        /* \"#utility.yul\":13073:13074   */\n      0x00\n        /* \"#utility.yul\":13066:13154   */\n      mstore\n        /* \"#utility.yul\":13173:13177   */\n      0x22\n        /* \"#utility.yul\":13170:13171   */\n      0x04\n        /* \"#utility.yul\":13163:13178   */\n      mstore\n        /* \"#utility.yul\":13197:13201   */\n      0x24\n        /* \"#utility.yul\":13194:13195   */\n      0x00\n        /* \"#utility.yul\":13187:13202   */\n      revert\n        /* \"#utility.yul\":13214:13534   */\n    tag_72:\n        /* \"#utility.yul\":13258:13264   */\n      0x00\n        /* \"#utility.yul\":13295:13296   */\n      0x02\n        /* \"#utility.yul\":13289:13293   */\n      dup3\n        /* \"#utility.yul\":13285:13297   */\n      div\n        /* \"#utility.yul\":13275:13297   */\n      swap1\n      pop\n        /* \"#utility.yul\":13342:13343   */\n      0x01\n        /* \"#utility.yul\":13336:13340   */\n      dup3\n        /* \"#utility.yul\":13332:13344   */\n      and\n        /* \"#utility.yul\":13363:13381   */\n      dup1\n        /* \"#utility.yul\":13353:13434   */\n      tag_347\n      jumpi\n        /* \"#utility.yul\":13419:13423   */\n      0x7f\n        /* \"#utility.yul\":13411:13417   */\n      dup3\n        /* \"#utility.yul\":13407:13424   */\n      and\n        /* \"#utility.yul\":13397:13424   */\n      swap2\n      pop\n        /* \"#utility.yul\":13353:13434   */\n    tag_347:\n        /* \"#utility.yul\":13481:13483   */\n      0x20\n        /* \"#utility.yul\":13473:13479   */\n      dup3\n        /* \"#utility.yul\":13470:13484   */\n      lt\n        /* \"#utility.yul\":13450:13468   */\n      dup2\n        /* \"#utility.yul\":13447:13485   */\n      eq\n        /* \"#utility.yul\":13444:13528   */\n      iszero\n      tag_348\n      jumpi\n        /* \"#utility.yul\":13500:13518   */\n      tag_349\n      tag_208\n      jump\t// in\n    tag_349:\n        /* \"#utility.yul\":13444:13528   */\n    tag_348:\n        /* \"#utility.yul\":13265:13534   */\n      pop\n        /* \"#utility.yul\":13214:13534   */\n      swap2\n      swap1\n      pop\n      jump\t// out\n        /* \"#utility.yul\":13540:13716   */\n    tag_209:\n        /* \"#utility.yul\":13680:13708   */\n      0x5573657220697320616c726561647920612061646d696e212121000000000000\n        /* \"#utility.yul\":13676:13677   */\n      0x00\n        /* \"#utility.yul\":13668:13674   */\n      dup3\n        /* \"#utility.yul\":13664:13678   */\n      add\n        /* \"#utility.yul\":13657:13709   */\n      mstore\n        /* \"#utility.yul\":13540:13716   */\n      pop\n      jump\t// out\n        /* \"#utility.yul\":13722:14088   */\n    tag_210:\n        /* \"#utility.yul\":13864:13867   */\n      0x00\n        /* \"#utility.yul\":13885:13952   */\n      tag_352\n        /* \"#utility.yul\":13949:13951   */\n      0x1a\n        /* \"#utility.yul\":13944:13947   */\n      dup4\n        /* \"#utility.yul\":13885:13952   */\n      tag_187\n      jump\t// in\n    tag_352:\n        /* \"#utility.yul\":13878:13952   */\n      swap2\n      pop\n        /* \"#utility.yul\":13961:14054   */\n      tag_353\n        /* \"#utility.yul\":14050:14053   */\n      dup3\n        /* \"#utility.yul\":13961:14054   */\n      tag_209\n      jump\t// in\n    tag_353:\n        /* \"#utility.yul\":14079:14081   */\n      0x20\n        /* \"#utility.yul\":14074:14077   */\n      dup3\n        /* \"#utility.yul\":14070:14082   */\n      add\n        /* \"#utility.yul\":14063:14082   */\n      swap1\n      pop\n        /* \"#utility.yul\":13722:14088   */\n      swap2\n      swap1\n      pop\n      jump\t// out\n        /* \"#utility.yul\":14094:14513   */\n    tag_98:\n        /* \"#utility.yul\":14260:14264   */\n      0x00\n        /* \"#utility.yul\":14298:14300   */\n      0x20\n        /* \"#utility.yul\":14287:14296   */\n      dup3\n        /* \"#utility.yul\":14283:14301   */\n      add\n        /* \"#utility.yul\":14275:14301   */\n      swap1\n      pop\n        /* \"#utility.yul\":14347:14356   */\n      dup2\n        /* \"#utility.yul\":14341:14345   */\n      dup2\n        /* \"#utility.yul\":14337:14357   */\n      sub\n        /* \"#utility.yul\":14333:14334   */\n      0x00\n        /* \"#utility.yul\":14322:14331   */\n      dup4\n        /* \"#utility.yul\":14318:14335   */\n      add\n        /* \"#utility.yul\":14311:14358   */\n      mstore\n        /* \"#utility.yul\":14375:14506   */\n      tag_355\n        /* \"#utility.yul\":14501:14505   */\n      dup2\n        /* \"#utility.yul\":14375:14506   */\n      tag_210\n      jump\t// in\n    tag_355:\n        /* \"#utility.yul\":14367:14506   */\n      swap1\n      pop\n        /* \"#utility.yul\":14094:14513   */\n      swap2\n      swap1\n      pop\n      jump\t// out\n        /* \"#utility.yul\":14519:14699   */\n    tag_105:\n        /* \"#utility.yul\":14567:14644   */\n      0x4e487b7100000000000000000000000000000000000000000000000000000000\n        /* \"#utility.yul\":14564:14565   */\n      0x00\n        /* \"#utility.yul\":14557:14645   */\n      mstore\n        /* \"#utility.yul\":14664:14668   */\n      0x32\n        /* \"#utility.yul\":14661:14662   */\n      0x04\n        /* \"#utility.yul\":14654:14669   */\n      mstore\n        /* \"#utility.yul\":14688:14692   */\n      0x24\n        /* \"#utility.yul\":14685:14686   */\n      0x00\n        /* \"#utility.yul\":14678:14693   */\n      revert\n        /* \"#utility.yul\":14705:14885   */\n    tag_211:\n        /* \"#utility.yul\":14753:14830   */\n      0x4e487b7100000000000000000000000000000000000000000000000000000000\n        /* \"#utility.yul\":14750:14751   */\n      0x00\n        /* \"#utility.yul\":14743:14831   */\n      mstore\n        /* \"#utility.yul\":14850:14854   */\n      0x11\n        /* \"#utility.yul\":14847:14848   */\n      0x04\n        /* \"#utility.yul\":14840:14855   */\n      mstore\n        /* \"#utility.yul\":14874:14878   */\n      0x24\n        /* \"#utility.yul\":14871:14872   */\n      0x00\n        /* \"#utility.yul\":14864:14879   */\n      revert\n        /* \"#utility.yul\":14891:15124   */\n    tag_109:\n        /* \"#utility.yul\":14930:14933   */\n      0x00\n        /* \"#utility.yul\":14953:14977   */\n      tag_359\n        /* \"#utility.yul\":14971:14976   */\n      dup3\n        /* \"#utility.yul\":14953:14977   */\n      tag_175\n      jump\t// in\n    tag_359:\n        /* \"#utility.yul\":14944:14977   */\n      swap2\n      pop\n        /* \"#utility.yul\":14999:15065   */\n      0xffffffffffffffffffffffffffffffffffffffffffffffffffffffffffffffff\n        /* \"#utility.yul\":14992:14997   */\n      dup3\n        /* \"#utility.yul\":14989:15066   */\n      eq\n        /* \"#utility.yul\":14986:15089   */\n      iszero\n      tag_360\n      jumpi\n        /* \"#utility.yul\":15069:15087   */\n      tag_361\n      tag_211\n      jump\t// in\n    tag_361:\n        /* \"#utility.yul\":14986:15089   */\n    tag_360:\n        /* \"#utility.yul\":15116:15117   */\n      0x01\n        /* \"#utility.yul\":15109:15114   */\n      dup3\n        /* \"#utility.yul\":15105:15118   */\n      add\n        /* \"#utility.yul\":15098:15118   */\n      swap1\n      pop\n        /* \"#utility.yul\":14891:15124   */\n      swap2\n      swap1\n      pop\n      jump\t// out\n        /* \"#utility.yul\":15130:15304   */\n    tag_212:\n        /* \"#utility.yul\":15270:15296   */\n      0x446f63746f7220494420646f65736e27742065786973742e0000000000000000\n        /* \"#utility.yul\":15266:15267   */\n      0x00\n        /* \"#utility.yul\":15258:15264   */\n      dup3\n        /* \"#utility.yul\":15254:15268   */\n      add\n        /* \"#utility.yul\":15247:15297   */\n      mstore\n        /* \"#utility.yul\":15130:15304   */\n      pop\n      jump\t// out\n        /* \"#utility.yul\":15310:15676   */\n    tag_213:\n        /* \"#utility.yul\":15452:15455   */\n      0x00\n        /* \"#utility.yul\":15473:15540   */\n      tag_364\n        /* \"#utility.yul\":15537:15539   */\n      0x18\n        /* \"#utility.yul\":15532:15535   */\n      dup4\n        /* \"#utility.yul\":15473:15540   */\n      tag_187\n      jump\t// in\n    tag_364:\n        /* \"#utility.yul\":15466:15540   */\n      swap2\n      pop\n        /* \"#utility.yul\":15549:15642   */\n      tag_365\n        /* \"#utility.yul\":15638:15641   */\n      dup3\n        /* \"#utility.yul\":15549:15642   */\n      tag_212\n      jump\t// in\n    tag_365:\n        /* \"#utility.yul\":15667:15669   */\n      0x20\n        /* \"#utility.yul\":15662:15665   */\n      dup3\n        /* \"#utility.yul\":15658:15670   */\n      add\n        /* \"#utility.yul\":15651:15670   */\n      swap1\n      pop\n        /* \"#utility.yul\":15310:15676   */\n      swap2\n      swap1\n      pop\n      jump\t// out\n        /* \"#utility.yul\":15682:16101   */\n    tag_115:\n        /* \"#utility.yul\":15848:15852   */\n      0x00\n        /* \"#utility.yul\":15886:15888   */\n      0x20\n        /* \"#utility.yul\":15875:15884   */\n      dup3\n        /* \"#utility.yul\":15871:15889   */\n      add\n        /* \"#utility.yul\":15863:15889   */\n      swap1\n      pop\n        /* \"#utility.yul\":15935:15944   */\n      dup2\n        /* \"#utility.yul\":15929:15933   */\n      dup2\n        /* \"#utility.yul\":15925:15945   */\n      sub\n        /* \"#utility.yul\":15921:15922   */\n      0x00\n        /* \"#utility.yul\":15910:15919   */\n      dup4\n        /* \"#utility.yul\":15906:15923   */\n      add\n        /* \"#utility.yul\":15899:15946   */\n      mstore\n        /* \"#utility.yul\":15963:16094   */\n      tag_367\n        /* \"#utility.yul\":16089:16093   */\n      dup2\n        /* \"#utility.yul\":15963:16094   */\n      tag_213\n      jump\t// in\n    tag_367:\n        /* \"#utility.yul\":15955:16094   */\n      swap1\n      pop\n        /* \"#utility.yul\":15682:16101   */\n      swap2\n      swap1\n      pop\n      jump\t// out\n        /* \"#utility.yul\":16107:16338   */\n    tag_214:\n        /* \"#utility.yul\":16247:16281   */\n      0x4f6e6c792041646d696e20686173207065726d697373696f6e20746f20646f20\n        /* \"#utility.yul\":16243:16244   */\n      0x00\n        /* \"#utility.yul\":16235:16241   */\n      dup3\n        /* \"#utility.yul\":16231:16245   */\n      add\n        /* \"#utility.yul\":16224:16282   */\n      mstore\n        /* \"#utility.yul\":16316:16330   */\n      0x7468617420616374696f6e2e0000000000000000000000000000000000000000\n        /* \"#utility.yul\":16311:16313   */\n      0x20\n        /* \"#utility.yul\":16303:16309   */\n      dup3\n        /* \"#utility.yul\":16299:16314   */\n      add\n        /* \"#utility.yul\":16292:16331   */\n      mstore\n        /* \"#utility.yul\":16107:16338   */\n      pop\n      jump\t// out\n        /* \"#utility.yul\":16344:16710   */\n    tag_215:\n        /* \"#utility.yul\":16486:16489   */\n      0x00\n        /* \"#utility.yul\":16507:16574   */\n      tag_370\n        /* \"#utility.yul\":16571:16573   */\n      0x2c\n        /* \"#utility.yul\":16566:16569   */\n      dup4\n        /* \"#utility.yul\":16507:16574   */\n      tag_187\n      jump\t// in\n    tag_370:\n        /* \"#utility.yul\":16500:16574   */\n      swap2\n      pop\n        /* \"#utility.yul\":16583:16676   */\n      tag_371\n        /* \"#utility.yul\":16672:16675   */\n      dup3\n        /* \"#utility.yul\":16583:16676   */\n      tag_214\n      jump\t// in\n    tag_371:\n        /* \"#utility.yul\":16701:16703   */\n      0x40\n        /* \"#utility.yul\":16696:16699   */\n      dup3\n        /* \"#utility.yul\":16692:16704   */\n      add\n        /* \"#utility.yul\":16685:16704   */\n      swap1\n      pop\n        /* \"#utility.yul\":16344:16710   */\n      swap2\n      swap1\n      pop\n      jump\t// out\n        /* \"#utility.yul\":16716:17135   */\n    tag_142:\n        /* \"#utility.yul\":16882:16886   */\n      0x00\n        /* \"#utility.yul\":16920:16922   */\n      0x20\n        /* \"#utility.yul\":16909:16918   */\n      dup3\n        /* \"#utility.yul\":16905:16923   */\n      add\n        /* \"#utility.yul\":16897:16923   */\n      swap1\n      pop\n        /* \"#utility.yul\":16969:16978   */\n      dup2\n        /* \"#utility.yul\":16963:16967   */\n      dup2\n        /* \"#utility.yul\":16959:16979   */\n      sub\n        /* \"#utility.yul\":16955:16956   */\n      0x00\n        /* \"#utility.yul\":16944:16953   */\n      dup4\n        /* \"#utility.yul\":16940:16957   */\n      add\n        /* \"#utility.yul\":16933:16980   */\n      mstore\n        /* \"#utility.yul\":16997:17128   */\n      tag_373\n        /* \"#utility.yul\":17123:17127   */\n      dup2\n        /* \"#utility.yul\":16997:17128   */\n      tag_215\n      jump\t// in\n    tag_373:\n        /* \"#utility.yul\":16989:17128   */\n      swap1\n      pop\n        /* \"#utility.yul\":16716:17135   */\n      swap2\n      swap1\n      pop\n      jump\t// out\n        /* \"#utility.yul\":17141:17319   */\n    tag_216:\n        /* \"#utility.yul\":17281:17311   */\n      0x416c72656164792061207265676973746572656420446f63746f722e00000000\n        /* \"#utility.yul\":17277:17278   */\n      0x00\n        /* \"#utility.yul\":17269:17275   */\n      dup3\n        /* \"#utility.yul\":17265:17279   */\n      add\n        /* \"#utility.yul\":17258:17312   */\n      mstore\n        /* \"#utility.yul\":17141:17319   */\n      pop\n      jump\t// out\n        /* \"#utility.yul\":17325:17691   */\n    tag_217:\n        /* \"#utility.yul\":17467:17470   */\n      0x00\n        /* \"#utility.yul\":17488:17555   */\n      tag_376\n        /* \"#utility.yul\":17552:17554   */\n      0x1c\n        /* \"#utility.yul\":17547:17550   */\n      dup4\n        /* \"#utility.yul\":17488:17555   */\n      tag_187\n      jump\t// in\n    tag_376:\n        /* \"#utility.yul\":17481:17555   */\n      swap2\n      pop\n        /* \"#utility.yul\":17564:17657   */\n      tag_377\n        /* \"#utility.yul\":17653:17656   */\n      dup3\n        /* \"#utility.yul\":17564:17657   */\n      tag_216\n      jump\t// in\n    tag_377:\n        /* \"#utility.yul\":17682:17684   */\n      0x20\n        /* \"#utility.yul\":17677:17680   */\n      dup3\n        /* \"#utility.yul\":17673:17685   */\n      add\n        /* \"#utility.yul\":17666:17685   */\n      swap1\n      pop\n        /* \"#utility.yul\":17325:17691   */\n      swap2\n      swap1\n      pop\n      jump\t// out\n        /* \"#utility.yul\":17697:18116   */\n    tag_146:\n        /* \"#utility.yul\":17863:17867   */\n      0x00\n        /* \"#utility.yul\":17901:17903   */\n      0x20\n        /* \"#utility.yul\":17890:17899   */\n      dup3\n        /* \"#utility.yul\":17886:17904   */\n      add\n        /* \"#utility.yul\":17878:17904   */\n      swap1\n      pop\n        /* \"#utility.yul\":17950:17959   */\n      dup2\n        /* \"#utility.yul\":17944:17948   */\n      dup2\n        /* \"#utility.yul\":17940:17960   */\n      sub\n        /* \"#utility.yul\":17936:17937   */\n      0x00\n        /* \"#utility.yul\":17925:17934   */\n      dup4\n        /* \"#utility.yul\":17921:17938   */\n      add\n        /* \"#utility.yul\":17914:17961   */\n      mstore\n        /* \"#utility.yul\":17978:18109   */\n      tag_379\n        /* \"#utility.yul\":18104:18108   */\n      dup2\n        /* \"#utility.yul\":17978:18109   */\n      tag_217\n      jump\t// in\n    tag_379:\n        /* \"#utility.yul\":17970:18109   */\n      swap1\n      pop\n        /* \"#utility.yul\":17697:18116   */\n      swap2\n      swap1\n      pop\n      jump\t// out\n        /* \"#utility.yul\":18122:18427   */\n    tag_149:\n        /* \"#utility.yul\":18162:18165   */\n      0x00\n        /* \"#utility.yul\":18181:18201   */\n      tag_381\n        /* \"#utility.yul\":18199:18200   */\n      dup3\n        /* \"#utility.yul\":18181:18201   */\n      tag_175\n      jump\t// in\n    tag_381:\n        /* \"#utility.yul\":18176:18201   */\n      swap2\n      pop\n        /* \"#utility.yul\":18215:18235   */\n      tag_382\n        /* \"#utility.yul\":18233:18234   */\n      dup4\n        /* \"#utility.yul\":18215:18235   */\n      tag_175\n      jump\t// in\n    tag_382:\n        /* \"#utility.yul\":18210:18235   */\n      swap3\n      pop\n        /* \"#utility.yul\":18369:18370   */\n      dup3\n        /* \"#utility.yul\":18301:18367   */\n      0xffffffffffffffffffffffffffffffffffffffffffffffffffffffffffffffff\n        /* \"#utility.yul\":18297:18371   */\n      sub\n        /* \"#utility.yul\":18294:18295   */\n      dup3\n        /* \"#utility.yul\":18291:18372   */\n      gt\n        /* \"#utility.yul\":18288:18395   */\n      iszero\n      tag_383\n      jumpi\n        /* \"#utility.yul\":18375:18393   */\n      tag_384\n      tag_211\n      jump\t// in\n    tag_384:\n        /* \"#utility.yul\":18288:18395   */\n    tag_383:\n        /* \"#utility.yul\":18419:18420   */\n      dup3\n        /* \"#utility.yul\":18416:18417   */\n      dup3\n        /* \"#utility.yul\":18412:18421   */\n      add\n        /* \"#utility.yul\":18405:18421   */\n      swap1\n      pop\n        /* \"#utility.yul\":18122:18427   */\n      swap3\n      swap2\n      pop\n      pop\n      jump\t// out\n        /* \"#utility.yul\":18433:18599   */\n    tag_218:\n        /* \"#utility.yul\":18573:18591   */\n      0x416c7265616479206d616e616765722e00000000000000000000000000000000\n        /* \"#utility.yul\":18569:18570   */\n      0x00\n        /* \"#utility.yul\":18561:18567   */\n      dup3\n        /* \"#utility.yul\":18557:18571   */\n      add\n        /* \"#utility.yul\":18550:18592   */\n      mstore\n        /* \"#utility.yul\":18433:18599   */\n      pop\n      jump\t// out\n        /* \"#utility.yul\":18605:18971   */\n    tag_219:\n        /* \"#utility.yul\":18747:18750   */\n      0x00\n        /* \"#utility.yul\":18768:18835   */\n      tag_387\n        /* \"#utility.yul\":18832:18834   */\n      0x10\n        /* \"#utility.yul\":18827:18830   */\n      dup4\n        /* \"#utility.yul\":18768:18835   */\n      tag_187\n      jump\t// in\n    tag_387:\n        /* \"#utility.yul\":18761:18835   */\n      swap2\n      pop\n        /* \"#utility.yul\":18844:18937   */\n      tag_388\n        /* \"#utility.yul\":18933:18936   */\n      dup3\n        /* \"#utility.yul\":18844:18937   */\n      tag_218\n      jump\t// in\n    tag_388:\n        /* \"#utility.yul\":18962:18964   */\n      0x20\n        /* \"#utility.yul\":18957:18960   */\n      dup3\n        /* \"#utility.yul\":18953:18965   */\n      add\n        /* \"#utility.yul\":18946:18965   */\n      swap1\n      pop\n        /* \"#utility.yul\":18605:18971   */\n      swap2\n      swap1\n      pop\n      jump\t// out\n        /* \"#utility.yul\":18977:19396   */\n    tag_161:\n        /* \"#utility.yul\":19143:19147   */\n      0x00\n        /* \"#utility.yul\":19181:19183   */\n      0x20\n        /* \"#utility.yul\":19170:19179   */\n      dup3\n        /* \"#utility.yul\":19166:19184   */\n      add\n        /* \"#utility.yul\":19158:19184   */\n      swap1\n      pop\n        /* \"#utility.yul\":19230:19239   */\n      dup2\n        /* \"#utility.yul\":19224:19228   */\n      dup2\n        /* \"#utility.yul\":19220:19240   */\n      sub\n        /* \"#utility.yul\":19216:19217   */\n      0x00\n        /* \"#utility.yul\":19205:19214   */\n      dup4\n        /* \"#utility.yul\":19201:19218   */\n      add\n        /* \"#utility.yul\":19194:19241   */\n      mstore\n        /* \"#utility.yul\":19258:19389   */\n      tag_390\n        /* \"#utility.yul\":19384:19388   */\n      dup2\n        /* \"#utility.yul\":19258:19389   */\n      tag_219\n      jump\t// in\n    tag_390:\n        /* \"#utility.yul\":19250:19389   */\n      swap1\n      pop\n        /* \"#utility.yul\":18977:19396   */\n      swap2\n      swap1\n      pop\n      jump\t// out\n\n    auxdata: 0xa2646970667358221220213003ae3084e41b5b7f3fc40e1590191e3de343637e027d7f990cd00899ce7d64736f6c63430008090033\n}\n","bytecode":{"linkReferences":{},"object":"608060405234801561001057600080fd5b50336000806101000a81548173ffffffffffffffffffffffffffffffffffffffff021916908373ffffffffffffffffffffffffffffffffffffffff16021790555060018060003373ffffffffffffffffffffffffffffffffffffffff1673ffffffffffffffffffffffffffffffffffffffff16815260200190815260200160002060006101000a81548160ff021916908315150217905550611fcf806100b76000396000f3fe608060405234801561001057600080fd5b50600436106100935760003560e01c806358c5d4bf1161006657806358c5d4bf14610134578063704802751461016a57806391e583751461019a578063b20a8033146101d0578063d0ebdbe71461020057610093565b8063127ca4b4146100985780631785f53c146100c85780632986c0e5146100f8578063481c6a7514610116575b600080fd5b6100b260048036038101906100ad919061159d565b610230565b6040516100bf919061160b565b60405180910390f35b6100e260048036038101906100dd9190611652565b61026f565b6040516100ef919061169a565b60405180910390f35b6101006104be565b60405161010d91906116c4565b60405180910390f35b61011e6104c4565b60405161012b919061160b565b60405180910390f35b61014e60048036038101906101499190611652565b6104e8565b6040516101619796959493929190611778565b60405180910390f35b610184600480360381019061017f9190611652565b6108d0565b604051610191919061169a565b60405180910390f35b6101b460048036038101906101af919061159d565b610a90565b6040516101c79796959493929190611778565b60405180910390f35b6101ea60048036038101906101e59190611938565b610f9a565b6040516101f7919061169a565b60405180910390f35b61021a60048036038101906102159190611652565b61130e565b604051610227919061169a565b60405180910390f35b6005818154811061024057600080fd5b906000526020600020016000915054906101000a900473ffffffffffffffffffffffffffffffffffffffff1681565b60003373ffffffffffffffffffffffffffffffffffffffff1660008054906101000a900473ffffffffffffffffffffffffffffffffffffffff1673ffffffffffffffffffffffffffffffffffffffff16146102ff576040517f08c379a00000000000000000000000000000000000000000000000000000000081526004016102f690611a95565b60405180910390fd5b60008054906101000a900473ffffffffffffffffffffffffffffffffffffffff1673ffffffffffffffffffffffffffffffffffffffff168273ffffffffffffffffffffffffffffffffffffffff16141561038e576040517f08c379a000000000000000000000000000000000000000000000000000000000815260040161038590611b01565b60405180910390fd5b600160008373ffffffffffffffffffffffffffffffffffffffff1673ffffffffffffffffffffffffffffffffffffffff16815260200190815260200160002060009054906101000a900460ff1661041a576040517f08c379a000000000000000000000000000000000000000000000000000000000815260040161041190611b6d565b60405180910390fd5b6000600160008473ffffffffffffffffffffffffffffffffffffffff1673ffffffffffffffffffffffffffffffffffffffff16815260200190815260200160002060006101000a81548160ff0219169083151502179055508173ffffffffffffffffffffffffffffffffffffffff167fa3b62bc36326052d97ea62d63c3d60308ed4c3ea8ac079dd8499f1e9c4f80c0f60405160405180910390a260019050919050565b60025481565b60008054906101000a900473ffffffffffffffffffffffffffffffffffffffff1681565b6000606080606080600080600460008973ffffffffffffffffffffffffffffffffffffffff1673ffffffffffffffffffffffffffffffffffffffff16815260200190815260200160002060050160149054906101000a900460ff16610582576040517f08c379a000000000000000000000000000000000000000000000000000000000815260040161057990611bd9565b60405180910390fd5b6000600460008a73ffffffffffffffffffffffffffffffffffffffff1673ffffffffffffffffffffffffffffffffffffffff1681526020019081526020016000206040518060e0016040529081600082015481526020016001820180546105e890611c28565b80601f016020809104026020016040519081016040528092919081815260200182805461061490611c28565b80156106615780601f1061063657610100808354040283529160200191610661565b820191906000526020600020905b81548152906001019060200180831161064457829003601f168201915b5050505050815260200160028201805461067a90611c28565b80601f01602080910402602001604051908101604052809291908181526020018280546106a690611c28565b80156106f35780601f106106c8576101008083540402835291602001916106f3565b820191906000526020600020905b8154815290600101906020018083116106d657829003601f168201915b5050505050815260200160038201805461070c90611c28565b80601f016020809104026020016040519081016040528092919081815260200182805461073890611c28565b80156107855780601f1061075a57610100808354040283529160200191610785565b820191906000526020600020905b81548152906001019060200180831161076857829003601f168201915b5050505050815260200160048201805461079e90611c28565b80601f01602080910402602001604051908101604052809291908181526020018280546107ca90611c28565b80156108175780601f106107ec57610100808354040283529160200191610817565b820191906000526020600020905b8154815290600101906020018083116107fa57829003601f168201915b505050505081526020016005820160009054906101000a900473ffffffffffffffffffffffffffffffffffffffff1673ffffffffffffffffffffffffffffffffffffffff1673ffffffffffffffffffffffffffffffffffffffff1681526020016005820160149054906101000a900460ff1615151515815250509050806000015181602001518260400151836060015184608001518560a001518660c00151975097509750975097509750975050919395979092949650565b60003373ffffffffffffffffffffffffffffffffffffffff1660008054906101000a900473ffffffffffffffffffffffffffffffffffffffff1673ffffffffffffffffffffffffffffffffffffffff1614610960576040517f08c379a000000000000000000000000000000000000000000000000000000000815260040161095790611a95565b60405180910390fd5b600160008373ffffffffffffffffffffffffffffffffffffffff1673ffffffffffffffffffffffffffffffffffffffff16815260200190815260200160002060009054906101000a900460ff16156109ed576040517f08c379a00000000000000000000000000000000000000000000000000000000081526004016109e490611ca6565b60405180910390fd5b60018060008473ffffffffffffffffffffffffffffffffffffffff1673ffffffffffffffffffffffffffffffffffffffff16815260200190815260200160002060006101000a81548160ff0219169083151502179055508173ffffffffffffffffffffffffffffffffffffffff167f44d6d25963f097ad14f29f06854a01f575648a1ef82f30e562ccd3889717e33960405160405180910390a260019050919050565b600060608060608060008060005b600580549050811015610b4b57886004600060058481548110610ac457610ac3611cc6565b5b9060005260206000200160009054906101000a900473ffffffffffffffffffffffffffffffffffffffff1673ffffffffffffffffffffffffffffffffffffffff1673ffffffffffffffffffffffffffffffffffffffff168152602001908152602001600020600001541415610b3857610b4b565b8080610b4390611d24565b915050610a9e565b886004600060058481548110610b6457610b63611cc6565b5b9060005260206000200160009054906101000a900473ffffffffffffffffffffffffffffffffffffffff1673ffffffffffffffffffffffffffffffffffffffff1673ffffffffffffffffffffffffffffffffffffffff1681526020019081526020016000206000015414610c0d576040517f08c379a0000000000000000000000000000000000000000000000000000000008152600401610c0490611db9565b60405180910390fd5b60006004600060058481548110610c2757610c26611cc6565b5b9060005260206000200160009054906101000a900473ffffffffffffffffffffffffffffffffffffffff1673ffffffffffffffffffffffffffffffffffffffff1673ffffffffffffffffffffffffffffffffffffffff1681526020019081526020016000206040518060e001604052908160008201548152602001600182018054610cb190611c28565b80601f0160208091040260200160405190810160405280929190818152602001828054610cdd90611c28565b8015610d2a5780601f10610cff57610100808354040283529160200191610d2a565b820191906000526020600020905b815481529060010190602001808311610d0d57829003601f168201915b50505050508152602001600282018054610d4390611c28565b80601f0160208091040260200160405190810160405280929190818152602001828054610d6f90611c28565b8015610dbc5780601f10610d9157610100808354040283529160200191610dbc565b820191906000526020600020905b815481529060010190602001808311610d9f57829003601f168201915b50505050508152602001600382018054610dd590611c28565b80601f0160208091040260200160405190810160405280929190818152602001828054610e0190611c28565b8015610e4e5780601f10610e2357610100808354040283529160200191610e4e565b820191906000526020600020905b815481529060010190602001808311610e3157829003601f168201915b50505050508152602001600482018054610e6790611c28565b80601f0160208091040260200160405190810160405280929190818152602001828054610e9390611c28565b8015610ee05780601f10610eb557610100808354040283529160200191610ee0565b820191906000526020600020905b815481529060010190602001808311610ec357829003601f168201915b505050505081526020016005820160009054906101000a900473ffffffffffffffffffffffffffffffffffffffff1673ffffffffffffffffffffffffffffffffffffffff1673ffffffffffffffffffffffffffffffffffffffff1681526020016005820160149054906101000a900460ff1615151515815250509050806000015181602001518260400151836060015184608001518560a001518660c0015198509850985098509850985098505050919395979092949650565b600060011515600160003373ffffffffffffffffffffffffffffffffffffffff1673ffffffffffffffffffffffffffffffffffffffff16815260200190815260200160002060009054906101000a900460ff1615151461102f576040517f08c379a000000000000000000000000000000000000000000000000000000000815260040161102690611e4b565b60405180910390fd5b600360008373ffffffffffffffffffffffffffffffffffffffff1673ffffffffffffffffffffffffffffffffffffffff16815260200190815260200160002060009054906101000a900460ff16156110bc576040517f08c379a00000000000000000000000000000000000000000000000000000000081526004016110b390611eb7565b60405180910390fd5b6005829080600181540180825580915050600190039060005260206000200160009091909190916101000a81548173ffffffffffffffffffffffffffffffffffffffff021916908373ffffffffffffffffffffffffffffffffffffffff160217905550600160025461112e9190611ed7565b6002819055506001600360008473ffffffffffffffffffffffffffffffffffffffff1673ffffffffffffffffffffffffffffffffffffffff16815260200190815260200160002060006101000a81548160ff0219169083151502179055506040518060e0016040528060025481526020018781526020018681526020018581526020018481526020018373ffffffffffffffffffffffffffffffffffffffff16815260200160011515815250600460008473ffffffffffffffffffffffffffffffffffffffff1673ffffffffffffffffffffffffffffffffffffffff16815260200190815260200160002060008201518160000155602082015181600101908051906020019061123f9291906114b0565b50604082015181600201908051906020019061125c9291906114b0565b5060608201518160030190805190602001906112799291906114b0565b5060808201518160040190805190602001906112969291906114b0565b5060a08201518160050160006101000a81548173ffffffffffffffffffffffffffffffffffffffff021916908373ffffffffffffffffffffffffffffffffffffffff16021790555060c08201518160050160146101000a81548160ff0219169083151502179055509050506001905095945050505050565b60003373ffffffffffffffffffffffffffffffffffffffff1660008054906101000a900473ffffffffffffffffffffffffffffffffffffffff1673ffffffffffffffffffffffffffffffffffffffff161461139e576040517f08c379a000000000000000000000000000000000000000000000000000000000815260040161139590611a95565b60405180910390fd5b8173ffffffffffffffffffffffffffffffffffffffff163373ffffffffffffffffffffffffffffffffffffffff16141561140d576040517f08c379a000000000000000000000000000000000000000000000000000000000815260040161140490611f79565b60405180910390fd5b816000806101000a81548173ffffffffffffffffffffffffffffffffffffffff021916908373ffffffffffffffffffffffffffffffffffffffff1602179055508173ffffffffffffffffffffffffffffffffffffffff163373ffffffffffffffffffffffffffffffffffffffff167f605c2dbf762e5f7d60a546d42e7205dcb1b011ebc62a61736a57c9089d3a435060405160405180910390a360019050919050565b8280546114bc90611c28565b90600052602060002090601f0160209004810192826114de5760008555611525565b82601f106114f757805160ff1916838001178555611525565b82800160010185558215611525579182015b82811115611524578251825591602001919060010190611509565b5b5090506115329190611536565b5090565b5b8082111561154f576000816000905550600101611537565b5090565b6000604051905090565b600080fd5b600080fd5b6000819050919050565b61157a81611567565b811461158557600080fd5b50565b60008135905061159781611571565b92915050565b6000602082840312156115b3576115b261155d565b5b60006115c184828501611588565b91505092915050565b600073ffffffffffffffffffffffffffffffffffffffff82169050919050565b60006115f5826115ca565b9050919050565b611605816115ea565b82525050565b600060208201905061162060008301846115fc565b92915050565b61162f816115ea565b811461163a57600080fd5b50565b60008135905061164c81611626565b92915050565b6000602082840312156116685761166761155d565b5b60006116768482850161163d565b91505092915050565b60008115159050919050565b6116948161167f565b82525050565b60006020820190506116af600083018461168b565b92915050565b6116be81611567565b82525050565b60006020820190506116d960008301846116b5565b92915050565b600081519050919050565b600082825260208201905092915050565b60005b838110156117195780820151818401526020810190506116fe565b83811115611728576000848401525b50505050565b6000601f19601f8301169050919050565b600061174a826116df565b61175481856116ea565b93506117648185602086016116fb565b61176d8161172e565b840191505092915050565b600060e08201905061178d600083018a6116b5565b818103602083015261179f818961173f565b905081810360408301526117b3818861173f565b905081810360608301526117c7818761173f565b905081810360808301526117db818661173f565b90506117ea60a08301856115fc565b6117f760c083018461168b565b98975050505050505050565b600080fd5b600080fd5b7f4e487b7100000000000000000000000000000000000000000000000000000000600052604160045260246000fd5b6118458261172e565b810181811067ffffffffffffffff821117156118645761186361180d565b5b80604052505050565b6000611877611553565b9050611883828261183c565b919050565b600067ffffffffffffffff8211156118a3576118a261180d565b5b6118ac8261172e565b9050602081019050919050565b82818337600083830152505050565b60006118db6118d684611888565b61186d565b9050828152602081018484840111156118f7576118f6611808565b5b6119028482856118b9565b509392505050565b600082601f83011261191f5761191e611803565b5b813561192f8482602086016118c8565b91505092915050565b600080600080600060a086880312156119545761195361155d565b5b600086013567ffffffffffffffff81111561197257611971611562565b5b61197e8882890161190a565b955050602086013567ffffffffffffffff81111561199f5761199e611562565b5b6119ab8882890161190a565b945050604086013567ffffffffffffffff8111156119cc576119cb611562565b5b6119d88882890161190a565b935050606086013567ffffffffffffffff8111156119f9576119f8611562565b5b611a058882890161190a565b9250506080611a168882890161163d565b9150509295509295909350565b7f4f6e6c79204d616e6167657220686173207065726d697373696f6e20746f206460008201527f6f207468617420616374696f6e2e000000000000000000000000000000000000602082015250565b6000611a7f602e836116ea565b9150611a8a82611a23565b604082019050919050565b60006020820190508181036000830152611aae81611a72565b9050919050565b7f43616e27742072656d6f7665206f776e65722066726f6d2061646d696e000000600082015250565b6000611aeb601d836116ea565b9150611af682611ab5565b602082019050919050565b60006020820190508181036000830152611b1a81611ade565b9050919050565b7f55736572206e6f742061646d696e20616c726561647921212100000000000000600082015250565b6000611b576019836116ea565b9150611b6282611b21565b602082019050919050565b60006020820190508181036000830152611b8681611b4a565b9050919050565b7f446f63746f72206973206e6f7420617070726f7665642e000000000000000000600082015250565b6000611bc36017836116ea565b9150611bce82611b8d565b602082019050919050565b60006020820190508181036000830152611bf281611bb6565b9050919050565b7f4e487b7100000000000000000000000000000000000000000000000000000000600052602260045260246000fd5b60006002820490506001821680611c4057607f821691505b60208210811415611c5457611c53611bf9565b5b50919050565b7f5573657220697320616c726561647920612061646d696e212121000000000000600082015250565b6000611c90601a836116ea565b9150611c9b82611c5a565b602082019050919050565b60006020820190508181036000830152611cbf81611c83565b9050919050565b7f4e487b7100000000000000000000000000000000000000000000000000000000600052603260045260246000fd5b7f4e487b7100000000000000000000000000000000000000000000000000000000600052601160045260246000fd5b6000611d2f82611567565b91507fffffffffffffffffffffffffffffffffffffffffffffffffffffffffffffffff821415611d6257611d61611cf5565b5b600182019050919050565b7f446f63746f7220494420646f65736e27742065786973742e0000000000000000600082015250565b6000611da36018836116ea565b9150611dae82611d6d565b602082019050919050565b60006020820190508181036000830152611dd281611d96565b9050919050565b7f4f6e6c792041646d696e20686173207065726d697373696f6e20746f20646f2060008201527f7468617420616374696f6e2e0000000000000000000000000000000000000000602082015250565b6000611e35602c836116ea565b9150611e4082611dd9565b604082019050919050565b60006020820190508181036000830152611e6481611e28565b9050919050565b7f416c72656164792061207265676973746572656420446f63746f722e00000000600082015250565b6000611ea1601c836116ea565b9150611eac82611e6b565b602082019050919050565b60006020820190508181036000830152611ed081611e94565b9050919050565b6000611ee282611567565b9150611eed83611567565b9250827fffffffffffffffffffffffffffffffffffffffffffffffffffffffffffffffff03821115611f2257611f21611cf5565b5b828201905092915050565b7f416c7265616479206d616e616765722e00000000000000000000000000000000600082015250565b6000611f636010836116ea565b9150611f6e82611f2d565b602082019050919050565b60006020820190508181036000830152611f9281611f56565b905091905056fea2646970667358221220213003ae3084e41b5b7f3fc40e1590191e3de343637e027d7f990cd00899ce7d64736f6c63430008090033","opcodes":"PUSH1 0x80 PUSH1 0x40 MSTORE CALLVALUE DUP1 ISZERO PUSH2 0x10 JUMPI PUSH1 0x0 DUP1 REVERT JUMPDEST POP CALLER PUSH1 0x0 DUP1 PUSH2 0x100 EXP DUP2 SLOAD DUP2 PUSH20 0xFFFFFFFFFFFFFFFFFFFFFFFFFFFFFFFFFFFFFFFF MUL NOT AND SWAP1 DUP4 PUSH20 0xFFFFFFFFFFFFFFFFFFFFFFFFFFFFFFFFFFFFFFFF AND MUL OR SWAP1 SSTORE POP PUSH1 0x1 DUP1 PUSH1 0x0 CALLER PUSH20 0xFFFFFFFFFFFFFFFFFFFFFFFFFFFFFFFFFFFFFFFF AND PUSH20 0xFFFFFFFFFFFFFFFFFFFFFFFFFFFFFFFFFFFFFFFF AND DUP2 MSTORE PUSH1 0x20 ADD SWAP1 DUP2 MSTORE PUSH1 0x20 ADD PUSH1 0x0 KECCAK256 PUSH1 0x0 PUSH2 0x100 EXP DUP2 SLOAD DUP2 PUSH1 0xFF MUL NOT AND SWAP1 DUP4 ISZERO ISZERO MUL OR SWAP1 SSTORE POP PUSH2 0x1FCF DUP1 PUSH2 0xB7 PUSH1 0x0 CODECOPY PUSH1 0x0 RETURN INVALID PUSH1 0x80 PUSH1 0x40 MSTORE CALLVALUE DUP1 ISZERO PUSH2 0x10 JUMPI PUSH1 0x0 DUP1 REVERT JUMPDEST POP PUSH1 0x4 CALLDATASIZE LT PUSH2 0x93 JUMPI PUSH1 0x0 CALLDATALOAD PUSH1 0xE0 SHR DUP1 PUSH4 0x58C5D4BF GT PUSH2 0x66 JUMPI DUP1 PUSH4 0x58C5D4BF EQ PUSH2 0x134 JUMPI DUP1 PUSH4 0x70480275 EQ PUSH2 0x16A JUMPI DUP1 PUSH4 0x91E58375 EQ PUSH2 0x19A JUMPI DUP1 PUSH4 0xB20A8033 EQ PUSH2 0x1D0 JUMPI DUP1 PUSH4 0xD0EBDBE7 EQ PUSH2 0x200 JUMPI PUSH2 0x93 JUMP JUMPDEST DUP1 PUSH4 0x127CA4B4 EQ PUSH2 0x98 JUMPI DUP1 PUSH4 0x1785F53C EQ PUSH2 0xC8 JUMPI DUP1 PUSH4 0x2986C0E5 EQ PUSH2 0xF8 JUMPI DUP1 PUSH4 0x481C6A75 EQ PUSH2 0x116 JUMPI JUMPDEST PUSH1 0x0 DUP1 REVERT JUMPDEST PUSH2 0xB2 PUSH1 0x4 DUP1 CALLDATASIZE SUB DUP2 ADD SWAP1 PUSH2 0xAD SWAP2 SWAP1 PUSH2 0x159D JUMP JUMPDEST PUSH2 0x230 JUMP JUMPDEST PUSH1 0x40 MLOAD PUSH2 0xBF SWAP2 SWAP1 PUSH2 0x160B JUMP JUMPDEST PUSH1 0x40 MLOAD DUP1 SWAP2 SUB SWAP1 RETURN JUMPDEST PUSH2 0xE2 PUSH1 0x4 DUP1 CALLDATASIZE SUB DUP2 ADD SWAP1 PUSH2 0xDD SWAP2 SWAP1 PUSH2 0x1652 JUMP JUMPDEST PUSH2 0x26F JUMP JUMPDEST PUSH1 0x40 MLOAD PUSH2 0xEF SWAP2 SWAP1 PUSH2 0x169A JUMP JUMPDEST PUSH1 0x40 MLOAD DUP1 SWAP2 SUB SWAP1 RETURN JUMPDEST PUSH2 0x100 PUSH2 0x4BE JUMP JUMPDEST PUSH1 0x40 MLOAD PUSH2 0x10D SWAP2 SWAP1 PUSH2 0x16C4 JUMP JUMPDEST PUSH1 0x40 MLOAD DUP1 SWAP2 SUB SWAP1 RETURN JUMPDEST PUSH2 0x11E PUSH2 0x4C4 JUMP JUMPDEST PUSH1 0x40 MLOAD PUSH2 0x12B SWAP2 SWAP1 PUSH2 0x160B JUMP JUMPDEST PUSH1 0x40 MLOAD DUP1 SWAP2 SUB SWAP1 RETURN JUMPDEST PUSH2 0x14E PUSH1 0x4 DUP1 CALLDATASIZE SUB DUP2 ADD SWAP1 PUSH2 0x149 SWAP2 SWAP1 PUSH2 0x1652 JUMP JUMPDEST PUSH2 0x4E8 JUMP JUMPDEST PUSH1 0x40 MLOAD PUSH2 0x161 SWAP8 SWAP7 SWAP6 SWAP5 SWAP4 SWAP3 SWAP2 SWAP1 PUSH2 0x1778 JUMP JUMPDEST PUSH1 0x40 MLOAD DUP1 SWAP2 SUB SWAP1 RETURN JUMPDEST PUSH2 0x184 PUSH1 0x4 DUP1 CALLDATASIZE SUB DUP2 ADD SWAP1 PUSH2 0x17F SWAP2 SWAP1 PUSH2 0x1652 JUMP JUMPDEST PUSH2 0x8D0 JUMP JUMPDEST PUSH1 0x40 MLOAD PUSH2 0x191 SWAP2 SWAP1 PUSH2 0x169A JUMP JUMPDEST PUSH1 0x40 MLOAD DUP1 SWAP2 SUB SWAP1 RETURN JUMPDEST PUSH2 0x1B4 PUSH1 0x4 DUP1 CALLDATASIZE SUB DUP2 ADD SWAP1 PUSH2 0x1AF SWAP2 SWAP1 PUSH2 0x159D JUMP JUMPDEST PUSH2 0xA90 JUMP JUMPDEST PUSH1 0x40 MLOAD PUSH2 0x1C7 SWAP8 SWAP7 SWAP6 SWAP5 SWAP4 SWAP3 SWAP2 SWAP1 PUSH2 0x1778 JUMP JUMPDEST PUSH1 0x40 MLOAD DUP1 SWAP2 SUB SWAP1 RETURN JUMPDEST PUSH2 0x1EA PUSH1 0x4 DUP1 CALLDATASIZE SUB DUP2 ADD SWAP1 PUSH2 0x1E5 SWAP2 SWAP1 PUSH2 0x1938 JUMP JUMPDEST PUSH2 0xF9A JUMP JUMPDEST PUSH1 0x40 MLOAD PUSH2 0x1F7 SWAP2 SWAP1 PUSH2 0x169A JUMP JUMPDEST PUSH1 0x40 MLOAD DUP1 SWAP2 SUB SWAP1 RETURN JUMPDEST PUSH2 0x21A PUSH1 0x4 DUP1 CALLDATASIZE SUB DUP2 ADD SWAP1 PUSH2 0x215 SWAP2 SWAP1 PUSH2 0x1652 JUMP JUMPDEST PUSH2 0x130E JUMP JUMPDEST PUSH1 0x40 MLOAD PUSH2 0x227 SWAP2 SWAP1 PUSH2 0x169A JUMP JUMPDEST PUSH1 0x40 MLOAD DUP1 SWAP2 SUB SWAP1 RETURN JUMPDEST PUSH1 0x5 DUP2 DUP2 SLOAD DUP2 LT PUSH2 0x240 JUMPI PUSH1 0x0 DUP1 REVERT JUMPDEST SWAP1 PUSH1 0x0 MSTORE PUSH1 0x20 PUSH1 0x0 KECCAK256 ADD PUSH1 0x0 SWAP2 POP SLOAD SWAP1 PUSH2 0x100 EXP SWAP1 DIV PUSH20 0xFFFFFFFFFFFFFFFFFFFFFFFFFFFFFFFFFFFFFFFF AND DUP2 JUMP JUMPDEST PUSH1 0x0 CALLER PUSH20 0xFFFFFFFFFFFFFFFFFFFFFFFFFFFFFFFFFFFFFFFF AND PUSH1 0x0 DUP1 SLOAD SWAP1 PUSH2 0x100 EXP SWAP1 DIV PUSH20 0xFFFFFFFFFFFFFFFFFFFFFFFFFFFFFFFFFFFFFFFF AND PUSH20 0xFFFFFFFFFFFFFFFFFFFFFFFFFFFFFFFFFFFFFFFF AND EQ PUSH2 0x2FF JUMPI PUSH1 0x40 MLOAD PUSH32 0x8C379A000000000000000000000000000000000000000000000000000000000 DUP2 MSTORE PUSH1 0x4 ADD PUSH2 0x2F6 SWAP1 PUSH2 0x1A95 JUMP JUMPDEST PUSH1 0x40 MLOAD DUP1 SWAP2 SUB SWAP1 REVERT JUMPDEST PUSH1 0x0 DUP1 SLOAD SWAP1 PUSH2 0x100 EXP SWAP1 DIV PUSH20 0xFFFFFFFFFFFFFFFFFFFFFFFFFFFFFFFFFFFFFFFF AND PUSH20 0xFFFFFFFFFFFFFFFFFFFFFFFFFFFFFFFFFFFFFFFF AND DUP3 PUSH20 0xFFFFFFFFFFFFFFFFFFFFFFFFFFFFFFFFFFFFFFFF AND EQ ISZERO PUSH2 0x38E JUMPI PUSH1 0x40 MLOAD PUSH32 0x8C379A000000000000000000000000000000000000000000000000000000000 DUP2 MSTORE PUSH1 0x4 ADD PUSH2 0x385 SWAP1 PUSH2 0x1B01 JUMP JUMPDEST PUSH1 0x40 MLOAD DUP1 SWAP2 SUB SWAP1 REVERT JUMPDEST PUSH1 0x1 PUSH1 0x0 DUP4 PUSH20 0xFFFFFFFFFFFFFFFFFFFFFFFFFFFFFFFFFFFFFFFF AND PUSH20 0xFFFFFFFFFFFFFFFFFFFFFFFFFFFFFFFFFFFFFFFF AND DUP2 MSTORE PUSH1 0x20 ADD SWAP1 DUP2 MSTORE PUSH1 0x20 ADD PUSH1 0x0 KECCAK256 PUSH1 0x0 SWAP1 SLOAD SWAP1 PUSH2 0x100 EXP SWAP1 DIV PUSH1 0xFF AND PUSH2 0x41A JUMPI PUSH1 0x40 MLOAD PUSH32 0x8C379A000000000000000000000000000000000000000000000000000000000 DUP2 MSTORE PUSH1 0x4 ADD PUSH2 0x411 SWAP1 PUSH2 0x1B6D JUMP JUMPDEST PUSH1 0x40 MLOAD DUP1 SWAP2 SUB SWAP1 REVERT JUMPDEST PUSH1 0x0 PUSH1 0x1 PUSH1 0x0 DUP5 PUSH20 0xFFFFFFFFFFFFFFFFFFFFFFFFFFFFFFFFFFFFFFFF AND PUSH20 0xFFFFFFFFFFFFFFFFFFFFFFFFFFFFFFFFFFFFFFFF AND DUP2 MSTORE PUSH1 0x20 ADD SWAP1 DUP2 MSTORE PUSH1 0x20 ADD PUSH1 0x0 KECCAK256 PUSH1 0x0 PUSH2 0x100 EXP DUP2 SLOAD DUP2 PUSH1 0xFF MUL NOT AND SWAP1 DUP4 ISZERO ISZERO MUL OR SWAP1 SSTORE POP DUP2 PUSH20 0xFFFFFFFFFFFFFFFFFFFFFFFFFFFFFFFFFFFFFFFF AND PUSH32 0xA3B62BC36326052D97EA62D63C3D60308ED4C3EA8AC079DD8499F1E9C4F80C0F PUSH1 0x40 MLOAD PUSH1 0x40 MLOAD DUP1 SWAP2 SUB SWAP1 LOG2 PUSH1 0x1 SWAP1 POP SWAP2 SWAP1 POP JUMP JUMPDEST PUSH1 0x2 SLOAD DUP2 JUMP JUMPDEST PUSH1 0x0 DUP1 SLOAD SWAP1 PUSH2 0x100 EXP SWAP1 DIV PUSH20 0xFFFFFFFFFFFFFFFFFFFFFFFFFFFFFFFFFFFFFFFF AND DUP2 JUMP JUMPDEST PUSH1 0x0 PUSH1 0x60 DUP1 PUSH1 0x60 DUP1 PUSH1 0x0 DUP1 PUSH1 0x4 PUSH1 0x0 DUP10 PUSH20 0xFFFFFFFFFFFFFFFFFFFFFFFFFFFFFFFFFFFFFFFF AND PUSH20 0xFFFFFFFFFFFFFFFFFFFFFFFFFFFFFFFFFFFFFFFF AND DUP2 MSTORE PUSH1 0x20 ADD SWAP1 DUP2 MSTORE PUSH1 0x20 ADD PUSH1 0x0 KECCAK256 PUSH1 0x5 ADD PUSH1 0x14 SWAP1 SLOAD SWAP1 PUSH2 0x100 EXP SWAP1 DIV PUSH1 0xFF AND PUSH2 0x582 JUMPI PUSH1 0x40 MLOAD PUSH32 0x8C379A000000000000000000000000000000000000000000000000000000000 DUP2 MSTORE PUSH1 0x4 ADD PUSH2 0x579 SWAP1 PUSH2 0x1BD9 JUMP JUMPDEST PUSH1 0x40 MLOAD DUP1 SWAP2 SUB SWAP1 REVERT JUMPDEST PUSH1 0x0 PUSH1 0x4 PUSH1 0x0 DUP11 PUSH20 0xFFFFFFFFFFFFFFFFFFFFFFFFFFFFFFFFFFFFFFFF AND PUSH20 0xFFFFFFFFFFFFFFFFFFFFFFFFFFFFFFFFFFFFFFFF AND DUP2 MSTORE PUSH1 0x20 ADD SWAP1 DUP2 MSTORE PUSH1 0x20 ADD PUSH1 0x0 KECCAK256 PUSH1 0x40 MLOAD DUP1 PUSH1 0xE0 ADD PUSH1 0x40 MSTORE SWAP1 DUP2 PUSH1 0x0 DUP3 ADD SLOAD DUP2 MSTORE PUSH1 0x20 ADD PUSH1 0x1 DUP3 ADD DUP1 SLOAD PUSH2 0x5E8 SWAP1 PUSH2 0x1C28 JUMP JUMPDEST DUP1 PUSH1 0x1F ADD PUSH1 0x20 DUP1 SWAP2 DIV MUL PUSH1 0x20 ADD PUSH1 0x40 MLOAD SWAP1 DUP2 ADD PUSH1 0x40 MSTORE DUP1 SWAP3 SWAP2 SWAP1 DUP2 DUP2 MSTORE PUSH1 0x20 ADD DUP3 DUP1 SLOAD PUSH2 0x614 SWAP1 PUSH2 0x1C28 JUMP JUMPDEST DUP1 ISZERO PUSH2 0x661 JUMPI DUP1 PUSH1 0x1F LT PUSH2 0x636 JUMPI PUSH2 0x100 DUP1 DUP4 SLOAD DIV MUL DUP4 MSTORE SWAP2 PUSH1 0x20 ADD SWAP2 PUSH2 0x661 JUMP JUMPDEST DUP3 ADD SWAP2 SWAP1 PUSH1 0x0 MSTORE PUSH1 0x20 PUSH1 0x0 KECCAK256 SWAP1 JUMPDEST DUP2 SLOAD DUP2 MSTORE SWAP1 PUSH1 0x1 ADD SWAP1 PUSH1 0x20 ADD DUP1 DUP4 GT PUSH2 0x644 JUMPI DUP3 SWAP1 SUB PUSH1 0x1F AND DUP3 ADD SWAP2 JUMPDEST POP POP POP POP POP DUP2 MSTORE PUSH1 0x20 ADD PUSH1 0x2 DUP3 ADD DUP1 SLOAD PUSH2 0x67A SWAP1 PUSH2 0x1C28 JUMP JUMPDEST DUP1 PUSH1 0x1F ADD PUSH1 0x20 DUP1 SWAP2 DIV MUL PUSH1 0x20 ADD PUSH1 0x40 MLOAD SWAP1 DUP2 ADD PUSH1 0x40 MSTORE DUP1 SWAP3 SWAP2 SWAP1 DUP2 DUP2 MSTORE PUSH1 0x20 ADD DUP3 DUP1 SLOAD PUSH2 0x6A6 SWAP1 PUSH2 0x1C28 JUMP JUMPDEST DUP1 ISZERO PUSH2 0x6F3 JUMPI DUP1 PUSH1 0x1F LT PUSH2 0x6C8 JUMPI PUSH2 0x100 DUP1 DUP4 SLOAD DIV MUL DUP4 MSTORE SWAP2 PUSH1 0x20 ADD SWAP2 PUSH2 0x6F3 JUMP JUMPDEST DUP3 ADD SWAP2 SWAP1 PUSH1 0x0 MSTORE PUSH1 0x20 PUSH1 0x0 KECCAK256 SWAP1 JUMPDEST DUP2 SLOAD DUP2 MSTORE SWAP1 PUSH1 0x1 ADD SWAP1 PUSH1 0x20 ADD DUP1 DUP4 GT PUSH2 0x6D6 JUMPI DUP3 SWAP1 SUB PUSH1 0x1F AND DUP3 ADD SWAP2 JUMPDEST POP POP POP POP POP DUP2 MSTORE PUSH1 0x20 ADD PUSH1 0x3 DUP3 ADD DUP1 SLOAD PUSH2 0x70C SWAP1 PUSH2 0x1C28 JUMP JUMPDEST DUP1 PUSH1 0x1F ADD PUSH1 0x20 DUP1 SWAP2 DIV MUL PUSH1 0x20 ADD PUSH1 0x40 MLOAD SWAP1 DUP2 ADD PUSH1 0x40 MSTORE DUP1 SWAP3 SWAP2 SWAP1 DUP2 DUP2 MSTORE PUSH1 0x20 ADD DUP3 DUP1 SLOAD PUSH2 0x738 SWAP1 PUSH2 0x1C28 JUMP JUMPDEST DUP1 ISZERO PUSH2 0x785 JUMPI DUP1 PUSH1 0x1F LT PUSH2 0x75A JUMPI PUSH2 0x100 DUP1 DUP4 SLOAD DIV MUL DUP4 MSTORE SWAP2 PUSH1 0x20 ADD SWAP2 PUSH2 0x785 JUMP JUMPDEST DUP3 ADD SWAP2 SWAP1 PUSH1 0x0 MSTORE PUSH1 0x20 PUSH1 0x0 KECCAK256 SWAP1 JUMPDEST DUP2 SLOAD DUP2 MSTORE SWAP1 PUSH1 0x1 ADD SWAP1 PUSH1 0x20 ADD DUP1 DUP4 GT PUSH2 0x768 JUMPI DUP3 SWAP1 SUB PUSH1 0x1F AND DUP3 ADD SWAP2 JUMPDEST POP POP POP POP POP DUP2 MSTORE PUSH1 0x20 ADD PUSH1 0x4 DUP3 ADD DUP1 SLOAD PUSH2 0x79E SWAP1 PUSH2 0x1C28 JUMP JUMPDEST DUP1 PUSH1 0x1F ADD PUSH1 0x20 DUP1 SWAP2 DIV MUL PUSH1 0x20 ADD PUSH1 0x40 MLOAD SWAP1 DUP2 ADD PUSH1 0x40 MSTORE DUP1 SWAP3 SWAP2 SWAP1 DUP2 DUP2 MSTORE PUSH1 0x20 ADD DUP3 DUP1 SLOAD PUSH2 0x7CA SWAP1 PUSH2 0x1C28 JUMP JUMPDEST DUP1 ISZERO PUSH2 0x817 JUMPI DUP1 PUSH1 0x1F LT PUSH2 0x7EC JUMPI PUSH2 0x100 DUP1 DUP4 SLOAD DIV MUL DUP4 MSTORE SWAP2 PUSH1 0x20 ADD SWAP2 PUSH2 0x817 JUMP JUMPDEST DUP3 ADD SWAP2 SWAP1 PUSH1 0x0 MSTORE PUSH1 0x20 PUSH1 0x0 KECCAK256 SWAP1 JUMPDEST DUP2 SLOAD DUP2 MSTORE SWAP1 PUSH1 0x1 ADD SWAP1 PUSH1 0x20 ADD DUP1 DUP4 GT PUSH2 0x7FA JUMPI DUP3 SWAP1 SUB PUSH1 0x1F AND DUP3 ADD SWAP2 JUMPDEST POP POP POP POP POP DUP2 MSTORE PUSH1 0x20 ADD PUSH1 0x5 DUP3 ADD PUSH1 0x0 SWAP1 SLOAD SWAP1 PUSH2 0x100 EXP SWAP1 DIV PUSH20 0xFFFFFFFFFFFFFFFFFFFFFFFFFFFFFFFFFFFFFFFF AND PUSH20 0xFFFFFFFFFFFFFFFFFFFFFFFFFFFFFFFFFFFFFFFF AND PUSH20 0xFFFFFFFFFFFFFFFFFFFFFFFFFFFFFFFFFFFFFFFF AND DUP2 MSTORE PUSH1 0x20 ADD PUSH1 0x5 DUP3 ADD PUSH1 0x14 SWAP1 SLOAD SWAP1 PUSH2 0x100 EXP SWAP1 DIV PUSH1 0xFF AND ISZERO ISZERO ISZERO ISZERO DUP2 MSTORE POP POP SWAP1 POP DUP1 PUSH1 0x0 ADD MLOAD DUP2 PUSH1 0x20 ADD MLOAD DUP3 PUSH1 0x40 ADD MLOAD DUP4 PUSH1 0x60 ADD MLOAD DUP5 PUSH1 0x80 ADD MLOAD DUP6 PUSH1 0xA0 ADD MLOAD DUP7 PUSH1 0xC0 ADD MLOAD SWAP8 POP SWAP8 POP SWAP8 POP SWAP8 POP SWAP8 POP SWAP8 POP SWAP8 POP POP SWAP2 SWAP4 SWAP6 SWAP8 SWAP1 SWAP3 SWAP5 SWAP7 POP JUMP JUMPDEST PUSH1 0x0 CALLER PUSH20 0xFFFFFFFFFFFFFFFFFFFFFFFFFFFFFFFFFFFFFFFF AND PUSH1 0x0 DUP1 SLOAD SWAP1 PUSH2 0x100 EXP SWAP1 DIV PUSH20 0xFFFFFFFFFFFFFFFFFFFFFFFFFFFFFFFFFFFFFFFF AND PUSH20 0xFFFFFFFFFFFFFFFFFFFFFFFFFFFFFFFFFFFFFFFF AND EQ PUSH2 0x960 JUMPI PUSH1 0x40 MLOAD PUSH32 0x8C379A000000000000000000000000000000000000000000000000000000000 DUP2 MSTORE PUSH1 0x4 ADD PUSH2 0x957 SWAP1 PUSH2 0x1A95 JUMP JUMPDEST PUSH1 0x40 MLOAD DUP1 SWAP2 SUB SWAP1 REVERT JUMPDEST PUSH1 0x1 PUSH1 0x0 DUP4 PUSH20 0xFFFFFFFFFFFFFFFFFFFFFFFFFFFFFFFFFFFFFFFF AND PUSH20 0xFFFFFFFFFFFFFFFFFFFFFFFFFFFFFFFFFFFFFFFF AND DUP2 MSTORE PUSH1 0x20 ADD SWAP1 DUP2 MSTORE PUSH1 0x20 ADD PUSH1 0x0 KECCAK256 PUSH1 0x0 SWAP1 SLOAD SWAP1 PUSH2 0x100 EXP SWAP1 DIV PUSH1 0xFF AND ISZERO PUSH2 0x9ED JUMPI PUSH1 0x40 MLOAD PUSH32 0x8C379A000000000000000000000000000000000000000000000000000000000 DUP2 MSTORE PUSH1 0x4 ADD PUSH2 0x9E4 SWAP1 PUSH2 0x1CA6 JUMP JUMPDEST PUSH1 0x40 MLOAD DUP1 SWAP2 SUB SWAP1 REVERT JUMPDEST PUSH1 0x1 DUP1 PUSH1 0x0 DUP5 PUSH20 0xFFFFFFFFFFFFFFFFFFFFFFFFFFFFFFFFFFFFFFFF AND PUSH20 0xFFFFFFFFFFFFFFFFFFFFFFFFFFFFFFFFFFFFFFFF AND DUP2 MSTORE PUSH1 0x20 ADD SWAP1 DUP2 MSTORE PUSH1 0x20 ADD PUSH1 0x0 KECCAK256 PUSH1 0x0 PUSH2 0x100 EXP DUP2 SLOAD DUP2 PUSH1 0xFF MUL NOT AND SWAP1 DUP4 ISZERO ISZERO MUL OR SWAP1 SSTORE POP DUP2 PUSH20 0xFFFFFFFFFFFFFFFFFFFFFFFFFFFFFFFFFFFFFFFF AND PUSH32 0x44D6D25963F097AD14F29F06854A01F575648A1EF82F30E562CCD3889717E339 PUSH1 0x40 MLOAD PUSH1 0x40 MLOAD DUP1 SWAP2 SUB SWAP1 LOG2 PUSH1 0x1 SWAP1 POP SWAP2 SWAP1 POP JUMP JUMPDEST PUSH1 0x0 PUSH1 0x60 DUP1 PUSH1 0x60 DUP1 PUSH1 0x0 DUP1 PUSH1 0x0 JUMPDEST PUSH1 0x5 DUP1 SLOAD SWAP1 POP DUP2 LT ISZERO PUSH2 0xB4B JUMPI DUP9 PUSH1 0x4 PUSH1 0x0 PUSH1 0x5 DUP5 DUP2 SLOAD DUP2 LT PUSH2 0xAC4 JUMPI PUSH2 0xAC3 PUSH2 0x1CC6 JUMP JUMPDEST JUMPDEST SWAP1 PUSH1 0x0 MSTORE PUSH1 0x20 PUSH1 0x0 KECCAK256 ADD PUSH1 0x0 SWAP1 SLOAD SWAP1 PUSH2 0x100 EXP SWAP1 DIV PUSH20 0xFFFFFFFFFFFFFFFFFFFFFFFFFFFFFFFFFFFFFFFF AND PUSH20 0xFFFFFFFFFFFFFFFFFFFFFFFFFFFFFFFFFFFFFFFF AND PUSH20 0xFFFFFFFFFFFFFFFFFFFFFFFFFFFFFFFFFFFFFFFF AND DUP2 MSTORE PUSH1 0x20 ADD SWAP1 DUP2 MSTORE PUSH1 0x20 ADD PUSH1 0x0 KECCAK256 PUSH1 0x0 ADD SLOAD EQ ISZERO PUSH2 0xB38 JUMPI PUSH2 0xB4B JUMP JUMPDEST DUP1 DUP1 PUSH2 0xB43 SWAP1 PUSH2 0x1D24 JUMP JUMPDEST SWAP2 POP POP PUSH2 0xA9E JUMP JUMPDEST DUP9 PUSH1 0x4 PUSH1 0x0 PUSH1 0x5 DUP5 DUP2 SLOAD DUP2 LT PUSH2 0xB64 JUMPI PUSH2 0xB63 PUSH2 0x1CC6 JUMP JUMPDEST JUMPDEST SWAP1 PUSH1 0x0 MSTORE PUSH1 0x20 PUSH1 0x0 KECCAK256 ADD PUSH1 0x0 SWAP1 SLOAD SWAP1 PUSH2 0x100 EXP SWAP1 DIV PUSH20 0xFFFFFFFFFFFFFFFFFFFFFFFFFFFFFFFFFFFFFFFF AND PUSH20 0xFFFFFFFFFFFFFFFFFFFFFFFFFFFFFFFFFFFFFFFF AND PUSH20 0xFFFFFFFFFFFFFFFFFFFFFFFFFFFFFFFFFFFFFFFF AND DUP2 MSTORE PUSH1 0x20 ADD SWAP1 DUP2 MSTORE PUSH1 0x20 ADD PUSH1 0x0 KECCAK256 PUSH1 0x0 ADD SLOAD EQ PUSH2 0xC0D JUMPI PUSH1 0x40 MLOAD PUSH32 0x8C379A000000000000000000000000000000000000000000000000000000000 DUP2 MSTORE PUSH1 0x4 ADD PUSH2 0xC04 SWAP1 PUSH2 0x1DB9 JUMP JUMPDEST PUSH1 0x40 MLOAD DUP1 SWAP2 SUB SWAP1 REVERT JUMPDEST PUSH1 0x0 PUSH1 0x4 PUSH1 0x0 PUSH1 0x5 DUP5 DUP2 SLOAD DUP2 LT PUSH2 0xC27 JUMPI PUSH2 0xC26 PUSH2 0x1CC6 JUMP JUMPDEST JUMPDEST SWAP1 PUSH1 0x0 MSTORE PUSH1 0x20 PUSH1 0x0 KECCAK256 ADD PUSH1 0x0 SWAP1 SLOAD SWAP1 PUSH2 0x100 EXP SWAP1 DIV PUSH20 0xFFFFFFFFFFFFFFFFFFFFFFFFFFFFFFFFFFFFFFFF AND PUSH20 0xFFFFFFFFFFFFFFFFFFFFFFFFFFFFFFFFFFFFFFFF AND PUSH20 0xFFFFFFFFFFFFFFFFFFFFFFFFFFFFFFFFFFFFFFFF AND DUP2 MSTORE PUSH1 0x20 ADD SWAP1 DUP2 MSTORE PUSH1 0x20 ADD PUSH1 0x0 KECCAK256 PUSH1 0x40 MLOAD DUP1 PUSH1 0xE0 ADD PUSH1 0x40 MSTORE SWAP1 DUP2 PUSH1 0x0 DUP3 ADD SLOAD DUP2 MSTORE PUSH1 0x20 ADD PUSH1 0x1 DUP3 ADD DUP1 SLOAD PUSH2 0xCB1 SWAP1 PUSH2 0x1C28 JUMP JUMPDEST DUP1 PUSH1 0x1F ADD PUSH1 0x20 DUP1 SWAP2 DIV MUL PUSH1 0x20 ADD PUSH1 0x40 MLOAD SWAP1 DUP2 ADD PUSH1 0x40 MSTORE DUP1 SWAP3 SWAP2 SWAP1 DUP2 DUP2 MSTORE PUSH1 0x20 ADD DUP3 DUP1 SLOAD PUSH2 0xCDD SWAP1 PUSH2 0x1C28 JUMP JUMPDEST DUP1 ISZERO PUSH2 0xD2A JUMPI DUP1 PUSH1 0x1F LT PUSH2 0xCFF JUMPI PUSH2 0x100 DUP1 DUP4 SLOAD DIV MUL DUP4 MSTORE SWAP2 PUSH1 0x20 ADD SWAP2 PUSH2 0xD2A JUMP JUMPDEST DUP3 ADD SWAP2 SWAP1 PUSH1 0x0 MSTORE PUSH1 0x20 PUSH1 0x0 KECCAK256 SWAP1 JUMPDEST DUP2 SLOAD DUP2 MSTORE SWAP1 PUSH1 0x1 ADD SWAP1 PUSH1 0x20 ADD DUP1 DUP4 GT PUSH2 0xD0D JUMPI DUP3 SWAP1 SUB PUSH1 0x1F AND DUP3 ADD SWAP2 JUMPDEST POP POP POP POP POP DUP2 MSTORE PUSH1 0x20 ADD PUSH1 0x2 DUP3 ADD DUP1 SLOAD PUSH2 0xD43 SWAP1 PUSH2 0x1C28 JUMP JUMPDEST DUP1 PUSH1 0x1F ADD PUSH1 0x20 DUP1 SWAP2 DIV MUL PUSH1 0x20 ADD PUSH1 0x40 MLOAD SWAP1 DUP2 ADD PUSH1 0x40 MSTORE DUP1 SWAP3 SWAP2 SWAP1 DUP2 DUP2 MSTORE PUSH1 0x20 ADD DUP3 DUP1 SLOAD PUSH2 0xD6F SWAP1 PUSH2 0x1C28 JUMP JUMPDEST DUP1 ISZERO PUSH2 0xDBC JUMPI DUP1 PUSH1 0x1F LT PUSH2 0xD91 JUMPI PUSH2 0x100 DUP1 DUP4 SLOAD DIV MUL DUP4 MSTORE SWAP2 PUSH1 0x20 ADD SWAP2 PUSH2 0xDBC JUMP JUMPDEST DUP3 ADD SWAP2 SWAP1 PUSH1 0x0 MSTORE PUSH1 0x20 PUSH1 0x0 KECCAK256 SWAP1 JUMPDEST DUP2 SLOAD DUP2 MSTORE SWAP1 PUSH1 0x1 ADD SWAP1 PUSH1 0x20 ADD DUP1 DUP4 GT PUSH2 0xD9F JUMPI DUP3 SWAP1 SUB PUSH1 0x1F AND DUP3 ADD SWAP2 JUMPDEST POP POP POP POP POP DUP2 MSTORE PUSH1 0x20 ADD PUSH1 0x3 DUP3 ADD DUP1 SLOAD PUSH2 0xDD5 SWAP1 PUSH2 0x1C28 JUMP JUMPDEST DUP1 PUSH1 0x1F ADD PUSH1 0x20 DUP1 SWAP2 DIV MUL PUSH1 0x20 ADD PUSH1 0x40 MLOAD SWAP1 DUP2 ADD PUSH1 0x40 MSTORE DUP1 SWAP3 SWAP2 SWAP1 DUP2 DUP2 MSTORE PUSH1 0x20 ADD DUP3 DUP1 SLOAD PUSH2 0xE01 SWAP1 PUSH2 0x1C28 JUMP JUMPDEST DUP1 ISZERO PUSH2 0xE4E JUMPI DUP1 PUSH1 0x1F LT PUSH2 0xE23 JUMPI PUSH2 0x100 DUP1 DUP4 SLOAD DIV MUL DUP4 MSTORE SWAP2 PUSH1 0x20 ADD SWAP2 PUSH2 0xE4E JUMP JUMPDEST DUP3 ADD SWAP2 SWAP1 PUSH1 0x0 MSTORE PUSH1 0x20 PUSH1 0x0 KECCAK256 SWAP1 JUMPDEST DUP2 SLOAD DUP2 MSTORE SWAP1 PUSH1 0x1 ADD SWAP1 PUSH1 0x20 ADD DUP1 DUP4 GT PUSH2 0xE31 JUMPI DUP3 SWAP1 SUB PUSH1 0x1F AND DUP3 ADD SWAP2 JUMPDEST POP POP POP POP POP DUP2 MSTORE PUSH1 0x20 ADD PUSH1 0x4 DUP3 ADD DUP1 SLOAD PUSH2 0xE67 SWAP1 PUSH2 0x1C28 JUMP JUMPDEST DUP1 PUSH1 0x1F ADD PUSH1 0x20 DUP1 SWAP2 DIV MUL PUSH1 0x20 ADD PUSH1 0x40 MLOAD SWAP1 DUP2 ADD PUSH1 0x40 MSTORE DUP1 SWAP3 SWAP2 SWAP1 DUP2 DUP2 MSTORE PUSH1 0x20 ADD DUP3 DUP1 SLOAD PUSH2 0xE93 SWAP1 PUSH2 0x1C28 JUMP JUMPDEST DUP1 ISZERO PUSH2 0xEE0 JUMPI DUP1 PUSH1 0x1F LT PUSH2 0xEB5 JUMPI PUSH2 0x100 DUP1 DUP4 SLOAD DIV MUL DUP4 MSTORE SWAP2 PUSH1 0x20 ADD SWAP2 PUSH2 0xEE0 JUMP JUMPDEST DUP3 ADD SWAP2 SWAP1 PUSH1 0x0 MSTORE PUSH1 0x20 PUSH1 0x0 KECCAK256 SWAP1 JUMPDEST DUP2 SLOAD DUP2 MSTORE SWAP1 PUSH1 0x1 ADD SWAP1 PUSH1 0x20 ADD DUP1 DUP4 GT PUSH2 0xEC3 JUMPI DUP3 SWAP1 SUB PUSH1 0x1F AND DUP3 ADD SWAP2 JUMPDEST POP POP POP POP POP DUP2 MSTORE PUSH1 0x20 ADD PUSH1 0x5 DUP3 ADD PUSH1 0x0 SWAP1 SLOAD SWAP1 PUSH2 0x100 EXP SWAP1 DIV PUSH20 0xFFFFFFFFFFFFFFFFFFFFFFFFFFFFFFFFFFFFFFFF AND PUSH20 0xFFFFFFFFFFFFFFFFFFFFFFFFFFFFFFFFFFFFFFFF AND PUSH20 0xFFFFFFFFFFFFFFFFFFFFFFFFFFFFFFFFFFFFFFFF AND DUP2 MSTORE PUSH1 0x20 ADD PUSH1 0x5 DUP3 ADD PUSH1 0x14 SWAP1 SLOAD SWAP1 PUSH2 0x100 EXP SWAP1 DIV PUSH1 0xFF AND ISZERO ISZERO ISZERO ISZERO DUP2 MSTORE POP POP SWAP1 POP DUP1 PUSH1 0x0 ADD MLOAD DUP2 PUSH1 0x20 ADD MLOAD DUP3 PUSH1 0x40 ADD MLOAD DUP4 PUSH1 0x60 ADD MLOAD DUP5 PUSH1 0x80 ADD MLOAD DUP6 PUSH1 0xA0 ADD MLOAD DUP7 PUSH1 0xC0 ADD MLOAD SWAP9 POP SWAP9 POP SWAP9 POP SWAP9 POP SWAP9 POP SWAP9 POP SWAP9 POP POP POP SWAP2 SWAP4 SWAP6 SWAP8 SWAP1 SWAP3 SWAP5 SWAP7 POP JUMP JUMPDEST PUSH1 0x0 PUSH1 0x1 ISZERO ISZERO PUSH1 0x1 PUSH1 0x0 CALLER PUSH20 0xFFFFFFFFFFFFFFFFFFFFFFFFFFFFFFFFFFFFFFFF AND PUSH20 0xFFFFFFFFFFFFFFFFFFFFFFFFFFFFFFFFFFFFFFFF AND DUP2 MSTORE PUSH1 0x20 ADD SWAP1 DUP2 MSTORE PUSH1 0x20 ADD PUSH1 0x0 KECCAK256 PUSH1 0x0 SWAP1 SLOAD SWAP1 PUSH2 0x100 EXP SWAP1 DIV PUSH1 0xFF AND ISZERO ISZERO EQ PUSH2 0x102F JUMPI PUSH1 0x40 MLOAD PUSH32 0x8C379A000000000000000000000000000000000000000000000000000000000 DUP2 MSTORE PUSH1 0x4 ADD PUSH2 0x1026 SWAP1 PUSH2 0x1E4B JUMP JUMPDEST PUSH1 0x40 MLOAD DUP1 SWAP2 SUB SWAP1 REVERT JUMPDEST PUSH1 0x3 PUSH1 0x0 DUP4 PUSH20 0xFFFFFFFFFFFFFFFFFFFFFFFFFFFFFFFFFFFFFFFF AND PUSH20 0xFFFFFFFFFFFFFFFFFFFFFFFFFFFFFFFFFFFFFFFF AND DUP2 MSTORE PUSH1 0x20 ADD SWAP1 DUP2 MSTORE PUSH1 0x20 ADD PUSH1 0x0 KECCAK256 PUSH1 0x0 SWAP1 SLOAD SWAP1 PUSH2 0x100 EXP SWAP1 DIV PUSH1 0xFF AND ISZERO PUSH2 0x10BC JUMPI PUSH1 0x40 MLOAD PUSH32 0x8C379A000000000000000000000000000000000000000000000000000000000 DUP2 MSTORE PUSH1 0x4 ADD PUSH2 0x10B3 SWAP1 PUSH2 0x1EB7 JUMP JUMPDEST PUSH1 0x40 MLOAD DUP1 SWAP2 SUB SWAP1 REVERT JUMPDEST PUSH1 0x5 DUP3 SWAP1 DUP1 PUSH1 0x1 DUP2 SLOAD ADD DUP1 DUP3 SSTORE DUP1 SWAP2 POP POP PUSH1 0x1 SWAP1 SUB SWAP1 PUSH1 0x0 MSTORE PUSH1 0x20 PUSH1 0x0 KECCAK256 ADD PUSH1 0x0 SWAP1 SWAP2 SWAP1 SWAP2 SWAP1 SWAP2 PUSH2 0x100 EXP DUP2 SLOAD DUP2 PUSH20 0xFFFFFFFFFFFFFFFFFFFFFFFFFFFFFFFFFFFFFFFF MUL NOT AND SWAP1 DUP4 PUSH20 0xFFFFFFFFFFFFFFFFFFFFFFFFFFFFFFFFFFFFFFFF AND MUL OR SWAP1 SSTORE POP PUSH1 0x1 PUSH1 0x2 SLOAD PUSH2 0x112E SWAP2 SWAP1 PUSH2 0x1ED7 JUMP JUMPDEST PUSH1 0x2 DUP2 SWAP1 SSTORE POP PUSH1 0x1 PUSH1 0x3 PUSH1 0x0 DUP5 PUSH20 0xFFFFFFFFFFFFFFFFFFFFFFFFFFFFFFFFFFFFFFFF AND PUSH20 0xFFFFFFFFFFFFFFFFFFFFFFFFFFFFFFFFFFFFFFFF AND DUP2 MSTORE PUSH1 0x20 ADD SWAP1 DUP2 MSTORE PUSH1 0x20 ADD PUSH1 0x0 KECCAK256 PUSH1 0x0 PUSH2 0x100 EXP DUP2 SLOAD DUP2 PUSH1 0xFF MUL NOT AND SWAP1 DUP4 ISZERO ISZERO MUL OR SWAP1 SSTORE POP PUSH1 0x40 MLOAD DUP1 PUSH1 0xE0 ADD PUSH1 0x40 MSTORE DUP1 PUSH1 0x2 SLOAD DUP2 MSTORE PUSH1 0x20 ADD DUP8 DUP2 MSTORE PUSH1 0x20 ADD DUP7 DUP2 MSTORE PUSH1 0x20 ADD DUP6 DUP2 MSTORE PUSH1 0x20 ADD DUP5 DUP2 MSTORE PUSH1 0x20 ADD DUP4 PUSH20 0xFFFFFFFFFFFFFFFFFFFFFFFFFFFFFFFFFFFFFFFF AND DUP2 MSTORE PUSH1 0x20 ADD PUSH1 0x1 ISZERO ISZERO DUP2 MSTORE POP PUSH1 0x4 PUSH1 0x0 DUP5 PUSH20 0xFFFFFFFFFFFFFFFFFFFFFFFFFFFFFFFFFFFFFFFF AND PUSH20 0xFFFFFFFFFFFFFFFFFFFFFFFFFFFFFFFFFFFFFFFF AND DUP2 MSTORE PUSH1 0x20 ADD SWAP1 DUP2 MSTORE PUSH1 0x20 ADD PUSH1 0x0 KECCAK256 PUSH1 0x0 DUP3 ADD MLOAD DUP2 PUSH1 0x0 ADD SSTORE PUSH1 0x20 DUP3 ADD MLOAD DUP2 PUSH1 0x1 ADD SWAP1 DUP1 MLOAD SWAP1 PUSH1 0x20 ADD SWAP1 PUSH2 0x123F SWAP3 SWAP2 SWAP1 PUSH2 0x14B0 JUMP JUMPDEST POP PUSH1 0x40 DUP3 ADD MLOAD DUP2 PUSH1 0x2 ADD SWAP1 DUP1 MLOAD SWAP1 PUSH1 0x20 ADD SWAP1 PUSH2 0x125C SWAP3 SWAP2 SWAP1 PUSH2 0x14B0 JUMP JUMPDEST POP PUSH1 0x60 DUP3 ADD MLOAD DUP2 PUSH1 0x3 ADD SWAP1 DUP1 MLOAD SWAP1 PUSH1 0x20 ADD SWAP1 PUSH2 0x1279 SWAP3 SWAP2 SWAP1 PUSH2 0x14B0 JUMP JUMPDEST POP PUSH1 0x80 DUP3 ADD MLOAD DUP2 PUSH1 0x4 ADD SWAP1 DUP1 MLOAD SWAP1 PUSH1 0x20 ADD SWAP1 PUSH2 0x1296 SWAP3 SWAP2 SWAP1 PUSH2 0x14B0 JUMP JUMPDEST POP PUSH1 0xA0 DUP3 ADD MLOAD DUP2 PUSH1 0x5 ADD PUSH1 0x0 PUSH2 0x100 EXP DUP2 SLOAD DUP2 PUSH20 0xFFFFFFFFFFFFFFFFFFFFFFFFFFFFFFFFFFFFFFFF MUL NOT AND SWAP1 DUP4 PUSH20 0xFFFFFFFFFFFFFFFFFFFFFFFFFFFFFFFFFFFFFFFF AND MUL OR SWAP1 SSTORE POP PUSH1 0xC0 DUP3 ADD MLOAD DUP2 PUSH1 0x5 ADD PUSH1 0x14 PUSH2 0x100 EXP DUP2 SLOAD DUP2 PUSH1 0xFF MUL NOT AND SWAP1 DUP4 ISZERO ISZERO MUL OR SWAP1 SSTORE POP SWAP1 POP POP PUSH1 0x1 SWAP1 POP SWAP6 SWAP5 POP POP POP POP POP JUMP JUMPDEST PUSH1 0x0 CALLER PUSH20 0xFFFFFFFFFFFFFFFFFFFFFFFFFFFFFFFFFFFFFFFF AND PUSH1 0x0 DUP1 SLOAD SWAP1 PUSH2 0x100 EXP SWAP1 DIV PUSH20 0xFFFFFFFFFFFFFFFFFFFFFFFFFFFFFFFFFFFFFFFF AND PUSH20 0xFFFFFFFFFFFFFFFFFFFFFFFFFFFFFFFFFFFFFFFF AND EQ PUSH2 0x139E JUMPI PUSH1 0x40 MLOAD PUSH32 0x8C379A000000000000000000000000000000000000000000000000000000000 DUP2 MSTORE PUSH1 0x4 ADD PUSH2 0x1395 SWAP1 PUSH2 0x1A95 JUMP JUMPDEST PUSH1 0x40 MLOAD DUP1 SWAP2 SUB SWAP1 REVERT JUMPDEST DUP2 PUSH20 0xFFFFFFFFFFFFFFFFFFFFFFFFFFFFFFFFFFFFFFFF AND CALLER PUSH20 0xFFFFFFFFFFFFFFFFFFFFFFFFFFFFFFFFFFFFFFFF AND EQ ISZERO PUSH2 0x140D JUMPI PUSH1 0x40 MLOAD PUSH32 0x8C379A000000000000000000000000000000000000000000000000000000000 DUP2 MSTORE PUSH1 0x4 ADD PUSH2 0x1404 SWAP1 PUSH2 0x1F79 JUMP JUMPDEST PUSH1 0x40 MLOAD DUP1 SWAP2 SUB SWAP1 REVERT JUMPDEST DUP2 PUSH1 0x0 DUP1 PUSH2 0x100 EXP DUP2 SLOAD DUP2 PUSH20 0xFFFFFFFFFFFFFFFFFFFFFFFFFFFFFFFFFFFFFFFF MUL NOT AND SWAP1 DUP4 PUSH20 0xFFFFFFFFFFFFFFFFFFFFFFFFFFFFFFFFFFFFFFFF AND MUL OR SWAP1 SSTORE POP DUP2 PUSH20 0xFFFFFFFFFFFFFFFFFFFFFFFFFFFFFFFFFFFFFFFF AND CALLER PUSH20 0xFFFFFFFFFFFFFFFFFFFFFFFFFFFFFFFFFFFFFFFF AND PUSH32 0x605C2DBF762E5F7D60A546D42E7205DCB1B011EBC62A61736A57C9089D3A4350 PUSH1 0x40 MLOAD PUSH1 0x40 MLOAD DUP1 SWAP2 SUB SWAP1 LOG3 PUSH1 0x1 SWAP1 POP SWAP2 SWAP1 POP JUMP JUMPDEST DUP3 DUP1 SLOAD PUSH2 0x14BC SWAP1 PUSH2 0x1C28 JUMP JUMPDEST SWAP1 PUSH1 0x0 MSTORE PUSH1 0x20 PUSH1 0x0 KECCAK256 SWAP1 PUSH1 0x1F ADD PUSH1 0x20 SWAP1 DIV DUP2 ADD SWAP3 DUP3 PUSH2 0x14DE JUMPI PUSH1 0x0 DUP6 SSTORE PUSH2 0x1525 JUMP JUMPDEST DUP3 PUSH1 0x1F LT PUSH2 0x14F7 JUMPI DUP1 MLOAD PUSH1 0xFF NOT AND DUP4 DUP1 ADD OR DUP6 SSTORE PUSH2 0x1525 JUMP JUMPDEST DUP3 DUP1 ADD PUSH1 0x1 ADD DUP6 SSTORE DUP3 ISZERO PUSH2 0x1525 JUMPI SWAP2 DUP3 ADD JUMPDEST DUP3 DUP2 GT ISZERO PUSH2 0x1524 JUMPI DUP3 MLOAD DUP3 SSTORE SWAP2 PUSH1 0x20 ADD SWAP2 SWAP1 PUSH1 0x1 ADD SWAP1 PUSH2 0x1509 JUMP JUMPDEST JUMPDEST POP SWAP1 POP PUSH2 0x1532 SWAP2 SWAP1 PUSH2 0x1536 JUMP JUMPDEST POP SWAP1 JUMP JUMPDEST JUMPDEST DUP1 DUP3 GT ISZERO PUSH2 0x154F JUMPI PUSH1 0x0 DUP2 PUSH1 0x0 SWAP1 SSTORE POP PUSH1 0x1 ADD PUSH2 0x1537 JUMP JUMPDEST POP SWAP1 JUMP JUMPDEST PUSH1 0x0 PUSH1 0x40 MLOAD SWAP1 POP SWAP1 JUMP JUMPDEST PUSH1 0x0 DUP1 REVERT JUMPDEST PUSH1 0x0 DUP1 REVERT JUMPDEST PUSH1 0x0 DUP2 SWAP1 POP SWAP2 SWAP1 POP JUMP JUMPDEST PUSH2 0x157A DUP2 PUSH2 0x1567 JUMP JUMPDEST DUP2 EQ PUSH2 0x1585 JUMPI PUSH1 0x0 DUP1 REVERT JUMPDEST POP JUMP JUMPDEST PUSH1 0x0 DUP2 CALLDATALOAD SWAP1 POP PUSH2 0x1597 DUP2 PUSH2 0x1571 JUMP JUMPDEST SWAP3 SWAP2 POP POP JUMP JUMPDEST PUSH1 0x0 PUSH1 0x20 DUP3 DUP5 SUB SLT ISZERO PUSH2 0x15B3 JUMPI PUSH2 0x15B2 PUSH2 0x155D JUMP JUMPDEST JUMPDEST PUSH1 0x0 PUSH2 0x15C1 DUP5 DUP3 DUP6 ADD PUSH2 0x1588 JUMP JUMPDEST SWAP2 POP POP SWAP3 SWAP2 POP POP JUMP JUMPDEST PUSH1 0x0 PUSH20 0xFFFFFFFFFFFFFFFFFFFFFFFFFFFFFFFFFFFFFFFF DUP3 AND SWAP1 POP SWAP2 SWAP1 POP JUMP JUMPDEST PUSH1 0x0 PUSH2 0x15F5 DUP3 PUSH2 0x15CA JUMP JUMPDEST SWAP1 POP SWAP2 SWAP1 POP JUMP JUMPDEST PUSH2 0x1605 DUP2 PUSH2 0x15EA JUMP JUMPDEST DUP3 MSTORE POP POP JUMP JUMPDEST PUSH1 0x0 PUSH1 0x20 DUP3 ADD SWAP1 POP PUSH2 0x1620 PUSH1 0x0 DUP4 ADD DUP5 PUSH2 0x15FC JUMP JUMPDEST SWAP3 SWAP2 POP POP JUMP JUMPDEST PUSH2 0x162F DUP2 PUSH2 0x15EA JUMP JUMPDEST DUP2 EQ PUSH2 0x163A JUMPI PUSH1 0x0 DUP1 REVERT JUMPDEST POP JUMP JUMPDEST PUSH1 0x0 DUP2 CALLDATALOAD SWAP1 POP PUSH2 0x164C DUP2 PUSH2 0x1626 JUMP JUMPDEST SWAP3 SWAP2 POP POP JUMP JUMPDEST PUSH1 0x0 PUSH1 0x20 DUP3 DUP5 SUB SLT ISZERO PUSH2 0x1668 JUMPI PUSH2 0x1667 PUSH2 0x155D JUMP JUMPDEST JUMPDEST PUSH1 0x0 PUSH2 0x1676 DUP5 DUP3 DUP6 ADD PUSH2 0x163D JUMP JUMPDEST SWAP2 POP POP SWAP3 SWAP2 POP POP JUMP JUMPDEST PUSH1 0x0 DUP2 ISZERO ISZERO SWAP1 POP SWAP2 SWAP1 POP JUMP JUMPDEST PUSH2 0x1694 DUP2 PUSH2 0x167F JUMP JUMPDEST DUP3 MSTORE POP POP JUMP JUMPDEST PUSH1 0x0 PUSH1 0x20 DUP3 ADD SWAP1 POP PUSH2 0x16AF PUSH1 0x0 DUP4 ADD DUP5 PUSH2 0x168B JUMP JUMPDEST SWAP3 SWAP2 POP POP JUMP JUMPDEST PUSH2 0x16BE DUP2 PUSH2 0x1567 JUMP JUMPDEST DUP3 MSTORE POP POP JUMP JUMPDEST PUSH1 0x0 PUSH1 0x20 DUP3 ADD SWAP1 POP PUSH2 0x16D9 PUSH1 0x0 DUP4 ADD DUP5 PUSH2 0x16B5 JUMP JUMPDEST SWAP3 SWAP2 POP POP JUMP JUMPDEST PUSH1 0x0 DUP2 MLOAD SWAP1 POP SWAP2 SWAP1 POP JUMP JUMPDEST PUSH1 0x0 DUP3 DUP3 MSTORE PUSH1 0x20 DUP3 ADD SWAP1 POP SWAP3 SWAP2 POP POP JUMP JUMPDEST PUSH1 0x0 JUMPDEST DUP4 DUP2 LT ISZERO PUSH2 0x1719 JUMPI DUP1 DUP3 ADD MLOAD DUP2 DUP5 ADD MSTORE PUSH1 0x20 DUP2 ADD SWAP1 POP PUSH2 0x16FE JUMP JUMPDEST DUP4 DUP2 GT ISZERO PUSH2 0x1728 JUMPI PUSH1 0x0 DUP5 DUP5 ADD MSTORE JUMPDEST POP POP POP POP JUMP JUMPDEST PUSH1 0x0 PUSH1 0x1F NOT PUSH1 0x1F DUP4 ADD AND SWAP1 POP SWAP2 SWAP1 POP JUMP JUMPDEST PUSH1 0x0 PUSH2 0x174A DUP3 PUSH2 0x16DF JUMP JUMPDEST PUSH2 0x1754 DUP2 DUP6 PUSH2 0x16EA JUMP JUMPDEST SWAP4 POP PUSH2 0x1764 DUP2 DUP6 PUSH1 0x20 DUP7 ADD PUSH2 0x16FB JUMP JUMPDEST PUSH2 0x176D DUP2 PUSH2 0x172E JUMP JUMPDEST DUP5 ADD SWAP2 POP POP SWAP3 SWAP2 POP POP JUMP JUMPDEST PUSH1 0x0 PUSH1 0xE0 DUP3 ADD SWAP1 POP PUSH2 0x178D PUSH1 0x0 DUP4 ADD DUP11 PUSH2 0x16B5 JUMP JUMPDEST DUP2 DUP2 SUB PUSH1 0x20 DUP4 ADD MSTORE PUSH2 0x179F DUP2 DUP10 PUSH2 0x173F JUMP JUMPDEST SWAP1 POP DUP2 DUP2 SUB PUSH1 0x40 DUP4 ADD MSTORE PUSH2 0x17B3 DUP2 DUP9 PUSH2 0x173F JUMP JUMPDEST SWAP1 POP DUP2 DUP2 SUB PUSH1 0x60 DUP4 ADD MSTORE PUSH2 0x17C7 DUP2 DUP8 PUSH2 0x173F JUMP JUMPDEST SWAP1 POP DUP2 DUP2 SUB PUSH1 0x80 DUP4 ADD MSTORE PUSH2 0x17DB DUP2 DUP7 PUSH2 0x173F JUMP JUMPDEST SWAP1 POP PUSH2 0x17EA PUSH1 0xA0 DUP4 ADD DUP6 PUSH2 0x15FC JUMP JUMPDEST PUSH2 0x17F7 PUSH1 0xC0 DUP4 ADD DUP5 PUSH2 0x168B JUMP JUMPDEST SWAP9 SWAP8 POP POP POP POP POP POP POP POP JUMP JUMPDEST PUSH1 0x0 DUP1 REVERT JUMPDEST PUSH1 0x0 DUP1 REVERT JUMPDEST PUSH32 0x4E487B7100000000000000000000000000000000000000000000000000000000 PUSH1 0x0 MSTORE PUSH1 0x41 PUSH1 0x4 MSTORE PUSH1 0x24 PUSH1 0x0 REVERT JUMPDEST PUSH2 0x1845 DUP3 PUSH2 0x172E JUMP JUMPDEST DUP2 ADD DUP2 DUP2 LT PUSH8 0xFFFFFFFFFFFFFFFF DUP3 GT OR ISZERO PUSH2 0x1864 JUMPI PUSH2 0x1863 PUSH2 0x180D JUMP JUMPDEST JUMPDEST DUP1 PUSH1 0x40 MSTORE POP POP POP JUMP JUMPDEST PUSH1 0x0 PUSH2 0x1877 PUSH2 0x1553 JUMP JUMPDEST SWAP1 POP PUSH2 0x1883 DUP3 DUP3 PUSH2 0x183C JUMP JUMPDEST SWAP2 SWAP1 POP JUMP JUMPDEST PUSH1 0x0 PUSH8 0xFFFFFFFFFFFFFFFF DUP3 GT ISZERO PUSH2 0x18A3 JUMPI PUSH2 0x18A2 PUSH2 0x180D JUMP JUMPDEST JUMPDEST PUSH2 0x18AC DUP3 PUSH2 0x172E JUMP JUMPDEST SWAP1 POP PUSH1 0x20 DUP2 ADD SWAP1 POP SWAP2 SWAP1 POP JUMP JUMPDEST DUP3 DUP2 DUP4 CALLDATACOPY PUSH1 0x0 DUP4 DUP4 ADD MSTORE POP POP POP JUMP JUMPDEST PUSH1 0x0 PUSH2 0x18DB PUSH2 0x18D6 DUP5 PUSH2 0x1888 JUMP JUMPDEST PUSH2 0x186D JUMP JUMPDEST SWAP1 POP DUP3 DUP2 MSTORE PUSH1 0x20 DUP2 ADD DUP5 DUP5 DUP5 ADD GT ISZERO PUSH2 0x18F7 JUMPI PUSH2 0x18F6 PUSH2 0x1808 JUMP JUMPDEST JUMPDEST PUSH2 0x1902 DUP5 DUP3 DUP6 PUSH2 0x18B9 JUMP JUMPDEST POP SWAP4 SWAP3 POP POP POP JUMP JUMPDEST PUSH1 0x0 DUP3 PUSH1 0x1F DUP4 ADD SLT PUSH2 0x191F JUMPI PUSH2 0x191E PUSH2 0x1803 JUMP JUMPDEST JUMPDEST DUP2 CALLDATALOAD PUSH2 0x192F DUP5 DUP3 PUSH1 0x20 DUP7 ADD PUSH2 0x18C8 JUMP JUMPDEST SWAP2 POP POP SWAP3 SWAP2 POP POP JUMP JUMPDEST PUSH1 0x0 DUP1 PUSH1 0x0 DUP1 PUSH1 0x0 PUSH1 0xA0 DUP7 DUP9 SUB SLT ISZERO PUSH2 0x1954 JUMPI PUSH2 0x1953 PUSH2 0x155D JUMP JUMPDEST JUMPDEST PUSH1 0x0 DUP7 ADD CALLDATALOAD PUSH8 0xFFFFFFFFFFFFFFFF DUP2 GT ISZERO PUSH2 0x1972 JUMPI PUSH2 0x1971 PUSH2 0x1562 JUMP JUMPDEST JUMPDEST PUSH2 0x197E DUP9 DUP3 DUP10 ADD PUSH2 0x190A JUMP JUMPDEST SWAP6 POP POP PUSH1 0x20 DUP7 ADD CALLDATALOAD PUSH8 0xFFFFFFFFFFFFFFFF DUP2 GT ISZERO PUSH2 0x199F JUMPI PUSH2 0x199E PUSH2 0x1562 JUMP JUMPDEST JUMPDEST PUSH2 0x19AB DUP9 DUP3 DUP10 ADD PUSH2 0x190A JUMP JUMPDEST SWAP5 POP POP PUSH1 0x40 DUP7 ADD CALLDATALOAD PUSH8 0xFFFFFFFFFFFFFFFF DUP2 GT ISZERO PUSH2 0x19CC JUMPI PUSH2 0x19CB PUSH2 0x1562 JUMP JUMPDEST JUMPDEST PUSH2 0x19D8 DUP9 DUP3 DUP10 ADD PUSH2 0x190A JUMP JUMPDEST SWAP4 POP POP PUSH1 0x60 DUP7 ADD CALLDATALOAD PUSH8 0xFFFFFFFFFFFFFFFF DUP2 GT ISZERO PUSH2 0x19F9 JUMPI PUSH2 0x19F8 PUSH2 0x1562 JUMP JUMPDEST JUMPDEST PUSH2 0x1A05 DUP9 DUP3 DUP10 ADD PUSH2 0x190A JUMP JUMPDEST SWAP3 POP POP PUSH1 0x80 PUSH2 0x1A16 DUP9 DUP3 DUP10 ADD PUSH2 0x163D JUMP JUMPDEST SWAP2 POP POP SWAP3 SWAP6 POP SWAP3 SWAP6 SWAP1 SWAP4 POP JUMP JUMPDEST PUSH32 0x4F6E6C79204D616E6167657220686173207065726D697373696F6E20746F2064 PUSH1 0x0 DUP3 ADD MSTORE PUSH32 0x6F207468617420616374696F6E2E000000000000000000000000000000000000 PUSH1 0x20 DUP3 ADD MSTORE POP JUMP JUMPDEST PUSH1 0x0 PUSH2 0x1A7F PUSH1 0x2E DUP4 PUSH2 0x16EA JUMP JUMPDEST SWAP2 POP PUSH2 0x1A8A DUP3 PUSH2 0x1A23 JUMP JUMPDEST PUSH1 0x40 DUP3 ADD SWAP1 POP SWAP2 SWAP1 POP JUMP JUMPDEST PUSH1 0x0 PUSH1 0x20 DUP3 ADD SWAP1 POP DUP2 DUP2 SUB PUSH1 0x0 DUP4 ADD MSTORE PUSH2 0x1AAE DUP2 PUSH2 0x1A72 JUMP JUMPDEST SWAP1 POP SWAP2 SWAP1 POP JUMP JUMPDEST PUSH32 0x43616E27742072656D6F7665206F776E65722066726F6D2061646D696E000000 PUSH1 0x0 DUP3 ADD MSTORE POP JUMP JUMPDEST PUSH1 0x0 PUSH2 0x1AEB PUSH1 0x1D DUP4 PUSH2 0x16EA JUMP JUMPDEST SWAP2 POP PUSH2 0x1AF6 DUP3 PUSH2 0x1AB5 JUMP JUMPDEST PUSH1 0x20 DUP3 ADD SWAP1 POP SWAP2 SWAP1 POP JUMP JUMPDEST PUSH1 0x0 PUSH1 0x20 DUP3 ADD SWAP1 POP DUP2 DUP2 SUB PUSH1 0x0 DUP4 ADD MSTORE PUSH2 0x1B1A DUP2 PUSH2 0x1ADE JUMP JUMPDEST SWAP1 POP SWAP2 SWAP1 POP JUMP JUMPDEST PUSH32 0x55736572206E6F742061646D696E20616C726561647921212100000000000000 PUSH1 0x0 DUP3 ADD MSTORE POP JUMP JUMPDEST PUSH1 0x0 PUSH2 0x1B57 PUSH1 0x19 DUP4 PUSH2 0x16EA JUMP JUMPDEST SWAP2 POP PUSH2 0x1B62 DUP3 PUSH2 0x1B21 JUMP JUMPDEST PUSH1 0x20 DUP3 ADD SWAP1 POP SWAP2 SWAP1 POP JUMP JUMPDEST PUSH1 0x0 PUSH1 0x20 DUP3 ADD SWAP1 POP DUP2 DUP2 SUB PUSH1 0x0 DUP4 ADD MSTORE PUSH2 0x1B86 DUP2 PUSH2 0x1B4A JUMP JUMPDEST SWAP1 POP SWAP2 SWAP1 POP JUMP JUMPDEST PUSH32 0x446F63746F72206973206E6F7420617070726F7665642E000000000000000000 PUSH1 0x0 DUP3 ADD MSTORE POP JUMP JUMPDEST PUSH1 0x0 PUSH2 0x1BC3 PUSH1 0x17 DUP4 PUSH2 0x16EA JUMP JUMPDEST SWAP2 POP PUSH2 0x1BCE DUP3 PUSH2 0x1B8D JUMP JUMPDEST PUSH1 0x20 DUP3 ADD SWAP1 POP SWAP2 SWAP1 POP JUMP JUMPDEST PUSH1 0x0 PUSH1 0x20 DUP3 ADD SWAP1 POP DUP2 DUP2 SUB PUSH1 0x0 DUP4 ADD MSTORE PUSH2 0x1BF2 DUP2 PUSH2 0x1BB6 JUMP JUMPDEST SWAP1 POP SWAP2 SWAP1 POP JUMP JUMPDEST PUSH32 0x4E487B7100000000000000000000000000000000000000000000000000000000 PUSH1 0x0 MSTORE PUSH1 0x22 PUSH1 0x4 MSTORE PUSH1 0x24 PUSH1 0x0 REVERT JUMPDEST PUSH1 0x0 PUSH1 0x2 DUP3 DIV SWAP1 POP PUSH1 0x1 DUP3 AND DUP1 PUSH2 0x1C40 JUMPI PUSH1 0x7F DUP3 AND SWAP2 POP JUMPDEST PUSH1 0x20 DUP3 LT DUP2 EQ ISZERO PUSH2 0x1C54 JUMPI PUSH2 0x1C53 PUSH2 0x1BF9 JUMP JUMPDEST JUMPDEST POP SWAP2 SWAP1 POP JUMP JUMPDEST PUSH32 0x5573657220697320616C726561647920612061646D696E212121000000000000 PUSH1 0x0 DUP3 ADD MSTORE POP JUMP JUMPDEST PUSH1 0x0 PUSH2 0x1C90 PUSH1 0x1A DUP4 PUSH2 0x16EA JUMP JUMPDEST SWAP2 POP PUSH2 0x1C9B DUP3 PUSH2 0x1C5A JUMP JUMPDEST PUSH1 0x20 DUP3 ADD SWAP1 POP SWAP2 SWAP1 POP JUMP JUMPDEST PUSH1 0x0 PUSH1 0x20 DUP3 ADD SWAP1 POP DUP2 DUP2 SUB PUSH1 0x0 DUP4 ADD MSTORE PUSH2 0x1CBF DUP2 PUSH2 0x1C83 JUMP JUMPDEST SWAP1 POP SWAP2 SWAP1 POP JUMP JUMPDEST PUSH32 0x4E487B7100000000000000000000000000000000000000000000000000000000 PUSH1 0x0 MSTORE PUSH1 0x32 PUSH1 0x4 MSTORE PUSH1 0x24 PUSH1 0x0 REVERT JUMPDEST PUSH32 0x4E487B7100000000000000000000000000000000000000000000000000000000 PUSH1 0x0 MSTORE PUSH1 0x11 PUSH1 0x4 MSTORE PUSH1 0x24 PUSH1 0x0 REVERT JUMPDEST PUSH1 0x0 PUSH2 0x1D2F DUP3 PUSH2 0x1567 JUMP JUMPDEST SWAP2 POP PUSH32 0xFFFFFFFFFFFFFFFFFFFFFFFFFFFFFFFFFFFFFFFFFFFFFFFFFFFFFFFFFFFFFFFF DUP3 EQ ISZERO PUSH2 0x1D62 JUMPI PUSH2 0x1D61 PUSH2 0x1CF5 JUMP JUMPDEST JUMPDEST PUSH1 0x1 DUP3 ADD SWAP1 POP SWAP2 SWAP1 POP JUMP JUMPDEST PUSH32 0x446F63746F7220494420646F65736E27742065786973742E0000000000000000 PUSH1 0x0 DUP3 ADD MSTORE POP JUMP JUMPDEST PUSH1 0x0 PUSH2 0x1DA3 PUSH1 0x18 DUP4 PUSH2 0x16EA JUMP JUMPDEST SWAP2 POP PUSH2 0x1DAE DUP3 PUSH2 0x1D6D JUMP JUMPDEST PUSH1 0x20 DUP3 ADD SWAP1 POP SWAP2 SWAP1 POP JUMP JUMPDEST PUSH1 0x0 PUSH1 0x20 DUP3 ADD SWAP1 POP DUP2 DUP2 SUB PUSH1 0x0 DUP4 ADD MSTORE PUSH2 0x1DD2 DUP2 PUSH2 0x1D96 JUMP JUMPDEST SWAP1 POP SWAP2 SWAP1 POP JUMP JUMPDEST PUSH32 0x4F6E6C792041646D696E20686173207065726D697373696F6E20746F20646F20 PUSH1 0x0 DUP3 ADD MSTORE PUSH32 0x7468617420616374696F6E2E0000000000000000000000000000000000000000 PUSH1 0x20 DUP3 ADD MSTORE POP JUMP JUMPDEST PUSH1 0x0 PUSH2 0x1E35 PUSH1 0x2C DUP4 PUSH2 0x16EA JUMP JUMPDEST SWAP2 POP PUSH2 0x1E40 DUP3 PUSH2 0x1DD9 JUMP JUMPDEST PUSH1 0x40 DUP3 ADD SWAP1 POP SWAP2 SWAP1 POP JUMP JUMPDEST PUSH1 0x0 PUSH1 0x20 DUP3 ADD SWAP1 POP DUP2 DUP2 SUB PUSH1 0x0 DUP4 ADD MSTORE PUSH2 0x1E64 DUP2 PUSH2 0x1E28 JUMP JUMPDEST SWAP1 POP SWAP2 SWAP1 POP JUMP JUMPDEST PUSH32 0x416C72656164792061207265676973746572656420446F63746F722E00000000 PUSH1 0x0 DUP3 ADD MSTORE POP JUMP JUMPDEST PUSH1 0x0 PUSH2 0x1EA1 PUSH1 0x1C DUP4 PUSH2 0x16EA JUMP JUMPDEST SWAP2 POP PUSH2 0x1EAC DUP3 PUSH2 0x1E6B JUMP JUMPDEST PUSH1 0x20 DUP3 ADD SWAP1 POP SWAP2 SWAP1 POP JUMP JUMPDEST PUSH1 0x0 PUSH1 0x20 DUP3 ADD SWAP1 POP DUP2 DUP2 SUB PUSH1 0x0 DUP4 ADD MSTORE PUSH2 0x1ED0 DUP2 PUSH2 0x1E94 JUMP JUMPDEST SWAP1 POP SWAP2 SWAP1 POP JUMP JUMPDEST PUSH1 0x0 PUSH2 0x1EE2 DUP3 PUSH2 0x1567 JUMP JUMPDEST SWAP2 POP PUSH2 0x1EED DUP4 PUSH2 0x1567 JUMP JUMPDEST SWAP3 POP DUP3 PUSH32 0xFFFFFFFFFFFFFFFFFFFFFFFFFFFFFFFFFFFFFFFFFFFFFFFFFFFFFFFFFFFFFFFF SUB DUP3 GT ISZERO PUSH2 0x1F22 JUMPI PUSH2 0x1F21 PUSH2 0x1CF5 JUMP JUMPDEST JUMPDEST DUP3 DUP3 ADD SWAP1 POP SWAP3 SWAP2 POP POP JUMP JUMPDEST PUSH32 0x416C7265616479206D616E616765722E00000000000000000000000000000000 PUSH1 0x0 DUP3 ADD MSTORE POP JUMP JUMPDEST PUSH1 0x0 PUSH2 0x1F63 PUSH1 0x10 DUP4 PUSH2 0x16EA JUMP JUMPDEST SWAP2 POP PUSH2 0x1F6E DUP3 PUSH2 0x1F2D JUMP JUMPDEST PUSH1 0x20 DUP3 ADD SWAP1 POP SWAP2 SWAP1 POP JUMP JUMPDEST PUSH1 0x0 PUSH1 0x20 DUP3 ADD SWAP1 POP DUP2 DUP2 SUB PUSH1 0x0 DUP4 ADD MSTORE PUSH2 0x1F92 DUP2 PUSH2 0x1F56 JUMP JUMPDEST SWAP1 POP SWAP2 SWAP1 POP JUMP INVALID LOG2 PUSH5 0x6970667358 0x22 SLT KECCAK256 0x21 ADDRESS SUB 0xAE ADDRESS DUP5 0xE4 SHL JUMPDEST PUSH32 0x3FC40E1590191E3DE343637E027D7F990CD00899CE7D64736F6C634300080900 CALLER "},"gasEstimates":{"creation":{"codeDepositCost":"1628600","executionCost":"50330","totalCost":"1678930"},"external":{"addAdmin(address)":"30610","addDoctor(string,string,string,string,address)":"infinite","doctorList(uint256)":"4957","getDoctorByAddress(address)":"infinite","getDoctorById(uint256)":"infinite","index()":"2474","manager()":"2578","removeAdmin(address)":"32779","setManager(address)":"28760"}},"methodIdentifiers":{"addAdmin(address)":"70480275","addDoctor(string,string,string,string,address)":"b20a8033","doctorList(uint256)":"127ca4b4","getDoctorByAddress(address)":"58c5d4bf","getDoctorById(uint256)":"91e58375","index()":"2986c0e5","manager()":"481c6a75","removeAdmin(address)":"1785f53c","setManager(address)":"d0ebdbe7"}},"storageLayout":{"storage":[{"astId":4,"contract":"PatientFile.sol:DoctorContract","label":"manager","offset":0,"slot":"0","type":"t_address"},{"astId":8,"contract":"PatientFile.sol:DoctorContract","label":"isAdmin","offset":0,"slot":"1","type":"t_mapping(t_address,t_bool)"},{"astId":165,"contract":"PatientFile.sol:DoctorContract","label":"index","offset":0,"slot":"2","type":"t_uint256"},{"astId":169,"contract":"PatientFile.sol:DoctorContract","label":"isDoctor","offset":0,"slot":"3","type":"t_mapping(t_address,t_bool)"},{"astId":189,"contract":"PatientFile.sol:DoctorContract","label":"doctors","offset":0,"slot":"4","type":"t_mapping(t_address,t_struct(Doctor)184_storage)"},{"astId":192,"contract":"PatientFile.sol:DoctorContract","label":"doctorList","offset":0,"slot":"5","type":"t_array(t_address)dyn_storage"}],"types":{"t_address":{"encoding":"inplace","label":"address","numberOfBytes":"20"},"t_array(t_address)dyn_storage":{"base":"t_address","encoding":"dynamic_array","label":"address[]","numberOfBytes":"32"},"t_bool":{"encoding":"inplace","label":"bool","numberOfBytes":"1"},"t_mapping(t_address,t_bool)":{"encoding":"mapping","key":"t_address","label":"mapping(address => bool)","numberOfBytes":"32","value":"t_bool"},"t_mapping(t_address,t_struct(Doctor)184_storage)":{"encoding":"mapping","key":"t_address","label":"mapping(address => struct DoctorContract.Doctor)","numberOfBytes":"32","value":"t_struct(Doctor)184_storage"},"t_string_storage":{"encoding":"bytes","label":"string","numberOfBytes":"32"},"t_struct(Doctor)184_storage":{"encoding":"inplace","label":"struct DoctorContract.Doctor","members":[{"astId":171,"contract":"PatientFile.sol:DoctorContract","label":"id","offset":0,"slot":"0","type":"t_uint256"},{"astId":173,"contract":"PatientFile.sol:DoctorContract","label":"doc_name","offset":0,"slot":"1","type":"t_string_storage"},{"astId":175,"contract":"PatientFile.sol:DoctorContract","label":"doc_contact","offset":0,"slot":"2","type":"t_string_storage"},{"astId":177,"contract":"PatientFile.sol:DoctorContract","label":"doc_specialisation","offset":0,"slot":"3","type":"t_string_storage"},{"astId":179,"contract":"PatientFile.sol:DoctorContract","label":"doc_address","offset":0,"slot":"4","type":"t_string_storage"},{"astId":181,"contract":"PatientFile.sol:DoctorContract","label":"addr","offset":0,"slot":"5","type":"t_address"},{"astId":183,"contract":"PatientFile.sol:DoctorContract","label":"isApproved","offset":20,"slot":"5","type":"t_bool"}],"numberOfBytes":"192"},"t_uint256":{"encoding":"inplace","label":"uint256","numberOfBytes":"32"}}},"userdoc":{"kind":"user","methods":{},"version":1}}