{"abi":[{"anonymous":false,"inputs":[{"indexed":true,"internalType":"address","name":"Admin_Address","type":"address"}],"name":"AdminAdded","type":"event"},{"anonymous":false,"inputs":[{"indexed":true,"internalType":"address","name":"Admin_Address","type":"address"}],"name":"AdminRemoved","type":"event"},{"anonymous":false,"inputs":[{"indexed":true,"internalType":"address","name":"_from","type":"address"},{"indexed":true,"internalType":"address","name":"_to","type":"address"}],"name":"ManagerChanged","type":"event"},{"inputs":[{"internalType":"address","name":"_address","type":"address"}],"name":"addAdmin","outputs":[{"internalType":"bool","name":"success","type":"bool"}],"stateMutability":"nonpayable","type":"function"},{"inputs":[{"internalType":"address","name":"_addr","type":"address"}],"name":"addAuth","outputs":[{"internalType":"bool","name":"success","type":"bool"}],"stateMutability":"nonpayable","type":"function"},{"inputs":[{"internalType":"address","name":"_from","type":"address"},{"internalType":"address","name":"_to","type":"address"}],"name":"addAuthFromTo","outputs":[{"internalType":"bool","name":"success","type":"bool"}],"stateMutability":"nonpayable","type":"function"},{"inputs":[{"internalType":"string","name":"_doc_name","type":"string"},{"internalType":"string","name":"_doc_contact","type":"string"},{"internalType":"string","name":"_doc_specialisation","type":"string"},{"internalType":"string","name":"_doc_address","type":"string"},{"internalType":"address","name":"_doc_addr","type":"address"}],"name":"addDoctor","outputs":[{"internalType":"bool","name":"","type":"bool"}],"stateMutability":"nonpayable","type":"function"},{"inputs":[{"internalType":"string","name":"_name","type":"string"},{"internalType":"string","name":"_phone","type":"string"},{"internalType":"string","name":"_gender","type":"string"},{"internalType":"string","name":"_dob","type":"string"},{"internalType":"string","name":"_bloodgroup","type":"string"},{"internalType":"string","name":"_allergies","type":"string"}],"name":"addPatient","outputs":[],"stateMutability":"nonpayable","type":"function"},{"inputs":[{"internalType":"address","name":"_addr","type":"address"},{"internalType":"string","name":"_hname","type":"string"},{"internalType":"string","name":"_reason","type":"string"},{"internalType":"string","name":"_admittedOn","type":"string"},{"internalType":"string","name":"_dischargedOn","type":"string"},{"internalType":"string","name":"_ipfs","type":"string"}],"name":"addRecord","outputs":[],"stateMutability":"nonpayable","type":"function"},{"inputs":[{"internalType":"uint256","name":"","type":"uint256"}],"name":"doctorList","outputs":[{"internalType":"address","name":"","type":"address"}],"stateMutability":"view","type":"function"},{"inputs":[{"internalType":"address","name":"_addr","type":"address"}],"name":"getDoctorByAddress","outputs":[{"internalType":"uint256","name":"id","type":"uint256"},{"internalType":"string","name":"_doc_name","type":"string"},{"internalType":"string","name":"_doc_contact","type":"string"},{"internalType":"string","name":"_doc_specialisation","type":"string"},{"internalType":"string","name":"_doc_address","type":"string"},{"internalType":"address","name":"_doc_addr","type":"address"},{"internalType":"bool","name":"isVerified","type":"bool"}],"stateMutability":"view","type":"function"},{"inputs":[{"internalType":"uint256","name":"_id","type":"uint256"}],"name":"getDoctorById","outputs":[{"internalType":"uint256","name":"id","type":"uint256"},{"internalType":"string","name":"_doc_name","type":"string"},{"internalType":"string","name":"_doc_contact","type":"string"},{"internalType":"string","name":"_doc_specialisation","type":"string"},{"internalType":"string","name":"_doc_address","type":"string"},{"internalType":"address","name":"_doc_addr","type":"address"},{"internalType":"bool","name":"isVerified","type":"bool"}],"stateMutability":"view","type":"function"},{"inputs":[{"internalType":"address","name":"_addr","type":"address"}],"name":"getPatientDetails","outputs":[{"internalType":"string","name":"_name","type":"string"},{"internalType":"string","name":"_phone","type":"string"},{"internalType":"string","name":"_gender","type":"string"},{"internalType":"string","name":"_dob","type":"string"},{"internalType":"string","name":"_bloodgroup","type":"string"},{"internalType":"string","name":"_allergies","type":"string"}],"stateMutability":"view","type":"function"},{"inputs":[{"internalType":"address","name":"_addr","type":"address"}],"name":"getPatientRecords","outputs":[{"internalType":"string[]","name":"_hname","type":"string[]"},{"internalType":"string[]","name":"_reason","type":"string[]"},{"internalType":"string[]","name":"_admittedOn","type":"string[]"},{"internalType":"string[]","name":"_dischargedOn","type":"string[]"},{"internalType":"string[]","name":"ipfs","type":"string[]"}],"stateMutability":"view","type":"function"},{"inputs":[],"name":"index","outputs":[{"internalType":"uint256","name":"","type":"uint256"}],"stateMutability":"view","type":"function"},{"inputs":[],"name":"manager","outputs":[{"internalType":"address","name":"","type":"address"}],"stateMutability":"view","type":"function"},{"inputs":[],"name":"patient_index","outputs":[{"internalType":"uint256","name":"","type":"uint256"}],"stateMutability":"view","type":"function"},{"inputs":[{"internalType":"address","name":"_address","type":"address"}],"name":"removeAdmin","outputs":[{"internalType":"bool","name":"success","type":"bool"}],"stateMutability":"nonpayable","type":"function"},{"inputs":[{"internalType":"address","name":"_from","type":"address"},{"internalType":"address","name":"_to","type":"address"}],"name":"removeAuthFromTo","outputs":[{"internalType":"bool","name":"success","type":"bool"}],"stateMutability":"nonpayable","type":"function"},{"inputs":[{"internalType":"address","name":"_addr","type":"address"}],"name":"revokeAuth","outputs":[{"internalType":"bool","name":"success","type":"bool"}],"stateMutability":"nonpayable","type":"function"},{"inputs":[{"internalType":"address","name":"_addr","type":"address"}],"name":"setManager","outputs":[{"internalType":"bool","name":"success","type":"bool"}],"stateMutability":"nonpayable","type":"function"}],"devdoc":{"kind":"dev","methods":{},"version":1},"evm":{"assembly":"    /* \"PatientFile.sol\":4052:9578  contract PatientContract is DoctorContract{... */\n  mstore(0x40, 0x80)\n    /* \"PatientFile.sol\":4608:4609  0 */\n  0x00\n    /* \"PatientFile.sol\":4577:4609  uint256 public patient_index = 0 */\n  0x06\n  sstore\n    /* \"PatientFile.sol\":4052:9578  contract PatientContract is DoctorContract{... */\n  callvalue\n  dup1\n  iszero\n  tag_1\n  jumpi\n  0x00\n  dup1\n  revert\ntag_1:\n  pop\n    /* \"PatientFile.sol\":449:459  msg.sender */\n  caller\n    /* \"PatientFile.sol\":439:446  manager */\n  0x00\n  dup1\n    /* \"PatientFile.sol\":439:459  manager = msg.sender */\n  0x0100\n  exp\n  dup2\n  sload\n  dup2\n  0xffffffffffffffffffffffffffffffffffffffff\n  mul\n  not\n  and\n  swap1\n  dup4\n  0xffffffffffffffffffffffffffffffffffffffff\n  and\n  mul\n  or\n  swap1\n  sstore\n  pop\n    /* \"PatientFile.sol\":492:496  true */\n  0x01\n    /* \"PatientFile.sol\":470:477  isAdmin */\n  dup1\n    /* \"PatientFile.sol\":470:489  isAdmin[msg.sender] */\n  0x00\n    /* \"PatientFile.sol\":478:488  msg.sender */\n  caller\n    /* \"PatientFile.sol\":470:489  isAdmin[msg.sender] */\n  0xffffffffffffffffffffffffffffffffffffffff\n  and\n  0xffffffffffffffffffffffffffffffffffffffff\n  and\n  dup2\n  mstore\n  0x20\n  add\n  swap1\n  dup2\n  mstore\n  0x20\n  add\n  0x00\n  keccak256\n  0x00\n    /* \"PatientFile.sol\":470:496  isAdmin[msg.sender] = true */\n  0x0100\n  exp\n  dup2\n  sload\n  dup2\n  0xff\n  mul\n  not\n  and\n  swap1\n  dup4\n  iszero\n  iszero\n  mul\n  or\n  swap1\n  sstore\n  pop\n    /* \"PatientFile.sol\":4052:9578  contract PatientContract is DoctorContract{... */\n  dataSize(sub_0)\n  dup1\n  dataOffset(sub_0)\n  0x00\n  codecopy\n  0x00\n  return\nstop\n\nsub_0: assembly {\n        /* \"PatientFile.sol\":4052:9578  contract PatientContract is DoctorContract{... */\n      mstore(0x40, 0x80)\n      callvalue\n      dup1\n      iszero\n      tag_1\n      jumpi\n      0x00\n      dup1\n      revert\n    tag_1:\n      pop\n      jumpi(tag_2, lt(calldatasize, 0x04))\n      shr(0xe0, calldataload(0x00))\n      dup1\n      0x70480275\n      gt\n      tag_21\n      jumpi\n      dup1\n      0xd0ebdbe7\n      gt\n      tag_22\n      jumpi\n      dup1\n      0xd0ebdbe7\n      eq\n      tag_16\n      jumpi\n      dup1\n      0xe0d23e11\n      eq\n      tag_17\n      jumpi\n      dup1\n      0xef264a21\n      eq\n      tag_18\n      jumpi\n      dup1\n      0xefe2ccc1\n      eq\n      tag_19\n      jumpi\n      dup1\n      0xf8171dfa\n      eq\n      tag_20\n      jumpi\n      jump(tag_2)\n    tag_22:\n      dup1\n      0x70480275\n      eq\n      tag_12\n      jumpi\n      dup1\n      0x91e58375\n      eq\n      tag_13\n      jumpi\n      dup1\n      0xa4f3cc23\n      eq\n      tag_14\n      jumpi\n      dup1\n      0xb20a8033\n      eq\n      tag_15\n      jumpi\n      jump(tag_2)\n    tag_21:\n      dup1\n      0x2986c0e5\n      gt\n      tag_23\n      jumpi\n      dup1\n      0x2986c0e5\n      eq\n      tag_7\n      jumpi\n      dup1\n      0x46fc6563\n      eq\n      tag_8\n      jumpi\n      dup1\n      0x481c6a75\n      eq\n      tag_9\n      jumpi\n      dup1\n      0x5422224e\n      eq\n      tag_10\n      jumpi\n      dup1\n      0x58c5d4bf\n      eq\n      tag_11\n      jumpi\n      jump(tag_2)\n    tag_23:\n      dup1\n      0x0c3c45a0\n      eq\n      tag_3\n      jumpi\n      dup1\n      0x127ca4b4\n      eq\n      tag_4\n      jumpi\n      dup1\n      0x1785f53c\n      eq\n      tag_5\n      jumpi\n      dup1\n      0x18bd4847\n      eq\n      tag_6\n      jumpi\n    tag_2:\n      0x00\n      dup1\n      revert\n        /* \"PatientFile.sol\":9160:9570  function removeAuthFromTo(address _from,address _to) public returns(bool success) {... */\n    tag_3:\n      tag_24\n      0x04\n      dup1\n      calldatasize\n      sub\n      dup2\n      add\n      swap1\n      tag_25\n      swap2\n      swap1\n      tag_26\n      jump\t// in\n    tag_25:\n      tag_27\n      jump\t// in\n    tag_24:\n      mload(0x40)\n      tag_28\n      swap2\n      swap1\n      tag_29\n      jump\t// in\n    tag_28:\n      mload(0x40)\n      dup1\n      swap2\n      sub\n      swap1\n      return\n        /* \"PatientFile.sol\":2062:2089  address[] public doctorList */\n    tag_4:\n      tag_30\n      0x04\n      dup1\n      calldatasize\n      sub\n      dup2\n      add\n      swap1\n      tag_31\n      swap2\n      swap1\n      tag_32\n      jump\t// in\n    tag_31:\n      tag_33\n      jump\t// in\n    tag_30:\n      mload(0x40)\n      tag_34\n      swap2\n      swap1\n      tag_35\n      jump\t// in\n    tag_34:\n      mload(0x40)\n      dup1\n      swap2\n      sub\n      swap1\n      return\n        /* \"PatientFile.sol\":1292:1607  function removeAdmin(address _address) public onlyManager returns(bool success){... */\n    tag_5:\n      tag_36\n      0x04\n      dup1\n      calldatasize\n      sub\n      dup2\n      add\n      swap1\n      tag_37\n      swap2\n      swap1\n      tag_38\n      jump\t// in\n    tag_37:\n      tag_39\n      jump\t// in\n    tag_36:\n      mload(0x40)\n      tag_40\n      swap2\n      swap1\n      tag_29\n      jump\t// in\n    tag_40:\n      mload(0x40)\n      dup1\n      swap2\n      sub\n      swap1\n      return\n        /* \"PatientFile.sol\":6721:7969  function getPatientRecords(address _addr) public view returns(string[] memory _hname,string[] memory _reason,string[] memory _admittedOn,string[] memory _dischargedOn,string[] memory ipfs){... */\n    tag_6:\n      tag_41\n      0x04\n      dup1\n      calldatasize\n      sub\n      dup2\n      add\n      swap1\n      tag_42\n      swap2\n      swap1\n      tag_38\n      jump\t// in\n    tag_42:\n      tag_43\n      jump\t// in\n    tag_41:\n      mload(0x40)\n      tag_44\n      swap6\n      swap5\n      swap4\n      swap3\n      swap2\n      swap1\n      tag_45\n      jump\t// in\n    tag_44:\n      mload(0x40)\n      dup1\n      swap2\n      sub\n      swap1\n      return\n        /* \"PatientFile.sol\":1710:1730  uint256 public index */\n    tag_7:\n      tag_46\n      tag_47\n      jump\t// in\n    tag_46:\n      mload(0x40)\n      tag_48\n      swap2\n      swap1\n      tag_49\n      jump\t// in\n    tag_48:\n      mload(0x40)\n      dup1\n      swap2\n      sub\n      swap1\n      return\n        /* \"PatientFile.sol\":4577:4609  uint256 public patient_index = 0 */\n    tag_8:\n      tag_50\n      tag_51\n      jump\t// in\n    tag_50:\n      mload(0x40)\n      tag_52\n      swap2\n      swap1\n      tag_49\n      jump\t// in\n    tag_52:\n      mload(0x40)\n      dup1\n      swap2\n      sub\n      swap1\n      return\n        /* \"PatientFile.sol\":154:176  address public manager */\n    tag_9:\n      tag_53\n      tag_54\n      jump\t// in\n    tag_53:\n      mload(0x40)\n      tag_55\n      swap2\n      swap1\n      tag_35\n      jump\t// in\n    tag_55:\n      mload(0x40)\n      dup1\n      swap2\n      sub\n      swap1\n      return\n        /* \"PatientFile.sol\":8025:8286  function addAuth(address _addr) public returns(bool success){... */\n    tag_10:\n      tag_56\n      0x04\n      dup1\n      calldatasize\n      sub\n      dup2\n      add\n      swap1\n      tag_57\n      swap2\n      swap1\n      tag_38\n      jump\t// in\n    tag_57:\n      tag_58\n      jump\t// in\n    tag_56:\n      mload(0x40)\n      tag_59\n      swap2\n      swap1\n      tag_29\n      jump\t// in\n    tag_59:\n      mload(0x40)\n      dup1\n      swap2\n      sub\n      swap1\n      return\n        /* \"PatientFile.sol\":3529:3999  function getDoctorByAddress(address _addr) public view returns(uint256 id,string memory _doc_name,string memory _doc_contact,string memory _doc_specialisation,string memory _doc_address,address _doc_addr,bool isVerified){... */\n    tag_11:\n      tag_60\n      0x04\n      dup1\n      calldatasize\n      sub\n      dup2\n      add\n      swap1\n      tag_61\n      swap2\n      swap1\n      tag_38\n      jump\t// in\n    tag_61:\n      tag_62\n      jump\t// in\n    tag_60:\n      mload(0x40)\n      tag_63\n      swap8\n      swap7\n      swap6\n      swap5\n      swap4\n      swap3\n      swap2\n      swap1\n      tag_64\n      jump\t// in\n    tag_63:\n      mload(0x40)\n      dup1\n      swap2\n      sub\n      swap1\n      return\n        /* \"PatientFile.sol\":1044:1286  function addAdmin(address _address) public onlyManager returns(bool success){... */\n    tag_12:\n      tag_65\n      0x04\n      dup1\n      calldatasize\n      sub\n      dup2\n      add\n      swap1\n      tag_66\n      swap2\n      swap1\n      tag_38\n      jump\t// in\n    tag_66:\n      tag_67\n      jump\t// in\n    tag_65:\n      mload(0x40)\n      tag_68\n      swap2\n      swap1\n      tag_29\n      jump\t// in\n    tag_68:\n      mload(0x40)\n      dup1\n      swap2\n      sub\n      swap1\n      return\n        /* \"PatientFile.sol\":2832:3476  function getDoctorById(uint256 _id) public view returns(uint256 id,string memory _doc_name,string memory _doc_contact,string memory _doc_specialisation,string memory _doc_address,address _doc_addr,bool isVerified){... */\n    tag_13:\n      tag_69\n      0x04\n      dup1\n      calldatasize\n      sub\n      dup2\n      add\n      swap1\n      tag_70\n      swap2\n      swap1\n      tag_32\n      jump\t// in\n    tag_70:\n      tag_71\n      jump\t// in\n    tag_69:\n      mload(0x40)\n      tag_72\n      swap8\n      swap7\n      swap6\n      swap5\n      swap4\n      swap3\n      swap2\n      swap1\n      tag_64\n      jump\t// in\n    tag_72:\n      mload(0x40)\n      dup1\n      swap2\n      sub\n      swap1\n      return\n        /* \"PatientFile.sol\":4856:5639  function addPatient(string memory _name,string memory _phone,string memory _gender,string memory _dob,string memory _bloodgroup,string memory _allergies) public {... */\n    tag_14:\n      tag_73\n      0x04\n      dup1\n      calldatasize\n      sub\n      dup2\n      add\n      swap1\n      tag_74\n      swap2\n      swap1\n      tag_75\n      jump\t// in\n    tag_74:\n      tag_76\n      jump\t// in\n    tag_73:\n      stop\n        /* \"PatientFile.sol\":2279:2778  function addDoctor(string memory _doc_name,string memory _doc_contact,string memory _doc_specialisation,string memory _doc_address,address _doc_addr) public onlyAdmin returns(bool){... */\n    tag_15:\n      tag_77\n      0x04\n      dup1\n      calldatasize\n      sub\n      dup2\n      add\n      swap1\n      tag_78\n      swap2\n      swap1\n      tag_79\n      jump\t// in\n    tag_78:\n      tag_80\n      jump\t// in\n    tag_77:\n      mload(0x40)\n      tag_81\n      swap2\n      swap1\n      tag_29\n      jump\t// in\n    tag_81:\n      mload(0x40)\n      dup1\n      swap2\n      sub\n      swap1\n      return\n        /* \"PatientFile.sol\":798:1035  function setManager(address _addr) public onlyManager returns(bool success){... */\n    tag_16:\n      tag_82\n      0x04\n      dup1\n      calldatasize\n      sub\n      dup2\n      add\n      swap1\n      tag_83\n      swap2\n      swap1\n      tag_38\n      jump\t// in\n    tag_83:\n      tag_84\n      jump\t// in\n    tag_82:\n      mload(0x40)\n      tag_85\n      swap2\n      swap1\n      tag_29\n      jump\t// in\n    tag_85:\n      mload(0x40)\n      dup1\n      swap2\n      sub\n      swap1\n      return\n        /* \"PatientFile.sol\":8687:9089  function addAuthFromTo(address _from,address _to) public returns(bool success) {... */\n    tag_17:\n      tag_86\n      0x04\n      dup1\n      calldatasize\n      sub\n      dup2\n      add\n      swap1\n      tag_87\n      swap2\n      swap1\n      tag_26\n      jump\t// in\n    tag_87:\n      tag_88\n      jump\t// in\n    tag_86:\n      mload(0x40)\n      tag_89\n      swap2\n      swap1\n      tag_29\n      jump\t// in\n    tag_89:\n      mload(0x40)\n      dup1\n      swap2\n      sub\n      swap1\n      return\n        /* \"PatientFile.sol\":5647:6052  function addRecord(address _addr,string memory _hname,string memory _reason,string memory _admittedOn,string memory _dischargedOn,string memory _ipfs) public{... */\n    tag_18:\n      tag_90\n      0x04\n      dup1\n      calldatasize\n      sub\n      dup2\n      add\n      swap1\n      tag_91\n      swap2\n      swap1\n      tag_92\n      jump\t// in\n    tag_91:\n      tag_93\n      jump\t// in\n    tag_90:\n      stop\n        /* \"PatientFile.sol\":6141:6630  function getPatientDetails(address _addr) public view returns(string memory _name,string memory _phone,string memory _gender,string memory _dob,string memory _bloodgroup,string memory _allergies){... */\n    tag_19:\n      tag_94\n      0x04\n      dup1\n      calldatasize\n      sub\n      dup2\n      add\n      swap1\n      tag_95\n      swap2\n      swap1\n      tag_38\n      jump\t// in\n    tag_95:\n      tag_96\n      jump\t// in\n    tag_94:\n      mload(0x40)\n      tag_97\n      swap7\n      swap6\n      swap5\n      swap4\n      swap3\n      swap2\n      swap1\n      tag_98\n      jump\t// in\n    tag_97:\n      mload(0x40)\n      dup1\n      swap2\n      sub\n      swap1\n      return\n        /* \"PatientFile.sol\":8351:8619  function revokeAuth(address _addr) public returns(bool success) {... */\n    tag_20:\n      tag_99\n      0x04\n      dup1\n      calldatasize\n      sub\n      dup2\n      add\n      swap1\n      tag_100\n      swap2\n      swap1\n      tag_38\n      jump\t// in\n    tag_100:\n      tag_101\n      jump\t// in\n    tag_99:\n      mload(0x40)\n      tag_102\n      swap2\n      swap1\n      tag_29\n      jump\t// in\n    tag_102:\n      mload(0x40)\n      dup1\n      swap2\n      sub\n      swap1\n      return\n        /* \"PatientFile.sol\":9160:9570  function removeAuthFromTo(address _from,address _to) public returns(bool success) {... */\n    tag_27:\n        /* \"PatientFile.sol\":9228:9240  bool success */\n      0x00\n        /* \"PatientFile.sol\":9261:9267  isAuth */\n      0x08\n        /* \"PatientFile.sol\":9261:9274  isAuth[_from] */\n      0x00\n        /* \"PatientFile.sol\":9268:9273  _from */\n      dup5\n        /* \"PatientFile.sol\":9261:9274  isAuth[_from] */\n      0xffffffffffffffffffffffffffffffffffffffff\n      and\n      0xffffffffffffffffffffffffffffffffffffffff\n      and\n      dup2\n      mstore\n      0x20\n      add\n      swap1\n      dup2\n      mstore\n      0x20\n      add\n      0x00\n      keccak256\n        /* \"PatientFile.sol\":9261:9279  isAuth[_from][_to] */\n      0x00\n        /* \"PatientFile.sol\":9275:9278  _to */\n      dup4\n        /* \"PatientFile.sol\":9261:9279  isAuth[_from][_to] */\n      0xffffffffffffffffffffffffffffffffffffffff\n      and\n      0xffffffffffffffffffffffffffffffffffffffff\n      and\n      dup2\n      mstore\n      0x20\n      add\n      swap1\n      dup2\n      mstore\n      0x20\n      add\n      0x00\n      keccak256\n      0x00\n      swap1\n      sload\n      swap1\n      0x0100\n      exp\n      swap1\n      div\n      0xff\n      and\n        /* \"PatientFile.sol\":9253:9301  require(isAuth[_from][_to],\"Already No Auth!!!\") */\n      tag_104\n      jumpi\n      mload(0x40)\n      0x08c379a000000000000000000000000000000000000000000000000000000000\n      dup2\n      mstore\n      0x04\n      add\n      tag_105\n      swap1\n      tag_106\n      jump\t// in\n    tag_105:\n      mload(0x40)\n      dup1\n      swap2\n      sub\n      swap1\n      revert\n    tag_104:\n        /* \"PatientFile.sol\":9327:9330  _to */\n      dup2\n        /* \"PatientFile.sol\":9320:9330  _from!=_to */\n      0xffffffffffffffffffffffffffffffffffffffff\n      and\n        /* \"PatientFile.sol\":9320:9325  _from */\n      dup4\n        /* \"PatientFile.sol\":9320:9330  _from!=_to */\n      0xffffffffffffffffffffffffffffffffffffffff\n      and\n      eq\n      iszero\n        /* \"PatientFile.sol\":9312:9358  require(_from!=_to,\"can't remove same person\") */\n      tag_107\n      jumpi\n      mload(0x40)\n      0x08c379a000000000000000000000000000000000000000000000000000000000\n      dup2\n      mstore\n      0x04\n      add\n      tag_108\n      swap1\n      tag_109\n      jump\t// in\n    tag_108:\n      mload(0x40)\n      dup1\n      swap2\n      sub\n      swap1\n      revert\n    tag_107:\n        /* \"PatientFile.sol\":9377:9383  isAuth */\n      0x08\n        /* \"PatientFile.sol\":9377:9390  isAuth[_from] */\n      0x00\n        /* \"PatientFile.sol\":9384:9389  _from */\n      dup5\n        /* \"PatientFile.sol\":9377:9390  isAuth[_from] */\n      0xffffffffffffffffffffffffffffffffffffffff\n      and\n      0xffffffffffffffffffffffffffffffffffffffff\n      and\n      dup2\n      mstore\n      0x20\n      add\n      swap1\n      dup2\n      mstore\n      0x20\n      add\n      0x00\n      keccak256\n        /* \"PatientFile.sol\":9377:9402  isAuth[_from][msg.sender] */\n      0x00\n        /* \"PatientFile.sol\":9391:9401  msg.sender */\n      caller\n        /* \"PatientFile.sol\":9377:9402  isAuth[_from][msg.sender] */\n      0xffffffffffffffffffffffffffffffffffffffff\n      and\n      0xffffffffffffffffffffffffffffffffffffffff\n      and\n      dup2\n      mstore\n      0x20\n      add\n      swap1\n      dup2\n      mstore\n      0x20\n      add\n      0x00\n      keccak256\n      0x00\n      swap1\n      sload\n      swap1\n      0x0100\n      exp\n      swap1\n      div\n      0xff\n      and\n        /* \"PatientFile.sol\":9369:9441  require(isAuth[_from][msg.sender],\"You don't have permission to access\") */\n      tag_110\n      jumpi\n      mload(0x40)\n      0x08c379a000000000000000000000000000000000000000000000000000000000\n      dup2\n      mstore\n      0x04\n      add\n      tag_111\n      swap1\n      tag_112\n      jump\t// in\n    tag_111:\n      mload(0x40)\n      dup1\n      swap2\n      sub\n      swap1\n      revert\n    tag_110:\n        /* \"PatientFile.sol\":9460:9469  isPatient */\n      0x0a\n        /* \"PatientFile.sol\":9460:9476  isPatient[_from] */\n      0x00\n        /* \"PatientFile.sol\":9470:9475  _from */\n      dup5\n        /* \"PatientFile.sol\":9460:9476  isPatient[_from] */\n      0xffffffffffffffffffffffffffffffffffffffff\n      and\n      0xffffffffffffffffffffffffffffffffffffffff\n      and\n      dup2\n      mstore\n      0x20\n      add\n      swap1\n      dup2\n      mstore\n      0x20\n      add\n      0x00\n      keccak256\n      0x00\n      swap1\n      sload\n      swap1\n      0x0100\n      exp\n      swap1\n      div\n      0xff\n      and\n        /* \"PatientFile.sol\":9452:9503  require(isPatient[_from],\"User Not Registered yet\") */\n      tag_113\n      jumpi\n      mload(0x40)\n      0x08c379a000000000000000000000000000000000000000000000000000000000\n      dup2\n      mstore\n      0x04\n      add\n      tag_114\n      swap1\n      tag_115\n      jump\t// in\n    tag_114:\n      mload(0x40)\n      dup1\n      swap2\n      sub\n      swap1\n      revert\n    tag_113:\n        /* \"PatientFile.sol\":9535:9540  false */\n      0x00\n        /* \"PatientFile.sol\":9514:9520  isAuth */\n      0x08\n        /* \"PatientFile.sol\":9514:9527  isAuth[_from] */\n      0x00\n        /* \"PatientFile.sol\":9521:9526  _from */\n      dup6\n        /* \"PatientFile.sol\":9514:9527  isAuth[_from] */\n      0xffffffffffffffffffffffffffffffffffffffff\n      and\n      0xffffffffffffffffffffffffffffffffffffffff\n      and\n      dup2\n      mstore\n      0x20\n      add\n      swap1\n      dup2\n      mstore\n      0x20\n      add\n      0x00\n      keccak256\n        /* \"PatientFile.sol\":9514:9532  isAuth[_from][_to] */\n      0x00\n        /* \"PatientFile.sol\":9528:9531  _to */\n      dup5\n        /* \"PatientFile.sol\":9514:9532  isAuth[_from][_to] */\n      0xffffffffffffffffffffffffffffffffffffffff\n      and\n      0xffffffffffffffffffffffffffffffffffffffff\n      and\n      dup2\n      mstore\n      0x20\n      add\n      swap1\n      dup2\n      mstore\n      0x20\n      add\n      0x00\n      keccak256\n      0x00\n        /* \"PatientFile.sol\":9514:9540  isAuth[_from][_to] = false */\n      0x0100\n      exp\n      dup2\n      sload\n      dup2\n      0xff\n      mul\n      not\n      and\n      swap1\n      dup4\n      iszero\n      iszero\n      mul\n      or\n      swap1\n      sstore\n      pop\n        /* \"PatientFile.sol\":9558:9562  true */\n      0x01\n        /* \"PatientFile.sol\":9551:9562  return true */\n      swap1\n      pop\n        /* \"PatientFile.sol\":9160:9570  function removeAuthFromTo(address _from,address _to) public returns(bool success) {... */\n      swap3\n      swap2\n      pop\n      pop\n      jump\t// out\n        /* \"PatientFile.sol\":2062:2089  address[] public doctorList */\n    tag_33:\n      0x05\n      dup2\n      dup2\n      sload\n      dup2\n      lt\n      tag_116\n      jumpi\n      0x00\n      dup1\n      revert\n    tag_116:\n      swap1\n      0x00\n      mstore\n      keccak256(0x00, 0x20)\n      add\n      0x00\n      swap2\n      pop\n      sload\n      swap1\n      0x0100\n      exp\n      swap1\n      div\n      0xffffffffffffffffffffffffffffffffffffffff\n      and\n      dup2\n      jump\t// out\n        /* \"PatientFile.sol\":1292:1607  function removeAdmin(address _address) public onlyManager returns(bool success){... */\n    tag_39:\n        /* \"PatientFile.sol\":1358:1370  bool success */\n      0x00\n        /* \"PatientFile.sol\":564:574  msg.sender */\n      caller\n        /* \"PatientFile.sol\":553:574  manager == msg.sender */\n      0xffffffffffffffffffffffffffffffffffffffff\n      and\n        /* \"PatientFile.sol\":553:560  manager */\n      0x00\n      dup1\n      sload\n      swap1\n      0x0100\n      exp\n      swap1\n      div\n      0xffffffffffffffffffffffffffffffffffffffff\n      and\n        /* \"PatientFile.sol\":553:574  manager == msg.sender */\n      0xffffffffffffffffffffffffffffffffffffffff\n      and\n      eq\n        /* \"PatientFile.sol\":545:625  require(manager == msg.sender, \"Only Manager has permission to do that action.\") */\n      tag_119\n      jumpi\n      mload(0x40)\n      0x08c379a000000000000000000000000000000000000000000000000000000000\n      dup2\n      mstore\n      0x04\n      add\n      tag_120\n      swap1\n      tag_121\n      jump\t// in\n    tag_120:\n      mload(0x40)\n      dup1\n      swap2\n      sub\n      swap1\n      revert\n    tag_119:\n        /* \"PatientFile.sol\":1400:1407  manager */\n      0x00\n      dup1\n      sload\n      swap1\n      0x0100\n      exp\n      swap1\n      div\n      0xffffffffffffffffffffffffffffffffffffffff\n      and\n        /* \"PatientFile.sol\":1390:1407  _address!=manager */\n      0xffffffffffffffffffffffffffffffffffffffff\n      and\n        /* \"PatientFile.sol\":1390:1398  _address */\n      dup3\n        /* \"PatientFile.sol\":1390:1407  _address!=manager */\n      0xffffffffffffffffffffffffffffffffffffffff\n      and\n      eq\n      iszero\n        /* \"PatientFile.sol\":1382:1440  require(_address!=manager,\"Can't remove owner from admin\") */\n      tag_123\n      jumpi\n      mload(0x40)\n      0x08c379a000000000000000000000000000000000000000000000000000000000\n      dup2\n      mstore\n      0x04\n      add\n      tag_124\n      swap1\n      tag_125\n      jump\t// in\n    tag_124:\n      mload(0x40)\n      dup1\n      swap2\n      sub\n      swap1\n      revert\n    tag_123:\n        /* \"PatientFile.sol\":1459:1466  isAdmin */\n      0x01\n        /* \"PatientFile.sol\":1459:1476  isAdmin[_address] */\n      0x00\n        /* \"PatientFile.sol\":1467:1475  _address */\n      dup4\n        /* \"PatientFile.sol\":1459:1476  isAdmin[_address] */\n      0xffffffffffffffffffffffffffffffffffffffff\n      and\n      0xffffffffffffffffffffffffffffffffffffffff\n      and\n      dup2\n      mstore\n      0x20\n      add\n      swap1\n      dup2\n      mstore\n      0x20\n      add\n      0x00\n      keccak256\n      0x00\n      swap1\n      sload\n      swap1\n      0x0100\n      exp\n      swap1\n      div\n      0xff\n      and\n        /* \"PatientFile.sol\":1451:1505  require(isAdmin[_address],\"User not admin already!!!\") */\n      tag_126\n      jumpi\n      mload(0x40)\n      0x08c379a000000000000000000000000000000000000000000000000000000000\n      dup2\n      mstore\n      0x04\n      add\n      tag_127\n      swap1\n      tag_128\n      jump\t// in\n    tag_127:\n      mload(0x40)\n      dup1\n      swap2\n      sub\n      swap1\n      revert\n    tag_126:\n        /* \"PatientFile.sol\":1534:1539  false */\n      0x00\n        /* \"PatientFile.sol\":1516:1523  isAdmin */\n      0x01\n        /* \"PatientFile.sol\":1516:1533  isAdmin[_address] */\n      0x00\n        /* \"PatientFile.sol\":1524:1532  _address */\n      dup5\n        /* \"PatientFile.sol\":1516:1533  isAdmin[_address] */\n      0xffffffffffffffffffffffffffffffffffffffff\n      and\n      0xffffffffffffffffffffffffffffffffffffffff\n      and\n      dup2\n      mstore\n      0x20\n      add\n      swap1\n      dup2\n      mstore\n      0x20\n      add\n      0x00\n      keccak256\n      0x00\n        /* \"PatientFile.sol\":1516:1539  isAdmin[_address]=false */\n      0x0100\n      exp\n      dup2\n      sload\n      dup2\n      0xff\n      mul\n      not\n      and\n      swap1\n      dup4\n      iszero\n      iszero\n      mul\n      or\n      swap1\n      sstore\n      pop\n        /* \"PatientFile.sol\":1568:1576  _address */\n      dup2\n        /* \"PatientFile.sol\":1555:1577  AdminRemoved(_address) */\n      0xffffffffffffffffffffffffffffffffffffffff\n      and\n      0xa3b62bc36326052d97ea62d63c3d60308ed4c3ea8ac079dd8499f1e9c4f80c0f\n      mload(0x40)\n      mload(0x40)\n      dup1\n      swap2\n      sub\n      swap1\n      log2\n        /* \"PatientFile.sol\":1595:1599  true */\n      0x01\n        /* \"PatientFile.sol\":1588:1599  return true */\n      swap1\n      pop\n        /* \"PatientFile.sol\":1292:1607  function removeAdmin(address _address) public onlyManager returns(bool success){... */\n      swap2\n      swap1\n      pop\n      jump\t// out\n        /* \"PatientFile.sol\":6721:7969  function getPatientRecords(address _addr) public view returns(string[] memory _hname,string[] memory _reason,string[] memory _admittedOn,string[] memory _dischargedOn,string[] memory ipfs){... */\n    tag_43:\n        /* \"PatientFile.sol\":6783:6805  string[] memory _hname */\n      0x60\n        /* \"PatientFile.sol\":6806:6829  string[] memory _reason */\n      dup1\n        /* \"PatientFile.sol\":6830:6857  string[] memory _admittedOn */\n      0x60\n        /* \"PatientFile.sol\":6858:6887  string[] memory _dischargedOn */\n      dup1\n        /* \"PatientFile.sol\":6888:6908  string[] memory ipfs */\n      0x60\n        /* \"PatientFile.sol\":6928:6934  isAuth */\n      0x08\n        /* \"PatientFile.sol\":6928:6941  isAuth[_addr] */\n      0x00\n        /* \"PatientFile.sol\":6935:6940  _addr */\n      dup8\n        /* \"PatientFile.sol\":6928:6941  isAuth[_addr] */\n      0xffffffffffffffffffffffffffffffffffffffff\n      and\n      0xffffffffffffffffffffffffffffffffffffffff\n      and\n      dup2\n      mstore\n      0x20\n      add\n      swap1\n      dup2\n      mstore\n      0x20\n      add\n      0x00\n      keccak256\n        /* \"PatientFile.sol\":6928:6953  isAuth[_addr][msg.sender] */\n      0x00\n        /* \"PatientFile.sol\":6942:6952  msg.sender */\n      caller\n        /* \"PatientFile.sol\":6928:6953  isAuth[_addr][msg.sender] */\n      0xffffffffffffffffffffffffffffffffffffffff\n      and\n      0xffffffffffffffffffffffffffffffffffffffff\n      and\n      dup2\n      mstore\n      0x20\n      add\n      swap1\n      dup2\n      mstore\n      0x20\n      add\n      0x00\n      keccak256\n      0x00\n      swap1\n      sload\n      swap1\n      0x0100\n      exp\n      swap1\n      div\n      0xff\n      and\n        /* \"PatientFile.sol\":6920:6985  require(isAuth[_addr][msg.sender],\"No permission to get Records\") */\n      tag_130\n      jumpi\n      mload(0x40)\n      0x08c379a000000000000000000000000000000000000000000000000000000000\n      dup2\n      mstore\n      0x04\n      add\n      tag_131\n      swap1\n      tag_132\n      jump\t// in\n    tag_131:\n      mload(0x40)\n      dup1\n      swap2\n      sub\n      swap1\n      revert\n    tag_130:\n        /* \"PatientFile.sol\":7004:7013  isPatient */\n      0x0a\n        /* \"PatientFile.sol\":7004:7020  isPatient[_addr] */\n      0x00\n        /* \"PatientFile.sol\":7014:7019  _addr */\n      dup8\n        /* \"PatientFile.sol\":7004:7020  isPatient[_addr] */\n      0xffffffffffffffffffffffffffffffffffffffff\n      and\n      0xffffffffffffffffffffffffffffffffffffffff\n      and\n      dup2\n      mstore\n      0x20\n      add\n      swap1\n      dup2\n      mstore\n      0x20\n      add\n      0x00\n      keccak256\n      0x00\n      swap1\n      sload\n      swap1\n      0x0100\n      exp\n      swap1\n      div\n      0xff\n      and\n        /* \"PatientFile.sol\":6996:7060  require(isPatient[_addr],\"patient not signed in to our network\") */\n      tag_133\n      jumpi\n      mload(0x40)\n      0x08c379a000000000000000000000000000000000000000000000000000000000\n      dup2\n      mstore\n      0x04\n      add\n      tag_134\n      swap1\n      tag_135\n      jump\t// in\n    tag_134:\n      mload(0x40)\n      dup1\n      swap2\n      sub\n      swap1\n      revert\n    tag_133:\n        /* \"PatientFile.sol\":7110:7111  0 */\n      0x00\n        /* \"PatientFile.sol\":7079:7087  patients */\n      0x09\n        /* \"PatientFile.sol\":7079:7094  patients[_addr] */\n      0x00\n        /* \"PatientFile.sol\":7088:7093  _addr */\n      dup9\n        /* \"PatientFile.sol\":7079:7094  patients[_addr] */\n      0xffffffffffffffffffffffffffffffffffffffff\n      and\n      0xffffffffffffffffffffffffffffffffffffffff\n      and\n      dup2\n      mstore\n      0x20\n      add\n      swap1\n      dup2\n      mstore\n      0x20\n      add\n      0x00\n      keccak256\n        /* \"PatientFile.sol\":7079:7102  patients[_addr].records */\n      0x07\n      add\n        /* \"PatientFile.sol\":7079:7109  patients[_addr].records.length */\n      dup1\n      sload\n      swap1\n      pop\n        /* \"PatientFile.sol\":7079:7111  patients[_addr].records.length>0 */\n      gt\n        /* \"PatientFile.sol\":7071:7143  require(patients[_addr].records.length>0,\"patient record doesn't exist\") */\n      tag_136\n      jumpi\n      mload(0x40)\n      0x08c379a000000000000000000000000000000000000000000000000000000000\n      dup2\n      mstore\n      0x04\n      add\n      tag_137\n      swap1\n      tag_138\n      jump\t// in\n    tag_137:\n      mload(0x40)\n      dup1\n      swap2\n      sub\n      swap1\n      revert\n    tag_136:\n        /* \"PatientFile.sol\":7154:7175  string[] memory Hname */\n      0x00\n        /* \"PatientFile.sol\":7191:7199  patients */\n      0x09\n        /* \"PatientFile.sol\":7191:7206  patients[_addr] */\n      0x00\n        /* \"PatientFile.sol\":7200:7205  _addr */\n      dup9\n        /* \"PatientFile.sol\":7191:7206  patients[_addr] */\n      0xffffffffffffffffffffffffffffffffffffffff\n      and\n      0xffffffffffffffffffffffffffffffffffffffff\n      and\n      dup2\n      mstore\n      0x20\n      add\n      swap1\n      dup2\n      mstore\n      0x20\n      add\n      0x00\n      keccak256\n        /* \"PatientFile.sol\":7191:7214  patients[_addr].records */\n      0x07\n      add\n        /* \"PatientFile.sol\":7191:7221  patients[_addr].records.length */\n      dup1\n      sload\n      swap1\n      pop\n        /* \"PatientFile.sol\":7178:7222  new string[](patients[_addr].records.length) */\n      0xffffffffffffffff\n      dup2\n      gt\n      iszero\n      tag_139\n      jumpi\n      tag_140\n      tag_141\n      jump\t// in\n    tag_140:\n    tag_139:\n      mload(0x40)\n      swap1\n      dup1\n      dup3\n      mstore\n      dup1\n      0x20\n      mul\n      0x20\n      add\n      dup3\n      add\n      0x40\n      mstore\n      dup1\n      iszero\n      tag_142\n      jumpi\n      dup2\n      0x20\n      add\n    tag_143:\n      0x60\n      dup2\n      mstore\n      0x20\n      add\n      swap1\n      0x01\n      swap1\n      sub\n      swap1\n      dup2\n      tag_143\n      jumpi\n      swap1\n      pop\n    tag_142:\n      pop\n        /* \"PatientFile.sol\":7154:7222  string[] memory Hname = new string[](patients[_addr].records.length) */\n      swap1\n      pop\n        /* \"PatientFile.sol\":7233:7255  string[] memory Reason */\n      0x00\n        /* \"PatientFile.sol\":7271:7279  patients */\n      0x09\n        /* \"PatientFile.sol\":7271:7286  patients[_addr] */\n      0x00\n        /* \"PatientFile.sol\":7280:7285  _addr */\n      dup10\n        /* \"PatientFile.sol\":7271:7286  patients[_addr] */\n      0xffffffffffffffffffffffffffffffffffffffff\n      and\n      0xffffffffffffffffffffffffffffffffffffffff\n      and\n      dup2\n      mstore\n      0x20\n      add\n      swap1\n      dup2\n      mstore\n      0x20\n      add\n      0x00\n      keccak256\n        /* \"PatientFile.sol\":7271:7294  patients[_addr].records */\n      0x07\n      add\n        /* \"PatientFile.sol\":7271:7301  patients[_addr].records.length */\n      dup1\n      sload\n      swap1\n      pop\n        /* \"PatientFile.sol\":7258:7302  new string[](patients[_addr].records.length) */\n      0xffffffffffffffff\n      dup2\n      gt\n      iszero\n      tag_144\n      jumpi\n      tag_145\n      tag_141\n      jump\t// in\n    tag_145:\n    tag_144:\n      mload(0x40)\n      swap1\n      dup1\n      dup3\n      mstore\n      dup1\n      0x20\n      mul\n      0x20\n      add\n      dup3\n      add\n      0x40\n      mstore\n      dup1\n      iszero\n      tag_146\n      jumpi\n      dup2\n      0x20\n      add\n    tag_147:\n      0x60\n      dup2\n      mstore\n      0x20\n      add\n      swap1\n      0x01\n      swap1\n      sub\n      swap1\n      dup2\n      tag_147\n      jumpi\n      swap1\n      pop\n    tag_146:\n      pop\n        /* \"PatientFile.sol\":7233:7302  string[] memory Reason = new string[](patients[_addr].records.length) */\n      swap1\n      pop\n        /* \"PatientFile.sol\":7313:7334  string[] memory AdmOn */\n      0x00\n        /* \"PatientFile.sol\":7350:7358  patients */\n      0x09\n        /* \"PatientFile.sol\":7350:7365  patients[_addr] */\n      0x00\n        /* \"PatientFile.sol\":7359:7364  _addr */\n      dup11\n        /* \"PatientFile.sol\":7350:7365  patients[_addr] */\n      0xffffffffffffffffffffffffffffffffffffffff\n      and\n      0xffffffffffffffffffffffffffffffffffffffff\n      and\n      dup2\n      mstore\n      0x20\n      add\n      swap1\n      dup2\n      mstore\n      0x20\n      add\n      0x00\n      keccak256\n        /* \"PatientFile.sol\":7350:7373  patients[_addr].records */\n      0x07\n      add\n        /* \"PatientFile.sol\":7350:7380  patients[_addr].records.length */\n      dup1\n      sload\n      swap1\n      pop\n        /* \"PatientFile.sol\":7337:7381  new string[](patients[_addr].records.length) */\n      0xffffffffffffffff\n      dup2\n      gt\n      iszero\n      tag_148\n      jumpi\n      tag_149\n      tag_141\n      jump\t// in\n    tag_149:\n    tag_148:\n      mload(0x40)\n      swap1\n      dup1\n      dup3\n      mstore\n      dup1\n      0x20\n      mul\n      0x20\n      add\n      dup3\n      add\n      0x40\n      mstore\n      dup1\n      iszero\n      tag_150\n      jumpi\n      dup2\n      0x20\n      add\n    tag_151:\n      0x60\n      dup2\n      mstore\n      0x20\n      add\n      swap1\n      0x01\n      swap1\n      sub\n      swap1\n      dup2\n      tag_151\n      jumpi\n      swap1\n      pop\n    tag_150:\n      pop\n        /* \"PatientFile.sol\":7313:7381  string[] memory AdmOn = new string[](patients[_addr].records.length) */\n      swap1\n      pop\n        /* \"PatientFile.sol\":7392:7413  string[] memory DisOn */\n      0x00\n        /* \"PatientFile.sol\":7429:7437  patients */\n      0x09\n        /* \"PatientFile.sol\":7429:7444  patients[_addr] */\n      0x00\n        /* \"PatientFile.sol\":7438:7443  _addr */\n      dup12\n        /* \"PatientFile.sol\":7429:7444  patients[_addr] */\n      0xffffffffffffffffffffffffffffffffffffffff\n      and\n      0xffffffffffffffffffffffffffffffffffffffff\n      and\n      dup2\n      mstore\n      0x20\n      add\n      swap1\n      dup2\n      mstore\n      0x20\n      add\n      0x00\n      keccak256\n        /* \"PatientFile.sol\":7429:7452  patients[_addr].records */\n      0x07\n      add\n        /* \"PatientFile.sol\":7429:7459  patients[_addr].records.length */\n      dup1\n      sload\n      swap1\n      pop\n        /* \"PatientFile.sol\":7416:7460  new string[](patients[_addr].records.length) */\n      0xffffffffffffffff\n      dup2\n      gt\n      iszero\n      tag_152\n      jumpi\n      tag_153\n      tag_141\n      jump\t// in\n    tag_153:\n    tag_152:\n      mload(0x40)\n      swap1\n      dup1\n      dup3\n      mstore\n      dup1\n      0x20\n      mul\n      0x20\n      add\n      dup3\n      add\n      0x40\n      mstore\n      dup1\n      iszero\n      tag_154\n      jumpi\n      dup2\n      0x20\n      add\n    tag_155:\n      0x60\n      dup2\n      mstore\n      0x20\n      add\n      swap1\n      0x01\n      swap1\n      sub\n      swap1\n      dup2\n      tag_155\n      jumpi\n      swap1\n      pop\n    tag_154:\n      pop\n        /* \"PatientFile.sol\":7392:7460  string[] memory DisOn = new string[](patients[_addr].records.length) */\n      swap1\n      pop\n        /* \"PatientFile.sol\":7471:7491  string[] memory IPFS */\n      0x00\n        /* \"PatientFile.sol\":7507:7515  patients */\n      0x09\n        /* \"PatientFile.sol\":7507:7522  patients[_addr] */\n      0x00\n        /* \"PatientFile.sol\":7516:7521  _addr */\n      dup13\n        /* \"PatientFile.sol\":7507:7522  patients[_addr] */\n      0xffffffffffffffffffffffffffffffffffffffff\n      and\n      0xffffffffffffffffffffffffffffffffffffffff\n      and\n      dup2\n      mstore\n      0x20\n      add\n      swap1\n      dup2\n      mstore\n      0x20\n      add\n      0x00\n      keccak256\n        /* \"PatientFile.sol\":7507:7530  patients[_addr].records */\n      0x07\n      add\n        /* \"PatientFile.sol\":7507:7537  patients[_addr].records.length */\n      dup1\n      sload\n      swap1\n      pop\n        /* \"PatientFile.sol\":7494:7538  new string[](patients[_addr].records.length) */\n      0xffffffffffffffff\n      dup2\n      gt\n      iszero\n      tag_156\n      jumpi\n      tag_157\n      tag_141\n      jump\t// in\n    tag_157:\n    tag_156:\n      mload(0x40)\n      swap1\n      dup1\n      dup3\n      mstore\n      dup1\n      0x20\n      mul\n      0x20\n      add\n      dup3\n      add\n      0x40\n      mstore\n      dup1\n      iszero\n      tag_158\n      jumpi\n      dup2\n      0x20\n      add\n    tag_159:\n      0x60\n      dup2\n      mstore\n      0x20\n      add\n      swap1\n      0x01\n      swap1\n      sub\n      swap1\n      dup2\n      tag_159\n      jumpi\n      swap1\n      pop\n    tag_158:\n      pop\n        /* \"PatientFile.sol\":7471:7538  string[] memory IPFS = new string[](patients[_addr].records.length) */\n      swap1\n      pop\n        /* \"PatientFile.sol\":7553:7562  uint256 i */\n      0x00\n        /* \"PatientFile.sol\":7549:7914  for(uint256 i=0;i<patients[_addr].records.length;i++){... */\n    tag_160:\n        /* \"PatientFile.sol\":7567:7575  patients */\n      0x09\n        /* \"PatientFile.sol\":7567:7582  patients[_addr] */\n      0x00\n        /* \"PatientFile.sol\":7576:7581  _addr */\n      dup14\n        /* \"PatientFile.sol\":7567:7582  patients[_addr] */\n      0xffffffffffffffffffffffffffffffffffffffff\n      and\n      0xffffffffffffffffffffffffffffffffffffffff\n      and\n      dup2\n      mstore\n      0x20\n      add\n      swap1\n      dup2\n      mstore\n      0x20\n      add\n      0x00\n      keccak256\n        /* \"PatientFile.sol\":7567:7590  patients[_addr].records */\n      0x07\n      add\n        /* \"PatientFile.sol\":7567:7597  patients[_addr].records.length */\n      dup1\n      sload\n      swap1\n      pop\n        /* \"PatientFile.sol\":7565:7566  i */\n      dup2\n        /* \"PatientFile.sol\":7565:7597  i<patients[_addr].records.length */\n      lt\n        /* \"PatientFile.sol\":7549:7914  for(uint256 i=0;i<patients[_addr].records.length;i++){... */\n      iszero\n      tag_161\n      jumpi\n        /* \"PatientFile.sol\":7626:7634  patients */\n      0x09\n        /* \"PatientFile.sol\":7626:7641  patients[_addr] */\n      0x00\n        /* \"PatientFile.sol\":7635:7640  _addr */\n      dup14\n        /* \"PatientFile.sol\":7626:7641  patients[_addr] */\n      0xffffffffffffffffffffffffffffffffffffffff\n      and\n      0xffffffffffffffffffffffffffffffffffffffff\n      and\n      dup2\n      mstore\n      0x20\n      add\n      swap1\n      dup2\n      mstore\n      0x20\n      add\n      0x00\n      keccak256\n        /* \"PatientFile.sol\":7626:7649  patients[_addr].records */\n      0x07\n      add\n        /* \"PatientFile.sol\":7650:7651  i */\n      dup2\n        /* \"PatientFile.sol\":7626:7652  patients[_addr].records[i] */\n      dup2\n      sload\n      dup2\n      lt\n      tag_163\n      jumpi\n      tag_164\n      tag_165\n      jump\t// in\n    tag_164:\n    tag_163:\n      swap1\n      0x00\n      mstore\n      keccak256(0x00, 0x20)\n      swap1\n      0x05\n      mul\n      add\n        /* \"PatientFile.sol\":7626:7666  patients[_addr].records[i].hospital_name */\n      0x00\n      add\n        /* \"PatientFile.sol\":7617:7666  Hname[i]=patients[_addr].records[i].hospital_name */\n      dup1\n      sload\n      tag_167\n      swap1\n      tag_168\n      jump\t// in\n    tag_167:\n      dup1\n      0x1f\n      add\n      0x20\n      dup1\n      swap2\n      div\n      mul\n      0x20\n      add\n      mload(0x40)\n      swap1\n      dup2\n      add\n      0x40\n      mstore\n      dup1\n      swap3\n      swap2\n      swap1\n      dup2\n      dup2\n      mstore\n      0x20\n      add\n      dup3\n      dup1\n      sload\n      tag_169\n      swap1\n      tag_168\n      jump\t// in\n    tag_169:\n      dup1\n      iszero\n      tag_170\n      jumpi\n      dup1\n      0x1f\n      lt\n      tag_171\n      jumpi\n      0x0100\n      dup1\n      dup4\n      sload\n      div\n      mul\n      dup4\n      mstore\n      swap2\n      0x20\n      add\n      swap2\n      jump(tag_170)\n    tag_171:\n      dup3\n      add\n      swap2\n      swap1\n      0x00\n      mstore\n      keccak256(0x00, 0x20)\n      swap1\n    tag_172:\n      dup2\n      sload\n      dup2\n      mstore\n      swap1\n      0x01\n      add\n      swap1\n      0x20\n      add\n      dup1\n      dup4\n      gt\n      tag_172\n      jumpi\n      dup3\n      swap1\n      sub\n      0x1f\n      and\n      dup3\n      add\n      swap2\n    tag_170:\n      pop\n      pop\n      pop\n      pop\n      pop\n        /* \"PatientFile.sol\":7617:7622  Hname */\n      dup7\n        /* \"PatientFile.sol\":7623:7624  i */\n      dup3\n        /* \"PatientFile.sol\":7617:7625  Hname[i] */\n      dup2\n      mload\n      dup2\n      lt\n      tag_173\n      jumpi\n      tag_174\n      tag_165\n      jump\t// in\n    tag_174:\n    tag_173:\n      0x20\n      mul\n      0x20\n      add\n      add\n        /* \"PatientFile.sol\":7617:7666  Hname[i]=patients[_addr].records[i].hospital_name */\n      dup2\n      swap1\n      mstore\n      pop\n        /* \"PatientFile.sol\":7691:7699  patients */\n      0x09\n        /* \"PatientFile.sol\":7691:7706  patients[_addr] */\n      0x00\n        /* \"PatientFile.sol\":7700:7705  _addr */\n      dup14\n        /* \"PatientFile.sol\":7691:7706  patients[_addr] */\n      0xffffffffffffffffffffffffffffffffffffffff\n      and\n      0xffffffffffffffffffffffffffffffffffffffff\n      and\n      dup2\n      mstore\n      0x20\n      add\n      swap1\n      dup2\n      mstore\n      0x20\n      add\n      0x00\n      keccak256\n        /* \"PatientFile.sol\":7691:7714  patients[_addr].records */\n      0x07\n      add\n        /* \"PatientFile.sol\":7715:7716  i */\n      dup2\n        /* \"PatientFile.sol\":7691:7717  patients[_addr].records[i] */\n      dup2\n      sload\n      dup2\n      lt\n      tag_175\n      jumpi\n      tag_176\n      tag_165\n      jump\t// in\n    tag_176:\n    tag_175:\n      swap1\n      0x00\n      mstore\n      keccak256(0x00, 0x20)\n      swap1\n      0x05\n      mul\n      add\n        /* \"PatientFile.sol\":7691:7724  patients[_addr].records[i].reason */\n      0x01\n      add\n        /* \"PatientFile.sol\":7681:7724  Reason[i]=patients[_addr].records[i].reason */\n      dup1\n      sload\n      tag_178\n      swap1\n      tag_168\n      jump\t// in\n    tag_178:\n      dup1\n      0x1f\n      add\n      0x20\n      dup1\n      swap2\n      div\n      mul\n      0x20\n      add\n      mload(0x40)\n      swap1\n      dup2\n      add\n      0x40\n      mstore\n      dup1\n      swap3\n      swap2\n      swap1\n      dup2\n      dup2\n      mstore\n      0x20\n      add\n      dup3\n      dup1\n      sload\n      tag_179\n      swap1\n      tag_168\n      jump\t// in\n    tag_179:\n      dup1\n      iszero\n      tag_180\n      jumpi\n      dup1\n      0x1f\n      lt\n      tag_181\n      jumpi\n      0x0100\n      dup1\n      dup4\n      sload\n      div\n      mul\n      dup4\n      mstore\n      swap2\n      0x20\n      add\n      swap2\n      jump(tag_180)\n    tag_181:\n      dup3\n      add\n      swap2\n      swap1\n      0x00\n      mstore\n      keccak256(0x00, 0x20)\n      swap1\n    tag_182:\n      dup2\n      sload\n      dup2\n      mstore\n      swap1\n      0x01\n      add\n      swap1\n      0x20\n      add\n      dup1\n      dup4\n      gt\n      tag_182\n      jumpi\n      dup3\n      swap1\n      sub\n      0x1f\n      and\n      dup3\n      add\n      swap2\n    tag_180:\n      pop\n      pop\n      pop\n      pop\n      pop\n        /* \"PatientFile.sol\":7681:7687  Reason */\n      dup6\n        /* \"PatientFile.sol\":7688:7689  i */\n      dup3\n        /* \"PatientFile.sol\":7681:7690  Reason[i] */\n      dup2\n      mload\n      dup2\n      lt\n      tag_183\n      jumpi\n      tag_184\n      tag_165\n      jump\t// in\n    tag_184:\n    tag_183:\n      0x20\n      mul\n      0x20\n      add\n      add\n        /* \"PatientFile.sol\":7681:7724  Reason[i]=patients[_addr].records[i].reason */\n      dup2\n      swap1\n      mstore\n      pop\n        /* \"PatientFile.sol\":7748:7756  patients */\n      0x09\n        /* \"PatientFile.sol\":7748:7763  patients[_addr] */\n      0x00\n        /* \"PatientFile.sol\":7757:7762  _addr */\n      dup14\n        /* \"PatientFile.sol\":7748:7763  patients[_addr] */\n      0xffffffffffffffffffffffffffffffffffffffff\n      and\n      0xffffffffffffffffffffffffffffffffffffffff\n      and\n      dup2\n      mstore\n      0x20\n      add\n      swap1\n      dup2\n      mstore\n      0x20\n      add\n      0x00\n      keccak256\n        /* \"PatientFile.sol\":7748:7771  patients[_addr].records */\n      0x07\n      add\n        /* \"PatientFile.sol\":7772:7773  i */\n      dup2\n        /* \"PatientFile.sol\":7748:7774  patients[_addr].records[i] */\n      dup2\n      sload\n      dup2\n      lt\n      tag_185\n      jumpi\n      tag_186\n      tag_165\n      jump\t// in\n    tag_186:\n    tag_185:\n      swap1\n      0x00\n      mstore\n      keccak256(0x00, 0x20)\n      swap1\n      0x05\n      mul\n      add\n        /* \"PatientFile.sol\":7748:7785  patients[_addr].records[i].admittedOn */\n      0x02\n      add\n        /* \"PatientFile.sol\":7739:7785  AdmOn[i]=patients[_addr].records[i].admittedOn */\n      dup1\n      sload\n      tag_188\n      swap1\n      tag_168\n      jump\t// in\n    tag_188:\n      dup1\n      0x1f\n      add\n      0x20\n      dup1\n      swap2\n      div\n      mul\n      0x20\n      add\n      mload(0x40)\n      swap1\n      dup2\n      add\n      0x40\n      mstore\n      dup1\n      swap3\n      swap2\n      swap1\n      dup2\n      dup2\n      mstore\n      0x20\n      add\n      dup3\n      dup1\n      sload\n      tag_189\n      swap1\n      tag_168\n      jump\t// in\n    tag_189:\n      dup1\n      iszero\n      tag_190\n      jumpi\n      dup1\n      0x1f\n      lt\n      tag_191\n      jumpi\n      0x0100\n      dup1\n      dup4\n      sload\n      div\n      mul\n      dup4\n      mstore\n      swap2\n      0x20\n      add\n      swap2\n      jump(tag_190)\n    tag_191:\n      dup3\n      add\n      swap2\n      swap1\n      0x00\n      mstore\n      keccak256(0x00, 0x20)\n      swap1\n    tag_192:\n      dup2\n      sload\n      dup2\n      mstore\n      swap1\n      0x01\n      add\n      swap1\n      0x20\n      add\n      dup1\n      dup4\n      gt\n      tag_192\n      jumpi\n      dup3\n      swap1\n      sub\n      0x1f\n      and\n      dup3\n      add\n      swap2\n    tag_190:\n      pop\n      pop\n      pop\n      pop\n      pop\n        /* \"PatientFile.sol\":7739:7744  AdmOn */\n      dup5\n        /* \"PatientFile.sol\":7745:7746  i */\n      dup3\n        /* \"PatientFile.sol\":7739:7747  AdmOn[i] */\n      dup2\n      mload\n      dup2\n      lt\n      tag_193\n      jumpi\n      tag_194\n      tag_165\n      jump\t// in\n    tag_194:\n    tag_193:\n      0x20\n      mul\n      0x20\n      add\n      add\n        /* \"PatientFile.sol\":7739:7785  AdmOn[i]=patients[_addr].records[i].admittedOn */\n      dup2\n      swap1\n      mstore\n      pop\n        /* \"PatientFile.sol\":7809:7817  patients */\n      0x09\n        /* \"PatientFile.sol\":7809:7824  patients[_addr] */\n      0x00\n        /* \"PatientFile.sol\":7818:7823  _addr */\n      dup14\n        /* \"PatientFile.sol\":7809:7824  patients[_addr] */\n      0xffffffffffffffffffffffffffffffffffffffff\n      and\n      0xffffffffffffffffffffffffffffffffffffffff\n      and\n      dup2\n      mstore\n      0x20\n      add\n      swap1\n      dup2\n      mstore\n      0x20\n      add\n      0x00\n      keccak256\n        /* \"PatientFile.sol\":7809:7832  patients[_addr].records */\n      0x07\n      add\n        /* \"PatientFile.sol\":7833:7834  i */\n      dup2\n        /* \"PatientFile.sol\":7809:7835  patients[_addr].records[i] */\n      dup2\n      sload\n      dup2\n      lt\n      tag_195\n      jumpi\n      tag_196\n      tag_165\n      jump\t// in\n    tag_196:\n    tag_195:\n      swap1\n      0x00\n      mstore\n      keccak256(0x00, 0x20)\n      swap1\n      0x05\n      mul\n      add\n        /* \"PatientFile.sol\":7809:7848  patients[_addr].records[i].dischargedOn */\n      0x03\n      add\n        /* \"PatientFile.sol\":7800:7848  DisOn[i]=patients[_addr].records[i].dischargedOn */\n      dup1\n      sload\n      tag_198\n      swap1\n      tag_168\n      jump\t// in\n    tag_198:\n      dup1\n      0x1f\n      add\n      0x20\n      dup1\n      swap2\n      div\n      mul\n      0x20\n      add\n      mload(0x40)\n      swap1\n      dup2\n      add\n      0x40\n      mstore\n      dup1\n      swap3\n      swap2\n      swap1\n      dup2\n      dup2\n      mstore\n      0x20\n      add\n      dup3\n      dup1\n      sload\n      tag_199\n      swap1\n      tag_168\n      jump\t// in\n    tag_199:\n      dup1\n      iszero\n      tag_200\n      jumpi\n      dup1\n      0x1f\n      lt\n      tag_201\n      jumpi\n      0x0100\n      dup1\n      dup4\n      sload\n      div\n      mul\n      dup4\n      mstore\n      swap2\n      0x20\n      add\n      swap2\n      jump(tag_200)\n    tag_201:\n      dup3\n      add\n      swap2\n      swap1\n      0x00\n      mstore\n      keccak256(0x00, 0x20)\n      swap1\n    tag_202:\n      dup2\n      sload\n      dup2\n      mstore\n      swap1\n      0x01\n      add\n      swap1\n      0x20\n      add\n      dup1\n      dup4\n      gt\n      tag_202\n      jumpi\n      dup3\n      swap1\n      sub\n      0x1f\n      and\n      dup3\n      add\n      swap2\n    tag_200:\n      pop\n      pop\n      pop\n      pop\n      pop\n        /* \"PatientFile.sol\":7800:7805  DisOn */\n      dup4\n        /* \"PatientFile.sol\":7806:7807  i */\n      dup3\n        /* \"PatientFile.sol\":7800:7808  DisOn[i] */\n      dup2\n      mload\n      dup2\n      lt\n      tag_203\n      jumpi\n      tag_204\n      tag_165\n      jump\t// in\n    tag_204:\n    tag_203:\n      0x20\n      mul\n      0x20\n      add\n      add\n        /* \"PatientFile.sol\":7800:7848  DisOn[i]=patients[_addr].records[i].dischargedOn */\n      dup2\n      swap1\n      mstore\n      pop\n        /* \"PatientFile.sol\":7871:7879  patients */\n      0x09\n        /* \"PatientFile.sol\":7871:7886  patients[_addr] */\n      0x00\n        /* \"PatientFile.sol\":7880:7885  _addr */\n      dup14\n        /* \"PatientFile.sol\":7871:7886  patients[_addr] */\n      0xffffffffffffffffffffffffffffffffffffffff\n      and\n      0xffffffffffffffffffffffffffffffffffffffff\n      and\n      dup2\n      mstore\n      0x20\n      add\n      swap1\n      dup2\n      mstore\n      0x20\n      add\n      0x00\n      keccak256\n        /* \"PatientFile.sol\":7871:7894  patients[_addr].records */\n      0x07\n      add\n        /* \"PatientFile.sol\":7895:7896  i */\n      dup2\n        /* \"PatientFile.sol\":7871:7897  patients[_addr].records[i] */\n      dup2\n      sload\n      dup2\n      lt\n      tag_205\n      jumpi\n      tag_206\n      tag_165\n      jump\t// in\n    tag_206:\n    tag_205:\n      swap1\n      0x00\n      mstore\n      keccak256(0x00, 0x20)\n      swap1\n      0x05\n      mul\n      add\n        /* \"PatientFile.sol\":7871:7902  patients[_addr].records[i].ipfs */\n      0x04\n      add\n        /* \"PatientFile.sol\":7863:7902  IPFS[i]=patients[_addr].records[i].ipfs */\n      dup1\n      sload\n      tag_208\n      swap1\n      tag_168\n      jump\t// in\n    tag_208:\n      dup1\n      0x1f\n      add\n      0x20\n      dup1\n      swap2\n      div\n      mul\n      0x20\n      add\n      mload(0x40)\n      swap1\n      dup2\n      add\n      0x40\n      mstore\n      dup1\n      swap3\n      swap2\n      swap1\n      dup2\n      dup2\n      mstore\n      0x20\n      add\n      dup3\n      dup1\n      sload\n      tag_209\n      swap1\n      tag_168\n      jump\t// in\n    tag_209:\n      dup1\n      iszero\n      tag_210\n      jumpi\n      dup1\n      0x1f\n      lt\n      tag_211\n      jumpi\n      0x0100\n      dup1\n      dup4\n      sload\n      div\n      mul\n      dup4\n      mstore\n      swap2\n      0x20\n      add\n      swap2\n      jump(tag_210)\n    tag_211:\n      dup3\n      add\n      swap2\n      swap1\n      0x00\n      mstore\n      keccak256(0x00, 0x20)\n      swap1\n    tag_212:\n      dup2\n      sload\n      dup2\n      mstore\n      swap1\n      0x01\n      add\n      swap1\n      0x20\n      add\n      dup1\n      dup4\n      gt\n      tag_212\n      jumpi\n      dup3\n      swap1\n      sub\n      0x1f\n      and\n      dup3\n      add\n      swap2\n    tag_210:\n      pop\n      pop\n      pop\n      pop\n      pop\n        /* \"PatientFile.sol\":7863:7867  IPFS */\n      dup3\n        /* \"PatientFile.sol\":7868:7869  i */\n      dup3\n        /* \"PatientFile.sol\":7863:7870  IPFS[i] */\n      dup2\n      mload\n      dup2\n      lt\n      tag_213\n      jumpi\n      tag_214\n      tag_165\n      jump\t// in\n    tag_214:\n    tag_213:\n      0x20\n      mul\n      0x20\n      add\n      add\n        /* \"PatientFile.sol\":7863:7902  IPFS[i]=patients[_addr].records[i].ipfs */\n      dup2\n      swap1\n      mstore\n      pop\n        /* \"PatientFile.sol\":7598:7601  i++ */\n      dup1\n      dup1\n      tag_215\n      swap1\n      tag_216\n      jump\t// in\n    tag_215:\n      swap2\n      pop\n      pop\n        /* \"PatientFile.sol\":7549:7914  for(uint256 i=0;i<patients[_addr].records.length;i++){... */\n      jump(tag_160)\n    tag_161:\n      pop\n        /* \"PatientFile.sol\":7931:7936  Hname */\n      dup5\n        /* \"PatientFile.sol\":7937:7943  Reason */\n      dup5\n        /* \"PatientFile.sol\":7944:7949  AdmOn */\n      dup5\n        /* \"PatientFile.sol\":7950:7955  DisOn */\n      dup5\n        /* \"PatientFile.sol\":7956:7960  IPFS */\n      dup5\n        /* \"PatientFile.sol\":7924:7961  return(Hname,Reason,AdmOn,DisOn,IPFS) */\n      swap10\n      pop\n      swap10\n      pop\n      swap10\n      pop\n      swap10\n      pop\n      swap10\n      pop\n      pop\n      pop\n      pop\n      pop\n      pop\n        /* \"PatientFile.sol\":6721:7969  function getPatientRecords(address _addr) public view returns(string[] memory _hname,string[] memory _reason,string[] memory _admittedOn,string[] memory _dischargedOn,string[] memory ipfs){... */\n      swap2\n      swap4\n      swap6\n      swap1\n      swap3\n      swap5\n      pop\n      jump\t// out\n        /* \"PatientFile.sol\":1710:1730  uint256 public index */\n    tag_47:\n      sload(0x02)\n      dup2\n      jump\t// out\n        /* \"PatientFile.sol\":4577:4609  uint256 public patient_index = 0 */\n    tag_51:\n      sload(0x06)\n      dup2\n      jump\t// out\n        /* \"PatientFile.sol\":154:176  address public manager */\n    tag_54:\n      0x00\n      dup1\n      sload\n      swap1\n      0x0100\n      exp\n      swap1\n      div\n      0xffffffffffffffffffffffffffffffffffffffff\n      and\n      dup2\n      jump\t// out\n        /* \"PatientFile.sol\":8025:8286  function addAuth(address _addr) public returns(bool success){... */\n    tag_58:\n        /* \"PatientFile.sol\":8072:8084  bool success */\n      0x00\n        /* \"PatientFile.sol\":8105:8111  isAuth */\n      0x08\n        /* \"PatientFile.sol\":8105:8123  isAuth[msg.sender] */\n      0x00\n        /* \"PatientFile.sol\":8112:8122  msg.sender */\n      caller\n        /* \"PatientFile.sol\":8105:8123  isAuth[msg.sender] */\n      0xffffffffffffffffffffffffffffffffffffffff\n      and\n      0xffffffffffffffffffffffffffffffffffffffff\n      and\n      dup2\n      mstore\n      0x20\n      add\n      swap1\n      dup2\n      mstore\n      0x20\n      add\n      0x00\n      keccak256\n        /* \"PatientFile.sol\":8105:8130  isAuth[msg.sender][_addr] */\n      0x00\n        /* \"PatientFile.sol\":8124:8129  _addr */\n      dup4\n        /* \"PatientFile.sol\":8105:8130  isAuth[msg.sender][_addr] */\n      0xffffffffffffffffffffffffffffffffffffffff\n      and\n      0xffffffffffffffffffffffffffffffffffffffff\n      and\n      dup2\n      mstore\n      0x20\n      add\n      swap1\n      dup2\n      mstore\n      0x20\n      add\n      0x00\n      keccak256\n      0x00\n      swap1\n      sload\n      swap1\n      0x0100\n      exp\n      swap1\n      div\n      0xff\n      and\n        /* \"PatientFile.sol\":8104:8130  !isAuth[msg.sender][_addr] */\n      iszero\n        /* \"PatientFile.sol\":8096:8153  require(!isAuth[msg.sender][_addr],\"Already authorised.\") */\n      tag_218\n      jumpi\n      mload(0x40)\n      0x08c379a000000000000000000000000000000000000000000000000000000000\n      dup2\n      mstore\n      0x04\n      add\n      tag_219\n      swap1\n      tag_220\n      jump\t// in\n    tag_219:\n      mload(0x40)\n      dup1\n      swap2\n      sub\n      swap1\n      revert\n    tag_218:\n        /* \"PatientFile.sol\":8186:8191  _addr */\n      dup2\n        /* \"PatientFile.sol\":8172:8191  msg.sender != _addr */\n      0xffffffffffffffffffffffffffffffffffffffff\n      and\n        /* \"PatientFile.sol\":8172:8182  msg.sender */\n      caller\n        /* \"PatientFile.sol\":8172:8191  msg.sender != _addr */\n      0xffffffffffffffffffffffffffffffffffffffff\n      and\n      eq\n      iszero\n        /* \"PatientFile.sol\":8164:8213  require(msg.sender != _addr,\"Can't add yourself\") */\n      tag_221\n      jumpi\n      mload(0x40)\n      0x08c379a000000000000000000000000000000000000000000000000000000000\n      dup2\n      mstore\n      0x04\n      add\n      tag_222\n      swap1\n      tag_223\n      jump\t// in\n    tag_222:\n      mload(0x40)\n      dup1\n      swap2\n      sub\n      swap1\n      revert\n    tag_221:\n        /* \"PatientFile.sol\":8252:8256  true */\n      0x01\n        /* \"PatientFile.sol\":8224:8230  isAuth */\n      0x08\n        /* \"PatientFile.sol\":8224:8242  isAuth[msg.sender] */\n      0x00\n        /* \"PatientFile.sol\":8231:8241  msg.sender */\n      caller\n        /* \"PatientFile.sol\":8224:8242  isAuth[msg.sender] */\n      0xffffffffffffffffffffffffffffffffffffffff\n      and\n      0xffffffffffffffffffffffffffffffffffffffff\n      and\n      dup2\n      mstore\n      0x20\n      add\n      swap1\n      dup2\n      mstore\n      0x20\n      add\n      0x00\n      keccak256\n        /* \"PatientFile.sol\":8224:8249  isAuth[msg.sender][_addr] */\n      0x00\n        /* \"PatientFile.sol\":8243:8248  _addr */\n      dup5\n        /* \"PatientFile.sol\":8224:8249  isAuth[msg.sender][_addr] */\n      0xffffffffffffffffffffffffffffffffffffffff\n      and\n      0xffffffffffffffffffffffffffffffffffffffff\n      and\n      dup2\n      mstore\n      0x20\n      add\n      swap1\n      dup2\n      mstore\n      0x20\n      add\n      0x00\n      keccak256\n      0x00\n        /* \"PatientFile.sol\":8224:8256  isAuth[msg.sender][_addr] = true */\n      0x0100\n      exp\n      dup2\n      sload\n      dup2\n      0xff\n      mul\n      not\n      and\n      swap1\n      dup4\n      iszero\n      iszero\n      mul\n      or\n      swap1\n      sstore\n      pop\n        /* \"PatientFile.sol\":8274:8278  true */\n      0x01\n        /* \"PatientFile.sol\":8267:8278  return true */\n      swap1\n      pop\n        /* \"PatientFile.sol\":8025:8286  function addAuth(address _addr) public returns(bool success){... */\n      swap2\n      swap1\n      pop\n      jump\t// out\n        /* \"PatientFile.sol\":3529:3999  function getDoctorByAddress(address _addr) public view returns(uint256 id,string memory _doc_name,string memory _doc_contact,string memory _doc_specialisation,string memory _doc_address,address _doc_addr,bool isVerified){... */\n    tag_62:\n        /* \"PatientFile.sol\":3592:3602  uint256 id */\n      0x00\n        /* \"PatientFile.sol\":3603:3626  string memory _doc_name */\n      0x60\n        /* \"PatientFile.sol\":3627:3653  string memory _doc_contact */\n      dup1\n        /* \"PatientFile.sol\":3654:3687  string memory _doc_specialisation */\n      0x60\n        /* \"PatientFile.sol\":3688:3714  string memory _doc_address */\n      dup1\n        /* \"PatientFile.sol\":3715:3732  address _doc_addr */\n      0x00\n        /* \"PatientFile.sol\":3733:3748  bool isVerified */\n      dup1\n        /* \"PatientFile.sol\":3768:3775  doctors */\n      0x04\n        /* \"PatientFile.sol\":3768:3782  doctors[_addr] */\n      0x00\n        /* \"PatientFile.sol\":3776:3781  _addr */\n      dup10\n        /* \"PatientFile.sol\":3768:3782  doctors[_addr] */\n      0xffffffffffffffffffffffffffffffffffffffff\n      and\n      0xffffffffffffffffffffffffffffffffffffffff\n      and\n      dup2\n      mstore\n      0x20\n      add\n      swap1\n      dup2\n      mstore\n      0x20\n      add\n      0x00\n      keccak256\n        /* \"PatientFile.sol\":3768:3793  doctors[_addr].isApproved */\n      0x05\n      add\n      0x14\n      swap1\n      sload\n      swap1\n      0x0100\n      exp\n      swap1\n      div\n      0xff\n      and\n        /* \"PatientFile.sol\":3760:3821  require(doctors[_addr].isApproved ,\"Doctor is not approved.\") */\n      tag_225\n      jumpi\n      mload(0x40)\n      0x08c379a000000000000000000000000000000000000000000000000000000000\n      dup2\n      mstore\n      0x04\n      add\n      tag_226\n      swap1\n      tag_227\n      jump\t// in\n    tag_226:\n      mload(0x40)\n      dup1\n      swap2\n      sub\n      swap1\n      revert\n    tag_225:\n        /* \"PatientFile.sol\":3832:3850  Doctor memory temp */\n      0x00\n        /* \"PatientFile.sol\":3853:3860  doctors */\n      0x04\n        /* \"PatientFile.sol\":3853:3867  doctors[_addr] */\n      0x00\n        /* \"PatientFile.sol\":3861:3866  _addr */\n      dup11\n        /* \"PatientFile.sol\":3853:3867  doctors[_addr] */\n      0xffffffffffffffffffffffffffffffffffffffff\n      and\n      0xffffffffffffffffffffffffffffffffffffffff\n      and\n      dup2\n      mstore\n      0x20\n      add\n      swap1\n      dup2\n      mstore\n      0x20\n      add\n      0x00\n      keccak256\n        /* \"PatientFile.sol\":3832:3867  Doctor memory temp = doctors[_addr] */\n      mload(0x40)\n      dup1\n      0xe0\n      add\n      0x40\n      mstore\n      swap1\n      dup2\n      0x00\n      dup3\n      add\n      sload\n      dup2\n      mstore\n      0x20\n      add\n      0x01\n      dup3\n      add\n      dup1\n      sload\n      tag_228\n      swap1\n      tag_168\n      jump\t// in\n    tag_228:\n      dup1\n      0x1f\n      add\n      0x20\n      dup1\n      swap2\n      div\n      mul\n      0x20\n      add\n      mload(0x40)\n      swap1\n      dup2\n      add\n      0x40\n      mstore\n      dup1\n      swap3\n      swap2\n      swap1\n      dup2\n      dup2\n      mstore\n      0x20\n      add\n      dup3\n      dup1\n      sload\n      tag_229\n      swap1\n      tag_168\n      jump\t// in\n    tag_229:\n      dup1\n      iszero\n      tag_230\n      jumpi\n      dup1\n      0x1f\n      lt\n      tag_231\n      jumpi\n      0x0100\n      dup1\n      dup4\n      sload\n      div\n      mul\n      dup4\n      mstore\n      swap2\n      0x20\n      add\n      swap2\n      jump(tag_230)\n    tag_231:\n      dup3\n      add\n      swap2\n      swap1\n      0x00\n      mstore\n      keccak256(0x00, 0x20)\n      swap1\n    tag_232:\n      dup2\n      sload\n      dup2\n      mstore\n      swap1\n      0x01\n      add\n      swap1\n      0x20\n      add\n      dup1\n      dup4\n      gt\n      tag_232\n      jumpi\n      dup3\n      swap1\n      sub\n      0x1f\n      and\n      dup3\n      add\n      swap2\n    tag_230:\n      pop\n      pop\n      pop\n      pop\n      pop\n      dup2\n      mstore\n      0x20\n      add\n      0x02\n      dup3\n      add\n      dup1\n      sload\n      tag_233\n      swap1\n      tag_168\n      jump\t// in\n    tag_233:\n      dup1\n      0x1f\n      add\n      0x20\n      dup1\n      swap2\n      div\n      mul\n      0x20\n      add\n      mload(0x40)\n      swap1\n      dup2\n      add\n      0x40\n      mstore\n      dup1\n      swap3\n      swap2\n      swap1\n      dup2\n      dup2\n      mstore\n      0x20\n      add\n      dup3\n      dup1\n      sload\n      tag_234\n      swap1\n      tag_168\n      jump\t// in\n    tag_234:\n      dup1\n      iszero\n      tag_235\n      jumpi\n      dup1\n      0x1f\n      lt\n      tag_236\n      jumpi\n      0x0100\n      dup1\n      dup4\n      sload\n      div\n      mul\n      dup4\n      mstore\n      swap2\n      0x20\n      add\n      swap2\n      jump(tag_235)\n    tag_236:\n      dup3\n      add\n      swap2\n      swap1\n      0x00\n      mstore\n      keccak256(0x00, 0x20)\n      swap1\n    tag_237:\n      dup2\n      sload\n      dup2\n      mstore\n      swap1\n      0x01\n      add\n      swap1\n      0x20\n      add\n      dup1\n      dup4\n      gt\n      tag_237\n      jumpi\n      dup3\n      swap1\n      sub\n      0x1f\n      and\n      dup3\n      add\n      swap2\n    tag_235:\n      pop\n      pop\n      pop\n      pop\n      pop\n      dup2\n      mstore\n      0x20\n      add\n      0x03\n      dup3\n      add\n      dup1\n      sload\n      tag_238\n      swap1\n      tag_168\n      jump\t// in\n    tag_238:\n      dup1\n      0x1f\n      add\n      0x20\n      dup1\n      swap2\n      div\n      mul\n      0x20\n      add\n      mload(0x40)\n      swap1\n      dup2\n      add\n      0x40\n      mstore\n      dup1\n      swap3\n      swap2\n      swap1\n      dup2\n      dup2\n      mstore\n      0x20\n      add\n      dup3\n      dup1\n      sload\n      tag_239\n      swap1\n      tag_168\n      jump\t// in\n    tag_239:\n      dup1\n      iszero\n      tag_240\n      jumpi\n      dup1\n      0x1f\n      lt\n      tag_241\n      jumpi\n      0x0100\n      dup1\n      dup4\n      sload\n      div\n      mul\n      dup4\n      mstore\n      swap2\n      0x20\n      add\n      swap2\n      jump(tag_240)\n    tag_241:\n      dup3\n      add\n      swap2\n      swap1\n      0x00\n      mstore\n      keccak256(0x00, 0x20)\n      swap1\n    tag_242:\n      dup2\n      sload\n      dup2\n      mstore\n      swap1\n      0x01\n      add\n      swap1\n      0x20\n      add\n      dup1\n      dup4\n      gt\n      tag_242\n      jumpi\n      dup3\n      swap1\n      sub\n      0x1f\n      and\n      dup3\n      add\n      swap2\n    tag_240:\n      pop\n      pop\n      pop\n      pop\n      pop\n      dup2\n      mstore\n      0x20\n      add\n      0x04\n      dup3\n      add\n      dup1\n      sload\n      tag_243\n      swap1\n      tag_168\n      jump\t// in\n    tag_243:\n      dup1\n      0x1f\n      add\n      0x20\n      dup1\n      swap2\n      div\n      mul\n      0x20\n      add\n      mload(0x40)\n      swap1\n      dup2\n      add\n      0x40\n      mstore\n      dup1\n      swap3\n      swap2\n      swap1\n      dup2\n      dup2\n      mstore\n      0x20\n      add\n      dup3\n      dup1\n      sload\n      tag_244\n      swap1\n      tag_168\n      jump\t// in\n    tag_244:\n      dup1\n      iszero\n      tag_245\n      jumpi\n      dup1\n      0x1f\n      lt\n      tag_246\n      jumpi\n      0x0100\n      dup1\n      dup4\n      sload\n      div\n      mul\n      dup4\n      mstore\n      swap2\n      0x20\n      add\n      swap2\n      jump(tag_245)\n    tag_246:\n      dup3\n      add\n      swap2\n      swap1\n      0x00\n      mstore\n      keccak256(0x00, 0x20)\n      swap1\n    tag_247:\n      dup2\n      sload\n      dup2\n      mstore\n      swap1\n      0x01\n      add\n      swap1\n      0x20\n      add\n      dup1\n      dup4\n      gt\n      tag_247\n      jumpi\n      dup3\n      swap1\n      sub\n      0x1f\n      and\n      dup3\n      add\n      swap2\n    tag_245:\n      pop\n      pop\n      pop\n      pop\n      pop\n      dup2\n      mstore\n      0x20\n      add\n      0x05\n      dup3\n      add\n      0x00\n      swap1\n      sload\n      swap1\n      0x0100\n      exp\n      swap1\n      div\n      0xffffffffffffffffffffffffffffffffffffffff\n      and\n      0xffffffffffffffffffffffffffffffffffffffff\n      and\n      0xffffffffffffffffffffffffffffffffffffffff\n      and\n      dup2\n      mstore\n      0x20\n      add\n      0x05\n      dup3\n      add\n      0x14\n      swap1\n      sload\n      swap1\n      0x0100\n      exp\n      swap1\n      div\n      0xff\n      and\n      iszero\n      iszero\n      iszero\n      iszero\n      dup2\n      mstore\n      pop\n      pop\n      swap1\n      pop\n        /* \"PatientFile.sol\":3885:3889  temp */\n      dup1\n        /* \"PatientFile.sol\":3885:3892  temp.id */\n      0x00\n      add\n      mload\n        /* \"PatientFile.sol\":3893:3897  temp */\n      dup2\n        /* \"PatientFile.sol\":3893:3906  temp.doc_name */\n      0x20\n      add\n      mload\n        /* \"PatientFile.sol\":3907:3911  temp */\n      dup3\n        /* \"PatientFile.sol\":3907:3923  temp.doc_contact */\n      0x40\n      add\n      mload\n        /* \"PatientFile.sol\":3924:3928  temp */\n      dup4\n        /* \"PatientFile.sol\":3924:3947  temp.doc_specialisation */\n      0x60\n      add\n      mload\n        /* \"PatientFile.sol\":3948:3952  temp */\n      dup5\n        /* \"PatientFile.sol\":3948:3964  temp.doc_address */\n      0x80\n      add\n      mload\n        /* \"PatientFile.sol\":3965:3969  temp */\n      dup6\n        /* \"PatientFile.sol\":3965:3974  temp.addr */\n      0xa0\n      add\n      mload\n        /* \"PatientFile.sol\":3975:3979  temp */\n      dup7\n        /* \"PatientFile.sol\":3975:3990  temp.isApproved */\n      0xc0\n      add\n      mload\n        /* \"PatientFile.sol\":3878:3991  return(temp.id,temp.doc_name,temp.doc_contact,temp.doc_specialisation,temp.doc_address,temp.addr,temp.isApproved) */\n      swap8\n      pop\n      swap8\n      pop\n      swap8\n      pop\n      swap8\n      pop\n      swap8\n      pop\n      swap8\n      pop\n      swap8\n      pop\n      pop\n        /* \"PatientFile.sol\":3529:3999  function getDoctorByAddress(address _addr) public view returns(uint256 id,string memory _doc_name,string memory _doc_contact,string memory _doc_specialisation,string memory _doc_address,address _doc_addr,bool isVerified){... */\n      swap2\n      swap4\n      swap6\n      swap8\n      swap1\n      swap3\n      swap5\n      swap7\n      pop\n      jump\t// out\n        /* \"PatientFile.sol\":1044:1286  function addAdmin(address _address) public onlyManager returns(bool success){... */\n    tag_67:\n        /* \"PatientFile.sol\":1107:1119  bool success */\n      0x00\n        /* \"PatientFile.sol\":564:574  msg.sender */\n      caller\n        /* \"PatientFile.sol\":553:574  manager == msg.sender */\n      0xffffffffffffffffffffffffffffffffffffffff\n      and\n        /* \"PatientFile.sol\":553:560  manager */\n      0x00\n      dup1\n      sload\n      swap1\n      0x0100\n      exp\n      swap1\n      div\n      0xffffffffffffffffffffffffffffffffffffffff\n      and\n        /* \"PatientFile.sol\":553:574  manager == msg.sender */\n      0xffffffffffffffffffffffffffffffffffffffff\n      and\n      eq\n        /* \"PatientFile.sol\":545:625  require(manager == msg.sender, \"Only Manager has permission to do that action.\") */\n      tag_249\n      jumpi\n      mload(0x40)\n      0x08c379a000000000000000000000000000000000000000000000000000000000\n      dup2\n      mstore\n      0x04\n      add\n      tag_250\n      swap1\n      tag_121\n      jump\t// in\n    tag_250:\n      mload(0x40)\n      dup1\n      swap2\n      sub\n      swap1\n      revert\n    tag_249:\n        /* \"PatientFile.sol\":1140:1147  isAdmin */\n      0x01\n        /* \"PatientFile.sol\":1140:1157  isAdmin[_address] */\n      0x00\n        /* \"PatientFile.sol\":1148:1156  _address */\n      dup4\n        /* \"PatientFile.sol\":1140:1157  isAdmin[_address] */\n      0xffffffffffffffffffffffffffffffffffffffff\n      and\n      0xffffffffffffffffffffffffffffffffffffffff\n      and\n      dup2\n      mstore\n      0x20\n      add\n      swap1\n      dup2\n      mstore\n      0x20\n      add\n      0x00\n      keccak256\n      0x00\n      swap1\n      sload\n      swap1\n      0x0100\n      exp\n      swap1\n      div\n      0xff\n      and\n        /* \"PatientFile.sol\":1139:1157  !isAdmin[_address] */\n      iszero\n        /* \"PatientFile.sol\":1131:1187  require(!isAdmin[_address],\"User is already a admin!!!\") */\n      tag_252\n      jumpi\n      mload(0x40)\n      0x08c379a000000000000000000000000000000000000000000000000000000000\n      dup2\n      mstore\n      0x04\n      add\n      tag_253\n      swap1\n      tag_254\n      jump\t// in\n    tag_253:\n      mload(0x40)\n      dup1\n      swap2\n      sub\n      swap1\n      revert\n    tag_252:\n        /* \"PatientFile.sol\":1216:1220  true */\n      0x01\n        /* \"PatientFile.sol\":1198:1205  isAdmin */\n      dup1\n        /* \"PatientFile.sol\":1198:1215  isAdmin[_address] */\n      0x00\n        /* \"PatientFile.sol\":1206:1214  _address */\n      dup5\n        /* \"PatientFile.sol\":1198:1215  isAdmin[_address] */\n      0xffffffffffffffffffffffffffffffffffffffff\n      and\n      0xffffffffffffffffffffffffffffffffffffffff\n      and\n      dup2\n      mstore\n      0x20\n      add\n      swap1\n      dup2\n      mstore\n      0x20\n      add\n      0x00\n      keccak256\n      0x00\n        /* \"PatientFile.sol\":1198:1220  isAdmin[_address]=true */\n      0x0100\n      exp\n      dup2\n      sload\n      dup2\n      0xff\n      mul\n      not\n      and\n      swap1\n      dup4\n      iszero\n      iszero\n      mul\n      or\n      swap1\n      sstore\n      pop\n        /* \"PatientFile.sol\":1247:1255  _address */\n      dup2\n        /* \"PatientFile.sol\":1236:1256  AdminAdded(_address) */\n      0xffffffffffffffffffffffffffffffffffffffff\n      and\n      0x44d6d25963f097ad14f29f06854a01f575648a1ef82f30e562ccd3889717e339\n      mload(0x40)\n      mload(0x40)\n      dup1\n      swap2\n      sub\n      swap1\n      log2\n        /* \"PatientFile.sol\":1274:1278  true */\n      0x01\n        /* \"PatientFile.sol\":1267:1278  return true */\n      swap1\n      pop\n        /* \"PatientFile.sol\":1044:1286  function addAdmin(address _address) public onlyManager returns(bool success){... */\n      swap2\n      swap1\n      pop\n      jump\t// out\n        /* \"PatientFile.sol\":2832:3476  function getDoctorById(uint256 _id) public view returns(uint256 id,string memory _doc_name,string memory _doc_contact,string memory _doc_specialisation,string memory _doc_address,address _doc_addr,bool isVerified){... */\n    tag_71:\n        /* \"PatientFile.sol\":2888:2898  uint256 id */\n      0x00\n        /* \"PatientFile.sol\":2899:2922  string memory _doc_name */\n      0x60\n        /* \"PatientFile.sol\":2923:2949  string memory _doc_contact */\n      dup1\n        /* \"PatientFile.sol\":2950:2983  string memory _doc_specialisation */\n      0x60\n        /* \"PatientFile.sol\":2984:3010  string memory _doc_address */\n      dup1\n        /* \"PatientFile.sol\":3011:3028  address _doc_addr */\n      0x00\n        /* \"PatientFile.sol\":3029:3044  bool isVerified */\n      dup1\n        /* \"PatientFile.sol\":3056:3065  uint256 i */\n      0x00\n        /* \"PatientFile.sol\":3080:3211  for(;i<doctorList.length;i++){... */\n    tag_256:\n        /* \"PatientFile.sol\":3087:3097  doctorList */\n      0x05\n        /* \"PatientFile.sol\":3087:3104  doctorList.length */\n      dup1\n      sload\n      swap1\n      pop\n        /* \"PatientFile.sol\":3085:3086  i */\n      dup2\n        /* \"PatientFile.sol\":3085:3104  i<doctorList.length */\n      lt\n        /* \"PatientFile.sol\":3080:3211  for(;i<doctorList.length;i++){... */\n      iszero\n      tag_257\n      jumpi\n        /* \"PatientFile.sol\":3156:3159  _id */\n      dup9\n        /* \"PatientFile.sol\":3127:3134  doctors */\n      0x04\n        /* \"PatientFile.sol\":3127:3149  doctors[doctorList[i]] */\n      0x00\n        /* \"PatientFile.sol\":3135:3145  doctorList */\n      0x05\n        /* \"PatientFile.sol\":3146:3147  i */\n      dup5\n        /* \"PatientFile.sol\":3135:3148  doctorList[i] */\n      dup2\n      sload\n      dup2\n      lt\n      tag_259\n      jumpi\n      tag_260\n      tag_165\n      jump\t// in\n    tag_260:\n    tag_259:\n      swap1\n      0x00\n      mstore\n      keccak256(0x00, 0x20)\n      add\n      0x00\n      swap1\n      sload\n      swap1\n      0x0100\n      exp\n      swap1\n      div\n      0xffffffffffffffffffffffffffffffffffffffff\n      and\n        /* \"PatientFile.sol\":3127:3149  doctors[doctorList[i]] */\n      0xffffffffffffffffffffffffffffffffffffffff\n      and\n      0xffffffffffffffffffffffffffffffffffffffff\n      and\n      dup2\n      mstore\n      0x20\n      add\n      swap1\n      dup2\n      mstore\n      0x20\n      add\n      0x00\n      keccak256\n        /* \"PatientFile.sol\":3127:3152  doctors[doctorList[i]].id */\n      0x00\n      add\n      sload\n        /* \"PatientFile.sol\":3127:3159  doctors[doctorList[i]].id == _id */\n      eq\n        /* \"PatientFile.sol\":3124:3200  if(doctors[doctorList[i]].id == _id){... */\n      iszero\n      tag_262\n      jumpi\n        /* \"PatientFile.sol\":3179:3184  break */\n      jump(tag_257)\n        /* \"PatientFile.sol\":3124:3200  if(doctors[doctorList[i]].id == _id){... */\n    tag_262:\n        /* \"PatientFile.sol\":3105:3108  i++ */\n      dup1\n      dup1\n      tag_263\n      swap1\n      tag_216\n      jump\t// in\n    tag_263:\n      swap2\n      pop\n      pop\n        /* \"PatientFile.sol\":3080:3211  for(;i<doctorList.length;i++){... */\n      jump(tag_256)\n    tag_257:\n        /* \"PatientFile.sol\":3258:3261  _id */\n      dup9\n        /* \"PatientFile.sol\":3229:3236  doctors */\n      0x04\n        /* \"PatientFile.sol\":3229:3251  doctors[doctorList[i]] */\n      0x00\n        /* \"PatientFile.sol\":3237:3247  doctorList */\n      0x05\n        /* \"PatientFile.sol\":3248:3249  i */\n      dup5\n        /* \"PatientFile.sol\":3237:3250  doctorList[i] */\n      dup2\n      sload\n      dup2\n      lt\n      tag_264\n      jumpi\n      tag_265\n      tag_165\n      jump\t// in\n    tag_265:\n    tag_264:\n      swap1\n      0x00\n      mstore\n      keccak256(0x00, 0x20)\n      add\n      0x00\n      swap1\n      sload\n      swap1\n      0x0100\n      exp\n      swap1\n      div\n      0xffffffffffffffffffffffffffffffffffffffff\n      and\n        /* \"PatientFile.sol\":3229:3251  doctors[doctorList[i]] */\n      0xffffffffffffffffffffffffffffffffffffffff\n      and\n      0xffffffffffffffffffffffffffffffffffffffff\n      and\n      dup2\n      mstore\n      0x20\n      add\n      swap1\n      dup2\n      mstore\n      0x20\n      add\n      0x00\n      keccak256\n        /* \"PatientFile.sol\":3229:3254  doctors[doctorList[i]].id */\n      0x00\n      add\n      sload\n        /* \"PatientFile.sol\":3229:3261  doctors[doctorList[i]].id == _id */\n      eq\n        /* \"PatientFile.sol\":3221:3290  require(doctors[doctorList[i]].id == _id ,\"Doctor ID doesn't exist.\") */\n      tag_267\n      jumpi\n      mload(0x40)\n      0x08c379a000000000000000000000000000000000000000000000000000000000\n      dup2\n      mstore\n      0x04\n      add\n      tag_268\n      swap1\n      tag_269\n      jump\t// in\n    tag_268:\n      mload(0x40)\n      dup1\n      swap2\n      sub\n      swap1\n      revert\n    tag_267:\n        /* \"PatientFile.sol\":3301:3319  Doctor memory temp */\n      0x00\n        /* \"PatientFile.sol\":3322:3329  doctors */\n      0x04\n        /* \"PatientFile.sol\":3322:3344  doctors[doctorList[i]] */\n      0x00\n        /* \"PatientFile.sol\":3330:3340  doctorList */\n      0x05\n        /* \"PatientFile.sol\":3341:3342  i */\n      dup5\n        /* \"PatientFile.sol\":3330:3343  doctorList[i] */\n      dup2\n      sload\n      dup2\n      lt\n      tag_270\n      jumpi\n      tag_271\n      tag_165\n      jump\t// in\n    tag_271:\n    tag_270:\n      swap1\n      0x00\n      mstore\n      keccak256(0x00, 0x20)\n      add\n      0x00\n      swap1\n      sload\n      swap1\n      0x0100\n      exp\n      swap1\n      div\n      0xffffffffffffffffffffffffffffffffffffffff\n      and\n        /* \"PatientFile.sol\":3322:3344  doctors[doctorList[i]] */\n      0xffffffffffffffffffffffffffffffffffffffff\n      and\n      0xffffffffffffffffffffffffffffffffffffffff\n      and\n      dup2\n      mstore\n      0x20\n      add\n      swap1\n      dup2\n      mstore\n      0x20\n      add\n      0x00\n      keccak256\n        /* \"PatientFile.sol\":3301:3344  Doctor memory temp = doctors[doctorList[i]] */\n      mload(0x40)\n      dup1\n      0xe0\n      add\n      0x40\n      mstore\n      swap1\n      dup2\n      0x00\n      dup3\n      add\n      sload\n      dup2\n      mstore\n      0x20\n      add\n      0x01\n      dup3\n      add\n      dup1\n      sload\n      tag_273\n      swap1\n      tag_168\n      jump\t// in\n    tag_273:\n      dup1\n      0x1f\n      add\n      0x20\n      dup1\n      swap2\n      div\n      mul\n      0x20\n      add\n      mload(0x40)\n      swap1\n      dup2\n      add\n      0x40\n      mstore\n      dup1\n      swap3\n      swap2\n      swap1\n      dup2\n      dup2\n      mstore\n      0x20\n      add\n      dup3\n      dup1\n      sload\n      tag_274\n      swap1\n      tag_168\n      jump\t// in\n    tag_274:\n      dup1\n      iszero\n      tag_275\n      jumpi\n      dup1\n      0x1f\n      lt\n      tag_276\n      jumpi\n      0x0100\n      dup1\n      dup4\n      sload\n      div\n      mul\n      dup4\n      mstore\n      swap2\n      0x20\n      add\n      swap2\n      jump(tag_275)\n    tag_276:\n      dup3\n      add\n      swap2\n      swap1\n      0x00\n      mstore\n      keccak256(0x00, 0x20)\n      swap1\n    tag_277:\n      dup2\n      sload\n      dup2\n      mstore\n      swap1\n      0x01\n      add\n      swap1\n      0x20\n      add\n      dup1\n      dup4\n      gt\n      tag_277\n      jumpi\n      dup3\n      swap1\n      sub\n      0x1f\n      and\n      dup3\n      add\n      swap2\n    tag_275:\n      pop\n      pop\n      pop\n      pop\n      pop\n      dup2\n      mstore\n      0x20\n      add\n      0x02\n      dup3\n      add\n      dup1\n      sload\n      tag_278\n      swap1\n      tag_168\n      jump\t// in\n    tag_278:\n      dup1\n      0x1f\n      add\n      0x20\n      dup1\n      swap2\n      div\n      mul\n      0x20\n      add\n      mload(0x40)\n      swap1\n      dup2\n      add\n      0x40\n      mstore\n      dup1\n      swap3\n      swap2\n      swap1\n      dup2\n      dup2\n      mstore\n      0x20\n      add\n      dup3\n      dup1\n      sload\n      tag_279\n      swap1\n      tag_168\n      jump\t// in\n    tag_279:\n      dup1\n      iszero\n      tag_280\n      jumpi\n      dup1\n      0x1f\n      lt\n      tag_281\n      jumpi\n      0x0100\n      dup1\n      dup4\n      sload\n      div\n      mul\n      dup4\n      mstore\n      swap2\n      0x20\n      add\n      swap2\n      jump(tag_280)\n    tag_281:\n      dup3\n      add\n      swap2\n      swap1\n      0x00\n      mstore\n      keccak256(0x00, 0x20)\n      swap1\n    tag_282:\n      dup2\n      sload\n      dup2\n      mstore\n      swap1\n      0x01\n      add\n      swap1\n      0x20\n      add\n      dup1\n      dup4\n      gt\n      tag_282\n      jumpi\n      dup3\n      swap1\n      sub\n      0x1f\n      and\n      dup3\n      add\n      swap2\n    tag_280:\n      pop\n      pop\n      pop\n      pop\n      pop\n      dup2\n      mstore\n      0x20\n      add\n      0x03\n      dup3\n      add\n      dup1\n      sload\n      tag_283\n      swap1\n      tag_168\n      jump\t// in\n    tag_283:\n      dup1\n      0x1f\n      add\n      0x20\n      dup1\n      swap2\n      div\n      mul\n      0x20\n      add\n      mload(0x40)\n      swap1\n      dup2\n      add\n      0x40\n      mstore\n      dup1\n      swap3\n      swap2\n      swap1\n      dup2\n      dup2\n      mstore\n      0x20\n      add\n      dup3\n      dup1\n      sload\n      tag_284\n      swap1\n      tag_168\n      jump\t// in\n    tag_284:\n      dup1\n      iszero\n      tag_285\n      jumpi\n      dup1\n      0x1f\n      lt\n      tag_286\n      jumpi\n      0x0100\n      dup1\n      dup4\n      sload\n      div\n      mul\n      dup4\n      mstore\n      swap2\n      0x20\n      add\n      swap2\n      jump(tag_285)\n    tag_286:\n      dup3\n      add\n      swap2\n      swap1\n      0x00\n      mstore\n      keccak256(0x00, 0x20)\n      swap1\n    tag_287:\n      dup2\n      sload\n      dup2\n      mstore\n      swap1\n      0x01\n      add\n      swap1\n      0x20\n      add\n      dup1\n      dup4\n      gt\n      tag_287\n      jumpi\n      dup3\n      swap1\n      sub\n      0x1f\n      and\n      dup3\n      add\n      swap2\n    tag_285:\n      pop\n      pop\n      pop\n      pop\n      pop\n      dup2\n      mstore\n      0x20\n      add\n      0x04\n      dup3\n      add\n      dup1\n      sload\n      tag_288\n      swap1\n      tag_168\n      jump\t// in\n    tag_288:\n      dup1\n      0x1f\n      add\n      0x20\n      dup1\n      swap2\n      div\n      mul\n      0x20\n      add\n      mload(0x40)\n      swap1\n      dup2\n      add\n      0x40\n      mstore\n      dup1\n      swap3\n      swap2\n      swap1\n      dup2\n      dup2\n      mstore\n      0x20\n      add\n      dup3\n      dup1\n      sload\n      tag_289\n      swap1\n      tag_168\n      jump\t// in\n    tag_289:\n      dup1\n      iszero\n      tag_290\n      jumpi\n      dup1\n      0x1f\n      lt\n      tag_291\n      jumpi\n      0x0100\n      dup1\n      dup4\n      sload\n      div\n      mul\n      dup4\n      mstore\n      swap2\n      0x20\n      add\n      swap2\n      jump(tag_290)\n    tag_291:\n      dup3\n      add\n      swap2\n      swap1\n      0x00\n      mstore\n      keccak256(0x00, 0x20)\n      swap1\n    tag_292:\n      dup2\n      sload\n      dup2\n      mstore\n      swap1\n      0x01\n      add\n      swap1\n      0x20\n      add\n      dup1\n      dup4\n      gt\n      tag_292\n      jumpi\n      dup3\n      swap1\n      sub\n      0x1f\n      and\n      dup3\n      add\n      swap2\n    tag_290:\n      pop\n      pop\n      pop\n      pop\n      pop\n      dup2\n      mstore\n      0x20\n      add\n      0x05\n      dup3\n      add\n      0x00\n      swap1\n      sload\n      swap1\n      0x0100\n      exp\n      swap1\n      div\n      0xffffffffffffffffffffffffffffffffffffffff\n      and\n      0xffffffffffffffffffffffffffffffffffffffff\n      and\n      0xffffffffffffffffffffffffffffffffffffffff\n      and\n      dup2\n      mstore\n      0x20\n      add\n      0x05\n      dup3\n      add\n      0x14\n      swap1\n      sload\n      swap1\n      0x0100\n      exp\n      swap1\n      div\n      0xff\n      and\n      iszero\n      iszero\n      iszero\n      iszero\n      dup2\n      mstore\n      pop\n      pop\n      swap1\n      pop\n        /* \"PatientFile.sol\":3362:3366  temp */\n      dup1\n        /* \"PatientFile.sol\":3362:3369  temp.id */\n      0x00\n      add\n      mload\n        /* \"PatientFile.sol\":3370:3374  temp */\n      dup2\n        /* \"PatientFile.sol\":3370:3383  temp.doc_name */\n      0x20\n      add\n      mload\n        /* \"PatientFile.sol\":3384:3388  temp */\n      dup3\n        /* \"PatientFile.sol\":3384:3400  temp.doc_contact */\n      0x40\n      add\n      mload\n        /* \"PatientFile.sol\":3401:3405  temp */\n      dup4\n        /* \"PatientFile.sol\":3401:3424  temp.doc_specialisation */\n      0x60\n      add\n      mload\n        /* \"PatientFile.sol\":3425:3429  temp */\n      dup5\n        /* \"PatientFile.sol\":3425:3441  temp.doc_address */\n      0x80\n      add\n      mload\n        /* \"PatientFile.sol\":3442:3446  temp */\n      dup6\n        /* \"PatientFile.sol\":3442:3451  temp.addr */\n      0xa0\n      add\n      mload\n        /* \"PatientFile.sol\":3452:3456  temp */\n      dup7\n        /* \"PatientFile.sol\":3452:3467  temp.isApproved */\n      0xc0\n      add\n      mload\n        /* \"PatientFile.sol\":3355:3468  return(temp.id,temp.doc_name,temp.doc_contact,temp.doc_specialisation,temp.doc_address,temp.addr,temp.isApproved) */\n      swap9\n      pop\n      swap9\n      pop\n      swap9\n      pop\n      swap9\n      pop\n      swap9\n      pop\n      swap9\n      pop\n      swap9\n      pop\n      pop\n      pop\n        /* \"PatientFile.sol\":2832:3476  function getDoctorById(uint256 _id) public view returns(uint256 id,string memory _doc_name,string memory _doc_contact,string memory _doc_specialisation,string memory _doc_address,address _doc_addr,bool isVerified){... */\n      swap2\n      swap4\n      swap6\n      swap8\n      swap1\n      swap3\n      swap5\n      swap7\n      pop\n      jump\t// out\n        /* \"PatientFile.sol\":4856:5639  function addPatient(string memory _name,string memory _phone,string memory _gender,string memory _dob,string memory _bloodgroup,string memory _allergies) public {... */\n    tag_76:\n        /* \"PatientFile.sol\":5037:5046  isPatient */\n      0x0a\n        /* \"PatientFile.sol\":5037:5058  isPatient[msg.sender] */\n      0x00\n        /* \"PatientFile.sol\":5047:5057  msg.sender */\n      caller\n        /* \"PatientFile.sol\":5037:5058  isPatient[msg.sender] */\n      0xffffffffffffffffffffffffffffffffffffffff\n      and\n      0xffffffffffffffffffffffffffffffffffffffff\n      and\n      dup2\n      mstore\n      0x20\n      add\n      swap1\n      dup2\n      mstore\n      0x20\n      add\n      0x00\n      keccak256\n      0x00\n      swap1\n      sload\n      swap1\n      0x0100\n      exp\n      swap1\n      div\n      0xff\n      and\n        /* \"PatientFile.sol\":5036:5058  !isPatient[msg.sender] */\n      iszero\n        /* \"PatientFile.sol\":5028:5092  require(!isPatient[msg.sender],\"Already Patient account exists\") */\n      tag_294\n      jumpi\n      mload(0x40)\n      0x08c379a000000000000000000000000000000000000000000000000000000000\n      dup2\n      mstore\n      0x04\n      add\n      tag_295\n      swap1\n      tag_296\n      jump\t// in\n    tag_295:\n      mload(0x40)\n      dup1\n      swap2\n      sub\n      swap1\n      revert\n    tag_294:\n        /* \"PatientFile.sol\":5103:5114  patientList */\n      0x07\n        /* \"PatientFile.sol\":5120:5130  msg.sender */\n      caller\n        /* \"PatientFile.sol\":5103:5131  patientList.push(msg.sender) */\n      swap1\n      dup1\n      0x01\n      dup2\n      sload\n      add\n      dup1\n      dup3\n      sstore\n      dup1\n      swap2\n      pop\n      pop\n      0x01\n      swap1\n      sub\n      swap1\n      0x00\n      mstore\n      keccak256(0x00, 0x20)\n      add\n      0x00\n      swap1\n      swap2\n      swap1\n      swap2\n      swap1\n      swap2\n      0x0100\n      exp\n      dup2\n      sload\n      dup2\n      0xffffffffffffffffffffffffffffffffffffffff\n      mul\n      not\n      and\n      swap1\n      dup4\n      0xffffffffffffffffffffffffffffffffffffffff\n      and\n      mul\n      or\n      swap1\n      sstore\n      pop\n        /* \"PatientFile.sol\":5174:5175  1 */\n      0x01\n        /* \"PatientFile.sol\":5158:5171  patient_index */\n      sload(0x06)\n        /* \"PatientFile.sol\":5158:5175  patient_index + 1 */\n      tag_298\n      swap2\n      swap1\n      tag_299\n      jump\t// in\n    tag_298:\n        /* \"PatientFile.sol\":5142:5155  patient_index */\n      0x06\n        /* \"PatientFile.sol\":5142:5175  patient_index = patient_index + 1 */\n      dup2\n      swap1\n      sstore\n      pop\n        /* \"PatientFile.sol\":5208:5212  true */\n      0x01\n        /* \"PatientFile.sol\":5186:5195  isPatient */\n      0x0a\n        /* \"PatientFile.sol\":5186:5207  isPatient[msg.sender] */\n      0x00\n        /* \"PatientFile.sol\":5196:5206  msg.sender */\n      caller\n        /* \"PatientFile.sol\":5186:5207  isPatient[msg.sender] */\n      0xffffffffffffffffffffffffffffffffffffffff\n      and\n      0xffffffffffffffffffffffffffffffffffffffff\n      and\n      dup2\n      mstore\n      0x20\n      add\n      swap1\n      dup2\n      mstore\n      0x20\n      add\n      0x00\n      keccak256\n      0x00\n        /* \"PatientFile.sol\":5186:5212  isPatient[msg.sender]=true */\n      0x0100\n      exp\n      dup2\n      sload\n      dup2\n      0xff\n      mul\n      not\n      and\n      swap1\n      dup4\n      iszero\n      iszero\n      mul\n      or\n      swap1\n      sstore\n      pop\n        /* \"PatientFile.sol\":5254:5258  true */\n      0x01\n        /* \"PatientFile.sol\":5223:5229  isAuth */\n      0x08\n        /* \"PatientFile.sol\":5223:5241  isAuth[msg.sender] */\n      0x00\n        /* \"PatientFile.sol\":5230:5240  msg.sender */\n      caller\n        /* \"PatientFile.sol\":5223:5241  isAuth[msg.sender] */\n      0xffffffffffffffffffffffffffffffffffffffff\n      and\n      0xffffffffffffffffffffffffffffffffffffffff\n      and\n      dup2\n      mstore\n      0x20\n      add\n      swap1\n      dup2\n      mstore\n      0x20\n      add\n      0x00\n      keccak256\n        /* \"PatientFile.sol\":5223:5253  isAuth[msg.sender][msg.sender] */\n      0x00\n        /* \"PatientFile.sol\":5242:5252  msg.sender */\n      caller\n        /* \"PatientFile.sol\":5223:5253  isAuth[msg.sender][msg.sender] */\n      0xffffffffffffffffffffffffffffffffffffffff\n      and\n      0xffffffffffffffffffffffffffffffffffffffff\n      and\n      dup2\n      mstore\n      0x20\n      add\n      swap1\n      dup2\n      mstore\n      0x20\n      add\n      0x00\n      keccak256\n      0x00\n        /* \"PatientFile.sol\":5223:5258  isAuth[msg.sender][msg.sender]=true */\n      0x0100\n      exp\n      dup2\n      sload\n      dup2\n      0xff\n      mul\n      not\n      and\n      swap1\n      dup4\n      iszero\n      iszero\n      mul\n      or\n      swap1\n      sstore\n      pop\n        /* \"PatientFile.sol\":5293:5306  patient_index */\n      sload(0x06)\n        /* \"PatientFile.sol\":5269:5277  patients */\n      0x09\n        /* \"PatientFile.sol\":5269:5289  patients[msg.sender] */\n      0x00\n        /* \"PatientFile.sol\":5278:5288  msg.sender */\n      caller\n        /* \"PatientFile.sol\":5269:5289  patients[msg.sender] */\n      0xffffffffffffffffffffffffffffffffffffffff\n      and\n      0xffffffffffffffffffffffffffffffffffffffff\n      and\n      dup2\n      mstore\n      0x20\n      add\n      swap1\n      dup2\n      mstore\n      0x20\n      add\n      0x00\n      keccak256\n        /* \"PatientFile.sol\":5269:5292  patients[msg.sender].id */\n      0x00\n      add\n        /* \"PatientFile.sol\":5269:5306  patients[msg.sender].id=patient_index */\n      dup2\n      swap1\n      sstore\n      pop\n        /* \"PatientFile.sol\":5343:5348  _name */\n      dup6\n        /* \"PatientFile.sol\":5317:5325  patients */\n      0x09\n        /* \"PatientFile.sol\":5317:5337  patients[msg.sender] */\n      0x00\n        /* \"PatientFile.sol\":5326:5336  msg.sender */\n      caller\n        /* \"PatientFile.sol\":5317:5337  patients[msg.sender] */\n      0xffffffffffffffffffffffffffffffffffffffff\n      and\n      0xffffffffffffffffffffffffffffffffffffffff\n      and\n      dup2\n      mstore\n      0x20\n      add\n      swap1\n      dup2\n      mstore\n      0x20\n      add\n      0x00\n      keccak256\n        /* \"PatientFile.sol\":5317:5342  patients[msg.sender].name */\n      0x01\n      add\n        /* \"PatientFile.sol\":5317:5348  patients[msg.sender].name=_name */\n      swap1\n      dup1\n      mload\n      swap1\n      0x20\n      add\n      swap1\n      tag_300\n      swap3\n      swap2\n      swap1\n      tag_301\n      jump\t// in\n    tag_300:\n      pop\n        /* \"PatientFile.sol\":5386:5392  _phone */\n      dup5\n        /* \"PatientFile.sol\":5359:5367  patients */\n      0x09\n        /* \"PatientFile.sol\":5359:5379  patients[msg.sender] */\n      0x00\n        /* \"PatientFile.sol\":5368:5378  msg.sender */\n      caller\n        /* \"PatientFile.sol\":5359:5379  patients[msg.sender] */\n      0xffffffffffffffffffffffffffffffffffffffff\n      and\n      0xffffffffffffffffffffffffffffffffffffffff\n      and\n      dup2\n      mstore\n      0x20\n      add\n      swap1\n      dup2\n      mstore\n      0x20\n      add\n      0x00\n      keccak256\n        /* \"PatientFile.sol\":5359:5385  patients[msg.sender].phone */\n      0x02\n      add\n        /* \"PatientFile.sol\":5359:5392  patients[msg.sender].phone=_phone */\n      swap1\n      dup1\n      mload\n      swap1\n      0x20\n      add\n      swap1\n      tag_302\n      swap3\n      swap2\n      swap1\n      tag_301\n      jump\t// in\n    tag_302:\n      pop\n        /* \"PatientFile.sol\":5431:5438  _gender */\n      dup4\n        /* \"PatientFile.sol\":5403:5411  patients */\n      0x09\n        /* \"PatientFile.sol\":5403:5423  patients[msg.sender] */\n      0x00\n        /* \"PatientFile.sol\":5412:5422  msg.sender */\n      caller\n        /* \"PatientFile.sol\":5403:5423  patients[msg.sender] */\n      0xffffffffffffffffffffffffffffffffffffffff\n      and\n      0xffffffffffffffffffffffffffffffffffffffff\n      and\n      dup2\n      mstore\n      0x20\n      add\n      swap1\n      dup2\n      mstore\n      0x20\n      add\n      0x00\n      keccak256\n        /* \"PatientFile.sol\":5403:5430  patients[msg.sender].gender */\n      0x03\n      add\n        /* \"PatientFile.sol\":5403:5438  patients[msg.sender].gender=_gender */\n      swap1\n      dup1\n      mload\n      swap1\n      0x20\n      add\n      swap1\n      tag_303\n      swap3\n      swap2\n      swap1\n      tag_301\n      jump\t// in\n    tag_303:\n      pop\n        /* \"PatientFile.sol\":5474:5478  _dob */\n      dup3\n        /* \"PatientFile.sol\":5449:5457  patients */\n      0x09\n        /* \"PatientFile.sol\":5449:5469  patients[msg.sender] */\n      0x00\n        /* \"PatientFile.sol\":5458:5468  msg.sender */\n      caller\n        /* \"PatientFile.sol\":5449:5469  patients[msg.sender] */\n      0xffffffffffffffffffffffffffffffffffffffff\n      and\n      0xffffffffffffffffffffffffffffffffffffffff\n      and\n      dup2\n      mstore\n      0x20\n      add\n      swap1\n      dup2\n      mstore\n      0x20\n      add\n      0x00\n      keccak256\n        /* \"PatientFile.sol\":5449:5473  patients[msg.sender].dob */\n      0x04\n      add\n        /* \"PatientFile.sol\":5449:5478  patients[msg.sender].dob=_dob */\n      swap1\n      dup1\n      mload\n      swap1\n      0x20\n      add\n      swap1\n      tag_304\n      swap3\n      swap2\n      swap1\n      tag_301\n      jump\t// in\n    tag_304:\n      pop\n        /* \"PatientFile.sol\":5521:5532  _bloodgroup */\n      dup2\n        /* \"PatientFile.sol\":5489:5497  patients */\n      0x09\n        /* \"PatientFile.sol\":5489:5509  patients[msg.sender] */\n      0x00\n        /* \"PatientFile.sol\":5498:5508  msg.sender */\n      caller\n        /* \"PatientFile.sol\":5489:5509  patients[msg.sender] */\n      0xffffffffffffffffffffffffffffffffffffffff\n      and\n      0xffffffffffffffffffffffffffffffffffffffff\n      and\n      dup2\n      mstore\n      0x20\n      add\n      swap1\n      dup2\n      mstore\n      0x20\n      add\n      0x00\n      keccak256\n        /* \"PatientFile.sol\":5489:5520  patients[msg.sender].bloodgroup */\n      0x05\n      add\n        /* \"PatientFile.sol\":5489:5532  patients[msg.sender].bloodgroup=_bloodgroup */\n      swap1\n      dup1\n      mload\n      swap1\n      0x20\n      add\n      swap1\n      tag_305\n      swap3\n      swap2\n      swap1\n      tag_301\n      jump\t// in\n    tag_305:\n      pop\n        /* \"PatientFile.sol\":5574:5584  _allergies */\n      dup1\n        /* \"PatientFile.sol\":5543:5551  patients */\n      0x09\n        /* \"PatientFile.sol\":5543:5563  patients[msg.sender] */\n      0x00\n        /* \"PatientFile.sol\":5552:5562  msg.sender */\n      caller\n        /* \"PatientFile.sol\":5543:5563  patients[msg.sender] */\n      0xffffffffffffffffffffffffffffffffffffffff\n      and\n      0xffffffffffffffffffffffffffffffffffffffff\n      and\n      dup2\n      mstore\n      0x20\n      add\n      swap1\n      dup2\n      mstore\n      0x20\n      add\n      0x00\n      keccak256\n        /* \"PatientFile.sol\":5543:5573  patients[msg.sender].allergies */\n      0x06\n      add\n        /* \"PatientFile.sol\":5543:5584  patients[msg.sender].allergies=_allergies */\n      swap1\n      dup1\n      mload\n      swap1\n      0x20\n      add\n      swap1\n      tag_306\n      swap3\n      swap2\n      swap1\n      tag_301\n      jump\t// in\n    tag_306:\n      pop\n        /* \"PatientFile.sol\":5621:5631  msg.sender */\n      caller\n        /* \"PatientFile.sol\":5595:5603  patients */\n      0x09\n        /* \"PatientFile.sol\":5595:5615  patients[msg.sender] */\n      0x00\n        /* \"PatientFile.sol\":5604:5614  msg.sender */\n      caller\n        /* \"PatientFile.sol\":5595:5615  patients[msg.sender] */\n      0xffffffffffffffffffffffffffffffffffffffff\n      and\n      0xffffffffffffffffffffffffffffffffffffffff\n      and\n      dup2\n      mstore\n      0x20\n      add\n      swap1\n      dup2\n      mstore\n      0x20\n      add\n      0x00\n      keccak256\n        /* \"PatientFile.sol\":5595:5620  patients[msg.sender].addr */\n      0x08\n      add\n      0x00\n        /* \"PatientFile.sol\":5595:5631  patients[msg.sender].addr=msg.sender */\n      0x0100\n      exp\n      dup2\n      sload\n      dup2\n      0xffffffffffffffffffffffffffffffffffffffff\n      mul\n      not\n      and\n      swap1\n      dup4\n      0xffffffffffffffffffffffffffffffffffffffff\n      and\n      mul\n      or\n      swap1\n      sstore\n      pop\n        /* \"PatientFile.sol\":4856:5639  function addPatient(string memory _name,string memory _phone,string memory _gender,string memory _dob,string memory _bloodgroup,string memory _allergies) public {... */\n      pop\n      pop\n      pop\n      pop\n      pop\n      pop\n      jump\t// out\n        /* \"PatientFile.sol\":2279:2778  function addDoctor(string memory _doc_name,string memory _doc_contact,string memory _doc_specialisation,string memory _doc_address,address _doc_addr) public onlyAdmin returns(bool){... */\n    tag_80:\n        /* \"PatientFile.sol\":2454:2458  bool */\n      0x00\n        /* \"PatientFile.sol\":716:720  true */\n      0x01\n        /* \"PatientFile.sol\":693:720  isAdmin[msg.sender] == true */\n      iszero\n      iszero\n        /* \"PatientFile.sol\":693:700  isAdmin */\n      0x01\n        /* \"PatientFile.sol\":693:712  isAdmin[msg.sender] */\n      0x00\n        /* \"PatientFile.sol\":701:711  msg.sender */\n      caller\n        /* \"PatientFile.sol\":693:712  isAdmin[msg.sender] */\n      0xffffffffffffffffffffffffffffffffffffffff\n      and\n      0xffffffffffffffffffffffffffffffffffffffff\n      and\n      dup2\n      mstore\n      0x20\n      add\n      swap1\n      dup2\n      mstore\n      0x20\n      add\n      0x00\n      keccak256\n      0x00\n      swap1\n      sload\n      swap1\n      0x0100\n      exp\n      swap1\n      div\n      0xff\n      and\n        /* \"PatientFile.sol\":693:720  isAdmin[msg.sender] == true */\n      iszero\n      iszero\n      eq\n        /* \"PatientFile.sol\":685:769  require(isAdmin[msg.sender] == true, \"Only Admin has permission to do that action.\") */\n      tag_308\n      jumpi\n      mload(0x40)\n      0x08c379a000000000000000000000000000000000000000000000000000000000\n      dup2\n      mstore\n      0x04\n      add\n      tag_309\n      swap1\n      tag_310\n      jump\t// in\n    tag_309:\n      mload(0x40)\n      dup1\n      swap2\n      sub\n      swap1\n      revert\n    tag_308:\n        /* \"PatientFile.sol\":2479:2487  isDoctor */\n      0x03\n        /* \"PatientFile.sol\":2479:2498  isDoctor[_doc_addr] */\n      0x00\n        /* \"PatientFile.sol\":2488:2497  _doc_addr */\n      dup4\n        /* \"PatientFile.sol\":2479:2498  isDoctor[_doc_addr] */\n      0xffffffffffffffffffffffffffffffffffffffff\n      and\n      0xffffffffffffffffffffffffffffffffffffffff\n      and\n      dup2\n      mstore\n      0x20\n      add\n      swap1\n      dup2\n      mstore\n      0x20\n      add\n      0x00\n      keccak256\n      0x00\n      swap1\n      sload\n      swap1\n      0x0100\n      exp\n      swap1\n      div\n      0xff\n      and\n        /* \"PatientFile.sol\":2478:2498  !isDoctor[_doc_addr] */\n      iszero\n        /* \"PatientFile.sol\":2470:2530  require(!isDoctor[_doc_addr],\"Already a registered Doctor.\") */\n      tag_312\n      jumpi\n      mload(0x40)\n      0x08c379a000000000000000000000000000000000000000000000000000000000\n      dup2\n      mstore\n      0x04\n      add\n      tag_313\n      swap1\n      tag_314\n      jump\t// in\n    tag_313:\n      mload(0x40)\n      dup1\n      swap2\n      sub\n      swap1\n      revert\n    tag_312:\n        /* \"PatientFile.sol\":2541:2551  doctorList */\n      0x05\n        /* \"PatientFile.sol\":2557:2566  _doc_addr */\n      dup3\n        /* \"PatientFile.sol\":2541:2567  doctorList.push(_doc_addr) */\n      swap1\n      dup1\n      0x01\n      dup2\n      sload\n      add\n      dup1\n      dup3\n      sstore\n      dup1\n      swap2\n      pop\n      pop\n      0x01\n      swap1\n      sub\n      swap1\n      0x00\n      mstore\n      keccak256(0x00, 0x20)\n      add\n      0x00\n      swap1\n      swap2\n      swap1\n      swap2\n      swap1\n      swap2\n      0x0100\n      exp\n      dup2\n      sload\n      dup2\n      0xffffffffffffffffffffffffffffffffffffffff\n      mul\n      not\n      and\n      swap1\n      dup4\n      0xffffffffffffffffffffffffffffffffffffffff\n      and\n      mul\n      or\n      swap1\n      sstore\n      pop\n        /* \"PatientFile.sol\":2594:2595  1 */\n      0x01\n        /* \"PatientFile.sol\":2586:2591  index */\n      sload(0x02)\n        /* \"PatientFile.sol\":2586:2595  index + 1 */\n      tag_316\n      swap2\n      swap1\n      tag_299\n      jump\t// in\n    tag_316:\n        /* \"PatientFile.sol\":2578:2583  index */\n      0x02\n        /* \"PatientFile.sol\":2578:2595  index = index + 1 */\n      dup2\n      swap1\n      sstore\n      pop\n        /* \"PatientFile.sol\":2628:2632  true */\n      0x01\n        /* \"PatientFile.sol\":2606:2614  isDoctor */\n      0x03\n        /* \"PatientFile.sol\":2606:2625  isDoctor[_doc_addr] */\n      0x00\n        /* \"PatientFile.sol\":2615:2624  _doc_addr */\n      dup5\n        /* \"PatientFile.sol\":2606:2625  isDoctor[_doc_addr] */\n      0xffffffffffffffffffffffffffffffffffffffff\n      and\n      0xffffffffffffffffffffffffffffffffffffffff\n      and\n      dup2\n      mstore\n      0x20\n      add\n      swap1\n      dup2\n      mstore\n      0x20\n      add\n      0x00\n      keccak256\n      0x00\n        /* \"PatientFile.sol\":2606:2632  isDoctor[_doc_addr] = true */\n      0x0100\n      exp\n      dup2\n      sload\n      dup2\n      0xff\n      mul\n      not\n      and\n      swap1\n      dup4\n      iszero\n      iszero\n      mul\n      or\n      swap1\n      sstore\n      pop\n        /* \"PatientFile.sol\":2664:2748  Doctor(index,_doc_name,_doc_contact,_doc_specialisation,_doc_address,_doc_addr,true) */\n      mload(0x40)\n      dup1\n      0xe0\n      add\n      0x40\n      mstore\n      dup1\n        /* \"PatientFile.sol\":2671:2676  index */\n      sload(0x02)\n        /* \"PatientFile.sol\":2664:2748  Doctor(index,_doc_name,_doc_contact,_doc_specialisation,_doc_address,_doc_addr,true) */\n      dup2\n      mstore\n      0x20\n      add\n        /* \"PatientFile.sol\":2677:2686  _doc_name */\n      dup8\n        /* \"PatientFile.sol\":2664:2748  Doctor(index,_doc_name,_doc_contact,_doc_specialisation,_doc_address,_doc_addr,true) */\n      dup2\n      mstore\n      0x20\n      add\n        /* \"PatientFile.sol\":2687:2699  _doc_contact */\n      dup7\n        /* \"PatientFile.sol\":2664:2748  Doctor(index,_doc_name,_doc_contact,_doc_specialisation,_doc_address,_doc_addr,true) */\n      dup2\n      mstore\n      0x20\n      add\n        /* \"PatientFile.sol\":2700:2719  _doc_specialisation */\n      dup6\n        /* \"PatientFile.sol\":2664:2748  Doctor(index,_doc_name,_doc_contact,_doc_specialisation,_doc_address,_doc_addr,true) */\n      dup2\n      mstore\n      0x20\n      add\n        /* \"PatientFile.sol\":2720:2732  _doc_address */\n      dup5\n        /* \"PatientFile.sol\":2664:2748  Doctor(index,_doc_name,_doc_contact,_doc_specialisation,_doc_address,_doc_addr,true) */\n      dup2\n      mstore\n      0x20\n      add\n        /* \"PatientFile.sol\":2733:2742  _doc_addr */\n      dup4\n        /* \"PatientFile.sol\":2664:2748  Doctor(index,_doc_name,_doc_contact,_doc_specialisation,_doc_address,_doc_addr,true) */\n      0xffffffffffffffffffffffffffffffffffffffff\n      and\n      dup2\n      mstore\n      0x20\n      add\n        /* \"PatientFile.sol\":2743:2747  true */\n      0x01\n        /* \"PatientFile.sol\":2664:2748  Doctor(index,_doc_name,_doc_contact,_doc_specialisation,_doc_address,_doc_addr,true) */\n      iszero\n      iszero\n      dup2\n      mstore\n      pop\n        /* \"PatientFile.sol\":2643:2650  doctors */\n      0x04\n        /* \"PatientFile.sol\":2643:2661  doctors[_doc_addr] */\n      0x00\n        /* \"PatientFile.sol\":2651:2660  _doc_addr */\n      dup5\n        /* \"PatientFile.sol\":2643:2661  doctors[_doc_addr] */\n      0xffffffffffffffffffffffffffffffffffffffff\n      and\n      0xffffffffffffffffffffffffffffffffffffffff\n      and\n      dup2\n      mstore\n      0x20\n      add\n      swap1\n      dup2\n      mstore\n      0x20\n      add\n      0x00\n      keccak256\n        /* \"PatientFile.sol\":2643:2748  doctors[_doc_addr] = Doctor(index,_doc_name,_doc_contact,_doc_specialisation,_doc_address,_doc_addr,true) */\n      0x00\n      dup3\n      add\n      mload\n      dup2\n      0x00\n      add\n      sstore\n      0x20\n      dup3\n      add\n      mload\n      dup2\n      0x01\n      add\n      swap1\n      dup1\n      mload\n      swap1\n      0x20\n      add\n      swap1\n      tag_317\n      swap3\n      swap2\n      swap1\n      tag_301\n      jump\t// in\n    tag_317:\n      pop\n      0x40\n      dup3\n      add\n      mload\n      dup2\n      0x02\n      add\n      swap1\n      dup1\n      mload\n      swap1\n      0x20\n      add\n      swap1\n      tag_318\n      swap3\n      swap2\n      swap1\n      tag_301\n      jump\t// in\n    tag_318:\n      pop\n      0x60\n      dup3\n      add\n      mload\n      dup2\n      0x03\n      add\n      swap1\n      dup1\n      mload\n      swap1\n      0x20\n      add\n      swap1\n      tag_319\n      swap3\n      swap2\n      swap1\n      tag_301\n      jump\t// in\n    tag_319:\n      pop\n      0x80\n      dup3\n      add\n      mload\n      dup2\n      0x04\n      add\n      swap1\n      dup1\n      mload\n      swap1\n      0x20\n      add\n      swap1\n      tag_320\n      swap3\n      swap2\n      swap1\n      tag_301\n      jump\t// in\n    tag_320:\n      pop\n      0xa0\n      dup3\n      add\n      mload\n      dup2\n      0x05\n      add\n      exp(0x0100, 0x00)\n      dup2\n      sload\n      dup2\n      0xffffffffffffffffffffffffffffffffffffffff\n      mul\n      not\n      and\n      swap1\n      dup4\n      0xffffffffffffffffffffffffffffffffffffffff\n      and\n      mul\n      or\n      swap1\n      sstore\n      pop\n      0xc0\n      dup3\n      add\n      mload\n      dup2\n      0x05\n      add\n      exp(0x0100, 0x14)\n      dup2\n      sload\n      dup2\n      0xff\n      mul\n      not\n      and\n      swap1\n      dup4\n      iszero\n      iszero\n      mul\n      or\n      swap1\n      sstore\n      pop\n      swap1\n      pop\n      pop\n        /* \"PatientFile.sol\":2766:2770  true */\n      0x01\n        /* \"PatientFile.sol\":2759:2770  return true */\n      swap1\n      pop\n        /* \"PatientFile.sol\":2279:2778  function addDoctor(string memory _doc_name,string memory _doc_contact,string memory _doc_specialisation,string memory _doc_address,address _doc_addr) public onlyAdmin returns(bool){... */\n      swap6\n      swap5\n      pop\n      pop\n      pop\n      pop\n      pop\n      jump\t// out\n        /* \"PatientFile.sol\":798:1035  function setManager(address _addr) public onlyManager returns(bool success){... */\n    tag_84:\n        /* \"PatientFile.sol\":860:872  bool success */\n      0x00\n        /* \"PatientFile.sol\":564:574  msg.sender */\n      caller\n        /* \"PatientFile.sol\":553:574  manager == msg.sender */\n      0xffffffffffffffffffffffffffffffffffffffff\n      and\n        /* \"PatientFile.sol\":553:560  manager */\n      0x00\n      dup1\n      sload\n      swap1\n      0x0100\n      exp\n      swap1\n      div\n      0xffffffffffffffffffffffffffffffffffffffff\n      and\n        /* \"PatientFile.sol\":553:574  manager == msg.sender */\n      0xffffffffffffffffffffffffffffffffffffffff\n      and\n      eq\n        /* \"PatientFile.sol\":545:625  require(manager == msg.sender, \"Only Manager has permission to do that action.\") */\n      tag_322\n      jumpi\n      mload(0x40)\n      0x08c379a000000000000000000000000000000000000000000000000000000000\n      dup2\n      mstore\n      0x04\n      add\n      tag_323\n      swap1\n      tag_121\n      jump\t// in\n    tag_323:\n      mload(0x40)\n      dup1\n      swap2\n      sub\n      swap1\n      revert\n    tag_322:\n        /* \"PatientFile.sol\":905:910  _addr */\n      dup2\n        /* \"PatientFile.sol\":892:910  msg.sender!= _addr */\n      0xffffffffffffffffffffffffffffffffffffffff\n      and\n        /* \"PatientFile.sol\":892:902  msg.sender */\n      caller\n        /* \"PatientFile.sol\":892:910  msg.sender!= _addr */\n      0xffffffffffffffffffffffffffffffffffffffff\n      and\n      eq\n      iszero\n        /* \"PatientFile.sol\":884:930  require(msg.sender!= _addr,\"Already manager.\") */\n      tag_325\n      jumpi\n      mload(0x40)\n      0x08c379a000000000000000000000000000000000000000000000000000000000\n      dup2\n      mstore\n      0x04\n      add\n      tag_326\n      swap1\n      tag_327\n      jump\t// in\n    tag_326:\n      mload(0x40)\n      dup1\n      swap2\n      sub\n      swap1\n      revert\n    tag_325:\n        /* \"PatientFile.sol\":951:956  _addr */\n      dup2\n        /* \"PatientFile.sol\":941:948  manager */\n      0x00\n      dup1\n        /* \"PatientFile.sol\":941:956  manager = _addr */\n      0x0100\n      exp\n      dup2\n      sload\n      dup2\n      0xffffffffffffffffffffffffffffffffffffffff\n      mul\n      not\n      and\n      swap1\n      dup4\n      0xffffffffffffffffffffffffffffffffffffffff\n      and\n      mul\n      or\n      swap1\n      sstore\n      pop\n        /* \"PatientFile.sol\":999:1004  _addr */\n      dup2\n        /* \"PatientFile.sol\":972:1005  ManagerChanged(msg.sender, _addr) */\n      0xffffffffffffffffffffffffffffffffffffffff\n      and\n        /* \"PatientFile.sol\":987:997  msg.sender */\n      caller\n        /* \"PatientFile.sol\":972:1005  ManagerChanged(msg.sender, _addr) */\n      0xffffffffffffffffffffffffffffffffffffffff\n      and\n      0x605c2dbf762e5f7d60a546d42e7205dcb1b011ebc62a61736a57c9089d3a4350\n      mload(0x40)\n      mload(0x40)\n      dup1\n      swap2\n      sub\n      swap1\n      log3\n        /* \"PatientFile.sol\":1023:1027  true */\n      0x01\n        /* \"PatientFile.sol\":1016:1027  return true */\n      swap1\n      pop\n        /* \"PatientFile.sol\":798:1035  function setManager(address _addr) public onlyManager returns(bool success){... */\n      swap2\n      swap1\n      pop\n      jump\t// out\n        /* \"PatientFile.sol\":8687:9089  function addAuthFromTo(address _from,address _to) public returns(bool success) {... */\n    tag_88:\n        /* \"PatientFile.sol\":8752:8764  bool success */\n      0x00\n        /* \"PatientFile.sol\":8786:8792  isAuth */\n      0x08\n        /* \"PatientFile.sol\":8786:8799  isAuth[_from] */\n      0x00\n        /* \"PatientFile.sol\":8793:8798  _from */\n      dup5\n        /* \"PatientFile.sol\":8786:8799  isAuth[_from] */\n      0xffffffffffffffffffffffffffffffffffffffff\n      and\n      0xffffffffffffffffffffffffffffffffffffffff\n      and\n      dup2\n      mstore\n      0x20\n      add\n      swap1\n      dup2\n      mstore\n      0x20\n      add\n      0x00\n      keccak256\n        /* \"PatientFile.sol\":8786:8804  isAuth[_from][_to] */\n      0x00\n        /* \"PatientFile.sol\":8800:8803  _to */\n      dup4\n        /* \"PatientFile.sol\":8786:8804  isAuth[_from][_to] */\n      0xffffffffffffffffffffffffffffffffffffffff\n      and\n      0xffffffffffffffffffffffffffffffffffffffff\n      and\n      dup2\n      mstore\n      0x20\n      add\n      swap1\n      dup2\n      mstore\n      0x20\n      add\n      0x00\n      keccak256\n      0x00\n      swap1\n      sload\n      swap1\n      0x0100\n      exp\n      swap1\n      div\n      0xff\n      and\n        /* \"PatientFile.sol\":8785:8804  !isAuth[_from][_to] */\n      iszero\n        /* \"PatientFile.sol\":8777:8824  require(!isAuth[_from][_to],\"Already  Auth!!!\") */\n      tag_329\n      jumpi\n      mload(0x40)\n      0x08c379a000000000000000000000000000000000000000000000000000000000\n      dup2\n      mstore\n      0x04\n      add\n      tag_330\n      swap1\n      tag_331\n      jump\t// in\n    tag_330:\n      mload(0x40)\n      dup1\n      swap2\n      sub\n      swap1\n      revert\n    tag_329:\n        /* \"PatientFile.sol\":8850:8853  _to */\n      dup2\n        /* \"PatientFile.sol\":8843:8853  _from!=_to */\n      0xffffffffffffffffffffffffffffffffffffffff\n      and\n        /* \"PatientFile.sol\":8843:8848  _from */\n      dup4\n        /* \"PatientFile.sol\":8843:8853  _from!=_to */\n      0xffffffffffffffffffffffffffffffffffffffff\n      and\n      eq\n      iszero\n        /* \"PatientFile.sol\":8835:8878  require(_from!=_to,\"can't add same person\") */\n      tag_332\n      jumpi\n      mload(0x40)\n      0x08c379a000000000000000000000000000000000000000000000000000000000\n      dup2\n      mstore\n      0x04\n      add\n      tag_333\n      swap1\n      tag_334\n      jump\t// in\n    tag_333:\n      mload(0x40)\n      dup1\n      swap2\n      sub\n      swap1\n      revert\n    tag_332:\n        /* \"PatientFile.sol\":8897:8903  isAuth */\n      0x08\n        /* \"PatientFile.sol\":8897:8910  isAuth[_from] */\n      0x00\n        /* \"PatientFile.sol\":8904:8909  _from */\n      dup5\n        /* \"PatientFile.sol\":8897:8910  isAuth[_from] */\n      0xffffffffffffffffffffffffffffffffffffffff\n      and\n      0xffffffffffffffffffffffffffffffffffffffff\n      and\n      dup2\n      mstore\n      0x20\n      add\n      swap1\n      dup2\n      mstore\n      0x20\n      add\n      0x00\n      keccak256\n        /* \"PatientFile.sol\":8897:8922  isAuth[_from][msg.sender] */\n      0x00\n        /* \"PatientFile.sol\":8911:8921  msg.sender */\n      caller\n        /* \"PatientFile.sol\":8897:8922  isAuth[_from][msg.sender] */\n      0xffffffffffffffffffffffffffffffffffffffff\n      and\n      0xffffffffffffffffffffffffffffffffffffffff\n      and\n      dup2\n      mstore\n      0x20\n      add\n      swap1\n      dup2\n      mstore\n      0x20\n      add\n      0x00\n      keccak256\n      0x00\n      swap1\n      sload\n      swap1\n      0x0100\n      exp\n      swap1\n      div\n      0xff\n      and\n        /* \"PatientFile.sol\":8889:8961  require(isAuth[_from][msg.sender],\"You don't have permission to access\") */\n      tag_335\n      jumpi\n      mload(0x40)\n      0x08c379a000000000000000000000000000000000000000000000000000000000\n      dup2\n      mstore\n      0x04\n      add\n      tag_336\n      swap1\n      tag_112\n      jump\t// in\n    tag_336:\n      mload(0x40)\n      dup1\n      swap2\n      sub\n      swap1\n      revert\n    tag_335:\n        /* \"PatientFile.sol\":8980:8989  isPatient */\n      0x0a\n        /* \"PatientFile.sol\":8980:8996  isPatient[_from] */\n      0x00\n        /* \"PatientFile.sol\":8990:8995  _from */\n      dup5\n        /* \"PatientFile.sol\":8980:8996  isPatient[_from] */\n      0xffffffffffffffffffffffffffffffffffffffff\n      and\n      0xffffffffffffffffffffffffffffffffffffffff\n      and\n      dup2\n      mstore\n      0x20\n      add\n      swap1\n      dup2\n      mstore\n      0x20\n      add\n      0x00\n      keccak256\n      0x00\n      swap1\n      sload\n      swap1\n      0x0100\n      exp\n      swap1\n      div\n      0xff\n      and\n        /* \"PatientFile.sol\":8972:9023  require(isPatient[_from],\"User Not Registered yet\") */\n      tag_337\n      jumpi\n      mload(0x40)\n      0x08c379a000000000000000000000000000000000000000000000000000000000\n      dup2\n      mstore\n      0x04\n      add\n      tag_338\n      swap1\n      tag_115\n      jump\t// in\n    tag_338:\n      mload(0x40)\n      dup1\n      swap2\n      sub\n      swap1\n      revert\n    tag_337:\n        /* \"PatientFile.sol\":9055:9059  true */\n      0x01\n        /* \"PatientFile.sol\":9034:9040  isAuth */\n      0x08\n        /* \"PatientFile.sol\":9034:9047  isAuth[_from] */\n      0x00\n        /* \"PatientFile.sol\":9041:9046  _from */\n      dup6\n        /* \"PatientFile.sol\":9034:9047  isAuth[_from] */\n      0xffffffffffffffffffffffffffffffffffffffff\n      and\n      0xffffffffffffffffffffffffffffffffffffffff\n      and\n      dup2\n      mstore\n      0x20\n      add\n      swap1\n      dup2\n      mstore\n      0x20\n      add\n      0x00\n      keccak256\n        /* \"PatientFile.sol\":9034:9052  isAuth[_from][_to] */\n      0x00\n        /* \"PatientFile.sol\":9048:9051  _to */\n      dup5\n        /* \"PatientFile.sol\":9034:9052  isAuth[_from][_to] */\n      0xffffffffffffffffffffffffffffffffffffffff\n      and\n      0xffffffffffffffffffffffffffffffffffffffff\n      and\n      dup2\n      mstore\n      0x20\n      add\n      swap1\n      dup2\n      mstore\n      0x20\n      add\n      0x00\n      keccak256\n      0x00\n        /* \"PatientFile.sol\":9034:9059  isAuth[_from][_to] = true */\n      0x0100\n      exp\n      dup2\n      sload\n      dup2\n      0xff\n      mul\n      not\n      and\n      swap1\n      dup4\n      iszero\n      iszero\n      mul\n      or\n      swap1\n      sstore\n      pop\n        /* \"PatientFile.sol\":9077:9081  true */\n      0x01\n        /* \"PatientFile.sol\":9070:9081  return true */\n      swap1\n      pop\n        /* \"PatientFile.sol\":8687:9089  function addAuthFromTo(address _from,address _to) public returns(bool success) {... */\n      swap3\n      swap2\n      pop\n      pop\n      jump\t// out\n        /* \"PatientFile.sol\":5647:6052  function addRecord(address _addr,string memory _hname,string memory _reason,string memory _admittedOn,string memory _dischargedOn,string memory _ipfs) public{... */\n    tag_93:\n        /* \"PatientFile.sol\":5823:5832  isPatient */\n      0x0a\n        /* \"PatientFile.sol\":5823:5839  isPatient[_addr] */\n      0x00\n        /* \"PatientFile.sol\":5833:5838  _addr */\n      dup8\n        /* \"PatientFile.sol\":5823:5839  isPatient[_addr] */\n      0xffffffffffffffffffffffffffffffffffffffff\n      and\n      0xffffffffffffffffffffffffffffffffffffffff\n      and\n      dup2\n      mstore\n      0x20\n      add\n      swap1\n      dup2\n      mstore\n      0x20\n      add\n      0x00\n      keccak256\n      0x00\n      swap1\n      sload\n      swap1\n      0x0100\n      exp\n      swap1\n      div\n      0xff\n      and\n        /* \"PatientFile.sol\":5815:5862  require(isPatient[_addr],\"User Not registered\") */\n      tag_340\n      jumpi\n      mload(0x40)\n      0x08c379a000000000000000000000000000000000000000000000000000000000\n      dup2\n      mstore\n      0x04\n      add\n      tag_341\n      swap1\n      tag_342\n      jump\t// in\n    tag_341:\n      mload(0x40)\n      dup1\n      swap2\n      sub\n      swap1\n      revert\n    tag_340:\n        /* \"PatientFile.sol\":5881:5887  isAuth */\n      0x08\n        /* \"PatientFile.sol\":5881:5894  isAuth[_addr] */\n      0x00\n        /* \"PatientFile.sol\":5888:5893  _addr */\n      dup8\n        /* \"PatientFile.sol\":5881:5894  isAuth[_addr] */\n      0xffffffffffffffffffffffffffffffffffffffff\n      and\n      0xffffffffffffffffffffffffffffffffffffffff\n      and\n      dup2\n      mstore\n      0x20\n      add\n      swap1\n      dup2\n      mstore\n      0x20\n      add\n      0x00\n      keccak256\n        /* \"PatientFile.sol\":5881:5906  isAuth[_addr][msg.sender] */\n      0x00\n        /* \"PatientFile.sol\":5895:5905  msg.sender */\n      caller\n        /* \"PatientFile.sol\":5881:5906  isAuth[_addr][msg.sender] */\n      0xffffffffffffffffffffffffffffffffffffffff\n      and\n      0xffffffffffffffffffffffffffffffffffffffff\n      and\n      dup2\n      mstore\n      0x20\n      add\n      swap1\n      dup2\n      mstore\n      0x20\n      add\n      0x00\n      keccak256\n      0x00\n      swap1\n      sload\n      swap1\n      0x0100\n      exp\n      swap1\n      div\n      0xff\n      and\n        /* \"PatientFile.sol\":5873:5938  require(isAuth[_addr][msg.sender],\"No permission to add Records\") */\n      tag_343\n      jumpi\n      mload(0x40)\n      0x08c379a000000000000000000000000000000000000000000000000000000000\n      dup2\n      mstore\n      0x04\n      add\n      tag_344\n      swap1\n      tag_345\n      jump\t// in\n    tag_344:\n      mload(0x40)\n      dup1\n      swap2\n      sub\n      swap1\n      revert\n    tag_343:\n        /* \"PatientFile.sol\":5949:5957  patients */\n      0x09\n        /* \"PatientFile.sol\":5949:5964  patients[_addr] */\n      0x00\n        /* \"PatientFile.sol\":5958:5963  _addr */\n      dup8\n        /* \"PatientFile.sol\":5949:5964  patients[_addr] */\n      0xffffffffffffffffffffffffffffffffffffffff\n      and\n      0xffffffffffffffffffffffffffffffffffffffff\n      and\n      dup2\n      mstore\n      0x20\n      add\n      swap1\n      dup2\n      mstore\n      0x20\n      add\n      0x00\n      keccak256\n        /* \"PatientFile.sol\":5949:5972  patients[_addr].records */\n      0x07\n      add\n        /* \"PatientFile.sol\":5978:6033  Records(_hname,_reason,_admittedOn,_dischargedOn,_ipfs) */\n      mload(0x40)\n      dup1\n      0xa0\n      add\n      0x40\n      mstore\n      dup1\n        /* \"PatientFile.sol\":5986:5992  _hname */\n      dup8\n        /* \"PatientFile.sol\":5978:6033  Records(_hname,_reason,_admittedOn,_dischargedOn,_ipfs) */\n      dup2\n      mstore\n      0x20\n      add\n        /* \"PatientFile.sol\":5993:6000  _reason */\n      dup7\n        /* \"PatientFile.sol\":5978:6033  Records(_hname,_reason,_admittedOn,_dischargedOn,_ipfs) */\n      dup2\n      mstore\n      0x20\n      add\n        /* \"PatientFile.sol\":6001:6012  _admittedOn */\n      dup6\n        /* \"PatientFile.sol\":5978:6033  Records(_hname,_reason,_admittedOn,_dischargedOn,_ipfs) */\n      dup2\n      mstore\n      0x20\n      add\n        /* \"PatientFile.sol\":6013:6026  _dischargedOn */\n      dup5\n        /* \"PatientFile.sol\":5978:6033  Records(_hname,_reason,_admittedOn,_dischargedOn,_ipfs) */\n      dup2\n      mstore\n      0x20\n      add\n        /* \"PatientFile.sol\":6027:6032  _ipfs */\n      dup4\n        /* \"PatientFile.sol\":5978:6033  Records(_hname,_reason,_admittedOn,_dischargedOn,_ipfs) */\n      dup2\n      mstore\n      pop\n        /* \"PatientFile.sol\":5949:6034  patients[_addr].records.push(Records(_hname,_reason,_admittedOn,_dischargedOn,_ipfs)) */\n      swap1\n      dup1\n      0x01\n      dup2\n      sload\n      add\n      dup1\n      dup3\n      sstore\n      dup1\n      swap2\n      pop\n      pop\n      0x01\n      swap1\n      sub\n      swap1\n      0x00\n      mstore\n      keccak256(0x00, 0x20)\n      swap1\n      0x05\n      mul\n      add\n      0x00\n      swap1\n      swap2\n      swap1\n      swap2\n      swap1\n      swap2\n      pop\n      0x00\n      dup3\n      add\n      mload\n      dup2\n      0x00\n      add\n      swap1\n      dup1\n      mload\n      swap1\n      0x20\n      add\n      swap1\n      tag_347\n      swap3\n      swap2\n      swap1\n      tag_301\n      jump\t// in\n    tag_347:\n      pop\n      0x20\n      dup3\n      add\n      mload\n      dup2\n      0x01\n      add\n      swap1\n      dup1\n      mload\n      swap1\n      0x20\n      add\n      swap1\n      tag_348\n      swap3\n      swap2\n      swap1\n      tag_301\n      jump\t// in\n    tag_348:\n      pop\n      0x40\n      dup3\n      add\n      mload\n      dup2\n      0x02\n      add\n      swap1\n      dup1\n      mload\n      swap1\n      0x20\n      add\n      swap1\n      tag_349\n      swap3\n      swap2\n      swap1\n      tag_301\n      jump\t// in\n    tag_349:\n      pop\n      0x60\n      dup3\n      add\n      mload\n      dup2\n      0x03\n      add\n      swap1\n      dup1\n      mload\n      swap1\n      0x20\n      add\n      swap1\n      tag_350\n      swap3\n      swap2\n      swap1\n      tag_301\n      jump\t// in\n    tag_350:\n      pop\n      0x80\n      dup3\n      add\n      mload\n      dup2\n      0x04\n      add\n      swap1\n      dup1\n      mload\n      swap1\n      0x20\n      add\n      swap1\n      tag_351\n      swap3\n      swap2\n      swap1\n      tag_301\n      jump\t// in\n    tag_351:\n      pop\n      pop\n      pop\n        /* \"PatientFile.sol\":5647:6052  function addRecord(address _addr,string memory _hname,string memory _reason,string memory _admittedOn,string memory _dischargedOn,string memory _ipfs) public{... */\n      pop\n      pop\n      pop\n      pop\n      pop\n      pop\n      jump\t// out\n        /* \"PatientFile.sol\":6141:6630  function getPatientDetails(address _addr) public view returns(string memory _name,string memory _phone,string memory _gender,string memory _dob,string memory _bloodgroup,string memory _allergies){... */\n    tag_96:\n        /* \"PatientFile.sol\":6203:6222  string memory _name */\n      0x60\n        /* \"PatientFile.sol\":6223:6243  string memory _phone */\n      dup1\n        /* \"PatientFile.sol\":6244:6265  string memory _gender */\n      0x60\n        /* \"PatientFile.sol\":6266:6284  string memory _dob */\n      dup1\n        /* \"PatientFile.sol\":6285:6310  string memory _bloodgroup */\n      0x60\n        /* \"PatientFile.sol\":6311:6335  string memory _allergies */\n      dup1\n        /* \"PatientFile.sol\":6355:6361  isAuth */\n      0x08\n        /* \"PatientFile.sol\":6355:6368  isAuth[_addr] */\n      0x00\n        /* \"PatientFile.sol\":6362:6367  _addr */\n      dup9\n        /* \"PatientFile.sol\":6355:6368  isAuth[_addr] */\n      0xffffffffffffffffffffffffffffffffffffffff\n      and\n      0xffffffffffffffffffffffffffffffffffffffff\n      and\n      dup2\n      mstore\n      0x20\n      add\n      swap1\n      dup2\n      mstore\n      0x20\n      add\n      0x00\n      keccak256\n        /* \"PatientFile.sol\":6355:6380  isAuth[_addr][msg.sender] */\n      0x00\n        /* \"PatientFile.sol\":6369:6379  msg.sender */\n      caller\n        /* \"PatientFile.sol\":6355:6380  isAuth[_addr][msg.sender] */\n      0xffffffffffffffffffffffffffffffffffffffff\n      and\n      0xffffffffffffffffffffffffffffffffffffffff\n      and\n      dup2\n      mstore\n      0x20\n      add\n      swap1\n      dup2\n      mstore\n      0x20\n      add\n      0x00\n      keccak256\n      0x00\n      swap1\n      sload\n      swap1\n      0x0100\n      exp\n      swap1\n      div\n      0xff\n      and\n        /* \"PatientFile.sol\":6347:6412  require(isAuth[_addr][msg.sender],\"No permission to get Records\") */\n      tag_353\n      jumpi\n      mload(0x40)\n      0x08c379a000000000000000000000000000000000000000000000000000000000\n      dup2\n      mstore\n      0x04\n      add\n      tag_354\n      swap1\n      tag_132\n      jump\t// in\n    tag_354:\n      mload(0x40)\n      dup1\n      swap2\n      sub\n      swap1\n      revert\n    tag_353:\n        /* \"PatientFile.sol\":6431:6440  isPatient */\n      0x0a\n        /* \"PatientFile.sol\":6431:6447  isPatient[_addr] */\n      0x00\n        /* \"PatientFile.sol\":6441:6446  _addr */\n      dup9\n        /* \"PatientFile.sol\":6431:6447  isPatient[_addr] */\n      0xffffffffffffffffffffffffffffffffffffffff\n      and\n      0xffffffffffffffffffffffffffffffffffffffff\n      and\n      dup2\n      mstore\n      0x20\n      add\n      swap1\n      dup2\n      mstore\n      0x20\n      add\n      0x00\n      keccak256\n      0x00\n      swap1\n      sload\n      swap1\n      0x0100\n      exp\n      swap1\n      div\n      0xff\n      and\n        /* \"PatientFile.sol\":6423:6489  require(isPatient[_addr],\"No Patients found at the given address\") */\n      tag_355\n      jumpi\n      mload(0x40)\n      0x08c379a000000000000000000000000000000000000000000000000000000000\n      dup2\n      mstore\n      0x04\n      add\n      tag_356\n      swap1\n      tag_357\n      jump\t// in\n    tag_356:\n      mload(0x40)\n      dup1\n      swap2\n      sub\n      swap1\n      revert\n    tag_355:\n        /* \"PatientFile.sol\":6500:6518  Patient memory tmp */\n      0x00\n        /* \"PatientFile.sol\":6521:6529  patients */\n      0x09\n        /* \"PatientFile.sol\":6521:6536  patients[_addr] */\n      0x00\n        /* \"PatientFile.sol\":6530:6535  _addr */\n      dup10\n        /* \"PatientFile.sol\":6521:6536  patients[_addr] */\n      0xffffffffffffffffffffffffffffffffffffffff\n      and\n      0xffffffffffffffffffffffffffffffffffffffff\n      and\n      dup2\n      mstore\n      0x20\n      add\n      swap1\n      dup2\n      mstore\n      0x20\n      add\n      0x00\n      keccak256\n        /* \"PatientFile.sol\":6500:6536  Patient memory tmp = patients[_addr] */\n      mload(0x40)\n      dup1\n      0x0120\n      add\n      0x40\n      mstore\n      swap1\n      dup2\n      0x00\n      dup3\n      add\n      sload\n      dup2\n      mstore\n      0x20\n      add\n      0x01\n      dup3\n      add\n      dup1\n      sload\n      tag_358\n      swap1\n      tag_168\n      jump\t// in\n    tag_358:\n      dup1\n      0x1f\n      add\n      0x20\n      dup1\n      swap2\n      div\n      mul\n      0x20\n      add\n      mload(0x40)\n      swap1\n      dup2\n      add\n      0x40\n      mstore\n      dup1\n      swap3\n      swap2\n      swap1\n      dup2\n      dup2\n      mstore\n      0x20\n      add\n      dup3\n      dup1\n      sload\n      tag_359\n      swap1\n      tag_168\n      jump\t// in\n    tag_359:\n      dup1\n      iszero\n      tag_360\n      jumpi\n      dup1\n      0x1f\n      lt\n      tag_361\n      jumpi\n      0x0100\n      dup1\n      dup4\n      sload\n      div\n      mul\n      dup4\n      mstore\n      swap2\n      0x20\n      add\n      swap2\n      jump(tag_360)\n    tag_361:\n      dup3\n      add\n      swap2\n      swap1\n      0x00\n      mstore\n      keccak256(0x00, 0x20)\n      swap1\n    tag_362:\n      dup2\n      sload\n      dup2\n      mstore\n      swap1\n      0x01\n      add\n      swap1\n      0x20\n      add\n      dup1\n      dup4\n      gt\n      tag_362\n      jumpi\n      dup3\n      swap1\n      sub\n      0x1f\n      and\n      dup3\n      add\n      swap2\n    tag_360:\n      pop\n      pop\n      pop\n      pop\n      pop\n      dup2\n      mstore\n      0x20\n      add\n      0x02\n      dup3\n      add\n      dup1\n      sload\n      tag_363\n      swap1\n      tag_168\n      jump\t// in\n    tag_363:\n      dup1\n      0x1f\n      add\n      0x20\n      dup1\n      swap2\n      div\n      mul\n      0x20\n      add\n      mload(0x40)\n      swap1\n      dup2\n      add\n      0x40\n      mstore\n      dup1\n      swap3\n      swap2\n      swap1\n      dup2\n      dup2\n      mstore\n      0x20\n      add\n      dup3\n      dup1\n      sload\n      tag_364\n      swap1\n      tag_168\n      jump\t// in\n    tag_364:\n      dup1\n      iszero\n      tag_365\n      jumpi\n      dup1\n      0x1f\n      lt\n      tag_366\n      jumpi\n      0x0100\n      dup1\n      dup4\n      sload\n      div\n      mul\n      dup4\n      mstore\n      swap2\n      0x20\n      add\n      swap2\n      jump(tag_365)\n    tag_366:\n      dup3\n      add\n      swap2\n      swap1\n      0x00\n      mstore\n      keccak256(0x00, 0x20)\n      swap1\n    tag_367:\n      dup2\n      sload\n      dup2\n      mstore\n      swap1\n      0x01\n      add\n      swap1\n      0x20\n      add\n      dup1\n      dup4\n      gt\n      tag_367\n      jumpi\n      dup3\n      swap1\n      sub\n      0x1f\n      and\n      dup3\n      add\n      swap2\n    tag_365:\n      pop\n      pop\n      pop\n      pop\n      pop\n      dup2\n      mstore\n      0x20\n      add\n      0x03\n      dup3\n      add\n      dup1\n      sload\n      tag_368\n      swap1\n      tag_168\n      jump\t// in\n    tag_368:\n      dup1\n      0x1f\n      add\n      0x20\n      dup1\n      swap2\n      div\n      mul\n      0x20\n      add\n      mload(0x40)\n      swap1\n      dup2\n      add\n      0x40\n      mstore\n      dup1\n      swap3\n      swap2\n      swap1\n      dup2\n      dup2\n      mstore\n      0x20\n      add\n      dup3\n      dup1\n      sload\n      tag_369\n      swap1\n      tag_168\n      jump\t// in\n    tag_369:\n      dup1\n      iszero\n      tag_370\n      jumpi\n      dup1\n      0x1f\n      lt\n      tag_371\n      jumpi\n      0x0100\n      dup1\n      dup4\n      sload\n      div\n      mul\n      dup4\n      mstore\n      swap2\n      0x20\n      add\n      swap2\n      jump(tag_370)\n    tag_371:\n      dup3\n      add\n      swap2\n      swap1\n      0x00\n      mstore\n      keccak256(0x00, 0x20)\n      swap1\n    tag_372:\n      dup2\n      sload\n      dup2\n      mstore\n      swap1\n      0x01\n      add\n      swap1\n      0x20\n      add\n      dup1\n      dup4\n      gt\n      tag_372\n      jumpi\n      dup3\n      swap1\n      sub\n      0x1f\n      and\n      dup3\n      add\n      swap2\n    tag_370:\n      pop\n      pop\n      pop\n      pop\n      pop\n      dup2\n      mstore\n      0x20\n      add\n      0x04\n      dup3\n      add\n      dup1\n      sload\n      tag_373\n      swap1\n      tag_168\n      jump\t// in\n    tag_373:\n      dup1\n      0x1f\n      add\n      0x20\n      dup1\n      swap2\n      div\n      mul\n      0x20\n      add\n      mload(0x40)\n      swap1\n      dup2\n      add\n      0x40\n      mstore\n      dup1\n      swap3\n      swap2\n      swap1\n      dup2\n      dup2\n      mstore\n      0x20\n      add\n      dup3\n      dup1\n      sload\n      tag_374\n      swap1\n      tag_168\n      jump\t// in\n    tag_374:\n      dup1\n      iszero\n      tag_375\n      jumpi\n      dup1\n      0x1f\n      lt\n      tag_376\n      jumpi\n      0x0100\n      dup1\n      dup4\n      sload\n      div\n      mul\n      dup4\n      mstore\n      swap2\n      0x20\n      add\n      swap2\n      jump(tag_375)\n    tag_376:\n      dup3\n      add\n      swap2\n      swap1\n      0x00\n      mstore\n      keccak256(0x00, 0x20)\n      swap1\n    tag_377:\n      dup2\n      sload\n      dup2\n      mstore\n      swap1\n      0x01\n      add\n      swap1\n      0x20\n      add\n      dup1\n      dup4\n      gt\n      tag_377\n      jumpi\n      dup3\n      swap1\n      sub\n      0x1f\n      and\n      dup3\n      add\n      swap2\n    tag_375:\n      pop\n      pop\n      pop\n      pop\n      pop\n      dup2\n      mstore\n      0x20\n      add\n      0x05\n      dup3\n      add\n      dup1\n      sload\n      tag_378\n      swap1\n      tag_168\n      jump\t// in\n    tag_378:\n      dup1\n      0x1f\n      add\n      0x20\n      dup1\n      swap2\n      div\n      mul\n      0x20\n      add\n      mload(0x40)\n      swap1\n      dup2\n      add\n      0x40\n      mstore\n      dup1\n      swap3\n      swap2\n      swap1\n      dup2\n      dup2\n      mstore\n      0x20\n      add\n      dup3\n      dup1\n      sload\n      tag_379\n      swap1\n      tag_168\n      jump\t// in\n    tag_379:\n      dup1\n      iszero\n      tag_380\n      jumpi\n      dup1\n      0x1f\n      lt\n      tag_381\n      jumpi\n      0x0100\n      dup1\n      dup4\n      sload\n      div\n      mul\n      dup4\n      mstore\n      swap2\n      0x20\n      add\n      swap2\n      jump(tag_380)\n    tag_381:\n      dup3\n      add\n      swap2\n      swap1\n      0x00\n      mstore\n      keccak256(0x00, 0x20)\n      swap1\n    tag_382:\n      dup2\n      sload\n      dup2\n      mstore\n      swap1\n      0x01\n      add\n      swap1\n      0x20\n      add\n      dup1\n      dup4\n      gt\n      tag_382\n      jumpi\n      dup3\n      swap1\n      sub\n      0x1f\n      and\n      dup3\n      add\n      swap2\n    tag_380:\n      pop\n      pop\n      pop\n      pop\n      pop\n      dup2\n      mstore\n      0x20\n      add\n      0x06\n      dup3\n      add\n      dup1\n      sload\n      tag_383\n      swap1\n      tag_168\n      jump\t// in\n    tag_383:\n      dup1\n      0x1f\n      add\n      0x20\n      dup1\n      swap2\n      div\n      mul\n      0x20\n      add\n      mload(0x40)\n      swap1\n      dup2\n      add\n      0x40\n      mstore\n      dup1\n      swap3\n      swap2\n      swap1\n      dup2\n      dup2\n      mstore\n      0x20\n      add\n      dup3\n      dup1\n      sload\n      tag_384\n      swap1\n      tag_168\n      jump\t// in\n    tag_384:\n      dup1\n      iszero\n      tag_385\n      jumpi\n      dup1\n      0x1f\n      lt\n      tag_386\n      jumpi\n      0x0100\n      dup1\n      dup4\n      sload\n      div\n      mul\n      dup4\n      mstore\n      swap2\n      0x20\n      add\n      swap2\n      jump(tag_385)\n    tag_386:\n      dup3\n      add\n      swap2\n      swap1\n      0x00\n      mstore\n      keccak256(0x00, 0x20)\n      swap1\n    tag_387:\n      dup2\n      sload\n      dup2\n      mstore\n      swap1\n      0x01\n      add\n      swap1\n      0x20\n      add\n      dup1\n      dup4\n      gt\n      tag_387\n      jumpi\n      dup3\n      swap1\n      sub\n      0x1f\n      and\n      dup3\n      add\n      swap2\n    tag_385:\n      pop\n      pop\n      pop\n      pop\n      pop\n      dup2\n      mstore\n      0x20\n      add\n      0x07\n      dup3\n      add\n      dup1\n      sload\n      dup1\n      0x20\n      mul\n      0x20\n      add\n      mload(0x40)\n      swap1\n      dup2\n      add\n      0x40\n      mstore\n      dup1\n      swap3\n      swap2\n      swap1\n      dup2\n      dup2\n      mstore\n      0x20\n      add\n      0x00\n      swap1\n    tag_388:\n      dup3\n      dup3\n      lt\n      iszero\n      tag_389\n      jumpi\n      dup4\n      dup3\n      swap1\n      0x00\n      mstore\n      keccak256(0x00, 0x20)\n      swap1\n      0x05\n      mul\n      add\n      mload(0x40)\n      dup1\n      0xa0\n      add\n      0x40\n      mstore\n      swap1\n      dup2\n      0x00\n      dup3\n      add\n      dup1\n      sload\n      tag_391\n      swap1\n      tag_168\n      jump\t// in\n    tag_391:\n      dup1\n      0x1f\n      add\n      0x20\n      dup1\n      swap2\n      div\n      mul\n      0x20\n      add\n      mload(0x40)\n      swap1\n      dup2\n      add\n      0x40\n      mstore\n      dup1\n      swap3\n      swap2\n      swap1\n      dup2\n      dup2\n      mstore\n      0x20\n      add\n      dup3\n      dup1\n      sload\n      tag_392\n      swap1\n      tag_168\n      jump\t// in\n    tag_392:\n      dup1\n      iszero\n      tag_393\n      jumpi\n      dup1\n      0x1f\n      lt\n      tag_394\n      jumpi\n      0x0100\n      dup1\n      dup4\n      sload\n      div\n      mul\n      dup4\n      mstore\n      swap2\n      0x20\n      add\n      swap2\n      jump(tag_393)\n    tag_394:\n      dup3\n      add\n      swap2\n      swap1\n      0x00\n      mstore\n      keccak256(0x00, 0x20)\n      swap1\n    tag_395:\n      dup2\n      sload\n      dup2\n      mstore\n      swap1\n      0x01\n      add\n      swap1\n      0x20\n      add\n      dup1\n      dup4\n      gt\n      tag_395\n      jumpi\n      dup3\n      swap1\n      sub\n      0x1f\n      and\n      dup3\n      add\n      swap2\n    tag_393:\n      pop\n      pop\n      pop\n      pop\n      pop\n      dup2\n      mstore\n      0x20\n      add\n      0x01\n      dup3\n      add\n      dup1\n      sload\n      tag_396\n      swap1\n      tag_168\n      jump\t// in\n    tag_396:\n      dup1\n      0x1f\n      add\n      0x20\n      dup1\n      swap2\n      div\n      mul\n      0x20\n      add\n      mload(0x40)\n      swap1\n      dup2\n      add\n      0x40\n      mstore\n      dup1\n      swap3\n      swap2\n      swap1\n      dup2\n      dup2\n      mstore\n      0x20\n      add\n      dup3\n      dup1\n      sload\n      tag_397\n      swap1\n      tag_168\n      jump\t// in\n    tag_397:\n      dup1\n      iszero\n      tag_398\n      jumpi\n      dup1\n      0x1f\n      lt\n      tag_399\n      jumpi\n      0x0100\n      dup1\n      dup4\n      sload\n      div\n      mul\n      dup4\n      mstore\n      swap2\n      0x20\n      add\n      swap2\n      jump(tag_398)\n    tag_399:\n      dup3\n      add\n      swap2\n      swap1\n      0x00\n      mstore\n      keccak256(0x00, 0x20)\n      swap1\n    tag_400:\n      dup2\n      sload\n      dup2\n      mstore\n      swap1\n      0x01\n      add\n      swap1\n      0x20\n      add\n      dup1\n      dup4\n      gt\n      tag_400\n      jumpi\n      dup3\n      swap1\n      sub\n      0x1f\n      and\n      dup3\n      add\n      swap2\n    tag_398:\n      pop\n      pop\n      pop\n      pop\n      pop\n      dup2\n      mstore\n      0x20\n      add\n      0x02\n      dup3\n      add\n      dup1\n      sload\n      tag_401\n      swap1\n      tag_168\n      jump\t// in\n    tag_401:\n      dup1\n      0x1f\n      add\n      0x20\n      dup1\n      swap2\n      div\n      mul\n      0x20\n      add\n      mload(0x40)\n      swap1\n      dup2\n      add\n      0x40\n      mstore\n      dup1\n      swap3\n      swap2\n      swap1\n      dup2\n      dup2\n      mstore\n      0x20\n      add\n      dup3\n      dup1\n      sload\n      tag_402\n      swap1\n      tag_168\n      jump\t// in\n    tag_402:\n      dup1\n      iszero\n      tag_403\n      jumpi\n      dup1\n      0x1f\n      lt\n      tag_404\n      jumpi\n      0x0100\n      dup1\n      dup4\n      sload\n      div\n      mul\n      dup4\n      mstore\n      swap2\n      0x20\n      add\n      swap2\n      jump(tag_403)\n    tag_404:\n      dup3\n      add\n      swap2\n      swap1\n      0x00\n      mstore\n      keccak256(0x00, 0x20)\n      swap1\n    tag_405:\n      dup2\n      sload\n      dup2\n      mstore\n      swap1\n      0x01\n      add\n      swap1\n      0x20\n      add\n      dup1\n      dup4\n      gt\n      tag_405\n      jumpi\n      dup3\n      swap1\n      sub\n      0x1f\n      and\n      dup3\n      add\n      swap2\n    tag_403:\n      pop\n      pop\n      pop\n      pop\n      pop\n      dup2\n      mstore\n      0x20\n      add\n      0x03\n      dup3\n      add\n      dup1\n      sload\n      tag_406\n      swap1\n      tag_168\n      jump\t// in\n    tag_406:\n      dup1\n      0x1f\n      add\n      0x20\n      dup1\n      swap2\n      div\n      mul\n      0x20\n      add\n      mload(0x40)\n      swap1\n      dup2\n      add\n      0x40\n      mstore\n      dup1\n      swap3\n      swap2\n      swap1\n      dup2\n      dup2\n      mstore\n      0x20\n      add\n      dup3\n      dup1\n      sload\n      tag_407\n      swap1\n      tag_168\n      jump\t// in\n    tag_407:\n      dup1\n      iszero\n      tag_408\n      jumpi\n      dup1\n      0x1f\n      lt\n      tag_409\n      jumpi\n      0x0100\n      dup1\n      dup4\n      sload\n      div\n      mul\n      dup4\n      mstore\n      swap2\n      0x20\n      add\n      swap2\n      jump(tag_408)\n    tag_409:\n      dup3\n      add\n      swap2\n      swap1\n      0x00\n      mstore\n      keccak256(0x00, 0x20)\n      swap1\n    tag_410:\n      dup2\n      sload\n      dup2\n      mstore\n      swap1\n      0x01\n      add\n      swap1\n      0x20\n      add\n      dup1\n      dup4\n      gt\n      tag_410\n      jumpi\n      dup3\n      swap1\n      sub\n      0x1f\n      and\n      dup3\n      add\n      swap2\n    tag_408:\n      pop\n      pop\n      pop\n      pop\n      pop\n      dup2\n      mstore\n      0x20\n      add\n      0x04\n      dup3\n      add\n      dup1\n      sload\n      tag_411\n      swap1\n      tag_168\n      jump\t// in\n    tag_411:\n      dup1\n      0x1f\n      add\n      0x20\n      dup1\n      swap2\n      div\n      mul\n      0x20\n      add\n      mload(0x40)\n      swap1\n      dup2\n      add\n      0x40\n      mstore\n      dup1\n      swap3\n      swap2\n      swap1\n      dup2\n      dup2\n      mstore\n      0x20\n      add\n      dup3\n      dup1\n      sload\n      tag_412\n      swap1\n      tag_168\n      jump\t// in\n    tag_412:\n      dup1\n      iszero\n      tag_413\n      jumpi\n      dup1\n      0x1f\n      lt\n      tag_414\n      jumpi\n      0x0100\n      dup1\n      dup4\n      sload\n      div\n      mul\n      dup4\n      mstore\n      swap2\n      0x20\n      add\n      swap2\n      jump(tag_413)\n    tag_414:\n      dup3\n      add\n      swap2\n      swap1\n      0x00\n      mstore\n      keccak256(0x00, 0x20)\n      swap1\n    tag_415:\n      dup2\n      sload\n      dup2\n      mstore\n      swap1\n      0x01\n      add\n      swap1\n      0x20\n      add\n      dup1\n      dup4\n      gt\n      tag_415\n      jumpi\n      dup3\n      swap1\n      sub\n      0x1f\n      and\n      dup3\n      add\n      swap2\n    tag_413:\n      pop\n      pop\n      pop\n      pop\n      pop\n      dup2\n      mstore\n      pop\n      pop\n      dup2\n      mstore\n      0x20\n      add\n      swap1\n      0x01\n      add\n      swap1\n      jump(tag_388)\n    tag_389:\n      pop\n      pop\n      pop\n      pop\n      dup2\n      mstore\n      0x20\n      add\n      0x08\n      dup3\n      add\n      0x00\n      swap1\n      sload\n      swap1\n      0x0100\n      exp\n      swap1\n      div\n      0xffffffffffffffffffffffffffffffffffffffff\n      and\n      0xffffffffffffffffffffffffffffffffffffffff\n      and\n      0xffffffffffffffffffffffffffffffffffffffff\n      and\n      dup2\n      mstore\n      pop\n      pop\n      swap1\n      pop\n        /* \"PatientFile.sol\":6555:6558  tmp */\n      dup1\n        /* \"PatientFile.sol\":6555:6563  tmp.name */\n      0x20\n      add\n      mload\n        /* \"PatientFile.sol\":6564:6567  tmp */\n      dup2\n        /* \"PatientFile.sol\":6564:6573  tmp.phone */\n      0x40\n      add\n      mload\n        /* \"PatientFile.sol\":6574:6577  tmp */\n      dup3\n        /* \"PatientFile.sol\":6574:6584  tmp.gender */\n      0x60\n      add\n      mload\n        /* \"PatientFile.sol\":6585:6588  tmp */\n      dup4\n        /* \"PatientFile.sol\":6585:6592  tmp.dob */\n      0x80\n      add\n      mload\n        /* \"PatientFile.sol\":6593:6596  tmp */\n      dup5\n        /* \"PatientFile.sol\":6593:6607  tmp.bloodgroup */\n      0xa0\n      add\n      mload\n        /* \"PatientFile.sol\":6608:6611  tmp */\n      dup6\n        /* \"PatientFile.sol\":6608:6621  tmp.allergies */\n      0xc0\n      add\n      mload\n        /* \"PatientFile.sol\":6547:6622  return (tmp.name,tmp.phone,tmp.gender,tmp.dob,tmp.bloodgroup,tmp.allergies) */\n      swap7\n      pop\n      swap7\n      pop\n      swap7\n      pop\n      swap7\n      pop\n      swap7\n      pop\n      swap7\n      pop\n      pop\n        /* \"PatientFile.sol\":6141:6630  function getPatientDetails(address _addr) public view returns(string memory _name,string memory _phone,string memory _gender,string memory _dob,string memory _bloodgroup,string memory _allergies){... */\n      swap2\n      swap4\n      swap6\n      pop\n      swap2\n      swap4\n      swap6\n      jump\t// out\n        /* \"PatientFile.sol\":8351:8619  function revokeAuth(address _addr) public returns(bool success) {... */\n    tag_101:\n        /* \"PatientFile.sol\":8401:8413  bool success */\n      0x00\n        /* \"PatientFile.sol\":8446:8451  _addr */\n      dup2\n        /* \"PatientFile.sol\":8434:8451  msg.sender!=_addr */\n      0xffffffffffffffffffffffffffffffffffffffff\n      and\n        /* \"PatientFile.sol\":8434:8444  msg.sender */\n      caller\n        /* \"PatientFile.sol\":8434:8451  msg.sender!=_addr */\n      0xffffffffffffffffffffffffffffffffffffffff\n      and\n      eq\n      iszero\n        /* \"PatientFile.sol\":8426:8475  require(msg.sender!=_addr,\"Cant remove yourself\") */\n      tag_417\n      jumpi\n      mload(0x40)\n      0x08c379a000000000000000000000000000000000000000000000000000000000\n      dup2\n      mstore\n      0x04\n      add\n      tag_418\n      swap1\n      tag_419\n      jump\t// in\n    tag_418:\n      mload(0x40)\n      dup1\n      swap2\n      sub\n      swap1\n      revert\n    tag_417:\n        /* \"PatientFile.sol\":8494:8500  isAuth */\n      0x08\n        /* \"PatientFile.sol\":8494:8512  isAuth[msg.sender] */\n      0x00\n        /* \"PatientFile.sol\":8501:8511  msg.sender */\n      caller\n        /* \"PatientFile.sol\":8494:8512  isAuth[msg.sender] */\n      0xffffffffffffffffffffffffffffffffffffffff\n      and\n      0xffffffffffffffffffffffffffffffffffffffff\n      and\n      dup2\n      mstore\n      0x20\n      add\n      swap1\n      dup2\n      mstore\n      0x20\n      add\n      0x00\n      keccak256\n        /* \"PatientFile.sol\":8494:8519  isAuth[msg.sender][_addr] */\n      0x00\n        /* \"PatientFile.sol\":8513:8518  _addr */\n      dup4\n        /* \"PatientFile.sol\":8494:8519  isAuth[msg.sender][_addr] */\n      0xffffffffffffffffffffffffffffffffffffffff\n      and\n      0xffffffffffffffffffffffffffffffffffffffff\n      and\n      dup2\n      mstore\n      0x20\n      add\n      swap1\n      dup2\n      mstore\n      0x20\n      add\n      0x00\n      keccak256\n      0x00\n      swap1\n      sload\n      swap1\n      0x0100\n      exp\n      swap1\n      div\n      0xff\n      and\n        /* \"PatientFile.sol\":8486:8545  require(isAuth[msg.sender][_addr],\"Already Not Authorised\") */\n      tag_420\n      jumpi\n      mload(0x40)\n      0x08c379a000000000000000000000000000000000000000000000000000000000\n      dup2\n      mstore\n      0x04\n      add\n      tag_421\n      swap1\n      tag_422\n      jump\t// in\n    tag_421:\n      mload(0x40)\n      dup1\n      swap2\n      sub\n      swap1\n      revert\n    tag_420:\n        /* \"PatientFile.sol\":8584:8589  false */\n      0x00\n        /* \"PatientFile.sol\":8556:8562  isAuth */\n      0x08\n        /* \"PatientFile.sol\":8556:8574  isAuth[msg.sender] */\n      0x00\n        /* \"PatientFile.sol\":8563:8573  msg.sender */\n      caller\n        /* \"PatientFile.sol\":8556:8574  isAuth[msg.sender] */\n      0xffffffffffffffffffffffffffffffffffffffff\n      and\n      0xffffffffffffffffffffffffffffffffffffffff\n      and\n      dup2\n      mstore\n      0x20\n      add\n      swap1\n      dup2\n      mstore\n      0x20\n      add\n      0x00\n      keccak256\n        /* \"PatientFile.sol\":8556:8581  isAuth[msg.sender][_addr] */\n      0x00\n        /* \"PatientFile.sol\":8575:8580  _addr */\n      dup5\n        /* \"PatientFile.sol\":8556:8581  isAuth[msg.sender][_addr] */\n      0xffffffffffffffffffffffffffffffffffffffff\n      and\n      0xffffffffffffffffffffffffffffffffffffffff\n      and\n      dup2\n      mstore\n      0x20\n      add\n      swap1\n      dup2\n      mstore\n      0x20\n      add\n      0x00\n      keccak256\n      0x00\n        /* \"PatientFile.sol\":8556:8589  isAuth[msg.sender][_addr] = false */\n      0x0100\n      exp\n      dup2\n      sload\n      dup2\n      0xff\n      mul\n      not\n      and\n      swap1\n      dup4\n      iszero\n      iszero\n      mul\n      or\n      swap1\n      sstore\n      pop\n        /* \"PatientFile.sol\":8607:8611  true */\n      0x01\n        /* \"PatientFile.sol\":8600:8611  return true */\n      swap1\n      pop\n        /* \"PatientFile.sol\":8351:8619  function revokeAuth(address _addr) public returns(bool success) {... */\n      swap2\n      swap1\n      pop\n      jump\t// out\n    tag_301:\n      dup3\n      dup1\n      sload\n      tag_423\n      swap1\n      tag_168\n      jump\t// in\n    tag_423:\n      swap1\n      0x00\n      mstore\n      keccak256(0x00, 0x20)\n      swap1\n      0x1f\n      add\n      0x20\n      swap1\n      div\n      dup2\n      add\n      swap3\n      dup3\n      tag_425\n      jumpi\n      0x00\n      dup6\n      sstore\n      jump(tag_424)\n    tag_425:\n      dup3\n      0x1f\n      lt\n      tag_426\n      jumpi\n      dup1\n      mload\n      not(0xff)\n      and\n      dup4\n      dup1\n      add\n      or\n      dup6\n      sstore\n      jump(tag_424)\n    tag_426:\n      dup3\n      dup1\n      add\n      0x01\n      add\n      dup6\n      sstore\n      dup3\n      iszero\n      tag_424\n      jumpi\n      swap2\n      dup3\n      add\n    tag_427:\n      dup3\n      dup2\n      gt\n      iszero\n      tag_428\n      jumpi\n      dup3\n      mload\n      dup3\n      sstore\n      swap2\n      0x20\n      add\n      swap2\n      swap1\n      0x01\n      add\n      swap1\n      jump(tag_427)\n    tag_428:\n    tag_424:\n      pop\n      swap1\n      pop\n      tag_429\n      swap2\n      swap1\n      tag_430\n      jump\t// in\n    tag_429:\n      pop\n      swap1\n      jump\t// out\n    tag_430:\n    tag_431:\n      dup1\n      dup3\n      gt\n      iszero\n      tag_432\n      jumpi\n      0x00\n      dup2\n      0x00\n      swap1\n      sstore\n      pop\n      0x01\n      add\n      jump(tag_431)\n    tag_432:\n      pop\n      swap1\n      jump\t// out\n        /* \"#utility.yul\":7:82   */\n    tag_433:\n        /* \"#utility.yul\":40:46   */\n      0x00\n        /* \"#utility.yul\":73:75   */\n      0x40\n        /* \"#utility.yul\":67:76   */\n      mload\n        /* \"#utility.yul\":57:76   */\n      swap1\n      pop\n        /* \"#utility.yul\":7:82   */\n      swap1\n      jump\t// out\n        /* \"#utility.yul\":88:205   */\n    tag_434:\n        /* \"#utility.yul\":197:198   */\n      0x00\n        /* \"#utility.yul\":194:195   */\n      dup1\n        /* \"#utility.yul\":187:199   */\n      revert\n        /* \"#utility.yul\":211:328   */\n    tag_435:\n        /* \"#utility.yul\":320:321   */\n      0x00\n        /* \"#utility.yul\":317:318   */\n      dup1\n        /* \"#utility.yul\":310:322   */\n      revert\n        /* \"#utility.yul\":334:460   */\n    tag_436:\n        /* \"#utility.yul\":371:378   */\n      0x00\n        /* \"#utility.yul\":411:453   */\n      0xffffffffffffffffffffffffffffffffffffffff\n        /* \"#utility.yul\":404:409   */\n      dup3\n        /* \"#utility.yul\":400:454   */\n      and\n        /* \"#utility.yul\":389:454   */\n      swap1\n      pop\n        /* \"#utility.yul\":334:460   */\n      swap2\n      swap1\n      pop\n      jump\t// out\n        /* \"#utility.yul\":466:562   */\n    tag_437:\n        /* \"#utility.yul\":503:510   */\n      0x00\n        /* \"#utility.yul\":532:556   */\n      tag_528\n        /* \"#utility.yul\":550:555   */\n      dup3\n        /* \"#utility.yul\":532:556   */\n      tag_436\n      jump\t// in\n    tag_528:\n        /* \"#utility.yul\":521:556   */\n      swap1\n      pop\n        /* \"#utility.yul\":466:562   */\n      swap2\n      swap1\n      pop\n      jump\t// out\n        /* \"#utility.yul\":568:690   */\n    tag_438:\n        /* \"#utility.yul\":641:665   */\n      tag_530\n        /* \"#utility.yul\":659:664   */\n      dup2\n        /* \"#utility.yul\":641:665   */\n      tag_437\n      jump\t// in\n    tag_530:\n        /* \"#utility.yul\":634:639   */\n      dup2\n        /* \"#utility.yul\":631:666   */\n      eq\n        /* \"#utility.yul\":621:684   */\n      tag_531\n      jumpi\n        /* \"#utility.yul\":680:681   */\n      0x00\n        /* \"#utility.yul\":677:678   */\n      dup1\n        /* \"#utility.yul\":670:682   */\n      revert\n        /* \"#utility.yul\":621:684   */\n    tag_531:\n        /* \"#utility.yul\":568:690   */\n      pop\n      jump\t// out\n        /* \"#utility.yul\":696:835   */\n    tag_439:\n        /* \"#utility.yul\":742:747   */\n      0x00\n        /* \"#utility.yul\":780:786   */\n      dup2\n        /* \"#utility.yul\":767:787   */\n      calldataload\n        /* \"#utility.yul\":758:787   */\n      swap1\n      pop\n        /* \"#utility.yul\":796:829   */\n      tag_533\n        /* \"#utility.yul\":823:828   */\n      dup2\n        /* \"#utility.yul\":796:829   */\n      tag_438\n      jump\t// in\n    tag_533:\n        /* \"#utility.yul\":696:835   */\n      swap3\n      swap2\n      pop\n      pop\n      jump\t// out\n        /* \"#utility.yul\":841:1315   */\n    tag_26:\n        /* \"#utility.yul\":909:915   */\n      0x00\n        /* \"#utility.yul\":917:923   */\n      dup1\n        /* \"#utility.yul\":966:968   */\n      0x40\n        /* \"#utility.yul\":954:963   */\n      dup4\n        /* \"#utility.yul\":945:952   */\n      dup6\n        /* \"#utility.yul\":941:964   */\n      sub\n        /* \"#utility.yul\":937:969   */\n      slt\n        /* \"#utility.yul\":934:1053   */\n      iszero\n      tag_535\n      jumpi\n        /* \"#utility.yul\":972:1051   */\n      tag_536\n      tag_434\n      jump\t// in\n    tag_536:\n        /* \"#utility.yul\":934:1053   */\n    tag_535:\n        /* \"#utility.yul\":1092:1093   */\n      0x00\n        /* \"#utility.yul\":1117:1170   */\n      tag_537\n        /* \"#utility.yul\":1162:1169   */\n      dup6\n        /* \"#utility.yul\":1153:1159   */\n      dup3\n        /* \"#utility.yul\":1142:1151   */\n      dup7\n        /* \"#utility.yul\":1138:1160   */\n      add\n        /* \"#utility.yul\":1117:1170   */\n      tag_439\n      jump\t// in\n    tag_537:\n        /* \"#utility.yul\":1107:1170   */\n      swap3\n      pop\n        /* \"#utility.yul\":1063:1180   */\n      pop\n        /* \"#utility.yul\":1219:1221   */\n      0x20\n        /* \"#utility.yul\":1245:1298   */\n      tag_538\n        /* \"#utility.yul\":1290:1297   */\n      dup6\n        /* \"#utility.yul\":1281:1287   */\n      dup3\n        /* \"#utility.yul\":1270:1279   */\n      dup7\n        /* \"#utility.yul\":1266:1288   */\n      add\n        /* \"#utility.yul\":1245:1298   */\n      tag_439\n      jump\t// in\n    tag_538:\n        /* \"#utility.yul\":1235:1298   */\n      swap2\n      pop\n        /* \"#utility.yul\":1190:1308   */\n      pop\n        /* \"#utility.yul\":841:1315   */\n      swap3\n      pop\n      swap3\n      swap1\n      pop\n      jump\t// out\n        /* \"#utility.yul\":1321:1411   */\n    tag_440:\n        /* \"#utility.yul\":1355:1362   */\n      0x00\n        /* \"#utility.yul\":1398:1403   */\n      dup2\n        /* \"#utility.yul\":1391:1404   */\n      iszero\n        /* \"#utility.yul\":1384:1405   */\n      iszero\n        /* \"#utility.yul\":1373:1405   */\n      swap1\n      pop\n        /* \"#utility.yul\":1321:1411   */\n      swap2\n      swap1\n      pop\n      jump\t// out\n        /* \"#utility.yul\":1417:1526   */\n    tag_441:\n        /* \"#utility.yul\":1498:1519   */\n      tag_541\n        /* \"#utility.yul\":1513:1518   */\n      dup2\n        /* \"#utility.yul\":1498:1519   */\n      tag_440\n      jump\t// in\n    tag_541:\n        /* \"#utility.yul\":1493:1496   */\n      dup3\n        /* \"#utility.yul\":1486:1520   */\n      mstore\n        /* \"#utility.yul\":1417:1526   */\n      pop\n      pop\n      jump\t// out\n        /* \"#utility.yul\":1532:1742   */\n    tag_29:\n        /* \"#utility.yul\":1619:1623   */\n      0x00\n        /* \"#utility.yul\":1657:1659   */\n      0x20\n        /* \"#utility.yul\":1646:1655   */\n      dup3\n        /* \"#utility.yul\":1642:1660   */\n      add\n        /* \"#utility.yul\":1634:1660   */\n      swap1\n      pop\n        /* \"#utility.yul\":1670:1735   */\n      tag_543\n        /* \"#utility.yul\":1732:1733   */\n      0x00\n        /* \"#utility.yul\":1721:1730   */\n      dup4\n        /* \"#utility.yul\":1717:1734   */\n      add\n        /* \"#utility.yul\":1708:1714   */\n      dup5\n        /* \"#utility.yul\":1670:1735   */\n      tag_441\n      jump\t// in\n    tag_543:\n        /* \"#utility.yul\":1532:1742   */\n      swap3\n      swap2\n      pop\n      pop\n      jump\t// out\n        /* \"#utility.yul\":1748:1825   */\n    tag_442:\n        /* \"#utility.yul\":1785:1792   */\n      0x00\n        /* \"#utility.yul\":1814:1819   */\n      dup2\n        /* \"#utility.yul\":1803:1819   */\n      swap1\n      pop\n        /* \"#utility.yul\":1748:1825   */\n      swap2\n      swap1\n      pop\n      jump\t// out\n        /* \"#utility.yul\":1831:1953   */\n    tag_443:\n        /* \"#utility.yul\":1904:1928   */\n      tag_546\n        /* \"#utility.yul\":1922:1927   */\n      dup2\n        /* \"#utility.yul\":1904:1928   */\n      tag_442\n      jump\t// in\n    tag_546:\n        /* \"#utility.yul\":1897:1902   */\n      dup2\n        /* \"#utility.yul\":1894:1929   */\n      eq\n        /* \"#utility.yul\":1884:1947   */\n      tag_547\n      jumpi\n        /* \"#utility.yul\":1943:1944   */\n      0x00\n        /* \"#utility.yul\":1940:1941   */\n      dup1\n        /* \"#utility.yul\":1933:1945   */\n      revert\n        /* \"#utility.yul\":1884:1947   */\n    tag_547:\n        /* \"#utility.yul\":1831:1953   */\n      pop\n      jump\t// out\n        /* \"#utility.yul\":1959:2098   */\n    tag_444:\n        /* \"#utility.yul\":2005:2010   */\n      0x00\n        /* \"#utility.yul\":2043:2049   */\n      dup2\n        /* \"#utility.yul\":2030:2050   */\n      calldataload\n        /* \"#utility.yul\":2021:2050   */\n      swap1\n      pop\n        /* \"#utility.yul\":2059:2092   */\n      tag_549\n        /* \"#utility.yul\":2086:2091   */\n      dup2\n        /* \"#utility.yul\":2059:2092   */\n      tag_443\n      jump\t// in\n    tag_549:\n        /* \"#utility.yul\":1959:2098   */\n      swap3\n      swap2\n      pop\n      pop\n      jump\t// out\n        /* \"#utility.yul\":2104:2433   */\n    tag_32:\n        /* \"#utility.yul\":2163:2169   */\n      0x00\n        /* \"#utility.yul\":2212:2214   */\n      0x20\n        /* \"#utility.yul\":2200:2209   */\n      dup3\n        /* \"#utility.yul\":2191:2198   */\n      dup5\n        /* \"#utility.yul\":2187:2210   */\n      sub\n        /* \"#utility.yul\":2183:2215   */\n      slt\n        /* \"#utility.yul\":2180:2299   */\n      iszero\n      tag_551\n      jumpi\n        /* \"#utility.yul\":2218:2297   */\n      tag_552\n      tag_434\n      jump\t// in\n    tag_552:\n        /* \"#utility.yul\":2180:2299   */\n    tag_551:\n        /* \"#utility.yul\":2338:2339   */\n      0x00\n        /* \"#utility.yul\":2363:2416   */\n      tag_553\n        /* \"#utility.yul\":2408:2415   */\n      dup5\n        /* \"#utility.yul\":2399:2405   */\n      dup3\n        /* \"#utility.yul\":2388:2397   */\n      dup6\n        /* \"#utility.yul\":2384:2406   */\n      add\n        /* \"#utility.yul\":2363:2416   */\n      tag_444\n      jump\t// in\n    tag_553:\n        /* \"#utility.yul\":2353:2416   */\n      swap2\n      pop\n        /* \"#utility.yul\":2309:2426   */\n      pop\n        /* \"#utility.yul\":2104:2433   */\n      swap3\n      swap2\n      pop\n      pop\n      jump\t// out\n        /* \"#utility.yul\":2439:2557   */\n    tag_445:\n        /* \"#utility.yul\":2526:2550   */\n      tag_555\n        /* \"#utility.yul\":2544:2549   */\n      dup2\n        /* \"#utility.yul\":2526:2550   */\n      tag_437\n      jump\t// in\n    tag_555:\n        /* \"#utility.yul\":2521:2524   */\n      dup3\n        /* \"#utility.yul\":2514:2551   */\n      mstore\n        /* \"#utility.yul\":2439:2557   */\n      pop\n      pop\n      jump\t// out\n        /* \"#utility.yul\":2563:2785   */\n    tag_35:\n        /* \"#utility.yul\":2656:2660   */\n      0x00\n        /* \"#utility.yul\":2694:2696   */\n      0x20\n        /* \"#utility.yul\":2683:2692   */\n      dup3\n        /* \"#utility.yul\":2679:2697   */\n      add\n        /* \"#utility.yul\":2671:2697   */\n      swap1\n      pop\n        /* \"#utility.yul\":2707:2778   */\n      tag_557\n        /* \"#utility.yul\":2775:2776   */\n      0x00\n        /* \"#utility.yul\":2764:2773   */\n      dup4\n        /* \"#utility.yul\":2760:2777   */\n      add\n        /* \"#utility.yul\":2751:2757   */\n      dup5\n        /* \"#utility.yul\":2707:2778   */\n      tag_445\n      jump\t// in\n    tag_557:\n        /* \"#utility.yul\":2563:2785   */\n      swap3\n      swap2\n      pop\n      pop\n      jump\t// out\n        /* \"#utility.yul\":2791:3120   */\n    tag_38:\n        /* \"#utility.yul\":2850:2856   */\n      0x00\n        /* \"#utility.yul\":2899:2901   */\n      0x20\n        /* \"#utility.yul\":2887:2896   */\n      dup3\n        /* \"#utility.yul\":2878:2885   */\n      dup5\n        /* \"#utility.yul\":2874:2897   */\n      sub\n        /* \"#utility.yul\":2870:2902   */\n      slt\n        /* \"#utility.yul\":2867:2986   */\n      iszero\n      tag_559\n      jumpi\n        /* \"#utility.yul\":2905:2984   */\n      tag_560\n      tag_434\n      jump\t// in\n    tag_560:\n        /* \"#utility.yul\":2867:2986   */\n    tag_559:\n        /* \"#utility.yul\":3025:3026   */\n      0x00\n        /* \"#utility.yul\":3050:3103   */\n      tag_561\n        /* \"#utility.yul\":3095:3102   */\n      dup5\n        /* \"#utility.yul\":3086:3092   */\n      dup3\n        /* \"#utility.yul\":3075:3084   */\n      dup6\n        /* \"#utility.yul\":3071:3093   */\n      add\n        /* \"#utility.yul\":3050:3103   */\n      tag_439\n      jump\t// in\n    tag_561:\n        /* \"#utility.yul\":3040:3103   */\n      swap2\n      pop\n        /* \"#utility.yul\":2996:3113   */\n      pop\n        /* \"#utility.yul\":2791:3120   */\n      swap3\n      swap2\n      pop\n      pop\n      jump\t// out\n        /* \"#utility.yul\":3126:3250   */\n    tag_446:\n        /* \"#utility.yul\":3203:3209   */\n      0x00\n        /* \"#utility.yul\":3237:3242   */\n      dup2\n        /* \"#utility.yul\":3231:3243   */\n      mload\n        /* \"#utility.yul\":3221:3243   */\n      swap1\n      pop\n        /* \"#utility.yul\":3126:3250   */\n      swap2\n      swap1\n      pop\n      jump\t// out\n        /* \"#utility.yul\":3256:3450   */\n    tag_447:\n        /* \"#utility.yul\":3365:3376   */\n      0x00\n        /* \"#utility.yul\":3399:3405   */\n      dup3\n        /* \"#utility.yul\":3394:3397   */\n      dup3\n        /* \"#utility.yul\":3387:3406   */\n      mstore\n        /* \"#utility.yul\":3439:3443   */\n      0x20\n        /* \"#utility.yul\":3434:3437   */\n      dup3\n        /* \"#utility.yul\":3430:3444   */\n      add\n        /* \"#utility.yul\":3415:3444   */\n      swap1\n      pop\n        /* \"#utility.yul\":3256:3450   */\n      swap3\n      swap2\n      pop\n      pop\n      jump\t// out\n        /* \"#utility.yul\":3456:3598   */\n    tag_448:\n        /* \"#utility.yul\":3533:3537   */\n      0x00\n        /* \"#utility.yul\":3556:3559   */\n      dup2\n        /* \"#utility.yul\":3548:3559   */\n      swap1\n      pop\n        /* \"#utility.yul\":3586:3590   */\n      0x20\n        /* \"#utility.yul\":3581:3584   */\n      dup3\n        /* \"#utility.yul\":3577:3591   */\n      add\n        /* \"#utility.yul\":3569:3591   */\n      swap1\n      pop\n        /* \"#utility.yul\":3456:3598   */\n      swap2\n      swap1\n      pop\n      jump\t// out\n        /* \"#utility.yul\":3604:3703   */\n    tag_449:\n        /* \"#utility.yul\":3656:3662   */\n      0x00\n        /* \"#utility.yul\":3690:3695   */\n      dup2\n        /* \"#utility.yul\":3684:3696   */\n      mload\n        /* \"#utility.yul\":3674:3696   */\n      swap1\n      pop\n        /* \"#utility.yul\":3604:3703   */\n      swap2\n      swap1\n      pop\n      jump\t// out\n        /* \"#utility.yul\":3709:3868   */\n    tag_450:\n        /* \"#utility.yul\":3783:3794   */\n      0x00\n        /* \"#utility.yul\":3817:3823   */\n      dup3\n        /* \"#utility.yul\":3812:3815   */\n      dup3\n        /* \"#utility.yul\":3805:3824   */\n      mstore\n        /* \"#utility.yul\":3857:3861   */\n      0x20\n        /* \"#utility.yul\":3852:3855   */\n      dup3\n        /* \"#utility.yul\":3848:3862   */\n      add\n        /* \"#utility.yul\":3833:3862   */\n      swap1\n      pop\n        /* \"#utility.yul\":3709:3868   */\n      swap3\n      swap2\n      pop\n      pop\n      jump\t// out\n        /* \"#utility.yul\":3874:4181   */\n    tag_451:\n        /* \"#utility.yul\":3942:3943   */\n      0x00\n        /* \"#utility.yul\":3952:4065   */\n    tag_568:\n        /* \"#utility.yul\":3966:3972   */\n      dup4\n        /* \"#utility.yul\":3963:3964   */\n      dup2\n        /* \"#utility.yul\":3960:3973   */\n      lt\n        /* \"#utility.yul\":3952:4065   */\n      iszero\n      tag_570\n      jumpi\n        /* \"#utility.yul\":4051:4052   */\n      dup1\n        /* \"#utility.yul\":4046:4049   */\n      dup3\n        /* \"#utility.yul\":4042:4053   */\n      add\n        /* \"#utility.yul\":4036:4054   */\n      mload\n        /* \"#utility.yul\":4032:4033   */\n      dup2\n        /* \"#utility.yul\":4027:4030   */\n      dup5\n        /* \"#utility.yul\":4023:4034   */\n      add\n        /* \"#utility.yul\":4016:4055   */\n      mstore\n        /* \"#utility.yul\":3988:3990   */\n      0x20\n        /* \"#utility.yul\":3985:3986   */\n      dup2\n        /* \"#utility.yul\":3981:3991   */\n      add\n        /* \"#utility.yul\":3976:3991   */\n      swap1\n      pop\n        /* \"#utility.yul\":3952:4065   */\n      jump(tag_568)\n    tag_570:\n        /* \"#utility.yul\":4083:4089   */\n      dup4\n        /* \"#utility.yul\":4080:4081   */\n      dup2\n        /* \"#utility.yul\":4077:4090   */\n      gt\n        /* \"#utility.yul\":4074:4175   */\n      iszero\n      tag_571\n      jumpi\n        /* \"#utility.yul\":4163:4164   */\n      0x00\n        /* \"#utility.yul\":4154:4160   */\n      dup5\n        /* \"#utility.yul\":4149:4152   */\n      dup5\n        /* \"#utility.yul\":4145:4161   */\n      add\n        /* \"#utility.yul\":4138:4165   */\n      mstore\n        /* \"#utility.yul\":4074:4175   */\n    tag_571:\n        /* \"#utility.yul\":3923:4181   */\n      pop\n        /* \"#utility.yul\":3874:4181   */\n      pop\n      pop\n      pop\n      jump\t// out\n        /* \"#utility.yul\":4187:4289   */\n    tag_452:\n        /* \"#utility.yul\":4228:4234   */\n      0x00\n        /* \"#utility.yul\":4279:4281   */\n      0x1f\n        /* \"#utility.yul\":4275:4282   */\n      not\n        /* \"#utility.yul\":4270:4272   */\n      0x1f\n        /* \"#utility.yul\":4263:4268   */\n      dup4\n        /* \"#utility.yul\":4259:4273   */\n      add\n        /* \"#utility.yul\":4255:4283   */\n      and\n        /* \"#utility.yul\":4245:4283   */\n      swap1\n      pop\n        /* \"#utility.yul\":4187:4289   */\n      swap2\n      swap1\n      pop\n      jump\t// out\n        /* \"#utility.yul\":4295:4639   */\n    tag_453:\n        /* \"#utility.yul\":4373:4376   */\n      0x00\n        /* \"#utility.yul\":4401:4440   */\n      tag_574\n        /* \"#utility.yul\":4434:4439   */\n      dup3\n        /* \"#utility.yul\":4401:4440   */\n      tag_449\n      jump\t// in\n    tag_574:\n        /* \"#utility.yul\":4456:4517   */\n      tag_575\n        /* \"#utility.yul\":4510:4516   */\n      dup2\n        /* \"#utility.yul\":4505:4508   */\n      dup6\n        /* \"#utility.yul\":4456:4517   */\n      tag_450\n      jump\t// in\n    tag_575:\n        /* \"#utility.yul\":4449:4517   */\n      swap4\n      pop\n        /* \"#utility.yul\":4526:4578   */\n      tag_576\n        /* \"#utility.yul\":4571:4577   */\n      dup2\n        /* \"#utility.yul\":4566:4569   */\n      dup6\n        /* \"#utility.yul\":4559:4563   */\n      0x20\n        /* \"#utility.yul\":4552:4557   */\n      dup7\n        /* \"#utility.yul\":4548:4564   */\n      add\n        /* \"#utility.yul\":4526:4578   */\n      tag_451\n      jump\t// in\n    tag_576:\n        /* \"#utility.yul\":4603:4632   */\n      tag_577\n        /* \"#utility.yul\":4625:4631   */\n      dup2\n        /* \"#utility.yul\":4603:4632   */\n      tag_452\n      jump\t// in\n    tag_577:\n        /* \"#utility.yul\":4598:4601   */\n      dup5\n        /* \"#utility.yul\":4594:4633   */\n      add\n        /* \"#utility.yul\":4587:4633   */\n      swap2\n      pop\n        /* \"#utility.yul\":4377:4639   */\n      pop\n        /* \"#utility.yul\":4295:4639   */\n      swap3\n      swap2\n      pop\n      pop\n      jump\t// out\n        /* \"#utility.yul\":4645:4841   */\n    tag_454:\n        /* \"#utility.yul\":4734:4744   */\n      0x00\n        /* \"#utility.yul\":4769:4835   */\n      tag_579\n        /* \"#utility.yul\":4831:4834   */\n      dup4\n        /* \"#utility.yul\":4823:4829   */\n      dup4\n        /* \"#utility.yul\":4769:4835   */\n      tag_453\n      jump\t// in\n    tag_579:\n        /* \"#utility.yul\":4755:4835   */\n      swap1\n      pop\n        /* \"#utility.yul\":4645:4841   */\n      swap3\n      swap2\n      pop\n      pop\n      jump\t// out\n        /* \"#utility.yul\":4847:4970   */\n    tag_455:\n        /* \"#utility.yul\":4927:4931   */\n      0x00\n        /* \"#utility.yul\":4959:4963   */\n      0x20\n        /* \"#utility.yul\":4954:4957   */\n      dup3\n        /* \"#utility.yul\":4950:4964   */\n      add\n        /* \"#utility.yul\":4942:4964   */\n      swap1\n      pop\n        /* \"#utility.yul\":4847:4970   */\n      swap2\n      swap1\n      pop\n      jump\t// out\n        /* \"#utility.yul\":5004:5995   */\n    tag_456:\n        /* \"#utility.yul\":5143:5146   */\n      0x00\n        /* \"#utility.yul\":5172:5236   */\n      tag_582\n        /* \"#utility.yul\":5230:5235   */\n      dup3\n        /* \"#utility.yul\":5172:5236   */\n      tag_446\n      jump\t// in\n    tag_582:\n        /* \"#utility.yul\":5252:5348   */\n      tag_583\n        /* \"#utility.yul\":5341:5347   */\n      dup2\n        /* \"#utility.yul\":5336:5339   */\n      dup6\n        /* \"#utility.yul\":5252:5348   */\n      tag_447\n      jump\t// in\n    tag_583:\n        /* \"#utility.yul\":5245:5348   */\n      swap4\n      pop\n        /* \"#utility.yul\":5374:5377   */\n      dup4\n        /* \"#utility.yul\":5419:5423   */\n      0x20\n        /* \"#utility.yul\":5411:5417   */\n      dup3\n        /* \"#utility.yul\":5407:5424   */\n      mul\n        /* \"#utility.yul\":5402:5405   */\n      dup6\n        /* \"#utility.yul\":5398:5425   */\n      add\n        /* \"#utility.yul\":5449:5515   */\n      tag_584\n        /* \"#utility.yul\":5509:5514   */\n      dup6\n        /* \"#utility.yul\":5449:5515   */\n      tag_448\n      jump\t// in\n    tag_584:\n        /* \"#utility.yul\":5538:5545   */\n      dup1\n        /* \"#utility.yul\":5569:5570   */\n      0x00\n        /* \"#utility.yul\":5554:5950   */\n    tag_585:\n        /* \"#utility.yul\":5579:5585   */\n      dup6\n        /* \"#utility.yul\":5576:5577   */\n      dup2\n        /* \"#utility.yul\":5573:5586   */\n      lt\n        /* \"#utility.yul\":5554:5950   */\n      iszero\n      tag_587\n      jumpi\n        /* \"#utility.yul\":5650:5659   */\n      dup5\n        /* \"#utility.yul\":5644:5648   */\n      dup5\n        /* \"#utility.yul\":5640:5660   */\n      sub\n        /* \"#utility.yul\":5635:5638   */\n      dup10\n        /* \"#utility.yul\":5628:5661   */\n      mstore\n        /* \"#utility.yul\":5701:5707   */\n      dup2\n        /* \"#utility.yul\":5695:5708   */\n      mload\n        /* \"#utility.yul\":5729:5813   */\n      tag_588\n        /* \"#utility.yul\":5808:5812   */\n      dup6\n        /* \"#utility.yul\":5793:5806   */\n      dup3\n        /* \"#utility.yul\":5729:5813   */\n      tag_454\n      jump\t// in\n    tag_588:\n        /* \"#utility.yul\":5721:5813   */\n      swap5\n      pop\n        /* \"#utility.yul\":5836:5906   */\n      tag_589\n        /* \"#utility.yul\":5899:5905   */\n      dup4\n        /* \"#utility.yul\":5836:5906   */\n      tag_455\n      jump\t// in\n    tag_589:\n        /* \"#utility.yul\":5826:5906   */\n      swap3\n      pop\n        /* \"#utility.yul\":5935:5939   */\n      0x20\n        /* \"#utility.yul\":5930:5933   */\n      dup11\n        /* \"#utility.yul\":5926:5940   */\n      add\n        /* \"#utility.yul\":5919:5940   */\n      swap10\n      pop\n        /* \"#utility.yul\":5614:5950   */\n      pop\n        /* \"#utility.yul\":5601:5602   */\n      0x01\n        /* \"#utility.yul\":5598:5599   */\n      dup2\n        /* \"#utility.yul\":5594:5603   */\n      add\n        /* \"#utility.yul\":5589:5603   */\n      swap1\n      pop\n        /* \"#utility.yul\":5554:5950   */\n      jump(tag_585)\n    tag_587:\n        /* \"#utility.yul\":5558:5572   */\n      pop\n        /* \"#utility.yul\":5966:5970   */\n      dup3\n        /* \"#utility.yul\":5959:5970   */\n      swap8\n      pop\n        /* \"#utility.yul\":5986:5989   */\n      dup8\n        /* \"#utility.yul\":5979:5989   */\n      swap6\n      pop\n        /* \"#utility.yul\":5148:5995   */\n      pop\n      pop\n      pop\n      pop\n      pop\n        /* \"#utility.yul\":5004:5995   */\n      swap3\n      swap2\n      pop\n      pop\n      jump\t// out\n        /* \"#utility.yul\":6001:7620   */\n    tag_45:\n        /* \"#utility.yul\":6556:6560   */\n      0x00\n        /* \"#utility.yul\":6594:6597   */\n      0xa0\n        /* \"#utility.yul\":6583:6592   */\n      dup3\n        /* \"#utility.yul\":6579:6598   */\n      add\n        /* \"#utility.yul\":6571:6598   */\n      swap1\n      pop\n        /* \"#utility.yul\":6644:6653   */\n      dup2\n        /* \"#utility.yul\":6638:6642   */\n      dup2\n        /* \"#utility.yul\":6634:6654   */\n      sub\n        /* \"#utility.yul\":6630:6631   */\n      0x00\n        /* \"#utility.yul\":6619:6628   */\n      dup4\n        /* \"#utility.yul\":6615:6632   */\n      add\n        /* \"#utility.yul\":6608:6655   */\n      mstore\n        /* \"#utility.yul\":6672:6800   */\n      tag_591\n        /* \"#utility.yul\":6795:6799   */\n      dup2\n        /* \"#utility.yul\":6786:6792   */\n      dup9\n        /* \"#utility.yul\":6672:6800   */\n      tag_456\n      jump\t// in\n    tag_591:\n        /* \"#utility.yul\":6664:6800   */\n      swap1\n      pop\n        /* \"#utility.yul\":6847:6856   */\n      dup2\n        /* \"#utility.yul\":6841:6845   */\n      dup2\n        /* \"#utility.yul\":6837:6857   */\n      sub\n        /* \"#utility.yul\":6832:6834   */\n      0x20\n        /* \"#utility.yul\":6821:6830   */\n      dup4\n        /* \"#utility.yul\":6817:6835   */\n      add\n        /* \"#utility.yul\":6810:6858   */\n      mstore\n        /* \"#utility.yul\":6875:7003   */\n      tag_592\n        /* \"#utility.yul\":6998:7002   */\n      dup2\n        /* \"#utility.yul\":6989:6995   */\n      dup8\n        /* \"#utility.yul\":6875:7003   */\n      tag_456\n      jump\t// in\n    tag_592:\n        /* \"#utility.yul\":6867:7003   */\n      swap1\n      pop\n        /* \"#utility.yul\":7050:7059   */\n      dup2\n        /* \"#utility.yul\":7044:7048   */\n      dup2\n        /* \"#utility.yul\":7040:7060   */\n      sub\n        /* \"#utility.yul\":7035:7037   */\n      0x40\n        /* \"#utility.yul\":7024:7033   */\n      dup4\n        /* \"#utility.yul\":7020:7038   */\n      add\n        /* \"#utility.yul\":7013:7061   */\n      mstore\n        /* \"#utility.yul\":7078:7206   */\n      tag_593\n        /* \"#utility.yul\":7201:7205   */\n      dup2\n        /* \"#utility.yul\":7192:7198   */\n      dup7\n        /* \"#utility.yul\":7078:7206   */\n      tag_456\n      jump\t// in\n    tag_593:\n        /* \"#utility.yul\":7070:7206   */\n      swap1\n      pop\n        /* \"#utility.yul\":7253:7262   */\n      dup2\n        /* \"#utility.yul\":7247:7251   */\n      dup2\n        /* \"#utility.yul\":7243:7263   */\n      sub\n        /* \"#utility.yul\":7238:7240   */\n      0x60\n        /* \"#utility.yul\":7227:7236   */\n      dup4\n        /* \"#utility.yul\":7223:7241   */\n      add\n        /* \"#utility.yul\":7216:7264   */\n      mstore\n        /* \"#utility.yul\":7281:7409   */\n      tag_594\n        /* \"#utility.yul\":7404:7408   */\n      dup2\n        /* \"#utility.yul\":7395:7401   */\n      dup6\n        /* \"#utility.yul\":7281:7409   */\n      tag_456\n      jump\t// in\n    tag_594:\n        /* \"#utility.yul\":7273:7409   */\n      swap1\n      pop\n        /* \"#utility.yul\":7457:7466   */\n      dup2\n        /* \"#utility.yul\":7451:7455   */\n      dup2\n        /* \"#utility.yul\":7447:7467   */\n      sub\n        /* \"#utility.yul\":7441:7444   */\n      0x80\n        /* \"#utility.yul\":7430:7439   */\n      dup4\n        /* \"#utility.yul\":7426:7445   */\n      add\n        /* \"#utility.yul\":7419:7468   */\n      mstore\n        /* \"#utility.yul\":7485:7613   */\n      tag_595\n        /* \"#utility.yul\":7608:7612   */\n      dup2\n        /* \"#utility.yul\":7599:7605   */\n      dup5\n        /* \"#utility.yul\":7485:7613   */\n      tag_456\n      jump\t// in\n    tag_595:\n        /* \"#utility.yul\":7477:7613   */\n      swap1\n      pop\n        /* \"#utility.yul\":6001:7620   */\n      swap7\n      swap6\n      pop\n      pop\n      pop\n      pop\n      pop\n      pop\n      jump\t// out\n        /* \"#utility.yul\":7626:7744   */\n    tag_457:\n        /* \"#utility.yul\":7713:7737   */\n      tag_597\n        /* \"#utility.yul\":7731:7736   */\n      dup2\n        /* \"#utility.yul\":7713:7737   */\n      tag_442\n      jump\t// in\n    tag_597:\n        /* \"#utility.yul\":7708:7711   */\n      dup3\n        /* \"#utility.yul\":7701:7738   */\n      mstore\n        /* \"#utility.yul\":7626:7744   */\n      pop\n      pop\n      jump\t// out\n        /* \"#utility.yul\":7750:7972   */\n    tag_49:\n        /* \"#utility.yul\":7843:7847   */\n      0x00\n        /* \"#utility.yul\":7881:7883   */\n      0x20\n        /* \"#utility.yul\":7870:7879   */\n      dup3\n        /* \"#utility.yul\":7866:7884   */\n      add\n        /* \"#utility.yul\":7858:7884   */\n      swap1\n      pop\n        /* \"#utility.yul\":7894:7965   */\n      tag_599\n        /* \"#utility.yul\":7962:7963   */\n      0x00\n        /* \"#utility.yul\":7951:7960   */\n      dup4\n        /* \"#utility.yul\":7947:7964   */\n      add\n        /* \"#utility.yul\":7938:7944   */\n      dup5\n        /* \"#utility.yul\":7894:7965   */\n      tag_457\n      jump\t// in\n    tag_599:\n        /* \"#utility.yul\":7750:7972   */\n      swap3\n      swap2\n      pop\n      pop\n      jump\t// out\n        /* \"#utility.yul\":7978:8147   */\n    tag_458:\n        /* \"#utility.yul\":8062:8073   */\n      0x00\n        /* \"#utility.yul\":8096:8102   */\n      dup3\n        /* \"#utility.yul\":8091:8094   */\n      dup3\n        /* \"#utility.yul\":8084:8103   */\n      mstore\n        /* \"#utility.yul\":8136:8140   */\n      0x20\n        /* \"#utility.yul\":8131:8134   */\n      dup3\n        /* \"#utility.yul\":8127:8141   */\n      add\n        /* \"#utility.yul\":8112:8141   */\n      swap1\n      pop\n        /* \"#utility.yul\":7978:8147   */\n      swap3\n      swap2\n      pop\n      pop\n      jump\t// out\n        /* \"#utility.yul\":8153:8517   */\n    tag_459:\n        /* \"#utility.yul\":8241:8244   */\n      0x00\n        /* \"#utility.yul\":8269:8308   */\n      tag_602\n        /* \"#utility.yul\":8302:8307   */\n      dup3\n        /* \"#utility.yul\":8269:8308   */\n      tag_449\n      jump\t// in\n    tag_602:\n        /* \"#utility.yul\":8324:8395   */\n      tag_603\n        /* \"#utility.yul\":8388:8394   */\n      dup2\n        /* \"#utility.yul\":8383:8386   */\n      dup6\n        /* \"#utility.yul\":8324:8395   */\n      tag_458\n      jump\t// in\n    tag_603:\n        /* \"#utility.yul\":8317:8395   */\n      swap4\n      pop\n        /* \"#utility.yul\":8404:8456   */\n      tag_604\n        /* \"#utility.yul\":8449:8455   */\n      dup2\n        /* \"#utility.yul\":8444:8447   */\n      dup6\n        /* \"#utility.yul\":8437:8441   */\n      0x20\n        /* \"#utility.yul\":8430:8435   */\n      dup7\n        /* \"#utility.yul\":8426:8442   */\n      add\n        /* \"#utility.yul\":8404:8456   */\n      tag_451\n      jump\t// in\n    tag_604:\n        /* \"#utility.yul\":8481:8510   */\n      tag_605\n        /* \"#utility.yul\":8503:8509   */\n      dup2\n        /* \"#utility.yul\":8481:8510   */\n      tag_452\n      jump\t// in\n    tag_605:\n        /* \"#utility.yul\":8476:8479   */\n      dup5\n        /* \"#utility.yul\":8472:8511   */\n      add\n        /* \"#utility.yul\":8465:8511   */\n      swap2\n      pop\n        /* \"#utility.yul\":8245:8517   */\n      pop\n        /* \"#utility.yul\":8153:8517   */\n      swap3\n      swap2\n      pop\n      pop\n      jump\t// out\n        /* \"#utility.yul\":8523:9761   */\n    tag_64:\n        /* \"#utility.yul\":8858:8862   */\n      0x00\n        /* \"#utility.yul\":8896:8899   */\n      0xe0\n        /* \"#utility.yul\":8885:8894   */\n      dup3\n        /* \"#utility.yul\":8881:8900   */\n      add\n        /* \"#utility.yul\":8873:8900   */\n      swap1\n      pop\n        /* \"#utility.yul\":8910:8981   */\n      tag_607\n        /* \"#utility.yul\":8978:8979   */\n      0x00\n        /* \"#utility.yul\":8967:8976   */\n      dup4\n        /* \"#utility.yul\":8963:8980   */\n      add\n        /* \"#utility.yul\":8954:8960   */\n      dup11\n        /* \"#utility.yul\":8910:8981   */\n      tag_457\n      jump\t// in\n    tag_607:\n        /* \"#utility.yul\":9028:9037   */\n      dup2\n        /* \"#utility.yul\":9022:9026   */\n      dup2\n        /* \"#utility.yul\":9018:9038   */\n      sub\n        /* \"#utility.yul\":9013:9015   */\n      0x20\n        /* \"#utility.yul\":9002:9011   */\n      dup4\n        /* \"#utility.yul\":8998:9016   */\n      add\n        /* \"#utility.yul\":8991:9039   */\n      mstore\n        /* \"#utility.yul\":9056:9134   */\n      tag_608\n        /* \"#utility.yul\":9129:9133   */\n      dup2\n        /* \"#utility.yul\":9120:9126   */\n      dup10\n        /* \"#utility.yul\":9056:9134   */\n      tag_459\n      jump\t// in\n    tag_608:\n        /* \"#utility.yul\":9048:9134   */\n      swap1\n      pop\n        /* \"#utility.yul\":9181:9190   */\n      dup2\n        /* \"#utility.yul\":9175:9179   */\n      dup2\n        /* \"#utility.yul\":9171:9191   */\n      sub\n        /* \"#utility.yul\":9166:9168   */\n      0x40\n        /* \"#utility.yul\":9155:9164   */\n      dup4\n        /* \"#utility.yul\":9151:9169   */\n      add\n        /* \"#utility.yul\":9144:9192   */\n      mstore\n        /* \"#utility.yul\":9209:9287   */\n      tag_609\n        /* \"#utility.yul\":9282:9286   */\n      dup2\n        /* \"#utility.yul\":9273:9279   */\n      dup9\n        /* \"#utility.yul\":9209:9287   */\n      tag_459\n      jump\t// in\n    tag_609:\n        /* \"#utility.yul\":9201:9287   */\n      swap1\n      pop\n        /* \"#utility.yul\":9334:9343   */\n      dup2\n        /* \"#utility.yul\":9328:9332   */\n      dup2\n        /* \"#utility.yul\":9324:9344   */\n      sub\n        /* \"#utility.yul\":9319:9321   */\n      0x60\n        /* \"#utility.yul\":9308:9317   */\n      dup4\n        /* \"#utility.yul\":9304:9322   */\n      add\n        /* \"#utility.yul\":9297:9345   */\n      mstore\n        /* \"#utility.yul\":9362:9440   */\n      tag_610\n        /* \"#utility.yul\":9435:9439   */\n      dup2\n        /* \"#utility.yul\":9426:9432   */\n      dup8\n        /* \"#utility.yul\":9362:9440   */\n      tag_459\n      jump\t// in\n    tag_610:\n        /* \"#utility.yul\":9354:9440   */\n      swap1\n      pop\n        /* \"#utility.yul\":9488:9497   */\n      dup2\n        /* \"#utility.yul\":9482:9486   */\n      dup2\n        /* \"#utility.yul\":9478:9498   */\n      sub\n        /* \"#utility.yul\":9472:9475   */\n      0x80\n        /* \"#utility.yul\":9461:9470   */\n      dup4\n        /* \"#utility.yul\":9457:9476   */\n      add\n        /* \"#utility.yul\":9450:9499   */\n      mstore\n        /* \"#utility.yul\":9516:9594   */\n      tag_611\n        /* \"#utility.yul\":9589:9593   */\n      dup2\n        /* \"#utility.yul\":9580:9586   */\n      dup7\n        /* \"#utility.yul\":9516:9594   */\n      tag_459\n      jump\t// in\n    tag_611:\n        /* \"#utility.yul\":9508:9594   */\n      swap1\n      pop\n        /* \"#utility.yul\":9604:9677   */\n      tag_612\n        /* \"#utility.yul\":9672:9675   */\n      0xa0\n        /* \"#utility.yul\":9661:9670   */\n      dup4\n        /* \"#utility.yul\":9657:9676   */\n      add\n        /* \"#utility.yul\":9648:9654   */\n      dup6\n        /* \"#utility.yul\":9604:9677   */\n      tag_445\n      jump\t// in\n    tag_612:\n        /* \"#utility.yul\":9687:9754   */\n      tag_613\n        /* \"#utility.yul\":9749:9752   */\n      0xc0\n        /* \"#utility.yul\":9738:9747   */\n      dup4\n        /* \"#utility.yul\":9734:9753   */\n      add\n        /* \"#utility.yul\":9725:9731   */\n      dup5\n        /* \"#utility.yul\":9687:9754   */\n      tag_441\n      jump\t// in\n    tag_613:\n        /* \"#utility.yul\":8523:9761   */\n      swap9\n      swap8\n      pop\n      pop\n      pop\n      pop\n      pop\n      pop\n      pop\n      pop\n      jump\t// out\n        /* \"#utility.yul\":9767:9884   */\n    tag_460:\n        /* \"#utility.yul\":9876:9877   */\n      0x00\n        /* \"#utility.yul\":9873:9874   */\n      dup1\n        /* \"#utility.yul\":9866:9878   */\n      revert\n        /* \"#utility.yul\":9890:10007   */\n    tag_461:\n        /* \"#utility.yul\":9999:10000   */\n      0x00\n        /* \"#utility.yul\":9996:9997   */\n      dup1\n        /* \"#utility.yul\":9989:10001   */\n      revert\n        /* \"#utility.yul\":10013:10193   */\n    tag_141:\n        /* \"#utility.yul\":10061:10138   */\n      0x4e487b7100000000000000000000000000000000000000000000000000000000\n        /* \"#utility.yul\":10058:10059   */\n      0x00\n        /* \"#utility.yul\":10051:10139   */\n      mstore\n        /* \"#utility.yul\":10158:10162   */\n      0x41\n        /* \"#utility.yul\":10155:10156   */\n      0x04\n        /* \"#utility.yul\":10148:10163   */\n      mstore\n        /* \"#utility.yul\":10182:10186   */\n      0x24\n        /* \"#utility.yul\":10179:10180   */\n      0x00\n        /* \"#utility.yul\":10172:10187   */\n      revert\n        /* \"#utility.yul\":10199:10480   */\n    tag_462:\n        /* \"#utility.yul\":10282:10309   */\n      tag_618\n        /* \"#utility.yul\":10304:10308   */\n      dup3\n        /* \"#utility.yul\":10282:10309   */\n      tag_452\n      jump\t// in\n    tag_618:\n        /* \"#utility.yul\":10274:10280   */\n      dup2\n        /* \"#utility.yul\":10270:10310   */\n      add\n        /* \"#utility.yul\":10412:10418   */\n      dup2\n        /* \"#utility.yul\":10400:10410   */\n      dup2\n        /* \"#utility.yul\":10397:10419   */\n      lt\n        /* \"#utility.yul\":10376:10394   */\n      0xffffffffffffffff\n        /* \"#utility.yul\":10364:10374   */\n      dup3\n        /* \"#utility.yul\":10361:10395   */\n      gt\n        /* \"#utility.yul\":10358:10420   */\n      or\n        /* \"#utility.yul\":10355:10443   */\n      iszero\n      tag_619\n      jumpi\n        /* \"#utility.yul\":10423:10441   */\n      tag_620\n      tag_141\n      jump\t// in\n    tag_620:\n        /* \"#utility.yul\":10355:10443   */\n    tag_619:\n        /* \"#utility.yul\":10463:10473   */\n      dup1\n        /* \"#utility.yul\":10459:10461   */\n      0x40\n        /* \"#utility.yul\":10452:10474   */\n      mstore\n        /* \"#utility.yul\":10242:10480   */\n      pop\n        /* \"#utility.yul\":10199:10480   */\n      pop\n      pop\n      jump\t// out\n        /* \"#utility.yul\":10486:10615   */\n    tag_463:\n        /* \"#utility.yul\":10520:10526   */\n      0x00\n        /* \"#utility.yul\":10547:10567   */\n      tag_622\n      tag_433\n      jump\t// in\n    tag_622:\n        /* \"#utility.yul\":10537:10567   */\n      swap1\n      pop\n        /* \"#utility.yul\":10576:10609   */\n      tag_623\n        /* \"#utility.yul\":10604:10608   */\n      dup3\n        /* \"#utility.yul\":10596:10602   */\n      dup3\n        /* \"#utility.yul\":10576:10609   */\n      tag_462\n      jump\t// in\n    tag_623:\n        /* \"#utility.yul\":10486:10615   */\n      swap2\n      swap1\n      pop\n      jump\t// out\n        /* \"#utility.yul\":10621:10929   */\n    tag_464:\n        /* \"#utility.yul\":10683:10687   */\n      0x00\n        /* \"#utility.yul\":10773:10791   */\n      0xffffffffffffffff\n        /* \"#utility.yul\":10765:10771   */\n      dup3\n        /* \"#utility.yul\":10762:10792   */\n      gt\n        /* \"#utility.yul\":10759:10815   */\n      iszero\n      tag_625\n      jumpi\n        /* \"#utility.yul\":10795:10813   */\n      tag_626\n      tag_141\n      jump\t// in\n    tag_626:\n        /* \"#utility.yul\":10759:10815   */\n    tag_625:\n        /* \"#utility.yul\":10833:10862   */\n      tag_627\n        /* \"#utility.yul\":10855:10861   */\n      dup3\n        /* \"#utility.yul\":10833:10862   */\n      tag_452\n      jump\t// in\n    tag_627:\n        /* \"#utility.yul\":10825:10862   */\n      swap1\n      pop\n        /* \"#utility.yul\":10917:10921   */\n      0x20\n        /* \"#utility.yul\":10911:10915   */\n      dup2\n        /* \"#utility.yul\":10907:10922   */\n      add\n        /* \"#utility.yul\":10899:10922   */\n      swap1\n      pop\n        /* \"#utility.yul\":10621:10929   */\n      swap2\n      swap1\n      pop\n      jump\t// out\n        /* \"#utility.yul\":10935:11089   */\n    tag_465:\n        /* \"#utility.yul\":11019:11025   */\n      dup3\n        /* \"#utility.yul\":11014:11017   */\n      dup2\n        /* \"#utility.yul\":11009:11012   */\n      dup4\n        /* \"#utility.yul\":10996:11026   */\n      calldatacopy\n        /* \"#utility.yul\":11081:11082   */\n      0x00\n        /* \"#utility.yul\":11072:11078   */\n      dup4\n        /* \"#utility.yul\":11067:11070   */\n      dup4\n        /* \"#utility.yul\":11063:11079   */\n      add\n        /* \"#utility.yul\":11056:11083   */\n      mstore\n        /* \"#utility.yul\":10935:11089   */\n      pop\n      pop\n      pop\n      jump\t// out\n        /* \"#utility.yul\":11095:11507   */\n    tag_466:\n        /* \"#utility.yul\":11173:11178   */\n      0x00\n        /* \"#utility.yul\":11198:11264   */\n      tag_630\n        /* \"#utility.yul\":11214:11263   */\n      tag_631\n        /* \"#utility.yul\":11256:11262   */\n      dup5\n        /* \"#utility.yul\":11214:11263   */\n      tag_464\n      jump\t// in\n    tag_631:\n        /* \"#utility.yul\":11198:11264   */\n      tag_463\n      jump\t// in\n    tag_630:\n        /* \"#utility.yul\":11189:11264   */\n      swap1\n      pop\n        /* \"#utility.yul\":11287:11293   */\n      dup3\n        /* \"#utility.yul\":11280:11285   */\n      dup2\n        /* \"#utility.yul\":11273:11294   */\n      mstore\n        /* \"#utility.yul\":11325:11329   */\n      0x20\n        /* \"#utility.yul\":11318:11323   */\n      dup2\n        /* \"#utility.yul\":11314:11330   */\n      add\n        /* \"#utility.yul\":11363:11366   */\n      dup5\n        /* \"#utility.yul\":11354:11360   */\n      dup5\n        /* \"#utility.yul\":11349:11352   */\n      dup5\n        /* \"#utility.yul\":11345:11361   */\n      add\n        /* \"#utility.yul\":11342:11367   */\n      gt\n        /* \"#utility.yul\":11339:11451   */\n      iszero\n      tag_632\n      jumpi\n        /* \"#utility.yul\":11370:11449   */\n      tag_633\n      tag_461\n      jump\t// in\n    tag_633:\n        /* \"#utility.yul\":11339:11451   */\n    tag_632:\n        /* \"#utility.yul\":11460:11501   */\n      tag_634\n        /* \"#utility.yul\":11494:11500   */\n      dup5\n        /* \"#utility.yul\":11489:11492   */\n      dup3\n        /* \"#utility.yul\":11484:11487   */\n      dup6\n        /* \"#utility.yul\":11460:11501   */\n      tag_465\n      jump\t// in\n    tag_634:\n        /* \"#utility.yul\":11179:11507   */\n      pop\n        /* \"#utility.yul\":11095:11507   */\n      swap4\n      swap3\n      pop\n      pop\n      pop\n      jump\t// out\n        /* \"#utility.yul\":11527:11867   */\n    tag_467:\n        /* \"#utility.yul\":11583:11588   */\n      0x00\n        /* \"#utility.yul\":11632:11635   */\n      dup3\n        /* \"#utility.yul\":11625:11629   */\n      0x1f\n        /* \"#utility.yul\":11617:11623   */\n      dup4\n        /* \"#utility.yul\":11613:11630   */\n      add\n        /* \"#utility.yul\":11609:11636   */\n      slt\n        /* \"#utility.yul\":11599:11721   */\n      tag_636\n      jumpi\n        /* \"#utility.yul\":11640:11719   */\n      tag_637\n      tag_460\n      jump\t// in\n    tag_637:\n        /* \"#utility.yul\":11599:11721   */\n    tag_636:\n        /* \"#utility.yul\":11757:11763   */\n      dup2\n        /* \"#utility.yul\":11744:11764   */\n      calldataload\n        /* \"#utility.yul\":11782:11861   */\n      tag_638\n        /* \"#utility.yul\":11857:11860   */\n      dup5\n        /* \"#utility.yul\":11849:11855   */\n      dup3\n        /* \"#utility.yul\":11842:11846   */\n      0x20\n        /* \"#utility.yul\":11834:11840   */\n      dup7\n        /* \"#utility.yul\":11830:11847   */\n      add\n        /* \"#utility.yul\":11782:11861   */\n      tag_466\n      jump\t// in\n    tag_638:\n        /* \"#utility.yul\":11773:11861   */\n      swap2\n      pop\n        /* \"#utility.yul\":11589:11867   */\n      pop\n        /* \"#utility.yul\":11527:11867   */\n      swap3\n      swap2\n      pop\n      pop\n      jump\t// out\n        /* \"#utility.yul\":11873:14010   */\n    tag_75:\n        /* \"#utility.yul\":12037:12043   */\n      0x00\n        /* \"#utility.yul\":12045:12051   */\n      dup1\n        /* \"#utility.yul\":12053:12059   */\n      0x00\n        /* \"#utility.yul\":12061:12067   */\n      dup1\n        /* \"#utility.yul\":12069:12075   */\n      0x00\n        /* \"#utility.yul\":12077:12083   */\n      dup1\n        /* \"#utility.yul\":12126:12129   */\n      0xc0\n        /* \"#utility.yul\":12114:12123   */\n      dup8\n        /* \"#utility.yul\":12105:12112   */\n      dup10\n        /* \"#utility.yul\":12101:12124   */\n      sub\n        /* \"#utility.yul\":12097:12130   */\n      slt\n        /* \"#utility.yul\":12094:12214   */\n      iszero\n      tag_640\n      jumpi\n        /* \"#utility.yul\":12133:12212   */\n      tag_641\n      tag_434\n      jump\t// in\n    tag_641:\n        /* \"#utility.yul\":12094:12214   */\n    tag_640:\n        /* \"#utility.yul\":12281:12282   */\n      0x00\n        /* \"#utility.yul\":12270:12279   */\n      dup8\n        /* \"#utility.yul\":12266:12283   */\n      add\n        /* \"#utility.yul\":12253:12284   */\n      calldataload\n        /* \"#utility.yul\":12311:12329   */\n      0xffffffffffffffff\n        /* \"#utility.yul\":12303:12309   */\n      dup2\n        /* \"#utility.yul\":12300:12330   */\n      gt\n        /* \"#utility.yul\":12297:12414   */\n      iszero\n      tag_642\n      jumpi\n        /* \"#utility.yul\":12333:12412   */\n      tag_643\n      tag_435\n      jump\t// in\n    tag_643:\n        /* \"#utility.yul\":12297:12414   */\n    tag_642:\n        /* \"#utility.yul\":12438:12501   */\n      tag_644\n        /* \"#utility.yul\":12493:12500   */\n      dup10\n        /* \"#utility.yul\":12484:12490   */\n      dup3\n        /* \"#utility.yul\":12473:12482   */\n      dup11\n        /* \"#utility.yul\":12469:12491   */\n      add\n        /* \"#utility.yul\":12438:12501   */\n      tag_467\n      jump\t// in\n    tag_644:\n        /* \"#utility.yul\":12428:12501   */\n      swap7\n      pop\n        /* \"#utility.yul\":12224:12511   */\n      pop\n        /* \"#utility.yul\":12578:12580   */\n      0x20\n        /* \"#utility.yul\":12567:12576   */\n      dup8\n        /* \"#utility.yul\":12563:12581   */\n      add\n        /* \"#utility.yul\":12550:12582   */\n      calldataload\n        /* \"#utility.yul\":12609:12627   */\n      0xffffffffffffffff\n        /* \"#utility.yul\":12601:12607   */\n      dup2\n        /* \"#utility.yul\":12598:12628   */\n      gt\n        /* \"#utility.yul\":12595:12712   */\n      iszero\n      tag_645\n      jumpi\n        /* \"#utility.yul\":12631:12710   */\n      tag_646\n      tag_435\n      jump\t// in\n    tag_646:\n        /* \"#utility.yul\":12595:12712   */\n    tag_645:\n        /* \"#utility.yul\":12736:12799   */\n      tag_647\n        /* \"#utility.yul\":12791:12798   */\n      dup10\n        /* \"#utility.yul\":12782:12788   */\n      dup3\n        /* \"#utility.yul\":12771:12780   */\n      dup11\n        /* \"#utility.yul\":12767:12789   */\n      add\n        /* \"#utility.yul\":12736:12799   */\n      tag_467\n      jump\t// in\n    tag_647:\n        /* \"#utility.yul\":12726:12799   */\n      swap6\n      pop\n        /* \"#utility.yul\":12521:12809   */\n      pop\n        /* \"#utility.yul\":12876:12878   */\n      0x40\n        /* \"#utility.yul\":12865:12874   */\n      dup8\n        /* \"#utility.yul\":12861:12879   */\n      add\n        /* \"#utility.yul\":12848:12880   */\n      calldataload\n        /* \"#utility.yul\":12907:12925   */\n      0xffffffffffffffff\n        /* \"#utility.yul\":12899:12905   */\n      dup2\n        /* \"#utility.yul\":12896:12926   */\n      gt\n        /* \"#utility.yul\":12893:13010   */\n      iszero\n      tag_648\n      jumpi\n        /* \"#utility.yul\":12929:13008   */\n      tag_649\n      tag_435\n      jump\t// in\n    tag_649:\n        /* \"#utility.yul\":12893:13010   */\n    tag_648:\n        /* \"#utility.yul\":13034:13097   */\n      tag_650\n        /* \"#utility.yul\":13089:13096   */\n      dup10\n        /* \"#utility.yul\":13080:13086   */\n      dup3\n        /* \"#utility.yul\":13069:13078   */\n      dup11\n        /* \"#utility.yul\":13065:13087   */\n      add\n        /* \"#utility.yul\":13034:13097   */\n      tag_467\n      jump\t// in\n    tag_650:\n        /* \"#utility.yul\":13024:13097   */\n      swap5\n      pop\n        /* \"#utility.yul\":12819:13107   */\n      pop\n        /* \"#utility.yul\":13174:13176   */\n      0x60\n        /* \"#utility.yul\":13163:13172   */\n      dup8\n        /* \"#utility.yul\":13159:13177   */\n      add\n        /* \"#utility.yul\":13146:13178   */\n      calldataload\n        /* \"#utility.yul\":13205:13223   */\n      0xffffffffffffffff\n        /* \"#utility.yul\":13197:13203   */\n      dup2\n        /* \"#utility.yul\":13194:13224   */\n      gt\n        /* \"#utility.yul\":13191:13308   */\n      iszero\n      tag_651\n      jumpi\n        /* \"#utility.yul\":13227:13306   */\n      tag_652\n      tag_435\n      jump\t// in\n    tag_652:\n        /* \"#utility.yul\":13191:13308   */\n    tag_651:\n        /* \"#utility.yul\":13332:13395   */\n      tag_653\n        /* \"#utility.yul\":13387:13394   */\n      dup10\n        /* \"#utility.yul\":13378:13384   */\n      dup3\n        /* \"#utility.yul\":13367:13376   */\n      dup11\n        /* \"#utility.yul\":13363:13385   */\n      add\n        /* \"#utility.yul\":13332:13395   */\n      tag_467\n      jump\t// in\n    tag_653:\n        /* \"#utility.yul\":13322:13395   */\n      swap4\n      pop\n        /* \"#utility.yul\":13117:13405   */\n      pop\n        /* \"#utility.yul\":13472:13475   */\n      0x80\n        /* \"#utility.yul\":13461:13470   */\n      dup8\n        /* \"#utility.yul\":13457:13476   */\n      add\n        /* \"#utility.yul\":13444:13477   */\n      calldataload\n        /* \"#utility.yul\":13504:13522   */\n      0xffffffffffffffff\n        /* \"#utility.yul\":13496:13502   */\n      dup2\n        /* \"#utility.yul\":13493:13523   */\n      gt\n        /* \"#utility.yul\":13490:13607   */\n      iszero\n      tag_654\n      jumpi\n        /* \"#utility.yul\":13526:13605   */\n      tag_655\n      tag_435\n      jump\t// in\n    tag_655:\n        /* \"#utility.yul\":13490:13607   */\n    tag_654:\n        /* \"#utility.yul\":13631:13694   */\n      tag_656\n        /* \"#utility.yul\":13686:13693   */\n      dup10\n        /* \"#utility.yul\":13677:13683   */\n      dup3\n        /* \"#utility.yul\":13666:13675   */\n      dup11\n        /* \"#utility.yul\":13662:13684   */\n      add\n        /* \"#utility.yul\":13631:13694   */\n      tag_467\n      jump\t// in\n    tag_656:\n        /* \"#utility.yul\":13621:13694   */\n      swap3\n      pop\n        /* \"#utility.yul\":13415:13704   */\n      pop\n        /* \"#utility.yul\":13771:13774   */\n      0xa0\n        /* \"#utility.yul\":13760:13769   */\n      dup8\n        /* \"#utility.yul\":13756:13775   */\n      add\n        /* \"#utility.yul\":13743:13776   */\n      calldataload\n        /* \"#utility.yul\":13803:13821   */\n      0xffffffffffffffff\n        /* \"#utility.yul\":13795:13801   */\n      dup2\n        /* \"#utility.yul\":13792:13822   */\n      gt\n        /* \"#utility.yul\":13789:13906   */\n      iszero\n      tag_657\n      jumpi\n        /* \"#utility.yul\":13825:13904   */\n      tag_658\n      tag_435\n      jump\t// in\n    tag_658:\n        /* \"#utility.yul\":13789:13906   */\n    tag_657:\n        /* \"#utility.yul\":13930:13993   */\n      tag_659\n        /* \"#utility.yul\":13985:13992   */\n      dup10\n        /* \"#utility.yul\":13976:13982   */\n      dup3\n        /* \"#utility.yul\":13965:13974   */\n      dup11\n        /* \"#utility.yul\":13961:13983   */\n      add\n        /* \"#utility.yul\":13930:13993   */\n      tag_467\n      jump\t// in\n    tag_659:\n        /* \"#utility.yul\":13920:13993   */\n      swap2\n      pop\n        /* \"#utility.yul\":13714:14003   */\n      pop\n        /* \"#utility.yul\":11873:14010   */\n      swap3\n      swap6\n      pop\n      swap3\n      swap6\n      pop\n      swap3\n      swap6\n      jump\t// out\n        /* \"#utility.yul\":14016:15647   */\n    tag_79:\n        /* \"#utility.yul\":14151:14157   */\n      0x00\n        /* \"#utility.yul\":14159:14165   */\n      dup1\n        /* \"#utility.yul\":14167:14173   */\n      0x00\n        /* \"#utility.yul\":14175:14181   */\n      dup1\n        /* \"#utility.yul\":14183:14189   */\n      0x00\n        /* \"#utility.yul\":14232:14235   */\n      0xa0\n        /* \"#utility.yul\":14220:14229   */\n      dup7\n        /* \"#utility.yul\":14211:14218   */\n      dup9\n        /* \"#utility.yul\":14207:14230   */\n      sub\n        /* \"#utility.yul\":14203:14236   */\n      slt\n        /* \"#utility.yul\":14200:14320   */\n      iszero\n      tag_661\n      jumpi\n        /* \"#utility.yul\":14239:14318   */\n      tag_662\n      tag_434\n      jump\t// in\n    tag_662:\n        /* \"#utility.yul\":14200:14320   */\n    tag_661:\n        /* \"#utility.yul\":14387:14388   */\n      0x00\n        /* \"#utility.yul\":14376:14385   */\n      dup7\n        /* \"#utility.yul\":14372:14389   */\n      add\n        /* \"#utility.yul\":14359:14390   */\n      calldataload\n        /* \"#utility.yul\":14417:14435   */\n      0xffffffffffffffff\n        /* \"#utility.yul\":14409:14415   */\n      dup2\n        /* \"#utility.yul\":14406:14436   */\n      gt\n        /* \"#utility.yul\":14403:14520   */\n      iszero\n      tag_663\n      jumpi\n        /* \"#utility.yul\":14439:14518   */\n      tag_664\n      tag_435\n      jump\t// in\n    tag_664:\n        /* \"#utility.yul\":14403:14520   */\n    tag_663:\n        /* \"#utility.yul\":14544:14607   */\n      tag_665\n        /* \"#utility.yul\":14599:14606   */\n      dup9\n        /* \"#utility.yul\":14590:14596   */\n      dup3\n        /* \"#utility.yul\":14579:14588   */\n      dup10\n        /* \"#utility.yul\":14575:14597   */\n      add\n        /* \"#utility.yul\":14544:14607   */\n      tag_467\n      jump\t// in\n    tag_665:\n        /* \"#utility.yul\":14534:14607   */\n      swap6\n      pop\n        /* \"#utility.yul\":14330:14617   */\n      pop\n        /* \"#utility.yul\":14684:14686   */\n      0x20\n        /* \"#utility.yul\":14673:14682   */\n      dup7\n        /* \"#utility.yul\":14669:14687   */\n      add\n        /* \"#utility.yul\":14656:14688   */\n      calldataload\n        /* \"#utility.yul\":14715:14733   */\n      0xffffffffffffffff\n        /* \"#utility.yul\":14707:14713   */\n      dup2\n        /* \"#utility.yul\":14704:14734   */\n      gt\n        /* \"#utility.yul\":14701:14818   */\n      iszero\n      tag_666\n      jumpi\n        /* \"#utility.yul\":14737:14816   */\n      tag_667\n      tag_435\n      jump\t// in\n    tag_667:\n        /* \"#utility.yul\":14701:14818   */\n    tag_666:\n        /* \"#utility.yul\":14842:14905   */\n      tag_668\n        /* \"#utility.yul\":14897:14904   */\n      dup9\n        /* \"#utility.yul\":14888:14894   */\n      dup3\n        /* \"#utility.yul\":14877:14886   */\n      dup10\n        /* \"#utility.yul\":14873:14895   */\n      add\n        /* \"#utility.yul\":14842:14905   */\n      tag_467\n      jump\t// in\n    tag_668:\n        /* \"#utility.yul\":14832:14905   */\n      swap5\n      pop\n        /* \"#utility.yul\":14627:14915   */\n      pop\n        /* \"#utility.yul\":14982:14984   */\n      0x40\n        /* \"#utility.yul\":14971:14980   */\n      dup7\n        /* \"#utility.yul\":14967:14985   */\n      add\n        /* \"#utility.yul\":14954:14986   */\n      calldataload\n        /* \"#utility.yul\":15013:15031   */\n      0xffffffffffffffff\n        /* \"#utility.yul\":15005:15011   */\n      dup2\n        /* \"#utility.yul\":15002:15032   */\n      gt\n        /* \"#utility.yul\":14999:15116   */\n      iszero\n      tag_669\n      jumpi\n        /* \"#utility.yul\":15035:15114   */\n      tag_670\n      tag_435\n      jump\t// in\n    tag_670:\n        /* \"#utility.yul\":14999:15116   */\n    tag_669:\n        /* \"#utility.yul\":15140:15203   */\n      tag_671\n        /* \"#utility.yul\":15195:15202   */\n      dup9\n        /* \"#utility.yul\":15186:15192   */\n      dup3\n        /* \"#utility.yul\":15175:15184   */\n      dup10\n        /* \"#utility.yul\":15171:15193   */\n      add\n        /* \"#utility.yul\":15140:15203   */\n      tag_467\n      jump\t// in\n    tag_671:\n        /* \"#utility.yul\":15130:15203   */\n      swap4\n      pop\n        /* \"#utility.yul\":14925:15213   */\n      pop\n        /* \"#utility.yul\":15280:15282   */\n      0x60\n        /* \"#utility.yul\":15269:15278   */\n      dup7\n        /* \"#utility.yul\":15265:15283   */\n      add\n        /* \"#utility.yul\":15252:15284   */\n      calldataload\n        /* \"#utility.yul\":15311:15329   */\n      0xffffffffffffffff\n        /* \"#utility.yul\":15303:15309   */\n      dup2\n        /* \"#utility.yul\":15300:15330   */\n      gt\n        /* \"#utility.yul\":15297:15414   */\n      iszero\n      tag_672\n      jumpi\n        /* \"#utility.yul\":15333:15412   */\n      tag_673\n      tag_435\n      jump\t// in\n    tag_673:\n        /* \"#utility.yul\":15297:15414   */\n    tag_672:\n        /* \"#utility.yul\":15438:15501   */\n      tag_674\n        /* \"#utility.yul\":15493:15500   */\n      dup9\n        /* \"#utility.yul\":15484:15490   */\n      dup3\n        /* \"#utility.yul\":15473:15482   */\n      dup10\n        /* \"#utility.yul\":15469:15491   */\n      add\n        /* \"#utility.yul\":15438:15501   */\n      tag_467\n      jump\t// in\n    tag_674:\n        /* \"#utility.yul\":15428:15501   */\n      swap3\n      pop\n        /* \"#utility.yul\":15223:15511   */\n      pop\n        /* \"#utility.yul\":15550:15553   */\n      0x80\n        /* \"#utility.yul\":15577:15630   */\n      tag_675\n        /* \"#utility.yul\":15622:15629   */\n      dup9\n        /* \"#utility.yul\":15613:15619   */\n      dup3\n        /* \"#utility.yul\":15602:15611   */\n      dup10\n        /* \"#utility.yul\":15598:15620   */\n      add\n        /* \"#utility.yul\":15577:15630   */\n      tag_439\n      jump\t// in\n    tag_675:\n        /* \"#utility.yul\":15567:15630   */\n      swap2\n      pop\n        /* \"#utility.yul\":15521:15640   */\n      pop\n        /* \"#utility.yul\":14016:15647   */\n      swap3\n      swap6\n      pop\n      swap3\n      swap6\n      swap1\n      swap4\n      pop\n      jump\t// out\n        /* \"#utility.yul\":15653:17610   */\n    tag_92:\n        /* \"#utility.yul\":15807:15813   */\n      0x00\n        /* \"#utility.yul\":15815:15821   */\n      dup1\n        /* \"#utility.yul\":15823:15829   */\n      0x00\n        /* \"#utility.yul\":15831:15837   */\n      dup1\n        /* \"#utility.yul\":15839:15845   */\n      0x00\n        /* \"#utility.yul\":15847:15853   */\n      dup1\n        /* \"#utility.yul\":15896:15899   */\n      0xc0\n        /* \"#utility.yul\":15884:15893   */\n      dup8\n        /* \"#utility.yul\":15875:15882   */\n      dup10\n        /* \"#utility.yul\":15871:15894   */\n      sub\n        /* \"#utility.yul\":15867:15900   */\n      slt\n        /* \"#utility.yul\":15864:15984   */\n      iszero\n      tag_677\n      jumpi\n        /* \"#utility.yul\":15903:15982   */\n      tag_678\n      tag_434\n      jump\t// in\n    tag_678:\n        /* \"#utility.yul\":15864:15984   */\n    tag_677:\n        /* \"#utility.yul\":16023:16024   */\n      0x00\n        /* \"#utility.yul\":16048:16101   */\n      tag_679\n        /* \"#utility.yul\":16093:16100   */\n      dup10\n        /* \"#utility.yul\":16084:16090   */\n      dup3\n        /* \"#utility.yul\":16073:16082   */\n      dup11\n        /* \"#utility.yul\":16069:16091   */\n      add\n        /* \"#utility.yul\":16048:16101   */\n      tag_439\n      jump\t// in\n    tag_679:\n        /* \"#utility.yul\":16038:16101   */\n      swap7\n      pop\n        /* \"#utility.yul\":15994:16111   */\n      pop\n        /* \"#utility.yul\":16178:16180   */\n      0x20\n        /* \"#utility.yul\":16167:16176   */\n      dup8\n        /* \"#utility.yul\":16163:16181   */\n      add\n        /* \"#utility.yul\":16150:16182   */\n      calldataload\n        /* \"#utility.yul\":16209:16227   */\n      0xffffffffffffffff\n        /* \"#utility.yul\":16201:16207   */\n      dup2\n        /* \"#utility.yul\":16198:16228   */\n      gt\n        /* \"#utility.yul\":16195:16312   */\n      iszero\n      tag_680\n      jumpi\n        /* \"#utility.yul\":16231:16310   */\n      tag_681\n      tag_435\n      jump\t// in\n    tag_681:\n        /* \"#utility.yul\":16195:16312   */\n    tag_680:\n        /* \"#utility.yul\":16336:16399   */\n      tag_682\n        /* \"#utility.yul\":16391:16398   */\n      dup10\n        /* \"#utility.yul\":16382:16388   */\n      dup3\n        /* \"#utility.yul\":16371:16380   */\n      dup11\n        /* \"#utility.yul\":16367:16389   */\n      add\n        /* \"#utility.yul\":16336:16399   */\n      tag_467\n      jump\t// in\n    tag_682:\n        /* \"#utility.yul\":16326:16399   */\n      swap6\n      pop\n        /* \"#utility.yul\":16121:16409   */\n      pop\n        /* \"#utility.yul\":16476:16478   */\n      0x40\n        /* \"#utility.yul\":16465:16474   */\n      dup8\n        /* \"#utility.yul\":16461:16479   */\n      add\n        /* \"#utility.yul\":16448:16480   */\n      calldataload\n        /* \"#utility.yul\":16507:16525   */\n      0xffffffffffffffff\n        /* \"#utility.yul\":16499:16505   */\n      dup2\n        /* \"#utility.yul\":16496:16526   */\n      gt\n        /* \"#utility.yul\":16493:16610   */\n      iszero\n      tag_683\n      jumpi\n        /* \"#utility.yul\":16529:16608   */\n      tag_684\n      tag_435\n      jump\t// in\n    tag_684:\n        /* \"#utility.yul\":16493:16610   */\n    tag_683:\n        /* \"#utility.yul\":16634:16697   */\n      tag_685\n        /* \"#utility.yul\":16689:16696   */\n      dup10\n        /* \"#utility.yul\":16680:16686   */\n      dup3\n        /* \"#utility.yul\":16669:16678   */\n      dup11\n        /* \"#utility.yul\":16665:16687   */\n      add\n        /* \"#utility.yul\":16634:16697   */\n      tag_467\n      jump\t// in\n    tag_685:\n        /* \"#utility.yul\":16624:16697   */\n      swap5\n      pop\n        /* \"#utility.yul\":16419:16707   */\n      pop\n        /* \"#utility.yul\":16774:16776   */\n      0x60\n        /* \"#utility.yul\":16763:16772   */\n      dup8\n        /* \"#utility.yul\":16759:16777   */\n      add\n        /* \"#utility.yul\":16746:16778   */\n      calldataload\n        /* \"#utility.yul\":16805:16823   */\n      0xffffffffffffffff\n        /* \"#utility.yul\":16797:16803   */\n      dup2\n        /* \"#utility.yul\":16794:16824   */\n      gt\n        /* \"#utility.yul\":16791:16908   */\n      iszero\n      tag_686\n      jumpi\n        /* \"#utility.yul\":16827:16906   */\n      tag_687\n      tag_435\n      jump\t// in\n    tag_687:\n        /* \"#utility.yul\":16791:16908   */\n    tag_686:\n        /* \"#utility.yul\":16932:16995   */\n      tag_688\n        /* \"#utility.yul\":16987:16994   */\n      dup10\n        /* \"#utility.yul\":16978:16984   */\n      dup3\n        /* \"#utility.yul\":16967:16976   */\n      dup11\n        /* \"#utility.yul\":16963:16985   */\n      add\n        /* \"#utility.yul\":16932:16995   */\n      tag_467\n      jump\t// in\n    tag_688:\n        /* \"#utility.yul\":16922:16995   */\n      swap4\n      pop\n        /* \"#utility.yul\":16717:17005   */\n      pop\n        /* \"#utility.yul\":17072:17075   */\n      0x80\n        /* \"#utility.yul\":17061:17070   */\n      dup8\n        /* \"#utility.yul\":17057:17076   */\n      add\n        /* \"#utility.yul\":17044:17077   */\n      calldataload\n        /* \"#utility.yul\":17104:17122   */\n      0xffffffffffffffff\n        /* \"#utility.yul\":17096:17102   */\n      dup2\n        /* \"#utility.yul\":17093:17123   */\n      gt\n        /* \"#utility.yul\":17090:17207   */\n      iszero\n      tag_689\n      jumpi\n        /* \"#utility.yul\":17126:17205   */\n      tag_690\n      tag_435\n      jump\t// in\n    tag_690:\n        /* \"#utility.yul\":17090:17207   */\n    tag_689:\n        /* \"#utility.yul\":17231:17294   */\n      tag_691\n        /* \"#utility.yul\":17286:17293   */\n      dup10\n        /* \"#utility.yul\":17277:17283   */\n      dup3\n        /* \"#utility.yul\":17266:17275   */\n      dup11\n        /* \"#utility.yul\":17262:17284   */\n      add\n        /* \"#utility.yul\":17231:17294   */\n      tag_467\n      jump\t// in\n    tag_691:\n        /* \"#utility.yul\":17221:17294   */\n      swap3\n      pop\n        /* \"#utility.yul\":17015:17304   */\n      pop\n        /* \"#utility.yul\":17371:17374   */\n      0xa0\n        /* \"#utility.yul\":17360:17369   */\n      dup8\n        /* \"#utility.yul\":17356:17375   */\n      add\n        /* \"#utility.yul\":17343:17376   */\n      calldataload\n        /* \"#utility.yul\":17403:17421   */\n      0xffffffffffffffff\n        /* \"#utility.yul\":17395:17401   */\n      dup2\n        /* \"#utility.yul\":17392:17422   */\n      gt\n        /* \"#utility.yul\":17389:17506   */\n      iszero\n      tag_692\n      jumpi\n        /* \"#utility.yul\":17425:17504   */\n      tag_693\n      tag_435\n      jump\t// in\n    tag_693:\n        /* \"#utility.yul\":17389:17506   */\n    tag_692:\n        /* \"#utility.yul\":17530:17593   */\n      tag_694\n        /* \"#utility.yul\":17585:17592   */\n      dup10\n        /* \"#utility.yul\":17576:17582   */\n      dup3\n        /* \"#utility.yul\":17565:17574   */\n      dup11\n        /* \"#utility.yul\":17561:17583   */\n      add\n        /* \"#utility.yul\":17530:17593   */\n      tag_467\n      jump\t// in\n    tag_694:\n        /* \"#utility.yul\":17520:17593   */\n      swap2\n      pop\n        /* \"#utility.yul\":17314:17603   */\n      pop\n        /* \"#utility.yul\":15653:17610   */\n      swap3\n      swap6\n      pop\n      swap3\n      swap6\n      pop\n      swap3\n      swap6\n      jump\t// out\n        /* \"#utility.yul\":17616:18937   */\n    tag_98:\n        /* \"#utility.yul\":17969:17973   */\n      0x00\n        /* \"#utility.yul\":18007:18010   */\n      0xc0\n        /* \"#utility.yul\":17996:18005   */\n      dup3\n        /* \"#utility.yul\":17992:18011   */\n      add\n        /* \"#utility.yul\":17984:18011   */\n      swap1\n      pop\n        /* \"#utility.yul\":18057:18066   */\n      dup2\n        /* \"#utility.yul\":18051:18055   */\n      dup2\n        /* \"#utility.yul\":18047:18067   */\n      sub\n        /* \"#utility.yul\":18043:18044   */\n      0x00\n        /* \"#utility.yul\":18032:18041   */\n      dup4\n        /* \"#utility.yul\":18028:18045   */\n      add\n        /* \"#utility.yul\":18021:18068   */\n      mstore\n        /* \"#utility.yul\":18085:18163   */\n      tag_696\n        /* \"#utility.yul\":18158:18162   */\n      dup2\n        /* \"#utility.yul\":18149:18155   */\n      dup10\n        /* \"#utility.yul\":18085:18163   */\n      tag_459\n      jump\t// in\n    tag_696:\n        /* \"#utility.yul\":18077:18163   */\n      swap1\n      pop\n        /* \"#utility.yul\":18210:18219   */\n      dup2\n        /* \"#utility.yul\":18204:18208   */\n      dup2\n        /* \"#utility.yul\":18200:18220   */\n      sub\n        /* \"#utility.yul\":18195:18197   */\n      0x20\n        /* \"#utility.yul\":18184:18193   */\n      dup4\n        /* \"#utility.yul\":18180:18198   */\n      add\n        /* \"#utility.yul\":18173:18221   */\n      mstore\n        /* \"#utility.yul\":18238:18316   */\n      tag_697\n        /* \"#utility.yul\":18311:18315   */\n      dup2\n        /* \"#utility.yul\":18302:18308   */\n      dup9\n        /* \"#utility.yul\":18238:18316   */\n      tag_459\n      jump\t// in\n    tag_697:\n        /* \"#utility.yul\":18230:18316   */\n      swap1\n      pop\n        /* \"#utility.yul\":18363:18372   */\n      dup2\n        /* \"#utility.yul\":18357:18361   */\n      dup2\n        /* \"#utility.yul\":18353:18373   */\n      sub\n        /* \"#utility.yul\":18348:18350   */\n      0x40\n        /* \"#utility.yul\":18337:18346   */\n      dup4\n        /* \"#utility.yul\":18333:18351   */\n      add\n        /* \"#utility.yul\":18326:18374   */\n      mstore\n        /* \"#utility.yul\":18391:18469   */\n      tag_698\n        /* \"#utility.yul\":18464:18468   */\n      dup2\n        /* \"#utility.yul\":18455:18461   */\n      dup8\n        /* \"#utility.yul\":18391:18469   */\n      tag_459\n      jump\t// in\n    tag_698:\n        /* \"#utility.yul\":18383:18469   */\n      swap1\n      pop\n        /* \"#utility.yul\":18516:18525   */\n      dup2\n        /* \"#utility.yul\":18510:18514   */\n      dup2\n        /* \"#utility.yul\":18506:18526   */\n      sub\n        /* \"#utility.yul\":18501:18503   */\n      0x60\n        /* \"#utility.yul\":18490:18499   */\n      dup4\n        /* \"#utility.yul\":18486:18504   */\n      add\n        /* \"#utility.yul\":18479:18527   */\n      mstore\n        /* \"#utility.yul\":18544:18622   */\n      tag_699\n        /* \"#utility.yul\":18617:18621   */\n      dup2\n        /* \"#utility.yul\":18608:18614   */\n      dup7\n        /* \"#utility.yul\":18544:18622   */\n      tag_459\n      jump\t// in\n    tag_699:\n        /* \"#utility.yul\":18536:18622   */\n      swap1\n      pop\n        /* \"#utility.yul\":18670:18679   */\n      dup2\n        /* \"#utility.yul\":18664:18668   */\n      dup2\n        /* \"#utility.yul\":18660:18680   */\n      sub\n        /* \"#utility.yul\":18654:18657   */\n      0x80\n        /* \"#utility.yul\":18643:18652   */\n      dup4\n        /* \"#utility.yul\":18639:18658   */\n      add\n        /* \"#utility.yul\":18632:18681   */\n      mstore\n        /* \"#utility.yul\":18698:18776   */\n      tag_700\n        /* \"#utility.yul\":18771:18775   */\n      dup2\n        /* \"#utility.yul\":18762:18768   */\n      dup6\n        /* \"#utility.yul\":18698:18776   */\n      tag_459\n      jump\t// in\n    tag_700:\n        /* \"#utility.yul\":18690:18776   */\n      swap1\n      pop\n        /* \"#utility.yul\":18824:18833   */\n      dup2\n        /* \"#utility.yul\":18818:18822   */\n      dup2\n        /* \"#utility.yul\":18814:18834   */\n      sub\n        /* \"#utility.yul\":18808:18811   */\n      0xa0\n        /* \"#utility.yul\":18797:18806   */\n      dup4\n        /* \"#utility.yul\":18793:18812   */\n      add\n        /* \"#utility.yul\":18786:18835   */\n      mstore\n        /* \"#utility.yul\":18852:18930   */\n      tag_701\n        /* \"#utility.yul\":18925:18929   */\n      dup2\n        /* \"#utility.yul\":18916:18922   */\n      dup5\n        /* \"#utility.yul\":18852:18930   */\n      tag_459\n      jump\t// in\n    tag_701:\n        /* \"#utility.yul\":18844:18930   */\n      swap1\n      pop\n        /* \"#utility.yul\":17616:18937   */\n      swap8\n      swap7\n      pop\n      pop\n      pop\n      pop\n      pop\n      pop\n      pop\n      jump\t// out\n        /* \"#utility.yul\":18943:19111   */\n    tag_468:\n        /* \"#utility.yul\":19083:19103   */\n      0x416c7265616479204e6f20417574682121210000000000000000000000000000\n        /* \"#utility.yul\":19079:19080   */\n      0x00\n        /* \"#utility.yul\":19071:19077   */\n      dup3\n        /* \"#utility.yul\":19067:19081   */\n      add\n        /* \"#utility.yul\":19060:19104   */\n      mstore\n        /* \"#utility.yul\":18943:19111   */\n      pop\n      jump\t// out\n        /* \"#utility.yul\":19117:19483   */\n    tag_469:\n        /* \"#utility.yul\":19259:19262   */\n      0x00\n        /* \"#utility.yul\":19280:19347   */\n      tag_704\n        /* \"#utility.yul\":19344:19346   */\n      0x12\n        /* \"#utility.yul\":19339:19342   */\n      dup4\n        /* \"#utility.yul\":19280:19347   */\n      tag_458\n      jump\t// in\n    tag_704:\n        /* \"#utility.yul\":19273:19347   */\n      swap2\n      pop\n        /* \"#utility.yul\":19356:19449   */\n      tag_705\n        /* \"#utility.yul\":19445:19448   */\n      dup3\n        /* \"#utility.yul\":19356:19449   */\n      tag_468\n      jump\t// in\n    tag_705:\n        /* \"#utility.yul\":19474:19476   */\n      0x20\n        /* \"#utility.yul\":19469:19472   */\n      dup3\n        /* \"#utility.yul\":19465:19477   */\n      add\n        /* \"#utility.yul\":19458:19477   */\n      swap1\n      pop\n        /* \"#utility.yul\":19117:19483   */\n      swap2\n      swap1\n      pop\n      jump\t// out\n        /* \"#utility.yul\":19489:19908   */\n    tag_106:\n        /* \"#utility.yul\":19655:19659   */\n      0x00\n        /* \"#utility.yul\":19693:19695   */\n      0x20\n        /* \"#utility.yul\":19682:19691   */\n      dup3\n        /* \"#utility.yul\":19678:19696   */\n      add\n        /* \"#utility.yul\":19670:19696   */\n      swap1\n      pop\n        /* \"#utility.yul\":19742:19751   */\n      dup2\n        /* \"#utility.yul\":19736:19740   */\n      dup2\n        /* \"#utility.yul\":19732:19752   */\n      sub\n        /* \"#utility.yul\":19728:19729   */\n      0x00\n        /* \"#utility.yul\":19717:19726   */\n      dup4\n        /* \"#utility.yul\":19713:19730   */\n      add\n        /* \"#utility.yul\":19706:19753   */\n      mstore\n        /* \"#utility.yul\":19770:19901   */\n      tag_707\n        /* \"#utility.yul\":19896:19900   */\n      dup2\n        /* \"#utility.yul\":19770:19901   */\n      tag_469\n      jump\t// in\n    tag_707:\n        /* \"#utility.yul\":19762:19901   */\n      swap1\n      pop\n        /* \"#utility.yul\":19489:19908   */\n      swap2\n      swap1\n      pop\n      jump\t// out\n        /* \"#utility.yul\":19914:20088   */\n    tag_470:\n        /* \"#utility.yul\":20054:20080   */\n      0x63616e27742072656d6f76652073616d6520706572736f6e0000000000000000\n        /* \"#utility.yul\":20050:20051   */\n      0x00\n        /* \"#utility.yul\":20042:20048   */\n      dup3\n        /* \"#utility.yul\":20038:20052   */\n      add\n        /* \"#utility.yul\":20031:20081   */\n      mstore\n        /* \"#utility.yul\":19914:20088   */\n      pop\n      jump\t// out\n        /* \"#utility.yul\":20094:20460   */\n    tag_471:\n        /* \"#utility.yul\":20236:20239   */\n      0x00\n        /* \"#utility.yul\":20257:20324   */\n      tag_710\n        /* \"#utility.yul\":20321:20323   */\n      0x18\n        /* \"#utility.yul\":20316:20319   */\n      dup4\n        /* \"#utility.yul\":20257:20324   */\n      tag_458\n      jump\t// in\n    tag_710:\n        /* \"#utility.yul\":20250:20324   */\n      swap2\n      pop\n        /* \"#utility.yul\":20333:20426   */\n      tag_711\n        /* \"#utility.yul\":20422:20425   */\n      dup3\n        /* \"#utility.yul\":20333:20426   */\n      tag_470\n      jump\t// in\n    tag_711:\n        /* \"#utility.yul\":20451:20453   */\n      0x20\n        /* \"#utility.yul\":20446:20449   */\n      dup3\n        /* \"#utility.yul\":20442:20454   */\n      add\n        /* \"#utility.yul\":20435:20454   */\n      swap1\n      pop\n        /* \"#utility.yul\":20094:20460   */\n      swap2\n      swap1\n      pop\n      jump\t// out\n        /* \"#utility.yul\":20466:20885   */\n    tag_109:\n        /* \"#utility.yul\":20632:20636   */\n      0x00\n        /* \"#utility.yul\":20670:20672   */\n      0x20\n        /* \"#utility.yul\":20659:20668   */\n      dup3\n        /* \"#utility.yul\":20655:20673   */\n      add\n        /* \"#utility.yul\":20647:20673   */\n      swap1\n      pop\n        /* \"#utility.yul\":20719:20728   */\n      dup2\n        /* \"#utility.yul\":20713:20717   */\n      dup2\n        /* \"#utility.yul\":20709:20729   */\n      sub\n        /* \"#utility.yul\":20705:20706   */\n      0x00\n        /* \"#utility.yul\":20694:20703   */\n      dup4\n        /* \"#utility.yul\":20690:20707   */\n      add\n        /* \"#utility.yul\":20683:20730   */\n      mstore\n        /* \"#utility.yul\":20747:20878   */\n      tag_713\n        /* \"#utility.yul\":20873:20877   */\n      dup2\n        /* \"#utility.yul\":20747:20878   */\n      tag_471\n      jump\t// in\n    tag_713:\n        /* \"#utility.yul\":20739:20878   */\n      swap1\n      pop\n        /* \"#utility.yul\":20466:20885   */\n      swap2\n      swap1\n      pop\n      jump\t// out\n        /* \"#utility.yul\":20891:21113   */\n    tag_472:\n        /* \"#utility.yul\":21031:21065   */\n      0x596f7520646f6e27742068617665207065726d697373696f6e20746f20616363\n        /* \"#utility.yul\":21027:21028   */\n      0x00\n        /* \"#utility.yul\":21019:21025   */\n      dup3\n        /* \"#utility.yul\":21015:21029   */\n      add\n        /* \"#utility.yul\":21008:21066   */\n      mstore\n        /* \"#utility.yul\":21100:21105   */\n      0x6573730000000000000000000000000000000000000000000000000000000000\n        /* \"#utility.yul\":21095:21097   */\n      0x20\n        /* \"#utility.yul\":21087:21093   */\n      dup3\n        /* \"#utility.yul\":21083:21098   */\n      add\n        /* \"#utility.yul\":21076:21106   */\n      mstore\n        /* \"#utility.yul\":20891:21113   */\n      pop\n      jump\t// out\n        /* \"#utility.yul\":21119:21485   */\n    tag_473:\n        /* \"#utility.yul\":21261:21264   */\n      0x00\n        /* \"#utility.yul\":21282:21349   */\n      tag_716\n        /* \"#utility.yul\":21346:21348   */\n      0x23\n        /* \"#utility.yul\":21341:21344   */\n      dup4\n        /* \"#utility.yul\":21282:21349   */\n      tag_458\n      jump\t// in\n    tag_716:\n        /* \"#utility.yul\":21275:21349   */\n      swap2\n      pop\n        /* \"#utility.yul\":21358:21451   */\n      tag_717\n        /* \"#utility.yul\":21447:21450   */\n      dup3\n        /* \"#utility.yul\":21358:21451   */\n      tag_472\n      jump\t// in\n    tag_717:\n        /* \"#utility.yul\":21476:21478   */\n      0x40\n        /* \"#utility.yul\":21471:21474   */\n      dup3\n        /* \"#utility.yul\":21467:21479   */\n      add\n        /* \"#utility.yul\":21460:21479   */\n      swap1\n      pop\n        /* \"#utility.yul\":21119:21485   */\n      swap2\n      swap1\n      pop\n      jump\t// out\n        /* \"#utility.yul\":21491:21910   */\n    tag_112:\n        /* \"#utility.yul\":21657:21661   */\n      0x00\n        /* \"#utility.yul\":21695:21697   */\n      0x20\n        /* \"#utility.yul\":21684:21693   */\n      dup3\n        /* \"#utility.yul\":21680:21698   */\n      add\n        /* \"#utility.yul\":21672:21698   */\n      swap1\n      pop\n        /* \"#utility.yul\":21744:21753   */\n      dup2\n        /* \"#utility.yul\":21738:21742   */\n      dup2\n        /* \"#utility.yul\":21734:21754   */\n      sub\n        /* \"#utility.yul\":21730:21731   */\n      0x00\n        /* \"#utility.yul\":21719:21728   */\n      dup4\n        /* \"#utility.yul\":21715:21732   */\n      add\n        /* \"#utility.yul\":21708:21755   */\n      mstore\n        /* \"#utility.yul\":21772:21903   */\n      tag_719\n        /* \"#utility.yul\":21898:21902   */\n      dup2\n        /* \"#utility.yul\":21772:21903   */\n      tag_473\n      jump\t// in\n    tag_719:\n        /* \"#utility.yul\":21764:21903   */\n      swap1\n      pop\n        /* \"#utility.yul\":21491:21910   */\n      swap2\n      swap1\n      pop\n      jump\t// out\n        /* \"#utility.yul\":21916:22089   */\n    tag_474:\n        /* \"#utility.yul\":22056:22081   */\n      0x55736572204e6f74205265676973746572656420796574000000000000000000\n        /* \"#utility.yul\":22052:22053   */\n      0x00\n        /* \"#utility.yul\":22044:22050   */\n      dup3\n        /* \"#utility.yul\":22040:22054   */\n      add\n        /* \"#utility.yul\":22033:22082   */\n      mstore\n        /* \"#utility.yul\":21916:22089   */\n      pop\n      jump\t// out\n        /* \"#utility.yul\":22095:22461   */\n    tag_475:\n        /* \"#utility.yul\":22237:22240   */\n      0x00\n        /* \"#utility.yul\":22258:22325   */\n      tag_722\n        /* \"#utility.yul\":22322:22324   */\n      0x17\n        /* \"#utility.yul\":22317:22320   */\n      dup4\n        /* \"#utility.yul\":22258:22325   */\n      tag_458\n      jump\t// in\n    tag_722:\n        /* \"#utility.yul\":22251:22325   */\n      swap2\n      pop\n        /* \"#utility.yul\":22334:22427   */\n      tag_723\n        /* \"#utility.yul\":22423:22426   */\n      dup3\n        /* \"#utility.yul\":22334:22427   */\n      tag_474\n      jump\t// in\n    tag_723:\n        /* \"#utility.yul\":22452:22454   */\n      0x20\n        /* \"#utility.yul\":22447:22450   */\n      dup3\n        /* \"#utility.yul\":22443:22455   */\n      add\n        /* \"#utility.yul\":22436:22455   */\n      swap1\n      pop\n        /* \"#utility.yul\":22095:22461   */\n      swap2\n      swap1\n      pop\n      jump\t// out\n        /* \"#utility.yul\":22467:22886   */\n    tag_115:\n        /* \"#utility.yul\":22633:22637   */\n      0x00\n        /* \"#utility.yul\":22671:22673   */\n      0x20\n        /* \"#utility.yul\":22660:22669   */\n      dup3\n        /* \"#utility.yul\":22656:22674   */\n      add\n        /* \"#utility.yul\":22648:22674   */\n      swap1\n      pop\n        /* \"#utility.yul\":22720:22729   */\n      dup2\n        /* \"#utility.yul\":22714:22718   */\n      dup2\n        /* \"#utility.yul\":22710:22730   */\n      sub\n        /* \"#utility.yul\":22706:22707   */\n      0x00\n        /* \"#utility.yul\":22695:22704   */\n      dup4\n        /* \"#utility.yul\":22691:22708   */\n      add\n        /* \"#utility.yul\":22684:22731   */\n      mstore\n        /* \"#utility.yul\":22748:22879   */\n      tag_725\n        /* \"#utility.yul\":22874:22878   */\n      dup2\n        /* \"#utility.yul\":22748:22879   */\n      tag_475\n      jump\t// in\n    tag_725:\n        /* \"#utility.yul\":22740:22879   */\n      swap1\n      pop\n        /* \"#utility.yul\":22467:22886   */\n      swap2\n      swap1\n      pop\n      jump\t// out\n        /* \"#utility.yul\":22892:23125   */\n    tag_476:\n        /* \"#utility.yul\":23032:23066   */\n      0x4f6e6c79204d616e6167657220686173207065726d697373696f6e20746f2064\n        /* \"#utility.yul\":23028:23029   */\n      0x00\n        /* \"#utility.yul\":23020:23026   */\n      dup3\n        /* \"#utility.yul\":23016:23030   */\n      add\n        /* \"#utility.yul\":23009:23067   */\n      mstore\n        /* \"#utility.yul\":23101:23117   */\n      0x6f207468617420616374696f6e2e000000000000000000000000000000000000\n        /* \"#utility.yul\":23096:23098   */\n      0x20\n        /* \"#utility.yul\":23088:23094   */\n      dup3\n        /* \"#utility.yul\":23084:23099   */\n      add\n        /* \"#utility.yul\":23077:23118   */\n      mstore\n        /* \"#utility.yul\":22892:23125   */\n      pop\n      jump\t// out\n        /* \"#utility.yul\":23131:23497   */\n    tag_477:\n        /* \"#utility.yul\":23273:23276   */\n      0x00\n        /* \"#utility.yul\":23294:23361   */\n      tag_728\n        /* \"#utility.yul\":23358:23360   */\n      0x2e\n        /* \"#utility.yul\":23353:23356   */\n      dup4\n        /* \"#utility.yul\":23294:23361   */\n      tag_458\n      jump\t// in\n    tag_728:\n        /* \"#utility.yul\":23287:23361   */\n      swap2\n      pop\n        /* \"#utility.yul\":23370:23463   */\n      tag_729\n        /* \"#utility.yul\":23459:23462   */\n      dup3\n        /* \"#utility.yul\":23370:23463   */\n      tag_476\n      jump\t// in\n    tag_729:\n        /* \"#utility.yul\":23488:23490   */\n      0x40\n        /* \"#utility.yul\":23483:23486   */\n      dup3\n        /* \"#utility.yul\":23479:23491   */\n      add\n        /* \"#utility.yul\":23472:23491   */\n      swap1\n      pop\n        /* \"#utility.yul\":23131:23497   */\n      swap2\n      swap1\n      pop\n      jump\t// out\n        /* \"#utility.yul\":23503:23922   */\n    tag_121:\n        /* \"#utility.yul\":23669:23673   */\n      0x00\n        /* \"#utility.yul\":23707:23709   */\n      0x20\n        /* \"#utility.yul\":23696:23705   */\n      dup3\n        /* \"#utility.yul\":23692:23710   */\n      add\n        /* \"#utility.yul\":23684:23710   */\n      swap1\n      pop\n        /* \"#utility.yul\":23756:23765   */\n      dup2\n        /* \"#utility.yul\":23750:23754   */\n      dup2\n        /* \"#utility.yul\":23746:23766   */\n      sub\n        /* \"#utility.yul\":23742:23743   */\n      0x00\n        /* \"#utility.yul\":23731:23740   */\n      dup4\n        /* \"#utility.yul\":23727:23744   */\n      add\n        /* \"#utility.yul\":23720:23767   */\n      mstore\n        /* \"#utility.yul\":23784:23915   */\n      tag_731\n        /* \"#utility.yul\":23910:23914   */\n      dup2\n        /* \"#utility.yul\":23784:23915   */\n      tag_477\n      jump\t// in\n    tag_731:\n        /* \"#utility.yul\":23776:23915   */\n      swap1\n      pop\n        /* \"#utility.yul\":23503:23922   */\n      swap2\n      swap1\n      pop\n      jump\t// out\n        /* \"#utility.yul\":23928:24107   */\n    tag_478:\n        /* \"#utility.yul\":24068:24099   */\n      0x43616e27742072656d6f7665206f776e65722066726f6d2061646d696e000000\n        /* \"#utility.yul\":24064:24065   */\n      0x00\n        /* \"#utility.yul\":24056:24062   */\n      dup3\n        /* \"#utility.yul\":24052:24066   */\n      add\n        /* \"#utility.yul\":24045:24100   */\n      mstore\n        /* \"#utility.yul\":23928:24107   */\n      pop\n      jump\t// out\n        /* \"#utility.yul\":24113:24479   */\n    tag_479:\n        /* \"#utility.yul\":24255:24258   */\n      0x00\n        /* \"#utility.yul\":24276:24343   */\n      tag_734\n        /* \"#utility.yul\":24340:24342   */\n      0x1d\n        /* \"#utility.yul\":24335:24338   */\n      dup4\n        /* \"#utility.yul\":24276:24343   */\n      tag_458\n      jump\t// in\n    tag_734:\n        /* \"#utility.yul\":24269:24343   */\n      swap2\n      pop\n        /* \"#utility.yul\":24352:24445   */\n      tag_735\n        /* \"#utility.yul\":24441:24444   */\n      dup3\n        /* \"#utility.yul\":24352:24445   */\n      tag_478\n      jump\t// in\n    tag_735:\n        /* \"#utility.yul\":24470:24472   */\n      0x20\n        /* \"#utility.yul\":24465:24468   */\n      dup3\n        /* \"#utility.yul\":24461:24473   */\n      add\n        /* \"#utility.yul\":24454:24473   */\n      swap1\n      pop\n        /* \"#utility.yul\":24113:24479   */\n      swap2\n      swap1\n      pop\n      jump\t// out\n        /* \"#utility.yul\":24485:24904   */\n    tag_125:\n        /* \"#utility.yul\":24651:24655   */\n      0x00\n        /* \"#utility.yul\":24689:24691   */\n      0x20\n        /* \"#utility.yul\":24678:24687   */\n      dup3\n        /* \"#utility.yul\":24674:24692   */\n      add\n        /* \"#utility.yul\":24666:24692   */\n      swap1\n      pop\n        /* \"#utility.yul\":24738:24747   */\n      dup2\n        /* \"#utility.yul\":24732:24736   */\n      dup2\n        /* \"#utility.yul\":24728:24748   */\n      sub\n        /* \"#utility.yul\":24724:24725   */\n      0x00\n        /* \"#utility.yul\":24713:24722   */\n      dup4\n        /* \"#utility.yul\":24709:24726   */\n      add\n        /* \"#utility.yul\":24702:24749   */\n      mstore\n        /* \"#utility.yul\":24766:24897   */\n      tag_737\n        /* \"#utility.yul\":24892:24896   */\n      dup2\n        /* \"#utility.yul\":24766:24897   */\n      tag_479\n      jump\t// in\n    tag_737:\n        /* \"#utility.yul\":24758:24897   */\n      swap1\n      pop\n        /* \"#utility.yul\":24485:24904   */\n      swap2\n      swap1\n      pop\n      jump\t// out\n        /* \"#utility.yul\":24910:25085   */\n    tag_480:\n        /* \"#utility.yul\":25050:25077   */\n      0x55736572206e6f742061646d696e20616c726561647921212100000000000000\n        /* \"#utility.yul\":25046:25047   */\n      0x00\n        /* \"#utility.yul\":25038:25044   */\n      dup3\n        /* \"#utility.yul\":25034:25048   */\n      add\n        /* \"#utility.yul\":25027:25078   */\n      mstore\n        /* \"#utility.yul\":24910:25085   */\n      pop\n      jump\t// out\n        /* \"#utility.yul\":25091:25457   */\n    tag_481:\n        /* \"#utility.yul\":25233:25236   */\n      0x00\n        /* \"#utility.yul\":25254:25321   */\n      tag_740\n        /* \"#utility.yul\":25318:25320   */\n      0x19\n        /* \"#utility.yul\":25313:25316   */\n      dup4\n        /* \"#utility.yul\":25254:25321   */\n      tag_458\n      jump\t// in\n    tag_740:\n        /* \"#utility.yul\":25247:25321   */\n      swap2\n      pop\n        /* \"#utility.yul\":25330:25423   */\n      tag_741\n        /* \"#utility.yul\":25419:25422   */\n      dup3\n        /* \"#utility.yul\":25330:25423   */\n      tag_480\n      jump\t// in\n    tag_741:\n        /* \"#utility.yul\":25448:25450   */\n      0x20\n        /* \"#utility.yul\":25443:25446   */\n      dup3\n        /* \"#utility.yul\":25439:25451   */\n      add\n        /* \"#utility.yul\":25432:25451   */\n      swap1\n      pop\n        /* \"#utility.yul\":25091:25457   */\n      swap2\n      swap1\n      pop\n      jump\t// out\n        /* \"#utility.yul\":25463:25882   */\n    tag_128:\n        /* \"#utility.yul\":25629:25633   */\n      0x00\n        /* \"#utility.yul\":25667:25669   */\n      0x20\n        /* \"#utility.yul\":25656:25665   */\n      dup3\n        /* \"#utility.yul\":25652:25670   */\n      add\n        /* \"#utility.yul\":25644:25670   */\n      swap1\n      pop\n        /* \"#utility.yul\":25716:25725   */\n      dup2\n        /* \"#utility.yul\":25710:25714   */\n      dup2\n        /* \"#utility.yul\":25706:25726   */\n      sub\n        /* \"#utility.yul\":25702:25703   */\n      0x00\n        /* \"#utility.yul\":25691:25700   */\n      dup4\n        /* \"#utility.yul\":25687:25704   */\n      add\n        /* \"#utility.yul\":25680:25727   */\n      mstore\n        /* \"#utility.yul\":25744:25875   */\n      tag_743\n        /* \"#utility.yul\":25870:25874   */\n      dup2\n        /* \"#utility.yul\":25744:25875   */\n      tag_481\n      jump\t// in\n    tag_743:\n        /* \"#utility.yul\":25736:25875   */\n      swap1\n      pop\n        /* \"#utility.yul\":25463:25882   */\n      swap2\n      swap1\n      pop\n      jump\t// out\n        /* \"#utility.yul\":25888:26066   */\n    tag_482:\n        /* \"#utility.yul\":26028:26058   */\n      0x4e6f207065726d697373696f6e20746f20676574205265636f72647300000000\n        /* \"#utility.yul\":26024:26025   */\n      0x00\n        /* \"#utility.yul\":26016:26022   */\n      dup3\n        /* \"#utility.yul\":26012:26026   */\n      add\n        /* \"#utility.yul\":26005:26059   */\n      mstore\n        /* \"#utility.yul\":25888:26066   */\n      pop\n      jump\t// out\n        /* \"#utility.yul\":26072:26438   */\n    tag_483:\n        /* \"#utility.yul\":26214:26217   */\n      0x00\n        /* \"#utility.yul\":26235:26302   */\n      tag_746\n        /* \"#utility.yul\":26299:26301   */\n      0x1c\n        /* \"#utility.yul\":26294:26297   */\n      dup4\n        /* \"#utility.yul\":26235:26302   */\n      tag_458\n      jump\t// in\n    tag_746:\n        /* \"#utility.yul\":26228:26302   */\n      swap2\n      pop\n        /* \"#utility.yul\":26311:26404   */\n      tag_747\n        /* \"#utility.yul\":26400:26403   */\n      dup3\n        /* \"#utility.yul\":26311:26404   */\n      tag_482\n      jump\t// in\n    tag_747:\n        /* \"#utility.yul\":26429:26431   */\n      0x20\n        /* \"#utility.yul\":26424:26427   */\n      dup3\n        /* \"#utility.yul\":26420:26432   */\n      add\n        /* \"#utility.yul\":26413:26432   */\n      swap1\n      pop\n        /* \"#utility.yul\":26072:26438   */\n      swap2\n      swap1\n      pop\n      jump\t// out\n        /* \"#utility.yul\":26444:26863   */\n    tag_132:\n        /* \"#utility.yul\":26610:26614   */\n      0x00\n        /* \"#utility.yul\":26648:26650   */\n      0x20\n        /* \"#utility.yul\":26637:26646   */\n      dup3\n        /* \"#utility.yul\":26633:26651   */\n      add\n        /* \"#utility.yul\":26625:26651   */\n      swap1\n      pop\n        /* \"#utility.yul\":26697:26706   */\n      dup2\n        /* \"#utility.yul\":26691:26695   */\n      dup2\n        /* \"#utility.yul\":26687:26707   */\n      sub\n        /* \"#utility.yul\":26683:26684   */\n      0x00\n        /* \"#utility.yul\":26672:26681   */\n      dup4\n        /* \"#utility.yul\":26668:26685   */\n      add\n        /* \"#utility.yul\":26661:26708   */\n      mstore\n        /* \"#utility.yul\":26725:26856   */\n      tag_749\n        /* \"#utility.yul\":26851:26855   */\n      dup2\n        /* \"#utility.yul\":26725:26856   */\n      tag_483\n      jump\t// in\n    tag_749:\n        /* \"#utility.yul\":26717:26856   */\n      swap1\n      pop\n        /* \"#utility.yul\":26444:26863   */\n      swap2\n      swap1\n      pop\n      jump\t// out\n        /* \"#utility.yul\":26869:27092   */\n    tag_484:\n        /* \"#utility.yul\":27009:27043   */\n      0x70617469656e74206e6f74207369676e656420696e20746f206f7572206e6574\n        /* \"#utility.yul\":27005:27006   */\n      0x00\n        /* \"#utility.yul\":26997:27003   */\n      dup3\n        /* \"#utility.yul\":26993:27007   */\n      add\n        /* \"#utility.yul\":26986:27044   */\n      mstore\n        /* \"#utility.yul\":27078:27084   */\n      0x776f726b00000000000000000000000000000000000000000000000000000000\n        /* \"#utility.yul\":27073:27075   */\n      0x20\n        /* \"#utility.yul\":27065:27071   */\n      dup3\n        /* \"#utility.yul\":27061:27076   */\n      add\n        /* \"#utility.yul\":27054:27085   */\n      mstore\n        /* \"#utility.yul\":26869:27092   */\n      pop\n      jump\t// out\n        /* \"#utility.yul\":27098:27464   */\n    tag_485:\n        /* \"#utility.yul\":27240:27243   */\n      0x00\n        /* \"#utility.yul\":27261:27328   */\n      tag_752\n        /* \"#utility.yul\":27325:27327   */\n      0x24\n        /* \"#utility.yul\":27320:27323   */\n      dup4\n        /* \"#utility.yul\":27261:27328   */\n      tag_458\n      jump\t// in\n    tag_752:\n        /* \"#utility.yul\":27254:27328   */\n      swap2\n      pop\n        /* \"#utility.yul\":27337:27430   */\n      tag_753\n        /* \"#utility.yul\":27426:27429   */\n      dup3\n        /* \"#utility.yul\":27337:27430   */\n      tag_484\n      jump\t// in\n    tag_753:\n        /* \"#utility.yul\":27455:27457   */\n      0x40\n        /* \"#utility.yul\":27450:27453   */\n      dup3\n        /* \"#utility.yul\":27446:27458   */\n      add\n        /* \"#utility.yul\":27439:27458   */\n      swap1\n      pop\n        /* \"#utility.yul\":27098:27464   */\n      swap2\n      swap1\n      pop\n      jump\t// out\n        /* \"#utility.yul\":27470:27889   */\n    tag_135:\n        /* \"#utility.yul\":27636:27640   */\n      0x00\n        /* \"#utility.yul\":27674:27676   */\n      0x20\n        /* \"#utility.yul\":27663:27672   */\n      dup3\n        /* \"#utility.yul\":27659:27677   */\n      add\n        /* \"#utility.yul\":27651:27677   */\n      swap1\n      pop\n        /* \"#utility.yul\":27723:27732   */\n      dup2\n        /* \"#utility.yul\":27717:27721   */\n      dup2\n        /* \"#utility.yul\":27713:27733   */\n      sub\n        /* \"#utility.yul\":27709:27710   */\n      0x00\n        /* \"#utility.yul\":27698:27707   */\n      dup4\n        /* \"#utility.yul\":27694:27711   */\n      add\n        /* \"#utility.yul\":27687:27734   */\n      mstore\n        /* \"#utility.yul\":27751:27882   */\n      tag_755\n        /* \"#utility.yul\":27877:27881   */\n      dup2\n        /* \"#utility.yul\":27751:27882   */\n      tag_485\n      jump\t// in\n    tag_755:\n        /* \"#utility.yul\":27743:27882   */\n      swap1\n      pop\n        /* \"#utility.yul\":27470:27889   */\n      swap2\n      swap1\n      pop\n      jump\t// out\n        /* \"#utility.yul\":27895:28073   */\n    tag_486:\n        /* \"#utility.yul\":28035:28065   */\n      0x70617469656e74207265636f726420646f65736e277420657869737400000000\n        /* \"#utility.yul\":28031:28032   */\n      0x00\n        /* \"#utility.yul\":28023:28029   */\n      dup3\n        /* \"#utility.yul\":28019:28033   */\n      add\n        /* \"#utility.yul\":28012:28066   */\n      mstore\n        /* \"#utility.yul\":27895:28073   */\n      pop\n      jump\t// out\n        /* \"#utility.yul\":28079:28445   */\n    tag_487:\n        /* \"#utility.yul\":28221:28224   */\n      0x00\n        /* \"#utility.yul\":28242:28309   */\n      tag_758\n        /* \"#utility.yul\":28306:28308   */\n      0x1c\n        /* \"#utility.yul\":28301:28304   */\n      dup4\n        /* \"#utility.yul\":28242:28309   */\n      tag_458\n      jump\t// in\n    tag_758:\n        /* \"#utility.yul\":28235:28309   */\n      swap2\n      pop\n        /* \"#utility.yul\":28318:28411   */\n      tag_759\n        /* \"#utility.yul\":28407:28410   */\n      dup3\n        /* \"#utility.yul\":28318:28411   */\n      tag_486\n      jump\t// in\n    tag_759:\n        /* \"#utility.yul\":28436:28438   */\n      0x20\n        /* \"#utility.yul\":28431:28434   */\n      dup3\n        /* \"#utility.yul\":28427:28439   */\n      add\n        /* \"#utility.yul\":28420:28439   */\n      swap1\n      pop\n        /* \"#utility.yul\":28079:28445   */\n      swap2\n      swap1\n      pop\n      jump\t// out\n        /* \"#utility.yul\":28451:28870   */\n    tag_138:\n        /* \"#utility.yul\":28617:28621   */\n      0x00\n        /* \"#utility.yul\":28655:28657   */\n      0x20\n        /* \"#utility.yul\":28644:28653   */\n      dup3\n        /* \"#utility.yul\":28640:28658   */\n      add\n        /* \"#utility.yul\":28632:28658   */\n      swap1\n      pop\n        /* \"#utility.yul\":28704:28713   */\n      dup2\n        /* \"#utility.yul\":28698:28702   */\n      dup2\n        /* \"#utility.yul\":28694:28714   */\n      sub\n        /* \"#utility.yul\":28690:28691   */\n      0x00\n        /* \"#utility.yul\":28679:28688   */\n      dup4\n        /* \"#utility.yul\":28675:28692   */\n      add\n        /* \"#utility.yul\":28668:28715   */\n      mstore\n        /* \"#utility.yul\":28732:28863   */\n      tag_761\n        /* \"#utility.yul\":28858:28862   */\n      dup2\n        /* \"#utility.yul\":28732:28863   */\n      tag_487\n      jump\t// in\n    tag_761:\n        /* \"#utility.yul\":28724:28863   */\n      swap1\n      pop\n        /* \"#utility.yul\":28451:28870   */\n      swap2\n      swap1\n      pop\n      jump\t// out\n        /* \"#utility.yul\":28876:29056   */\n    tag_165:\n        /* \"#utility.yul\":28924:29001   */\n      0x4e487b7100000000000000000000000000000000000000000000000000000000\n        /* \"#utility.yul\":28921:28922   */\n      0x00\n        /* \"#utility.yul\":28914:29002   */\n      mstore\n        /* \"#utility.yul\":29021:29025   */\n      0x32\n        /* \"#utility.yul\":29018:29019   */\n      0x04\n        /* \"#utility.yul\":29011:29026   */\n      mstore\n        /* \"#utility.yul\":29045:29049   */\n      0x24\n        /* \"#utility.yul\":29042:29043   */\n      0x00\n        /* \"#utility.yul\":29035:29050   */\n      revert\n        /* \"#utility.yul\":29062:29242   */\n    tag_488:\n        /* \"#utility.yul\":29110:29187   */\n      0x4e487b7100000000000000000000000000000000000000000000000000000000\n        /* \"#utility.yul\":29107:29108   */\n      0x00\n        /* \"#utility.yul\":29100:29188   */\n      mstore\n        /* \"#utility.yul\":29207:29211   */\n      0x22\n        /* \"#utility.yul\":29204:29205   */\n      0x04\n        /* \"#utility.yul\":29197:29212   */\n      mstore\n        /* \"#utility.yul\":29231:29235   */\n      0x24\n        /* \"#utility.yul\":29228:29229   */\n      0x00\n        /* \"#utility.yul\":29221:29236   */\n      revert\n        /* \"#utility.yul\":29248:29568   */\n    tag_168:\n        /* \"#utility.yul\":29292:29298   */\n      0x00\n        /* \"#utility.yul\":29329:29330   */\n      0x02\n        /* \"#utility.yul\":29323:29327   */\n      dup3\n        /* \"#utility.yul\":29319:29331   */\n      div\n        /* \"#utility.yul\":29309:29331   */\n      swap1\n      pop\n        /* \"#utility.yul\":29376:29377   */\n      0x01\n        /* \"#utility.yul\":29370:29374   */\n      dup3\n        /* \"#utility.yul\":29366:29378   */\n      and\n        /* \"#utility.yul\":29397:29415   */\n      dup1\n        /* \"#utility.yul\":29387:29468   */\n      tag_765\n      jumpi\n        /* \"#utility.yul\":29453:29457   */\n      0x7f\n        /* \"#utility.yul\":29445:29451   */\n      dup3\n        /* \"#utility.yul\":29441:29458   */\n      and\n        /* \"#utility.yul\":29431:29458   */\n      swap2\n      pop\n        /* \"#utility.yul\":29387:29468   */\n    tag_765:\n        /* \"#utility.yul\":29515:29517   */\n      0x20\n        /* \"#utility.yul\":29507:29513   */\n      dup3\n        /* \"#utility.yul\":29504:29518   */\n      lt\n        /* \"#utility.yul\":29484:29502   */\n      dup2\n        /* \"#utility.yul\":29481:29519   */\n      eq\n        /* \"#utility.yul\":29478:29562   */\n      iszero\n      tag_766\n      jumpi\n        /* \"#utility.yul\":29534:29552   */\n      tag_767\n      tag_488\n      jump\t// in\n    tag_767:\n        /* \"#utility.yul\":29478:29562   */\n    tag_766:\n        /* \"#utility.yul\":29299:29568   */\n      pop\n        /* \"#utility.yul\":29248:29568   */\n      swap2\n      swap1\n      pop\n      jump\t// out\n        /* \"#utility.yul\":29574:29754   */\n    tag_489:\n        /* \"#utility.yul\":29622:29699   */\n      0x4e487b7100000000000000000000000000000000000000000000000000000000\n        /* \"#utility.yul\":29619:29620   */\n      0x00\n        /* \"#utility.yul\":29612:29700   */\n      mstore\n        /* \"#utility.yul\":29719:29723   */\n      0x11\n        /* \"#utility.yul\":29716:29717   */\n      0x04\n        /* \"#utility.yul\":29709:29724   */\n      mstore\n        /* \"#utility.yul\":29743:29747   */\n      0x24\n        /* \"#utility.yul\":29740:29741   */\n      0x00\n        /* \"#utility.yul\":29733:29748   */\n      revert\n        /* \"#utility.yul\":29760:29993   */\n    tag_216:\n        /* \"#utility.yul\":29799:29802   */\n      0x00\n        /* \"#utility.yul\":29822:29846   */\n      tag_770\n        /* \"#utility.yul\":29840:29845   */\n      dup3\n        /* \"#utility.yul\":29822:29846   */\n      tag_442\n      jump\t// in\n    tag_770:\n        /* \"#utility.yul\":29813:29846   */\n      swap2\n      pop\n        /* \"#utility.yul\":29868:29934   */\n      0xffffffffffffffffffffffffffffffffffffffffffffffffffffffffffffffff\n        /* \"#utility.yul\":29861:29866   */\n      dup3\n        /* \"#utility.yul\":29858:29935   */\n      eq\n        /* \"#utility.yul\":29855:29958   */\n      iszero\n      tag_771\n      jumpi\n        /* \"#utility.yul\":29938:29956   */\n      tag_772\n      tag_489\n      jump\t// in\n    tag_772:\n        /* \"#utility.yul\":29855:29958   */\n    tag_771:\n        /* \"#utility.yul\":29985:29986   */\n      0x01\n        /* \"#utility.yul\":29978:29983   */\n      dup3\n        /* \"#utility.yul\":29974:29987   */\n      add\n        /* \"#utility.yul\":29967:29987   */\n      swap1\n      pop\n        /* \"#utility.yul\":29760:29993   */\n      swap2\n      swap1\n      pop\n      jump\t// out\n        /* \"#utility.yul\":29999:30168   */\n    tag_490:\n        /* \"#utility.yul\":30139:30160   */\n      0x416c726561647920617574686f72697365642e00000000000000000000000000\n        /* \"#utility.yul\":30135:30136   */\n      0x00\n        /* \"#utility.yul\":30127:30133   */\n      dup3\n        /* \"#utility.yul\":30123:30137   */\n      add\n        /* \"#utility.yul\":30116:30161   */\n      mstore\n        /* \"#utility.yul\":29999:30168   */\n      pop\n      jump\t// out\n        /* \"#utility.yul\":30174:30540   */\n    tag_491:\n        /* \"#utility.yul\":30316:30319   */\n      0x00\n        /* \"#utility.yul\":30337:30404   */\n      tag_775\n        /* \"#utility.yul\":30401:30403   */\n      0x13\n        /* \"#utility.yul\":30396:30399   */\n      dup4\n        /* \"#utility.yul\":30337:30404   */\n      tag_458\n      jump\t// in\n    tag_775:\n        /* \"#utility.yul\":30330:30404   */\n      swap2\n      pop\n        /* \"#utility.yul\":30413:30506   */\n      tag_776\n        /* \"#utility.yul\":30502:30505   */\n      dup3\n        /* \"#utility.yul\":30413:30506   */\n      tag_490\n      jump\t// in\n    tag_776:\n        /* \"#utility.yul\":30531:30533   */\n      0x20\n        /* \"#utility.yul\":30526:30529   */\n      dup3\n        /* \"#utility.yul\":30522:30534   */\n      add\n        /* \"#utility.yul\":30515:30534   */\n      swap1\n      pop\n        /* \"#utility.yul\":30174:30540   */\n      swap2\n      swap1\n      pop\n      jump\t// out\n        /* \"#utility.yul\":30546:30965   */\n    tag_220:\n        /* \"#utility.yul\":30712:30716   */\n      0x00\n        /* \"#utility.yul\":30750:30752   */\n      0x20\n        /* \"#utility.yul\":30739:30748   */\n      dup3\n        /* \"#utility.yul\":30735:30753   */\n      add\n        /* \"#utility.yul\":30727:30753   */\n      swap1\n      pop\n        /* \"#utility.yul\":30799:30808   */\n      dup2\n        /* \"#utility.yul\":30793:30797   */\n      dup2\n        /* \"#utility.yul\":30789:30809   */\n      sub\n        /* \"#utility.yul\":30785:30786   */\n      0x00\n        /* \"#utility.yul\":30774:30783   */\n      dup4\n        /* \"#utility.yul\":30770:30787   */\n      add\n        /* \"#utility.yul\":30763:30810   */\n      mstore\n        /* \"#utility.yul\":30827:30958   */\n      tag_778\n        /* \"#utility.yul\":30953:30957   */\n      dup2\n        /* \"#utility.yul\":30827:30958   */\n      tag_491\n      jump\t// in\n    tag_778:\n        /* \"#utility.yul\":30819:30958   */\n      swap1\n      pop\n        /* \"#utility.yul\":30546:30965   */\n      swap2\n      swap1\n      pop\n      jump\t// out\n        /* \"#utility.yul\":30971:31139   */\n    tag_492:\n        /* \"#utility.yul\":31111:31131   */\n      0x43616e27742061646420796f757273656c660000000000000000000000000000\n        /* \"#utility.yul\":31107:31108   */\n      0x00\n        /* \"#utility.yul\":31099:31105   */\n      dup3\n        /* \"#utility.yul\":31095:31109   */\n      add\n        /* \"#utility.yul\":31088:31132   */\n      mstore\n        /* \"#utility.yul\":30971:31139   */\n      pop\n      jump\t// out\n        /* \"#utility.yul\":31145:31511   */\n    tag_493:\n        /* \"#utility.yul\":31287:31290   */\n      0x00\n        /* \"#utility.yul\":31308:31375   */\n      tag_781\n        /* \"#utility.yul\":31372:31374   */\n      0x12\n        /* \"#utility.yul\":31367:31370   */\n      dup4\n        /* \"#utility.yul\":31308:31375   */\n      tag_458\n      jump\t// in\n    tag_781:\n        /* \"#utility.yul\":31301:31375   */\n      swap2\n      pop\n        /* \"#utility.yul\":31384:31477   */\n      tag_782\n        /* \"#utility.yul\":31473:31476   */\n      dup3\n        /* \"#utility.yul\":31384:31477   */\n      tag_492\n      jump\t// in\n    tag_782:\n        /* \"#utility.yul\":31502:31504   */\n      0x20\n        /* \"#utility.yul\":31497:31500   */\n      dup3\n        /* \"#utility.yul\":31493:31505   */\n      add\n        /* \"#utility.yul\":31486:31505   */\n      swap1\n      pop\n        /* \"#utility.yul\":31145:31511   */\n      swap2\n      swap1\n      pop\n      jump\t// out\n        /* \"#utility.yul\":31517:31936   */\n    tag_223:\n        /* \"#utility.yul\":31683:31687   */\n      0x00\n        /* \"#utility.yul\":31721:31723   */\n      0x20\n        /* \"#utility.yul\":31710:31719   */\n      dup3\n        /* \"#utility.yul\":31706:31724   */\n      add\n        /* \"#utility.yul\":31698:31724   */\n      swap1\n      pop\n        /* \"#utility.yul\":31770:31779   */\n      dup2\n        /* \"#utility.yul\":31764:31768   */\n      dup2\n        /* \"#utility.yul\":31760:31780   */\n      sub\n        /* \"#utility.yul\":31756:31757   */\n      0x00\n        /* \"#utility.yul\":31745:31754   */\n      dup4\n        /* \"#utility.yul\":31741:31758   */\n      add\n        /* \"#utility.yul\":31734:31781   */\n      mstore\n        /* \"#utility.yul\":31798:31929   */\n      tag_784\n        /* \"#utility.yul\":31924:31928   */\n      dup2\n        /* \"#utility.yul\":31798:31929   */\n      tag_493\n      jump\t// in\n    tag_784:\n        /* \"#utility.yul\":31790:31929   */\n      swap1\n      pop\n        /* \"#utility.yul\":31517:31936   */\n      swap2\n      swap1\n      pop\n      jump\t// out\n        /* \"#utility.yul\":31942:32115   */\n    tag_494:\n        /* \"#utility.yul\":32082:32107   */\n      0x446f63746f72206973206e6f7420617070726f7665642e000000000000000000\n        /* \"#utility.yul\":32078:32079   */\n      0x00\n        /* \"#utility.yul\":32070:32076   */\n      dup3\n        /* \"#utility.yul\":32066:32080   */\n      add\n        /* \"#utility.yul\":32059:32108   */\n      mstore\n        /* \"#utility.yul\":31942:32115   */\n      pop\n      jump\t// out\n        /* \"#utility.yul\":32121:32487   */\n    tag_495:\n        /* \"#utility.yul\":32263:32266   */\n      0x00\n        /* \"#utility.yul\":32284:32351   */\n      tag_787\n        /* \"#utility.yul\":32348:32350   */\n      0x17\n        /* \"#utility.yul\":32343:32346   */\n      dup4\n        /* \"#utility.yul\":32284:32351   */\n      tag_458\n      jump\t// in\n    tag_787:\n        /* \"#utility.yul\":32277:32351   */\n      swap2\n      pop\n        /* \"#utility.yul\":32360:32453   */\n      tag_788\n        /* \"#utility.yul\":32449:32452   */\n      dup3\n        /* \"#utility.yul\":32360:32453   */\n      tag_494\n      jump\t// in\n    tag_788:\n        /* \"#utility.yul\":32478:32480   */\n      0x20\n        /* \"#utility.yul\":32473:32476   */\n      dup3\n        /* \"#utility.yul\":32469:32481   */\n      add\n        /* \"#utility.yul\":32462:32481   */\n      swap1\n      pop\n        /* \"#utility.yul\":32121:32487   */\n      swap2\n      swap1\n      pop\n      jump\t// out\n        /* \"#utility.yul\":32493:32912   */\n    tag_227:\n        /* \"#utility.yul\":32659:32663   */\n      0x00\n        /* \"#utility.yul\":32697:32699   */\n      0x20\n        /* \"#utility.yul\":32686:32695   */\n      dup3\n        /* \"#utility.yul\":32682:32700   */\n      add\n        /* \"#utility.yul\":32674:32700   */\n      swap1\n      pop\n        /* \"#utility.yul\":32746:32755   */\n      dup2\n        /* \"#utility.yul\":32740:32744   */\n      dup2\n        /* \"#utility.yul\":32736:32756   */\n      sub\n        /* \"#utility.yul\":32732:32733   */\n      0x00\n        /* \"#utility.yul\":32721:32730   */\n      dup4\n        /* \"#utility.yul\":32717:32734   */\n      add\n        /* \"#utility.yul\":32710:32757   */\n      mstore\n        /* \"#utility.yul\":32774:32905   */\n      tag_790\n        /* \"#utility.yul\":32900:32904   */\n      dup2\n        /* \"#utility.yul\":32774:32905   */\n      tag_495\n      jump\t// in\n    tag_790:\n        /* \"#utility.yul\":32766:32905   */\n      swap1\n      pop\n        /* \"#utility.yul\":32493:32912   */\n      swap2\n      swap1\n      pop\n      jump\t// out\n        /* \"#utility.yul\":32918:33094   */\n    tag_496:\n        /* \"#utility.yul\":33058:33086   */\n      0x5573657220697320616c726561647920612061646d696e212121000000000000\n        /* \"#utility.yul\":33054:33055   */\n      0x00\n        /* \"#utility.yul\":33046:33052   */\n      dup3\n        /* \"#utility.yul\":33042:33056   */\n      add\n        /* \"#utility.yul\":33035:33087   */\n      mstore\n        /* \"#utility.yul\":32918:33094   */\n      pop\n      jump\t// out\n        /* \"#utility.yul\":33100:33466   */\n    tag_497:\n        /* \"#utility.yul\":33242:33245   */\n      0x00\n        /* \"#utility.yul\":33263:33330   */\n      tag_793\n        /* \"#utility.yul\":33327:33329   */\n      0x1a\n        /* \"#utility.yul\":33322:33325   */\n      dup4\n        /* \"#utility.yul\":33263:33330   */\n      tag_458\n      jump\t// in\n    tag_793:\n        /* \"#utility.yul\":33256:33330   */\n      swap2\n      pop\n        /* \"#utility.yul\":33339:33432   */\n      tag_794\n        /* \"#utility.yul\":33428:33431   */\n      dup3\n        /* \"#utility.yul\":33339:33432   */\n      tag_496\n      jump\t// in\n    tag_794:\n        /* \"#utility.yul\":33457:33459   */\n      0x20\n        /* \"#utility.yul\":33452:33455   */\n      dup3\n        /* \"#utility.yul\":33448:33460   */\n      add\n        /* \"#utility.yul\":33441:33460   */\n      swap1\n      pop\n        /* \"#utility.yul\":33100:33466   */\n      swap2\n      swap1\n      pop\n      jump\t// out\n        /* \"#utility.yul\":33472:33891   */\n    tag_254:\n        /* \"#utility.yul\":33638:33642   */\n      0x00\n        /* \"#utility.yul\":33676:33678   */\n      0x20\n        /* \"#utility.yul\":33665:33674   */\n      dup3\n        /* \"#utility.yul\":33661:33679   */\n      add\n        /* \"#utility.yul\":33653:33679   */\n      swap1\n      pop\n        /* \"#utility.yul\":33725:33734   */\n      dup2\n        /* \"#utility.yul\":33719:33723   */\n      dup2\n        /* \"#utility.yul\":33715:33735   */\n      sub\n        /* \"#utility.yul\":33711:33712   */\n      0x00\n        /* \"#utility.yul\":33700:33709   */\n      dup4\n        /* \"#utility.yul\":33696:33713   */\n      add\n        /* \"#utility.yul\":33689:33736   */\n      mstore\n        /* \"#utility.yul\":33753:33884   */\n      tag_796\n        /* \"#utility.yul\":33879:33883   */\n      dup2\n        /* \"#utility.yul\":33753:33884   */\n      tag_497\n      jump\t// in\n    tag_796:\n        /* \"#utility.yul\":33745:33884   */\n      swap1\n      pop\n        /* \"#utility.yul\":33472:33891   */\n      swap2\n      swap1\n      pop\n      jump\t// out\n        /* \"#utility.yul\":33897:34071   */\n    tag_498:\n        /* \"#utility.yul\":34037:34063   */\n      0x446f63746f7220494420646f65736e27742065786973742e0000000000000000\n        /* \"#utility.yul\":34033:34034   */\n      0x00\n        /* \"#utility.yul\":34025:34031   */\n      dup3\n        /* \"#utility.yul\":34021:34035   */\n      add\n        /* \"#utility.yul\":34014:34064   */\n      mstore\n        /* \"#utility.yul\":33897:34071   */\n      pop\n      jump\t// out\n        /* \"#utility.yul\":34077:34443   */\n    tag_499:\n        /* \"#utility.yul\":34219:34222   */\n      0x00\n        /* \"#utility.yul\":34240:34307   */\n      tag_799\n        /* \"#utility.yul\":34304:34306   */\n      0x18\n        /* \"#utility.yul\":34299:34302   */\n      dup4\n        /* \"#utility.yul\":34240:34307   */\n      tag_458\n      jump\t// in\n    tag_799:\n        /* \"#utility.yul\":34233:34307   */\n      swap2\n      pop\n        /* \"#utility.yul\":34316:34409   */\n      tag_800\n        /* \"#utility.yul\":34405:34408   */\n      dup3\n        /* \"#utility.yul\":34316:34409   */\n      tag_498\n      jump\t// in\n    tag_800:\n        /* \"#utility.yul\":34434:34436   */\n      0x20\n        /* \"#utility.yul\":34429:34432   */\n      dup3\n        /* \"#utility.yul\":34425:34437   */\n      add\n        /* \"#utility.yul\":34418:34437   */\n      swap1\n      pop\n        /* \"#utility.yul\":34077:34443   */\n      swap2\n      swap1\n      pop\n      jump\t// out\n        /* \"#utility.yul\":34449:34868   */\n    tag_269:\n        /* \"#utility.yul\":34615:34619   */\n      0x00\n        /* \"#utility.yul\":34653:34655   */\n      0x20\n        /* \"#utility.yul\":34642:34651   */\n      dup3\n        /* \"#utility.yul\":34638:34656   */\n      add\n        /* \"#utility.yul\":34630:34656   */\n      swap1\n      pop\n        /* \"#utility.yul\":34702:34711   */\n      dup2\n        /* \"#utility.yul\":34696:34700   */\n      dup2\n        /* \"#utility.yul\":34692:34712   */\n      sub\n        /* \"#utility.yul\":34688:34689   */\n      0x00\n        /* \"#utility.yul\":34677:34686   */\n      dup4\n        /* \"#utility.yul\":34673:34690   */\n      add\n        /* \"#utility.yul\":34666:34713   */\n      mstore\n        /* \"#utility.yul\":34730:34861   */\n      tag_802\n        /* \"#utility.yul\":34856:34860   */\n      dup2\n        /* \"#utility.yul\":34730:34861   */\n      tag_499\n      jump\t// in\n    tag_802:\n        /* \"#utility.yul\":34722:34861   */\n      swap1\n      pop\n        /* \"#utility.yul\":34449:34868   */\n      swap2\n      swap1\n      pop\n      jump\t// out\n        /* \"#utility.yul\":34874:35054   */\n    tag_500:\n        /* \"#utility.yul\":35014:35046   */\n      0x416c72656164792050617469656e74206163636f756e74206578697374730000\n        /* \"#utility.yul\":35010:35011   */\n      0x00\n        /* \"#utility.yul\":35002:35008   */\n      dup3\n        /* \"#utility.yul\":34998:35012   */\n      add\n        /* \"#utility.yul\":34991:35047   */\n      mstore\n        /* \"#utility.yul\":34874:35054   */\n      pop\n      jump\t// out\n        /* \"#utility.yul\":35060:35426   */\n    tag_501:\n        /* \"#utility.yul\":35202:35205   */\n      0x00\n        /* \"#utility.yul\":35223:35290   */\n      tag_805\n        /* \"#utility.yul\":35287:35289   */\n      0x1e\n        /* \"#utility.yul\":35282:35285   */\n      dup4\n        /* \"#utility.yul\":35223:35290   */\n      tag_458\n      jump\t// in\n    tag_805:\n        /* \"#utility.yul\":35216:35290   */\n      swap2\n      pop\n        /* \"#utility.yul\":35299:35392   */\n      tag_806\n        /* \"#utility.yul\":35388:35391   */\n      dup3\n        /* \"#utility.yul\":35299:35392   */\n      tag_500\n      jump\t// in\n    tag_806:\n        /* \"#utility.yul\":35417:35419   */\n      0x20\n        /* \"#utility.yul\":35412:35415   */\n      dup3\n        /* \"#utility.yul\":35408:35420   */\n      add\n        /* \"#utility.yul\":35401:35420   */\n      swap1\n      pop\n        /* \"#utility.yul\":35060:35426   */\n      swap2\n      swap1\n      pop\n      jump\t// out\n        /* \"#utility.yul\":35432:35851   */\n    tag_296:\n        /* \"#utility.yul\":35598:35602   */\n      0x00\n        /* \"#utility.yul\":35636:35638   */\n      0x20\n        /* \"#utility.yul\":35625:35634   */\n      dup3\n        /* \"#utility.yul\":35621:35639   */\n      add\n        /* \"#utility.yul\":35613:35639   */\n      swap1\n      pop\n        /* \"#utility.yul\":35685:35694   */\n      dup2\n        /* \"#utility.yul\":35679:35683   */\n      dup2\n        /* \"#utility.yul\":35675:35695   */\n      sub\n        /* \"#utility.yul\":35671:35672   */\n      0x00\n        /* \"#utility.yul\":35660:35669   */\n      dup4\n        /* \"#utility.yul\":35656:35673   */\n      add\n        /* \"#utility.yul\":35649:35696   */\n      mstore\n        /* \"#utility.yul\":35713:35844   */\n      tag_808\n        /* \"#utility.yul\":35839:35843   */\n      dup2\n        /* \"#utility.yul\":35713:35844   */\n      tag_501\n      jump\t// in\n    tag_808:\n        /* \"#utility.yul\":35705:35844   */\n      swap1\n      pop\n        /* \"#utility.yul\":35432:35851   */\n      swap2\n      swap1\n      pop\n      jump\t// out\n        /* \"#utility.yul\":35857:36162   */\n    tag_299:\n        /* \"#utility.yul\":35897:35900   */\n      0x00\n        /* \"#utility.yul\":35916:35936   */\n      tag_810\n        /* \"#utility.yul\":35934:35935   */\n      dup3\n        /* \"#utility.yul\":35916:35936   */\n      tag_442\n      jump\t// in\n    tag_810:\n        /* \"#utility.yul\":35911:35936   */\n      swap2\n      pop\n        /* \"#utility.yul\":35950:35970   */\n      tag_811\n        /* \"#utility.yul\":35968:35969   */\n      dup4\n        /* \"#utility.yul\":35950:35970   */\n      tag_442\n      jump\t// in\n    tag_811:\n        /* \"#utility.yul\":35945:35970   */\n      swap3\n      pop\n        /* \"#utility.yul\":36104:36105   */\n      dup3\n        /* \"#utility.yul\":36036:36102   */\n      0xffffffffffffffffffffffffffffffffffffffffffffffffffffffffffffffff\n        /* \"#utility.yul\":36032:36106   */\n      sub\n        /* \"#utility.yul\":36029:36030   */\n      dup3\n        /* \"#utility.yul\":36026:36107   */\n      gt\n        /* \"#utility.yul\":36023:36130   */\n      iszero\n      tag_812\n      jumpi\n        /* \"#utility.yul\":36110:36128   */\n      tag_813\n      tag_489\n      jump\t// in\n    tag_813:\n        /* \"#utility.yul\":36023:36130   */\n    tag_812:\n        /* \"#utility.yul\":36154:36155   */\n      dup3\n        /* \"#utility.yul\":36151:36152   */\n      dup3\n        /* \"#utility.yul\":36147:36156   */\n      add\n        /* \"#utility.yul\":36140:36156   */\n      swap1\n      pop\n        /* \"#utility.yul\":35857:36162   */\n      swap3\n      swap2\n      pop\n      pop\n      jump\t// out\n        /* \"#utility.yul\":36168:36399   */\n    tag_502:\n        /* \"#utility.yul\":36308:36342   */\n      0x4f6e6c792041646d696e20686173207065726d697373696f6e20746f20646f20\n        /* \"#utility.yul\":36304:36305   */\n      0x00\n        /* \"#utility.yul\":36296:36302   */\n      dup3\n        /* \"#utility.yul\":36292:36306   */\n      add\n        /* \"#utility.yul\":36285:36343   */\n      mstore\n        /* \"#utility.yul\":36377:36391   */\n      0x7468617420616374696f6e2e0000000000000000000000000000000000000000\n        /* \"#utility.yul\":36372:36374   */\n      0x20\n        /* \"#utility.yul\":36364:36370   */\n      dup3\n        /* \"#utility.yul\":36360:36375   */\n      add\n        /* \"#utility.yul\":36353:36392   */\n      mstore\n        /* \"#utility.yul\":36168:36399   */\n      pop\n      jump\t// out\n        /* \"#utility.yul\":36405:36771   */\n    tag_503:\n        /* \"#utility.yul\":36547:36550   */\n      0x00\n        /* \"#utility.yul\":36568:36635   */\n      tag_816\n        /* \"#utility.yul\":36632:36634   */\n      0x2c\n        /* \"#utility.yul\":36627:36630   */\n      dup4\n        /* \"#utility.yul\":36568:36635   */\n      tag_458\n      jump\t// in\n    tag_816:\n        /* \"#utility.yul\":36561:36635   */\n      swap2\n      pop\n        /* \"#utility.yul\":36644:36737   */\n      tag_817\n        /* \"#utility.yul\":36733:36736   */\n      dup3\n        /* \"#utility.yul\":36644:36737   */\n      tag_502\n      jump\t// in\n    tag_817:\n        /* \"#utility.yul\":36762:36764   */\n      0x40\n        /* \"#utility.yul\":36757:36760   */\n      dup3\n        /* \"#utility.yul\":36753:36765   */\n      add\n        /* \"#utility.yul\":36746:36765   */\n      swap1\n      pop\n        /* \"#utility.yul\":36405:36771   */\n      swap2\n      swap1\n      pop\n      jump\t// out\n        /* \"#utility.yul\":36777:37196   */\n    tag_310:\n        /* \"#utility.yul\":36943:36947   */\n      0x00\n        /* \"#utility.yul\":36981:36983   */\n      0x20\n        /* \"#utility.yul\":36970:36979   */\n      dup3\n        /* \"#utility.yul\":36966:36984   */\n      add\n        /* \"#utility.yul\":36958:36984   */\n      swap1\n      pop\n        /* \"#utility.yul\":37030:37039   */\n      dup2\n        /* \"#utility.yul\":37024:37028   */\n      dup2\n        /* \"#utility.yul\":37020:37040   */\n      sub\n        /* \"#utility.yul\":37016:37017   */\n      0x00\n        /* \"#utility.yul\":37005:37014   */\n      dup4\n        /* \"#utility.yul\":37001:37018   */\n      add\n        /* \"#utility.yul\":36994:37041   */\n      mstore\n        /* \"#utility.yul\":37058:37189   */\n      tag_819\n        /* \"#utility.yul\":37184:37188   */\n      dup2\n        /* \"#utility.yul\":37058:37189   */\n      tag_503\n      jump\t// in\n    tag_819:\n        /* \"#utility.yul\":37050:37189   */\n      swap1\n      pop\n        /* \"#utility.yul\":36777:37196   */\n      swap2\n      swap1\n      pop\n      jump\t// out\n        /* \"#utility.yul\":37202:37380   */\n    tag_504:\n        /* \"#utility.yul\":37342:37372   */\n      0x416c72656164792061207265676973746572656420446f63746f722e00000000\n        /* \"#utility.yul\":37338:37339   */\n      0x00\n        /* \"#utility.yul\":37330:37336   */\n      dup3\n        /* \"#utility.yul\":37326:37340   */\n      add\n        /* \"#utility.yul\":37319:37373   */\n      mstore\n        /* \"#utility.yul\":37202:37380   */\n      pop\n      jump\t// out\n        /* \"#utility.yul\":37386:37752   */\n    tag_505:\n        /* \"#utility.yul\":37528:37531   */\n      0x00\n        /* \"#utility.yul\":37549:37616   */\n      tag_822\n        /* \"#utility.yul\":37613:37615   */\n      0x1c\n        /* \"#utility.yul\":37608:37611   */\n      dup4\n        /* \"#utility.yul\":37549:37616   */\n      tag_458\n      jump\t// in\n    tag_822:\n        /* \"#utility.yul\":37542:37616   */\n      swap2\n      pop\n        /* \"#utility.yul\":37625:37718   */\n      tag_823\n        /* \"#utility.yul\":37714:37717   */\n      dup3\n        /* \"#utility.yul\":37625:37718   */\n      tag_504\n      jump\t// in\n    tag_823:\n        /* \"#utility.yul\":37743:37745   */\n      0x20\n        /* \"#utility.yul\":37738:37741   */\n      dup3\n        /* \"#utility.yul\":37734:37746   */\n      add\n        /* \"#utility.yul\":37727:37746   */\n      swap1\n      pop\n        /* \"#utility.yul\":37386:37752   */\n      swap2\n      swap1\n      pop\n      jump\t// out\n        /* \"#utility.yul\":37758:38177   */\n    tag_314:\n        /* \"#utility.yul\":37924:37928   */\n      0x00\n        /* \"#utility.yul\":37962:37964   */\n      0x20\n        /* \"#utility.yul\":37951:37960   */\n      dup3\n        /* \"#utility.yul\":37947:37965   */\n      add\n        /* \"#utility.yul\":37939:37965   */\n      swap1\n      pop\n        /* \"#utility.yul\":38011:38020   */\n      dup2\n        /* \"#utility.yul\":38005:38009   */\n      dup2\n        /* \"#utility.yul\":38001:38021   */\n      sub\n        /* \"#utility.yul\":37997:37998   */\n      0x00\n        /* \"#utility.yul\":37986:37995   */\n      dup4\n        /* \"#utility.yul\":37982:37999   */\n      add\n        /* \"#utility.yul\":37975:38022   */\n      mstore\n        /* \"#utility.yul\":38039:38170   */\n      tag_825\n        /* \"#utility.yul\":38165:38169   */\n      dup2\n        /* \"#utility.yul\":38039:38170   */\n      tag_505\n      jump\t// in\n    tag_825:\n        /* \"#utility.yul\":38031:38170   */\n      swap1\n      pop\n        /* \"#utility.yul\":37758:38177   */\n      swap2\n      swap1\n      pop\n      jump\t// out\n        /* \"#utility.yul\":38183:38349   */\n    tag_506:\n        /* \"#utility.yul\":38323:38341   */\n      0x416c7265616479206d616e616765722e00000000000000000000000000000000\n        /* \"#utility.yul\":38319:38320   */\n      0x00\n        /* \"#utility.yul\":38311:38317   */\n      dup3\n        /* \"#utility.yul\":38307:38321   */\n      add\n        /* \"#utility.yul\":38300:38342   */\n      mstore\n        /* \"#utility.yul\":38183:38349   */\n      pop\n      jump\t// out\n        /* \"#utility.yul\":38355:38721   */\n    tag_507:\n        /* \"#utility.yul\":38497:38500   */\n      0x00\n        /* \"#utility.yul\":38518:38585   */\n      tag_828\n        /* \"#utility.yul\":38582:38584   */\n      0x10\n        /* \"#utility.yul\":38577:38580   */\n      dup4\n        /* \"#utility.yul\":38518:38585   */\n      tag_458\n      jump\t// in\n    tag_828:\n        /* \"#utility.yul\":38511:38585   */\n      swap2\n      pop\n        /* \"#utility.yul\":38594:38687   */\n      tag_829\n        /* \"#utility.yul\":38683:38686   */\n      dup3\n        /* \"#utility.yul\":38594:38687   */\n      tag_506\n      jump\t// in\n    tag_829:\n        /* \"#utility.yul\":38712:38714   */\n      0x20\n        /* \"#utility.yul\":38707:38710   */\n      dup3\n        /* \"#utility.yul\":38703:38715   */\n      add\n        /* \"#utility.yul\":38696:38715   */\n      swap1\n      pop\n        /* \"#utility.yul\":38355:38721   */\n      swap2\n      swap1\n      pop\n      jump\t// out\n        /* \"#utility.yul\":38727:39146   */\n    tag_327:\n        /* \"#utility.yul\":38893:38897   */\n      0x00\n        /* \"#utility.yul\":38931:38933   */\n      0x20\n        /* \"#utility.yul\":38920:38929   */\n      dup3\n        /* \"#utility.yul\":38916:38934   */\n      add\n        /* \"#utility.yul\":38908:38934   */\n      swap1\n      pop\n        /* \"#utility.yul\":38980:38989   */\n      dup2\n        /* \"#utility.yul\":38974:38978   */\n      dup2\n        /* \"#utility.yul\":38970:38990   */\n      sub\n        /* \"#utility.yul\":38966:38967   */\n      0x00\n        /* \"#utility.yul\":38955:38964   */\n      dup4\n        /* \"#utility.yul\":38951:38968   */\n      add\n        /* \"#utility.yul\":38944:38991   */\n      mstore\n        /* \"#utility.yul\":39008:39139   */\n      tag_831\n        /* \"#utility.yul\":39134:39138   */\n      dup2\n        /* \"#utility.yul\":39008:39139   */\n      tag_507\n      jump\t// in\n    tag_831:\n        /* \"#utility.yul\":39000:39139   */\n      swap1\n      pop\n        /* \"#utility.yul\":38727:39146   */\n      swap2\n      swap1\n      pop\n      jump\t// out\n        /* \"#utility.yul\":39152:39318   */\n    tag_508:\n        /* \"#utility.yul\":39292:39310   */\n      0x416c726561647920204175746821212100000000000000000000000000000000\n        /* \"#utility.yul\":39288:39289   */\n      0x00\n        /* \"#utility.yul\":39280:39286   */\n      dup3\n        /* \"#utility.yul\":39276:39290   */\n      add\n        /* \"#utility.yul\":39269:39311   */\n      mstore\n        /* \"#utility.yul\":39152:39318   */\n      pop\n      jump\t// out\n        /* \"#utility.yul\":39324:39690   */\n    tag_509:\n        /* \"#utility.yul\":39466:39469   */\n      0x00\n        /* \"#utility.yul\":39487:39554   */\n      tag_834\n        /* \"#utility.yul\":39551:39553   */\n      0x10\n        /* \"#utility.yul\":39546:39549   */\n      dup4\n        /* \"#utility.yul\":39487:39554   */\n      tag_458\n      jump\t// in\n    tag_834:\n        /* \"#utility.yul\":39480:39554   */\n      swap2\n      pop\n        /* \"#utility.yul\":39563:39656   */\n      tag_835\n        /* \"#utility.yul\":39652:39655   */\n      dup3\n        /* \"#utility.yul\":39563:39656   */\n      tag_508\n      jump\t// in\n    tag_835:\n        /* \"#utility.yul\":39681:39683   */\n      0x20\n        /* \"#utility.yul\":39676:39679   */\n      dup3\n        /* \"#utility.yul\":39672:39684   */\n      add\n        /* \"#utility.yul\":39665:39684   */\n      swap1\n      pop\n        /* \"#utility.yul\":39324:39690   */\n      swap2\n      swap1\n      pop\n      jump\t// out\n        /* \"#utility.yul\":39696:40115   */\n    tag_331:\n        /* \"#utility.yul\":39862:39866   */\n      0x00\n        /* \"#utility.yul\":39900:39902   */\n      0x20\n        /* \"#utility.yul\":39889:39898   */\n      dup3\n        /* \"#utility.yul\":39885:39903   */\n      add\n        /* \"#utility.yul\":39877:39903   */\n      swap1\n      pop\n        /* \"#utility.yul\":39949:39958   */\n      dup2\n        /* \"#utility.yul\":39943:39947   */\n      dup2\n        /* \"#utility.yul\":39939:39959   */\n      sub\n        /* \"#utility.yul\":39935:39936   */\n      0x00\n        /* \"#utility.yul\":39924:39933   */\n      dup4\n        /* \"#utility.yul\":39920:39937   */\n      add\n        /* \"#utility.yul\":39913:39960   */\n      mstore\n        /* \"#utility.yul\":39977:40108   */\n      tag_837\n        /* \"#utility.yul\":40103:40107   */\n      dup2\n        /* \"#utility.yul\":39977:40108   */\n      tag_509\n      jump\t// in\n    tag_837:\n        /* \"#utility.yul\":39969:40108   */\n      swap1\n      pop\n        /* \"#utility.yul\":39696:40115   */\n      swap2\n      swap1\n      pop\n      jump\t// out\n        /* \"#utility.yul\":40121:40292   */\n    tag_510:\n        /* \"#utility.yul\":40261:40284   */\n      0x63616e2774206164642073616d6520706572736f6e0000000000000000000000\n        /* \"#utility.yul\":40257:40258   */\n      0x00\n        /* \"#utility.yul\":40249:40255   */\n      dup3\n        /* \"#utility.yul\":40245:40259   */\n      add\n        /* \"#utility.yul\":40238:40285   */\n      mstore\n        /* \"#utility.yul\":40121:40292   */\n      pop\n      jump\t// out\n        /* \"#utility.yul\":40298:40664   */\n    tag_511:\n        /* \"#utility.yul\":40440:40443   */\n      0x00\n        /* \"#utility.yul\":40461:40528   */\n      tag_840\n        /* \"#utility.yul\":40525:40527   */\n      0x15\n        /* \"#utility.yul\":40520:40523   */\n      dup4\n        /* \"#utility.yul\":40461:40528   */\n      tag_458\n      jump\t// in\n    tag_840:\n        /* \"#utility.yul\":40454:40528   */\n      swap2\n      pop\n        /* \"#utility.yul\":40537:40630   */\n      tag_841\n        /* \"#utility.yul\":40626:40629   */\n      dup3\n        /* \"#utility.yul\":40537:40630   */\n      tag_510\n      jump\t// in\n    tag_841:\n        /* \"#utility.yul\":40655:40657   */\n      0x20\n        /* \"#utility.yul\":40650:40653   */\n      dup3\n        /* \"#utility.yul\":40646:40658   */\n      add\n        /* \"#utility.yul\":40639:40658   */\n      swap1\n      pop\n        /* \"#utility.yul\":40298:40664   */\n      swap2\n      swap1\n      pop\n      jump\t// out\n        /* \"#utility.yul\":40670:41089   */\n    tag_334:\n        /* \"#utility.yul\":40836:40840   */\n      0x00\n        /* \"#utility.yul\":40874:40876   */\n      0x20\n        /* \"#utility.yul\":40863:40872   */\n      dup3\n        /* \"#utility.yul\":40859:40877   */\n      add\n        /* \"#utility.yul\":40851:40877   */\n      swap1\n      pop\n        /* \"#utility.yul\":40923:40932   */\n      dup2\n        /* \"#utility.yul\":40917:40921   */\n      dup2\n        /* \"#utility.yul\":40913:40933   */\n      sub\n        /* \"#utility.yul\":40909:40910   */\n      0x00\n        /* \"#utility.yul\":40898:40907   */\n      dup4\n        /* \"#utility.yul\":40894:40911   */\n      add\n        /* \"#utility.yul\":40887:40934   */\n      mstore\n        /* \"#utility.yul\":40951:41082   */\n      tag_843\n        /* \"#utility.yul\":41077:41081   */\n      dup2\n        /* \"#utility.yul\":40951:41082   */\n      tag_511\n      jump\t// in\n    tag_843:\n        /* \"#utility.yul\":40943:41082   */\n      swap1\n      pop\n        /* \"#utility.yul\":40670:41089   */\n      swap2\n      swap1\n      pop\n      jump\t// out\n        /* \"#utility.yul\":41095:41264   */\n    tag_512:\n        /* \"#utility.yul\":41235:41256   */\n      0x55736572204e6f74207265676973746572656400000000000000000000000000\n        /* \"#utility.yul\":41231:41232   */\n      0x00\n        /* \"#utility.yul\":41223:41229   */\n      dup3\n        /* \"#utility.yul\":41219:41233   */\n      add\n        /* \"#utility.yul\":41212:41257   */\n      mstore\n        /* \"#utility.yul\":41095:41264   */\n      pop\n      jump\t// out\n        /* \"#utility.yul\":41270:41636   */\n    tag_513:\n        /* \"#utility.yul\":41412:41415   */\n      0x00\n        /* \"#utility.yul\":41433:41500   */\n      tag_846\n        /* \"#utility.yul\":41497:41499   */\n      0x13\n        /* \"#utility.yul\":41492:41495   */\n      dup4\n        /* \"#utility.yul\":41433:41500   */\n      tag_458\n      jump\t// in\n    tag_846:\n        /* \"#utility.yul\":41426:41500   */\n      swap2\n      pop\n        /* \"#utility.yul\":41509:41602   */\n      tag_847\n        /* \"#utility.yul\":41598:41601   */\n      dup3\n        /* \"#utility.yul\":41509:41602   */\n      tag_512\n      jump\t// in\n    tag_847:\n        /* \"#utility.yul\":41627:41629   */\n      0x20\n        /* \"#utility.yul\":41622:41625   */\n      dup3\n        /* \"#utility.yul\":41618:41630   */\n      add\n        /* \"#utility.yul\":41611:41630   */\n      swap1\n      pop\n        /* \"#utility.yul\":41270:41636   */\n      swap2\n      swap1\n      pop\n      jump\t// out\n        /* \"#utility.yul\":41642:42061   */\n    tag_342:\n        /* \"#utility.yul\":41808:41812   */\n      0x00\n        /* \"#utility.yul\":41846:41848   */\n      0x20\n        /* \"#utility.yul\":41835:41844   */\n      dup3\n        /* \"#utility.yul\":41831:41849   */\n      add\n        /* \"#utility.yul\":41823:41849   */\n      swap1\n      pop\n        /* \"#utility.yul\":41895:41904   */\n      dup2\n        /* \"#utility.yul\":41889:41893   */\n      dup2\n        /* \"#utility.yul\":41885:41905   */\n      sub\n        /* \"#utility.yul\":41881:41882   */\n      0x00\n        /* \"#utility.yul\":41870:41879   */\n      dup4\n        /* \"#utility.yul\":41866:41883   */\n      add\n        /* \"#utility.yul\":41859:41906   */\n      mstore\n        /* \"#utility.yul\":41923:42054   */\n      tag_849\n        /* \"#utility.yul\":42049:42053   */\n      dup2\n        /* \"#utility.yul\":41923:42054   */\n      tag_513\n      jump\t// in\n    tag_849:\n        /* \"#utility.yul\":41915:42054   */\n      swap1\n      pop\n        /* \"#utility.yul\":41642:42061   */\n      swap2\n      swap1\n      pop\n      jump\t// out\n        /* \"#utility.yul\":42067:42245   */\n    tag_514:\n        /* \"#utility.yul\":42207:42237   */\n      0x4e6f207065726d697373696f6e20746f20616464205265636f72647300000000\n        /* \"#utility.yul\":42203:42204   */\n      0x00\n        /* \"#utility.yul\":42195:42201   */\n      dup3\n        /* \"#utility.yul\":42191:42205   */\n      add\n        /* \"#utility.yul\":42184:42238   */\n      mstore\n        /* \"#utility.yul\":42067:42245   */\n      pop\n      jump\t// out\n        /* \"#utility.yul\":42251:42617   */\n    tag_515:\n        /* \"#utility.yul\":42393:42396   */\n      0x00\n        /* \"#utility.yul\":42414:42481   */\n      tag_852\n        /* \"#utility.yul\":42478:42480   */\n      0x1c\n        /* \"#utility.yul\":42473:42476   */\n      dup4\n        /* \"#utility.yul\":42414:42481   */\n      tag_458\n      jump\t// in\n    tag_852:\n        /* \"#utility.yul\":42407:42481   */\n      swap2\n      pop\n        /* \"#utility.yul\":42490:42583   */\n      tag_853\n        /* \"#utility.yul\":42579:42582   */\n      dup3\n        /* \"#utility.yul\":42490:42583   */\n      tag_514\n      jump\t// in\n    tag_853:\n        /* \"#utility.yul\":42608:42610   */\n      0x20\n        /* \"#utility.yul\":42603:42606   */\n      dup3\n        /* \"#utility.yul\":42599:42611   */\n      add\n        /* \"#utility.yul\":42592:42611   */\n      swap1\n      pop\n        /* \"#utility.yul\":42251:42617   */\n      swap2\n      swap1\n      pop\n      jump\t// out\n        /* \"#utility.yul\":42623:43042   */\n    tag_345:\n        /* \"#utility.yul\":42789:42793   */\n      0x00\n        /* \"#utility.yul\":42827:42829   */\n      0x20\n        /* \"#utility.yul\":42816:42825   */\n      dup3\n        /* \"#utility.yul\":42812:42830   */\n      add\n        /* \"#utility.yul\":42804:42830   */\n      swap1\n      pop\n        /* \"#utility.yul\":42876:42885   */\n      dup2\n        /* \"#utility.yul\":42870:42874   */\n      dup2\n        /* \"#utility.yul\":42866:42886   */\n      sub\n        /* \"#utility.yul\":42862:42863   */\n      0x00\n        /* \"#utility.yul\":42851:42860   */\n      dup4\n        /* \"#utility.yul\":42847:42864   */\n      add\n        /* \"#utility.yul\":42840:42887   */\n      mstore\n        /* \"#utility.yul\":42904:43035   */\n      tag_855\n        /* \"#utility.yul\":43030:43034   */\n      dup2\n        /* \"#utility.yul\":42904:43035   */\n      tag_515\n      jump\t// in\n    tag_855:\n        /* \"#utility.yul\":42896:43035   */\n      swap1\n      pop\n        /* \"#utility.yul\":42623:43042   */\n      swap2\n      swap1\n      pop\n      jump\t// out\n        /* \"#utility.yul\":43048:43273   */\n    tag_516:\n        /* \"#utility.yul\":43188:43222   */\n      0x4e6f2050617469656e747320666f756e642061742074686520676976656e2061\n        /* \"#utility.yul\":43184:43185   */\n      0x00\n        /* \"#utility.yul\":43176:43182   */\n      dup3\n        /* \"#utility.yul\":43172:43186   */\n      add\n        /* \"#utility.yul\":43165:43223   */\n      mstore\n        /* \"#utility.yul\":43257:43265   */\n      0x6464726573730000000000000000000000000000000000000000000000000000\n        /* \"#utility.yul\":43252:43254   */\n      0x20\n        /* \"#utility.yul\":43244:43250   */\n      dup3\n        /* \"#utility.yul\":43240:43255   */\n      add\n        /* \"#utility.yul\":43233:43266   */\n      mstore\n        /* \"#utility.yul\":43048:43273   */\n      pop\n      jump\t// out\n        /* \"#utility.yul\":43279:43645   */\n    tag_517:\n        /* \"#utility.yul\":43421:43424   */\n      0x00\n        /* \"#utility.yul\":43442:43509   */\n      tag_858\n        /* \"#utility.yul\":43506:43508   */\n      0x26\n        /* \"#utility.yul\":43501:43504   */\n      dup4\n        /* \"#utility.yul\":43442:43509   */\n      tag_458\n      jump\t// in\n    tag_858:\n        /* \"#utility.yul\":43435:43509   */\n      swap2\n      pop\n        /* \"#utility.yul\":43518:43611   */\n      tag_859\n        /* \"#utility.yul\":43607:43610   */\n      dup3\n        /* \"#utility.yul\":43518:43611   */\n      tag_516\n      jump\t// in\n    tag_859:\n        /* \"#utility.yul\":43636:43638   */\n      0x40\n        /* \"#utility.yul\":43631:43634   */\n      dup3\n        /* \"#utility.yul\":43627:43639   */\n      add\n        /* \"#utility.yul\":43620:43639   */\n      swap1\n      pop\n        /* \"#utility.yul\":43279:43645   */\n      swap2\n      swap1\n      pop\n      jump\t// out\n        /* \"#utility.yul\":43651:44070   */\n    tag_357:\n        /* \"#utility.yul\":43817:43821   */\n      0x00\n        /* \"#utility.yul\":43855:43857   */\n      0x20\n        /* \"#utility.yul\":43844:43853   */\n      dup3\n        /* \"#utility.yul\":43840:43858   */\n      add\n        /* \"#utility.yul\":43832:43858   */\n      swap1\n      pop\n        /* \"#utility.yul\":43904:43913   */\n      dup2\n        /* \"#utility.yul\":43898:43902   */\n      dup2\n        /* \"#utility.yul\":43894:43914   */\n      sub\n        /* \"#utility.yul\":43890:43891   */\n      0x00\n        /* \"#utility.yul\":43879:43888   */\n      dup4\n        /* \"#utility.yul\":43875:43892   */\n      add\n        /* \"#utility.yul\":43868:43915   */\n      mstore\n        /* \"#utility.yul\":43932:44063   */\n      tag_861\n        /* \"#utility.yul\":44058:44062   */\n      dup2\n        /* \"#utility.yul\":43932:44063   */\n      tag_517\n      jump\t// in\n    tag_861:\n        /* \"#utility.yul\":43924:44063   */\n      swap1\n      pop\n        /* \"#utility.yul\":43651:44070   */\n      swap2\n      swap1\n      pop\n      jump\t// out\n        /* \"#utility.yul\":44076:44246   */\n    tag_518:\n        /* \"#utility.yul\":44216:44238   */\n      0x43616e742072656d6f766520796f757273656c66000000000000000000000000\n        /* \"#utility.yul\":44212:44213   */\n      0x00\n        /* \"#utility.yul\":44204:44210   */\n      dup3\n        /* \"#utility.yul\":44200:44214   */\n      add\n        /* \"#utility.yul\":44193:44239   */\n      mstore\n        /* \"#utility.yul\":44076:44246   */\n      pop\n      jump\t// out\n        /* \"#utility.yul\":44252:44618   */\n    tag_519:\n        /* \"#utility.yul\":44394:44397   */\n      0x00\n        /* \"#utility.yul\":44415:44482   */\n      tag_864\n        /* \"#utility.yul\":44479:44481   */\n      0x14\n        /* \"#utility.yul\":44474:44477   */\n      dup4\n        /* \"#utility.yul\":44415:44482   */\n      tag_458\n      jump\t// in\n    tag_864:\n        /* \"#utility.yul\":44408:44482   */\n      swap2\n      pop\n        /* \"#utility.yul\":44491:44584   */\n      tag_865\n        /* \"#utility.yul\":44580:44583   */\n      dup3\n        /* \"#utility.yul\":44491:44584   */\n      tag_518\n      jump\t// in\n    tag_865:\n        /* \"#utility.yul\":44609:44611   */\n      0x20\n        /* \"#utility.yul\":44604:44607   */\n      dup3\n        /* \"#utility.yul\":44600:44612   */\n      add\n        /* \"#utility.yul\":44593:44612   */\n      swap1\n      pop\n        /* \"#utility.yul\":44252:44618   */\n      swap2\n      swap1\n      pop\n      jump\t// out\n        /* \"#utility.yul\":44624:45043   */\n    tag_419:\n        /* \"#utility.yul\":44790:44794   */\n      0x00\n        /* \"#utility.yul\":44828:44830   */\n      0x20\n        /* \"#utility.yul\":44817:44826   */\n      dup3\n        /* \"#utility.yul\":44813:44831   */\n      add\n        /* \"#utility.yul\":44805:44831   */\n      swap1\n      pop\n        /* \"#utility.yul\":44877:44886   */\n      dup2\n        /* \"#utility.yul\":44871:44875   */\n      dup2\n        /* \"#utility.yul\":44867:44887   */\n      sub\n        /* \"#utility.yul\":44863:44864   */\n      0x00\n        /* \"#utility.yul\":44852:44861   */\n      dup4\n        /* \"#utility.yul\":44848:44865   */\n      add\n        /* \"#utility.yul\":44841:44888   */\n      mstore\n        /* \"#utility.yul\":44905:45036   */\n      tag_867\n        /* \"#utility.yul\":45031:45035   */\n      dup2\n        /* \"#utility.yul\":44905:45036   */\n      tag_519\n      jump\t// in\n    tag_867:\n        /* \"#utility.yul\":44897:45036   */\n      swap1\n      pop\n        /* \"#utility.yul\":44624:45043   */\n      swap2\n      swap1\n      pop\n      jump\t// out\n        /* \"#utility.yul\":45049:45221   */\n    tag_520:\n        /* \"#utility.yul\":45189:45213   */\n      0x416c7265616479204e6f7420417574686f726973656400000000000000000000\n        /* \"#utility.yul\":45185:45186   */\n      0x00\n        /* \"#utility.yul\":45177:45183   */\n      dup3\n        /* \"#utility.yul\":45173:45187   */\n      add\n        /* \"#utility.yul\":45166:45214   */\n      mstore\n        /* \"#utility.yul\":45049:45221   */\n      pop\n      jump\t// out\n        /* \"#utility.yul\":45227:45593   */\n    tag_521:\n        /* \"#utility.yul\":45369:45372   */\n      0x00\n        /* \"#utility.yul\":45390:45457   */\n      tag_870\n        /* \"#utility.yul\":45454:45456   */\n      0x16\n        /* \"#utility.yul\":45449:45452   */\n      dup4\n        /* \"#utility.yul\":45390:45457   */\n      tag_458\n      jump\t// in\n    tag_870:\n        /* \"#utility.yul\":45383:45457   */\n      swap2\n      pop\n        /* \"#utility.yul\":45466:45559   */\n      tag_871\n        /* \"#utility.yul\":45555:45558   */\n      dup3\n        /* \"#utility.yul\":45466:45559   */\n      tag_520\n      jump\t// in\n    tag_871:\n        /* \"#utility.yul\":45584:45586   */\n      0x20\n        /* \"#utility.yul\":45579:45582   */\n      dup3\n        /* \"#utility.yul\":45575:45587   */\n      add\n        /* \"#utility.yul\":45568:45587   */\n      swap1\n      pop\n        /* \"#utility.yul\":45227:45593   */\n      swap2\n      swap1\n      pop\n      jump\t// out\n        /* \"#utility.yul\":45599:46018   */\n    tag_422:\n        /* \"#utility.yul\":45765:45769   */\n      0x00\n        /* \"#utility.yul\":45803:45805   */\n      0x20\n        /* \"#utility.yul\":45792:45801   */\n      dup3\n        /* \"#utility.yul\":45788:45806   */\n      add\n        /* \"#utility.yul\":45780:45806   */\n      swap1\n      pop\n        /* \"#utility.yul\":45852:45861   */\n      dup2\n        /* \"#utility.yul\":45846:45850   */\n      dup2\n        /* \"#utility.yul\":45842:45862   */\n      sub\n        /* \"#utility.yul\":45838:45839   */\n      0x00\n        /* \"#utility.yul\":45827:45836   */\n      dup4\n        /* \"#utility.yul\":45823:45840   */\n      add\n        /* \"#utility.yul\":45816:45863   */\n      mstore\n        /* \"#utility.yul\":45880:46011   */\n      tag_873\n        /* \"#utility.yul\":46006:46010   */\n      dup2\n        /* \"#utility.yul\":45880:46011   */\n      tag_521\n      jump\t// in\n    tag_873:\n        /* \"#utility.yul\":45872:46011   */\n      swap1\n      pop\n        /* \"#utility.yul\":45599:46018   */\n      swap2\n      swap1\n      pop\n      jump\t// out\n\n    auxdata: 0xa2646970667358221220fa99e22733bee4887f20b5724adc9931a00f320cd7373bf89d7eef6f0af1205964736f6c63430008090033\n}\n","bytecode":{"linkReferences":{},"object":"6080604052600060065534801561001557600080fd5b50336000806101000a81548173ffffffffffffffffffffffffffffffffffffffff021916908373ffffffffffffffffffffffffffffffffffffffff16021790555060018060003373ffffffffffffffffffffffffffffffffffffffff1673ffffffffffffffffffffffffffffffffffffffff16815260200190815260200160002060006101000a81548160ff0219169083151502179055506152e9806100bc6000396000f3fe608060405234801561001057600080fd5b50600436106101165760003560e01c806370480275116100a2578063d0ebdbe711610071578063d0ebdbe714610351578063e0d23e1114610381578063ef264a21146103b1578063efe2ccc1146103cd578063f8171dfa1461040257610116565b8063704802751461029f57806391e58375146102cf578063a4f3cc2314610305578063b20a80331461032157610116565b80632986c0e5116100e95780632986c0e5146101df57806346fc6563146101fd578063481c6a751461021b5780635422224e1461023957806358c5d4bf1461026957610116565b80630c3c45a01461011b578063127ca4b41461014b5780631785f53c1461017b57806318bd4847146101ab575b600080fd5b61013560048036038101906101309190613ca6565b610432565b6040516101429190613d01565b60405180910390f35b61016560048036038101906101609190613d52565b610760565b6040516101729190613d8e565b60405180910390f35b61019560048036038101906101909190613da9565b61079f565b6040516101a29190613d01565b60405180910390f35b6101c560048036038101906101c09190613da9565b6109ee565b6040516101d6959493929190613f31565b60405180910390f35b6101e7611483565b6040516101f49190613fb6565b60405180910390f35b610205611489565b6040516102129190613fb6565b60405180910390f35b61022361148f565b6040516102309190613d8e565b60405180910390f35b610253600480360381019061024e9190613da9565b6114b3565b6040516102609190613d01565b60405180910390f35b610283600480360381019061027e9190613da9565b61168c565b604051610296979695949392919061401b565b60405180910390f35b6102b960048036038101906102b49190613da9565b611a74565b6040516102c69190613d01565b60405180910390f35b6102e960048036038101906102e49190613d52565b611c34565b6040516102fc979695949392919061401b565b60405180910390f35b61031f600480360381019061031a91906141db565b61213e565b005b61033b60048036038101906103369190614310565b61260c565b6040516103489190613d01565b60405180910390f35b61036b60048036038101906103669190613da9565b612980565b6040516103789190613d01565b60405180910390f35b61039b60048036038101906103969190613ca6565b612b22565b6040516103a89190613d01565b60405180910390f35b6103cb60048036038101906103c691906143fb565b612e51565b005b6103e760048036038101906103e29190613da9565b6130d3565b6040516103f996959493929190614514565b60405180910390f35b61041c60048036038101906104179190613da9565b6139b9565b6040516104299190613d01565b60405180910390f35b6000600860008473ffffffffffffffffffffffffffffffffffffffff1673ffffffffffffffffffffffffffffffffffffffff16815260200190815260200160002060008373ffffffffffffffffffffffffffffffffffffffff1673ffffffffffffffffffffffffffffffffffffffff16815260200190815260200160002060009054906101000a900460ff166104fd576040517f08c379a00000000000000000000000000000000000000000000000000000000081526004016104f4906145eb565b60405180910390fd5b8173ffffffffffffffffffffffffffffffffffffffff168373ffffffffffffffffffffffffffffffffffffffff16141561056c576040517f08c379a000000000000000000000000000000000000000000000000000000000815260040161056390614657565b60405180910390fd5b600860008473ffffffffffffffffffffffffffffffffffffffff1673ffffffffffffffffffffffffffffffffffffffff16815260200190815260200160002060003373ffffffffffffffffffffffffffffffffffffffff1673ffffffffffffffffffffffffffffffffffffffff16815260200190815260200160002060009054906101000a900460ff16610635576040517f08c379a000000000000000000000000000000000000000000000000000000000815260040161062c906146e9565b60405180910390fd5b600a60008473ffffffffffffffffffffffffffffffffffffffff1673ffffffffffffffffffffffffffffffffffffffff16815260200190815260200160002060009054906101000a900460ff166106c1576040517f08c379a00000000000000000000000000000000000000000000000000000000081526004016106b890614755565b60405180910390fd5b6000600860008573ffffffffffffffffffffffffffffffffffffffff1673ffffffffffffffffffffffffffffffffffffffff16815260200190815260200160002060008473ffffffffffffffffffffffffffffffffffffffff1673ffffffffffffffffffffffffffffffffffffffff16815260200190815260200160002060006101000a81548160ff0219169083151502179055506001905092915050565b6005818154811061077057600080fd5b906000526020600020016000915054906101000a900473ffffffffffffffffffffffffffffffffffffffff1681565b60003373ffffffffffffffffffffffffffffffffffffffff1660008054906101000a900473ffffffffffffffffffffffffffffffffffffffff1673ffffffffffffffffffffffffffffffffffffffff161461082f576040517f08c379a0000000000000000000000000000000000000000000000000000000008152600401610826906147e7565b60405180910390fd5b60008054906101000a900473ffffffffffffffffffffffffffffffffffffffff1673ffffffffffffffffffffffffffffffffffffffff168273ffffffffffffffffffffffffffffffffffffffff1614156108be576040517f08c379a00000000000000000000000000000000000000000000000000000000081526004016108b590614853565b60405180910390fd5b600160008373ffffffffffffffffffffffffffffffffffffffff1673ffffffffffffffffffffffffffffffffffffffff16815260200190815260200160002060009054906101000a900460ff1661094a576040517f08c379a0000000000000000000000000000000000000000000000000000000008152600401610941906148bf565b60405180910390fd5b6000600160008473ffffffffffffffffffffffffffffffffffffffff1673ffffffffffffffffffffffffffffffffffffffff16815260200190815260200160002060006101000a81548160ff0219169083151502179055508173ffffffffffffffffffffffffffffffffffffffff167fa3b62bc36326052d97ea62d63c3d60308ed4c3ea8ac079dd8499f1e9c4f80c0f60405160405180910390a260019050919050565b6060806060806060600860008773ffffffffffffffffffffffffffffffffffffffff1673ffffffffffffffffffffffffffffffffffffffff16815260200190815260200160002060003373ffffffffffffffffffffffffffffffffffffffff1673ffffffffffffffffffffffffffffffffffffffff16815260200190815260200160002060009054906101000a900460ff16610abf576040517f08c379a0000000000000000000000000000000000000000000000000000000008152600401610ab69061492b565b60405180910390fd5b600a60008773ffffffffffffffffffffffffffffffffffffffff1673ffffffffffffffffffffffffffffffffffffffff16815260200190815260200160002060009054906101000a900460ff16610b4b576040517f08c379a0000000000000000000000000000000000000000000000000000000008152600401610b42906149bd565b60405180910390fd5b6000600960008873ffffffffffffffffffffffffffffffffffffffff1673ffffffffffffffffffffffffffffffffffffffff1681526020019081526020016000206007018054905011610bd3576040517f08c379a0000000000000000000000000000000000000000000000000000000008152600401610bca90614a29565b60405180910390fd5b6000600960008873ffffffffffffffffffffffffffffffffffffffff1673ffffffffffffffffffffffffffffffffffffffff1681526020019081526020016000206007018054905067ffffffffffffffff811115610c3457610c336140b0565b5b604051908082528060200260200182016040528015610c6757816020015b6060815260200190600190039081610c525790505b5090506000600960008973ffffffffffffffffffffffffffffffffffffffff1673ffffffffffffffffffffffffffffffffffffffff1681526020019081526020016000206007018054905067ffffffffffffffff811115610ccb57610cca6140b0565b5b604051908082528060200260200182016040528015610cfe57816020015b6060815260200190600190039081610ce95790505b5090506000600960008a73ffffffffffffffffffffffffffffffffffffffff1673ffffffffffffffffffffffffffffffffffffffff1681526020019081526020016000206007018054905067ffffffffffffffff811115610d6257610d616140b0565b5b604051908082528060200260200182016040528015610d9557816020015b6060815260200190600190039081610d805790505b5090506000600960008b73ffffffffffffffffffffffffffffffffffffffff1673ffffffffffffffffffffffffffffffffffffffff1681526020019081526020016000206007018054905067ffffffffffffffff811115610df957610df86140b0565b5b604051908082528060200260200182016040528015610e2c57816020015b6060815260200190600190039081610e175790505b5090506000600960008c73ffffffffffffffffffffffffffffffffffffffff1673ffffffffffffffffffffffffffffffffffffffff1681526020019081526020016000206007018054905067ffffffffffffffff811115610e9057610e8f6140b0565b5b604051908082528060200260200182016040528015610ec357816020015b6060815260200190600190039081610eae5790505b50905060005b600960008d73ffffffffffffffffffffffffffffffffffffffff1673ffffffffffffffffffffffffffffffffffffffff1681526020019081526020016000206007018054905081101561146557600960008d73ffffffffffffffffffffffffffffffffffffffff1673ffffffffffffffffffffffffffffffffffffffff1681526020019081526020016000206007018181548110610f6a57610f69614a49565b5b90600052602060002090600502016000018054610f8690614aa7565b80601f0160208091040260200160405190810160405280929190818152602001828054610fb290614aa7565b8015610fff5780601f10610fd457610100808354040283529160200191610fff565b820191906000526020600020905b815481529060010190602001808311610fe257829003601f168201915b505050505086828151811061101757611016614a49565b5b6020026020010181905250600960008d73ffffffffffffffffffffffffffffffffffffffff1673ffffffffffffffffffffffffffffffffffffffff168152602001908152602001600020600701818154811061107657611075614a49565b5b9060005260206000209060050201600101805461109290614aa7565b80601f01602080910402602001604051908101604052809291908181526020018280546110be90614aa7565b801561110b5780601f106110e05761010080835404028352916020019161110b565b820191906000526020600020905b8154815290600101906020018083116110ee57829003601f168201915b505050505085828151811061112357611122614a49565b5b6020026020010181905250600960008d73ffffffffffffffffffffffffffffffffffffffff1673ffffffffffffffffffffffffffffffffffffffff168152602001908152602001600020600701818154811061118257611181614a49565b5b9060005260206000209060050201600201805461119e90614aa7565b80601f01602080910402602001604051908101604052809291908181526020018280546111ca90614aa7565b80156112175780601f106111ec57610100808354040283529160200191611217565b820191906000526020600020905b8154815290600101906020018083116111fa57829003601f168201915b505050505084828151811061122f5761122e614a49565b5b6020026020010181905250600960008d73ffffffffffffffffffffffffffffffffffffffff1673ffffffffffffffffffffffffffffffffffffffff168152602001908152602001600020600701818154811061128e5761128d614a49565b5b906000526020600020906005020160030180546112aa90614aa7565b80601f01602080910402602001604051908101604052809291908181526020018280546112d690614aa7565b80156113235780601f106112f857610100808354040283529160200191611323565b820191906000526020600020905b81548152906001019060200180831161130657829003601f168201915b505050505083828151811061133b5761133a614a49565b5b6020026020010181905250600960008d73ffffffffffffffffffffffffffffffffffffffff1673ffffffffffffffffffffffffffffffffffffffff168152602001908152602001600020600701818154811061139a57611399614a49565b5b906000526020600020906005020160040180546113b690614aa7565b80601f01602080910402602001604051908101604052809291908181526020018280546113e290614aa7565b801561142f5780601f106114045761010080835404028352916020019161142f565b820191906000526020600020905b81548152906001019060200180831161141257829003601f168201915b505050505082828151811061144757611446614a49565b5b6020026020010181905250808061145d90614b08565b915050610ec9565b50848484848499509950995099509950505050505091939590929450565b60025481565b60065481565b60008054906101000a900473ffffffffffffffffffffffffffffffffffffffff1681565b6000600860003373ffffffffffffffffffffffffffffffffffffffff1673ffffffffffffffffffffffffffffffffffffffff16815260200190815260200160002060008373ffffffffffffffffffffffffffffffffffffffff1673ffffffffffffffffffffffffffffffffffffffff16815260200190815260200160002060009054906101000a900460ff161561157f576040517f08c379a000000000000000000000000000000000000000000000000000000000815260040161157690614b9d565b60405180910390fd5b8173ffffffffffffffffffffffffffffffffffffffff163373ffffffffffffffffffffffffffffffffffffffff1614156115ee576040517f08c379a00000000000000000000000000000000000000000000000000000000081526004016115e590614c09565b60405180910390fd5b6001600860003373ffffffffffffffffffffffffffffffffffffffff1673ffffffffffffffffffffffffffffffffffffffff16815260200190815260200160002060008473ffffffffffffffffffffffffffffffffffffffff1673ffffffffffffffffffffffffffffffffffffffff16815260200190815260200160002060006101000a81548160ff02191690831515021790555060019050919050565b6000606080606080600080600460008973ffffffffffffffffffffffffffffffffffffffff1673ffffffffffffffffffffffffffffffffffffffff16815260200190815260200160002060050160149054906101000a900460ff16611726576040517f08c379a000000000000000000000000000000000000000000000000000000000815260040161171d90614c75565b60405180910390fd5b6000600460008a73ffffffffffffffffffffffffffffffffffffffff1673ffffffffffffffffffffffffffffffffffffffff1681526020019081526020016000206040518060e00160405290816000820154815260200160018201805461178c90614aa7565b80601f01602080910402602001604051908101604052809291908181526020018280546117b890614aa7565b80156118055780601f106117da57610100808354040283529160200191611805565b820191906000526020600020905b8154815290600101906020018083116117e857829003601f168201915b5050505050815260200160028201805461181e90614aa7565b80601f016020809104026020016040519081016040528092919081815260200182805461184a90614aa7565b80156118975780601f1061186c57610100808354040283529160200191611897565b820191906000526020600020905b81548152906001019060200180831161187a57829003601f168201915b505050505081526020016003820180546118b090614aa7565b80601f01602080910402602001604051908101604052809291908181526020018280546118dc90614aa7565b80156119295780601f106118fe57610100808354040283529160200191611929565b820191906000526020600020905b81548152906001019060200180831161190c57829003601f168201915b5050505050815260200160048201805461194290614aa7565b80601f016020809104026020016040519081016040528092919081815260200182805461196e90614aa7565b80156119bb5780601f10611990576101008083540402835291602001916119bb565b820191906000526020600020905b81548152906001019060200180831161199e57829003601f168201915b505050505081526020016005820160009054906101000a900473ffffffffffffffffffffffffffffffffffffffff1673ffffffffffffffffffffffffffffffffffffffff1673ffffffffffffffffffffffffffffffffffffffff1681526020016005820160149054906101000a900460ff1615151515815250509050806000015181602001518260400151836060015184608001518560a001518660c00151975097509750975097509750975050919395979092949650565b60003373ffffffffffffffffffffffffffffffffffffffff1660008054906101000a900473ffffffffffffffffffffffffffffffffffffffff1673ffffffffffffffffffffffffffffffffffffffff1614611b04576040517f08c379a0000000000000000000000000000000000000000000000000000000008152600401611afb906147e7565b60405180910390fd5b600160008373ffffffffffffffffffffffffffffffffffffffff1673ffffffffffffffffffffffffffffffffffffffff16815260200190815260200160002060009054906101000a900460ff1615611b91576040517f08c379a0000000000000000000000000000000000000000000000000000000008152600401611b8890614ce1565b60405180910390fd5b60018060008473ffffffffffffffffffffffffffffffffffffffff1673ffffffffffffffffffffffffffffffffffffffff16815260200190815260200160002060006101000a81548160ff0219169083151502179055508173ffffffffffffffffffffffffffffffffffffffff167f44d6d25963f097ad14f29f06854a01f575648a1ef82f30e562ccd3889717e33960405160405180910390a260019050919050565b600060608060608060008060005b600580549050811015611cef57886004600060058481548110611c6857611c67614a49565b5b9060005260206000200160009054906101000a900473ffffffffffffffffffffffffffffffffffffffff1673ffffffffffffffffffffffffffffffffffffffff1673ffffffffffffffffffffffffffffffffffffffff168152602001908152602001600020600001541415611cdc57611cef565b8080611ce790614b08565b915050611c42565b886004600060058481548110611d0857611d07614a49565b5b9060005260206000200160009054906101000a900473ffffffffffffffffffffffffffffffffffffffff1673ffffffffffffffffffffffffffffffffffffffff1673ffffffffffffffffffffffffffffffffffffffff1681526020019081526020016000206000015414611db1576040517f08c379a0000000000000000000000000000000000000000000000000000000008152600401611da890614d4d565b60405180910390fd5b60006004600060058481548110611dcb57611dca614a49565b5b9060005260206000200160009054906101000a900473ffffffffffffffffffffffffffffffffffffffff1673ffffffffffffffffffffffffffffffffffffffff1673ffffffffffffffffffffffffffffffffffffffff1681526020019081526020016000206040518060e001604052908160008201548152602001600182018054611e5590614aa7565b80601f0160208091040260200160405190810160405280929190818152602001828054611e8190614aa7565b8015611ece5780601f10611ea357610100808354040283529160200191611ece565b820191906000526020600020905b815481529060010190602001808311611eb157829003601f168201915b50505050508152602001600282018054611ee790614aa7565b80601f0160208091040260200160405190810160405280929190818152602001828054611f1390614aa7565b8015611f605780601f10611f3557610100808354040283529160200191611f60565b820191906000526020600020905b815481529060010190602001808311611f4357829003601f168201915b50505050508152602001600382018054611f7990614aa7565b80601f0160208091040260200160405190810160405280929190818152602001828054611fa590614aa7565b8015611ff25780601f10611fc757610100808354040283529160200191611ff2565b820191906000526020600020905b815481529060010190602001808311611fd557829003601f168201915b5050505050815260200160048201805461200b90614aa7565b80601f016020809104026020016040519081016040528092919081815260200182805461203790614aa7565b80156120845780601f1061205957610100808354040283529160200191612084565b820191906000526020600020905b81548152906001019060200180831161206757829003601f168201915b505050505081526020016005820160009054906101000a900473ffffffffffffffffffffffffffffffffffffffff1673ffffffffffffffffffffffffffffffffffffffff1673ffffffffffffffffffffffffffffffffffffffff1681526020016005820160149054906101000a900460ff1615151515815250509050806000015181602001518260400151836060015184608001518560a001518660c0015198509850985098509850985098505050919395979092949650565b600a60003373ffffffffffffffffffffffffffffffffffffffff1673ffffffffffffffffffffffffffffffffffffffff16815260200190815260200160002060009054906101000a900460ff16156121cb576040517f08c379a00000000000000000000000000000000000000000000000000000000081526004016121c290614db9565b60405180910390fd5b6007339080600181540180825580915050600190039060005260206000200160009091909190916101000a81548173ffffffffffffffffffffffffffffffffffffffff021916908373ffffffffffffffffffffffffffffffffffffffff160217905550600160065461223d9190614dd9565b6006819055506001600a60003373ffffffffffffffffffffffffffffffffffffffff1673ffffffffffffffffffffffffffffffffffffffff16815260200190815260200160002060006101000a81548160ff0219169083151502179055506001600860003373ffffffffffffffffffffffffffffffffffffffff1673ffffffffffffffffffffffffffffffffffffffff16815260200190815260200160002060003373ffffffffffffffffffffffffffffffffffffffff1673ffffffffffffffffffffffffffffffffffffffff16815260200190815260200160002060006101000a81548160ff021916908315150217905550600654600960003373ffffffffffffffffffffffffffffffffffffffff1673ffffffffffffffffffffffffffffffffffffffff1681526020019081526020016000206000018190555085600960003373ffffffffffffffffffffffffffffffffffffffff1673ffffffffffffffffffffffffffffffffffffffff16815260200190815260200160002060010190805190602001906123cf929190613b91565b5084600960003373ffffffffffffffffffffffffffffffffffffffff1673ffffffffffffffffffffffffffffffffffffffff1681526020019081526020016000206002019080519060200190612426929190613b91565b5083600960003373ffffffffffffffffffffffffffffffffffffffff1673ffffffffffffffffffffffffffffffffffffffff168152602001908152602001600020600301908051906020019061247d929190613b91565b5082600960003373ffffffffffffffffffffffffffffffffffffffff1673ffffffffffffffffffffffffffffffffffffffff16815260200190815260200160002060040190805190602001906124d4929190613b91565b5081600960003373ffffffffffffffffffffffffffffffffffffffff1673ffffffffffffffffffffffffffffffffffffffff168152602001908152602001600020600501908051906020019061252b929190613b91565b5080600960003373ffffffffffffffffffffffffffffffffffffffff1673ffffffffffffffffffffffffffffffffffffffff1681526020019081526020016000206006019080519060200190612582929190613b91565b5033600960003373ffffffffffffffffffffffffffffffffffffffff1673ffffffffffffffffffffffffffffffffffffffff16815260200190815260200160002060080160006101000a81548173ffffffffffffffffffffffffffffffffffffffff021916908373ffffffffffffffffffffffffffffffffffffffff160217905550505050505050565b600060011515600160003373ffffffffffffffffffffffffffffffffffffffff1673ffffffffffffffffffffffffffffffffffffffff16815260200190815260200160002060009054906101000a900460ff161515146126a1576040517f08c379a000000000000000000000000000000000000000000000000000000000815260040161269890614ea1565b60405180910390fd5b600360008373ffffffffffffffffffffffffffffffffffffffff1673ffffffffffffffffffffffffffffffffffffffff16815260200190815260200160002060009054906101000a900460ff161561272e576040517f08c379a000000000000000000000000000000000000000000000000000000000815260040161272590614f0d565b60405180910390fd5b6005829080600181540180825580915050600190039060005260206000200160009091909190916101000a81548173ffffffffffffffffffffffffffffffffffffffff021916908373ffffffffffffffffffffffffffffffffffffffff16021790555060016002546127a09190614dd9565b6002819055506001600360008473ffffffffffffffffffffffffffffffffffffffff1673ffffffffffffffffffffffffffffffffffffffff16815260200190815260200160002060006101000a81548160ff0219169083151502179055506040518060e0016040528060025481526020018781526020018681526020018581526020018481526020018373ffffffffffffffffffffffffffffffffffffffff16815260200160011515815250600460008473ffffffffffffffffffffffffffffffffffffffff1673ffffffffffffffffffffffffffffffffffffffff1681526020019081526020016000206000820151816000015560208201518160010190805190602001906128b1929190613b91565b5060408201518160020190805190602001906128ce929190613b91565b5060608201518160030190805190602001906128eb929190613b91565b506080820151816004019080519060200190612908929190613b91565b5060a08201518160050160006101000a81548173ffffffffffffffffffffffffffffffffffffffff021916908373ffffffffffffffffffffffffffffffffffffffff16021790555060c08201518160050160146101000a81548160ff0219169083151502179055509050506001905095945050505050565b60003373ffffffffffffffffffffffffffffffffffffffff1660008054906101000a900473ffffffffffffffffffffffffffffffffffffffff1673ffffffffffffffffffffffffffffffffffffffff1614612a10576040517f08c379a0000000000000000000000000000000000000000000000000000000008152600401612a07906147e7565b60405180910390fd5b8173ffffffffffffffffffffffffffffffffffffffff163373ffffffffffffffffffffffffffffffffffffffff161415612a7f576040517f08c379a0000000000000000000000000000000000000000000000000000000008152600401612a7690614f79565b60405180910390fd5b816000806101000a81548173ffffffffffffffffffffffffffffffffffffffff021916908373ffffffffffffffffffffffffffffffffffffffff1602179055508173ffffffffffffffffffffffffffffffffffffffff163373ffffffffffffffffffffffffffffffffffffffff167f605c2dbf762e5f7d60a546d42e7205dcb1b011ebc62a61736a57c9089d3a435060405160405180910390a360019050919050565b6000600860008473ffffffffffffffffffffffffffffffffffffffff1673ffffffffffffffffffffffffffffffffffffffff16815260200190815260200160002060008373ffffffffffffffffffffffffffffffffffffffff1673ffffffffffffffffffffffffffffffffffffffff16815260200190815260200160002060009054906101000a900460ff1615612bee576040517f08c379a0000000000000000000000000000000000000000000000000000000008152600401612be590614fe5565b60405180910390fd5b8173ffffffffffffffffffffffffffffffffffffffff168373ffffffffffffffffffffffffffffffffffffffff161415612c5d576040517f08c379a0000000000000000000000000000000000000000000000000000000008152600401612c5490615051565b60405180910390fd5b600860008473ffffffffffffffffffffffffffffffffffffffff1673ffffffffffffffffffffffffffffffffffffffff16815260200190815260200160002060003373ffffffffffffffffffffffffffffffffffffffff1673ffffffffffffffffffffffffffffffffffffffff16815260200190815260200160002060009054906101000a900460ff16612d26576040517f08c379a0000000000000000000000000000000000000000000000000000000008152600401612d1d906146e9565b60405180910390fd5b600a60008473ffffffffffffffffffffffffffffffffffffffff1673ffffffffffffffffffffffffffffffffffffffff16815260200190815260200160002060009054906101000a900460ff16612db2576040517f08c379a0000000000000000000000000000000000000000000000000000000008152600401612da990614755565b60405180910390fd5b6001600860008573ffffffffffffffffffffffffffffffffffffffff1673ffffffffffffffffffffffffffffffffffffffff16815260200190815260200160002060008473ffffffffffffffffffffffffffffffffffffffff1673ffffffffffffffffffffffffffffffffffffffff16815260200190815260200160002060006101000a81548160ff0219169083151502179055506001905092915050565b600a60008773ffffffffffffffffffffffffffffffffffffffff1673ffffffffffffffffffffffffffffffffffffffff16815260200190815260200160002060009054906101000a900460ff16612edd576040517f08c379a0000000000000000000000000000000000000000000000000000000008152600401612ed4906150bd565b60405180910390fd5b600860008773ffffffffffffffffffffffffffffffffffffffff1673ffffffffffffffffffffffffffffffffffffffff16815260200190815260200160002060003373ffffffffffffffffffffffffffffffffffffffff1673ffffffffffffffffffffffffffffffffffffffff16815260200190815260200160002060009054906101000a900460ff16612fa6576040517f08c379a0000000000000000000000000000000000000000000000000000000008152600401612f9d90615129565b60405180910390fd5b600960008773ffffffffffffffffffffffffffffffffffffffff1673ffffffffffffffffffffffffffffffffffffffff1681526020019081526020016000206007016040518060a001604052808781526020018681526020018581526020018481526020018381525090806001815401808255809150506001900390600052602060002090600502016000909190919091506000820151816000019080519060200190613054929190613b91565b506020820151816001019080519060200190613071929190613b91565b50604082015181600201908051906020019061308e929190613b91565b5060608201518160030190805190602001906130ab929190613b91565b5060808201518160040190805190602001906130c8929190613b91565b505050505050505050565b606080606080606080600860008873ffffffffffffffffffffffffffffffffffffffff1673ffffffffffffffffffffffffffffffffffffffff16815260200190815260200160002060003373ffffffffffffffffffffffffffffffffffffffff1673ffffffffffffffffffffffffffffffffffffffff16815260200190815260200160002060009054906101000a900460ff166131a5576040517f08c379a000000000000000000000000000000000000000000000000000000000815260040161319c9061492b565b60405180910390fd5b600a60008873ffffffffffffffffffffffffffffffffffffffff1673ffffffffffffffffffffffffffffffffffffffff16815260200190815260200160002060009054906101000a900460ff16613231576040517f08c379a0000000000000000000000000000000000000000000000000000000008152600401613228906151bb565b60405180910390fd5b6000600960008973ffffffffffffffffffffffffffffffffffffffff1673ffffffffffffffffffffffffffffffffffffffff168152602001908152602001600020604051806101200160405290816000820154815260200160018201805461329890614aa7565b80601f01602080910402602001604051908101604052809291908181526020018280546132c490614aa7565b80156133115780601f106132e657610100808354040283529160200191613311565b820191906000526020600020905b8154815290600101906020018083116132f457829003601f168201915b5050505050815260200160028201805461332a90614aa7565b80601f016020809104026020016040519081016040528092919081815260200182805461335690614aa7565b80156133a35780601f10613378576101008083540402835291602001916133a3565b820191906000526020600020905b81548152906001019060200180831161338657829003601f168201915b505050505081526020016003820180546133bc90614aa7565b80601f01602080910402602001604051908101604052809291908181526020018280546133e890614aa7565b80156134355780601f1061340a57610100808354040283529160200191613435565b820191906000526020600020905b81548152906001019060200180831161341857829003601f168201915b5050505050815260200160048201805461344e90614aa7565b80601f016020809104026020016040519081016040528092919081815260200182805461347a90614aa7565b80156134c75780601f1061349c576101008083540402835291602001916134c7565b820191906000526020600020905b8154815290600101906020018083116134aa57829003601f168201915b505050505081526020016005820180546134e090614aa7565b80601f016020809104026020016040519081016040528092919081815260200182805461350c90614aa7565b80156135595780601f1061352e57610100808354040283529160200191613559565b820191906000526020600020905b81548152906001019060200180831161353c57829003601f168201915b5050505050815260200160068201805461357290614aa7565b80601f016020809104026020016040519081016040528092919081815260200182805461359e90614aa7565b80156135eb5780601f106135c0576101008083540402835291602001916135eb565b820191906000526020600020905b8154815290600101906020018083116135ce57829003601f168201915b5050505050815260200160078201805480602002602001604051908101604052809291908181526020016000905b8282101561392557838290600052602060002090600502016040518060a001604052908160008201805461364c90614aa7565b80601f016020809104026020016040519081016040528092919081815260200182805461367890614aa7565b80156136c55780601f1061369a576101008083540402835291602001916136c5565b820191906000526020600020905b8154815290600101906020018083116136a857829003601f168201915b505050505081526020016001820180546136de90614aa7565b80601f016020809104026020016040519081016040528092919081815260200182805461370a90614aa7565b80156137575780601f1061372c57610100808354040283529160200191613757565b820191906000526020600020905b81548152906001019060200180831161373a57829003601f168201915b5050505050815260200160028201805461377090614aa7565b80601f016020809104026020016040519081016040528092919081815260200182805461379c90614aa7565b80156137e95780601f106137be576101008083540402835291602001916137e9565b820191906000526020600020905b8154815290600101906020018083116137cc57829003601f168201915b5050505050815260200160038201805461380290614aa7565b80601f016020809104026020016040519081016040528092919081815260200182805461382e90614aa7565b801561387b5780601f106138505761010080835404028352916020019161387b565b820191906000526020600020905b81548152906001019060200180831161385e57829003601f168201915b5050505050815260200160048201805461389490614aa7565b80601f01602080910402602001604051908101604052809291908181526020018280546138c090614aa7565b801561390d5780601f106138e25761010080835404028352916020019161390d565b820191906000526020600020905b8154815290600101906020018083116138f057829003601f168201915b50505050508152505081526020019060010190613619565b5050505081526020016008820160009054906101000a900473ffffffffffffffffffffffffffffffffffffffff1673ffffffffffffffffffffffffffffffffffffffff1673ffffffffffffffffffffffffffffffffffffffff1681525050905080602001518160400151826060015183608001518460a001518560c001519650965096509650965096505091939550919395565b60008173ffffffffffffffffffffffffffffffffffffffff163373ffffffffffffffffffffffffffffffffffffffff161415613a2a576040517f08c379a0000000000000000000000000000000000000000000000000000000008152600401613a2190615227565b60405180910390fd5b600860003373ffffffffffffffffffffffffffffffffffffffff1673ffffffffffffffffffffffffffffffffffffffff16815260200190815260200160002060008373ffffffffffffffffffffffffffffffffffffffff1673ffffffffffffffffffffffffffffffffffffffff16815260200190815260200160002060009054906101000a900460ff16613af3576040517f08c379a0000000000000000000000000000000000000000000000000000000008152600401613aea90615293565b60405180910390fd5b6000600860003373ffffffffffffffffffffffffffffffffffffffff1673ffffffffffffffffffffffffffffffffffffffff16815260200190815260200160002060008473ffffffffffffffffffffffffffffffffffffffff1673ffffffffffffffffffffffffffffffffffffffff16815260200190815260200160002060006101000a81548160ff02191690831515021790555060019050919050565b828054613b9d90614aa7565b90600052602060002090601f016020900481019282613bbf5760008555613c06565b82601f10613bd857805160ff1916838001178555613c06565b82800160010185558215613c06579182015b82811115613c05578251825591602001919060010190613bea565b5b509050613c139190613c17565b5090565b5b80821115613c30576000816000905550600101613c18565b5090565b6000604051905090565b600080fd5b600080fd5b600073ffffffffffffffffffffffffffffffffffffffff82169050919050565b6000613c7382613c48565b9050919050565b613c8381613c68565b8114613c8e57600080fd5b50565b600081359050613ca081613c7a565b92915050565b60008060408385031215613cbd57613cbc613c3e565b5b6000613ccb85828601613c91565b9250506020613cdc85828601613c91565b9150509250929050565b60008115159050919050565b613cfb81613ce6565b82525050565b6000602082019050613d166000830184613cf2565b92915050565b6000819050919050565b613d2f81613d1c565b8114613d3a57600080fd5b50565b600081359050613d4c81613d26565b92915050565b600060208284031215613d6857613d67613c3e565b5b6000613d7684828501613d3d565b91505092915050565b613d8881613c68565b82525050565b6000602082019050613da36000830184613d7f565b92915050565b600060208284031215613dbf57613dbe613c3e565b5b6000613dcd84828501613c91565b91505092915050565b600081519050919050565b600082825260208201905092915050565b6000819050602082019050919050565b600081519050919050565b600082825260208201905092915050565b60005b83811015613e3c578082015181840152602081019050613e21565b83811115613e4b576000848401525b50505050565b6000601f19601f8301169050919050565b6000613e6d82613e02565b613e778185613e0d565b9350613e87818560208601613e1e565b613e9081613e51565b840191505092915050565b6000613ea78383613e62565b905092915050565b6000602082019050919050565b6000613ec782613dd6565b613ed18185613de1565b935083602082028501613ee385613df2565b8060005b85811015613f1f5784840389528151613f008582613e9b565b9450613f0b83613eaf565b925060208a01995050600181019050613ee7565b50829750879550505050505092915050565b600060a0820190508181036000830152613f4b8188613ebc565b90508181036020830152613f5f8187613ebc565b90508181036040830152613f738186613ebc565b90508181036060830152613f878185613ebc565b90508181036080830152613f9b8184613ebc565b90509695505050505050565b613fb081613d1c565b82525050565b6000602082019050613fcb6000830184613fa7565b92915050565b600082825260208201905092915050565b6000613fed82613e02565b613ff78185613fd1565b9350614007818560208601613e1e565b61401081613e51565b840191505092915050565b600060e082019050614030600083018a613fa7565b81810360208301526140428189613fe2565b905081810360408301526140568188613fe2565b9050818103606083015261406a8187613fe2565b9050818103608083015261407e8186613fe2565b905061408d60a0830185613d7f565b61409a60c0830184613cf2565b98975050505050505050565b600080fd5b600080fd5b7f4e487b7100000000000000000000000000000000000000000000000000000000600052604160045260246000fd5b6140e882613e51565b810181811067ffffffffffffffff82111715614107576141066140b0565b5b80604052505050565b600061411a613c34565b905061412682826140df565b919050565b600067ffffffffffffffff821115614146576141456140b0565b5b61414f82613e51565b9050602081019050919050565b82818337600083830152505050565b600061417e6141798461412b565b614110565b90508281526020810184848401111561419a576141996140ab565b5b6141a584828561415c565b509392505050565b600082601f8301126141c2576141c16140a6565b5b81356141d284826020860161416b565b91505092915050565b60008060008060008060c087890312156141f8576141f7613c3e565b5b600087013567ffffffffffffffff81111561421657614215613c43565b5b61422289828a016141ad565b965050602087013567ffffffffffffffff81111561424357614242613c43565b5b61424f89828a016141ad565b955050604087013567ffffffffffffffff8111156142705761426f613c43565b5b61427c89828a016141ad565b945050606087013567ffffffffffffffff81111561429d5761429c613c43565b5b6142a989828a016141ad565b935050608087013567ffffffffffffffff8111156142ca576142c9613c43565b5b6142d689828a016141ad565b92505060a087013567ffffffffffffffff8111156142f7576142f6613c43565b5b61430389828a016141ad565b9150509295509295509295565b600080600080600060a0868803121561432c5761432b613c3e565b5b600086013567ffffffffffffffff81111561434a57614349613c43565b5b614356888289016141ad565b955050602086013567ffffffffffffffff81111561437757614376613c43565b5b614383888289016141ad565b945050604086013567ffffffffffffffff8111156143a4576143a3613c43565b5b6143b0888289016141ad565b935050606086013567ffffffffffffffff8111156143d1576143d0613c43565b5b6143dd888289016141ad565b92505060806143ee88828901613c91565b9150509295509295909350565b60008060008060008060c0878903121561441857614417613c3e565b5b600061442689828a01613c91565b965050602087013567ffffffffffffffff81111561444757614446613c43565b5b61445389828a016141ad565b955050604087013567ffffffffffffffff81111561447457614473613c43565b5b61448089828a016141ad565b945050606087013567ffffffffffffffff8111156144a1576144a0613c43565b5b6144ad89828a016141ad565b935050608087013567ffffffffffffffff8111156144ce576144cd613c43565b5b6144da89828a016141ad565b92505060a087013567ffffffffffffffff8111156144fb576144fa613c43565b5b61450789828a016141ad565b9150509295509295509295565b600060c082019050818103600083015261452e8189613fe2565b905081810360208301526145428188613fe2565b905081810360408301526145568187613fe2565b9050818103606083015261456a8186613fe2565b9050818103608083015261457e8185613fe2565b905081810360a08301526145928184613fe2565b9050979650505050505050565b7f416c7265616479204e6f20417574682121210000000000000000000000000000600082015250565b60006145d5601283613fd1565b91506145e08261459f565b602082019050919050565b60006020820190508181036000830152614604816145c8565b9050919050565b7f63616e27742072656d6f76652073616d6520706572736f6e0000000000000000600082015250565b6000614641601883613fd1565b915061464c8261460b565b602082019050919050565b6000602082019050818103600083015261467081614634565b9050919050565b7f596f7520646f6e27742068617665207065726d697373696f6e20746f2061636360008201527f6573730000000000000000000000000000000000000000000000000000000000602082015250565b60006146d3602383613fd1565b91506146de82614677565b604082019050919050565b60006020820190508181036000830152614702816146c6565b9050919050565b7f55736572204e6f74205265676973746572656420796574000000000000000000600082015250565b600061473f601783613fd1565b915061474a82614709565b602082019050919050565b6000602082019050818103600083015261476e81614732565b9050919050565b7f4f6e6c79204d616e6167657220686173207065726d697373696f6e20746f206460008201527f6f207468617420616374696f6e2e000000000000000000000000000000000000602082015250565b60006147d1602e83613fd1565b91506147dc82614775565b604082019050919050565b60006020820190508181036000830152614800816147c4565b9050919050565b7f43616e27742072656d6f7665206f776e65722066726f6d2061646d696e000000600082015250565b600061483d601d83613fd1565b915061484882614807565b602082019050919050565b6000602082019050818103600083015261486c81614830565b9050919050565b7f55736572206e6f742061646d696e20616c726561647921212100000000000000600082015250565b60006148a9601983613fd1565b91506148b482614873565b602082019050919050565b600060208201905081810360008301526148d88161489c565b9050919050565b7f4e6f207065726d697373696f6e20746f20676574205265636f72647300000000600082015250565b6000614915601c83613fd1565b9150614920826148df565b602082019050919050565b6000602082019050818103600083015261494481614908565b9050919050565b7f70617469656e74206e6f74207369676e656420696e20746f206f7572206e657460008201527f776f726b00000000000000000000000000000000000000000000000000000000602082015250565b60006149a7602483613fd1565b91506149b28261494b565b604082019050919050565b600060208201905081810360008301526149d68161499a565b9050919050565b7f70617469656e74207265636f726420646f65736e277420657869737400000000600082015250565b6000614a13601c83613fd1565b9150614a1e826149dd565b602082019050919050565b60006020820190508181036000830152614a4281614a06565b9050919050565b7f4e487b7100000000000000000000000000000000000000000000000000000000600052603260045260246000fd5b7f4e487b7100000000000000000000000000000000000000000000000000000000600052602260045260246000fd5b60006002820490506001821680614abf57607f821691505b60208210811415614ad357614ad2614a78565b5b50919050565b7f4e487b7100000000000000000000000000000000000000000000000000000000600052601160045260246000fd5b6000614b1382613d1c565b91507fffffffffffffffffffffffffffffffffffffffffffffffffffffffffffffffff821415614b4657614b45614ad9565b5b600182019050919050565b7f416c726561647920617574686f72697365642e00000000000000000000000000600082015250565b6000614b87601383613fd1565b9150614b9282614b51565b602082019050919050565b60006020820190508181036000830152614bb681614b7a565b9050919050565b7f43616e27742061646420796f757273656c660000000000000000000000000000600082015250565b6000614bf3601283613fd1565b9150614bfe82614bbd565b602082019050919050565b60006020820190508181036000830152614c2281614be6565b9050919050565b7f446f63746f72206973206e6f7420617070726f7665642e000000000000000000600082015250565b6000614c5f601783613fd1565b9150614c6a82614c29565b602082019050919050565b60006020820190508181036000830152614c8e81614c52565b9050919050565b7f5573657220697320616c726561647920612061646d696e212121000000000000600082015250565b6000614ccb601a83613fd1565b9150614cd682614c95565b602082019050919050565b60006020820190508181036000830152614cfa81614cbe565b9050919050565b7f446f63746f7220494420646f65736e27742065786973742e0000000000000000600082015250565b6000614d37601883613fd1565b9150614d4282614d01565b602082019050919050565b60006020820190508181036000830152614d6681614d2a565b9050919050565b7f416c72656164792050617469656e74206163636f756e74206578697374730000600082015250565b6000614da3601e83613fd1565b9150614dae82614d6d565b602082019050919050565b60006020820190508181036000830152614dd281614d96565b9050919050565b6000614de482613d1c565b9150614def83613d1c565b9250827fffffffffffffffffffffffffffffffffffffffffffffffffffffffffffffffff03821115614e2457614e23614ad9565b5b828201905092915050565b7f4f6e6c792041646d696e20686173207065726d697373696f6e20746f20646f2060008201527f7468617420616374696f6e2e0000000000000000000000000000000000000000602082015250565b6000614e8b602c83613fd1565b9150614e9682614e2f565b604082019050919050565b60006020820190508181036000830152614eba81614e7e565b9050919050565b7f416c72656164792061207265676973746572656420446f63746f722e00000000600082015250565b6000614ef7601c83613fd1565b9150614f0282614ec1565b602082019050919050565b60006020820190508181036000830152614f2681614eea565b9050919050565b7f416c7265616479206d616e616765722e00000000000000000000000000000000600082015250565b6000614f63601083613fd1565b9150614f6e82614f2d565b602082019050919050565b60006020820190508181036000830152614f9281614f56565b9050919050565b7f416c726561647920204175746821212100000000000000000000000000000000600082015250565b6000614fcf601083613fd1565b9150614fda82614f99565b602082019050919050565b60006020820190508181036000830152614ffe81614fc2565b9050919050565b7f63616e2774206164642073616d6520706572736f6e0000000000000000000000600082015250565b600061503b601583613fd1565b915061504682615005565b602082019050919050565b6000602082019050818103600083015261506a8161502e565b9050919050565b7f55736572204e6f74207265676973746572656400000000000000000000000000600082015250565b60006150a7601383613fd1565b91506150b282615071565b602082019050919050565b600060208201905081810360008301526150d68161509a565b9050919050565b7f4e6f207065726d697373696f6e20746f20616464205265636f72647300000000600082015250565b6000615113601c83613fd1565b915061511e826150dd565b602082019050919050565b6000602082019050818103600083015261514281615106565b9050919050565b7f4e6f2050617469656e747320666f756e642061742074686520676976656e206160008201527f6464726573730000000000000000000000000000000000000000000000000000602082015250565b60006151a5602683613fd1565b91506151b082615149565b604082019050919050565b600060208201905081810360008301526151d481615198565b9050919050565b7f43616e742072656d6f766520796f757273656c66000000000000000000000000600082015250565b6000615211601483613fd1565b915061521c826151db565b602082019050919050565b6000602082019050818103600083015261524081615204565b9050919050565b7f416c7265616479204e6f7420417574686f726973656400000000000000000000600082015250565b600061527d601683613fd1565b915061528882615247565b602082019050919050565b600060208201905081810360008301526152ac81615270565b905091905056fea2646970667358221220fa99e22733bee4887f20b5724adc9931a00f320cd7373bf89d7eef6f0af1205964736f6c63430008090033","opcodes":"PUSH1 0x80 PUSH1 0x40 MSTORE PUSH1 0x0 PUSH1 0x6 SSTORE CALLVALUE DUP1 ISZERO PUSH2 0x15 JUMPI PUSH1 0x0 DUP1 REVERT JUMPDEST POP CALLER PUSH1 0x0 DUP1 PUSH2 0x100 EXP DUP2 SLOAD DUP2 PUSH20 0xFFFFFFFFFFFFFFFFFFFFFFFFFFFFFFFFFFFFFFFF MUL NOT AND SWAP1 DUP4 PUSH20 0xFFFFFFFFFFFFFFFFFFFFFFFFFFFFFFFFFFFFFFFF AND MUL OR SWAP1 SSTORE POP PUSH1 0x1 DUP1 PUSH1 0x0 CALLER PUSH20 0xFFFFFFFFFFFFFFFFFFFFFFFFFFFFFFFFFFFFFFFF AND PUSH20 0xFFFFFFFFFFFFFFFFFFFFFFFFFFFFFFFFFFFFFFFF AND DUP2 MSTORE PUSH1 0x20 ADD SWAP1 DUP2 MSTORE PUSH1 0x20 ADD PUSH1 0x0 KECCAK256 PUSH1 0x0 PUSH2 0x100 EXP DUP2 SLOAD DUP2 PUSH1 0xFF MUL NOT AND SWAP1 DUP4 ISZERO ISZERO MUL OR SWAP1 SSTORE POP PUSH2 0x52E9 DUP1 PUSH2 0xBC PUSH1 0x0 CODECOPY PUSH1 0x0 RETURN INVALID PUSH1 0x80 PUSH1 0x40 MSTORE CALLVALUE DUP1 ISZERO PUSH2 0x10 JUMPI PUSH1 0x0 DUP1 REVERT JUMPDEST POP PUSH1 0x4 CALLDATASIZE LT PUSH2 0x116 JUMPI PUSH1 0x0 CALLDATALOAD PUSH1 0xE0 SHR DUP1 PUSH4 0x70480275 GT PUSH2 0xA2 JUMPI DUP1 PUSH4 0xD0EBDBE7 GT PUSH2 0x71 JUMPI DUP1 PUSH4 0xD0EBDBE7 EQ PUSH2 0x351 JUMPI DUP1 PUSH4 0xE0D23E11 EQ PUSH2 0x381 JUMPI DUP1 PUSH4 0xEF264A21 EQ PUSH2 0x3B1 JUMPI DUP1 PUSH4 0xEFE2CCC1 EQ PUSH2 0x3CD JUMPI DUP1 PUSH4 0xF8171DFA EQ PUSH2 0x402 JUMPI PUSH2 0x116 JUMP JUMPDEST DUP1 PUSH4 0x70480275 EQ PUSH2 0x29F JUMPI DUP1 PUSH4 0x91E58375 EQ PUSH2 0x2CF JUMPI DUP1 PUSH4 0xA4F3CC23 EQ PUSH2 0x305 JUMPI DUP1 PUSH4 0xB20A8033 EQ PUSH2 0x321 JUMPI PUSH2 0x116 JUMP JUMPDEST DUP1 PUSH4 0x2986C0E5 GT PUSH2 0xE9 JUMPI DUP1 PUSH4 0x2986C0E5 EQ PUSH2 0x1DF JUMPI DUP1 PUSH4 0x46FC6563 EQ PUSH2 0x1FD JUMPI DUP1 PUSH4 0x481C6A75 EQ PUSH2 0x21B JUMPI DUP1 PUSH4 0x5422224E EQ PUSH2 0x239 JUMPI DUP1 PUSH4 0x58C5D4BF EQ PUSH2 0x269 JUMPI PUSH2 0x116 JUMP JUMPDEST DUP1 PUSH4 0xC3C45A0 EQ PUSH2 0x11B JUMPI DUP1 PUSH4 0x127CA4B4 EQ PUSH2 0x14B JUMPI DUP1 PUSH4 0x1785F53C EQ PUSH2 0x17B JUMPI DUP1 PUSH4 0x18BD4847 EQ PUSH2 0x1AB JUMPI JUMPDEST PUSH1 0x0 DUP1 REVERT JUMPDEST PUSH2 0x135 PUSH1 0x4 DUP1 CALLDATASIZE SUB DUP2 ADD SWAP1 PUSH2 0x130 SWAP2 SWAP1 PUSH2 0x3CA6 JUMP JUMPDEST PUSH2 0x432 JUMP JUMPDEST PUSH1 0x40 MLOAD PUSH2 0x142 SWAP2 SWAP1 PUSH2 0x3D01 JUMP JUMPDEST PUSH1 0x40 MLOAD DUP1 SWAP2 SUB SWAP1 RETURN JUMPDEST PUSH2 0x165 PUSH1 0x4 DUP1 CALLDATASIZE SUB DUP2 ADD SWAP1 PUSH2 0x160 SWAP2 SWAP1 PUSH2 0x3D52 JUMP JUMPDEST PUSH2 0x760 JUMP JUMPDEST PUSH1 0x40 MLOAD PUSH2 0x172 SWAP2 SWAP1 PUSH2 0x3D8E JUMP JUMPDEST PUSH1 0x40 MLOAD DUP1 SWAP2 SUB SWAP1 RETURN JUMPDEST PUSH2 0x195 PUSH1 0x4 DUP1 CALLDATASIZE SUB DUP2 ADD SWAP1 PUSH2 0x190 SWAP2 SWAP1 PUSH2 0x3DA9 JUMP JUMPDEST PUSH2 0x79F JUMP JUMPDEST PUSH1 0x40 MLOAD PUSH2 0x1A2 SWAP2 SWAP1 PUSH2 0x3D01 JUMP JUMPDEST PUSH1 0x40 MLOAD DUP1 SWAP2 SUB SWAP1 RETURN JUMPDEST PUSH2 0x1C5 PUSH1 0x4 DUP1 CALLDATASIZE SUB DUP2 ADD SWAP1 PUSH2 0x1C0 SWAP2 SWAP1 PUSH2 0x3DA9 JUMP JUMPDEST PUSH2 0x9EE JUMP JUMPDEST PUSH1 0x40 MLOAD PUSH2 0x1D6 SWAP6 SWAP5 SWAP4 SWAP3 SWAP2 SWAP1 PUSH2 0x3F31 JUMP JUMPDEST PUSH1 0x40 MLOAD DUP1 SWAP2 SUB SWAP1 RETURN JUMPDEST PUSH2 0x1E7 PUSH2 0x1483 JUMP JUMPDEST PUSH1 0x40 MLOAD PUSH2 0x1F4 SWAP2 SWAP1 PUSH2 0x3FB6 JUMP JUMPDEST PUSH1 0x40 MLOAD DUP1 SWAP2 SUB SWAP1 RETURN JUMPDEST PUSH2 0x205 PUSH2 0x1489 JUMP JUMPDEST PUSH1 0x40 MLOAD PUSH2 0x212 SWAP2 SWAP1 PUSH2 0x3FB6 JUMP JUMPDEST PUSH1 0x40 MLOAD DUP1 SWAP2 SUB SWAP1 RETURN JUMPDEST PUSH2 0x223 PUSH2 0x148F JUMP JUMPDEST PUSH1 0x40 MLOAD PUSH2 0x230 SWAP2 SWAP1 PUSH2 0x3D8E JUMP JUMPDEST PUSH1 0x40 MLOAD DUP1 SWAP2 SUB SWAP1 RETURN JUMPDEST PUSH2 0x253 PUSH1 0x4 DUP1 CALLDATASIZE SUB DUP2 ADD SWAP1 PUSH2 0x24E SWAP2 SWAP1 PUSH2 0x3DA9 JUMP JUMPDEST PUSH2 0x14B3 JUMP JUMPDEST PUSH1 0x40 MLOAD PUSH2 0x260 SWAP2 SWAP1 PUSH2 0x3D01 JUMP JUMPDEST PUSH1 0x40 MLOAD DUP1 SWAP2 SUB SWAP1 RETURN JUMPDEST PUSH2 0x283 PUSH1 0x4 DUP1 CALLDATASIZE SUB DUP2 ADD SWAP1 PUSH2 0x27E SWAP2 SWAP1 PUSH2 0x3DA9 JUMP JUMPDEST PUSH2 0x168C JUMP JUMPDEST PUSH1 0x40 MLOAD PUSH2 0x296 SWAP8 SWAP7 SWAP6 SWAP5 SWAP4 SWAP3 SWAP2 SWAP1 PUSH2 0x401B JUMP JUMPDEST PUSH1 0x40 MLOAD DUP1 SWAP2 SUB SWAP1 RETURN JUMPDEST PUSH2 0x2B9 PUSH1 0x4 DUP1 CALLDATASIZE SUB DUP2 ADD SWAP1 PUSH2 0x2B4 SWAP2 SWAP1 PUSH2 0x3DA9 JUMP JUMPDEST PUSH2 0x1A74 JUMP JUMPDEST PUSH1 0x40 MLOAD PUSH2 0x2C6 SWAP2 SWAP1 PUSH2 0x3D01 JUMP JUMPDEST PUSH1 0x40 MLOAD DUP1 SWAP2 SUB SWAP1 RETURN JUMPDEST PUSH2 0x2E9 PUSH1 0x4 DUP1 CALLDATASIZE SUB DUP2 ADD SWAP1 PUSH2 0x2E4 SWAP2 SWAP1 PUSH2 0x3D52 JUMP JUMPDEST PUSH2 0x1C34 JUMP JUMPDEST PUSH1 0x40 MLOAD PUSH2 0x2FC SWAP8 SWAP7 SWAP6 SWAP5 SWAP4 SWAP3 SWAP2 SWAP1 PUSH2 0x401B JUMP JUMPDEST PUSH1 0x40 MLOAD DUP1 SWAP2 SUB SWAP1 RETURN JUMPDEST PUSH2 0x31F PUSH1 0x4 DUP1 CALLDATASIZE SUB DUP2 ADD SWAP1 PUSH2 0x31A SWAP2 SWAP1 PUSH2 0x41DB JUMP JUMPDEST PUSH2 0x213E JUMP JUMPDEST STOP JUMPDEST PUSH2 0x33B PUSH1 0x4 DUP1 CALLDATASIZE SUB DUP2 ADD SWAP1 PUSH2 0x336 SWAP2 SWAP1 PUSH2 0x4310 JUMP JUMPDEST PUSH2 0x260C JUMP JUMPDEST PUSH1 0x40 MLOAD PUSH2 0x348 SWAP2 SWAP1 PUSH2 0x3D01 JUMP JUMPDEST PUSH1 0x40 MLOAD DUP1 SWAP2 SUB SWAP1 RETURN JUMPDEST PUSH2 0x36B PUSH1 0x4 DUP1 CALLDATASIZE SUB DUP2 ADD SWAP1 PUSH2 0x366 SWAP2 SWAP1 PUSH2 0x3DA9 JUMP JUMPDEST PUSH2 0x2980 JUMP JUMPDEST PUSH1 0x40 MLOAD PUSH2 0x378 SWAP2 SWAP1 PUSH2 0x3D01 JUMP JUMPDEST PUSH1 0x40 MLOAD DUP1 SWAP2 SUB SWAP1 RETURN JUMPDEST PUSH2 0x39B PUSH1 0x4 DUP1 CALLDATASIZE SUB DUP2 ADD SWAP1 PUSH2 0x396 SWAP2 SWAP1 PUSH2 0x3CA6 JUMP JUMPDEST PUSH2 0x2B22 JUMP JUMPDEST PUSH1 0x40 MLOAD PUSH2 0x3A8 SWAP2 SWAP1 PUSH2 0x3D01 JUMP JUMPDEST PUSH1 0x40 MLOAD DUP1 SWAP2 SUB SWAP1 RETURN JUMPDEST PUSH2 0x3CB PUSH1 0x4 DUP1 CALLDATASIZE SUB DUP2 ADD SWAP1 PUSH2 0x3C6 SWAP2 SWAP1 PUSH2 0x43FB JUMP JUMPDEST PUSH2 0x2E51 JUMP JUMPDEST STOP JUMPDEST PUSH2 0x3E7 PUSH1 0x4 DUP1 CALLDATASIZE SUB DUP2 ADD SWAP1 PUSH2 0x3E2 SWAP2 SWAP1 PUSH2 0x3DA9 JUMP JUMPDEST PUSH2 0x30D3 JUMP JUMPDEST PUSH1 0x40 MLOAD PUSH2 0x3F9 SWAP7 SWAP6 SWAP5 SWAP4 SWAP3 SWAP2 SWAP1 PUSH2 0x4514 JUMP JUMPDEST PUSH1 0x40 MLOAD DUP1 SWAP2 SUB SWAP1 RETURN JUMPDEST PUSH2 0x41C PUSH1 0x4 DUP1 CALLDATASIZE SUB DUP2 ADD SWAP1 PUSH2 0x417 SWAP2 SWAP1 PUSH2 0x3DA9 JUMP JUMPDEST PUSH2 0x39B9 JUMP JUMPDEST PUSH1 0x40 MLOAD PUSH2 0x429 SWAP2 SWAP1 PUSH2 0x3D01 JUMP JUMPDEST PUSH1 0x40 MLOAD DUP1 SWAP2 SUB SWAP1 RETURN JUMPDEST PUSH1 0x0 PUSH1 0x8 PUSH1 0x0 DUP5 PUSH20 0xFFFFFFFFFFFFFFFFFFFFFFFFFFFFFFFFFFFFFFFF AND PUSH20 0xFFFFFFFFFFFFFFFFFFFFFFFFFFFFFFFFFFFFFFFF AND DUP2 MSTORE PUSH1 0x20 ADD SWAP1 DUP2 MSTORE PUSH1 0x20 ADD PUSH1 0x0 KECCAK256 PUSH1 0x0 DUP4 PUSH20 0xFFFFFFFFFFFFFFFFFFFFFFFFFFFFFFFFFFFFFFFF AND PUSH20 0xFFFFFFFFFFFFFFFFFFFFFFFFFFFFFFFFFFFFFFFF AND DUP2 MSTORE PUSH1 0x20 ADD SWAP1 DUP2 MSTORE PUSH1 0x20 ADD PUSH1 0x0 KECCAK256 PUSH1 0x0 SWAP1 SLOAD SWAP1 PUSH2 0x100 EXP SWAP1 DIV PUSH1 0xFF AND PUSH2 0x4FD JUMPI PUSH1 0x40 MLOAD PUSH32 0x8C379A000000000000000000000000000000000000000000000000000000000 DUP2 MSTORE PUSH1 0x4 ADD PUSH2 0x4F4 SWAP1 PUSH2 0x45EB JUMP JUMPDEST PUSH1 0x40 MLOAD DUP1 SWAP2 SUB SWAP1 REVERT JUMPDEST DUP2 PUSH20 0xFFFFFFFFFFFFFFFFFFFFFFFFFFFFFFFFFFFFFFFF AND DUP4 PUSH20 0xFFFFFFFFFFFFFFFFFFFFFFFFFFFFFFFFFFFFFFFF AND EQ ISZERO PUSH2 0x56C JUMPI PUSH1 0x40 MLOAD PUSH32 0x8C379A000000000000000000000000000000000000000000000000000000000 DUP2 MSTORE PUSH1 0x4 ADD PUSH2 0x563 SWAP1 PUSH2 0x4657 JUMP JUMPDEST PUSH1 0x40 MLOAD DUP1 SWAP2 SUB SWAP1 REVERT JUMPDEST PUSH1 0x8 PUSH1 0x0 DUP5 PUSH20 0xFFFFFFFFFFFFFFFFFFFFFFFFFFFFFFFFFFFFFFFF AND PUSH20 0xFFFFFFFFFFFFFFFFFFFFFFFFFFFFFFFFFFFFFFFF AND DUP2 MSTORE PUSH1 0x20 ADD SWAP1 DUP2 MSTORE PUSH1 0x20 ADD PUSH1 0x0 KECCAK256 PUSH1 0x0 CALLER PUSH20 0xFFFFFFFFFFFFFFFFFFFFFFFFFFFFFFFFFFFFFFFF AND PUSH20 0xFFFFFFFFFFFFFFFFFFFFFFFFFFFFFFFFFFFFFFFF AND DUP2 MSTORE PUSH1 0x20 ADD SWAP1 DUP2 MSTORE PUSH1 0x20 ADD PUSH1 0x0 KECCAK256 PUSH1 0x0 SWAP1 SLOAD SWAP1 PUSH2 0x100 EXP SWAP1 DIV PUSH1 0xFF AND PUSH2 0x635 JUMPI PUSH1 0x40 MLOAD PUSH32 0x8C379A000000000000000000000000000000000000000000000000000000000 DUP2 MSTORE PUSH1 0x4 ADD PUSH2 0x62C SWAP1 PUSH2 0x46E9 JUMP JUMPDEST PUSH1 0x40 MLOAD DUP1 SWAP2 SUB SWAP1 REVERT JUMPDEST PUSH1 0xA PUSH1 0x0 DUP5 PUSH20 0xFFFFFFFFFFFFFFFFFFFFFFFFFFFFFFFFFFFFFFFF AND PUSH20 0xFFFFFFFFFFFFFFFFFFFFFFFFFFFFFFFFFFFFFFFF AND DUP2 MSTORE PUSH1 0x20 ADD SWAP1 DUP2 MSTORE PUSH1 0x20 ADD PUSH1 0x0 KECCAK256 PUSH1 0x0 SWAP1 SLOAD SWAP1 PUSH2 0x100 EXP SWAP1 DIV PUSH1 0xFF AND PUSH2 0x6C1 JUMPI PUSH1 0x40 MLOAD PUSH32 0x8C379A000000000000000000000000000000000000000000000000000000000 DUP2 MSTORE PUSH1 0x4 ADD PUSH2 0x6B8 SWAP1 PUSH2 0x4755 JUMP JUMPDEST PUSH1 0x40 MLOAD DUP1 SWAP2 SUB SWAP1 REVERT JUMPDEST PUSH1 0x0 PUSH1 0x8 PUSH1 0x0 DUP6 PUSH20 0xFFFFFFFFFFFFFFFFFFFFFFFFFFFFFFFFFFFFFFFF AND PUSH20 0xFFFFFFFFFFFFFFFFFFFFFFFFFFFFFFFFFFFFFFFF AND DUP2 MSTORE PUSH1 0x20 ADD SWAP1 DUP2 MSTORE PUSH1 0x20 ADD PUSH1 0x0 KECCAK256 PUSH1 0x0 DUP5 PUSH20 0xFFFFFFFFFFFFFFFFFFFFFFFFFFFFFFFFFFFFFFFF AND PUSH20 0xFFFFFFFFFFFFFFFFFFFFFFFFFFFFFFFFFFFFFFFF AND DUP2 MSTORE PUSH1 0x20 ADD SWAP1 DUP2 MSTORE PUSH1 0x20 ADD PUSH1 0x0 KECCAK256 PUSH1 0x0 PUSH2 0x100 EXP DUP2 SLOAD DUP2 PUSH1 0xFF MUL NOT AND SWAP1 DUP4 ISZERO ISZERO MUL OR SWAP1 SSTORE POP PUSH1 0x1 SWAP1 POP SWAP3 SWAP2 POP POP JUMP JUMPDEST PUSH1 0x5 DUP2 DUP2 SLOAD DUP2 LT PUSH2 0x770 JUMPI PUSH1 0x0 DUP1 REVERT JUMPDEST SWAP1 PUSH1 0x0 MSTORE PUSH1 0x20 PUSH1 0x0 KECCAK256 ADD PUSH1 0x0 SWAP2 POP SLOAD SWAP1 PUSH2 0x100 EXP SWAP1 DIV PUSH20 0xFFFFFFFFFFFFFFFFFFFFFFFFFFFFFFFFFFFFFFFF AND DUP2 JUMP JUMPDEST PUSH1 0x0 CALLER PUSH20 0xFFFFFFFFFFFFFFFFFFFFFFFFFFFFFFFFFFFFFFFF AND PUSH1 0x0 DUP1 SLOAD SWAP1 PUSH2 0x100 EXP SWAP1 DIV PUSH20 0xFFFFFFFFFFFFFFFFFFFFFFFFFFFFFFFFFFFFFFFF AND PUSH20 0xFFFFFFFFFFFFFFFFFFFFFFFFFFFFFFFFFFFFFFFF AND EQ PUSH2 0x82F JUMPI PUSH1 0x40 MLOAD PUSH32 0x8C379A000000000000000000000000000000000000000000000000000000000 DUP2 MSTORE PUSH1 0x4 ADD PUSH2 0x826 SWAP1 PUSH2 0x47E7 JUMP JUMPDEST PUSH1 0x40 MLOAD DUP1 SWAP2 SUB SWAP1 REVERT JUMPDEST PUSH1 0x0 DUP1 SLOAD SWAP1 PUSH2 0x100 EXP SWAP1 DIV PUSH20 0xFFFFFFFFFFFFFFFFFFFFFFFFFFFFFFFFFFFFFFFF AND PUSH20 0xFFFFFFFFFFFFFFFFFFFFFFFFFFFFFFFFFFFFFFFF AND DUP3 PUSH20 0xFFFFFFFFFFFFFFFFFFFFFFFFFFFFFFFFFFFFFFFF AND EQ ISZERO PUSH2 0x8BE JUMPI PUSH1 0x40 MLOAD PUSH32 0x8C379A000000000000000000000000000000000000000000000000000000000 DUP2 MSTORE PUSH1 0x4 ADD PUSH2 0x8B5 SWAP1 PUSH2 0x4853 JUMP JUMPDEST PUSH1 0x40 MLOAD DUP1 SWAP2 SUB SWAP1 REVERT JUMPDEST PUSH1 0x1 PUSH1 0x0 DUP4 PUSH20 0xFFFFFFFFFFFFFFFFFFFFFFFFFFFFFFFFFFFFFFFF AND PUSH20 0xFFFFFFFFFFFFFFFFFFFFFFFFFFFFFFFFFFFFFFFF AND DUP2 MSTORE PUSH1 0x20 ADD SWAP1 DUP2 MSTORE PUSH1 0x20 ADD PUSH1 0x0 KECCAK256 PUSH1 0x0 SWAP1 SLOAD SWAP1 PUSH2 0x100 EXP SWAP1 DIV PUSH1 0xFF AND PUSH2 0x94A JUMPI PUSH1 0x40 MLOAD PUSH32 0x8C379A000000000000000000000000000000000000000000000000000000000 DUP2 MSTORE PUSH1 0x4 ADD PUSH2 0x941 SWAP1 PUSH2 0x48BF JUMP JUMPDEST PUSH1 0x40 MLOAD DUP1 SWAP2 SUB SWAP1 REVERT JUMPDEST PUSH1 0x0 PUSH1 0x1 PUSH1 0x0 DUP5 PUSH20 0xFFFFFFFFFFFFFFFFFFFFFFFFFFFFFFFFFFFFFFFF AND PUSH20 0xFFFFFFFFFFFFFFFFFFFFFFFFFFFFFFFFFFFFFFFF AND DUP2 MSTORE PUSH1 0x20 ADD SWAP1 DUP2 MSTORE PUSH1 0x20 ADD PUSH1 0x0 KECCAK256 PUSH1 0x0 PUSH2 0x100 EXP DUP2 SLOAD DUP2 PUSH1 0xFF MUL NOT AND SWAP1 DUP4 ISZERO ISZERO MUL OR SWAP1 SSTORE POP DUP2 PUSH20 0xFFFFFFFFFFFFFFFFFFFFFFFFFFFFFFFFFFFFFFFF AND PUSH32 0xA3B62BC36326052D97EA62D63C3D60308ED4C3EA8AC079DD8499F1E9C4F80C0F PUSH1 0x40 MLOAD PUSH1 0x40 MLOAD DUP1 SWAP2 SUB SWAP1 LOG2 PUSH1 0x1 SWAP1 POP SWAP2 SWAP1 POP JUMP JUMPDEST PUSH1 0x60 DUP1 PUSH1 0x60 DUP1 PUSH1 0x60 PUSH1 0x8 PUSH1 0x0 DUP8 PUSH20 0xFFFFFFFFFFFFFFFFFFFFFFFFFFFFFFFFFFFFFFFF AND PUSH20 0xFFFFFFFFFFFFFFFFFFFFFFFFFFFFFFFFFFFFFFFF AND DUP2 MSTORE PUSH1 0x20 ADD SWAP1 DUP2 MSTORE PUSH1 0x20 ADD PUSH1 0x0 KECCAK256 PUSH1 0x0 CALLER PUSH20 0xFFFFFFFFFFFFFFFFFFFFFFFFFFFFFFFFFFFFFFFF AND PUSH20 0xFFFFFFFFFFFFFFFFFFFFFFFFFFFFFFFFFFFFFFFF AND DUP2 MSTORE PUSH1 0x20 ADD SWAP1 DUP2 MSTORE PUSH1 0x20 ADD PUSH1 0x0 KECCAK256 PUSH1 0x0 SWAP1 SLOAD SWAP1 PUSH2 0x100 EXP SWAP1 DIV PUSH1 0xFF AND PUSH2 0xABF JUMPI PUSH1 0x40 MLOAD PUSH32 0x8C379A000000000000000000000000000000000000000000000000000000000 DUP2 MSTORE PUSH1 0x4 ADD PUSH2 0xAB6 SWAP1 PUSH2 0x492B JUMP JUMPDEST PUSH1 0x40 MLOAD DUP1 SWAP2 SUB SWAP1 REVERT JUMPDEST PUSH1 0xA PUSH1 0x0 DUP8 PUSH20 0xFFFFFFFFFFFFFFFFFFFFFFFFFFFFFFFFFFFFFFFF AND PUSH20 0xFFFFFFFFFFFFFFFFFFFFFFFFFFFFFFFFFFFFFFFF AND DUP2 MSTORE PUSH1 0x20 ADD SWAP1 DUP2 MSTORE PUSH1 0x20 ADD PUSH1 0x0 KECCAK256 PUSH1 0x0 SWAP1 SLOAD SWAP1 PUSH2 0x100 EXP SWAP1 DIV PUSH1 0xFF AND PUSH2 0xB4B JUMPI PUSH1 0x40 MLOAD PUSH32 0x8C379A000000000000000000000000000000000000000000000000000000000 DUP2 MSTORE PUSH1 0x4 ADD PUSH2 0xB42 SWAP1 PUSH2 0x49BD JUMP JUMPDEST PUSH1 0x40 MLOAD DUP1 SWAP2 SUB SWAP1 REVERT JUMPDEST PUSH1 0x0 PUSH1 0x9 PUSH1 0x0 DUP9 PUSH20 0xFFFFFFFFFFFFFFFFFFFFFFFFFFFFFFFFFFFFFFFF AND PUSH20 0xFFFFFFFFFFFFFFFFFFFFFFFFFFFFFFFFFFFFFFFF AND DUP2 MSTORE PUSH1 0x20 ADD SWAP1 DUP2 MSTORE PUSH1 0x20 ADD PUSH1 0x0 KECCAK256 PUSH1 0x7 ADD DUP1 SLOAD SWAP1 POP GT PUSH2 0xBD3 JUMPI PUSH1 0x40 MLOAD PUSH32 0x8C379A000000000000000000000000000000000000000000000000000000000 DUP2 MSTORE PUSH1 0x4 ADD PUSH2 0xBCA SWAP1 PUSH2 0x4A29 JUMP JUMPDEST PUSH1 0x40 MLOAD DUP1 SWAP2 SUB SWAP1 REVERT JUMPDEST PUSH1 0x0 PUSH1 0x9 PUSH1 0x0 DUP9 PUSH20 0xFFFFFFFFFFFFFFFFFFFFFFFFFFFFFFFFFFFFFFFF AND PUSH20 0xFFFFFFFFFFFFFFFFFFFFFFFFFFFFFFFFFFFFFFFF AND DUP2 MSTORE PUSH1 0x20 ADD SWAP1 DUP2 MSTORE PUSH1 0x20 ADD PUSH1 0x0 KECCAK256 PUSH1 0x7 ADD DUP1 SLOAD SWAP1 POP PUSH8 0xFFFFFFFFFFFFFFFF DUP2 GT ISZERO PUSH2 0xC34 JUMPI PUSH2 0xC33 PUSH2 0x40B0 JUMP JUMPDEST JUMPDEST PUSH1 0x40 MLOAD SWAP1 DUP1 DUP3 MSTORE DUP1 PUSH1 0x20 MUL PUSH1 0x20 ADD DUP3 ADD PUSH1 0x40 MSTORE DUP1 ISZERO PUSH2 0xC67 JUMPI DUP2 PUSH1 0x20 ADD JUMPDEST PUSH1 0x60 DUP2 MSTORE PUSH1 0x20 ADD SWAP1 PUSH1 0x1 SWAP1 SUB SWAP1 DUP2 PUSH2 0xC52 JUMPI SWAP1 POP JUMPDEST POP SWAP1 POP PUSH1 0x0 PUSH1 0x9 PUSH1 0x0 DUP10 PUSH20 0xFFFFFFFFFFFFFFFFFFFFFFFFFFFFFFFFFFFFFFFF AND PUSH20 0xFFFFFFFFFFFFFFFFFFFFFFFFFFFFFFFFFFFFFFFF AND DUP2 MSTORE PUSH1 0x20 ADD SWAP1 DUP2 MSTORE PUSH1 0x20 ADD PUSH1 0x0 KECCAK256 PUSH1 0x7 ADD DUP1 SLOAD SWAP1 POP PUSH8 0xFFFFFFFFFFFFFFFF DUP2 GT ISZERO PUSH2 0xCCB JUMPI PUSH2 0xCCA PUSH2 0x40B0 JUMP JUMPDEST JUMPDEST PUSH1 0x40 MLOAD SWAP1 DUP1 DUP3 MSTORE DUP1 PUSH1 0x20 MUL PUSH1 0x20 ADD DUP3 ADD PUSH1 0x40 MSTORE DUP1 ISZERO PUSH2 0xCFE JUMPI DUP2 PUSH1 0x20 ADD JUMPDEST PUSH1 0x60 DUP2 MSTORE PUSH1 0x20 ADD SWAP1 PUSH1 0x1 SWAP1 SUB SWAP1 DUP2 PUSH2 0xCE9 JUMPI SWAP1 POP JUMPDEST POP SWAP1 POP PUSH1 0x0 PUSH1 0x9 PUSH1 0x0 DUP11 PUSH20 0xFFFFFFFFFFFFFFFFFFFFFFFFFFFFFFFFFFFFFFFF AND PUSH20 0xFFFFFFFFFFFFFFFFFFFFFFFFFFFFFFFFFFFFFFFF AND DUP2 MSTORE PUSH1 0x20 ADD SWAP1 DUP2 MSTORE PUSH1 0x20 ADD PUSH1 0x0 KECCAK256 PUSH1 0x7 ADD DUP1 SLOAD SWAP1 POP PUSH8 0xFFFFFFFFFFFFFFFF DUP2 GT ISZERO PUSH2 0xD62 JUMPI PUSH2 0xD61 PUSH2 0x40B0 JUMP JUMPDEST JUMPDEST PUSH1 0x40 MLOAD SWAP1 DUP1 DUP3 MSTORE DUP1 PUSH1 0x20 MUL PUSH1 0x20 ADD DUP3 ADD PUSH1 0x40 MSTORE DUP1 ISZERO PUSH2 0xD95 JUMPI DUP2 PUSH1 0x20 ADD JUMPDEST PUSH1 0x60 DUP2 MSTORE PUSH1 0x20 ADD SWAP1 PUSH1 0x1 SWAP1 SUB SWAP1 DUP2 PUSH2 0xD80 JUMPI SWAP1 POP JUMPDEST POP SWAP1 POP PUSH1 0x0 PUSH1 0x9 PUSH1 0x0 DUP12 PUSH20 0xFFFFFFFFFFFFFFFFFFFFFFFFFFFFFFFFFFFFFFFF AND PUSH20 0xFFFFFFFFFFFFFFFFFFFFFFFFFFFFFFFFFFFFFFFF AND DUP2 MSTORE PUSH1 0x20 ADD SWAP1 DUP2 MSTORE PUSH1 0x20 ADD PUSH1 0x0 KECCAK256 PUSH1 0x7 ADD DUP1 SLOAD SWAP1 POP PUSH8 0xFFFFFFFFFFFFFFFF DUP2 GT ISZERO PUSH2 0xDF9 JUMPI PUSH2 0xDF8 PUSH2 0x40B0 JUMP JUMPDEST JUMPDEST PUSH1 0x40 MLOAD SWAP1 DUP1 DUP3 MSTORE DUP1 PUSH1 0x20 MUL PUSH1 0x20 ADD DUP3 ADD PUSH1 0x40 MSTORE DUP1 ISZERO PUSH2 0xE2C JUMPI DUP2 PUSH1 0x20 ADD JUMPDEST PUSH1 0x60 DUP2 MSTORE PUSH1 0x20 ADD SWAP1 PUSH1 0x1 SWAP1 SUB SWAP1 DUP2 PUSH2 0xE17 JUMPI SWAP1 POP JUMPDEST POP SWAP1 POP PUSH1 0x0 PUSH1 0x9 PUSH1 0x0 DUP13 PUSH20 0xFFFFFFFFFFFFFFFFFFFFFFFFFFFFFFFFFFFFFFFF AND PUSH20 0xFFFFFFFFFFFFFFFFFFFFFFFFFFFFFFFFFFFFFFFF AND DUP2 MSTORE PUSH1 0x20 ADD SWAP1 DUP2 MSTORE PUSH1 0x20 ADD PUSH1 0x0 KECCAK256 PUSH1 0x7 ADD DUP1 SLOAD SWAP1 POP PUSH8 0xFFFFFFFFFFFFFFFF DUP2 GT ISZERO PUSH2 0xE90 JUMPI PUSH2 0xE8F PUSH2 0x40B0 JUMP JUMPDEST JUMPDEST PUSH1 0x40 MLOAD SWAP1 DUP1 DUP3 MSTORE DUP1 PUSH1 0x20 MUL PUSH1 0x20 ADD DUP3 ADD PUSH1 0x40 MSTORE DUP1 ISZERO PUSH2 0xEC3 JUMPI DUP2 PUSH1 0x20 ADD JUMPDEST PUSH1 0x60 DUP2 MSTORE PUSH1 0x20 ADD SWAP1 PUSH1 0x1 SWAP1 SUB SWAP1 DUP2 PUSH2 0xEAE JUMPI SWAP1 POP JUMPDEST POP SWAP1 POP PUSH1 0x0 JUMPDEST PUSH1 0x9 PUSH1 0x0 DUP14 PUSH20 0xFFFFFFFFFFFFFFFFFFFFFFFFFFFFFFFFFFFFFFFF AND PUSH20 0xFFFFFFFFFFFFFFFFFFFFFFFFFFFFFFFFFFFFFFFF AND DUP2 MSTORE PUSH1 0x20 ADD SWAP1 DUP2 MSTORE PUSH1 0x20 ADD PUSH1 0x0 KECCAK256 PUSH1 0x7 ADD DUP1 SLOAD SWAP1 POP DUP2 LT ISZERO PUSH2 0x1465 JUMPI PUSH1 0x9 PUSH1 0x0 DUP14 PUSH20 0xFFFFFFFFFFFFFFFFFFFFFFFFFFFFFFFFFFFFFFFF AND PUSH20 0xFFFFFFFFFFFFFFFFFFFFFFFFFFFFFFFFFFFFFFFF AND DUP2 MSTORE PUSH1 0x20 ADD SWAP1 DUP2 MSTORE PUSH1 0x20 ADD PUSH1 0x0 KECCAK256 PUSH1 0x7 ADD DUP2 DUP2 SLOAD DUP2 LT PUSH2 0xF6A JUMPI PUSH2 0xF69 PUSH2 0x4A49 JUMP JUMPDEST JUMPDEST SWAP1 PUSH1 0x0 MSTORE PUSH1 0x20 PUSH1 0x0 KECCAK256 SWAP1 PUSH1 0x5 MUL ADD PUSH1 0x0 ADD DUP1 SLOAD PUSH2 0xF86 SWAP1 PUSH2 0x4AA7 JUMP JUMPDEST DUP1 PUSH1 0x1F ADD PUSH1 0x20 DUP1 SWAP2 DIV MUL PUSH1 0x20 ADD PUSH1 0x40 MLOAD SWAP1 DUP2 ADD PUSH1 0x40 MSTORE DUP1 SWAP3 SWAP2 SWAP1 DUP2 DUP2 MSTORE PUSH1 0x20 ADD DUP3 DUP1 SLOAD PUSH2 0xFB2 SWAP1 PUSH2 0x4AA7 JUMP JUMPDEST DUP1 ISZERO PUSH2 0xFFF JUMPI DUP1 PUSH1 0x1F LT PUSH2 0xFD4 JUMPI PUSH2 0x100 DUP1 DUP4 SLOAD DIV MUL DUP4 MSTORE SWAP2 PUSH1 0x20 ADD SWAP2 PUSH2 0xFFF JUMP JUMPDEST DUP3 ADD SWAP2 SWAP1 PUSH1 0x0 MSTORE PUSH1 0x20 PUSH1 0x0 KECCAK256 SWAP1 JUMPDEST DUP2 SLOAD DUP2 MSTORE SWAP1 PUSH1 0x1 ADD SWAP1 PUSH1 0x20 ADD DUP1 DUP4 GT PUSH2 0xFE2 JUMPI DUP3 SWAP1 SUB PUSH1 0x1F AND DUP3 ADD SWAP2 JUMPDEST POP POP POP POP POP DUP7 DUP3 DUP2 MLOAD DUP2 LT PUSH2 0x1017 JUMPI PUSH2 0x1016 PUSH2 0x4A49 JUMP JUMPDEST JUMPDEST PUSH1 0x20 MUL PUSH1 0x20 ADD ADD DUP2 SWAP1 MSTORE POP PUSH1 0x9 PUSH1 0x0 DUP14 PUSH20 0xFFFFFFFFFFFFFFFFFFFFFFFFFFFFFFFFFFFFFFFF AND PUSH20 0xFFFFFFFFFFFFFFFFFFFFFFFFFFFFFFFFFFFFFFFF AND DUP2 MSTORE PUSH1 0x20 ADD SWAP1 DUP2 MSTORE PUSH1 0x20 ADD PUSH1 0x0 KECCAK256 PUSH1 0x7 ADD DUP2 DUP2 SLOAD DUP2 LT PUSH2 0x1076 JUMPI PUSH2 0x1075 PUSH2 0x4A49 JUMP JUMPDEST JUMPDEST SWAP1 PUSH1 0x0 MSTORE PUSH1 0x20 PUSH1 0x0 KECCAK256 SWAP1 PUSH1 0x5 MUL ADD PUSH1 0x1 ADD DUP1 SLOAD PUSH2 0x1092 SWAP1 PUSH2 0x4AA7 JUMP JUMPDEST DUP1 PUSH1 0x1F ADD PUSH1 0x20 DUP1 SWAP2 DIV MUL PUSH1 0x20 ADD PUSH1 0x40 MLOAD SWAP1 DUP2 ADD PUSH1 0x40 MSTORE DUP1 SWAP3 SWAP2 SWAP1 DUP2 DUP2 MSTORE PUSH1 0x20 ADD DUP3 DUP1 SLOAD PUSH2 0x10BE SWAP1 PUSH2 0x4AA7 JUMP JUMPDEST DUP1 ISZERO PUSH2 0x110B JUMPI DUP1 PUSH1 0x1F LT PUSH2 0x10E0 JUMPI PUSH2 0x100 DUP1 DUP4 SLOAD DIV MUL DUP4 MSTORE SWAP2 PUSH1 0x20 ADD SWAP2 PUSH2 0x110B JUMP JUMPDEST DUP3 ADD SWAP2 SWAP1 PUSH1 0x0 MSTORE PUSH1 0x20 PUSH1 0x0 KECCAK256 SWAP1 JUMPDEST DUP2 SLOAD DUP2 MSTORE SWAP1 PUSH1 0x1 ADD SWAP1 PUSH1 0x20 ADD DUP1 DUP4 GT PUSH2 0x10EE JUMPI DUP3 SWAP1 SUB PUSH1 0x1F AND DUP3 ADD SWAP2 JUMPDEST POP POP POP POP POP DUP6 DUP3 DUP2 MLOAD DUP2 LT PUSH2 0x1123 JUMPI PUSH2 0x1122 PUSH2 0x4A49 JUMP JUMPDEST JUMPDEST PUSH1 0x20 MUL PUSH1 0x20 ADD ADD DUP2 SWAP1 MSTORE POP PUSH1 0x9 PUSH1 0x0 DUP14 PUSH20 0xFFFFFFFFFFFFFFFFFFFFFFFFFFFFFFFFFFFFFFFF AND PUSH20 0xFFFFFFFFFFFFFFFFFFFFFFFFFFFFFFFFFFFFFFFF AND DUP2 MSTORE PUSH1 0x20 ADD SWAP1 DUP2 MSTORE PUSH1 0x20 ADD PUSH1 0x0 KECCAK256 PUSH1 0x7 ADD DUP2 DUP2 SLOAD DUP2 LT PUSH2 0x1182 JUMPI PUSH2 0x1181 PUSH2 0x4A49 JUMP JUMPDEST JUMPDEST SWAP1 PUSH1 0x0 MSTORE PUSH1 0x20 PUSH1 0x0 KECCAK256 SWAP1 PUSH1 0x5 MUL ADD PUSH1 0x2 ADD DUP1 SLOAD PUSH2 0x119E SWAP1 PUSH2 0x4AA7 JUMP JUMPDEST DUP1 PUSH1 0x1F ADD PUSH1 0x20 DUP1 SWAP2 DIV MUL PUSH1 0x20 ADD PUSH1 0x40 MLOAD SWAP1 DUP2 ADD PUSH1 0x40 MSTORE DUP1 SWAP3 SWAP2 SWAP1 DUP2 DUP2 MSTORE PUSH1 0x20 ADD DUP3 DUP1 SLOAD PUSH2 0x11CA SWAP1 PUSH2 0x4AA7 JUMP JUMPDEST DUP1 ISZERO PUSH2 0x1217 JUMPI DUP1 PUSH1 0x1F LT PUSH2 0x11EC JUMPI PUSH2 0x100 DUP1 DUP4 SLOAD DIV MUL DUP4 MSTORE SWAP2 PUSH1 0x20 ADD SWAP2 PUSH2 0x1217 JUMP JUMPDEST DUP3 ADD SWAP2 SWAP1 PUSH1 0x0 MSTORE PUSH1 0x20 PUSH1 0x0 KECCAK256 SWAP1 JUMPDEST DUP2 SLOAD DUP2 MSTORE SWAP1 PUSH1 0x1 ADD SWAP1 PUSH1 0x20 ADD DUP1 DUP4 GT PUSH2 0x11FA JUMPI DUP3 SWAP1 SUB PUSH1 0x1F AND DUP3 ADD SWAP2 JUMPDEST POP POP POP POP POP DUP5 DUP3 DUP2 MLOAD DUP2 LT PUSH2 0x122F JUMPI PUSH2 0x122E PUSH2 0x4A49 JUMP JUMPDEST JUMPDEST PUSH1 0x20 MUL PUSH1 0x20 ADD ADD DUP2 SWAP1 MSTORE POP PUSH1 0x9 PUSH1 0x0 DUP14 PUSH20 0xFFFFFFFFFFFFFFFFFFFFFFFFFFFFFFFFFFFFFFFF AND PUSH20 0xFFFFFFFFFFFFFFFFFFFFFFFFFFFFFFFFFFFFFFFF AND DUP2 MSTORE PUSH1 0x20 ADD SWAP1 DUP2 MSTORE PUSH1 0x20 ADD PUSH1 0x0 KECCAK256 PUSH1 0x7 ADD DUP2 DUP2 SLOAD DUP2 LT PUSH2 0x128E JUMPI PUSH2 0x128D PUSH2 0x4A49 JUMP JUMPDEST JUMPDEST SWAP1 PUSH1 0x0 MSTORE PUSH1 0x20 PUSH1 0x0 KECCAK256 SWAP1 PUSH1 0x5 MUL ADD PUSH1 0x3 ADD DUP1 SLOAD PUSH2 0x12AA SWAP1 PUSH2 0x4AA7 JUMP JUMPDEST DUP1 PUSH1 0x1F ADD PUSH1 0x20 DUP1 SWAP2 DIV MUL PUSH1 0x20 ADD PUSH1 0x40 MLOAD SWAP1 DUP2 ADD PUSH1 0x40 MSTORE DUP1 SWAP3 SWAP2 SWAP1 DUP2 DUP2 MSTORE PUSH1 0x20 ADD DUP3 DUP1 SLOAD PUSH2 0x12D6 SWAP1 PUSH2 0x4AA7 JUMP JUMPDEST DUP1 ISZERO PUSH2 0x1323 JUMPI DUP1 PUSH1 0x1F LT PUSH2 0x12F8 JUMPI PUSH2 0x100 DUP1 DUP4 SLOAD DIV MUL DUP4 MSTORE SWAP2 PUSH1 0x20 ADD SWAP2 PUSH2 0x1323 JUMP JUMPDEST DUP3 ADD SWAP2 SWAP1 PUSH1 0x0 MSTORE PUSH1 0x20 PUSH1 0x0 KECCAK256 SWAP1 JUMPDEST DUP2 SLOAD DUP2 MSTORE SWAP1 PUSH1 0x1 ADD SWAP1 PUSH1 0x20 ADD DUP1 DUP4 GT PUSH2 0x1306 JUMPI DUP3 SWAP1 SUB PUSH1 0x1F AND DUP3 ADD SWAP2 JUMPDEST POP POP POP POP POP DUP4 DUP3 DUP2 MLOAD DUP2 LT PUSH2 0x133B JUMPI PUSH2 0x133A PUSH2 0x4A49 JUMP JUMPDEST JUMPDEST PUSH1 0x20 MUL PUSH1 0x20 ADD ADD DUP2 SWAP1 MSTORE POP PUSH1 0x9 PUSH1 0x0 DUP14 PUSH20 0xFFFFFFFFFFFFFFFFFFFFFFFFFFFFFFFFFFFFFFFF AND PUSH20 0xFFFFFFFFFFFFFFFFFFFFFFFFFFFFFFFFFFFFFFFF AND DUP2 MSTORE PUSH1 0x20 ADD SWAP1 DUP2 MSTORE PUSH1 0x20 ADD PUSH1 0x0 KECCAK256 PUSH1 0x7 ADD DUP2 DUP2 SLOAD DUP2 LT PUSH2 0x139A JUMPI PUSH2 0x1399 PUSH2 0x4A49 JUMP JUMPDEST JUMPDEST SWAP1 PUSH1 0x0 MSTORE PUSH1 0x20 PUSH1 0x0 KECCAK256 SWAP1 PUSH1 0x5 MUL ADD PUSH1 0x4 ADD DUP1 SLOAD PUSH2 0x13B6 SWAP1 PUSH2 0x4AA7 JUMP JUMPDEST DUP1 PUSH1 0x1F ADD PUSH1 0x20 DUP1 SWAP2 DIV MUL PUSH1 0x20 ADD PUSH1 0x40 MLOAD SWAP1 DUP2 ADD PUSH1 0x40 MSTORE DUP1 SWAP3 SWAP2 SWAP1 DUP2 DUP2 MSTORE PUSH1 0x20 ADD DUP3 DUP1 SLOAD PUSH2 0x13E2 SWAP1 PUSH2 0x4AA7 JUMP JUMPDEST DUP1 ISZERO PUSH2 0x142F JUMPI DUP1 PUSH1 0x1F LT PUSH2 0x1404 JUMPI PUSH2 0x100 DUP1 DUP4 SLOAD DIV MUL DUP4 MSTORE SWAP2 PUSH1 0x20 ADD SWAP2 PUSH2 0x142F JUMP JUMPDEST DUP3 ADD SWAP2 SWAP1 PUSH1 0x0 MSTORE PUSH1 0x20 PUSH1 0x0 KECCAK256 SWAP1 JUMPDEST DUP2 SLOAD DUP2 MSTORE SWAP1 PUSH1 0x1 ADD SWAP1 PUSH1 0x20 ADD DUP1 DUP4 GT PUSH2 0x1412 JUMPI DUP3 SWAP1 SUB PUSH1 0x1F AND DUP3 ADD SWAP2 JUMPDEST POP POP POP POP POP DUP3 DUP3 DUP2 MLOAD DUP2 LT PUSH2 0x1447 JUMPI PUSH2 0x1446 PUSH2 0x4A49 JUMP JUMPDEST JUMPDEST PUSH1 0x20 MUL PUSH1 0x20 ADD ADD DUP2 SWAP1 MSTORE POP DUP1 DUP1 PUSH2 0x145D SWAP1 PUSH2 0x4B08 JUMP JUMPDEST SWAP2 POP POP PUSH2 0xEC9 JUMP JUMPDEST POP DUP5 DUP5 DUP5 DUP5 DUP5 SWAP10 POP SWAP10 POP SWAP10 POP SWAP10 POP SWAP10 POP POP POP POP POP POP SWAP2 SWAP4 SWAP6 SWAP1 SWAP3 SWAP5 POP JUMP JUMPDEST PUSH1 0x2 SLOAD DUP2 JUMP JUMPDEST PUSH1 0x6 SLOAD DUP2 JUMP JUMPDEST PUSH1 0x0 DUP1 SLOAD SWAP1 PUSH2 0x100 EXP SWAP1 DIV PUSH20 0xFFFFFFFFFFFFFFFFFFFFFFFFFFFFFFFFFFFFFFFF AND DUP2 JUMP JUMPDEST PUSH1 0x0 PUSH1 0x8 PUSH1 0x0 CALLER PUSH20 0xFFFFFFFFFFFFFFFFFFFFFFFFFFFFFFFFFFFFFFFF AND PUSH20 0xFFFFFFFFFFFFFFFFFFFFFFFFFFFFFFFFFFFFFFFF AND DUP2 MSTORE PUSH1 0x20 ADD SWAP1 DUP2 MSTORE PUSH1 0x20 ADD PUSH1 0x0 KECCAK256 PUSH1 0x0 DUP4 PUSH20 0xFFFFFFFFFFFFFFFFFFFFFFFFFFFFFFFFFFFFFFFF AND PUSH20 0xFFFFFFFFFFFFFFFFFFFFFFFFFFFFFFFFFFFFFFFF AND DUP2 MSTORE PUSH1 0x20 ADD SWAP1 DUP2 MSTORE PUSH1 0x20 ADD PUSH1 0x0 KECCAK256 PUSH1 0x0 SWAP1 SLOAD SWAP1 PUSH2 0x100 EXP SWAP1 DIV PUSH1 0xFF AND ISZERO PUSH2 0x157F JUMPI PUSH1 0x40 MLOAD PUSH32 0x8C379A000000000000000000000000000000000000000000000000000000000 DUP2 MSTORE PUSH1 0x4 ADD PUSH2 0x1576 SWAP1 PUSH2 0x4B9D JUMP JUMPDEST PUSH1 0x40 MLOAD DUP1 SWAP2 SUB SWAP1 REVERT JUMPDEST DUP2 PUSH20 0xFFFFFFFFFFFFFFFFFFFFFFFFFFFFFFFFFFFFFFFF AND CALLER PUSH20 0xFFFFFFFFFFFFFFFFFFFFFFFFFFFFFFFFFFFFFFFF AND EQ ISZERO PUSH2 0x15EE JUMPI PUSH1 0x40 MLOAD PUSH32 0x8C379A000000000000000000000000000000000000000000000000000000000 DUP2 MSTORE PUSH1 0x4 ADD PUSH2 0x15E5 SWAP1 PUSH2 0x4C09 JUMP JUMPDEST PUSH1 0x40 MLOAD DUP1 SWAP2 SUB SWAP1 REVERT JUMPDEST PUSH1 0x1 PUSH1 0x8 PUSH1 0x0 CALLER PUSH20 0xFFFFFFFFFFFFFFFFFFFFFFFFFFFFFFFFFFFFFFFF AND PUSH20 0xFFFFFFFFFFFFFFFFFFFFFFFFFFFFFFFFFFFFFFFF AND DUP2 MSTORE PUSH1 0x20 ADD SWAP1 DUP2 MSTORE PUSH1 0x20 ADD PUSH1 0x0 KECCAK256 PUSH1 0x0 DUP5 PUSH20 0xFFFFFFFFFFFFFFFFFFFFFFFFFFFFFFFFFFFFFFFF AND PUSH20 0xFFFFFFFFFFFFFFFFFFFFFFFFFFFFFFFFFFFFFFFF AND DUP2 MSTORE PUSH1 0x20 ADD SWAP1 DUP2 MSTORE PUSH1 0x20 ADD PUSH1 0x0 KECCAK256 PUSH1 0x0 PUSH2 0x100 EXP DUP2 SLOAD DUP2 PUSH1 0xFF MUL NOT AND SWAP1 DUP4 ISZERO ISZERO MUL OR SWAP1 SSTORE POP PUSH1 0x1 SWAP1 POP SWAP2 SWAP1 POP JUMP JUMPDEST PUSH1 0x0 PUSH1 0x60 DUP1 PUSH1 0x60 DUP1 PUSH1 0x0 DUP1 PUSH1 0x4 PUSH1 0x0 DUP10 PUSH20 0xFFFFFFFFFFFFFFFFFFFFFFFFFFFFFFFFFFFFFFFF AND PUSH20 0xFFFFFFFFFFFFFFFFFFFFFFFFFFFFFFFFFFFFFFFF AND DUP2 MSTORE PUSH1 0x20 ADD SWAP1 DUP2 MSTORE PUSH1 0x20 ADD PUSH1 0x0 KECCAK256 PUSH1 0x5 ADD PUSH1 0x14 SWAP1 SLOAD SWAP1 PUSH2 0x100 EXP SWAP1 DIV PUSH1 0xFF AND PUSH2 0x1726 JUMPI PUSH1 0x40 MLOAD PUSH32 0x8C379A000000000000000000000000000000000000000000000000000000000 DUP2 MSTORE PUSH1 0x4 ADD PUSH2 0x171D SWAP1 PUSH2 0x4C75 JUMP JUMPDEST PUSH1 0x40 MLOAD DUP1 SWAP2 SUB SWAP1 REVERT JUMPDEST PUSH1 0x0 PUSH1 0x4 PUSH1 0x0 DUP11 PUSH20 0xFFFFFFFFFFFFFFFFFFFFFFFFFFFFFFFFFFFFFFFF AND PUSH20 0xFFFFFFFFFFFFFFFFFFFFFFFFFFFFFFFFFFFFFFFF AND DUP2 MSTORE PUSH1 0x20 ADD SWAP1 DUP2 MSTORE PUSH1 0x20 ADD PUSH1 0x0 KECCAK256 PUSH1 0x40 MLOAD DUP1 PUSH1 0xE0 ADD PUSH1 0x40 MSTORE SWAP1 DUP2 PUSH1 0x0 DUP3 ADD SLOAD DUP2 MSTORE PUSH1 0x20 ADD PUSH1 0x1 DUP3 ADD DUP1 SLOAD PUSH2 0x178C SWAP1 PUSH2 0x4AA7 JUMP JUMPDEST DUP1 PUSH1 0x1F ADD PUSH1 0x20 DUP1 SWAP2 DIV MUL PUSH1 0x20 ADD PUSH1 0x40 MLOAD SWAP1 DUP2 ADD PUSH1 0x40 MSTORE DUP1 SWAP3 SWAP2 SWAP1 DUP2 DUP2 MSTORE PUSH1 0x20 ADD DUP3 DUP1 SLOAD PUSH2 0x17B8 SWAP1 PUSH2 0x4AA7 JUMP JUMPDEST DUP1 ISZERO PUSH2 0x1805 JUMPI DUP1 PUSH1 0x1F LT PUSH2 0x17DA JUMPI PUSH2 0x100 DUP1 DUP4 SLOAD DIV MUL DUP4 MSTORE SWAP2 PUSH1 0x20 ADD SWAP2 PUSH2 0x1805 JUMP JUMPDEST DUP3 ADD SWAP2 SWAP1 PUSH1 0x0 MSTORE PUSH1 0x20 PUSH1 0x0 KECCAK256 SWAP1 JUMPDEST DUP2 SLOAD DUP2 MSTORE SWAP1 PUSH1 0x1 ADD SWAP1 PUSH1 0x20 ADD DUP1 DUP4 GT PUSH2 0x17E8 JUMPI DUP3 SWAP1 SUB PUSH1 0x1F AND DUP3 ADD SWAP2 JUMPDEST POP POP POP POP POP DUP2 MSTORE PUSH1 0x20 ADD PUSH1 0x2 DUP3 ADD DUP1 SLOAD PUSH2 0x181E SWAP1 PUSH2 0x4AA7 JUMP JUMPDEST DUP1 PUSH1 0x1F ADD PUSH1 0x20 DUP1 SWAP2 DIV MUL PUSH1 0x20 ADD PUSH1 0x40 MLOAD SWAP1 DUP2 ADD PUSH1 0x40 MSTORE DUP1 SWAP3 SWAP2 SWAP1 DUP2 DUP2 MSTORE PUSH1 0x20 ADD DUP3 DUP1 SLOAD PUSH2 0x184A SWAP1 PUSH2 0x4AA7 JUMP JUMPDEST DUP1 ISZERO PUSH2 0x1897 JUMPI DUP1 PUSH1 0x1F LT PUSH2 0x186C JUMPI PUSH2 0x100 DUP1 DUP4 SLOAD DIV MUL DUP4 MSTORE SWAP2 PUSH1 0x20 ADD SWAP2 PUSH2 0x1897 JUMP JUMPDEST DUP3 ADD SWAP2 SWAP1 PUSH1 0x0 MSTORE PUSH1 0x20 PUSH1 0x0 KECCAK256 SWAP1 JUMPDEST DUP2 SLOAD DUP2 MSTORE SWAP1 PUSH1 0x1 ADD SWAP1 PUSH1 0x20 ADD DUP1 DUP4 GT PUSH2 0x187A JUMPI DUP3 SWAP1 SUB PUSH1 0x1F AND DUP3 ADD SWAP2 JUMPDEST POP POP POP POP POP DUP2 MSTORE PUSH1 0x20 ADD PUSH1 0x3 DUP3 ADD DUP1 SLOAD PUSH2 0x18B0 SWAP1 PUSH2 0x4AA7 JUMP JUMPDEST DUP1 PUSH1 0x1F ADD PUSH1 0x20 DUP1 SWAP2 DIV MUL PUSH1 0x20 ADD PUSH1 0x40 MLOAD SWAP1 DUP2 ADD PUSH1 0x40 MSTORE DUP1 SWAP3 SWAP2 SWAP1 DUP2 DUP2 MSTORE PUSH1 0x20 ADD DUP3 DUP1 SLOAD PUSH2 0x18DC SWAP1 PUSH2 0x4AA7 JUMP JUMPDEST DUP1 ISZERO PUSH2 0x1929 JUMPI DUP1 PUSH1 0x1F LT PUSH2 0x18FE JUMPI PUSH2 0x100 DUP1 DUP4 SLOAD DIV MUL DUP4 MSTORE SWAP2 PUSH1 0x20 ADD SWAP2 PUSH2 0x1929 JUMP JUMPDEST DUP3 ADD SWAP2 SWAP1 PUSH1 0x0 MSTORE PUSH1 0x20 PUSH1 0x0 KECCAK256 SWAP1 JUMPDEST DUP2 SLOAD DUP2 MSTORE SWAP1 PUSH1 0x1 ADD SWAP1 PUSH1 0x20 ADD DUP1 DUP4 GT PUSH2 0x190C JUMPI DUP3 SWAP1 SUB PUSH1 0x1F AND DUP3 ADD SWAP2 JUMPDEST POP POP POP POP POP DUP2 MSTORE PUSH1 0x20 ADD PUSH1 0x4 DUP3 ADD DUP1 SLOAD PUSH2 0x1942 SWAP1 PUSH2 0x4AA7 JUMP JUMPDEST DUP1 PUSH1 0x1F ADD PUSH1 0x20 DUP1 SWAP2 DIV MUL PUSH1 0x20 ADD PUSH1 0x40 MLOAD SWAP1 DUP2 ADD PUSH1 0x40 MSTORE DUP1 SWAP3 SWAP2 SWAP1 DUP2 DUP2 MSTORE PUSH1 0x20 ADD DUP3 DUP1 SLOAD PUSH2 0x196E SWAP1 PUSH2 0x4AA7 JUMP JUMPDEST DUP1 ISZERO PUSH2 0x19BB JUMPI DUP1 PUSH1 0x1F LT PUSH2 0x1990 JUMPI PUSH2 0x100 DUP1 DUP4 SLOAD DIV MUL DUP4 MSTORE SWAP2 PUSH1 0x20 ADD SWAP2 PUSH2 0x19BB JUMP JUMPDEST DUP3 ADD SWAP2 SWAP1 PUSH1 0x0 MSTORE PUSH1 0x20 PUSH1 0x0 KECCAK256 SWAP1 JUMPDEST DUP2 SLOAD DUP2 MSTORE SWAP1 PUSH1 0x1 ADD SWAP1 PUSH1 0x20 ADD DUP1 DUP4 GT PUSH2 0x199E JUMPI DUP3 SWAP1 SUB PUSH1 0x1F AND DUP3 ADD SWAP2 JUMPDEST POP POP POP POP POP DUP2 MSTORE PUSH1 0x20 ADD PUSH1 0x5 DUP3 ADD PUSH1 0x0 SWAP1 SLOAD SWAP1 PUSH2 0x100 EXP SWAP1 DIV PUSH20 0xFFFFFFFFFFFFFFFFFFFFFFFFFFFFFFFFFFFFFFFF AND PUSH20 0xFFFFFFFFFFFFFFFFFFFFFFFFFFFFFFFFFFFFFFFF AND PUSH20 0xFFFFFFFFFFFFFFFFFFFFFFFFFFFFFFFFFFFFFFFF AND DUP2 MSTORE PUSH1 0x20 ADD PUSH1 0x5 DUP3 ADD PUSH1 0x14 SWAP1 SLOAD SWAP1 PUSH2 0x100 EXP SWAP1 DIV PUSH1 0xFF AND ISZERO ISZERO ISZERO ISZERO DUP2 MSTORE POP POP SWAP1 POP DUP1 PUSH1 0x0 ADD MLOAD DUP2 PUSH1 0x20 ADD MLOAD DUP3 PUSH1 0x40 ADD MLOAD DUP4 PUSH1 0x60 ADD MLOAD DUP5 PUSH1 0x80 ADD MLOAD DUP6 PUSH1 0xA0 ADD MLOAD DUP7 PUSH1 0xC0 ADD MLOAD SWAP8 POP SWAP8 POP SWAP8 POP SWAP8 POP SWAP8 POP SWAP8 POP SWAP8 POP POP SWAP2 SWAP4 SWAP6 SWAP8 SWAP1 SWAP3 SWAP5 SWAP7 POP JUMP JUMPDEST PUSH1 0x0 CALLER PUSH20 0xFFFFFFFFFFFFFFFFFFFFFFFFFFFFFFFFFFFFFFFF AND PUSH1 0x0 DUP1 SLOAD SWAP1 PUSH2 0x100 EXP SWAP1 DIV PUSH20 0xFFFFFFFFFFFFFFFFFFFFFFFFFFFFFFFFFFFFFFFF AND PUSH20 0xFFFFFFFFFFFFFFFFFFFFFFFFFFFFFFFFFFFFFFFF AND EQ PUSH2 0x1B04 JUMPI PUSH1 0x40 MLOAD PUSH32 0x8C379A000000000000000000000000000000000000000000000000000000000 DUP2 MSTORE PUSH1 0x4 ADD PUSH2 0x1AFB SWAP1 PUSH2 0x47E7 JUMP JUMPDEST PUSH1 0x40 MLOAD DUP1 SWAP2 SUB SWAP1 REVERT JUMPDEST PUSH1 0x1 PUSH1 0x0 DUP4 PUSH20 0xFFFFFFFFFFFFFFFFFFFFFFFFFFFFFFFFFFFFFFFF AND PUSH20 0xFFFFFFFFFFFFFFFFFFFFFFFFFFFFFFFFFFFFFFFF AND DUP2 MSTORE PUSH1 0x20 ADD SWAP1 DUP2 MSTORE PUSH1 0x20 ADD PUSH1 0x0 KECCAK256 PUSH1 0x0 SWAP1 SLOAD SWAP1 PUSH2 0x100 EXP SWAP1 DIV PUSH1 0xFF AND ISZERO PUSH2 0x1B91 JUMPI PUSH1 0x40 MLOAD PUSH32 0x8C379A000000000000000000000000000000000000000000000000000000000 DUP2 MSTORE PUSH1 0x4 ADD PUSH2 0x1B88 SWAP1 PUSH2 0x4CE1 JUMP JUMPDEST PUSH1 0x40 MLOAD DUP1 SWAP2 SUB SWAP1 REVERT JUMPDEST PUSH1 0x1 DUP1 PUSH1 0x0 DUP5 PUSH20 0xFFFFFFFFFFFFFFFFFFFFFFFFFFFFFFFFFFFFFFFF AND PUSH20 0xFFFFFFFFFFFFFFFFFFFFFFFFFFFFFFFFFFFFFFFF AND DUP2 MSTORE PUSH1 0x20 ADD SWAP1 DUP2 MSTORE PUSH1 0x20 ADD PUSH1 0x0 KECCAK256 PUSH1 0x0 PUSH2 0x100 EXP DUP2 SLOAD DUP2 PUSH1 0xFF MUL NOT AND SWAP1 DUP4 ISZERO ISZERO MUL OR SWAP1 SSTORE POP DUP2 PUSH20 0xFFFFFFFFFFFFFFFFFFFFFFFFFFFFFFFFFFFFFFFF AND PUSH32 0x44D6D25963F097AD14F29F06854A01F575648A1EF82F30E562CCD3889717E339 PUSH1 0x40 MLOAD PUSH1 0x40 MLOAD DUP1 SWAP2 SUB SWAP1 LOG2 PUSH1 0x1 SWAP1 POP SWAP2 SWAP1 POP JUMP JUMPDEST PUSH1 0x0 PUSH1 0x60 DUP1 PUSH1 0x60 DUP1 PUSH1 0x0 DUP1 PUSH1 0x0 JUMPDEST PUSH1 0x5 DUP1 SLOAD SWAP1 POP DUP2 LT ISZERO PUSH2 0x1CEF JUMPI DUP9 PUSH1 0x4 PUSH1 0x0 PUSH1 0x5 DUP5 DUP2 SLOAD DUP2 LT PUSH2 0x1C68 JUMPI PUSH2 0x1C67 PUSH2 0x4A49 JUMP JUMPDEST JUMPDEST SWAP1 PUSH1 0x0 MSTORE PUSH1 0x20 PUSH1 0x0 KECCAK256 ADD PUSH1 0x0 SWAP1 SLOAD SWAP1 PUSH2 0x100 EXP SWAP1 DIV PUSH20 0xFFFFFFFFFFFFFFFFFFFFFFFFFFFFFFFFFFFFFFFF AND PUSH20 0xFFFFFFFFFFFFFFFFFFFFFFFFFFFFFFFFFFFFFFFF AND PUSH20 0xFFFFFFFFFFFFFFFFFFFFFFFFFFFFFFFFFFFFFFFF AND DUP2 MSTORE PUSH1 0x20 ADD SWAP1 DUP2 MSTORE PUSH1 0x20 ADD PUSH1 0x0 KECCAK256 PUSH1 0x0 ADD SLOAD EQ ISZERO PUSH2 0x1CDC JUMPI PUSH2 0x1CEF JUMP JUMPDEST DUP1 DUP1 PUSH2 0x1CE7 SWAP1 PUSH2 0x4B08 JUMP JUMPDEST SWAP2 POP POP PUSH2 0x1C42 JUMP JUMPDEST DUP9 PUSH1 0x4 PUSH1 0x0 PUSH1 0x5 DUP5 DUP2 SLOAD DUP2 LT PUSH2 0x1D08 JUMPI PUSH2 0x1D07 PUSH2 0x4A49 JUMP JUMPDEST JUMPDEST SWAP1 PUSH1 0x0 MSTORE PUSH1 0x20 PUSH1 0x0 KECCAK256 ADD PUSH1 0x0 SWAP1 SLOAD SWAP1 PUSH2 0x100 EXP SWAP1 DIV PUSH20 0xFFFFFFFFFFFFFFFFFFFFFFFFFFFFFFFFFFFFFFFF AND PUSH20 0xFFFFFFFFFFFFFFFFFFFFFFFFFFFFFFFFFFFFFFFF AND PUSH20 0xFFFFFFFFFFFFFFFFFFFFFFFFFFFFFFFFFFFFFFFF AND DUP2 MSTORE PUSH1 0x20 ADD SWAP1 DUP2 MSTORE PUSH1 0x20 ADD PUSH1 0x0 KECCAK256 PUSH1 0x0 ADD SLOAD EQ PUSH2 0x1DB1 JUMPI PUSH1 0x40 MLOAD PUSH32 0x8C379A000000000000000000000000000000000000000000000000000000000 DUP2 MSTORE PUSH1 0x4 ADD PUSH2 0x1DA8 SWAP1 PUSH2 0x4D4D JUMP JUMPDEST PUSH1 0x40 MLOAD DUP1 SWAP2 SUB SWAP1 REVERT JUMPDEST PUSH1 0x0 PUSH1 0x4 PUSH1 0x0 PUSH1 0x5 DUP5 DUP2 SLOAD DUP2 LT PUSH2 0x1DCB JUMPI PUSH2 0x1DCA PUSH2 0x4A49 JUMP JUMPDEST JUMPDEST SWAP1 PUSH1 0x0 MSTORE PUSH1 0x20 PUSH1 0x0 KECCAK256 ADD PUSH1 0x0 SWAP1 SLOAD SWAP1 PUSH2 0x100 EXP SWAP1 DIV PUSH20 0xFFFFFFFFFFFFFFFFFFFFFFFFFFFFFFFFFFFFFFFF AND PUSH20 0xFFFFFFFFFFFFFFFFFFFFFFFFFFFFFFFFFFFFFFFF AND PUSH20 0xFFFFFFFFFFFFFFFFFFFFFFFFFFFFFFFFFFFFFFFF AND DUP2 MSTORE PUSH1 0x20 ADD SWAP1 DUP2 MSTORE PUSH1 0x20 ADD PUSH1 0x0 KECCAK256 PUSH1 0x40 MLOAD DUP1 PUSH1 0xE0 ADD PUSH1 0x40 MSTORE SWAP1 DUP2 PUSH1 0x0 DUP3 ADD SLOAD DUP2 MSTORE PUSH1 0x20 ADD PUSH1 0x1 DUP3 ADD DUP1 SLOAD PUSH2 0x1E55 SWAP1 PUSH2 0x4AA7 JUMP JUMPDEST DUP1 PUSH1 0x1F ADD PUSH1 0x20 DUP1 SWAP2 DIV MUL PUSH1 0x20 ADD PUSH1 0x40 MLOAD SWAP1 DUP2 ADD PUSH1 0x40 MSTORE DUP1 SWAP3 SWAP2 SWAP1 DUP2 DUP2 MSTORE PUSH1 0x20 ADD DUP3 DUP1 SLOAD PUSH2 0x1E81 SWAP1 PUSH2 0x4AA7 JUMP JUMPDEST DUP1 ISZERO PUSH2 0x1ECE JUMPI DUP1 PUSH1 0x1F LT PUSH2 0x1EA3 JUMPI PUSH2 0x100 DUP1 DUP4 SLOAD DIV MUL DUP4 MSTORE SWAP2 PUSH1 0x20 ADD SWAP2 PUSH2 0x1ECE JUMP JUMPDEST DUP3 ADD SWAP2 SWAP1 PUSH1 0x0 MSTORE PUSH1 0x20 PUSH1 0x0 KECCAK256 SWAP1 JUMPDEST DUP2 SLOAD DUP2 MSTORE SWAP1 PUSH1 0x1 ADD SWAP1 PUSH1 0x20 ADD DUP1 DUP4 GT PUSH2 0x1EB1 JUMPI DUP3 SWAP1 SUB PUSH1 0x1F AND DUP3 ADD SWAP2 JUMPDEST POP POP POP POP POP DUP2 MSTORE PUSH1 0x20 ADD PUSH1 0x2 DUP3 ADD DUP1 SLOAD PUSH2 0x1EE7 SWAP1 PUSH2 0x4AA7 JUMP JUMPDEST DUP1 PUSH1 0x1F ADD PUSH1 0x20 DUP1 SWAP2 DIV MUL PUSH1 0x20 ADD PUSH1 0x40 MLOAD SWAP1 DUP2 ADD PUSH1 0x40 MSTORE DUP1 SWAP3 SWAP2 SWAP1 DUP2 DUP2 MSTORE PUSH1 0x20 ADD DUP3 DUP1 SLOAD PUSH2 0x1F13 SWAP1 PUSH2 0x4AA7 JUMP JUMPDEST DUP1 ISZERO PUSH2 0x1F60 JUMPI DUP1 PUSH1 0x1F LT PUSH2 0x1F35 JUMPI PUSH2 0x100 DUP1 DUP4 SLOAD DIV MUL DUP4 MSTORE SWAP2 PUSH1 0x20 ADD SWAP2 PUSH2 0x1F60 JUMP JUMPDEST DUP3 ADD SWAP2 SWAP1 PUSH1 0x0 MSTORE PUSH1 0x20 PUSH1 0x0 KECCAK256 SWAP1 JUMPDEST DUP2 SLOAD DUP2 MSTORE SWAP1 PUSH1 0x1 ADD SWAP1 PUSH1 0x20 ADD DUP1 DUP4 GT PUSH2 0x1F43 JUMPI DUP3 SWAP1 SUB PUSH1 0x1F AND DUP3 ADD SWAP2 JUMPDEST POP POP POP POP POP DUP2 MSTORE PUSH1 0x20 ADD PUSH1 0x3 DUP3 ADD DUP1 SLOAD PUSH2 0x1F79 SWAP1 PUSH2 0x4AA7 JUMP JUMPDEST DUP1 PUSH1 0x1F ADD PUSH1 0x20 DUP1 SWAP2 DIV MUL PUSH1 0x20 ADD PUSH1 0x40 MLOAD SWAP1 DUP2 ADD PUSH1 0x40 MSTORE DUP1 SWAP3 SWAP2 SWAP1 DUP2 DUP2 MSTORE PUSH1 0x20 ADD DUP3 DUP1 SLOAD PUSH2 0x1FA5 SWAP1 PUSH2 0x4AA7 JUMP JUMPDEST DUP1 ISZERO PUSH2 0x1FF2 JUMPI DUP1 PUSH1 0x1F LT PUSH2 0x1FC7 JUMPI PUSH2 0x100 DUP1 DUP4 SLOAD DIV MUL DUP4 MSTORE SWAP2 PUSH1 0x20 ADD SWAP2 PUSH2 0x1FF2 JUMP JUMPDEST DUP3 ADD SWAP2 SWAP1 PUSH1 0x0 MSTORE PUSH1 0x20 PUSH1 0x0 KECCAK256 SWAP1 JUMPDEST DUP2 SLOAD DUP2 MSTORE SWAP1 PUSH1 0x1 ADD SWAP1 PUSH1 0x20 ADD DUP1 DUP4 GT PUSH2 0x1FD5 JUMPI DUP3 SWAP1 SUB PUSH1 0x1F AND DUP3 ADD SWAP2 JUMPDEST POP POP POP POP POP DUP2 MSTORE PUSH1 0x20 ADD PUSH1 0x4 DUP3 ADD DUP1 SLOAD PUSH2 0x200B SWAP1 PUSH2 0x4AA7 JUMP JUMPDEST DUP1 PUSH1 0x1F ADD PUSH1 0x20 DUP1 SWAP2 DIV MUL PUSH1 0x20 ADD PUSH1 0x40 MLOAD SWAP1 DUP2 ADD PUSH1 0x40 MSTORE DUP1 SWAP3 SWAP2 SWAP1 DUP2 DUP2 MSTORE PUSH1 0x20 ADD DUP3 DUP1 SLOAD PUSH2 0x2037 SWAP1 PUSH2 0x4AA7 JUMP JUMPDEST DUP1 ISZERO PUSH2 0x2084 JUMPI DUP1 PUSH1 0x1F LT PUSH2 0x2059 JUMPI PUSH2 0x100 DUP1 DUP4 SLOAD DIV MUL DUP4 MSTORE SWAP2 PUSH1 0x20 ADD SWAP2 PUSH2 0x2084 JUMP JUMPDEST DUP3 ADD SWAP2 SWAP1 PUSH1 0x0 MSTORE PUSH1 0x20 PUSH1 0x0 KECCAK256 SWAP1 JUMPDEST DUP2 SLOAD DUP2 MSTORE SWAP1 PUSH1 0x1 ADD SWAP1 PUSH1 0x20 ADD DUP1 DUP4 GT PUSH2 0x2067 JUMPI DUP3 SWAP1 SUB PUSH1 0x1F AND DUP3 ADD SWAP2 JUMPDEST POP POP POP POP POP DUP2 MSTORE PUSH1 0x20 ADD PUSH1 0x5 DUP3 ADD PUSH1 0x0 SWAP1 SLOAD SWAP1 PUSH2 0x100 EXP SWAP1 DIV PUSH20 0xFFFFFFFFFFFFFFFFFFFFFFFFFFFFFFFFFFFFFFFF AND PUSH20 0xFFFFFFFFFFFFFFFFFFFFFFFFFFFFFFFFFFFFFFFF AND PUSH20 0xFFFFFFFFFFFFFFFFFFFFFFFFFFFFFFFFFFFFFFFF AND DUP2 MSTORE PUSH1 0x20 ADD PUSH1 0x5 DUP3 ADD PUSH1 0x14 SWAP1 SLOAD SWAP1 PUSH2 0x100 EXP SWAP1 DIV PUSH1 0xFF AND ISZERO ISZERO ISZERO ISZERO DUP2 MSTORE POP POP SWAP1 POP DUP1 PUSH1 0x0 ADD MLOAD DUP2 PUSH1 0x20 ADD MLOAD DUP3 PUSH1 0x40 ADD MLOAD DUP4 PUSH1 0x60 ADD MLOAD DUP5 PUSH1 0x80 ADD MLOAD DUP6 PUSH1 0xA0 ADD MLOAD DUP7 PUSH1 0xC0 ADD MLOAD SWAP9 POP SWAP9 POP SWAP9 POP SWAP9 POP SWAP9 POP SWAP9 POP SWAP9 POP POP POP SWAP2 SWAP4 SWAP6 SWAP8 SWAP1 SWAP3 SWAP5 SWAP7 POP JUMP JUMPDEST PUSH1 0xA PUSH1 0x0 CALLER PUSH20 0xFFFFFFFFFFFFFFFFFFFFFFFFFFFFFFFFFFFFFFFF AND PUSH20 0xFFFFFFFFFFFFFFFFFFFFFFFFFFFFFFFFFFFFFFFF AND DUP2 MSTORE PUSH1 0x20 ADD SWAP1 DUP2 MSTORE PUSH1 0x20 ADD PUSH1 0x0 KECCAK256 PUSH1 0x0 SWAP1 SLOAD SWAP1 PUSH2 0x100 EXP SWAP1 DIV PUSH1 0xFF AND ISZERO PUSH2 0x21CB JUMPI PUSH1 0x40 MLOAD PUSH32 0x8C379A000000000000000000000000000000000000000000000000000000000 DUP2 MSTORE PUSH1 0x4 ADD PUSH2 0x21C2 SWAP1 PUSH2 0x4DB9 JUMP JUMPDEST PUSH1 0x40 MLOAD DUP1 SWAP2 SUB SWAP1 REVERT JUMPDEST PUSH1 0x7 CALLER SWAP1 DUP1 PUSH1 0x1 DUP2 SLOAD ADD DUP1 DUP3 SSTORE DUP1 SWAP2 POP POP PUSH1 0x1 SWAP1 SUB SWAP1 PUSH1 0x0 MSTORE PUSH1 0x20 PUSH1 0x0 KECCAK256 ADD PUSH1 0x0 SWAP1 SWAP2 SWAP1 SWAP2 SWAP1 SWAP2 PUSH2 0x100 EXP DUP2 SLOAD DUP2 PUSH20 0xFFFFFFFFFFFFFFFFFFFFFFFFFFFFFFFFFFFFFFFF MUL NOT AND SWAP1 DUP4 PUSH20 0xFFFFFFFFFFFFFFFFFFFFFFFFFFFFFFFFFFFFFFFF AND MUL OR SWAP1 SSTORE POP PUSH1 0x1 PUSH1 0x6 SLOAD PUSH2 0x223D SWAP2 SWAP1 PUSH2 0x4DD9 JUMP JUMPDEST PUSH1 0x6 DUP2 SWAP1 SSTORE POP PUSH1 0x1 PUSH1 0xA PUSH1 0x0 CALLER PUSH20 0xFFFFFFFFFFFFFFFFFFFFFFFFFFFFFFFFFFFFFFFF AND PUSH20 0xFFFFFFFFFFFFFFFFFFFFFFFFFFFFFFFFFFFFFFFF AND DUP2 MSTORE PUSH1 0x20 ADD SWAP1 DUP2 MSTORE PUSH1 0x20 ADD PUSH1 0x0 KECCAK256 PUSH1 0x0 PUSH2 0x100 EXP DUP2 SLOAD DUP2 PUSH1 0xFF MUL NOT AND SWAP1 DUP4 ISZERO ISZERO MUL OR SWAP1 SSTORE POP PUSH1 0x1 PUSH1 0x8 PUSH1 0x0 CALLER PUSH20 0xFFFFFFFFFFFFFFFFFFFFFFFFFFFFFFFFFFFFFFFF AND PUSH20 0xFFFFFFFFFFFFFFFFFFFFFFFFFFFFFFFFFFFFFFFF AND DUP2 MSTORE PUSH1 0x20 ADD SWAP1 DUP2 MSTORE PUSH1 0x20 ADD PUSH1 0x0 KECCAK256 PUSH1 0x0 CALLER PUSH20 0xFFFFFFFFFFFFFFFFFFFFFFFFFFFFFFFFFFFFFFFF AND PUSH20 0xFFFFFFFFFFFFFFFFFFFFFFFFFFFFFFFFFFFFFFFF AND DUP2 MSTORE PUSH1 0x20 ADD SWAP1 DUP2 MSTORE PUSH1 0x20 ADD PUSH1 0x0 KECCAK256 PUSH1 0x0 PUSH2 0x100 EXP DUP2 SLOAD DUP2 PUSH1 0xFF MUL NOT AND SWAP1 DUP4 ISZERO ISZERO MUL OR SWAP1 SSTORE POP PUSH1 0x6 SLOAD PUSH1 0x9 PUSH1 0x0 CALLER PUSH20 0xFFFFFFFFFFFFFFFFFFFFFFFFFFFFFFFFFFFFFFFF AND PUSH20 0xFFFFFFFFFFFFFFFFFFFFFFFFFFFFFFFFFFFFFFFF AND DUP2 MSTORE PUSH1 0x20 ADD SWAP1 DUP2 MSTORE PUSH1 0x20 ADD PUSH1 0x0 KECCAK256 PUSH1 0x0 ADD DUP2 SWAP1 SSTORE POP DUP6 PUSH1 0x9 PUSH1 0x0 CALLER PUSH20 0xFFFFFFFFFFFFFFFFFFFFFFFFFFFFFFFFFFFFFFFF AND PUSH20 0xFFFFFFFFFFFFFFFFFFFFFFFFFFFFFFFFFFFFFFFF AND DUP2 MSTORE PUSH1 0x20 ADD SWAP1 DUP2 MSTORE PUSH1 0x20 ADD PUSH1 0x0 KECCAK256 PUSH1 0x1 ADD SWAP1 DUP1 MLOAD SWAP1 PUSH1 0x20 ADD SWAP1 PUSH2 0x23CF SWAP3 SWAP2 SWAP1 PUSH2 0x3B91 JUMP JUMPDEST POP DUP5 PUSH1 0x9 PUSH1 0x0 CALLER PUSH20 0xFFFFFFFFFFFFFFFFFFFFFFFFFFFFFFFFFFFFFFFF AND PUSH20 0xFFFFFFFFFFFFFFFFFFFFFFFFFFFFFFFFFFFFFFFF AND DUP2 MSTORE PUSH1 0x20 ADD SWAP1 DUP2 MSTORE PUSH1 0x20 ADD PUSH1 0x0 KECCAK256 PUSH1 0x2 ADD SWAP1 DUP1 MLOAD SWAP1 PUSH1 0x20 ADD SWAP1 PUSH2 0x2426 SWAP3 SWAP2 SWAP1 PUSH2 0x3B91 JUMP JUMPDEST POP DUP4 PUSH1 0x9 PUSH1 0x0 CALLER PUSH20 0xFFFFFFFFFFFFFFFFFFFFFFFFFFFFFFFFFFFFFFFF AND PUSH20 0xFFFFFFFFFFFFFFFFFFFFFFFFFFFFFFFFFFFFFFFF AND DUP2 MSTORE PUSH1 0x20 ADD SWAP1 DUP2 MSTORE PUSH1 0x20 ADD PUSH1 0x0 KECCAK256 PUSH1 0x3 ADD SWAP1 DUP1 MLOAD SWAP1 PUSH1 0x20 ADD SWAP1 PUSH2 0x247D SWAP3 SWAP2 SWAP1 PUSH2 0x3B91 JUMP JUMPDEST POP DUP3 PUSH1 0x9 PUSH1 0x0 CALLER PUSH20 0xFFFFFFFFFFFFFFFFFFFFFFFFFFFFFFFFFFFFFFFF AND PUSH20 0xFFFFFFFFFFFFFFFFFFFFFFFFFFFFFFFFFFFFFFFF AND DUP2 MSTORE PUSH1 0x20 ADD SWAP1 DUP2 MSTORE PUSH1 0x20 ADD PUSH1 0x0 KECCAK256 PUSH1 0x4 ADD SWAP1 DUP1 MLOAD SWAP1 PUSH1 0x20 ADD SWAP1 PUSH2 0x24D4 SWAP3 SWAP2 SWAP1 PUSH2 0x3B91 JUMP JUMPDEST POP DUP2 PUSH1 0x9 PUSH1 0x0 CALLER PUSH20 0xFFFFFFFFFFFFFFFFFFFFFFFFFFFFFFFFFFFFFFFF AND PUSH20 0xFFFFFFFFFFFFFFFFFFFFFFFFFFFFFFFFFFFFFFFF AND DUP2 MSTORE PUSH1 0x20 ADD SWAP1 DUP2 MSTORE PUSH1 0x20 ADD PUSH1 0x0 KECCAK256 PUSH1 0x5 ADD SWAP1 DUP1 MLOAD SWAP1 PUSH1 0x20 ADD SWAP1 PUSH2 0x252B SWAP3 SWAP2 SWAP1 PUSH2 0x3B91 JUMP JUMPDEST POP DUP1 PUSH1 0x9 PUSH1 0x0 CALLER PUSH20 0xFFFFFFFFFFFFFFFFFFFFFFFFFFFFFFFFFFFFFFFF AND PUSH20 0xFFFFFFFFFFFFFFFFFFFFFFFFFFFFFFFFFFFFFFFF AND DUP2 MSTORE PUSH1 0x20 ADD SWAP1 DUP2 MSTORE PUSH1 0x20 ADD PUSH1 0x0 KECCAK256 PUSH1 0x6 ADD SWAP1 DUP1 MLOAD SWAP1 PUSH1 0x20 ADD SWAP1 PUSH2 0x2582 SWAP3 SWAP2 SWAP1 PUSH2 0x3B91 JUMP JUMPDEST POP CALLER PUSH1 0x9 PUSH1 0x0 CALLER PUSH20 0xFFFFFFFFFFFFFFFFFFFFFFFFFFFFFFFFFFFFFFFF AND PUSH20 0xFFFFFFFFFFFFFFFFFFFFFFFFFFFFFFFFFFFFFFFF AND DUP2 MSTORE PUSH1 0x20 ADD SWAP1 DUP2 MSTORE PUSH1 0x20 ADD PUSH1 0x0 KECCAK256 PUSH1 0x8 ADD PUSH1 0x0 PUSH2 0x100 EXP DUP2 SLOAD DUP2 PUSH20 0xFFFFFFFFFFFFFFFFFFFFFFFFFFFFFFFFFFFFFFFF MUL NOT AND SWAP1 DUP4 PUSH20 0xFFFFFFFFFFFFFFFFFFFFFFFFFFFFFFFFFFFFFFFF AND MUL OR SWAP1 SSTORE POP POP POP POP POP POP POP JUMP JUMPDEST PUSH1 0x0 PUSH1 0x1 ISZERO ISZERO PUSH1 0x1 PUSH1 0x0 CALLER PUSH20 0xFFFFFFFFFFFFFFFFFFFFFFFFFFFFFFFFFFFFFFFF AND PUSH20 0xFFFFFFFFFFFFFFFFFFFFFFFFFFFFFFFFFFFFFFFF AND DUP2 MSTORE PUSH1 0x20 ADD SWAP1 DUP2 MSTORE PUSH1 0x20 ADD PUSH1 0x0 KECCAK256 PUSH1 0x0 SWAP1 SLOAD SWAP1 PUSH2 0x100 EXP SWAP1 DIV PUSH1 0xFF AND ISZERO ISZERO EQ PUSH2 0x26A1 JUMPI PUSH1 0x40 MLOAD PUSH32 0x8C379A000000000000000000000000000000000000000000000000000000000 DUP2 MSTORE PUSH1 0x4 ADD PUSH2 0x2698 SWAP1 PUSH2 0x4EA1 JUMP JUMPDEST PUSH1 0x40 MLOAD DUP1 SWAP2 SUB SWAP1 REVERT JUMPDEST PUSH1 0x3 PUSH1 0x0 DUP4 PUSH20 0xFFFFFFFFFFFFFFFFFFFFFFFFFFFFFFFFFFFFFFFF AND PUSH20 0xFFFFFFFFFFFFFFFFFFFFFFFFFFFFFFFFFFFFFFFF AND DUP2 MSTORE PUSH1 0x20 ADD SWAP1 DUP2 MSTORE PUSH1 0x20 ADD PUSH1 0x0 KECCAK256 PUSH1 0x0 SWAP1 SLOAD SWAP1 PUSH2 0x100 EXP SWAP1 DIV PUSH1 0xFF AND ISZERO PUSH2 0x272E JUMPI PUSH1 0x40 MLOAD PUSH32 0x8C379A000000000000000000000000000000000000000000000000000000000 DUP2 MSTORE PUSH1 0x4 ADD PUSH2 0x2725 SWAP1 PUSH2 0x4F0D JUMP JUMPDEST PUSH1 0x40 MLOAD DUP1 SWAP2 SUB SWAP1 REVERT JUMPDEST PUSH1 0x5 DUP3 SWAP1 DUP1 PUSH1 0x1 DUP2 SLOAD ADD DUP1 DUP3 SSTORE DUP1 SWAP2 POP POP PUSH1 0x1 SWAP1 SUB SWAP1 PUSH1 0x0 MSTORE PUSH1 0x20 PUSH1 0x0 KECCAK256 ADD PUSH1 0x0 SWAP1 SWAP2 SWAP1 SWAP2 SWAP1 SWAP2 PUSH2 0x100 EXP DUP2 SLOAD DUP2 PUSH20 0xFFFFFFFFFFFFFFFFFFFFFFFFFFFFFFFFFFFFFFFF MUL NOT AND SWAP1 DUP4 PUSH20 0xFFFFFFFFFFFFFFFFFFFFFFFFFFFFFFFFFFFFFFFF AND MUL OR SWAP1 SSTORE POP PUSH1 0x1 PUSH1 0x2 SLOAD PUSH2 0x27A0 SWAP2 SWAP1 PUSH2 0x4DD9 JUMP JUMPDEST PUSH1 0x2 DUP2 SWAP1 SSTORE POP PUSH1 0x1 PUSH1 0x3 PUSH1 0x0 DUP5 PUSH20 0xFFFFFFFFFFFFFFFFFFFFFFFFFFFFFFFFFFFFFFFF AND PUSH20 0xFFFFFFFFFFFFFFFFFFFFFFFFFFFFFFFFFFFFFFFF AND DUP2 MSTORE PUSH1 0x20 ADD SWAP1 DUP2 MSTORE PUSH1 0x20 ADD PUSH1 0x0 KECCAK256 PUSH1 0x0 PUSH2 0x100 EXP DUP2 SLOAD DUP2 PUSH1 0xFF MUL NOT AND SWAP1 DUP4 ISZERO ISZERO MUL OR SWAP1 SSTORE POP PUSH1 0x40 MLOAD DUP1 PUSH1 0xE0 ADD PUSH1 0x40 MSTORE DUP1 PUSH1 0x2 SLOAD DUP2 MSTORE PUSH1 0x20 ADD DUP8 DUP2 MSTORE PUSH1 0x20 ADD DUP7 DUP2 MSTORE PUSH1 0x20 ADD DUP6 DUP2 MSTORE PUSH1 0x20 ADD DUP5 DUP2 MSTORE PUSH1 0x20 ADD DUP4 PUSH20 0xFFFFFFFFFFFFFFFFFFFFFFFFFFFFFFFFFFFFFFFF AND DUP2 MSTORE PUSH1 0x20 ADD PUSH1 0x1 ISZERO ISZERO DUP2 MSTORE POP PUSH1 0x4 PUSH1 0x0 DUP5 PUSH20 0xFFFFFFFFFFFFFFFFFFFFFFFFFFFFFFFFFFFFFFFF AND PUSH20 0xFFFFFFFFFFFFFFFFFFFFFFFFFFFFFFFFFFFFFFFF AND DUP2 MSTORE PUSH1 0x20 ADD SWAP1 DUP2 MSTORE PUSH1 0x20 ADD PUSH1 0x0 KECCAK256 PUSH1 0x0 DUP3 ADD MLOAD DUP2 PUSH1 0x0 ADD SSTORE PUSH1 0x20 DUP3 ADD MLOAD DUP2 PUSH1 0x1 ADD SWAP1 DUP1 MLOAD SWAP1 PUSH1 0x20 ADD SWAP1 PUSH2 0x28B1 SWAP3 SWAP2 SWAP1 PUSH2 0x3B91 JUMP JUMPDEST POP PUSH1 0x40 DUP3 ADD MLOAD DUP2 PUSH1 0x2 ADD SWAP1 DUP1 MLOAD SWAP1 PUSH1 0x20 ADD SWAP1 PUSH2 0x28CE SWAP3 SWAP2 SWAP1 PUSH2 0x3B91 JUMP JUMPDEST POP PUSH1 0x60 DUP3 ADD MLOAD DUP2 PUSH1 0x3 ADD SWAP1 DUP1 MLOAD SWAP1 PUSH1 0x20 ADD SWAP1 PUSH2 0x28EB SWAP3 SWAP2 SWAP1 PUSH2 0x3B91 JUMP JUMPDEST POP PUSH1 0x80 DUP3 ADD MLOAD DUP2 PUSH1 0x4 ADD SWAP1 DUP1 MLOAD SWAP1 PUSH1 0x20 ADD SWAP1 PUSH2 0x2908 SWAP3 SWAP2 SWAP1 PUSH2 0x3B91 JUMP JUMPDEST POP PUSH1 0xA0 DUP3 ADD MLOAD DUP2 PUSH1 0x5 ADD PUSH1 0x0 PUSH2 0x100 EXP DUP2 SLOAD DUP2 PUSH20 0xFFFFFFFFFFFFFFFFFFFFFFFFFFFFFFFFFFFFFFFF MUL NOT AND SWAP1 DUP4 PUSH20 0xFFFFFFFFFFFFFFFFFFFFFFFFFFFFFFFFFFFFFFFF AND MUL OR SWAP1 SSTORE POP PUSH1 0xC0 DUP3 ADD MLOAD DUP2 PUSH1 0x5 ADD PUSH1 0x14 PUSH2 0x100 EXP DUP2 SLOAD DUP2 PUSH1 0xFF MUL NOT AND SWAP1 DUP4 ISZERO ISZERO MUL OR SWAP1 SSTORE POP SWAP1 POP POP PUSH1 0x1 SWAP1 POP SWAP6 SWAP5 POP POP POP POP POP JUMP JUMPDEST PUSH1 0x0 CALLER PUSH20 0xFFFFFFFFFFFFFFFFFFFFFFFFFFFFFFFFFFFFFFFF AND PUSH1 0x0 DUP1 SLOAD SWAP1 PUSH2 0x100 EXP SWAP1 DIV PUSH20 0xFFFFFFFFFFFFFFFFFFFFFFFFFFFFFFFFFFFFFFFF AND PUSH20 0xFFFFFFFFFFFFFFFFFFFFFFFFFFFFFFFFFFFFFFFF AND EQ PUSH2 0x2A10 JUMPI PUSH1 0x40 MLOAD PUSH32 0x8C379A000000000000000000000000000000000000000000000000000000000 DUP2 MSTORE PUSH1 0x4 ADD PUSH2 0x2A07 SWAP1 PUSH2 0x47E7 JUMP JUMPDEST PUSH1 0x40 MLOAD DUP1 SWAP2 SUB SWAP1 REVERT JUMPDEST DUP2 PUSH20 0xFFFFFFFFFFFFFFFFFFFFFFFFFFFFFFFFFFFFFFFF AND CALLER PUSH20 0xFFFFFFFFFFFFFFFFFFFFFFFFFFFFFFFFFFFFFFFF AND EQ ISZERO PUSH2 0x2A7F JUMPI PUSH1 0x40 MLOAD PUSH32 0x8C379A000000000000000000000000000000000000000000000000000000000 DUP2 MSTORE PUSH1 0x4 ADD PUSH2 0x2A76 SWAP1 PUSH2 0x4F79 JUMP JUMPDEST PUSH1 0x40 MLOAD DUP1 SWAP2 SUB SWAP1 REVERT JUMPDEST DUP2 PUSH1 0x0 DUP1 PUSH2 0x100 EXP DUP2 SLOAD DUP2 PUSH20 0xFFFFFFFFFFFFFFFFFFFFFFFFFFFFFFFFFFFFFFFF MUL NOT AND SWAP1 DUP4 PUSH20 0xFFFFFFFFFFFFFFFFFFFFFFFFFFFFFFFFFFFFFFFF AND MUL OR SWAP1 SSTORE POP DUP2 PUSH20 0xFFFFFFFFFFFFFFFFFFFFFFFFFFFFFFFFFFFFFFFF AND CALLER PUSH20 0xFFFFFFFFFFFFFFFFFFFFFFFFFFFFFFFFFFFFFFFF AND PUSH32 0x605C2DBF762E5F7D60A546D42E7205DCB1B011EBC62A61736A57C9089D3A4350 PUSH1 0x40 MLOAD PUSH1 0x40 MLOAD DUP1 SWAP2 SUB SWAP1 LOG3 PUSH1 0x1 SWAP1 POP SWAP2 SWAP1 POP JUMP JUMPDEST PUSH1 0x0 PUSH1 0x8 PUSH1 0x0 DUP5 PUSH20 0xFFFFFFFFFFFFFFFFFFFFFFFFFFFFFFFFFFFFFFFF AND PUSH20 0xFFFFFFFFFFFFFFFFFFFFFFFFFFFFFFFFFFFFFFFF AND DUP2 MSTORE PUSH1 0x20 ADD SWAP1 DUP2 MSTORE PUSH1 0x20 ADD PUSH1 0x0 KECCAK256 PUSH1 0x0 DUP4 PUSH20 0xFFFFFFFFFFFFFFFFFFFFFFFFFFFFFFFFFFFFFFFF AND PUSH20 0xFFFFFFFFFFFFFFFFFFFFFFFFFFFFFFFFFFFFFFFF AND DUP2 MSTORE PUSH1 0x20 ADD SWAP1 DUP2 MSTORE PUSH1 0x20 ADD PUSH1 0x0 KECCAK256 PUSH1 0x0 SWAP1 SLOAD SWAP1 PUSH2 0x100 EXP SWAP1 DIV PUSH1 0xFF AND ISZERO PUSH2 0x2BEE JUMPI PUSH1 0x40 MLOAD PUSH32 0x8C379A000000000000000000000000000000000000000000000000000000000 DUP2 MSTORE PUSH1 0x4 ADD PUSH2 0x2BE5 SWAP1 PUSH2 0x4FE5 JUMP JUMPDEST PUSH1 0x40 MLOAD DUP1 SWAP2 SUB SWAP1 REVERT JUMPDEST DUP2 PUSH20 0xFFFFFFFFFFFFFFFFFFFFFFFFFFFFFFFFFFFFFFFF AND DUP4 PUSH20 0xFFFFFFFFFFFFFFFFFFFFFFFFFFFFFFFFFFFFFFFF AND EQ ISZERO PUSH2 0x2C5D JUMPI PUSH1 0x40 MLOAD PUSH32 0x8C379A000000000000000000000000000000000000000000000000000000000 DUP2 MSTORE PUSH1 0x4 ADD PUSH2 0x2C54 SWAP1 PUSH2 0x5051 JUMP JUMPDEST PUSH1 0x40 MLOAD DUP1 SWAP2 SUB SWAP1 REVERT JUMPDEST PUSH1 0x8 PUSH1 0x0 DUP5 PUSH20 0xFFFFFFFFFFFFFFFFFFFFFFFFFFFFFFFFFFFFFFFF AND PUSH20 0xFFFFFFFFFFFFFFFFFFFFFFFFFFFFFFFFFFFFFFFF AND DUP2 MSTORE PUSH1 0x20 ADD SWAP1 DUP2 MSTORE PUSH1 0x20 ADD PUSH1 0x0 KECCAK256 PUSH1 0x0 CALLER PUSH20 0xFFFFFFFFFFFFFFFFFFFFFFFFFFFFFFFFFFFFFFFF AND PUSH20 0xFFFFFFFFFFFFFFFFFFFFFFFFFFFFFFFFFFFFFFFF AND DUP2 MSTORE PUSH1 0x20 ADD SWAP1 DUP2 MSTORE PUSH1 0x20 ADD PUSH1 0x0 KECCAK256 PUSH1 0x0 SWAP1 SLOAD SWAP1 PUSH2 0x100 EXP SWAP1 DIV PUSH1 0xFF AND PUSH2 0x2D26 JUMPI PUSH1 0x40 MLOAD PUSH32 0x8C379A000000000000000000000000000000000000000000000000000000000 DUP2 MSTORE PUSH1 0x4 ADD PUSH2 0x2D1D SWAP1 PUSH2 0x46E9 JUMP JUMPDEST PUSH1 0x40 MLOAD DUP1 SWAP2 SUB SWAP1 REVERT JUMPDEST PUSH1 0xA PUSH1 0x0 DUP5 PUSH20 0xFFFFFFFFFFFFFFFFFFFFFFFFFFFFFFFFFFFFFFFF AND PUSH20 0xFFFFFFFFFFFFFFFFFFFFFFFFFFFFFFFFFFFFFFFF AND DUP2 MSTORE PUSH1 0x20 ADD SWAP1 DUP2 MSTORE PUSH1 0x20 ADD PUSH1 0x0 KECCAK256 PUSH1 0x0 SWAP1 SLOAD SWAP1 PUSH2 0x100 EXP SWAP1 DIV PUSH1 0xFF AND PUSH2 0x2DB2 JUMPI PUSH1 0x40 MLOAD PUSH32 0x8C379A000000000000000000000000000000000000000000000000000000000 DUP2 MSTORE PUSH1 0x4 ADD PUSH2 0x2DA9 SWAP1 PUSH2 0x4755 JUMP JUMPDEST PUSH1 0x40 MLOAD DUP1 SWAP2 SUB SWAP1 REVERT JUMPDEST PUSH1 0x1 PUSH1 0x8 PUSH1 0x0 DUP6 PUSH20 0xFFFFFFFFFFFFFFFFFFFFFFFFFFFFFFFFFFFFFFFF AND PUSH20 0xFFFFFFFFFFFFFFFFFFFFFFFFFFFFFFFFFFFFFFFF AND DUP2 MSTORE PUSH1 0x20 ADD SWAP1 DUP2 MSTORE PUSH1 0x20 ADD PUSH1 0x0 KECCAK256 PUSH1 0x0 DUP5 PUSH20 0xFFFFFFFFFFFFFFFFFFFFFFFFFFFFFFFFFFFFFFFF AND PUSH20 0xFFFFFFFFFFFFFFFFFFFFFFFFFFFFFFFFFFFFFFFF AND DUP2 MSTORE PUSH1 0x20 ADD SWAP1 DUP2 MSTORE PUSH1 0x20 ADD PUSH1 0x0 KECCAK256 PUSH1 0x0 PUSH2 0x100 EXP DUP2 SLOAD DUP2 PUSH1 0xFF MUL NOT AND SWAP1 DUP4 ISZERO ISZERO MUL OR SWAP1 SSTORE POP PUSH1 0x1 SWAP1 POP SWAP3 SWAP2 POP POP JUMP JUMPDEST PUSH1 0xA PUSH1 0x0 DUP8 PUSH20 0xFFFFFFFFFFFFFFFFFFFFFFFFFFFFFFFFFFFFFFFF AND PUSH20 0xFFFFFFFFFFFFFFFFFFFFFFFFFFFFFFFFFFFFFFFF AND DUP2 MSTORE PUSH1 0x20 ADD SWAP1 DUP2 MSTORE PUSH1 0x20 ADD PUSH1 0x0 KECCAK256 PUSH1 0x0 SWAP1 SLOAD SWAP1 PUSH2 0x100 EXP SWAP1 DIV PUSH1 0xFF AND PUSH2 0x2EDD JUMPI PUSH1 0x40 MLOAD PUSH32 0x8C379A000000000000000000000000000000000000000000000000000000000 DUP2 MSTORE PUSH1 0x4 ADD PUSH2 0x2ED4 SWAP1 PUSH2 0x50BD JUMP JUMPDEST PUSH1 0x40 MLOAD DUP1 SWAP2 SUB SWAP1 REVERT JUMPDEST PUSH1 0x8 PUSH1 0x0 DUP8 PUSH20 0xFFFFFFFFFFFFFFFFFFFFFFFFFFFFFFFFFFFFFFFF AND PUSH20 0xFFFFFFFFFFFFFFFFFFFFFFFFFFFFFFFFFFFFFFFF AND DUP2 MSTORE PUSH1 0x20 ADD SWAP1 DUP2 MSTORE PUSH1 0x20 ADD PUSH1 0x0 KECCAK256 PUSH1 0x0 CALLER PUSH20 0xFFFFFFFFFFFFFFFFFFFFFFFFFFFFFFFFFFFFFFFF AND PUSH20 0xFFFFFFFFFFFFFFFFFFFFFFFFFFFFFFFFFFFFFFFF AND DUP2 MSTORE PUSH1 0x20 ADD SWAP1 DUP2 MSTORE PUSH1 0x20 ADD PUSH1 0x0 KECCAK256 PUSH1 0x0 SWAP1 SLOAD SWAP1 PUSH2 0x100 EXP SWAP1 DIV PUSH1 0xFF AND PUSH2 0x2FA6 JUMPI PUSH1 0x40 MLOAD PUSH32 0x8C379A000000000000000000000000000000000000000000000000000000000 DUP2 MSTORE PUSH1 0x4 ADD PUSH2 0x2F9D SWAP1 PUSH2 0x5129 JUMP JUMPDEST PUSH1 0x40 MLOAD DUP1 SWAP2 SUB SWAP1 REVERT JUMPDEST PUSH1 0x9 PUSH1 0x0 DUP8 PUSH20 0xFFFFFFFFFFFFFFFFFFFFFFFFFFFFFFFFFFFFFFFF AND PUSH20 0xFFFFFFFFFFFFFFFFFFFFFFFFFFFFFFFFFFFFFFFF AND DUP2 MSTORE PUSH1 0x20 ADD SWAP1 DUP2 MSTORE PUSH1 0x20 ADD PUSH1 0x0 KECCAK256 PUSH1 0x7 ADD PUSH1 0x40 MLOAD DUP1 PUSH1 0xA0 ADD PUSH1 0x40 MSTORE DUP1 DUP8 DUP2 MSTORE PUSH1 0x20 ADD DUP7 DUP2 MSTORE PUSH1 0x20 ADD DUP6 DUP2 MSTORE PUSH1 0x20 ADD DUP5 DUP2 MSTORE PUSH1 0x20 ADD DUP4 DUP2 MSTORE POP SWAP1 DUP1 PUSH1 0x1 DUP2 SLOAD ADD DUP1 DUP3 SSTORE DUP1 SWAP2 POP POP PUSH1 0x1 SWAP1 SUB SWAP1 PUSH1 0x0 MSTORE PUSH1 0x20 PUSH1 0x0 KECCAK256 SWAP1 PUSH1 0x5 MUL ADD PUSH1 0x0 SWAP1 SWAP2 SWAP1 SWAP2 SWAP1 SWAP2 POP PUSH1 0x0 DUP3 ADD MLOAD DUP2 PUSH1 0x0 ADD SWAP1 DUP1 MLOAD SWAP1 PUSH1 0x20 ADD SWAP1 PUSH2 0x3054 SWAP3 SWAP2 SWAP1 PUSH2 0x3B91 JUMP JUMPDEST POP PUSH1 0x20 DUP3 ADD MLOAD DUP2 PUSH1 0x1 ADD SWAP1 DUP1 MLOAD SWAP1 PUSH1 0x20 ADD SWAP1 PUSH2 0x3071 SWAP3 SWAP2 SWAP1 PUSH2 0x3B91 JUMP JUMPDEST POP PUSH1 0x40 DUP3 ADD MLOAD DUP2 PUSH1 0x2 ADD SWAP1 DUP1 MLOAD SWAP1 PUSH1 0x20 ADD SWAP1 PUSH2 0x308E SWAP3 SWAP2 SWAP1 PUSH2 0x3B91 JUMP JUMPDEST POP PUSH1 0x60 DUP3 ADD MLOAD DUP2 PUSH1 0x3 ADD SWAP1 DUP1 MLOAD SWAP1 PUSH1 0x20 ADD SWAP1 PUSH2 0x30AB SWAP3 SWAP2 SWAP1 PUSH2 0x3B91 JUMP JUMPDEST POP PUSH1 0x80 DUP3 ADD MLOAD DUP2 PUSH1 0x4 ADD SWAP1 DUP1 MLOAD SWAP1 PUSH1 0x20 ADD SWAP1 PUSH2 0x30C8 SWAP3 SWAP2 SWAP1 PUSH2 0x3B91 JUMP JUMPDEST POP POP POP POP POP POP POP POP POP JUMP JUMPDEST PUSH1 0x60 DUP1 PUSH1 0x60 DUP1 PUSH1 0x60 DUP1 PUSH1 0x8 PUSH1 0x0 DUP9 PUSH20 0xFFFFFFFFFFFFFFFFFFFFFFFFFFFFFFFFFFFFFFFF AND PUSH20 0xFFFFFFFFFFFFFFFFFFFFFFFFFFFFFFFFFFFFFFFF AND DUP2 MSTORE PUSH1 0x20 ADD SWAP1 DUP2 MSTORE PUSH1 0x20 ADD PUSH1 0x0 KECCAK256 PUSH1 0x0 CALLER PUSH20 0xFFFFFFFFFFFFFFFFFFFFFFFFFFFFFFFFFFFFFFFF AND PUSH20 0xFFFFFFFFFFFFFFFFFFFFFFFFFFFFFFFFFFFFFFFF AND DUP2 MSTORE PUSH1 0x20 ADD SWAP1 DUP2 MSTORE PUSH1 0x20 ADD PUSH1 0x0 KECCAK256 PUSH1 0x0 SWAP1 SLOAD SWAP1 PUSH2 0x100 EXP SWAP1 DIV PUSH1 0xFF AND PUSH2 0x31A5 JUMPI PUSH1 0x40 MLOAD PUSH32 0x8C379A000000000000000000000000000000000000000000000000000000000 DUP2 MSTORE PUSH1 0x4 ADD PUSH2 0x319C SWAP1 PUSH2 0x492B JUMP JUMPDEST PUSH1 0x40 MLOAD DUP1 SWAP2 SUB SWAP1 REVERT JUMPDEST PUSH1 0xA PUSH1 0x0 DUP9 PUSH20 0xFFFFFFFFFFFFFFFFFFFFFFFFFFFFFFFFFFFFFFFF AND PUSH20 0xFFFFFFFFFFFFFFFFFFFFFFFFFFFFFFFFFFFFFFFF AND DUP2 MSTORE PUSH1 0x20 ADD SWAP1 DUP2 MSTORE PUSH1 0x20 ADD PUSH1 0x0 KECCAK256 PUSH1 0x0 SWAP1 SLOAD SWAP1 PUSH2 0x100 EXP SWAP1 DIV PUSH1 0xFF AND PUSH2 0x3231 JUMPI PUSH1 0x40 MLOAD PUSH32 0x8C379A000000000000000000000000000000000000000000000000000000000 DUP2 MSTORE PUSH1 0x4 ADD PUSH2 0x3228 SWAP1 PUSH2 0x51BB JUMP JUMPDEST PUSH1 0x40 MLOAD DUP1 SWAP2 SUB SWAP1 REVERT JUMPDEST PUSH1 0x0 PUSH1 0x9 PUSH1 0x0 DUP10 PUSH20 0xFFFFFFFFFFFFFFFFFFFFFFFFFFFFFFFFFFFFFFFF AND PUSH20 0xFFFFFFFFFFFFFFFFFFFFFFFFFFFFFFFFFFFFFFFF AND DUP2 MSTORE PUSH1 0x20 ADD SWAP1 DUP2 MSTORE PUSH1 0x20 ADD PUSH1 0x0 KECCAK256 PUSH1 0x40 MLOAD DUP1 PUSH2 0x120 ADD PUSH1 0x40 MSTORE SWAP1 DUP2 PUSH1 0x0 DUP3 ADD SLOAD DUP2 MSTORE PUSH1 0x20 ADD PUSH1 0x1 DUP3 ADD DUP1 SLOAD PUSH2 0x3298 SWAP1 PUSH2 0x4AA7 JUMP JUMPDEST DUP1 PUSH1 0x1F ADD PUSH1 0x20 DUP1 SWAP2 DIV MUL PUSH1 0x20 ADD PUSH1 0x40 MLOAD SWAP1 DUP2 ADD PUSH1 0x40 MSTORE DUP1 SWAP3 SWAP2 SWAP1 DUP2 DUP2 MSTORE PUSH1 0x20 ADD DUP3 DUP1 SLOAD PUSH2 0x32C4 SWAP1 PUSH2 0x4AA7 JUMP JUMPDEST DUP1 ISZERO PUSH2 0x3311 JUMPI DUP1 PUSH1 0x1F LT PUSH2 0x32E6 JUMPI PUSH2 0x100 DUP1 DUP4 SLOAD DIV MUL DUP4 MSTORE SWAP2 PUSH1 0x20 ADD SWAP2 PUSH2 0x3311 JUMP JUMPDEST DUP3 ADD SWAP2 SWAP1 PUSH1 0x0 MSTORE PUSH1 0x20 PUSH1 0x0 KECCAK256 SWAP1 JUMPDEST DUP2 SLOAD DUP2 MSTORE SWAP1 PUSH1 0x1 ADD SWAP1 PUSH1 0x20 ADD DUP1 DUP4 GT PUSH2 0x32F4 JUMPI DUP3 SWAP1 SUB PUSH1 0x1F AND DUP3 ADD SWAP2 JUMPDEST POP POP POP POP POP DUP2 MSTORE PUSH1 0x20 ADD PUSH1 0x2 DUP3 ADD DUP1 SLOAD PUSH2 0x332A SWAP1 PUSH2 0x4AA7 JUMP JUMPDEST DUP1 PUSH1 0x1F ADD PUSH1 0x20 DUP1 SWAP2 DIV MUL PUSH1 0x20 ADD PUSH1 0x40 MLOAD SWAP1 DUP2 ADD PUSH1 0x40 MSTORE DUP1 SWAP3 SWAP2 SWAP1 DUP2 DUP2 MSTORE PUSH1 0x20 ADD DUP3 DUP1 SLOAD PUSH2 0x3356 SWAP1 PUSH2 0x4AA7 JUMP JUMPDEST DUP1 ISZERO PUSH2 0x33A3 JUMPI DUP1 PUSH1 0x1F LT PUSH2 0x3378 JUMPI PUSH2 0x100 DUP1 DUP4 SLOAD DIV MUL DUP4 MSTORE SWAP2 PUSH1 0x20 ADD SWAP2 PUSH2 0x33A3 JUMP JUMPDEST DUP3 ADD SWAP2 SWAP1 PUSH1 0x0 MSTORE PUSH1 0x20 PUSH1 0x0 KECCAK256 SWAP1 JUMPDEST DUP2 SLOAD DUP2 MSTORE SWAP1 PUSH1 0x1 ADD SWAP1 PUSH1 0x20 ADD DUP1 DUP4 GT PUSH2 0x3386 JUMPI DUP3 SWAP1 SUB PUSH1 0x1F AND DUP3 ADD SWAP2 JUMPDEST POP POP POP POP POP DUP2 MSTORE PUSH1 0x20 ADD PUSH1 0x3 DUP3 ADD DUP1 SLOAD PUSH2 0x33BC SWAP1 PUSH2 0x4AA7 JUMP JUMPDEST DUP1 PUSH1 0x1F ADD PUSH1 0x20 DUP1 SWAP2 DIV MUL PUSH1 0x20 ADD PUSH1 0x40 MLOAD SWAP1 DUP2 ADD PUSH1 0x40 MSTORE DUP1 SWAP3 SWAP2 SWAP1 DUP2 DUP2 MSTORE PUSH1 0x20 ADD DUP3 DUP1 SLOAD PUSH2 0x33E8 SWAP1 PUSH2 0x4AA7 JUMP JUMPDEST DUP1 ISZERO PUSH2 0x3435 JUMPI DUP1 PUSH1 0x1F LT PUSH2 0x340A JUMPI PUSH2 0x100 DUP1 DUP4 SLOAD DIV MUL DUP4 MSTORE SWAP2 PUSH1 0x20 ADD SWAP2 PUSH2 0x3435 JUMP JUMPDEST DUP3 ADD SWAP2 SWAP1 PUSH1 0x0 MSTORE PUSH1 0x20 PUSH1 0x0 KECCAK256 SWAP1 JUMPDEST DUP2 SLOAD DUP2 MSTORE SWAP1 PUSH1 0x1 ADD SWAP1 PUSH1 0x20 ADD DUP1 DUP4 GT PUSH2 0x3418 JUMPI DUP3 SWAP1 SUB PUSH1 0x1F AND DUP3 ADD SWAP2 JUMPDEST POP POP POP POP POP DUP2 MSTORE PUSH1 0x20 ADD PUSH1 0x4 DUP3 ADD DUP1 SLOAD PUSH2 0x344E SWAP1 PUSH2 0x4AA7 JUMP JUMPDEST DUP1 PUSH1 0x1F ADD PUSH1 0x20 DUP1 SWAP2 DIV MUL PUSH1 0x20 ADD PUSH1 0x40 MLOAD SWAP1 DUP2 ADD PUSH1 0x40 MSTORE DUP1 SWAP3 SWAP2 SWAP1 DUP2 DUP2 MSTORE PUSH1 0x20 ADD DUP3 DUP1 SLOAD PUSH2 0x347A SWAP1 PUSH2 0x4AA7 JUMP JUMPDEST DUP1 ISZERO PUSH2 0x34C7 JUMPI DUP1 PUSH1 0x1F LT PUSH2 0x349C JUMPI PUSH2 0x100 DUP1 DUP4 SLOAD DIV MUL DUP4 MSTORE SWAP2 PUSH1 0x20 ADD SWAP2 PUSH2 0x34C7 JUMP JUMPDEST DUP3 ADD SWAP2 SWAP1 PUSH1 0x0 MSTORE PUSH1 0x20 PUSH1 0x0 KECCAK256 SWAP1 JUMPDEST DUP2 SLOAD DUP2 MSTORE SWAP1 PUSH1 0x1 ADD SWAP1 PUSH1 0x20 ADD DUP1 DUP4 GT PUSH2 0x34AA JUMPI DUP3 SWAP1 SUB PUSH1 0x1F AND DUP3 ADD SWAP2 JUMPDEST POP POP POP POP POP DUP2 MSTORE PUSH1 0x20 ADD PUSH1 0x5 DUP3 ADD DUP1 SLOAD PUSH2 0x34E0 SWAP1 PUSH2 0x4AA7 JUMP JUMPDEST DUP1 PUSH1 0x1F ADD PUSH1 0x20 DUP1 SWAP2 DIV MUL PUSH1 0x20 ADD PUSH1 0x40 MLOAD SWAP1 DUP2 ADD PUSH1 0x40 MSTORE DUP1 SWAP3 SWAP2 SWAP1 DUP2 DUP2 MSTORE PUSH1 0x20 ADD DUP3 DUP1 SLOAD PUSH2 0x350C SWAP1 PUSH2 0x4AA7 JUMP JUMPDEST DUP1 ISZERO PUSH2 0x3559 JUMPI DUP1 PUSH1 0x1F LT PUSH2 0x352E JUMPI PUSH2 0x100 DUP1 DUP4 SLOAD DIV MUL DUP4 MSTORE SWAP2 PUSH1 0x20 ADD SWAP2 PUSH2 0x3559 JUMP JUMPDEST DUP3 ADD SWAP2 SWAP1 PUSH1 0x0 MSTORE PUSH1 0x20 PUSH1 0x0 KECCAK256 SWAP1 JUMPDEST DUP2 SLOAD DUP2 MSTORE SWAP1 PUSH1 0x1 ADD SWAP1 PUSH1 0x20 ADD DUP1 DUP4 GT PUSH2 0x353C JUMPI DUP3 SWAP1 SUB PUSH1 0x1F AND DUP3 ADD SWAP2 JUMPDEST POP POP POP POP POP DUP2 MSTORE PUSH1 0x20 ADD PUSH1 0x6 DUP3 ADD DUP1 SLOAD PUSH2 0x3572 SWAP1 PUSH2 0x4AA7 JUMP JUMPDEST DUP1 PUSH1 0x1F ADD PUSH1 0x20 DUP1 SWAP2 DIV MUL PUSH1 0x20 ADD PUSH1 0x40 MLOAD SWAP1 DUP2 ADD PUSH1 0x40 MSTORE DUP1 SWAP3 SWAP2 SWAP1 DUP2 DUP2 MSTORE PUSH1 0x20 ADD DUP3 DUP1 SLOAD PUSH2 0x359E SWAP1 PUSH2 0x4AA7 JUMP JUMPDEST DUP1 ISZERO PUSH2 0x35EB JUMPI DUP1 PUSH1 0x1F LT PUSH2 0x35C0 JUMPI PUSH2 0x100 DUP1 DUP4 SLOAD DIV MUL DUP4 MSTORE SWAP2 PUSH1 0x20 ADD SWAP2 PUSH2 0x35EB JUMP JUMPDEST DUP3 ADD SWAP2 SWAP1 PUSH1 0x0 MSTORE PUSH1 0x20 PUSH1 0x0 KECCAK256 SWAP1 JUMPDEST DUP2 SLOAD DUP2 MSTORE SWAP1 PUSH1 0x1 ADD SWAP1 PUSH1 0x20 ADD DUP1 DUP4 GT PUSH2 0x35CE JUMPI DUP3 SWAP1 SUB PUSH1 0x1F AND DUP3 ADD SWAP2 JUMPDEST POP POP POP POP POP DUP2 MSTORE PUSH1 0x20 ADD PUSH1 0x7 DUP3 ADD DUP1 SLOAD DUP1 PUSH1 0x20 MUL PUSH1 0x20 ADD PUSH1 0x40 MLOAD SWAP1 DUP2 ADD PUSH1 0x40 MSTORE DUP1 SWAP3 SWAP2 SWAP1 DUP2 DUP2 MSTORE PUSH1 0x20 ADD PUSH1 0x0 SWAP1 JUMPDEST DUP3 DUP3 LT ISZERO PUSH2 0x3925 JUMPI DUP4 DUP3 SWAP1 PUSH1 0x0 MSTORE PUSH1 0x20 PUSH1 0x0 KECCAK256 SWAP1 PUSH1 0x5 MUL ADD PUSH1 0x40 MLOAD DUP1 PUSH1 0xA0 ADD PUSH1 0x40 MSTORE SWAP1 DUP2 PUSH1 0x0 DUP3 ADD DUP1 SLOAD PUSH2 0x364C SWAP1 PUSH2 0x4AA7 JUMP JUMPDEST DUP1 PUSH1 0x1F ADD PUSH1 0x20 DUP1 SWAP2 DIV MUL PUSH1 0x20 ADD PUSH1 0x40 MLOAD SWAP1 DUP2 ADD PUSH1 0x40 MSTORE DUP1 SWAP3 SWAP2 SWAP1 DUP2 DUP2 MSTORE PUSH1 0x20 ADD DUP3 DUP1 SLOAD PUSH2 0x3678 SWAP1 PUSH2 0x4AA7 JUMP JUMPDEST DUP1 ISZERO PUSH2 0x36C5 JUMPI DUP1 PUSH1 0x1F LT PUSH2 0x369A JUMPI PUSH2 0x100 DUP1 DUP4 SLOAD DIV MUL DUP4 MSTORE SWAP2 PUSH1 0x20 ADD SWAP2 PUSH2 0x36C5 JUMP JUMPDEST DUP3 ADD SWAP2 SWAP1 PUSH1 0x0 MSTORE PUSH1 0x20 PUSH1 0x0 KECCAK256 SWAP1 JUMPDEST DUP2 SLOAD DUP2 MSTORE SWAP1 PUSH1 0x1 ADD SWAP1 PUSH1 0x20 ADD DUP1 DUP4 GT PUSH2 0x36A8 JUMPI DUP3 SWAP1 SUB PUSH1 0x1F AND DUP3 ADD SWAP2 JUMPDEST POP POP POP POP POP DUP2 MSTORE PUSH1 0x20 ADD PUSH1 0x1 DUP3 ADD DUP1 SLOAD PUSH2 0x36DE SWAP1 PUSH2 0x4AA7 JUMP JUMPDEST DUP1 PUSH1 0x1F ADD PUSH1 0x20 DUP1 SWAP2 DIV MUL PUSH1 0x20 ADD PUSH1 0x40 MLOAD SWAP1 DUP2 ADD PUSH1 0x40 MSTORE DUP1 SWAP3 SWAP2 SWAP1 DUP2 DUP2 MSTORE PUSH1 0x20 ADD DUP3 DUP1 SLOAD PUSH2 0x370A SWAP1 PUSH2 0x4AA7 JUMP JUMPDEST DUP1 ISZERO PUSH2 0x3757 JUMPI DUP1 PUSH1 0x1F LT PUSH2 0x372C JUMPI PUSH2 0x100 DUP1 DUP4 SLOAD DIV MUL DUP4 MSTORE SWAP2 PUSH1 0x20 ADD SWAP2 PUSH2 0x3757 JUMP JUMPDEST DUP3 ADD SWAP2 SWAP1 PUSH1 0x0 MSTORE PUSH1 0x20 PUSH1 0x0 KECCAK256 SWAP1 JUMPDEST DUP2 SLOAD DUP2 MSTORE SWAP1 PUSH1 0x1 ADD SWAP1 PUSH1 0x20 ADD DUP1 DUP4 GT PUSH2 0x373A JUMPI DUP3 SWAP1 SUB PUSH1 0x1F AND DUP3 ADD SWAP2 JUMPDEST POP POP POP POP POP DUP2 MSTORE PUSH1 0x20 ADD PUSH1 0x2 DUP3 ADD DUP1 SLOAD PUSH2 0x3770 SWAP1 PUSH2 0x4AA7 JUMP JUMPDEST DUP1 PUSH1 0x1F ADD PUSH1 0x20 DUP1 SWAP2 DIV MUL PUSH1 0x20 ADD PUSH1 0x40 MLOAD SWAP1 DUP2 ADD PUSH1 0x40 MSTORE DUP1 SWAP3 SWAP2 SWAP1 DUP2 DUP2 MSTORE PUSH1 0x20 ADD DUP3 DUP1 SLOAD PUSH2 0x379C SWAP1 PUSH2 0x4AA7 JUMP JUMPDEST DUP1 ISZERO PUSH2 0x37E9 JUMPI DUP1 PUSH1 0x1F LT PUSH2 0x37BE JUMPI PUSH2 0x100 DUP1 DUP4 SLOAD DIV MUL DUP4 MSTORE SWAP2 PUSH1 0x20 ADD SWAP2 PUSH2 0x37E9 JUMP JUMPDEST DUP3 ADD SWAP2 SWAP1 PUSH1 0x0 MSTORE PUSH1 0x20 PUSH1 0x0 KECCAK256 SWAP1 JUMPDEST DUP2 SLOAD DUP2 MSTORE SWAP1 PUSH1 0x1 ADD SWAP1 PUSH1 0x20 ADD DUP1 DUP4 GT PUSH2 0x37CC JUMPI DUP3 SWAP1 SUB PUSH1 0x1F AND DUP3 ADD SWAP2 JUMPDEST POP POP POP POP POP DUP2 MSTORE PUSH1 0x20 ADD PUSH1 0x3 DUP3 ADD DUP1 SLOAD PUSH2 0x3802 SWAP1 PUSH2 0x4AA7 JUMP JUMPDEST DUP1 PUSH1 0x1F ADD PUSH1 0x20 DUP1 SWAP2 DIV MUL PUSH1 0x20 ADD PUSH1 0x40 MLOAD SWAP1 DUP2 ADD PUSH1 0x40 MSTORE DUP1 SWAP3 SWAP2 SWAP1 DUP2 DUP2 MSTORE PUSH1 0x20 ADD DUP3 DUP1 SLOAD PUSH2 0x382E SWAP1 PUSH2 0x4AA7 JUMP JUMPDEST DUP1 ISZERO PUSH2 0x387B JUMPI DUP1 PUSH1 0x1F LT PUSH2 0x3850 JUMPI PUSH2 0x100 DUP1 DUP4 SLOAD DIV MUL DUP4 MSTORE SWAP2 PUSH1 0x20 ADD SWAP2 PUSH2 0x387B JUMP JUMPDEST DUP3 ADD SWAP2 SWAP1 PUSH1 0x0 MSTORE PUSH1 0x20 PUSH1 0x0 KECCAK256 SWAP1 JUMPDEST DUP2 SLOAD DUP2 MSTORE SWAP1 PUSH1 0x1 ADD SWAP1 PUSH1 0x20 ADD DUP1 DUP4 GT PUSH2 0x385E JUMPI DUP3 SWAP1 SUB PUSH1 0x1F AND DUP3 ADD SWAP2 JUMPDEST POP POP POP POP POP DUP2 MSTORE PUSH1 0x20 ADD PUSH1 0x4 DUP3 ADD DUP1 SLOAD PUSH2 0x3894 SWAP1 PUSH2 0x4AA7 JUMP JUMPDEST DUP1 PUSH1 0x1F ADD PUSH1 0x20 DUP1 SWAP2 DIV MUL PUSH1 0x20 ADD PUSH1 0x40 MLOAD SWAP1 DUP2 ADD PUSH1 0x40 MSTORE DUP1 SWAP3 SWAP2 SWAP1 DUP2 DUP2 MSTORE PUSH1 0x20 ADD DUP3 DUP1 SLOAD PUSH2 0x38C0 SWAP1 PUSH2 0x4AA7 JUMP JUMPDEST DUP1 ISZERO PUSH2 0x390D JUMPI DUP1 PUSH1 0x1F LT PUSH2 0x38E2 JUMPI PUSH2 0x100 DUP1 DUP4 SLOAD DIV MUL DUP4 MSTORE SWAP2 PUSH1 0x20 ADD SWAP2 PUSH2 0x390D JUMP JUMPDEST DUP3 ADD SWAP2 SWAP1 PUSH1 0x0 MSTORE PUSH1 0x20 PUSH1 0x0 KECCAK256 SWAP1 JUMPDEST DUP2 SLOAD DUP2 MSTORE SWAP1 PUSH1 0x1 ADD SWAP1 PUSH1 0x20 ADD DUP1 DUP4 GT PUSH2 0x38F0 JUMPI DUP3 SWAP1 SUB PUSH1 0x1F AND DUP3 ADD SWAP2 JUMPDEST POP POP POP POP POP DUP2 MSTORE POP POP DUP2 MSTORE PUSH1 0x20 ADD SWAP1 PUSH1 0x1 ADD SWAP1 PUSH2 0x3619 JUMP JUMPDEST POP POP POP POP DUP2 MSTORE PUSH1 0x20 ADD PUSH1 0x8 DUP3 ADD PUSH1 0x0 SWAP1 SLOAD SWAP1 PUSH2 0x100 EXP SWAP1 DIV PUSH20 0xFFFFFFFFFFFFFFFFFFFFFFFFFFFFFFFFFFFFFFFF AND PUSH20 0xFFFFFFFFFFFFFFFFFFFFFFFFFFFFFFFFFFFFFFFF AND PUSH20 0xFFFFFFFFFFFFFFFFFFFFFFFFFFFFFFFFFFFFFFFF AND DUP2 MSTORE POP POP SWAP1 POP DUP1 PUSH1 0x20 ADD MLOAD DUP2 PUSH1 0x40 ADD MLOAD DUP3 PUSH1 0x60 ADD MLOAD DUP4 PUSH1 0x80 ADD MLOAD DUP5 PUSH1 0xA0 ADD MLOAD DUP6 PUSH1 0xC0 ADD MLOAD SWAP7 POP SWAP7 POP SWAP7 POP SWAP7 POP SWAP7 POP SWAP7 POP POP SWAP2 SWAP4 SWAP6 POP SWAP2 SWAP4 SWAP6 JUMP JUMPDEST PUSH1 0x0 DUP2 PUSH20 0xFFFFFFFFFFFFFFFFFFFFFFFFFFFFFFFFFFFFFFFF AND CALLER PUSH20 0xFFFFFFFFFFFFFFFFFFFFFFFFFFFFFFFFFFFFFFFF AND EQ ISZERO PUSH2 0x3A2A JUMPI PUSH1 0x40 MLOAD PUSH32 0x8C379A000000000000000000000000000000000000000000000000000000000 DUP2 MSTORE PUSH1 0x4 ADD PUSH2 0x3A21 SWAP1 PUSH2 0x5227 JUMP JUMPDEST PUSH1 0x40 MLOAD DUP1 SWAP2 SUB SWAP1 REVERT JUMPDEST PUSH1 0x8 PUSH1 0x0 CALLER PUSH20 0xFFFFFFFFFFFFFFFFFFFFFFFFFFFFFFFFFFFFFFFF AND PUSH20 0xFFFFFFFFFFFFFFFFFFFFFFFFFFFFFFFFFFFFFFFF AND DUP2 MSTORE PUSH1 0x20 ADD SWAP1 DUP2 MSTORE PUSH1 0x20 ADD PUSH1 0x0 KECCAK256 PUSH1 0x0 DUP4 PUSH20 0xFFFFFFFFFFFFFFFFFFFFFFFFFFFFFFFFFFFFFFFF AND PUSH20 0xFFFFFFFFFFFFFFFFFFFFFFFFFFFFFFFFFFFFFFFF AND DUP2 MSTORE PUSH1 0x20 ADD SWAP1 DUP2 MSTORE PUSH1 0x20 ADD PUSH1 0x0 KECCAK256 PUSH1 0x0 SWAP1 SLOAD SWAP1 PUSH2 0x100 EXP SWAP1 DIV PUSH1 0xFF AND PUSH2 0x3AF3 JUMPI PUSH1 0x40 MLOAD PUSH32 0x8C379A000000000000000000000000000000000000000000000000000000000 DUP2 MSTORE PUSH1 0x4 ADD PUSH2 0x3AEA SWAP1 PUSH2 0x5293 JUMP JUMPDEST PUSH1 0x40 MLOAD DUP1 SWAP2 SUB SWAP1 REVERT JUMPDEST PUSH1 0x0 PUSH1 0x8 PUSH1 0x0 CALLER PUSH20 0xFFFFFFFFFFFFFFFFFFFFFFFFFFFFFFFFFFFFFFFF AND PUSH20 0xFFFFFFFFFFFFFFFFFFFFFFFFFFFFFFFFFFFFFFFF AND DUP2 MSTORE PUSH1 0x20 ADD SWAP1 DUP2 MSTORE PUSH1 0x20 ADD PUSH1 0x0 KECCAK256 PUSH1 0x0 DUP5 PUSH20 0xFFFFFFFFFFFFFFFFFFFFFFFFFFFFFFFFFFFFFFFF AND PUSH20 0xFFFFFFFFFFFFFFFFFFFFFFFFFFFFFFFFFFFFFFFF AND DUP2 MSTORE PUSH1 0x20 ADD SWAP1 DUP2 MSTORE PUSH1 0x20 ADD PUSH1 0x0 KECCAK256 PUSH1 0x0 PUSH2 0x100 EXP DUP2 SLOAD DUP2 PUSH1 0xFF MUL NOT AND SWAP1 DUP4 ISZERO ISZERO MUL OR SWAP1 SSTORE POP PUSH1 0x1 SWAP1 POP SWAP2 SWAP1 POP JUMP JUMPDEST DUP3 DUP1 SLOAD PUSH2 0x3B9D SWAP1 PUSH2 0x4AA7 JUMP JUMPDEST SWAP1 PUSH1 0x0 MSTORE PUSH1 0x20 PUSH1 0x0 KECCAK256 SWAP1 PUSH1 0x1F ADD PUSH1 0x20 SWAP1 DIV DUP2 ADD SWAP3 DUP3 PUSH2 0x3BBF JUMPI PUSH1 0x0 DUP6 SSTORE PUSH2 0x3C06 JUMP JUMPDEST DUP3 PUSH1 0x1F LT PUSH2 0x3BD8 JUMPI DUP1 MLOAD PUSH1 0xFF NOT AND DUP4 DUP1 ADD OR DUP6 SSTORE PUSH2 0x3C06 JUMP JUMPDEST DUP3 DUP1 ADD PUSH1 0x1 ADD DUP6 SSTORE DUP3 ISZERO PUSH2 0x3C06 JUMPI SWAP2 DUP3 ADD JUMPDEST DUP3 DUP2 GT ISZERO PUSH2 0x3C05 JUMPI DUP3 MLOAD DUP3 SSTORE SWAP2 PUSH1 0x20 ADD SWAP2 SWAP1 PUSH1 0x1 ADD SWAP1 PUSH2 0x3BEA JUMP JUMPDEST JUMPDEST POP SWAP1 POP PUSH2 0x3C13 SWAP2 SWAP1 PUSH2 0x3C17 JUMP JUMPDEST POP SWAP1 JUMP JUMPDEST JUMPDEST DUP1 DUP3 GT ISZERO PUSH2 0x3C30 JUMPI PUSH1 0x0 DUP2 PUSH1 0x0 SWAP1 SSTORE POP PUSH1 0x1 ADD PUSH2 0x3C18 JUMP JUMPDEST POP SWAP1 JUMP JUMPDEST PUSH1 0x0 PUSH1 0x40 MLOAD SWAP1 POP SWAP1 JUMP JUMPDEST PUSH1 0x0 DUP1 REVERT JUMPDEST PUSH1 0x0 DUP1 REVERT JUMPDEST PUSH1 0x0 PUSH20 0xFFFFFFFFFFFFFFFFFFFFFFFFFFFFFFFFFFFFFFFF DUP3 AND SWAP1 POP SWAP2 SWAP1 POP JUMP JUMPDEST PUSH1 0x0 PUSH2 0x3C73 DUP3 PUSH2 0x3C48 JUMP JUMPDEST SWAP1 POP SWAP2 SWAP1 POP JUMP JUMPDEST PUSH2 0x3C83 DUP2 PUSH2 0x3C68 JUMP JUMPDEST DUP2 EQ PUSH2 0x3C8E JUMPI PUSH1 0x0 DUP1 REVERT JUMPDEST POP JUMP JUMPDEST PUSH1 0x0 DUP2 CALLDATALOAD SWAP1 POP PUSH2 0x3CA0 DUP2 PUSH2 0x3C7A JUMP JUMPDEST SWAP3 SWAP2 POP POP JUMP JUMPDEST PUSH1 0x0 DUP1 PUSH1 0x40 DUP4 DUP6 SUB SLT ISZERO PUSH2 0x3CBD JUMPI PUSH2 0x3CBC PUSH2 0x3C3E JUMP JUMPDEST JUMPDEST PUSH1 0x0 PUSH2 0x3CCB DUP6 DUP3 DUP7 ADD PUSH2 0x3C91 JUMP JUMPDEST SWAP3 POP POP PUSH1 0x20 PUSH2 0x3CDC DUP6 DUP3 DUP7 ADD PUSH2 0x3C91 JUMP JUMPDEST SWAP2 POP POP SWAP3 POP SWAP3 SWAP1 POP JUMP JUMPDEST PUSH1 0x0 DUP2 ISZERO ISZERO SWAP1 POP SWAP2 SWAP1 POP JUMP JUMPDEST PUSH2 0x3CFB DUP2 PUSH2 0x3CE6 JUMP JUMPDEST DUP3 MSTORE POP POP JUMP JUMPDEST PUSH1 0x0 PUSH1 0x20 DUP3 ADD SWAP1 POP PUSH2 0x3D16 PUSH1 0x0 DUP4 ADD DUP5 PUSH2 0x3CF2 JUMP JUMPDEST SWAP3 SWAP2 POP POP JUMP JUMPDEST PUSH1 0x0 DUP2 SWAP1 POP SWAP2 SWAP1 POP JUMP JUMPDEST PUSH2 0x3D2F DUP2 PUSH2 0x3D1C JUMP JUMPDEST DUP2 EQ PUSH2 0x3D3A JUMPI PUSH1 0x0 DUP1 REVERT JUMPDEST POP JUMP JUMPDEST PUSH1 0x0 DUP2 CALLDATALOAD SWAP1 POP PUSH2 0x3D4C DUP2 PUSH2 0x3D26 JUMP JUMPDEST SWAP3 SWAP2 POP POP JUMP JUMPDEST PUSH1 0x0 PUSH1 0x20 DUP3 DUP5 SUB SLT ISZERO PUSH2 0x3D68 JUMPI PUSH2 0x3D67 PUSH2 0x3C3E JUMP JUMPDEST JUMPDEST PUSH1 0x0 PUSH2 0x3D76 DUP5 DUP3 DUP6 ADD PUSH2 0x3D3D JUMP JUMPDEST SWAP2 POP POP SWAP3 SWAP2 POP POP JUMP JUMPDEST PUSH2 0x3D88 DUP2 PUSH2 0x3C68 JUMP JUMPDEST DUP3 MSTORE POP POP JUMP JUMPDEST PUSH1 0x0 PUSH1 0x20 DUP3 ADD SWAP1 POP PUSH2 0x3DA3 PUSH1 0x0 DUP4 ADD DUP5 PUSH2 0x3D7F JUMP JUMPDEST SWAP3 SWAP2 POP POP JUMP JUMPDEST PUSH1 0x0 PUSH1 0x20 DUP3 DUP5 SUB SLT ISZERO PUSH2 0x3DBF JUMPI PUSH2 0x3DBE PUSH2 0x3C3E JUMP JUMPDEST JUMPDEST PUSH1 0x0 PUSH2 0x3DCD DUP5 DUP3 DUP6 ADD PUSH2 0x3C91 JUMP JUMPDEST SWAP2 POP POP SWAP3 SWAP2 POP POP JUMP JUMPDEST PUSH1 0x0 DUP2 MLOAD SWAP1 POP SWAP2 SWAP1 POP JUMP JUMPDEST PUSH1 0x0 DUP3 DUP3 MSTORE PUSH1 0x20 DUP3 ADD SWAP1 POP SWAP3 SWAP2 POP POP JUMP JUMPDEST PUSH1 0x0 DUP2 SWAP1 POP PUSH1 0x20 DUP3 ADD SWAP1 POP SWAP2 SWAP1 POP JUMP JUMPDEST PUSH1 0x0 DUP2 MLOAD SWAP1 POP SWAP2 SWAP1 POP JUMP JUMPDEST PUSH1 0x0 DUP3 DUP3 MSTORE PUSH1 0x20 DUP3 ADD SWAP1 POP SWAP3 SWAP2 POP POP JUMP JUMPDEST PUSH1 0x0 JUMPDEST DUP4 DUP2 LT ISZERO PUSH2 0x3E3C JUMPI DUP1 DUP3 ADD MLOAD DUP2 DUP5 ADD MSTORE PUSH1 0x20 DUP2 ADD SWAP1 POP PUSH2 0x3E21 JUMP JUMPDEST DUP4 DUP2 GT ISZERO PUSH2 0x3E4B JUMPI PUSH1 0x0 DUP5 DUP5 ADD MSTORE JUMPDEST POP POP POP POP JUMP JUMPDEST PUSH1 0x0 PUSH1 0x1F NOT PUSH1 0x1F DUP4 ADD AND SWAP1 POP SWAP2 SWAP1 POP JUMP JUMPDEST PUSH1 0x0 PUSH2 0x3E6D DUP3 PUSH2 0x3E02 JUMP JUMPDEST PUSH2 0x3E77 DUP2 DUP6 PUSH2 0x3E0D JUMP JUMPDEST SWAP4 POP PUSH2 0x3E87 DUP2 DUP6 PUSH1 0x20 DUP7 ADD PUSH2 0x3E1E JUMP JUMPDEST PUSH2 0x3E90 DUP2 PUSH2 0x3E51 JUMP JUMPDEST DUP5 ADD SWAP2 POP POP SWAP3 SWAP2 POP POP JUMP JUMPDEST PUSH1 0x0 PUSH2 0x3EA7 DUP4 DUP4 PUSH2 0x3E62 JUMP JUMPDEST SWAP1 POP SWAP3 SWAP2 POP POP JUMP JUMPDEST PUSH1 0x0 PUSH1 0x20 DUP3 ADD SWAP1 POP SWAP2 SWAP1 POP JUMP JUMPDEST PUSH1 0x0 PUSH2 0x3EC7 DUP3 PUSH2 0x3DD6 JUMP JUMPDEST PUSH2 0x3ED1 DUP2 DUP6 PUSH2 0x3DE1 JUMP JUMPDEST SWAP4 POP DUP4 PUSH1 0x20 DUP3 MUL DUP6 ADD PUSH2 0x3EE3 DUP6 PUSH2 0x3DF2 JUMP JUMPDEST DUP1 PUSH1 0x0 JUMPDEST DUP6 DUP2 LT ISZERO PUSH2 0x3F1F JUMPI DUP5 DUP5 SUB DUP10 MSTORE DUP2 MLOAD PUSH2 0x3F00 DUP6 DUP3 PUSH2 0x3E9B JUMP JUMPDEST SWAP5 POP PUSH2 0x3F0B DUP4 PUSH2 0x3EAF JUMP JUMPDEST SWAP3 POP PUSH1 0x20 DUP11 ADD SWAP10 POP POP PUSH1 0x1 DUP2 ADD SWAP1 POP PUSH2 0x3EE7 JUMP JUMPDEST POP DUP3 SWAP8 POP DUP8 SWAP6 POP POP POP POP POP POP SWAP3 SWAP2 POP POP JUMP JUMPDEST PUSH1 0x0 PUSH1 0xA0 DUP3 ADD SWAP1 POP DUP2 DUP2 SUB PUSH1 0x0 DUP4 ADD MSTORE PUSH2 0x3F4B DUP2 DUP9 PUSH2 0x3EBC JUMP JUMPDEST SWAP1 POP DUP2 DUP2 SUB PUSH1 0x20 DUP4 ADD MSTORE PUSH2 0x3F5F DUP2 DUP8 PUSH2 0x3EBC JUMP JUMPDEST SWAP1 POP DUP2 DUP2 SUB PUSH1 0x40 DUP4 ADD MSTORE PUSH2 0x3F73 DUP2 DUP7 PUSH2 0x3EBC JUMP JUMPDEST SWAP1 POP DUP2 DUP2 SUB PUSH1 0x60 DUP4 ADD MSTORE PUSH2 0x3F87 DUP2 DUP6 PUSH2 0x3EBC JUMP JUMPDEST SWAP1 POP DUP2 DUP2 SUB PUSH1 0x80 DUP4 ADD MSTORE PUSH2 0x3F9B DUP2 DUP5 PUSH2 0x3EBC JUMP JUMPDEST SWAP1 POP SWAP7 SWAP6 POP POP POP POP POP POP JUMP JUMPDEST PUSH2 0x3FB0 DUP2 PUSH2 0x3D1C JUMP JUMPDEST DUP3 MSTORE POP POP JUMP JUMPDEST PUSH1 0x0 PUSH1 0x20 DUP3 ADD SWAP1 POP PUSH2 0x3FCB PUSH1 0x0 DUP4 ADD DUP5 PUSH2 0x3FA7 JUMP JUMPDEST SWAP3 SWAP2 POP POP JUMP JUMPDEST PUSH1 0x0 DUP3 DUP3 MSTORE PUSH1 0x20 DUP3 ADD SWAP1 POP SWAP3 SWAP2 POP POP JUMP JUMPDEST PUSH1 0x0 PUSH2 0x3FED DUP3 PUSH2 0x3E02 JUMP JUMPDEST PUSH2 0x3FF7 DUP2 DUP6 PUSH2 0x3FD1 JUMP JUMPDEST SWAP4 POP PUSH2 0x4007 DUP2 DUP6 PUSH1 0x20 DUP7 ADD PUSH2 0x3E1E JUMP JUMPDEST PUSH2 0x4010 DUP2 PUSH2 0x3E51 JUMP JUMPDEST DUP5 ADD SWAP2 POP POP SWAP3 SWAP2 POP POP JUMP JUMPDEST PUSH1 0x0 PUSH1 0xE0 DUP3 ADD SWAP1 POP PUSH2 0x4030 PUSH1 0x0 DUP4 ADD DUP11 PUSH2 0x3FA7 JUMP JUMPDEST DUP2 DUP2 SUB PUSH1 0x20 DUP4 ADD MSTORE PUSH2 0x4042 DUP2 DUP10 PUSH2 0x3FE2 JUMP JUMPDEST SWAP1 POP DUP2 DUP2 SUB PUSH1 0x40 DUP4 ADD MSTORE PUSH2 0x4056 DUP2 DUP9 PUSH2 0x3FE2 JUMP JUMPDEST SWAP1 POP DUP2 DUP2 SUB PUSH1 0x60 DUP4 ADD MSTORE PUSH2 0x406A DUP2 DUP8 PUSH2 0x3FE2 JUMP JUMPDEST SWAP1 POP DUP2 DUP2 SUB PUSH1 0x80 DUP4 ADD MSTORE PUSH2 0x407E DUP2 DUP7 PUSH2 0x3FE2 JUMP JUMPDEST SWAP1 POP PUSH2 0x408D PUSH1 0xA0 DUP4 ADD DUP6 PUSH2 0x3D7F JUMP JUMPDEST PUSH2 0x409A PUSH1 0xC0 DUP4 ADD DUP5 PUSH2 0x3CF2 JUMP JUMPDEST SWAP9 SWAP8 POP POP POP POP POP POP POP POP JUMP JUMPDEST PUSH1 0x0 DUP1 REVERT JUMPDEST PUSH1 0x0 DUP1 REVERT JUMPDEST PUSH32 0x4E487B7100000000000000000000000000000000000000000000000000000000 PUSH1 0x0 MSTORE PUSH1 0x41 PUSH1 0x4 MSTORE PUSH1 0x24 PUSH1 0x0 REVERT JUMPDEST PUSH2 0x40E8 DUP3 PUSH2 0x3E51 JUMP JUMPDEST DUP2 ADD DUP2 DUP2 LT PUSH8 0xFFFFFFFFFFFFFFFF DUP3 GT OR ISZERO PUSH2 0x4107 JUMPI PUSH2 0x4106 PUSH2 0x40B0 JUMP JUMPDEST JUMPDEST DUP1 PUSH1 0x40 MSTORE POP POP POP JUMP JUMPDEST PUSH1 0x0 PUSH2 0x411A PUSH2 0x3C34 JUMP JUMPDEST SWAP1 POP PUSH2 0x4126 DUP3 DUP3 PUSH2 0x40DF JUMP JUMPDEST SWAP2 SWAP1 POP JUMP JUMPDEST PUSH1 0x0 PUSH8 0xFFFFFFFFFFFFFFFF DUP3 GT ISZERO PUSH2 0x4146 JUMPI PUSH2 0x4145 PUSH2 0x40B0 JUMP JUMPDEST JUMPDEST PUSH2 0x414F DUP3 PUSH2 0x3E51 JUMP JUMPDEST SWAP1 POP PUSH1 0x20 DUP2 ADD SWAP1 POP SWAP2 SWAP1 POP JUMP JUMPDEST DUP3 DUP2 DUP4 CALLDATACOPY PUSH1 0x0 DUP4 DUP4 ADD MSTORE POP POP POP JUMP JUMPDEST PUSH1 0x0 PUSH2 0x417E PUSH2 0x4179 DUP5 PUSH2 0x412B JUMP JUMPDEST PUSH2 0x4110 JUMP JUMPDEST SWAP1 POP DUP3 DUP2 MSTORE PUSH1 0x20 DUP2 ADD DUP5 DUP5 DUP5 ADD GT ISZERO PUSH2 0x419A JUMPI PUSH2 0x4199 PUSH2 0x40AB JUMP JUMPDEST JUMPDEST PUSH2 0x41A5 DUP5 DUP3 DUP6 PUSH2 0x415C JUMP JUMPDEST POP SWAP4 SWAP3 POP POP POP JUMP JUMPDEST PUSH1 0x0 DUP3 PUSH1 0x1F DUP4 ADD SLT PUSH2 0x41C2 JUMPI PUSH2 0x41C1 PUSH2 0x40A6 JUMP JUMPDEST JUMPDEST DUP2 CALLDATALOAD PUSH2 0x41D2 DUP5 DUP3 PUSH1 0x20 DUP7 ADD PUSH2 0x416B JUMP JUMPDEST SWAP2 POP POP SWAP3 SWAP2 POP POP JUMP JUMPDEST PUSH1 0x0 DUP1 PUSH1 0x0 DUP1 PUSH1 0x0 DUP1 PUSH1 0xC0 DUP8 DUP10 SUB SLT ISZERO PUSH2 0x41F8 JUMPI PUSH2 0x41F7 PUSH2 0x3C3E JUMP JUMPDEST JUMPDEST PUSH1 0x0 DUP8 ADD CALLDATALOAD PUSH8 0xFFFFFFFFFFFFFFFF DUP2 GT ISZERO PUSH2 0x4216 JUMPI PUSH2 0x4215 PUSH2 0x3C43 JUMP JUMPDEST JUMPDEST PUSH2 0x4222 DUP10 DUP3 DUP11 ADD PUSH2 0x41AD JUMP JUMPDEST SWAP7 POP POP PUSH1 0x20 DUP8 ADD CALLDATALOAD PUSH8 0xFFFFFFFFFFFFFFFF DUP2 GT ISZERO PUSH2 0x4243 JUMPI PUSH2 0x4242 PUSH2 0x3C43 JUMP JUMPDEST JUMPDEST PUSH2 0x424F DUP10 DUP3 DUP11 ADD PUSH2 0x41AD JUMP JUMPDEST SWAP6 POP POP PUSH1 0x40 DUP8 ADD CALLDATALOAD PUSH8 0xFFFFFFFFFFFFFFFF DUP2 GT ISZERO PUSH2 0x4270 JUMPI PUSH2 0x426F PUSH2 0x3C43 JUMP JUMPDEST JUMPDEST PUSH2 0x427C DUP10 DUP3 DUP11 ADD PUSH2 0x41AD JUMP JUMPDEST SWAP5 POP POP PUSH1 0x60 DUP8 ADD CALLDATALOAD PUSH8 0xFFFFFFFFFFFFFFFF DUP2 GT ISZERO PUSH2 0x429D JUMPI PUSH2 0x429C PUSH2 0x3C43 JUMP JUMPDEST JUMPDEST PUSH2 0x42A9 DUP10 DUP3 DUP11 ADD PUSH2 0x41AD JUMP JUMPDEST SWAP4 POP POP PUSH1 0x80 DUP8 ADD CALLDATALOAD PUSH8 0xFFFFFFFFFFFFFFFF DUP2 GT ISZERO PUSH2 0x42CA JUMPI PUSH2 0x42C9 PUSH2 0x3C43 JUMP JUMPDEST JUMPDEST PUSH2 0x42D6 DUP10 DUP3 DUP11 ADD PUSH2 0x41AD JUMP JUMPDEST SWAP3 POP POP PUSH1 0xA0 DUP8 ADD CALLDATALOAD PUSH8 0xFFFFFFFFFFFFFFFF DUP2 GT ISZERO PUSH2 0x42F7 JUMPI PUSH2 0x42F6 PUSH2 0x3C43 JUMP JUMPDEST JUMPDEST PUSH2 0x4303 DUP10 DUP3 DUP11 ADD PUSH2 0x41AD JUMP JUMPDEST SWAP2 POP POP SWAP3 SWAP6 POP SWAP3 SWAP6 POP SWAP3 SWAP6 JUMP JUMPDEST PUSH1 0x0 DUP1 PUSH1 0x0 DUP1 PUSH1 0x0 PUSH1 0xA0 DUP7 DUP9 SUB SLT ISZERO PUSH2 0x432C JUMPI PUSH2 0x432B PUSH2 0x3C3E JUMP JUMPDEST JUMPDEST PUSH1 0x0 DUP7 ADD CALLDATALOAD PUSH8 0xFFFFFFFFFFFFFFFF DUP2 GT ISZERO PUSH2 0x434A JUMPI PUSH2 0x4349 PUSH2 0x3C43 JUMP JUMPDEST JUMPDEST PUSH2 0x4356 DUP9 DUP3 DUP10 ADD PUSH2 0x41AD JUMP JUMPDEST SWAP6 POP POP PUSH1 0x20 DUP7 ADD CALLDATALOAD PUSH8 0xFFFFFFFFFFFFFFFF DUP2 GT ISZERO PUSH2 0x4377 JUMPI PUSH2 0x4376 PUSH2 0x3C43 JUMP JUMPDEST JUMPDEST PUSH2 0x4383 DUP9 DUP3 DUP10 ADD PUSH2 0x41AD JUMP JUMPDEST SWAP5 POP POP PUSH1 0x40 DUP7 ADD CALLDATALOAD PUSH8 0xFFFFFFFFFFFFFFFF DUP2 GT ISZERO PUSH2 0x43A4 JUMPI PUSH2 0x43A3 PUSH2 0x3C43 JUMP JUMPDEST JUMPDEST PUSH2 0x43B0 DUP9 DUP3 DUP10 ADD PUSH2 0x41AD JUMP JUMPDEST SWAP4 POP POP PUSH1 0x60 DUP7 ADD CALLDATALOAD PUSH8 0xFFFFFFFFFFFFFFFF DUP2 GT ISZERO PUSH2 0x43D1 JUMPI PUSH2 0x43D0 PUSH2 0x3C43 JUMP JUMPDEST JUMPDEST PUSH2 0x43DD DUP9 DUP3 DUP10 ADD PUSH2 0x41AD JUMP JUMPDEST SWAP3 POP POP PUSH1 0x80 PUSH2 0x43EE DUP9 DUP3 DUP10 ADD PUSH2 0x3C91 JUMP JUMPDEST SWAP2 POP POP SWAP3 SWAP6 POP SWAP3 SWAP6 SWAP1 SWAP4 POP JUMP JUMPDEST PUSH1 0x0 DUP1 PUSH1 0x0 DUP1 PUSH1 0x0 DUP1 PUSH1 0xC0 DUP8 DUP10 SUB SLT ISZERO PUSH2 0x4418 JUMPI PUSH2 0x4417 PUSH2 0x3C3E JUMP JUMPDEST JUMPDEST PUSH1 0x0 PUSH2 0x4426 DUP10 DUP3 DUP11 ADD PUSH2 0x3C91 JUMP JUMPDEST SWAP7 POP POP PUSH1 0x20 DUP8 ADD CALLDATALOAD PUSH8 0xFFFFFFFFFFFFFFFF DUP2 GT ISZERO PUSH2 0x4447 JUMPI PUSH2 0x4446 PUSH2 0x3C43 JUMP JUMPDEST JUMPDEST PUSH2 0x4453 DUP10 DUP3 DUP11 ADD PUSH2 0x41AD JUMP JUMPDEST SWAP6 POP POP PUSH1 0x40 DUP8 ADD CALLDATALOAD PUSH8 0xFFFFFFFFFFFFFFFF DUP2 GT ISZERO PUSH2 0x4474 JUMPI PUSH2 0x4473 PUSH2 0x3C43 JUMP JUMPDEST JUMPDEST PUSH2 0x4480 DUP10 DUP3 DUP11 ADD PUSH2 0x41AD JUMP JUMPDEST SWAP5 POP POP PUSH1 0x60 DUP8 ADD CALLDATALOAD PUSH8 0xFFFFFFFFFFFFFFFF DUP2 GT ISZERO PUSH2 0x44A1 JUMPI PUSH2 0x44A0 PUSH2 0x3C43 JUMP JUMPDEST JUMPDEST PUSH2 0x44AD DUP10 DUP3 DUP11 ADD PUSH2 0x41AD JUMP JUMPDEST SWAP4 POP POP PUSH1 0x80 DUP8 ADD CALLDATALOAD PUSH8 0xFFFFFFFFFFFFFFFF DUP2 GT ISZERO PUSH2 0x44CE JUMPI PUSH2 0x44CD PUSH2 0x3C43 JUMP JUMPDEST JUMPDEST PUSH2 0x44DA DUP10 DUP3 DUP11 ADD PUSH2 0x41AD JUMP JUMPDEST SWAP3 POP POP PUSH1 0xA0 DUP8 ADD CALLDATALOAD PUSH8 0xFFFFFFFFFFFFFFFF DUP2 GT ISZERO PUSH2 0x44FB JUMPI PUSH2 0x44FA PUSH2 0x3C43 JUMP JUMPDEST JUMPDEST PUSH2 0x4507 DUP10 DUP3 DUP11 ADD PUSH2 0x41AD JUMP JUMPDEST SWAP2 POP POP SWAP3 SWAP6 POP SWAP3 SWAP6 POP SWAP3 SWAP6 JUMP JUMPDEST PUSH1 0x0 PUSH1 0xC0 DUP3 ADD SWAP1 POP DUP2 DUP2 SUB PUSH1 0x0 DUP4 ADD MSTORE PUSH2 0x452E DUP2 DUP10 PUSH2 0x3FE2 JUMP JUMPDEST SWAP1 POP DUP2 DUP2 SUB PUSH1 0x20 DUP4 ADD MSTORE PUSH2 0x4542 DUP2 DUP9 PUSH2 0x3FE2 JUMP JUMPDEST SWAP1 POP DUP2 DUP2 SUB PUSH1 0x40 DUP4 ADD MSTORE PUSH2 0x4556 DUP2 DUP8 PUSH2 0x3FE2 JUMP JUMPDEST SWAP1 POP DUP2 DUP2 SUB PUSH1 0x60 DUP4 ADD MSTORE PUSH2 0x456A DUP2 DUP7 PUSH2 0x3FE2 JUMP JUMPDEST SWAP1 POP DUP2 DUP2 SUB PUSH1 0x80 DUP4 ADD MSTORE PUSH2 0x457E DUP2 DUP6 PUSH2 0x3FE2 JUMP JUMPDEST SWAP1 POP DUP2 DUP2 SUB PUSH1 0xA0 DUP4 ADD MSTORE PUSH2 0x4592 DUP2 DUP5 PUSH2 0x3FE2 JUMP JUMPDEST SWAP1 POP SWAP8 SWAP7 POP POP POP POP POP POP POP JUMP JUMPDEST PUSH32 0x416C7265616479204E6F20417574682121210000000000000000000000000000 PUSH1 0x0 DUP3 ADD MSTORE POP JUMP JUMPDEST PUSH1 0x0 PUSH2 0x45D5 PUSH1 0x12 DUP4 PUSH2 0x3FD1 JUMP JUMPDEST SWAP2 POP PUSH2 0x45E0 DUP3 PUSH2 0x459F JUMP JUMPDEST PUSH1 0x20 DUP3 ADD SWAP1 POP SWAP2 SWAP1 POP JUMP JUMPDEST PUSH1 0x0 PUSH1 0x20 DUP3 ADD SWAP1 POP DUP2 DUP2 SUB PUSH1 0x0 DUP4 ADD MSTORE PUSH2 0x4604 DUP2 PUSH2 0x45C8 JUMP JUMPDEST SWAP1 POP SWAP2 SWAP1 POP JUMP JUMPDEST PUSH32 0x63616E27742072656D6F76652073616D6520706572736F6E0000000000000000 PUSH1 0x0 DUP3 ADD MSTORE POP JUMP JUMPDEST PUSH1 0x0 PUSH2 0x4641 PUSH1 0x18 DUP4 PUSH2 0x3FD1 JUMP JUMPDEST SWAP2 POP PUSH2 0x464C DUP3 PUSH2 0x460B JUMP JUMPDEST PUSH1 0x20 DUP3 ADD SWAP1 POP SWAP2 SWAP1 POP JUMP JUMPDEST PUSH1 0x0 PUSH1 0x20 DUP3 ADD SWAP1 POP DUP2 DUP2 SUB PUSH1 0x0 DUP4 ADD MSTORE PUSH2 0x4670 DUP2 PUSH2 0x4634 JUMP JUMPDEST SWAP1 POP SWAP2 SWAP1 POP JUMP JUMPDEST PUSH32 0x596F7520646F6E27742068617665207065726D697373696F6E20746F20616363 PUSH1 0x0 DUP3 ADD MSTORE PUSH32 0x6573730000000000000000000000000000000000000000000000000000000000 PUSH1 0x20 DUP3 ADD MSTORE POP JUMP JUMPDEST PUSH1 0x0 PUSH2 0x46D3 PUSH1 0x23 DUP4 PUSH2 0x3FD1 JUMP JUMPDEST SWAP2 POP PUSH2 0x46DE DUP3 PUSH2 0x4677 JUMP JUMPDEST PUSH1 0x40 DUP3 ADD SWAP1 POP SWAP2 SWAP1 POP JUMP JUMPDEST PUSH1 0x0 PUSH1 0x20 DUP3 ADD SWAP1 POP DUP2 DUP2 SUB PUSH1 0x0 DUP4 ADD MSTORE PUSH2 0x4702 DUP2 PUSH2 0x46C6 JUMP JUMPDEST SWAP1 POP SWAP2 SWAP1 POP JUMP JUMPDEST PUSH32 0x55736572204E6F74205265676973746572656420796574000000000000000000 PUSH1 0x0 DUP3 ADD MSTORE POP JUMP JUMPDEST PUSH1 0x0 PUSH2 0x473F PUSH1 0x17 DUP4 PUSH2 0x3FD1 JUMP JUMPDEST SWAP2 POP PUSH2 0x474A DUP3 PUSH2 0x4709 JUMP JUMPDEST PUSH1 0x20 DUP3 ADD SWAP1 POP SWAP2 SWAP1 POP JUMP JUMPDEST PUSH1 0x0 PUSH1 0x20 DUP3 ADD SWAP1 POP DUP2 DUP2 SUB PUSH1 0x0 DUP4 ADD MSTORE PUSH2 0x476E DUP2 PUSH2 0x4732 JUMP JUMPDEST SWAP1 POP SWAP2 SWAP1 POP JUMP JUMPDEST PUSH32 0x4F6E6C79204D616E6167657220686173207065726D697373696F6E20746F2064 PUSH1 0x0 DUP3 ADD MSTORE PUSH32 0x6F207468617420616374696F6E2E000000000000000000000000000000000000 PUSH1 0x20 DUP3 ADD MSTORE POP JUMP JUMPDEST PUSH1 0x0 PUSH2 0x47D1 PUSH1 0x2E DUP4 PUSH2 0x3FD1 JUMP JUMPDEST SWAP2 POP PUSH2 0x47DC DUP3 PUSH2 0x4775 JUMP JUMPDEST PUSH1 0x40 DUP3 ADD SWAP1 POP SWAP2 SWAP1 POP JUMP JUMPDEST PUSH1 0x0 PUSH1 0x20 DUP3 ADD SWAP1 POP DUP2 DUP2 SUB PUSH1 0x0 DUP4 ADD MSTORE PUSH2 0x4800 DUP2 PUSH2 0x47C4 JUMP JUMPDEST SWAP1 POP SWAP2 SWAP1 POP JUMP JUMPDEST PUSH32 0x43616E27742072656D6F7665206F776E65722066726F6D2061646D696E000000 PUSH1 0x0 DUP3 ADD MSTORE POP JUMP JUMPDEST PUSH1 0x0 PUSH2 0x483D PUSH1 0x1D DUP4 PUSH2 0x3FD1 JUMP JUMPDEST SWAP2 POP PUSH2 0x4848 DUP3 PUSH2 0x4807 JUMP JUMPDEST PUSH1 0x20 DUP3 ADD SWAP1 POP SWAP2 SWAP1 POP JUMP JUMPDEST PUSH1 0x0 PUSH1 0x20 DUP3 ADD SWAP1 POP DUP2 DUP2 SUB PUSH1 0x0 DUP4 ADD MSTORE PUSH2 0x486C DUP2 PUSH2 0x4830 JUMP JUMPDEST SWAP1 POP SWAP2 SWAP1 POP JUMP JUMPDEST PUSH32 0x55736572206E6F742061646D696E20616C726561647921212100000000000000 PUSH1 0x0 DUP3 ADD MSTORE POP JUMP JUMPDEST PUSH1 0x0 PUSH2 0x48A9 PUSH1 0x19 DUP4 PUSH2 0x3FD1 JUMP JUMPDEST SWAP2 POP PUSH2 0x48B4 DUP3 PUSH2 0x4873 JUMP JUMPDEST PUSH1 0x20 DUP3 ADD SWAP1 POP SWAP2 SWAP1 POP JUMP JUMPDEST PUSH1 0x0 PUSH1 0x20 DUP3 ADD SWAP1 POP DUP2 DUP2 SUB PUSH1 0x0 DUP4 ADD MSTORE PUSH2 0x48D8 DUP2 PUSH2 0x489C JUMP JUMPDEST SWAP1 POP SWAP2 SWAP1 POP JUMP JUMPDEST PUSH32 0x4E6F207065726D697373696F6E20746F20676574205265636F72647300000000 PUSH1 0x0 DUP3 ADD MSTORE POP JUMP JUMPDEST PUSH1 0x0 PUSH2 0x4915 PUSH1 0x1C DUP4 PUSH2 0x3FD1 JUMP JUMPDEST SWAP2 POP PUSH2 0x4920 DUP3 PUSH2 0x48DF JUMP JUMPDEST PUSH1 0x20 DUP3 ADD SWAP1 POP SWAP2 SWAP1 POP JUMP JUMPDEST PUSH1 0x0 PUSH1 0x20 DUP3 ADD SWAP1 POP DUP2 DUP2 SUB PUSH1 0x0 DUP4 ADD MSTORE PUSH2 0x4944 DUP2 PUSH2 0x4908 JUMP JUMPDEST SWAP1 POP SWAP2 SWAP1 POP JUMP JUMPDEST PUSH32 0x70617469656E74206E6F74207369676E656420696E20746F206F7572206E6574 PUSH1 0x0 DUP3 ADD MSTORE PUSH32 0x776F726B00000000000000000000000000000000000000000000000000000000 PUSH1 0x20 DUP3 ADD MSTORE POP JUMP JUMPDEST PUSH1 0x0 PUSH2 0x49A7 PUSH1 0x24 DUP4 PUSH2 0x3FD1 JUMP JUMPDEST SWAP2 POP PUSH2 0x49B2 DUP3 PUSH2 0x494B JUMP JUMPDEST PUSH1 0x40 DUP3 ADD SWAP1 POP SWAP2 SWAP1 POP JUMP JUMPDEST PUSH1 0x0 PUSH1 0x20 DUP3 ADD SWAP1 POP DUP2 DUP2 SUB PUSH1 0x0 DUP4 ADD MSTORE PUSH2 0x49D6 DUP2 PUSH2 0x499A JUMP JUMPDEST SWAP1 POP SWAP2 SWAP1 POP JUMP JUMPDEST PUSH32 0x70617469656E74207265636F726420646F65736E277420657869737400000000 PUSH1 0x0 DUP3 ADD MSTORE POP JUMP JUMPDEST PUSH1 0x0 PUSH2 0x4A13 PUSH1 0x1C DUP4 PUSH2 0x3FD1 JUMP JUMPDEST SWAP2 POP PUSH2 0x4A1E DUP3 PUSH2 0x49DD JUMP JUMPDEST PUSH1 0x20 DUP3 ADD SWAP1 POP SWAP2 SWAP1 POP JUMP JUMPDEST PUSH1 0x0 PUSH1 0x20 DUP3 ADD SWAP1 POP DUP2 DUP2 SUB PUSH1 0x0 DUP4 ADD MSTORE PUSH2 0x4A42 DUP2 PUSH2 0x4A06 JUMP JUMPDEST SWAP1 POP SWAP2 SWAP1 POP JUMP JUMPDEST PUSH32 0x4E487B7100000000000000000000000000000000000000000000000000000000 PUSH1 0x0 MSTORE PUSH1 0x32 PUSH1 0x4 MSTORE PUSH1 0x24 PUSH1 0x0 REVERT JUMPDEST PUSH32 0x4E487B7100000000000000000000000000000000000000000000000000000000 PUSH1 0x0 MSTORE PUSH1 0x22 PUSH1 0x4 MSTORE PUSH1 0x24 PUSH1 0x0 REVERT JUMPDEST PUSH1 0x0 PUSH1 0x2 DUP3 DIV SWAP1 POP PUSH1 0x1 DUP3 AND DUP1 PUSH2 0x4ABF JUMPI PUSH1 0x7F DUP3 AND SWAP2 POP JUMPDEST PUSH1 0x20 DUP3 LT DUP2 EQ ISZERO PUSH2 0x4AD3 JUMPI PUSH2 0x4AD2 PUSH2 0x4A78 JUMP JUMPDEST JUMPDEST POP SWAP2 SWAP1 POP JUMP JUMPDEST PUSH32 0x4E487B7100000000000000000000000000000000000000000000000000000000 PUSH1 0x0 MSTORE PUSH1 0x11 PUSH1 0x4 MSTORE PUSH1 0x24 PUSH1 0x0 REVERT JUMPDEST PUSH1 0x0 PUSH2 0x4B13 DUP3 PUSH2 0x3D1C JUMP JUMPDEST SWAP2 POP PUSH32 0xFFFFFFFFFFFFFFFFFFFFFFFFFFFFFFFFFFFFFFFFFFFFFFFFFFFFFFFFFFFFFFFF DUP3 EQ ISZERO PUSH2 0x4B46 JUMPI PUSH2 0x4B45 PUSH2 0x4AD9 JUMP JUMPDEST JUMPDEST PUSH1 0x1 DUP3 ADD SWAP1 POP SWAP2 SWAP1 POP JUMP JUMPDEST PUSH32 0x416C726561647920617574686F72697365642E00000000000000000000000000 PUSH1 0x0 DUP3 ADD MSTORE POP JUMP JUMPDEST PUSH1 0x0 PUSH2 0x4B87 PUSH1 0x13 DUP4 PUSH2 0x3FD1 JUMP JUMPDEST SWAP2 POP PUSH2 0x4B92 DUP3 PUSH2 0x4B51 JUMP JUMPDEST PUSH1 0x20 DUP3 ADD SWAP1 POP SWAP2 SWAP1 POP JUMP JUMPDEST PUSH1 0x0 PUSH1 0x20 DUP3 ADD SWAP1 POP DUP2 DUP2 SUB PUSH1 0x0 DUP4 ADD MSTORE PUSH2 0x4BB6 DUP2 PUSH2 0x4B7A JUMP JUMPDEST SWAP1 POP SWAP2 SWAP1 POP JUMP JUMPDEST PUSH32 0x43616E27742061646420796F757273656C660000000000000000000000000000 PUSH1 0x0 DUP3 ADD MSTORE POP JUMP JUMPDEST PUSH1 0x0 PUSH2 0x4BF3 PUSH1 0x12 DUP4 PUSH2 0x3FD1 JUMP JUMPDEST SWAP2 POP PUSH2 0x4BFE DUP3 PUSH2 0x4BBD JUMP JUMPDEST PUSH1 0x20 DUP3 ADD SWAP1 POP SWAP2 SWAP1 POP JUMP JUMPDEST PUSH1 0x0 PUSH1 0x20 DUP3 ADD SWAP1 POP DUP2 DUP2 SUB PUSH1 0x0 DUP4 ADD MSTORE PUSH2 0x4C22 DUP2 PUSH2 0x4BE6 JUMP JUMPDEST SWAP1 POP SWAP2 SWAP1 POP JUMP JUMPDEST PUSH32 0x446F63746F72206973206E6F7420617070726F7665642E000000000000000000 PUSH1 0x0 DUP3 ADD MSTORE POP JUMP JUMPDEST PUSH1 0x0 PUSH2 0x4C5F PUSH1 0x17 DUP4 PUSH2 0x3FD1 JUMP JUMPDEST SWAP2 POP PUSH2 0x4C6A DUP3 PUSH2 0x4C29 JUMP JUMPDEST PUSH1 0x20 DUP3 ADD SWAP1 POP SWAP2 SWAP1 POP JUMP JUMPDEST PUSH1 0x0 PUSH1 0x20 DUP3 ADD SWAP1 POP DUP2 DUP2 SUB PUSH1 0x0 DUP4 ADD MSTORE PUSH2 0x4C8E DUP2 PUSH2 0x4C52 JUMP JUMPDEST SWAP1 POP SWAP2 SWAP1 POP JUMP JUMPDEST PUSH32 0x5573657220697320616C726561647920612061646D696E212121000000000000 PUSH1 0x0 DUP3 ADD MSTORE POP JUMP JUMPDEST PUSH1 0x0 PUSH2 0x4CCB PUSH1 0x1A DUP4 PUSH2 0x3FD1 JUMP JUMPDEST SWAP2 POP PUSH2 0x4CD6 DUP3 PUSH2 0x4C95 JUMP JUMPDEST PUSH1 0x20 DUP3 ADD SWAP1 POP SWAP2 SWAP1 POP JUMP JUMPDEST PUSH1 0x0 PUSH1 0x20 DUP3 ADD SWAP1 POP DUP2 DUP2 SUB PUSH1 0x0 DUP4 ADD MSTORE PUSH2 0x4CFA DUP2 PUSH2 0x4CBE JUMP JUMPDEST SWAP1 POP SWAP2 SWAP1 POP JUMP JUMPDEST PUSH32 0x446F63746F7220494420646F65736E27742065786973742E0000000000000000 PUSH1 0x0 DUP3 ADD MSTORE POP JUMP JUMPDEST PUSH1 0x0 PUSH2 0x4D37 PUSH1 0x18 DUP4 PUSH2 0x3FD1 JUMP JUMPDEST SWAP2 POP PUSH2 0x4D42 DUP3 PUSH2 0x4D01 JUMP JUMPDEST PUSH1 0x20 DUP3 ADD SWAP1 POP SWAP2 SWAP1 POP JUMP JUMPDEST PUSH1 0x0 PUSH1 0x20 DUP3 ADD SWAP1 POP DUP2 DUP2 SUB PUSH1 0x0 DUP4 ADD MSTORE PUSH2 0x4D66 DUP2 PUSH2 0x4D2A JUMP JUMPDEST SWAP1 POP SWAP2 SWAP1 POP JUMP JUMPDEST PUSH32 0x416C72656164792050617469656E74206163636F756E74206578697374730000 PUSH1 0x0 DUP3 ADD MSTORE POP JUMP JUMPDEST PUSH1 0x0 PUSH2 0x4DA3 PUSH1 0x1E DUP4 PUSH2 0x3FD1 JUMP JUMPDEST SWAP2 POP PUSH2 0x4DAE DUP3 PUSH2 0x4D6D JUMP JUMPDEST PUSH1 0x20 DUP3 ADD SWAP1 POP SWAP2 SWAP1 POP JUMP JUMPDEST PUSH1 0x0 PUSH1 0x20 DUP3 ADD SWAP1 POP DUP2 DUP2 SUB PUSH1 0x0 DUP4 ADD MSTORE PUSH2 0x4DD2 DUP2 PUSH2 0x4D96 JUMP JUMPDEST SWAP1 POP SWAP2 SWAP1 POP JUMP JUMPDEST PUSH1 0x0 PUSH2 0x4DE4 DUP3 PUSH2 0x3D1C JUMP JUMPDEST SWAP2 POP PUSH2 0x4DEF DUP4 PUSH2 0x3D1C JUMP JUMPDEST SWAP3 POP DUP3 PUSH32 0xFFFFFFFFFFFFFFFFFFFFFFFFFFFFFFFFFFFFFFFFFFFFFFFFFFFFFFFFFFFFFFFF SUB DUP3 GT ISZERO PUSH2 0x4E24 JUMPI PUSH2 0x4E23 PUSH2 0x4AD9 JUMP JUMPDEST JUMPDEST DUP3 DUP3 ADD SWAP1 POP SWAP3 SWAP2 POP POP JUMP JUMPDEST PUSH32 0x4F6E6C792041646D696E20686173207065726D697373696F6E20746F20646F20 PUSH1 0x0 DUP3 ADD MSTORE PUSH32 0x7468617420616374696F6E2E0000000000000000000000000000000000000000 PUSH1 0x20 DUP3 ADD MSTORE POP JUMP JUMPDEST PUSH1 0x0 PUSH2 0x4E8B PUSH1 0x2C DUP4 PUSH2 0x3FD1 JUMP JUMPDEST SWAP2 POP PUSH2 0x4E96 DUP3 PUSH2 0x4E2F JUMP JUMPDEST PUSH1 0x40 DUP3 ADD SWAP1 POP SWAP2 SWAP1 POP JUMP JUMPDEST PUSH1 0x0 PUSH1 0x20 DUP3 ADD SWAP1 POP DUP2 DUP2 SUB PUSH1 0x0 DUP4 ADD MSTORE PUSH2 0x4EBA DUP2 PUSH2 0x4E7E JUMP JUMPDEST SWAP1 POP SWAP2 SWAP1 POP JUMP JUMPDEST PUSH32 0x416C72656164792061207265676973746572656420446F63746F722E00000000 PUSH1 0x0 DUP3 ADD MSTORE POP JUMP JUMPDEST PUSH1 0x0 PUSH2 0x4EF7 PUSH1 0x1C DUP4 PUSH2 0x3FD1 JUMP JUMPDEST SWAP2 POP PUSH2 0x4F02 DUP3 PUSH2 0x4EC1 JUMP JUMPDEST PUSH1 0x20 DUP3 ADD SWAP1 POP SWAP2 SWAP1 POP JUMP JUMPDEST PUSH1 0x0 PUSH1 0x20 DUP3 ADD SWAP1 POP DUP2 DUP2 SUB PUSH1 0x0 DUP4 ADD MSTORE PUSH2 0x4F26 DUP2 PUSH2 0x4EEA JUMP JUMPDEST SWAP1 POP SWAP2 SWAP1 POP JUMP JUMPDEST PUSH32 0x416C7265616479206D616E616765722E00000000000000000000000000000000 PUSH1 0x0 DUP3 ADD MSTORE POP JUMP JUMPDEST PUSH1 0x0 PUSH2 0x4F63 PUSH1 0x10 DUP4 PUSH2 0x3FD1 JUMP JUMPDEST SWAP2 POP PUSH2 0x4F6E DUP3 PUSH2 0x4F2D JUMP JUMPDEST PUSH1 0x20 DUP3 ADD SWAP1 POP SWAP2 SWAP1 POP JUMP JUMPDEST PUSH1 0x0 PUSH1 0x20 DUP3 ADD SWAP1 POP DUP2 DUP2 SUB PUSH1 0x0 DUP4 ADD MSTORE PUSH2 0x4F92 DUP2 PUSH2 0x4F56 JUMP JUMPDEST SWAP1 POP SWAP2 SWAP1 POP JUMP JUMPDEST PUSH32 0x416C726561647920204175746821212100000000000000000000000000000000 PUSH1 0x0 DUP3 ADD MSTORE POP JUMP JUMPDEST PUSH1 0x0 PUSH2 0x4FCF PUSH1 0x10 DUP4 PUSH2 0x3FD1 JUMP JUMPDEST SWAP2 POP PUSH2 0x4FDA DUP3 PUSH2 0x4F99 JUMP JUMPDEST PUSH1 0x20 DUP3 ADD SWAP1 POP SWAP2 SWAP1 POP JUMP JUMPDEST PUSH1 0x0 PUSH1 0x20 DUP3 ADD SWAP1 POP DUP2 DUP2 SUB PUSH1 0x0 DUP4 ADD MSTORE PUSH2 0x4FFE DUP2 PUSH2 0x4FC2 JUMP JUMPDEST SWAP1 POP SWAP2 SWAP1 POP JUMP JUMPDEST PUSH32 0x63616E2774206164642073616D6520706572736F6E0000000000000000000000 PUSH1 0x0 DUP3 ADD MSTORE POP JUMP JUMPDEST PUSH1 0x0 PUSH2 0x503B PUSH1 0x15 DUP4 PUSH2 0x3FD1 JUMP JUMPDEST SWAP2 POP PUSH2 0x5046 DUP3 PUSH2 0x5005 JUMP JUMPDEST PUSH1 0x20 DUP3 ADD SWAP1 POP SWAP2 SWAP1 POP JUMP JUMPDEST PUSH1 0x0 PUSH1 0x20 DUP3 ADD SWAP1 POP DUP2 DUP2 SUB PUSH1 0x0 DUP4 ADD MSTORE PUSH2 0x506A DUP2 PUSH2 0x502E JUMP JUMPDEST SWAP1 POP SWAP2 SWAP1 POP JUMP JUMPDEST PUSH32 0x55736572204E6F74207265676973746572656400000000000000000000000000 PUSH1 0x0 DUP3 ADD MSTORE POP JUMP JUMPDEST PUSH1 0x0 PUSH2 0x50A7 PUSH1 0x13 DUP4 PUSH2 0x3FD1 JUMP JUMPDEST SWAP2 POP PUSH2 0x50B2 DUP3 PUSH2 0x5071 JUMP JUMPDEST PUSH1 0x20 DUP3 ADD SWAP1 POP SWAP2 SWAP1 POP JUMP JUMPDEST PUSH1 0x0 PUSH1 0x20 DUP3 ADD SWAP1 POP DUP2 DUP2 SUB PUSH1 0x0 DUP4 ADD MSTORE PUSH2 0x50D6 DUP2 PUSH2 0x509A JUMP JUMPDEST SWAP1 POP SWAP2 SWAP1 POP JUMP JUMPDEST PUSH32 0x4E6F207065726D697373696F6E20746F20616464205265636F72647300000000 PUSH1 0x0 DUP3 ADD MSTORE POP JUMP JUMPDEST PUSH1 0x0 PUSH2 0x5113 PUSH1 0x1C DUP4 PUSH2 0x3FD1 JUMP JUMPDEST SWAP2 POP PUSH2 0x511E DUP3 PUSH2 0x50DD JUMP JUMPDEST PUSH1 0x20 DUP3 ADD SWAP1 POP SWAP2 SWAP1 POP JUMP JUMPDEST PUSH1 0x0 PUSH1 0x20 DUP3 ADD SWAP1 POP DUP2 DUP2 SUB PUSH1 0x0 DUP4 ADD MSTORE PUSH2 0x5142 DUP2 PUSH2 0x5106 JUMP JUMPDEST SWAP1 POP SWAP2 SWAP1 POP JUMP JUMPDEST PUSH32 0x4E6F2050617469656E747320666F756E642061742074686520676976656E2061 PUSH1 0x0 DUP3 ADD MSTORE PUSH32 0x6464726573730000000000000000000000000000000000000000000000000000 PUSH1 0x20 DUP3 ADD MSTORE POP JUMP JUMPDEST PUSH1 0x0 PUSH2 0x51A5 PUSH1 0x26 DUP4 PUSH2 0x3FD1 JUMP JUMPDEST SWAP2 POP PUSH2 0x51B0 DUP3 PUSH2 0x5149 JUMP JUMPDEST PUSH1 0x40 DUP3 ADD SWAP1 POP SWAP2 SWAP1 POP JUMP JUMPDEST PUSH1 0x0 PUSH1 0x20 DUP3 ADD SWAP1 POP DUP2 DUP2 SUB PUSH1 0x0 DUP4 ADD MSTORE PUSH2 0x51D4 DUP2 PUSH2 0x5198 JUMP JUMPDEST SWAP1 POP SWAP2 SWAP1 POP JUMP JUMPDEST PUSH32 0x43616E742072656D6F766520796F757273656C66000000000000000000000000 PUSH1 0x0 DUP3 ADD MSTORE POP JUMP JUMPDEST PUSH1 0x0 PUSH2 0x5211 PUSH1 0x14 DUP4 PUSH2 0x3FD1 JUMP JUMPDEST SWAP2 POP PUSH2 0x521C DUP3 PUSH2 0x51DB JUMP JUMPDEST PUSH1 0x20 DUP3 ADD SWAP1 POP SWAP2 SWAP1 POP JUMP JUMPDEST PUSH1 0x0 PUSH1 0x20 DUP3 ADD SWAP1 POP DUP2 DUP2 SUB PUSH1 0x0 DUP4 ADD MSTORE PUSH2 0x5240 DUP2 PUSH2 0x5204 JUMP JUMPDEST SWAP1 POP SWAP2 SWAP1 POP JUMP JUMPDEST PUSH32 0x416C7265616479204E6F7420417574686F726973656400000000000000000000 PUSH1 0x0 DUP3 ADD MSTORE POP JUMP JUMPDEST PUSH1 0x0 PUSH2 0x527D PUSH1 0x16 DUP4 PUSH2 0x3FD1 JUMP JUMPDEST SWAP2 POP PUSH2 0x5288 DUP3 PUSH2 0x5247 JUMP JUMPDEST PUSH1 0x20 DUP3 ADD SWAP1 POP SWAP2 SWAP1 POP JUMP JUMPDEST PUSH1 0x0 PUSH1 0x20 DUP3 ADD SWAP1 POP DUP2 DUP2 SUB PUSH1 0x0 DUP4 ADD MSTORE PUSH2 0x52AC DUP2 PUSH2 0x5270 JUMP JUMPDEST SWAP1 POP SWAP2 SWAP1 POP JUMP INVALID LOG2 PUSH5 0x6970667358 0x22 SLT KECCAK256 STATICCALL SWAP10 0xE2 0x27 CALLER 0xBE 0xE4 DUP9 PUSH32 0x20B5724ADC9931A00F320CD7373BF89D7EEF6F0AF1205964736F6C6343000809 STOP CALLER "},"gasEstimates":{"creation":{"codeDepositCost":"4245000","executionCost":"58524","totalCost":"4303524"},"external":{"addAdmin(address)":"30611","addAuth(address)":"27564","addAuthFromTo(address,address)":"infinite","addDoctor(string,string,string,string,address)":"infinite","addPatient(string,string,string,string,string,string)":"infinite","addRecord(address,string,string,string,string,string)":"infinite","doctorList(uint256)":"5002","getDoctorByAddress(address)":"infinite","getDoctorById(uint256)":"infinite","getPatientDetails(address)":"infinite","getPatientRecords(address)":"infinite","index()":"2452","manager()":"2578","patient_index()":"2474","removeAdmin(address)":"32824","removeAuthFromTo(address,address)":"infinite","revokeAuth(address)":"27582","setManager(address)":"28694"}},"methodIdentifiers":{"addAdmin(address)":"70480275","addAuth(address)":"5422224e","addAuthFromTo(address,address)":"e0d23e11","addDoctor(string,string,string,string,address)":"b20a8033","addPatient(string,string,string,string,string,string)":"a4f3cc23","addRecord(address,string,string,string,string,string)":"ef264a21","doctorList(uint256)":"127ca4b4","getDoctorByAddress(address)":"58c5d4bf","getDoctorById(uint256)":"91e58375","getPatientDetails(address)":"efe2ccc1","getPatientRecords(address)":"18bd4847","index()":"2986c0e5","manager()":"481c6a75","patient_index()":"46fc6563","removeAdmin(address)":"1785f53c","removeAuthFromTo(address,address)":"0c3c45a0","revokeAuth(address)":"f8171dfa","setManager(address)":"d0ebdbe7"}},"storageLayout":{"storage":[{"astId":4,"contract":"PatientFile.sol:PatientContract","label":"manager","offset":0,"slot":"0","type":"t_address"},{"astId":8,"contract":"PatientFile.sol:PatientContract","label":"isAdmin","offset":0,"slot":"1","type":"t_mapping(t_address,t_bool)"},{"astId":165,"contract":"PatientFile.sol:PatientContract","label":"index","offset":0,"slot":"2","type":"t_uint256"},{"astId":169,"contract":"PatientFile.sol:PatientContract","label":"isDoctor","offset":0,"slot":"3","type":"t_mapping(t_address,t_bool)"},{"astId":189,"contract":"PatientFile.sol:PatientContract","label":"doctors","offset":0,"slot":"4","type":"t_mapping(t_address,t_struct(Doctor)184_storage)"},{"astId":192,"contract":"PatientFile.sol:PatientContract","label":"doctorList","offset":0,"slot":"5","type":"t_array(t_address)dyn_storage"},{"astId":434,"contract":"PatientFile.sol:PatientContract","label":"patient_index","offset":0,"slot":"6","type":"t_uint256"},{"astId":437,"contract":"PatientFile.sol:PatientContract","label":"patientList","offset":0,"slot":"7","type":"t_array(t_address)dyn_storage"},{"astId":443,"contract":"PatientFile.sol:PatientContract","label":"isAuth","offset":0,"slot":"8","type":"t_mapping(t_address,t_mapping(t_address,t_bool))"},{"astId":448,"contract":"PatientFile.sol:PatientContract","label":"patients","offset":0,"slot":"9","type":"t_mapping(t_address,t_struct(Patient)431_storage)"},{"astId":452,"contract":"PatientFile.sol:PatientContract","label":"isPatient","offset":0,"slot":"10","type":"t_mapping(t_address,t_bool)"}],"types":{"t_address":{"encoding":"inplace","label":"address","numberOfBytes":"20"},"t_array(t_address)dyn_storage":{"base":"t_address","encoding":"dynamic_array","label":"address[]","numberOfBytes":"32"},"t_array(t_struct(Records)410_storage)dyn_storage":{"base":"t_struct(Records)410_storage","encoding":"dynamic_array","label":"struct PatientContract.Records[]","numberOfBytes":"32"},"t_bool":{"encoding":"inplace","label":"bool","numberOfBytes":"1"},"t_mapping(t_address,t_bool)":{"encoding":"mapping","key":"t_address","label":"mapping(address => bool)","numberOfBytes":"32","value":"t_bool"},"t_mapping(t_address,t_mapping(t_address,t_bool))":{"encoding":"mapping","key":"t_address","label":"mapping(address => mapping(address => bool))","numberOfBytes":"32","value":"t_mapping(t_address,t_bool)"},"t_mapping(t_address,t_struct(Doctor)184_storage)":{"encoding":"mapping","key":"t_address","label":"mapping(address => struct DoctorContract.Doctor)","numberOfBytes":"32","value":"t_struct(Doctor)184_storage"},"t_mapping(t_address,t_struct(Patient)431_storage)":{"encoding":"mapping","key":"t_address","label":"mapping(address => struct PatientContract.Patient)","numberOfBytes":"32","value":"t_struct(Patient)431_storage"},"t_string_storage":{"encoding":"bytes","label":"string","numberOfBytes":"32"},"t_struct(Doctor)184_storage":{"encoding":"inplace","label":"struct DoctorContract.Doctor","members":[{"astId":171,"contract":"PatientFile.sol:PatientContract","label":"id","offset":0,"slot":"0","type":"t_uint256"},{"astId":173,"contract":"PatientFile.sol:PatientContract","label":"doc_name","offset":0,"slot":"1","type":"t_string_storage"},{"astId":175,"contract":"PatientFile.sol:PatientContract","label":"doc_contact","offset":0,"slot":"2","type":"t_string_storage"},{"astId":177,"contract":"PatientFile.sol:PatientContract","label":"doc_specialisation","offset":0,"slot":"3","type":"t_string_storage"},{"astId":179,"contract":"PatientFile.sol:PatientContract","label":"doc_address","offset":0,"slot":"4","type":"t_string_storage"},{"astId":181,"contract":"PatientFile.sol:PatientContract","label":"addr","offset":0,"slot":"5","type":"t_address"},{"astId":183,"contract":"PatientFile.sol:PatientContract","label":"isApproved","offset":20,"slot":"5","type":"t_bool"}],"numberOfBytes":"192"},"t_struct(Patient)431_storage":{"encoding":"inplace","label":"struct PatientContract.Patient","members":[{"astId":412,"contract":"PatientFile.sol:PatientContract","label":"id","offset":0,"slot":"0","type":"t_uint256"},{"astId":414,"contract":"PatientFile.sol:PatientContract","label":"name","offset":0,"slot":"1","type":"t_string_storage"},{"astId":416,"contract":"PatientFile.sol:PatientContract","label":"phone","offset":0,"slot":"2","type":"t_string_storage"},{"astId":418,"contract":"PatientFile.sol:PatientContract","label":"gender","offset":0,"slot":"3","type":"t_string_storage"},{"astId":420,"contract":"PatientFile.sol:PatientContract","label":"dob","offset":0,"slot":"4","type":"t_string_storage"},{"astId":422,"contract":"PatientFile.sol:PatientContract","label":"bloodgroup","offset":0,"slot":"5","type":"t_string_storage"},{"astId":424,"contract":"PatientFile.sol:PatientContract","label":"allergies","offset":0,"slot":"6","type":"t_string_storage"},{"astId":428,"contract":"PatientFile.sol:PatientContract","label":"records","offset":0,"slot":"7","type":"t_array(t_struct(Records)410_storage)dyn_storage"},{"astId":430,"contract":"PatientFile.sol:PatientContract","label":"addr","offset":0,"slot":"8","type":"t_address"}],"numberOfBytes":"288"},"t_struct(Records)410_storage":{"encoding":"inplace","label":"struct PatientContract.Records","members":[{"astId":401,"contract":"PatientFile.sol:PatientContract","label":"hospital_name","offset":0,"slot":"0","type":"t_string_storage"},{"astId":403,"contract":"PatientFile.sol:PatientContract","label":"reason","offset":0,"slot":"1","type":"t_string_storage"},{"astId":405,"contract":"PatientFile.sol:PatientContract","label":"admittedOn","offset":0,"slot":"2","type":"t_string_storage"},{"astId":407,"contract":"PatientFile.sol:PatientContract","label":"dischargedOn","offset":0,"slot":"3","type":"t_string_storage"},{"astId":409,"contract":"PatientFile.sol:PatientContract","label":"ipfs","offset":0,"slot":"4","type":"t_string_storage"}],"numberOfBytes":"160"},"t_uint256":{"encoding":"inplace","label":"uint256","numberOfBytes":"32"}}},"userdoc":{"kind":"user","methods":{},"version":1}}