{"abi":[{"inputs":[{"internalType":"string","name":"specialisation","type":"string"},{"internalType":"address","name":"creator","type":"address"}],"stateMutability":"nonpayable","type":"constructor"},{"inputs":[{"internalType":"address","name":"_new_head","type":"address"}],"name":"changeManager","outputs":[{"internalType":"bool","name":"success","type":"bool"}],"stateMutability":"nonpayable","type":"function"},{"inputs":[{"internalType":"string","name":"description","type":"string"},{"internalType":"string","name":"fileLink","type":"string"}],"name":"createPatientReport","outputs":[],"stateMutability":"nonpayable","type":"function"},{"inputs":[],"name":"doctorsCount","outputs":[{"internalType":"uint256","name":"","type":"uint256"}],"stateMutability":"view","type":"function"},{"inputs":[{"internalType":"uint256","name":"index","type":"uint256"}],"name":"finalizeReport","outputs":[],"stateMutability":"nonpayable","type":"function"},{"inputs":[],"name":"getNetworkSummary","outputs":[{"internalType":"string","name":"","type":"string"},{"internalType":"uint256","name":"","type":"uint256"},{"internalType":"uint256","name":"","type":"uint256"},{"internalType":"address","name":"","type":"address"},{"internalType":"uint256","name":"","type":"uint256"}],"stateMutability":"view","type":"function"},{"inputs":[],"name":"getReportCount","outputs":[{"internalType":"uint256","name":"","type":"uint256"}],"stateMutability":"view","type":"function"},{"inputs":[],"name":"networkLimit","outputs":[{"internalType":"uint256","name":"","type":"uint256"}],"stateMutability":"view","type":"function"},{"inputs":[],"name":"networkSpecialisation","outputs":[{"internalType":"string","name":"","type":"string"}],"stateMutability":"view","type":"function"},{"inputs":[{"internalType":"address","name":"","type":"address"}],"name":"network_doctors","outputs":[{"internalType":"bool","name":"","type":"bool"}],"stateMutability":"view","type":"function"},{"inputs":[],"name":"network_head","outputs":[{"internalType":"address","name":"","type":"address"}],"stateMutability":"view","type":"function"},{"inputs":[],"name":"numPatientReportCount","outputs":[{"internalType":"uint256","name":"","type":"uint256"}],"stateMutability":"view","type":"function"},{"inputs":[{"internalType":"uint256","name":"","type":"uint256"}],"name":"patientReports","outputs":[{"internalType":"string","name":"description","type":"string"},{"internalType":"string","name":"fileUrl","type":"string"},{"internalType":"address","name":"requestedDoctor","type":"address"},{"internalType":"uint256","name":"approvalCount","type":"uint256"},{"internalType":"bool","name":"verified","type":"bool"}],"stateMutability":"view","type":"function"},{"inputs":[],"name":"registerToNetwork","outputs":[{"internalType":"bool","name":"success","type":"bool"}],"stateMutability":"nonpayable","type":"function"},{"inputs":[{"internalType":"uint256","name":"_limit","type":"uint256"}],"name":"setNetworkLimit","outputs":[{"internalType":"bool","name":"success","type":"bool"}],"stateMutability":"nonpayable","type":"function"},{"inputs":[{"internalType":"uint256","name":"index","type":"uint256"}],"name":"verifyReport","outputs":[],"stateMutability":"nonpayable","type":"function"}],"devdoc":{"kind":"dev","methods":{},"version":1},"evm":{"assembly":"    /* \"DoctorNetwork.sol\":646:4218  contract Network {... */\n  mstore(0x40, 0x80)\n    /* \"DoctorNetwork.sol\":1051:1052  5 */\n  0x05\n    /* \"DoctorNetwork.sol\":1021:1052  uint256 public networkLimit = 5 */\n  0x01\n  sstore\n    /* \"DoctorNetwork.sol\":1228:1229  0 */\n  0x00\n    /* \"DoctorNetwork.sol\":1201:1229  uint public doctorsCount = 0 */\n  0x05\n  sstore\n    /* \"DoctorNetwork.sol\":1459:1670  constructor(string memory specialisation,address creator){... */\n  callvalue\n  dup1\n  iszero\n  tag_1\n  jumpi\n  0x00\n  dup1\n  revert\ntag_1:\n  pop\n  mload(0x40)\n  sub(codesize, bytecodeSize)\n  dup1\n  bytecodeSize\n  dup4\n  codecopy\n  dup2\n  dup2\n  add\n  0x40\n  mstore\n  dup2\n  add\n  swap1\n  tag_2\n  swap2\n  swap1\n  tag_3\n  jump\t// in\ntag_2:\n    /* \"DoctorNetwork.sol\":1550:1564  specialisation */\n  dup2\n    /* \"DoctorNetwork.sol\":1526:1547  networkSpecialisation */\n  0x02\n    /* \"DoctorNetwork.sol\":1526:1564  networkSpecialisation = specialisation */\n  swap1\n  dup1\n  mload\n  swap1\n  0x20\n  add\n  swap1\n  tag_6\n  swap3\n  swap2\n  swap1\n  tag_7\n  jump\t// in\ntag_6:\n  pop\n    /* \"DoctorNetwork.sol\":1589:1596  creator */\n  dup1\n    /* \"DoctorNetwork.sol\":1574:1586  network_head */\n  0x00\n  dup1\n    /* \"DoctorNetwork.sol\":1574:1596  network_head = creator */\n  0x0100\n  exp\n  dup2\n  sload\n  dup2\n  0xffffffffffffffffffffffffffffffffffffffff\n  mul\n  not\n  and\n  swap1\n  dup4\n  0xffffffffffffffffffffffffffffffffffffffff\n  and\n  mul\n  or\n  swap1\n  sstore\n  pop\n    /* \"DoctorNetwork.sol\":1633:1637  true */\n  0x01\n    /* \"DoctorNetwork.sol\":1606:1621  network_doctors */\n  0x03\n    /* \"DoctorNetwork.sol\":1606:1630  network_doctors[creator] */\n  0x00\n    /* \"DoctorNetwork.sol\":1622:1629  creator */\n  dup4\n    /* \"DoctorNetwork.sol\":1606:1630  network_doctors[creator] */\n  0xffffffffffffffffffffffffffffffffffffffff\n  and\n  0xffffffffffffffffffffffffffffffffffffffff\n  and\n  dup2\n  mstore\n  0x20\n  add\n  swap1\n  dup2\n  mstore\n  0x20\n  add\n  0x00\n  keccak256\n  0x00\n    /* \"DoctorNetwork.sol\":1606:1637  network_doctors[creator] = true */\n  0x0100\n  exp\n  dup2\n  sload\n  dup2\n  0xff\n  mul\n  not\n  and\n  swap1\n  dup4\n  iszero\n  iszero\n  mul\n  or\n  swap1\n  sstore\n  pop\n    /* \"DoctorNetwork.sol\":1647:1659  doctorsCount */\n  0x05\n  0x00\n    /* \"DoctorNetwork.sol\":1647:1661  doctorsCount++ */\n  dup2\n  sload\n  dup1\n  swap3\n  swap2\n  swap1\n  tag_8\n  swap1\n  tag_9\n  jump\t// in\ntag_8:\n  swap2\n  swap1\n  pop\n  sstore\n  pop\n    /* \"DoctorNetwork.sol\":1459:1670  constructor(string memory specialisation,address creator){... */\n  pop\n  pop\n    /* \"DoctorNetwork.sol\":646:4218  contract Network {... */\n  jump(tag_10)\ntag_7:\n  dup3\n  dup1\n  sload\n  tag_11\n  swap1\n  tag_12\n  jump\t// in\ntag_11:\n  swap1\n  0x00\n  mstore\n  keccak256(0x00, 0x20)\n  swap1\n  0x1f\n  add\n  0x20\n  swap1\n  div\n  dup2\n  add\n  swap3\n  dup3\n  tag_14\n  jumpi\n  0x00\n  dup6\n  sstore\n  jump(tag_13)\ntag_14:\n  dup3\n  0x1f\n  lt\n  tag_15\n  jumpi\n  dup1\n  mload\n  not(0xff)\n  and\n  dup4\n  dup1\n  add\n  or\n  dup6\n  sstore\n  jump(tag_13)\ntag_15:\n  dup3\n  dup1\n  add\n  0x01\n  add\n  dup6\n  sstore\n  dup3\n  iszero\n  tag_13\n  jumpi\n  swap2\n  dup3\n  add\ntag_16:\n  dup3\n  dup2\n  gt\n  iszero\n  tag_17\n  jumpi\n  dup3\n  mload\n  dup3\n  sstore\n  swap2\n  0x20\n  add\n  swap2\n  swap1\n  0x01\n  add\n  swap1\n  jump(tag_16)\ntag_17:\ntag_13:\n  pop\n  swap1\n  pop\n  tag_18\n  swap2\n  swap1\n  tag_19\n  jump\t// in\ntag_18:\n  pop\n  swap1\n  jump\t// out\ntag_19:\ntag_20:\n  dup1\n  dup3\n  gt\n  iszero\n  tag_21\n  jumpi\n  0x00\n  dup2\n  0x00\n  swap1\n  sstore\n  pop\n  0x01\n  add\n  jump(tag_20)\ntag_21:\n  pop\n  swap1\n  jump\t// out\n    /* \"#utility.yul\":7:82   */\ntag_22:\n    /* \"#utility.yul\":40:46   */\n  0x00\n    /* \"#utility.yul\":73:75   */\n  0x40\n    /* \"#utility.yul\":67:76   */\n  mload\n    /* \"#utility.yul\":57:76   */\n  swap1\n  pop\n    /* \"#utility.yul\":7:82   */\n  swap1\n  jump\t// out\n    /* \"#utility.yul\":88:205   */\ntag_23:\n    /* \"#utility.yul\":197:198   */\n  0x00\n    /* \"#utility.yul\":194:195   */\n  dup1\n    /* \"#utility.yul\":187:199   */\n  revert\n    /* \"#utility.yul\":211:328   */\ntag_24:\n    /* \"#utility.yul\":320:321   */\n  0x00\n    /* \"#utility.yul\":317:318   */\n  dup1\n    /* \"#utility.yul\":310:322   */\n  revert\n    /* \"#utility.yul\":334:451   */\ntag_25:\n    /* \"#utility.yul\":443:444   */\n  0x00\n    /* \"#utility.yul\":440:441   */\n  dup1\n    /* \"#utility.yul\":433:445   */\n  revert\n    /* \"#utility.yul\":457:574   */\ntag_26:\n    /* \"#utility.yul\":566:567   */\n  0x00\n    /* \"#utility.yul\":563:564   */\n  dup1\n    /* \"#utility.yul\":556:568   */\n  revert\n    /* \"#utility.yul\":580:682   */\ntag_27:\n    /* \"#utility.yul\":621:627   */\n  0x00\n    /* \"#utility.yul\":672:674   */\n  0x1f\n    /* \"#utility.yul\":668:675   */\n  not\n    /* \"#utility.yul\":663:665   */\n  0x1f\n    /* \"#utility.yul\":656:661   */\n  dup4\n    /* \"#utility.yul\":652:666   */\n  add\n    /* \"#utility.yul\":648:676   */\n  and\n    /* \"#utility.yul\":638:676   */\n  swap1\n  pop\n    /* \"#utility.yul\":580:682   */\n  swap2\n  swap1\n  pop\n  jump\t// out\n    /* \"#utility.yul\":688:868   */\ntag_28:\n    /* \"#utility.yul\":736:813   */\n  0x4e487b7100000000000000000000000000000000000000000000000000000000\n    /* \"#utility.yul\":733:734   */\n  0x00\n    /* \"#utility.yul\":726:814   */\n  mstore\n    /* \"#utility.yul\":833:837   */\n  0x41\n    /* \"#utility.yul\":830:831   */\n  0x04\n    /* \"#utility.yul\":823:838   */\n  mstore\n    /* \"#utility.yul\":857:861   */\n  0x24\n    /* \"#utility.yul\":854:855   */\n  0x00\n    /* \"#utility.yul\":847:862   */\n  revert\n    /* \"#utility.yul\":874:1155   */\ntag_29:\n    /* \"#utility.yul\":957:984   */\n  tag_51\n    /* \"#utility.yul\":979:983   */\n  dup3\n    /* \"#utility.yul\":957:984   */\n  tag_27\n  jump\t// in\ntag_51:\n    /* \"#utility.yul\":949:955   */\n  dup2\n    /* \"#utility.yul\":945:985   */\n  add\n    /* \"#utility.yul\":1087:1093   */\n  dup2\n    /* \"#utility.yul\":1075:1085   */\n  dup2\n    /* \"#utility.yul\":1072:1094   */\n  lt\n    /* \"#utility.yul\":1051:1069   */\n  0xffffffffffffffff\n    /* \"#utility.yul\":1039:1049   */\n  dup3\n    /* \"#utility.yul\":1036:1070   */\n  gt\n    /* \"#utility.yul\":1033:1095   */\n  or\n    /* \"#utility.yul\":1030:1118   */\n  iszero\n  tag_52\n  jumpi\n    /* \"#utility.yul\":1098:1116   */\n  tag_53\n  tag_28\n  jump\t// in\ntag_53:\n    /* \"#utility.yul\":1030:1118   */\ntag_52:\n    /* \"#utility.yul\":1138:1148   */\n  dup1\n    /* \"#utility.yul\":1134:1136   */\n  0x40\n    /* \"#utility.yul\":1127:1149   */\n  mstore\n    /* \"#utility.yul\":917:1155   */\n  pop\n    /* \"#utility.yul\":874:1155   */\n  pop\n  pop\n  jump\t// out\n    /* \"#utility.yul\":1161:1290   */\ntag_30:\n    /* \"#utility.yul\":1195:1201   */\n  0x00\n    /* \"#utility.yul\":1222:1242   */\n  tag_55\n  tag_22\n  jump\t// in\ntag_55:\n    /* \"#utility.yul\":1212:1242   */\n  swap1\n  pop\n    /* \"#utility.yul\":1251:1284   */\n  tag_56\n    /* \"#utility.yul\":1279:1283   */\n  dup3\n    /* \"#utility.yul\":1271:1277   */\n  dup3\n    /* \"#utility.yul\":1251:1284   */\n  tag_29\n  jump\t// in\ntag_56:\n    /* \"#utility.yul\":1161:1290   */\n  swap2\n  swap1\n  pop\n  jump\t// out\n    /* \"#utility.yul\":1296:1604   */\ntag_31:\n    /* \"#utility.yul\":1358:1362   */\n  0x00\n    /* \"#utility.yul\":1448:1466   */\n  0xffffffffffffffff\n    /* \"#utility.yul\":1440:1446   */\n  dup3\n    /* \"#utility.yul\":1437:1467   */\n  gt\n    /* \"#utility.yul\":1434:1490   */\n  iszero\n  tag_58\n  jumpi\n    /* \"#utility.yul\":1470:1488   */\n  tag_59\n  tag_28\n  jump\t// in\ntag_59:\n    /* \"#utility.yul\":1434:1490   */\ntag_58:\n    /* \"#utility.yul\":1508:1537   */\n  tag_60\n    /* \"#utility.yul\":1530:1536   */\n  dup3\n    /* \"#utility.yul\":1508:1537   */\n  tag_27\n  jump\t// in\ntag_60:\n    /* \"#utility.yul\":1500:1537   */\n  swap1\n  pop\n    /* \"#utility.yul\":1592:1596   */\n  0x20\n    /* \"#utility.yul\":1586:1590   */\n  dup2\n    /* \"#utility.yul\":1582:1597   */\n  add\n    /* \"#utility.yul\":1574:1597   */\n  swap1\n  pop\n    /* \"#utility.yul\":1296:1604   */\n  swap2\n  swap1\n  pop\n  jump\t// out\n    /* \"#utility.yul\":1610:1917   */\ntag_32:\n    /* \"#utility.yul\":1678:1679   */\n  0x00\n    /* \"#utility.yul\":1688:1801   */\ntag_62:\n    /* \"#utility.yul\":1702:1708   */\n  dup4\n    /* \"#utility.yul\":1699:1700   */\n  dup2\n    /* \"#utility.yul\":1696:1709   */\n  lt\n    /* \"#utility.yul\":1688:1801   */\n  iszero\n  tag_64\n  jumpi\n    /* \"#utility.yul\":1787:1788   */\n  dup1\n    /* \"#utility.yul\":1782:1785   */\n  dup3\n    /* \"#utility.yul\":1778:1789   */\n  add\n    /* \"#utility.yul\":1772:1790   */\n  mload\n    /* \"#utility.yul\":1768:1769   */\n  dup2\n    /* \"#utility.yul\":1763:1766   */\n  dup5\n    /* \"#utility.yul\":1759:1770   */\n  add\n    /* \"#utility.yul\":1752:1791   */\n  mstore\n    /* \"#utility.yul\":1724:1726   */\n  0x20\n    /* \"#utility.yul\":1721:1722   */\n  dup2\n    /* \"#utility.yul\":1717:1727   */\n  add\n    /* \"#utility.yul\":1712:1727   */\n  swap1\n  pop\n    /* \"#utility.yul\":1688:1801   */\n  jump(tag_62)\ntag_64:\n    /* \"#utility.yul\":1819:1825   */\n  dup4\n    /* \"#utility.yul\":1816:1817   */\n  dup2\n    /* \"#utility.yul\":1813:1826   */\n  gt\n    /* \"#utility.yul\":1810:1911   */\n  iszero\n  tag_65\n  jumpi\n    /* \"#utility.yul\":1899:1900   */\n  0x00\n    /* \"#utility.yul\":1890:1896   */\n  dup5\n    /* \"#utility.yul\":1885:1888   */\n  dup5\n    /* \"#utility.yul\":1881:1897   */\n  add\n    /* \"#utility.yul\":1874:1901   */\n  mstore\n    /* \"#utility.yul\":1810:1911   */\ntag_65:\n    /* \"#utility.yul\":1659:1917   */\n  pop\n    /* \"#utility.yul\":1610:1917   */\n  pop\n  pop\n  pop\n  jump\t// out\n    /* \"#utility.yul\":1923:2344   */\ntag_33:\n    /* \"#utility.yul\":2012:2017   */\n  0x00\n    /* \"#utility.yul\":2037:2103   */\n  tag_67\n    /* \"#utility.yul\":2053:2102   */\n  tag_68\n    /* \"#utility.yul\":2095:2101   */\n  dup5\n    /* \"#utility.yul\":2053:2102   */\n  tag_31\n  jump\t// in\ntag_68:\n    /* \"#utility.yul\":2037:2103   */\n  tag_30\n  jump\t// in\ntag_67:\n    /* \"#utility.yul\":2028:2103   */\n  swap1\n  pop\n    /* \"#utility.yul\":2126:2132   */\n  dup3\n    /* \"#utility.yul\":2119:2124   */\n  dup2\n    /* \"#utility.yul\":2112:2133   */\n  mstore\n    /* \"#utility.yul\":2164:2168   */\n  0x20\n    /* \"#utility.yul\":2157:2162   */\n  dup2\n    /* \"#utility.yul\":2153:2169   */\n  add\n    /* \"#utility.yul\":2202:2205   */\n  dup5\n    /* \"#utility.yul\":2193:2199   */\n  dup5\n    /* \"#utility.yul\":2188:2191   */\n  dup5\n    /* \"#utility.yul\":2184:2200   */\n  add\n    /* \"#utility.yul\":2181:2206   */\n  gt\n    /* \"#utility.yul\":2178:2290   */\n  iszero\n  tag_69\n  jumpi\n    /* \"#utility.yul\":2209:2288   */\n  tag_70\n  tag_26\n  jump\t// in\ntag_70:\n    /* \"#utility.yul\":2178:2290   */\ntag_69:\n    /* \"#utility.yul\":2299:2338   */\n  tag_71\n    /* \"#utility.yul\":2331:2337   */\n  dup5\n    /* \"#utility.yul\":2326:2329   */\n  dup3\n    /* \"#utility.yul\":2321:2324   */\n  dup6\n    /* \"#utility.yul\":2299:2338   */\n  tag_32\n  jump\t// in\ntag_71:\n    /* \"#utility.yul\":2018:2344   */\n  pop\n    /* \"#utility.yul\":1923:2344   */\n  swap4\n  swap3\n  pop\n  pop\n  pop\n  jump\t// out\n    /* \"#utility.yul\":2364:2719   */\ntag_34:\n    /* \"#utility.yul\":2431:2436   */\n  0x00\n    /* \"#utility.yul\":2480:2483   */\n  dup3\n    /* \"#utility.yul\":2473:2477   */\n  0x1f\n    /* \"#utility.yul\":2465:2471   */\n  dup4\n    /* \"#utility.yul\":2461:2478   */\n  add\n    /* \"#utility.yul\":2457:2484   */\n  slt\n    /* \"#utility.yul\":2447:2569   */\n  tag_73\n  jumpi\n    /* \"#utility.yul\":2488:2567   */\n  tag_74\n  tag_25\n  jump\t// in\ntag_74:\n    /* \"#utility.yul\":2447:2569   */\ntag_73:\n    /* \"#utility.yul\":2598:2604   */\n  dup2\n    /* \"#utility.yul\":2592:2605   */\n  mload\n    /* \"#utility.yul\":2623:2713   */\n  tag_75\n    /* \"#utility.yul\":2709:2712   */\n  dup5\n    /* \"#utility.yul\":2701:2707   */\n  dup3\n    /* \"#utility.yul\":2694:2698   */\n  0x20\n    /* \"#utility.yul\":2686:2692   */\n  dup7\n    /* \"#utility.yul\":2682:2699   */\n  add\n    /* \"#utility.yul\":2623:2713   */\n  tag_33\n  jump\t// in\ntag_75:\n    /* \"#utility.yul\":2614:2713   */\n  swap2\n  pop\n    /* \"#utility.yul\":2437:2719   */\n  pop\n    /* \"#utility.yul\":2364:2719   */\n  swap3\n  swap2\n  pop\n  pop\n  jump\t// out\n    /* \"#utility.yul\":2725:2851   */\ntag_35:\n    /* \"#utility.yul\":2762:2769   */\n  0x00\n    /* \"#utility.yul\":2802:2844   */\n  0xffffffffffffffffffffffffffffffffffffffff\n    /* \"#utility.yul\":2795:2800   */\n  dup3\n    /* \"#utility.yul\":2791:2845   */\n  and\n    /* \"#utility.yul\":2780:2845   */\n  swap1\n  pop\n    /* \"#utility.yul\":2725:2851   */\n  swap2\n  swap1\n  pop\n  jump\t// out\n    /* \"#utility.yul\":2857:2953   */\ntag_36:\n    /* \"#utility.yul\":2894:2901   */\n  0x00\n    /* \"#utility.yul\":2923:2947   */\n  tag_78\n    /* \"#utility.yul\":2941:2946   */\n  dup3\n    /* \"#utility.yul\":2923:2947   */\n  tag_35\n  jump\t// in\ntag_78:\n    /* \"#utility.yul\":2912:2947   */\n  swap1\n  pop\n    /* \"#utility.yul\":2857:2953   */\n  swap2\n  swap1\n  pop\n  jump\t// out\n    /* \"#utility.yul\":2959:3081   */\ntag_37:\n    /* \"#utility.yul\":3032:3056   */\n  tag_80\n    /* \"#utility.yul\":3050:3055   */\n  dup2\n    /* \"#utility.yul\":3032:3056   */\n  tag_36\n  jump\t// in\ntag_80:\n    /* \"#utility.yul\":3025:3030   */\n  dup2\n    /* \"#utility.yul\":3022:3057   */\n  eq\n    /* \"#utility.yul\":3012:3075   */\n  tag_81\n  jumpi\n    /* \"#utility.yul\":3071:3072   */\n  0x00\n    /* \"#utility.yul\":3068:3069   */\n  dup1\n    /* \"#utility.yul\":3061:3073   */\n  revert\n    /* \"#utility.yul\":3012:3075   */\ntag_81:\n    /* \"#utility.yul\":2959:3081   */\n  pop\n  jump\t// out\n    /* \"#utility.yul\":3087:3230   */\ntag_38:\n    /* \"#utility.yul\":3144:3149   */\n  0x00\n    /* \"#utility.yul\":3175:3181   */\n  dup2\n    /* \"#utility.yul\":3169:3182   */\n  mload\n    /* \"#utility.yul\":3160:3182   */\n  swap1\n  pop\n    /* \"#utility.yul\":3191:3224   */\n  tag_83\n    /* \"#utility.yul\":3218:3223   */\n  dup2\n    /* \"#utility.yul\":3191:3224   */\n  tag_37\n  jump\t// in\ntag_83:\n    /* \"#utility.yul\":3087:3230   */\n  swap3\n  swap2\n  pop\n  pop\n  jump\t// out\n    /* \"#utility.yul\":3236:3916   */\ntag_3:\n    /* \"#utility.yul\":3325:3331   */\n  0x00\n    /* \"#utility.yul\":3333:3339   */\n  dup1\n    /* \"#utility.yul\":3382:3384   */\n  0x40\n    /* \"#utility.yul\":3370:3379   */\n  dup4\n    /* \"#utility.yul\":3361:3368   */\n  dup6\n    /* \"#utility.yul\":3357:3380   */\n  sub\n    /* \"#utility.yul\":3353:3385   */\n  slt\n    /* \"#utility.yul\":3350:3469   */\n  iszero\n  tag_85\n  jumpi\n    /* \"#utility.yul\":3388:3467   */\n  tag_86\n  tag_23\n  jump\t// in\ntag_86:\n    /* \"#utility.yul\":3350:3469   */\ntag_85:\n    /* \"#utility.yul\":3529:3530   */\n  0x00\n    /* \"#utility.yul\":3518:3527   */\n  dup4\n    /* \"#utility.yul\":3514:3531   */\n  add\n    /* \"#utility.yul\":3508:3532   */\n  mload\n    /* \"#utility.yul\":3559:3577   */\n  0xffffffffffffffff\n    /* \"#utility.yul\":3551:3557   */\n  dup2\n    /* \"#utility.yul\":3548:3578   */\n  gt\n    /* \"#utility.yul\":3545:3662   */\n  iszero\n  tag_87\n  jumpi\n    /* \"#utility.yul\":3581:3660   */\n  tag_88\n  tag_24\n  jump\t// in\ntag_88:\n    /* \"#utility.yul\":3545:3662   */\ntag_87:\n    /* \"#utility.yul\":3686:3760   */\n  tag_89\n    /* \"#utility.yul\":3752:3759   */\n  dup6\n    /* \"#utility.yul\":3743:3749   */\n  dup3\n    /* \"#utility.yul\":3732:3741   */\n  dup7\n    /* \"#utility.yul\":3728:3750   */\n  add\n    /* \"#utility.yul\":3686:3760   */\n  tag_34\n  jump\t// in\ntag_89:\n    /* \"#utility.yul\":3676:3760   */\n  swap3\n  pop\n    /* \"#utility.yul\":3479:3770   */\n  pop\n    /* \"#utility.yul\":3809:3811   */\n  0x20\n    /* \"#utility.yul\":3835:3899   */\n  tag_90\n    /* \"#utility.yul\":3891:3898   */\n  dup6\n    /* \"#utility.yul\":3882:3888   */\n  dup3\n    /* \"#utility.yul\":3871:3880   */\n  dup7\n    /* \"#utility.yul\":3867:3889   */\n  add\n    /* \"#utility.yul\":3835:3899   */\n  tag_38\n  jump\t// in\ntag_90:\n    /* \"#utility.yul\":3825:3899   */\n  swap2\n  pop\n    /* \"#utility.yul\":3780:3909   */\n  pop\n    /* \"#utility.yul\":3236:3916   */\n  swap3\n  pop\n  swap3\n  swap1\n  pop\n  jump\t// out\n    /* \"#utility.yul\":3922:4102   */\ntag_39:\n    /* \"#utility.yul\":3970:4047   */\n  0x4e487b7100000000000000000000000000000000000000000000000000000000\n    /* \"#utility.yul\":3967:3968   */\n  0x00\n    /* \"#utility.yul\":3960:4048   */\n  mstore\n    /* \"#utility.yul\":4067:4071   */\n  0x11\n    /* \"#utility.yul\":4064:4065   */\n  0x04\n    /* \"#utility.yul\":4057:4072   */\n  mstore\n    /* \"#utility.yul\":4091:4095   */\n  0x24\n    /* \"#utility.yul\":4088:4089   */\n  0x00\n    /* \"#utility.yul\":4081:4096   */\n  revert\n    /* \"#utility.yul\":4108:4185   */\ntag_40:\n    /* \"#utility.yul\":4145:4152   */\n  0x00\n    /* \"#utility.yul\":4174:4179   */\n  dup2\n    /* \"#utility.yul\":4163:4179   */\n  swap1\n  pop\n    /* \"#utility.yul\":4108:4185   */\n  swap2\n  swap1\n  pop\n  jump\t// out\n    /* \"#utility.yul\":4191:4424   */\ntag_9:\n    /* \"#utility.yul\":4230:4233   */\n  0x00\n    /* \"#utility.yul\":4253:4277   */\n  tag_94\n    /* \"#utility.yul\":4271:4276   */\n  dup3\n    /* \"#utility.yul\":4253:4277   */\n  tag_40\n  jump\t// in\ntag_94:\n    /* \"#utility.yul\":4244:4277   */\n  swap2\n  pop\n    /* \"#utility.yul\":4299:4365   */\n  0xffffffffffffffffffffffffffffffffffffffffffffffffffffffffffffffff\n    /* \"#utility.yul\":4292:4297   */\n  dup3\n    /* \"#utility.yul\":4289:4366   */\n  eq\n    /* \"#utility.yul\":4286:4389   */\n  iszero\n  tag_95\n  jumpi\n    /* \"#utility.yul\":4369:4387   */\n  tag_96\n  tag_39\n  jump\t// in\ntag_96:\n    /* \"#utility.yul\":4286:4389   */\ntag_95:\n    /* \"#utility.yul\":4416:4417   */\n  0x01\n    /* \"#utility.yul\":4409:4414   */\n  dup3\n    /* \"#utility.yul\":4405:4418   */\n  add\n    /* \"#utility.yul\":4398:4418   */\n  swap1\n  pop\n    /* \"#utility.yul\":4191:4424   */\n  swap2\n  swap1\n  pop\n  jump\t// out\n    /* \"#utility.yul\":4430:4610   */\ntag_41:\n    /* \"#utility.yul\":4478:4555   */\n  0x4e487b7100000000000000000000000000000000000000000000000000000000\n    /* \"#utility.yul\":4475:4476   */\n  0x00\n    /* \"#utility.yul\":4468:4556   */\n  mstore\n    /* \"#utility.yul\":4575:4579   */\n  0x22\n    /* \"#utility.yul\":4572:4573   */\n  0x04\n    /* \"#utility.yul\":4565:4580   */\n  mstore\n    /* \"#utility.yul\":4599:4603   */\n  0x24\n    /* \"#utility.yul\":4596:4597   */\n  0x00\n    /* \"#utility.yul\":4589:4604   */\n  revert\n    /* \"#utility.yul\":4616:4936   */\ntag_12:\n    /* \"#utility.yul\":4660:4666   */\n  0x00\n    /* \"#utility.yul\":4697:4698   */\n  0x02\n    /* \"#utility.yul\":4691:4695   */\n  dup3\n    /* \"#utility.yul\":4687:4699   */\n  div\n    /* \"#utility.yul\":4677:4699   */\n  swap1\n  pop\n    /* \"#utility.yul\":4744:4745   */\n  0x01\n    /* \"#utility.yul\":4738:4742   */\n  dup3\n    /* \"#utility.yul\":4734:4746   */\n  and\n    /* \"#utility.yul\":4765:4783   */\n  dup1\n    /* \"#utility.yul\":4755:4836   */\n  tag_99\n  jumpi\n    /* \"#utility.yul\":4821:4825   */\n  0x7f\n    /* \"#utility.yul\":4813:4819   */\n  dup3\n    /* \"#utility.yul\":4809:4826   */\n  and\n    /* \"#utility.yul\":4799:4826   */\n  swap2\n  pop\n    /* \"#utility.yul\":4755:4836   */\ntag_99:\n    /* \"#utility.yul\":4883:4885   */\n  0x20\n    /* \"#utility.yul\":4875:4881   */\n  dup3\n    /* \"#utility.yul\":4872:4886   */\n  lt\n    /* \"#utility.yul\":4852:4870   */\n  dup2\n    /* \"#utility.yul\":4849:4887   */\n  eq\n    /* \"#utility.yul\":4846:4930   */\n  iszero\n  tag_100\n  jumpi\n    /* \"#utility.yul\":4902:4920   */\n  tag_101\n  tag_41\n  jump\t// in\ntag_101:\n    /* \"#utility.yul\":4846:4930   */\ntag_100:\n    /* \"#utility.yul\":4667:4936   */\n  pop\n    /* \"#utility.yul\":4616:4936   */\n  swap2\n  swap1\n  pop\n  jump\t// out\n    /* \"DoctorNetwork.sol\":646:4218  contract Network {... */\ntag_10:\n  dataSize(sub_0)\n  dup1\n  dataOffset(sub_0)\n  0x00\n  codecopy\n  0x00\n  return\nstop\n\nsub_0: assembly {\n        /* \"DoctorNetwork.sol\":646:4218  contract Network {... */\n      mstore(0x40, 0x80)\n      callvalue\n      dup1\n      iszero\n      tag_1\n      jumpi\n      0x00\n      dup1\n      revert\n    tag_1:\n      pop\n      jumpi(tag_2, lt(calldatasize, 0x04))\n      shr(0xe0, calldataload(0x00))\n      dup1\n      0x975de960\n      gt\n      tag_18\n      jumpi\n      dup1\n      0xd478e879\n      gt\n      tag_19\n      jumpi\n      dup1\n      0xd478e879\n      eq\n      tag_14\n      jumpi\n      dup1\n      0xda252c91\n      eq\n      tag_15\n      jumpi\n      dup1\n      0xe244ebaa\n      eq\n      tag_16\n      jumpi\n      dup1\n      0xfa9c48b7\n      eq\n      tag_17\n      jumpi\n      jump(tag_2)\n    tag_19:\n      dup1\n      0x975de960\n      eq\n      tag_10\n      jumpi\n      dup1\n      0xa3fbbaae\n      eq\n      tag_11\n      jumpi\n      dup1\n      0xbdaa0671\n      eq\n      tag_12\n      jumpi\n      dup1\n      0xcad9642b\n      eq\n      tag_13\n      jumpi\n      jump(tag_2)\n    tag_18:\n      dup1\n      0x4c6a6f45\n      gt\n      tag_20\n      jumpi\n      dup1\n      0x4c6a6f45\n      eq\n      tag_6\n      jumpi\n      dup1\n      0x52c19c86\n      eq\n      tag_7\n      jumpi\n      dup1\n      0x6df0b3a2\n      eq\n      tag_8\n      jumpi\n      dup1\n      0x8f5e9de3\n      eq\n      tag_9\n      jumpi\n      jump(tag_2)\n    tag_20:\n      dup1\n      0x04bb9bc0\n      eq\n      tag_3\n      jumpi\n      dup1\n      0x09208a75\n      eq\n      tag_4\n      jumpi\n      dup1\n      0x3639f17f\n      eq\n      tag_5\n      jumpi\n    tag_2:\n      0x00\n      dup1\n      revert\n        /* \"DoctorNetwork.sol\":1201:1229  uint public doctorsCount = 0 */\n    tag_3:\n      tag_21\n      tag_22\n      jump\t// in\n    tag_21:\n      mload(0x40)\n      tag_23\n      swap2\n      swap1\n      tag_24\n      jump\t// in\n    tag_23:\n      mload(0x40)\n      dup1\n      swap2\n      sub\n      swap1\n      return\n        /* \"DoctorNetwork.sol\":2695:2984  function verifyReport(uint index) public authorisedDoctor{... */\n    tag_4:\n      tag_25\n      0x04\n      dup1\n      calldatasize\n      sub\n      dup2\n      add\n      swap1\n      tag_26\n      swap2\n      swap1\n      tag_27\n      jump\t// in\n    tag_26:\n      tag_28\n      jump\t// in\n    tag_25:\n      stop\n        /* \"DoctorNetwork.sol\":1021:1052  uint256 public networkLimit = 5 */\n    tag_5:\n      tag_29\n      tag_30\n      jump\t// in\n    tag_29:\n      mload(0x40)\n      tag_31\n      swap2\n      swap1\n      tag_24\n      jump\t// in\n    tag_31:\n      mload(0x40)\n      dup1\n      swap2\n      sub\n      swap1\n      return\n        /* \"DoctorNetwork.sol\":1160:1193  uint public numPatientReportCount */\n    tag_6:\n      tag_32\n      tag_33\n      jump\t// in\n    tag_32:\n      mload(0x40)\n      tag_34\n      swap2\n      swap1\n      tag_24\n      jump\t// in\n    tag_34:\n      mload(0x40)\n      dup1\n      swap2\n      sub\n      swap1\n      return\n        /* \"DoctorNetwork.sol\":1738:2068  function registerToNetwork() public  returns(bool success){... */\n    tag_7:\n      tag_35\n      tag_36\n      jump\t// in\n    tag_35:\n      mload(0x40)\n      tag_37\n      swap2\n      swap1\n      tag_38\n      jump\t// in\n    tag_37:\n      mload(0x40)\n      dup1\n      swap2\n      sub\n      swap1\n      return\n        /* \"DoctorNetwork.sol\":1237:1289  mapping(uint => PatientReport) public patientReports */\n    tag_8:\n      tag_39\n      0x04\n      dup1\n      calldatasize\n      sub\n      dup2\n      add\n      swap1\n      tag_40\n      swap2\n      swap1\n      tag_27\n      jump\t// in\n    tag_40:\n      tag_41\n      jump\t// in\n    tag_39:\n      mload(0x40)\n      tag_42\n      swap6\n      swap5\n      swap4\n      swap3\n      swap2\n      swap1\n      tag_43\n      jump\t// in\n    tag_42:\n      mload(0x40)\n      dup1\n      swap2\n      sub\n      swap1\n      return\n        /* \"DoctorNetwork.sol\":1062:1097  string public networkSpecialisation */\n    tag_9:\n      tag_44\n      tag_45\n      jump\t// in\n    tag_44:\n      mload(0x40)\n      tag_46\n      swap2\n      swap1\n      tag_47\n      jump\t// in\n    tag_46:\n      mload(0x40)\n      dup1\n      swap2\n      sub\n      swap1\n      return\n        /* \"DoctorNetwork.sol\":3066:3431  function createPatientReport(string memory description,string memory fileLink) public authorisedDoctor {... */\n    tag_10:\n      tag_48\n      0x04\n      dup1\n      calldatasize\n      sub\n      dup2\n      add\n      swap1\n      tag_49\n      swap2\n      swap1\n      tag_50\n      jump\t// in\n    tag_49:\n      tag_51\n      jump\t// in\n    tag_48:\n      stop\n        /* \"DoctorNetwork.sol\":2412:2633  function changeManager(address _new_head) public returns(bool success){... */\n    tag_11:\n      tag_52\n      0x04\n      dup1\n      calldatasize\n      sub\n      dup2\n      add\n      swap1\n      tag_53\n      swap2\n      swap1\n      tag_54\n      jump\t// in\n    tag_53:\n      tag_55\n      jump\t// in\n    tag_52:\n      mload(0x40)\n      tag_56\n      swap2\n      swap1\n      tag_38\n      jump\t// in\n    tag_56:\n      mload(0x40)\n      dup1\n      swap2\n      sub\n      swap1\n      return\n        /* \"DoctorNetwork.sol\":2130:2343  function setNetworkLimit(uint256 _limit) public returns(bool success){... */\n    tag_12:\n      tag_57\n      0x04\n      dup1\n      calldatasize\n      sub\n      dup2\n      add\n      swap1\n      tag_58\n      swap2\n      swap1\n      tag_27\n      jump\t// in\n    tag_58:\n      tag_59\n      jump\t// in\n    tag_57:\n      mload(0x40)\n      tag_60\n      swap2\n      swap1\n      tag_38\n      jump\t// in\n    tag_60:\n      mload(0x40)\n      dup1\n      swap2\n      sub\n      swap1\n      return\n        /* \"DoctorNetwork.sol\":4109:4207  function getReportCount() public view returns(uint){... */\n    tag_13:\n      tag_61\n      tag_62\n      jump\t// in\n    tag_61:\n      mload(0x40)\n      tag_63\n      swap2\n      swap1\n      tag_24\n      jump\t// in\n    tag_63:\n      mload(0x40)\n      dup1\n      swap2\n      sub\n      swap1\n      return\n        /* \"DoctorNetwork.sol\":953:980  address public network_head */\n    tag_14:\n      tag_64\n      tag_65\n      jump\t// in\n    tag_64:\n      mload(0x40)\n      tag_66\n      swap2\n      swap1\n      tag_67\n      jump\t// in\n    tag_66:\n      mload(0x40)\n      dup1\n      swap2\n      sub\n      swap1\n      return\n        /* \"DoctorNetwork.sol\":3870:4069  function getNetworkSummary() public view returns(string memory,uint,uint,address,uint) {... */\n    tag_15:\n      tag_68\n      tag_69\n      jump\t// in\n    tag_68:\n      mload(0x40)\n      tag_70\n      swap6\n      swap5\n      swap4\n      swap3\n      swap2\n      swap1\n      tag_71\n      jump\t// in\n    tag_70:\n      mload(0x40)\n      dup1\n      swap2\n      sub\n      swap1\n      return\n        /* \"DoctorNetwork.sol\":1105:1150  mapping(address=>bool) public network_doctors */\n    tag_16:\n      tag_72\n      0x04\n      dup1\n      calldatasize\n      sub\n      dup2\n      add\n      swap1\n      tag_73\n      swap2\n      swap1\n      tag_54\n      jump\t// in\n    tag_73:\n      tag_74\n      jump\t// in\n    tag_72:\n      mload(0x40)\n      tag_75\n      swap2\n      swap1\n      tag_38\n      jump\t// in\n    tag_75:\n      mload(0x40)\n      dup1\n      swap2\n      sub\n      swap1\n      return\n        /* \"DoctorNetwork.sol\":3503:3827  function finalizeReport(uint index) public {... */\n    tag_17:\n      tag_76\n      0x04\n      dup1\n      calldatasize\n      sub\n      dup2\n      add\n      swap1\n      tag_77\n      swap2\n      swap1\n      tag_27\n      jump\t// in\n    tag_77:\n      tag_78\n      jump\t// in\n    tag_76:\n      stop\n        /* \"DoctorNetwork.sol\":1201:1229  uint public doctorsCount = 0 */\n    tag_22:\n      sload(0x05)\n      dup2\n      jump\t// out\n        /* \"DoctorNetwork.sol\":2695:2984  function verifyReport(uint index) public authorisedDoctor{... */\n    tag_28:\n        /* \"DoctorNetwork.sol\":1377:1381  true */\n      0x01\n        /* \"DoctorNetwork.sol\":1346:1381  network_doctors[msg.sender] == true */\n      iszero\n      iszero\n        /* \"DoctorNetwork.sol\":1346:1361  network_doctors */\n      0x03\n        /* \"DoctorNetwork.sol\":1346:1373  network_doctors[msg.sender] */\n      0x00\n        /* \"DoctorNetwork.sol\":1362:1372  msg.sender */\n      caller\n        /* \"DoctorNetwork.sol\":1346:1373  network_doctors[msg.sender] */\n      0xffffffffffffffffffffffffffffffffffffffff\n      and\n      0xffffffffffffffffffffffffffffffffffffffff\n      and\n      dup2\n      mstore\n      0x20\n      add\n      swap1\n      dup2\n      mstore\n      0x20\n      add\n      0x00\n      keccak256\n      0x00\n      swap1\n      sload\n      swap1\n      0x0100\n      exp\n      swap1\n      div\n      0xff\n      and\n        /* \"DoctorNetwork.sol\":1346:1381  network_doctors[msg.sender] == true */\n      iszero\n      iszero\n      eq\n        /* \"DoctorNetwork.sol\":1338:1428  require(network_doctors[msg.sender] == true,\"Only doctors in network can do this action.\") */\n      tag_80\n      jumpi\n      mload(0x40)\n      0x08c379a000000000000000000000000000000000000000000000000000000000\n      dup2\n      mstore\n      0x04\n      add\n      tag_81\n      swap1\n      tag_82\n      jump\t// in\n    tag_81:\n      mload(0x40)\n      dup1\n      swap2\n      sub\n      swap1\n      revert\n    tag_80:\n        /* \"DoctorNetwork.sol\":2770:2794  PatientReport storage pr */\n      0x00\n        /* \"DoctorNetwork.sol\":2797:2811  patientReports */\n      0x06\n        /* \"DoctorNetwork.sol\":2797:2818  patientReports[index] */\n      0x00\n        /* \"DoctorNetwork.sol\":2812:2817  index */\n      dup4\n        /* \"DoctorNetwork.sol\":2797:2818  patientReports[index] */\n      dup2\n      mstore\n      0x20\n      add\n      swap1\n      dup2\n      mstore\n      0x20\n      add\n      0x00\n      keccak256\n        /* \"DoctorNetwork.sol\":2770:2818  PatientReport storage pr = patientReports[index] */\n      swap1\n      pop\n        /* \"DoctorNetwork.sol\":2859:2869  msg.sender */\n      caller\n        /* \"DoctorNetwork.sol\":2838:2869  pr.requestedDoctor!= msg.sender */\n      0xffffffffffffffffffffffffffffffffffffffff\n      and\n        /* \"DoctorNetwork.sol\":2838:2840  pr */\n      dup2\n        /* \"DoctorNetwork.sol\":2838:2856  pr.requestedDoctor */\n      0x02\n      add\n      0x00\n      swap1\n      sload\n      swap1\n      0x0100\n      exp\n      swap1\n      div\n      0xffffffffffffffffffffffffffffffffffffffff\n      and\n        /* \"DoctorNetwork.sol\":2838:2869  pr.requestedDoctor!= msg.sender */\n      0xffffffffffffffffffffffffffffffffffffffff\n      and\n      eq\n      iszero\n        /* \"DoctorNetwork.sol\":2830:2902  require(pr.requestedDoctor!= msg.sender,\"Can't verify your own report.\") */\n      tag_84\n      jumpi\n      mload(0x40)\n      0x08c379a000000000000000000000000000000000000000000000000000000000\n      dup2\n      mstore\n      0x04\n      add\n      tag_85\n      swap1\n      tag_86\n      jump\t// in\n    tag_85:\n      mload(0x40)\n      dup1\n      swap2\n      sub\n      swap1\n      revert\n    tag_84:\n        /* \"DoctorNetwork.sol\":2941:2945  true */\n      0x01\n        /* \"DoctorNetwork.sol\":2914:2916  pr */\n      dup2\n        /* \"DoctorNetwork.sol\":2914:2926  pr.approvals */\n      0x04\n      add\n        /* \"DoctorNetwork.sol\":2914:2938  pr.approvals[msg.sender] */\n      0x00\n        /* \"DoctorNetwork.sol\":2927:2937  msg.sender */\n      caller\n        /* \"DoctorNetwork.sol\":2914:2938  pr.approvals[msg.sender] */\n      0xffffffffffffffffffffffffffffffffffffffff\n      and\n      0xffffffffffffffffffffffffffffffffffffffff\n      and\n      dup2\n      mstore\n      0x20\n      add\n      swap1\n      dup2\n      mstore\n      0x20\n      add\n      0x00\n      keccak256\n      0x00\n        /* \"DoctorNetwork.sol\":2914:2945  pr.approvals[msg.sender] = true */\n      0x0100\n      exp\n      dup2\n      sload\n      dup2\n      0xff\n      mul\n      not\n      and\n      swap1\n      dup4\n      iszero\n      iszero\n      mul\n      or\n      swap1\n      sstore\n      pop\n        /* \"DoctorNetwork.sol\":2955:2957  pr */\n      dup1\n        /* \"DoctorNetwork.sol\":2955:2971  pr.approvalCount */\n      0x03\n      add\n      0x00\n        /* \"DoctorNetwork.sol\":2955:2973  pr.approvalCount++ */\n      dup2\n      sload\n      dup1\n      swap3\n      swap2\n      swap1\n      tag_87\n      swap1\n      tag_88\n      jump\t// in\n    tag_87:\n      swap2\n      swap1\n      pop\n      sstore\n      pop\n        /* \"DoctorNetwork.sol\":2752:2984  {... */\n      pop\n        /* \"DoctorNetwork.sol\":2695:2984  function verifyReport(uint index) public authorisedDoctor{... */\n      pop\n      jump\t// out\n        /* \"DoctorNetwork.sol\":1021:1052  uint256 public networkLimit = 5 */\n    tag_30:\n      sload(0x01)\n      dup2\n      jump\t// out\n        /* \"DoctorNetwork.sol\":1160:1193  uint public numPatientReportCount */\n    tag_33:\n      sload(0x04)\n      dup2\n      jump\t// out\n        /* \"DoctorNetwork.sol\":1738:2068  function registerToNetwork() public  returns(bool success){... */\n    tag_36:\n        /* \"DoctorNetwork.sol\":1783:1795  bool success */\n      0x00\n        /* \"DoctorNetwork.sol\":1829:1841  networkLimit */\n      sload(0x01)\n        /* \"DoctorNetwork.sol\":1814:1826  doctorsCount */\n      sload(0x05)\n        /* \"DoctorNetwork.sol\":1814:1841  doctorsCount < networkLimit */\n      lt\n        /* \"DoctorNetwork.sol\":1806:1884  require(doctorsCount < networkLimit,\"The network has reached its full limit.\") */\n      tag_90\n      jumpi\n      mload(0x40)\n      0x08c379a000000000000000000000000000000000000000000000000000000000\n      dup2\n      mstore\n      0x04\n      add\n      tag_91\n      swap1\n      tag_92\n      jump\t// in\n    tag_91:\n      mload(0x40)\n      dup1\n      swap2\n      sub\n      swap1\n      revert\n    tag_90:\n        /* \"DoctorNetwork.sol\":1932:1936  true */\n      0x01\n        /* \"DoctorNetwork.sol\":1902:1936  network_doctors[msg.sender]!= true */\n      iszero\n      iszero\n        /* \"DoctorNetwork.sol\":1902:1917  network_doctors */\n      0x03\n        /* \"DoctorNetwork.sol\":1902:1929  network_doctors[msg.sender] */\n      0x00\n        /* \"DoctorNetwork.sol\":1918:1928  msg.sender */\n      caller\n        /* \"DoctorNetwork.sol\":1902:1929  network_doctors[msg.sender] */\n      0xffffffffffffffffffffffffffffffffffffffff\n      and\n      0xffffffffffffffffffffffffffffffffffffffff\n      and\n      dup2\n      mstore\n      0x20\n      add\n      swap1\n      dup2\n      mstore\n      0x20\n      add\n      0x00\n      keccak256\n      0x00\n      swap1\n      sload\n      swap1\n      0x0100\n      exp\n      swap1\n      div\n      0xff\n      and\n        /* \"DoctorNetwork.sol\":1902:1936  network_doctors[msg.sender]!= true */\n      iszero\n      iszero\n      eq\n      iszero\n        /* \"DoctorNetwork.sol\":1894:1970  require(network_doctors[msg.sender]!= true,\"Already registered to network.\") */\n      tag_93\n      jumpi\n      mload(0x40)\n      0x08c379a000000000000000000000000000000000000000000000000000000000\n      dup2\n      mstore\n      0x04\n      add\n      tag_94\n      swap1\n      tag_95\n      jump\t// in\n    tag_94:\n      mload(0x40)\n      dup1\n      swap2\n      sub\n      swap1\n      revert\n    tag_93:\n        /* \"DoctorNetwork.sol\":2010:2014  true */\n      0x01\n        /* \"DoctorNetwork.sol\":1980:1995  network_doctors */\n      0x03\n        /* \"DoctorNetwork.sol\":1980:2007  network_doctors[msg.sender] */\n      0x00\n        /* \"DoctorNetwork.sol\":1996:2006  msg.sender */\n      caller\n        /* \"DoctorNetwork.sol\":1980:2007  network_doctors[msg.sender] */\n      0xffffffffffffffffffffffffffffffffffffffff\n      and\n      0xffffffffffffffffffffffffffffffffffffffff\n      and\n      dup2\n      mstore\n      0x20\n      add\n      swap1\n      dup2\n      mstore\n      0x20\n      add\n      0x00\n      keccak256\n      0x00\n        /* \"DoctorNetwork.sol\":1980:2014  network_doctors[msg.sender] = true */\n      0x0100\n      exp\n      dup2\n      sload\n      dup2\n      0xff\n      mul\n      not\n      and\n      swap1\n      dup4\n      iszero\n      iszero\n      mul\n      or\n      swap1\n      sstore\n      pop\n        /* \"DoctorNetwork.sol\":2024:2036  doctorsCount */\n      0x05\n      0x00\n        /* \"DoctorNetwork.sol\":2024:2038  doctorsCount++ */\n      dup2\n      sload\n      dup1\n      swap3\n      swap2\n      swap1\n      tag_96\n      swap1\n      tag_88\n      jump\t// in\n    tag_96:\n      swap2\n      swap1\n      pop\n      sstore\n      pop\n        /* \"DoctorNetwork.sol\":2055:2059  true */\n      0x01\n        /* \"DoctorNetwork.sol\":2048:2059  return true */\n      swap1\n      pop\n        /* \"DoctorNetwork.sol\":1738:2068  function registerToNetwork() public  returns(bool success){... */\n      swap1\n      jump\t// out\n        /* \"DoctorNetwork.sol\":1237:1289  mapping(uint => PatientReport) public patientReports */\n    tag_41:\n      mstore(0x20, 0x06)\n      dup1\n      0x00\n      mstore\n      keccak256(0x00, 0x40)\n      0x00\n      swap2\n      pop\n      swap1\n      pop\n      dup1\n      0x00\n      add\n      dup1\n      sload\n      tag_97\n      swap1\n      tag_98\n      jump\t// in\n    tag_97:\n      dup1\n      0x1f\n      add\n      0x20\n      dup1\n      swap2\n      div\n      mul\n      0x20\n      add\n      mload(0x40)\n      swap1\n      dup2\n      add\n      0x40\n      mstore\n      dup1\n      swap3\n      swap2\n      swap1\n      dup2\n      dup2\n      mstore\n      0x20\n      add\n      dup3\n      dup1\n      sload\n      tag_99\n      swap1\n      tag_98\n      jump\t// in\n    tag_99:\n      dup1\n      iszero\n      tag_100\n      jumpi\n      dup1\n      0x1f\n      lt\n      tag_101\n      jumpi\n      0x0100\n      dup1\n      dup4\n      sload\n      div\n      mul\n      dup4\n      mstore\n      swap2\n      0x20\n      add\n      swap2\n      jump(tag_100)\n    tag_101:\n      dup3\n      add\n      swap2\n      swap1\n      0x00\n      mstore\n      keccak256(0x00, 0x20)\n      swap1\n    tag_102:\n      dup2\n      sload\n      dup2\n      mstore\n      swap1\n      0x01\n      add\n      swap1\n      0x20\n      add\n      dup1\n      dup4\n      gt\n      tag_102\n      jumpi\n      dup3\n      swap1\n      sub\n      0x1f\n      and\n      dup3\n      add\n      swap2\n    tag_100:\n      pop\n      pop\n      pop\n      pop\n      pop\n      swap1\n      dup1\n      0x01\n      add\n      dup1\n      sload\n      tag_103\n      swap1\n      tag_98\n      jump\t// in\n    tag_103:\n      dup1\n      0x1f\n      add\n      0x20\n      dup1\n      swap2\n      div\n      mul\n      0x20\n      add\n      mload(0x40)\n      swap1\n      dup2\n      add\n      0x40\n      mstore\n      dup1\n      swap3\n      swap2\n      swap1\n      dup2\n      dup2\n      mstore\n      0x20\n      add\n      dup3\n      dup1\n      sload\n      tag_104\n      swap1\n      tag_98\n      jump\t// in\n    tag_104:\n      dup1\n      iszero\n      tag_105\n      jumpi\n      dup1\n      0x1f\n      lt\n      tag_106\n      jumpi\n      0x0100\n      dup1\n      dup4\n      sload\n      div\n      mul\n      dup4\n      mstore\n      swap2\n      0x20\n      add\n      swap2\n      jump(tag_105)\n    tag_106:\n      dup3\n      add\n      swap2\n      swap1\n      0x00\n      mstore\n      keccak256(0x00, 0x20)\n      swap1\n    tag_107:\n      dup2\n      sload\n      dup2\n      mstore\n      swap1\n      0x01\n      add\n      swap1\n      0x20\n      add\n      dup1\n      dup4\n      gt\n      tag_107\n      jumpi\n      dup3\n      swap1\n      sub\n      0x1f\n      and\n      dup3\n      add\n      swap2\n    tag_105:\n      pop\n      pop\n      pop\n      pop\n      pop\n      swap1\n      dup1\n      0x02\n      add\n      0x00\n      swap1\n      sload\n      swap1\n      0x0100\n      exp\n      swap1\n      div\n      0xffffffffffffffffffffffffffffffffffffffff\n      and\n      swap1\n      dup1\n      0x03\n      add\n      sload\n      swap1\n      dup1\n      0x05\n      add\n      0x00\n      swap1\n      sload\n      swap1\n      0x0100\n      exp\n      swap1\n      div\n      0xff\n      and\n      swap1\n      pop\n      dup6\n      jump\t// out\n        /* \"DoctorNetwork.sol\":1062:1097  string public networkSpecialisation */\n    tag_45:\n      0x02\n      dup1\n      sload\n      tag_108\n      swap1\n      tag_98\n      jump\t// in\n    tag_108:\n      dup1\n      0x1f\n      add\n      0x20\n      dup1\n      swap2\n      div\n      mul\n      0x20\n      add\n      mload(0x40)\n      swap1\n      dup2\n      add\n      0x40\n      mstore\n      dup1\n      swap3\n      swap2\n      swap1\n      dup2\n      dup2\n      mstore\n      0x20\n      add\n      dup3\n      dup1\n      sload\n      tag_109\n      swap1\n      tag_98\n      jump\t// in\n    tag_109:\n      dup1\n      iszero\n      tag_110\n      jumpi\n      dup1\n      0x1f\n      lt\n      tag_111\n      jumpi\n      0x0100\n      dup1\n      dup4\n      sload\n      div\n      mul\n      dup4\n      mstore\n      swap2\n      0x20\n      add\n      swap2\n      jump(tag_110)\n    tag_111:\n      dup3\n      add\n      swap2\n      swap1\n      0x00\n      mstore\n      keccak256(0x00, 0x20)\n      swap1\n    tag_112:\n      dup2\n      sload\n      dup2\n      mstore\n      swap1\n      0x01\n      add\n      swap1\n      0x20\n      add\n      dup1\n      dup4\n      gt\n      tag_112\n      jumpi\n      dup3\n      swap1\n      sub\n      0x1f\n      and\n      dup3\n      add\n      swap2\n    tag_110:\n      pop\n      pop\n      pop\n      pop\n      pop\n      dup2\n      jump\t// out\n        /* \"DoctorNetwork.sol\":3066:3431  function createPatientReport(string memory description,string memory fileLink) public authorisedDoctor {... */\n    tag_51:\n        /* \"DoctorNetwork.sol\":1377:1381  true */\n      0x01\n        /* \"DoctorNetwork.sol\":1346:1381  network_doctors[msg.sender] == true */\n      iszero\n      iszero\n        /* \"DoctorNetwork.sol\":1346:1361  network_doctors */\n      0x03\n        /* \"DoctorNetwork.sol\":1346:1373  network_doctors[msg.sender] */\n      0x00\n        /* \"DoctorNetwork.sol\":1362:1372  msg.sender */\n      caller\n        /* \"DoctorNetwork.sol\":1346:1373  network_doctors[msg.sender] */\n      0xffffffffffffffffffffffffffffffffffffffff\n      and\n      0xffffffffffffffffffffffffffffffffffffffff\n      and\n      dup2\n      mstore\n      0x20\n      add\n      swap1\n      dup2\n      mstore\n      0x20\n      add\n      0x00\n      keccak256\n      0x00\n      swap1\n      sload\n      swap1\n      0x0100\n      exp\n      swap1\n      div\n      0xff\n      and\n        /* \"DoctorNetwork.sol\":1346:1381  network_doctors[msg.sender] == true */\n      iszero\n      iszero\n      eq\n        /* \"DoctorNetwork.sol\":1338:1428  require(network_doctors[msg.sender] == true,\"Only doctors in network can do this action.\") */\n      tag_114\n      jumpi\n      mload(0x40)\n      0x08c379a000000000000000000000000000000000000000000000000000000000\n      dup2\n      mstore\n      0x04\n      add\n      tag_115\n      swap1\n      tag_82\n      jump\t// in\n    tag_115:\n      mload(0x40)\n      dup1\n      swap2\n      sub\n      swap1\n      revert\n    tag_114:\n        /* \"DoctorNetwork.sol\":3181:3204  PatientReport storage p */\n      0x00\n        /* \"DoctorNetwork.sol\":3207:3221  patientReports */\n      0x06\n        /* \"DoctorNetwork.sol\":3207:3246  patientReports[numPatientReportCount++] */\n      0x00\n        /* \"DoctorNetwork.sol\":3222:3243  numPatientReportCount */\n      0x04\n      0x00\n        /* \"DoctorNetwork.sol\":3222:3245  numPatientReportCount++ */\n      dup2\n      sload\n      dup1\n      swap3\n      swap2\n      swap1\n      tag_117\n      swap1\n      tag_88\n      jump\t// in\n    tag_117:\n      swap2\n      swap1\n      pop\n      sstore\n        /* \"DoctorNetwork.sol\":3207:3246  patientReports[numPatientReportCount++] */\n      dup2\n      mstore\n      0x20\n      add\n      swap1\n      dup2\n      mstore\n      0x20\n      add\n      0x00\n      keccak256\n        /* \"DoctorNetwork.sol\":3181:3246  PatientReport storage p = patientReports[numPatientReportCount++] */\n      swap1\n      pop\n        /* \"DoctorNetwork.sol\":3274:3285  description */\n      dup3\n        /* \"DoctorNetwork.sol\":3258:3259  p */\n      dup2\n        /* \"DoctorNetwork.sol\":3258:3271  p.description */\n      0x00\n      add\n        /* \"DoctorNetwork.sol\":3258:3285  p.description = description */\n      swap1\n      dup1\n      mload\n      swap1\n      0x20\n      add\n      swap1\n      tag_118\n      swap3\n      swap2\n      swap1\n      tag_119\n      jump\t// in\n    tag_118:\n      pop\n        /* \"DoctorNetwork.sol\":3309:3317  fileLink */\n      dup2\n        /* \"DoctorNetwork.sol\":3297:3298  p */\n      dup2\n        /* \"DoctorNetwork.sol\":3297:3306  p.fileUrl */\n      0x01\n      add\n        /* \"DoctorNetwork.sol\":3297:3317  p.fileUrl = fileLink */\n      swap1\n      dup1\n      mload\n      swap1\n      0x20\n      add\n      swap1\n      tag_120\n      swap3\n      swap2\n      swap1\n      tag_119\n      jump\t// in\n    tag_120:\n      pop\n        /* \"DoctorNetwork.sol\":3342:3347  false */\n      0x00\n        /* \"DoctorNetwork.sol\":3329:3330  p */\n      dup2\n        /* \"DoctorNetwork.sol\":3329:3339  p.verified */\n      0x05\n      add\n      0x00\n        /* \"DoctorNetwork.sol\":3329:3347  p.verified = false */\n      0x0100\n      exp\n      dup2\n      sload\n      dup2\n      0xff\n      mul\n      not\n      and\n      swap1\n      dup4\n      iszero\n      iszero\n      mul\n      or\n      swap1\n      sstore\n      pop\n        /* \"DoctorNetwork.sol\":3377:3378  0 */\n      0x00\n        /* \"DoctorNetwork.sol\":3359:3360  p */\n      dup2\n        /* \"DoctorNetwork.sol\":3359:3374  p.approvalCount */\n      0x03\n      add\n        /* \"DoctorNetwork.sol\":3359:3378  p.approvalCount = 0 */\n      dup2\n      swap1\n      sstore\n      pop\n        /* \"DoctorNetwork.sol\":3410:3420  msg.sender */\n      caller\n        /* \"DoctorNetwork.sol\":3390:3391  p */\n      dup2\n        /* \"DoctorNetwork.sol\":3390:3407  p.requestedDoctor */\n      0x02\n      add\n      0x00\n        /* \"DoctorNetwork.sol\":3390:3420  p.requestedDoctor = msg.sender */\n      0x0100\n      exp\n      dup2\n      sload\n      dup2\n      0xffffffffffffffffffffffffffffffffffffffff\n      mul\n      not\n      and\n      swap1\n      dup4\n      0xffffffffffffffffffffffffffffffffffffffff\n      and\n      mul\n      or\n      swap1\n      sstore\n      pop\n        /* \"DoctorNetwork.sol\":3169:3431  {... */\n      pop\n        /* \"DoctorNetwork.sol\":3066:3431  function createPatientReport(string memory description,string memory fileLink) public authorisedDoctor {... */\n      pop\n      pop\n      jump\t// out\n        /* \"DoctorNetwork.sol\":2412:2633  function changeManager(address _new_head) public returns(bool success){... */\n    tag_55:\n        /* \"DoctorNetwork.sol\":2469:2481  bool success */\n      0x00\n        /* \"DoctorNetwork.sol\":2516:2526  msg.sender */\n      caller\n        /* \"DoctorNetwork.sol\":2500:2526  network_head == msg.sender */\n      0xffffffffffffffffffffffffffffffffffffffff\n      and\n        /* \"DoctorNetwork.sol\":2500:2512  network_head */\n      0x00\n      dup1\n      sload\n      swap1\n      0x0100\n      exp\n      swap1\n      div\n      0xffffffffffffffffffffffffffffffffffffffff\n      and\n        /* \"DoctorNetwork.sol\":2500:2526  network_head == msg.sender */\n      0xffffffffffffffffffffffffffffffffffffffff\n      and\n      eq\n        /* \"DoctorNetwork.sol\":2492:2569  require(network_head == msg.sender,\"Only current manager can change manager\") */\n      tag_122\n      jumpi\n      mload(0x40)\n      0x08c379a000000000000000000000000000000000000000000000000000000000\n      dup2\n      mstore\n      0x04\n      add\n      tag_123\n      swap1\n      tag_124\n      jump\t// in\n    tag_123:\n      mload(0x40)\n      dup1\n      swap2\n      sub\n      swap1\n      revert\n    tag_122:\n        /* \"DoctorNetwork.sol\":2594:2603  _new_head */\n      dup2\n        /* \"DoctorNetwork.sol\":2579:2591  network_head */\n      0x00\n      dup1\n        /* \"DoctorNetwork.sol\":2579:2603  network_head = _new_head */\n      0x0100\n      exp\n      dup2\n      sload\n      dup2\n      0xffffffffffffffffffffffffffffffffffffffff\n      mul\n      not\n      and\n      swap1\n      dup4\n      0xffffffffffffffffffffffffffffffffffffffff\n      and\n      mul\n      or\n      swap1\n      sstore\n      pop\n        /* \"DoctorNetwork.sol\":2620:2624  true */\n      0x01\n        /* \"DoctorNetwork.sol\":2613:2624  return true */\n      swap1\n      pop\n        /* \"DoctorNetwork.sol\":2412:2633  function changeManager(address _new_head) public returns(bool success){... */\n      swap2\n      swap1\n      pop\n      jump\t// out\n        /* \"DoctorNetwork.sol\":2130:2343  function setNetworkLimit(uint256 _limit) public returns(bool success){... */\n    tag_59:\n        /* \"DoctorNetwork.sol\":2186:2198  bool success */\n      0x00\n        /* \"DoctorNetwork.sol\":2233:2243  msg.sender */\n      caller\n        /* \"DoctorNetwork.sol\":2217:2243  network_head == msg.sender */\n      0xffffffffffffffffffffffffffffffffffffffff\n      and\n        /* \"DoctorNetwork.sol\":2217:2229  network_head */\n      0x00\n      dup1\n      sload\n      swap1\n      0x0100\n      exp\n      swap1\n      div\n      0xffffffffffffffffffffffffffffffffffffffff\n      and\n        /* \"DoctorNetwork.sol\":2217:2243  network_head == msg.sender */\n      0xffffffffffffffffffffffffffffffffffffffff\n      and\n      eq\n        /* \"DoctorNetwork.sol\":2209:2282  require(network_head == msg.sender,\"Only Manager can set network limit.\") */\n      tag_126\n      jumpi\n      mload(0x40)\n      0x08c379a000000000000000000000000000000000000000000000000000000000\n      dup2\n      mstore\n      0x04\n      add\n      tag_127\n      swap1\n      tag_128\n      jump\t// in\n    tag_127:\n      mload(0x40)\n      dup1\n      swap2\n      sub\n      swap1\n      revert\n    tag_126:\n        /* \"DoctorNetwork.sol\":2307:2313  _limit */\n      dup2\n        /* \"DoctorNetwork.sol\":2292:2304  networkLimit */\n      0x01\n        /* \"DoctorNetwork.sol\":2292:2313  networkLimit = _limit */\n      dup2\n      swap1\n      sstore\n      pop\n        /* \"DoctorNetwork.sol\":2330:2334  true */\n      0x01\n        /* \"DoctorNetwork.sol\":2323:2334  return true */\n      swap1\n      pop\n        /* \"DoctorNetwork.sol\":2130:2343  function setNetworkLimit(uint256 _limit) public returns(bool success){... */\n      swap2\n      swap1\n      pop\n      jump\t// out\n        /* \"DoctorNetwork.sol\":4109:4207  function getReportCount() public view returns(uint){... */\n    tag_62:\n        /* \"DoctorNetwork.sol\":4155:4159  uint */\n      0x00\n        /* \"DoctorNetwork.sol\":4177:4198  numPatientReportCount */\n      sload(0x04)\n        /* \"DoctorNetwork.sol\":4170:4198  return numPatientReportCount */\n      swap1\n      pop\n        /* \"DoctorNetwork.sol\":4109:4207  function getReportCount() public view returns(uint){... */\n      swap1\n      jump\t// out\n        /* \"DoctorNetwork.sol\":953:980  address public network_head */\n    tag_65:\n      0x00\n      dup1\n      sload\n      swap1\n      0x0100\n      exp\n      swap1\n      div\n      0xffffffffffffffffffffffffffffffffffffffff\n      and\n      dup2\n      jump\t// out\n        /* \"DoctorNetwork.sol\":3870:4069  function getNetworkSummary() public view returns(string memory,uint,uint,address,uint) {... */\n    tag_69:\n        /* \"DoctorNetwork.sol\":3919:3932  string memory */\n      0x60\n        /* \"DoctorNetwork.sol\":3933:3937  uint */\n      0x00\n        /* \"DoctorNetwork.sol\":3938:3942  uint */\n      dup1\n        /* \"DoctorNetwork.sol\":3943:3950  address */\n      0x00\n        /* \"DoctorNetwork.sol\":3951:3955  uint */\n      dup1\n        /* \"DoctorNetwork.sol\":3975:3996  networkSpecialisation */\n      0x02\n        /* \"DoctorNetwork.sol\":3997:4018  numPatientReportCount */\n      sload(0x04)\n        /* \"DoctorNetwork.sol\":4019:4031  doctorsCount */\n      sload(0x05)\n        /* \"DoctorNetwork.sol\":4032:4044  network_head */\n      0x00\n      dup1\n      sload\n      swap1\n      0x0100\n      exp\n      swap1\n      div\n      0xffffffffffffffffffffffffffffffffffffffff\n      and\n        /* \"DoctorNetwork.sol\":4045:4057  networkLimit */\n      sload(0x01)\n        /* \"DoctorNetwork.sol\":3967:4058  return (networkSpecialisation,numPatientReportCount,doctorsCount,network_head,networkLimit) */\n      dup5\n      dup1\n      sload\n      tag_131\n      swap1\n      tag_98\n      jump\t// in\n    tag_131:\n      dup1\n      0x1f\n      add\n      0x20\n      dup1\n      swap2\n      div\n      mul\n      0x20\n      add\n      mload(0x40)\n      swap1\n      dup2\n      add\n      0x40\n      mstore\n      dup1\n      swap3\n      swap2\n      swap1\n      dup2\n      dup2\n      mstore\n      0x20\n      add\n      dup3\n      dup1\n      sload\n      tag_132\n      swap1\n      tag_98\n      jump\t// in\n    tag_132:\n      dup1\n      iszero\n      tag_133\n      jumpi\n      dup1\n      0x1f\n      lt\n      tag_134\n      jumpi\n      0x0100\n      dup1\n      dup4\n      sload\n      div\n      mul\n      dup4\n      mstore\n      swap2\n      0x20\n      add\n      swap2\n      jump(tag_133)\n    tag_134:\n      dup3\n      add\n      swap2\n      swap1\n      0x00\n      mstore\n      keccak256(0x00, 0x20)\n      swap1\n    tag_135:\n      dup2\n      sload\n      dup2\n      mstore\n      swap1\n      0x01\n      add\n      swap1\n      0x20\n      add\n      dup1\n      dup4\n      gt\n      tag_135\n      jumpi\n      dup3\n      swap1\n      sub\n      0x1f\n      and\n      dup3\n      add\n      swap2\n    tag_133:\n      pop\n      pop\n      pop\n      pop\n      pop\n      swap5\n      pop\n      swap5\n      pop\n      swap5\n      pop\n      swap5\n      pop\n      swap5\n      pop\n      swap5\n      pop\n        /* \"DoctorNetwork.sol\":3870:4069  function getNetworkSummary() public view returns(string memory,uint,uint,address,uint) {... */\n      swap1\n      swap2\n      swap3\n      swap4\n      swap5\n      jump\t// out\n        /* \"DoctorNetwork.sol\":1105:1150  mapping(address=>bool) public network_doctors */\n    tag_74:\n      mstore(0x20, 0x03)\n      dup1\n      0x00\n      mstore\n      keccak256(0x00, 0x40)\n      0x00\n      swap2\n      pop\n      sload\n      swap1\n      0x0100\n      exp\n      swap1\n      div\n      0xff\n      and\n      dup2\n      jump\t// out\n        /* \"DoctorNetwork.sol\":3503:3827  function finalizeReport(uint index) public {... */\n    tag_78:\n        /* \"DoctorNetwork.sol\":3556:3580  PatientReport storage pr */\n      0x00\n        /* \"DoctorNetwork.sol\":3583:3597  patientReports */\n      0x06\n        /* \"DoctorNetwork.sol\":3583:3604  patientReports[index] */\n      0x00\n        /* \"DoctorNetwork.sol\":3598:3603  index */\n      dup4\n        /* \"DoctorNetwork.sol\":3583:3604  patientReports[index] */\n      dup2\n      mstore\n      0x20\n      add\n      swap1\n      dup2\n      mstore\n      0x20\n      add\n      0x00\n      keccak256\n        /* \"DoctorNetwork.sol\":3556:3604  PatientReport storage pr = patientReports[index] */\n      swap1\n      pop\n        /* \"DoctorNetwork.sol\":3646:3656  msg.sender */\n      caller\n        /* \"DoctorNetwork.sol\":3624:3656  pr.requestedDoctor == msg.sender */\n      0xffffffffffffffffffffffffffffffffffffffff\n      and\n        /* \"DoctorNetwork.sol\":3624:3626  pr */\n      dup2\n        /* \"DoctorNetwork.sol\":3624:3642  pr.requestedDoctor */\n      0x02\n      add\n      0x00\n      swap1\n      sload\n      swap1\n      0x0100\n      exp\n      swap1\n      div\n      0xffffffffffffffffffffffffffffffffffffffff\n      and\n        /* \"DoctorNetwork.sol\":3624:3656  pr.requestedDoctor == msg.sender */\n      0xffffffffffffffffffffffffffffffffffffffff\n      and\n      eq\n        /* \"DoctorNetwork.sol\":3616:3703  require(pr.requestedDoctor == msg.sender,\"Only the creator of report can finalise it.\") */\n      tag_137\n      jumpi\n      mload(0x40)\n      0x08c379a000000000000000000000000000000000000000000000000000000000\n      dup2\n      mstore\n      0x04\n      add\n      tag_138\n      swap1\n      tag_139\n      jump\t// in\n    tag_138:\n      mload(0x40)\n      dup1\n      swap2\n      sub\n      swap1\n      revert\n    tag_137:\n        /* \"DoctorNetwork.sol\":3722:3724  pr */\n      dup1\n        /* \"DoctorNetwork.sol\":3722:3733  pr.verified */\n      0x05\n      add\n      0x00\n      swap1\n      sload\n      swap1\n      0x0100\n      exp\n      swap1\n      div\n      0xff\n      and\n        /* \"DoctorNetwork.sol\":3721:3733  !pr.verified */\n      iszero\n        /* \"DoctorNetwork.sol\":3713:3734  require(!pr.verified) */\n      tag_140\n      jumpi\n      0x00\n      dup1\n      revert\n    tag_140:\n        /* \"DoctorNetwork.sol\":3785:3786  2 */\n      0x02\n        /* \"DoctorNetwork.sol\":3772:3784  doctorsCount */\n      sload(0x05)\n        /* \"DoctorNetwork.sol\":3772:3786  doctorsCount/2 */\n      tag_141\n      swap2\n      swap1\n      tag_142\n      jump\t// in\n    tag_141:\n        /* \"DoctorNetwork.sol\":3752:3754  pr */\n      dup2\n        /* \"DoctorNetwork.sol\":3752:3768  pr.approvalCount */\n      0x03\n      add\n      sload\n        /* \"DoctorNetwork.sol\":3752:3787  pr.approvalCount > (doctorsCount/2) */\n      gt\n        /* \"DoctorNetwork.sol\":3744:3788  require(pr.approvalCount > (doctorsCount/2)) */\n      tag_143\n      jumpi\n      0x00\n      dup1\n      revert\n    tag_143:\n        /* \"DoctorNetwork.sol\":3814:3818  true */\n      0x01\n        /* \"DoctorNetwork.sol\":3800:3802  pr */\n      dup2\n        /* \"DoctorNetwork.sol\":3800:3811  pr.verified */\n      0x05\n      add\n      0x00\n        /* \"DoctorNetwork.sol\":3800:3818  pr.verified = true */\n      0x0100\n      exp\n      dup2\n      sload\n      dup2\n      0xff\n      mul\n      not\n      and\n      swap1\n      dup4\n      iszero\n      iszero\n      mul\n      or\n      swap1\n      sstore\n      pop\n        /* \"DoctorNetwork.sol\":3546:3827  {... */\n      pop\n        /* \"DoctorNetwork.sol\":3503:3827  function finalizeReport(uint index) public {... */\n      pop\n      jump\t// out\n    tag_119:\n      dup3\n      dup1\n      sload\n      tag_144\n      swap1\n      tag_98\n      jump\t// in\n    tag_144:\n      swap1\n      0x00\n      mstore\n      keccak256(0x00, 0x20)\n      swap1\n      0x1f\n      add\n      0x20\n      swap1\n      div\n      dup2\n      add\n      swap3\n      dup3\n      tag_146\n      jumpi\n      0x00\n      dup6\n      sstore\n      jump(tag_145)\n    tag_146:\n      dup3\n      0x1f\n      lt\n      tag_147\n      jumpi\n      dup1\n      mload\n      not(0xff)\n      and\n      dup4\n      dup1\n      add\n      or\n      dup6\n      sstore\n      jump(tag_145)\n    tag_147:\n      dup3\n      dup1\n      add\n      0x01\n      add\n      dup6\n      sstore\n      dup3\n      iszero\n      tag_145\n      jumpi\n      swap2\n      dup3\n      add\n    tag_148:\n      dup3\n      dup2\n      gt\n      iszero\n      tag_149\n      jumpi\n      dup3\n      mload\n      dup3\n      sstore\n      swap2\n      0x20\n      add\n      swap2\n      swap1\n      0x01\n      add\n      swap1\n      jump(tag_148)\n    tag_149:\n    tag_145:\n      pop\n      swap1\n      pop\n      tag_150\n      swap2\n      swap1\n      tag_151\n      jump\t// in\n    tag_150:\n      pop\n      swap1\n      jump\t// out\n    tag_151:\n    tag_152:\n      dup1\n      dup3\n      gt\n      iszero\n      tag_153\n      jumpi\n      0x00\n      dup2\n      0x00\n      swap1\n      sstore\n      pop\n      0x01\n      add\n      jump(tag_152)\n    tag_153:\n      pop\n      swap1\n      jump\t// out\n        /* \"#utility.yul\":7:84   */\n    tag_154:\n        /* \"#utility.yul\":44:51   */\n      0x00\n        /* \"#utility.yul\":73:78   */\n      dup2\n        /* \"#utility.yul\":62:78   */\n      swap1\n      pop\n        /* \"#utility.yul\":7:84   */\n      swap2\n      swap1\n      pop\n      jump\t// out\n        /* \"#utility.yul\":90:208   */\n    tag_155:\n        /* \"#utility.yul\":177:201   */\n      tag_202\n        /* \"#utility.yul\":195:200   */\n      dup2\n        /* \"#utility.yul\":177:201   */\n      tag_154\n      jump\t// in\n    tag_202:\n        /* \"#utility.yul\":172:175   */\n      dup3\n        /* \"#utility.yul\":165:202   */\n      mstore\n        /* \"#utility.yul\":90:208   */\n      pop\n      pop\n      jump\t// out\n        /* \"#utility.yul\":214:436   */\n    tag_24:\n        /* \"#utility.yul\":307:311   */\n      0x00\n        /* \"#utility.yul\":345:347   */\n      0x20\n        /* \"#utility.yul\":334:343   */\n      dup3\n        /* \"#utility.yul\":330:348   */\n      add\n        /* \"#utility.yul\":322:348   */\n      swap1\n      pop\n        /* \"#utility.yul\":358:429   */\n      tag_204\n        /* \"#utility.yul\":426:427   */\n      0x00\n        /* \"#utility.yul\":415:424   */\n      dup4\n        /* \"#utility.yul\":411:428   */\n      add\n        /* \"#utility.yul\":402:408   */\n      dup5\n        /* \"#utility.yul\":358:429   */\n      tag_155\n      jump\t// in\n    tag_204:\n        /* \"#utility.yul\":214:436   */\n      swap3\n      swap2\n      pop\n      pop\n      jump\t// out\n        /* \"#utility.yul\":442:517   */\n    tag_156:\n        /* \"#utility.yul\":475:481   */\n      0x00\n        /* \"#utility.yul\":508:510   */\n      0x40\n        /* \"#utility.yul\":502:511   */\n      mload\n        /* \"#utility.yul\":492:511   */\n      swap1\n      pop\n        /* \"#utility.yul\":442:517   */\n      swap1\n      jump\t// out\n        /* \"#utility.yul\":523:640   */\n    tag_157:\n        /* \"#utility.yul\":632:633   */\n      0x00\n        /* \"#utility.yul\":629:630   */\n      dup1\n        /* \"#utility.yul\":622:634   */\n      revert\n        /* \"#utility.yul\":646:763   */\n    tag_158:\n        /* \"#utility.yul\":755:756   */\n      0x00\n        /* \"#utility.yul\":752:753   */\n      dup1\n        /* \"#utility.yul\":745:757   */\n      revert\n        /* \"#utility.yul\":769:891   */\n    tag_159:\n        /* \"#utility.yul\":842:866   */\n      tag_209\n        /* \"#utility.yul\":860:865   */\n      dup2\n        /* \"#utility.yul\":842:866   */\n      tag_154\n      jump\t// in\n    tag_209:\n        /* \"#utility.yul\":835:840   */\n      dup2\n        /* \"#utility.yul\":832:867   */\n      eq\n        /* \"#utility.yul\":822:885   */\n      tag_210\n      jumpi\n        /* \"#utility.yul\":881:882   */\n      0x00\n        /* \"#utility.yul\":878:879   */\n      dup1\n        /* \"#utility.yul\":871:883   */\n      revert\n        /* \"#utility.yul\":822:885   */\n    tag_210:\n        /* \"#utility.yul\":769:891   */\n      pop\n      jump\t// out\n        /* \"#utility.yul\":897:1036   */\n    tag_160:\n        /* \"#utility.yul\":943:948   */\n      0x00\n        /* \"#utility.yul\":981:987   */\n      dup2\n        /* \"#utility.yul\":968:988   */\n      calldataload\n        /* \"#utility.yul\":959:988   */\n      swap1\n      pop\n        /* \"#utility.yul\":997:1030   */\n      tag_212\n        /* \"#utility.yul\":1024:1029   */\n      dup2\n        /* \"#utility.yul\":997:1030   */\n      tag_159\n      jump\t// in\n    tag_212:\n        /* \"#utility.yul\":897:1036   */\n      swap3\n      swap2\n      pop\n      pop\n      jump\t// out\n        /* \"#utility.yul\":1042:1371   */\n    tag_27:\n        /* \"#utility.yul\":1101:1107   */\n      0x00\n        /* \"#utility.yul\":1150:1152   */\n      0x20\n        /* \"#utility.yul\":1138:1147   */\n      dup3\n        /* \"#utility.yul\":1129:1136   */\n      dup5\n        /* \"#utility.yul\":1125:1148   */\n      sub\n        /* \"#utility.yul\":1121:1153   */\n      slt\n        /* \"#utility.yul\":1118:1237   */\n      iszero\n      tag_214\n      jumpi\n        /* \"#utility.yul\":1156:1235   */\n      tag_215\n      tag_157\n      jump\t// in\n    tag_215:\n        /* \"#utility.yul\":1118:1237   */\n    tag_214:\n        /* \"#utility.yul\":1276:1277   */\n      0x00\n        /* \"#utility.yul\":1301:1354   */\n      tag_216\n        /* \"#utility.yul\":1346:1353   */\n      dup5\n        /* \"#utility.yul\":1337:1343   */\n      dup3\n        /* \"#utility.yul\":1326:1335   */\n      dup6\n        /* \"#utility.yul\":1322:1344   */\n      add\n        /* \"#utility.yul\":1301:1354   */\n      tag_160\n      jump\t// in\n    tag_216:\n        /* \"#utility.yul\":1291:1354   */\n      swap2\n      pop\n        /* \"#utility.yul\":1247:1364   */\n      pop\n        /* \"#utility.yul\":1042:1371   */\n      swap3\n      swap2\n      pop\n      pop\n      jump\t// out\n        /* \"#utility.yul\":1377:1467   */\n    tag_161:\n        /* \"#utility.yul\":1411:1418   */\n      0x00\n        /* \"#utility.yul\":1454:1459   */\n      dup2\n        /* \"#utility.yul\":1447:1460   */\n      iszero\n        /* \"#utility.yul\":1440:1461   */\n      iszero\n        /* \"#utility.yul\":1429:1461   */\n      swap1\n      pop\n        /* \"#utility.yul\":1377:1467   */\n      swap2\n      swap1\n      pop\n      jump\t// out\n        /* \"#utility.yul\":1473:1582   */\n    tag_162:\n        /* \"#utility.yul\":1554:1575   */\n      tag_219\n        /* \"#utility.yul\":1569:1574   */\n      dup2\n        /* \"#utility.yul\":1554:1575   */\n      tag_161\n      jump\t// in\n    tag_219:\n        /* \"#utility.yul\":1549:1552   */\n      dup3\n        /* \"#utility.yul\":1542:1576   */\n      mstore\n        /* \"#utility.yul\":1473:1582   */\n      pop\n      pop\n      jump\t// out\n        /* \"#utility.yul\":1588:1798   */\n    tag_38:\n        /* \"#utility.yul\":1675:1679   */\n      0x00\n        /* \"#utility.yul\":1713:1715   */\n      0x20\n        /* \"#utility.yul\":1702:1711   */\n      dup3\n        /* \"#utility.yul\":1698:1716   */\n      add\n        /* \"#utility.yul\":1690:1716   */\n      swap1\n      pop\n        /* \"#utility.yul\":1726:1791   */\n      tag_221\n        /* \"#utility.yul\":1788:1789   */\n      0x00\n        /* \"#utility.yul\":1777:1786   */\n      dup4\n        /* \"#utility.yul\":1773:1790   */\n      add\n        /* \"#utility.yul\":1764:1770   */\n      dup5\n        /* \"#utility.yul\":1726:1791   */\n      tag_162\n      jump\t// in\n    tag_221:\n        /* \"#utility.yul\":1588:1798   */\n      swap3\n      swap2\n      pop\n      pop\n      jump\t// out\n        /* \"#utility.yul\":1804:1903   */\n    tag_163:\n        /* \"#utility.yul\":1856:1862   */\n      0x00\n        /* \"#utility.yul\":1890:1895   */\n      dup2\n        /* \"#utility.yul\":1884:1896   */\n      mload\n        /* \"#utility.yul\":1874:1896   */\n      swap1\n      pop\n        /* \"#utility.yul\":1804:1903   */\n      swap2\n      swap1\n      pop\n      jump\t// out\n        /* \"#utility.yul\":1909:2078   */\n    tag_164:\n        /* \"#utility.yul\":1993:2004   */\n      0x00\n        /* \"#utility.yul\":2027:2033   */\n      dup3\n        /* \"#utility.yul\":2022:2025   */\n      dup3\n        /* \"#utility.yul\":2015:2034   */\n      mstore\n        /* \"#utility.yul\":2067:2071   */\n      0x20\n        /* \"#utility.yul\":2062:2065   */\n      dup3\n        /* \"#utility.yul\":2058:2072   */\n      add\n        /* \"#utility.yul\":2043:2072   */\n      swap1\n      pop\n        /* \"#utility.yul\":1909:2078   */\n      swap3\n      swap2\n      pop\n      pop\n      jump\t// out\n        /* \"#utility.yul\":2084:2391   */\n    tag_165:\n        /* \"#utility.yul\":2152:2153   */\n      0x00\n        /* \"#utility.yul\":2162:2275   */\n    tag_225:\n        /* \"#utility.yul\":2176:2182   */\n      dup4\n        /* \"#utility.yul\":2173:2174   */\n      dup2\n        /* \"#utility.yul\":2170:2183   */\n      lt\n        /* \"#utility.yul\":2162:2275   */\n      iszero\n      tag_227\n      jumpi\n        /* \"#utility.yul\":2261:2262   */\n      dup1\n        /* \"#utility.yul\":2256:2259   */\n      dup3\n        /* \"#utility.yul\":2252:2263   */\n      add\n        /* \"#utility.yul\":2246:2264   */\n      mload\n        /* \"#utility.yul\":2242:2243   */\n      dup2\n        /* \"#utility.yul\":2237:2240   */\n      dup5\n        /* \"#utility.yul\":2233:2244   */\n      add\n        /* \"#utility.yul\":2226:2265   */\n      mstore\n        /* \"#utility.yul\":2198:2200   */\n      0x20\n        /* \"#utility.yul\":2195:2196   */\n      dup2\n        /* \"#utility.yul\":2191:2201   */\n      add\n        /* \"#utility.yul\":2186:2201   */\n      swap1\n      pop\n        /* \"#utility.yul\":2162:2275   */\n      jump(tag_225)\n    tag_227:\n        /* \"#utility.yul\":2293:2299   */\n      dup4\n        /* \"#utility.yul\":2290:2291   */\n      dup2\n        /* \"#utility.yul\":2287:2300   */\n      gt\n        /* \"#utility.yul\":2284:2385   */\n      iszero\n      tag_228\n      jumpi\n        /* \"#utility.yul\":2373:2374   */\n      0x00\n        /* \"#utility.yul\":2364:2370   */\n      dup5\n        /* \"#utility.yul\":2359:2362   */\n      dup5\n        /* \"#utility.yul\":2355:2371   */\n      add\n        /* \"#utility.yul\":2348:2375   */\n      mstore\n        /* \"#utility.yul\":2284:2385   */\n    tag_228:\n        /* \"#utility.yul\":2133:2391   */\n      pop\n        /* \"#utility.yul\":2084:2391   */\n      pop\n      pop\n      pop\n      jump\t// out\n        /* \"#utility.yul\":2397:2499   */\n    tag_166:\n        /* \"#utility.yul\":2438:2444   */\n      0x00\n        /* \"#utility.yul\":2489:2491   */\n      0x1f\n        /* \"#utility.yul\":2485:2492   */\n      not\n        /* \"#utility.yul\":2480:2482   */\n      0x1f\n        /* \"#utility.yul\":2473:2478   */\n      dup4\n        /* \"#utility.yul\":2469:2483   */\n      add\n        /* \"#utility.yul\":2465:2493   */\n      and\n        /* \"#utility.yul\":2455:2493   */\n      swap1\n      pop\n        /* \"#utility.yul\":2397:2499   */\n      swap2\n      swap1\n      pop\n      jump\t// out\n        /* \"#utility.yul\":2505:2869   */\n    tag_167:\n        /* \"#utility.yul\":2593:2596   */\n      0x00\n        /* \"#utility.yul\":2621:2660   */\n      tag_231\n        /* \"#utility.yul\":2654:2659   */\n      dup3\n        /* \"#utility.yul\":2621:2660   */\n      tag_163\n      jump\t// in\n    tag_231:\n        /* \"#utility.yul\":2676:2747   */\n      tag_232\n        /* \"#utility.yul\":2740:2746   */\n      dup2\n        /* \"#utility.yul\":2735:2738   */\n      dup6\n        /* \"#utility.yul\":2676:2747   */\n      tag_164\n      jump\t// in\n    tag_232:\n        /* \"#utility.yul\":2669:2747   */\n      swap4\n      pop\n        /* \"#utility.yul\":2756:2808   */\n      tag_233\n        /* \"#utility.yul\":2801:2807   */\n      dup2\n        /* \"#utility.yul\":2796:2799   */\n      dup6\n        /* \"#utility.yul\":2789:2793   */\n      0x20\n        /* \"#utility.yul\":2782:2787   */\n      dup7\n        /* \"#utility.yul\":2778:2794   */\n      add\n        /* \"#utility.yul\":2756:2808   */\n      tag_165\n      jump\t// in\n    tag_233:\n        /* \"#utility.yul\":2833:2862   */\n      tag_234\n        /* \"#utility.yul\":2855:2861   */\n      dup2\n        /* \"#utility.yul\":2833:2862   */\n      tag_166\n      jump\t// in\n    tag_234:\n        /* \"#utility.yul\":2828:2831   */\n      dup5\n        /* \"#utility.yul\":2824:2863   */\n      add\n        /* \"#utility.yul\":2817:2863   */\n      swap2\n      pop\n        /* \"#utility.yul\":2597:2869   */\n      pop\n        /* \"#utility.yul\":2505:2869   */\n      swap3\n      swap2\n      pop\n      pop\n      jump\t// out\n        /* \"#utility.yul\":2875:3001   */\n    tag_168:\n        /* \"#utility.yul\":2912:2919   */\n      0x00\n        /* \"#utility.yul\":2952:2994   */\n      0xffffffffffffffffffffffffffffffffffffffff\n        /* \"#utility.yul\":2945:2950   */\n      dup3\n        /* \"#utility.yul\":2941:2995   */\n      and\n        /* \"#utility.yul\":2930:2995   */\n      swap1\n      pop\n        /* \"#utility.yul\":2875:3001   */\n      swap2\n      swap1\n      pop\n      jump\t// out\n        /* \"#utility.yul\":3007:3103   */\n    tag_169:\n        /* \"#utility.yul\":3044:3051   */\n      0x00\n        /* \"#utility.yul\":3073:3097   */\n      tag_237\n        /* \"#utility.yul\":3091:3096   */\n      dup3\n        /* \"#utility.yul\":3073:3097   */\n      tag_168\n      jump\t// in\n    tag_237:\n        /* \"#utility.yul\":3062:3097   */\n      swap1\n      pop\n        /* \"#utility.yul\":3007:3103   */\n      swap2\n      swap1\n      pop\n      jump\t// out\n        /* \"#utility.yul\":3109:3227   */\n    tag_170:\n        /* \"#utility.yul\":3196:3220   */\n      tag_239\n        /* \"#utility.yul\":3214:3219   */\n      dup2\n        /* \"#utility.yul\":3196:3220   */\n      tag_169\n      jump\t// in\n    tag_239:\n        /* \"#utility.yul\":3191:3194   */\n      dup3\n        /* \"#utility.yul\":3184:3221   */\n      mstore\n        /* \"#utility.yul\":3109:3227   */\n      pop\n      pop\n      jump\t// out\n        /* \"#utility.yul\":3233:4067   */\n    tag_43:\n        /* \"#utility.yul\":3472:3476   */\n      0x00\n        /* \"#utility.yul\":3510:3513   */\n      0xa0\n        /* \"#utility.yul\":3499:3508   */\n      dup3\n        /* \"#utility.yul\":3495:3514   */\n      add\n        /* \"#utility.yul\":3487:3514   */\n      swap1\n      pop\n        /* \"#utility.yul\":3560:3569   */\n      dup2\n        /* \"#utility.yul\":3554:3558   */\n      dup2\n        /* \"#utility.yul\":3550:3570   */\n      sub\n        /* \"#utility.yul\":3546:3547   */\n      0x00\n        /* \"#utility.yul\":3535:3544   */\n      dup4\n        /* \"#utility.yul\":3531:3548   */\n      add\n        /* \"#utility.yul\":3524:3571   */\n      mstore\n        /* \"#utility.yul\":3588:3666   */\n      tag_241\n        /* \"#utility.yul\":3661:3665   */\n      dup2\n        /* \"#utility.yul\":3652:3658   */\n      dup9\n        /* \"#utility.yul\":3588:3666   */\n      tag_167\n      jump\t// in\n    tag_241:\n        /* \"#utility.yul\":3580:3666   */\n      swap1\n      pop\n        /* \"#utility.yul\":3713:3722   */\n      dup2\n        /* \"#utility.yul\":3707:3711   */\n      dup2\n        /* \"#utility.yul\":3703:3723   */\n      sub\n        /* \"#utility.yul\":3698:3700   */\n      0x20\n        /* \"#utility.yul\":3687:3696   */\n      dup4\n        /* \"#utility.yul\":3683:3701   */\n      add\n        /* \"#utility.yul\":3676:3724   */\n      mstore\n        /* \"#utility.yul\":3741:3819   */\n      tag_242\n        /* \"#utility.yul\":3814:3818   */\n      dup2\n        /* \"#utility.yul\":3805:3811   */\n      dup8\n        /* \"#utility.yul\":3741:3819   */\n      tag_167\n      jump\t// in\n    tag_242:\n        /* \"#utility.yul\":3733:3819   */\n      swap1\n      pop\n        /* \"#utility.yul\":3829:3901   */\n      tag_243\n        /* \"#utility.yul\":3897:3899   */\n      0x40\n        /* \"#utility.yul\":3886:3895   */\n      dup4\n        /* \"#utility.yul\":3882:3900   */\n      add\n        /* \"#utility.yul\":3873:3879   */\n      dup7\n        /* \"#utility.yul\":3829:3901   */\n      tag_170\n      jump\t// in\n    tag_243:\n        /* \"#utility.yul\":3911:3983   */\n      tag_244\n        /* \"#utility.yul\":3979:3981   */\n      0x60\n        /* \"#utility.yul\":3968:3977   */\n      dup4\n        /* \"#utility.yul\":3964:3982   */\n      add\n        /* \"#utility.yul\":3955:3961   */\n      dup6\n        /* \"#utility.yul\":3911:3983   */\n      tag_155\n      jump\t// in\n    tag_244:\n        /* \"#utility.yul\":3993:4060   */\n      tag_245\n        /* \"#utility.yul\":4055:4058   */\n      0x80\n        /* \"#utility.yul\":4044:4053   */\n      dup4\n        /* \"#utility.yul\":4040:4059   */\n      add\n        /* \"#utility.yul\":4031:4037   */\n      dup5\n        /* \"#utility.yul\":3993:4060   */\n      tag_162\n      jump\t// in\n    tag_245:\n        /* \"#utility.yul\":3233:4067   */\n      swap7\n      swap6\n      pop\n      pop\n      pop\n      pop\n      pop\n      pop\n      jump\t// out\n        /* \"#utility.yul\":4073:4386   */\n    tag_47:\n        /* \"#utility.yul\":4186:4190   */\n      0x00\n        /* \"#utility.yul\":4224:4226   */\n      0x20\n        /* \"#utility.yul\":4213:4222   */\n      dup3\n        /* \"#utility.yul\":4209:4227   */\n      add\n        /* \"#utility.yul\":4201:4227   */\n      swap1\n      pop\n        /* \"#utility.yul\":4273:4282   */\n      dup2\n        /* \"#utility.yul\":4267:4271   */\n      dup2\n        /* \"#utility.yul\":4263:4283   */\n      sub\n        /* \"#utility.yul\":4259:4260   */\n      0x00\n        /* \"#utility.yul\":4248:4257   */\n      dup4\n        /* \"#utility.yul\":4244:4261   */\n      add\n        /* \"#utility.yul\":4237:4284   */\n      mstore\n        /* \"#utility.yul\":4301:4379   */\n      tag_247\n        /* \"#utility.yul\":4374:4378   */\n      dup2\n        /* \"#utility.yul\":4365:4371   */\n      dup5\n        /* \"#utility.yul\":4301:4379   */\n      tag_167\n      jump\t// in\n    tag_247:\n        /* \"#utility.yul\":4293:4379   */\n      swap1\n      pop\n        /* \"#utility.yul\":4073:4386   */\n      swap3\n      swap2\n      pop\n      pop\n      jump\t// out\n        /* \"#utility.yul\":4392:4509   */\n    tag_171:\n        /* \"#utility.yul\":4501:4502   */\n      0x00\n        /* \"#utility.yul\":4498:4499   */\n      dup1\n        /* \"#utility.yul\":4491:4503   */\n      revert\n        /* \"#utility.yul\":4515:4632   */\n    tag_172:\n        /* \"#utility.yul\":4624:4625   */\n      0x00\n        /* \"#utility.yul\":4621:4622   */\n      dup1\n        /* \"#utility.yul\":4614:4626   */\n      revert\n        /* \"#utility.yul\":4638:4818   */\n    tag_173:\n        /* \"#utility.yul\":4686:4763   */\n      0x4e487b7100000000000000000000000000000000000000000000000000000000\n        /* \"#utility.yul\":4683:4684   */\n      0x00\n        /* \"#utility.yul\":4676:4764   */\n      mstore\n        /* \"#utility.yul\":4783:4787   */\n      0x41\n        /* \"#utility.yul\":4780:4781   */\n      0x04\n        /* \"#utility.yul\":4773:4788   */\n      mstore\n        /* \"#utility.yul\":4807:4811   */\n      0x24\n        /* \"#utility.yul\":4804:4805   */\n      0x00\n        /* \"#utility.yul\":4797:4812   */\n      revert\n        /* \"#utility.yul\":4824:5105   */\n    tag_174:\n        /* \"#utility.yul\":4907:4934   */\n      tag_252\n        /* \"#utility.yul\":4929:4933   */\n      dup3\n        /* \"#utility.yul\":4907:4934   */\n      tag_166\n      jump\t// in\n    tag_252:\n        /* \"#utility.yul\":4899:4905   */\n      dup2\n        /* \"#utility.yul\":4895:4935   */\n      add\n        /* \"#utility.yul\":5037:5043   */\n      dup2\n        /* \"#utility.yul\":5025:5035   */\n      dup2\n        /* \"#utility.yul\":5022:5044   */\n      lt\n        /* \"#utility.yul\":5001:5019   */\n      0xffffffffffffffff\n        /* \"#utility.yul\":4989:4999   */\n      dup3\n        /* \"#utility.yul\":4986:5020   */\n      gt\n        /* \"#utility.yul\":4983:5045   */\n      or\n        /* \"#utility.yul\":4980:5068   */\n      iszero\n      tag_253\n      jumpi\n        /* \"#utility.yul\":5048:5066   */\n      tag_254\n      tag_173\n      jump\t// in\n    tag_254:\n        /* \"#utility.yul\":4980:5068   */\n    tag_253:\n        /* \"#utility.yul\":5088:5098   */\n      dup1\n        /* \"#utility.yul\":5084:5086   */\n      0x40\n        /* \"#utility.yul\":5077:5099   */\n      mstore\n        /* \"#utility.yul\":4867:5105   */\n      pop\n        /* \"#utility.yul\":4824:5105   */\n      pop\n      pop\n      jump\t// out\n        /* \"#utility.yul\":5111:5240   */\n    tag_175:\n        /* \"#utility.yul\":5145:5151   */\n      0x00\n        /* \"#utility.yul\":5172:5192   */\n      tag_256\n      tag_156\n      jump\t// in\n    tag_256:\n        /* \"#utility.yul\":5162:5192   */\n      swap1\n      pop\n        /* \"#utility.yul\":5201:5234   */\n      tag_257\n        /* \"#utility.yul\":5229:5233   */\n      dup3\n        /* \"#utility.yul\":5221:5227   */\n      dup3\n        /* \"#utility.yul\":5201:5234   */\n      tag_174\n      jump\t// in\n    tag_257:\n        /* \"#utility.yul\":5111:5240   */\n      swap2\n      swap1\n      pop\n      jump\t// out\n        /* \"#utility.yul\":5246:5554   */\n    tag_176:\n        /* \"#utility.yul\":5308:5312   */\n      0x00\n        /* \"#utility.yul\":5398:5416   */\n      0xffffffffffffffff\n        /* \"#utility.yul\":5390:5396   */\n      dup3\n        /* \"#utility.yul\":5387:5417   */\n      gt\n        /* \"#utility.yul\":5384:5440   */\n      iszero\n      tag_259\n      jumpi\n        /* \"#utility.yul\":5420:5438   */\n      tag_260\n      tag_173\n      jump\t// in\n    tag_260:\n        /* \"#utility.yul\":5384:5440   */\n    tag_259:\n        /* \"#utility.yul\":5458:5487   */\n      tag_261\n        /* \"#utility.yul\":5480:5486   */\n      dup3\n        /* \"#utility.yul\":5458:5487   */\n      tag_166\n      jump\t// in\n    tag_261:\n        /* \"#utility.yul\":5450:5487   */\n      swap1\n      pop\n        /* \"#utility.yul\":5542:5546   */\n      0x20\n        /* \"#utility.yul\":5536:5540   */\n      dup2\n        /* \"#utility.yul\":5532:5547   */\n      add\n        /* \"#utility.yul\":5524:5547   */\n      swap1\n      pop\n        /* \"#utility.yul\":5246:5554   */\n      swap2\n      swap1\n      pop\n      jump\t// out\n        /* \"#utility.yul\":5560:5714   */\n    tag_177:\n        /* \"#utility.yul\":5644:5650   */\n      dup3\n        /* \"#utility.yul\":5639:5642   */\n      dup2\n        /* \"#utility.yul\":5634:5637   */\n      dup4\n        /* \"#utility.yul\":5621:5651   */\n      calldatacopy\n        /* \"#utility.yul\":5706:5707   */\n      0x00\n        /* \"#utility.yul\":5697:5703   */\n      dup4\n        /* \"#utility.yul\":5692:5695   */\n      dup4\n        /* \"#utility.yul\":5688:5704   */\n      add\n        /* \"#utility.yul\":5681:5708   */\n      mstore\n        /* \"#utility.yul\":5560:5714   */\n      pop\n      pop\n      pop\n      jump\t// out\n        /* \"#utility.yul\":5720:6132   */\n    tag_178:\n        /* \"#utility.yul\":5798:5803   */\n      0x00\n        /* \"#utility.yul\":5823:5889   */\n      tag_264\n        /* \"#utility.yul\":5839:5888   */\n      tag_265\n        /* \"#utility.yul\":5881:5887   */\n      dup5\n        /* \"#utility.yul\":5839:5888   */\n      tag_176\n      jump\t// in\n    tag_265:\n        /* \"#utility.yul\":5823:5889   */\n      tag_175\n      jump\t// in\n    tag_264:\n        /* \"#utility.yul\":5814:5889   */\n      swap1\n      pop\n        /* \"#utility.yul\":5912:5918   */\n      dup3\n        /* \"#utility.yul\":5905:5910   */\n      dup2\n        /* \"#utility.yul\":5898:5919   */\n      mstore\n        /* \"#utility.yul\":5950:5954   */\n      0x20\n        /* \"#utility.yul\":5943:5948   */\n      dup2\n        /* \"#utility.yul\":5939:5955   */\n      add\n        /* \"#utility.yul\":5988:5991   */\n      dup5\n        /* \"#utility.yul\":5979:5985   */\n      dup5\n        /* \"#utility.yul\":5974:5977   */\n      dup5\n        /* \"#utility.yul\":5970:5986   */\n      add\n        /* \"#utility.yul\":5967:5992   */\n      gt\n        /* \"#utility.yul\":5964:6076   */\n      iszero\n      tag_266\n      jumpi\n        /* \"#utility.yul\":5995:6074   */\n      tag_267\n      tag_172\n      jump\t// in\n    tag_267:\n        /* \"#utility.yul\":5964:6076   */\n    tag_266:\n        /* \"#utility.yul\":6085:6126   */\n      tag_268\n        /* \"#utility.yul\":6119:6125   */\n      dup5\n        /* \"#utility.yul\":6114:6117   */\n      dup3\n        /* \"#utility.yul\":6109:6112   */\n      dup6\n        /* \"#utility.yul\":6085:6126   */\n      tag_177\n      jump\t// in\n    tag_268:\n        /* \"#utility.yul\":5804:6132   */\n      pop\n        /* \"#utility.yul\":5720:6132   */\n      swap4\n      swap3\n      pop\n      pop\n      pop\n      jump\t// out\n        /* \"#utility.yul\":6152:6492   */\n    tag_179:\n        /* \"#utility.yul\":6208:6213   */\n      0x00\n        /* \"#utility.yul\":6257:6260   */\n      dup3\n        /* \"#utility.yul\":6250:6254   */\n      0x1f\n        /* \"#utility.yul\":6242:6248   */\n      dup4\n        /* \"#utility.yul\":6238:6255   */\n      add\n        /* \"#utility.yul\":6234:6261   */\n      slt\n        /* \"#utility.yul\":6224:6346   */\n      tag_270\n      jumpi\n        /* \"#utility.yul\":6265:6344   */\n      tag_271\n      tag_171\n      jump\t// in\n    tag_271:\n        /* \"#utility.yul\":6224:6346   */\n    tag_270:\n        /* \"#utility.yul\":6382:6388   */\n      dup2\n        /* \"#utility.yul\":6369:6389   */\n      calldataload\n        /* \"#utility.yul\":6407:6486   */\n      tag_272\n        /* \"#utility.yul\":6482:6485   */\n      dup5\n        /* \"#utility.yul\":6474:6480   */\n      dup3\n        /* \"#utility.yul\":6467:6471   */\n      0x20\n        /* \"#utility.yul\":6459:6465   */\n      dup7\n        /* \"#utility.yul\":6455:6472   */\n      add\n        /* \"#utility.yul\":6407:6486   */\n      tag_178\n      jump\t// in\n    tag_272:\n        /* \"#utility.yul\":6398:6486   */\n      swap2\n      pop\n        /* \"#utility.yul\":6214:6492   */\n      pop\n        /* \"#utility.yul\":6152:6492   */\n      swap3\n      swap2\n      pop\n      pop\n      jump\t// out\n        /* \"#utility.yul\":6498:7332   */\n    tag_50:\n        /* \"#utility.yul\":6586:6592   */\n      0x00\n        /* \"#utility.yul\":6594:6600   */\n      dup1\n        /* \"#utility.yul\":6643:6645   */\n      0x40\n        /* \"#utility.yul\":6631:6640   */\n      dup4\n        /* \"#utility.yul\":6622:6629   */\n      dup6\n        /* \"#utility.yul\":6618:6641   */\n      sub\n        /* \"#utility.yul\":6614:6646   */\n      slt\n        /* \"#utility.yul\":6611:6730   */\n      iszero\n      tag_274\n      jumpi\n        /* \"#utility.yul\":6649:6728   */\n      tag_275\n      tag_157\n      jump\t// in\n    tag_275:\n        /* \"#utility.yul\":6611:6730   */\n    tag_274:\n        /* \"#utility.yul\":6797:6798   */\n      0x00\n        /* \"#utility.yul\":6786:6795   */\n      dup4\n        /* \"#utility.yul\":6782:6799   */\n      add\n        /* \"#utility.yul\":6769:6800   */\n      calldataload\n        /* \"#utility.yul\":6827:6845   */\n      0xffffffffffffffff\n        /* \"#utility.yul\":6819:6825   */\n      dup2\n        /* \"#utility.yul\":6816:6846   */\n      gt\n        /* \"#utility.yul\":6813:6930   */\n      iszero\n      tag_276\n      jumpi\n        /* \"#utility.yul\":6849:6928   */\n      tag_277\n      tag_158\n      jump\t// in\n    tag_277:\n        /* \"#utility.yul\":6813:6930   */\n    tag_276:\n        /* \"#utility.yul\":6954:7017   */\n      tag_278\n        /* \"#utility.yul\":7009:7016   */\n      dup6\n        /* \"#utility.yul\":7000:7006   */\n      dup3\n        /* \"#utility.yul\":6989:6998   */\n      dup7\n        /* \"#utility.yul\":6985:7007   */\n      add\n        /* \"#utility.yul\":6954:7017   */\n      tag_179\n      jump\t// in\n    tag_278:\n        /* \"#utility.yul\":6944:7017   */\n      swap3\n      pop\n        /* \"#utility.yul\":6740:7027   */\n      pop\n        /* \"#utility.yul\":7094:7096   */\n      0x20\n        /* \"#utility.yul\":7083:7092   */\n      dup4\n        /* \"#utility.yul\":7079:7097   */\n      add\n        /* \"#utility.yul\":7066:7098   */\n      calldataload\n        /* \"#utility.yul\":7125:7143   */\n      0xffffffffffffffff\n        /* \"#utility.yul\":7117:7123   */\n      dup2\n        /* \"#utility.yul\":7114:7144   */\n      gt\n        /* \"#utility.yul\":7111:7228   */\n      iszero\n      tag_279\n      jumpi\n        /* \"#utility.yul\":7147:7226   */\n      tag_280\n      tag_158\n      jump\t// in\n    tag_280:\n        /* \"#utility.yul\":7111:7228   */\n    tag_279:\n        /* \"#utility.yul\":7252:7315   */\n      tag_281\n        /* \"#utility.yul\":7307:7314   */\n      dup6\n        /* \"#utility.yul\":7298:7304   */\n      dup3\n        /* \"#utility.yul\":7287:7296   */\n      dup7\n        /* \"#utility.yul\":7283:7305   */\n      add\n        /* \"#utility.yul\":7252:7315   */\n      tag_179\n      jump\t// in\n    tag_281:\n        /* \"#utility.yul\":7242:7315   */\n      swap2\n      pop\n        /* \"#utility.yul\":7037:7325   */\n      pop\n        /* \"#utility.yul\":6498:7332   */\n      swap3\n      pop\n      swap3\n      swap1\n      pop\n      jump\t// out\n        /* \"#utility.yul\":7338:7460   */\n    tag_180:\n        /* \"#utility.yul\":7411:7435   */\n      tag_283\n        /* \"#utility.yul\":7429:7434   */\n      dup2\n        /* \"#utility.yul\":7411:7435   */\n      tag_169\n      jump\t// in\n    tag_283:\n        /* \"#utility.yul\":7404:7409   */\n      dup2\n        /* \"#utility.yul\":7401:7436   */\n      eq\n        /* \"#utility.yul\":7391:7454   */\n      tag_284\n      jumpi\n        /* \"#utility.yul\":7450:7451   */\n      0x00\n        /* \"#utility.yul\":7447:7448   */\n      dup1\n        /* \"#utility.yul\":7440:7452   */\n      revert\n        /* \"#utility.yul\":7391:7454   */\n    tag_284:\n        /* \"#utility.yul\":7338:7460   */\n      pop\n      jump\t// out\n        /* \"#utility.yul\":7466:7605   */\n    tag_181:\n        /* \"#utility.yul\":7512:7517   */\n      0x00\n        /* \"#utility.yul\":7550:7556   */\n      dup2\n        /* \"#utility.yul\":7537:7557   */\n      calldataload\n        /* \"#utility.yul\":7528:7557   */\n      swap1\n      pop\n        /* \"#utility.yul\":7566:7599   */\n      tag_286\n        /* \"#utility.yul\":7593:7598   */\n      dup2\n        /* \"#utility.yul\":7566:7599   */\n      tag_180\n      jump\t// in\n    tag_286:\n        /* \"#utility.yul\":7466:7605   */\n      swap3\n      swap2\n      pop\n      pop\n      jump\t// out\n        /* \"#utility.yul\":7611:7940   */\n    tag_54:\n        /* \"#utility.yul\":7670:7676   */\n      0x00\n        /* \"#utility.yul\":7719:7721   */\n      0x20\n        /* \"#utility.yul\":7707:7716   */\n      dup3\n        /* \"#utility.yul\":7698:7705   */\n      dup5\n        /* \"#utility.yul\":7694:7717   */\n      sub\n        /* \"#utility.yul\":7690:7722   */\n      slt\n        /* \"#utility.yul\":7687:7806   */\n      iszero\n      tag_288\n      jumpi\n        /* \"#utility.yul\":7725:7804   */\n      tag_289\n      tag_157\n      jump\t// in\n    tag_289:\n        /* \"#utility.yul\":7687:7806   */\n    tag_288:\n        /* \"#utility.yul\":7845:7846   */\n      0x00\n        /* \"#utility.yul\":7870:7923   */\n      tag_290\n        /* \"#utility.yul\":7915:7922   */\n      dup5\n        /* \"#utility.yul\":7906:7912   */\n      dup3\n        /* \"#utility.yul\":7895:7904   */\n      dup6\n        /* \"#utility.yul\":7891:7913   */\n      add\n        /* \"#utility.yul\":7870:7923   */\n      tag_181\n      jump\t// in\n    tag_290:\n        /* \"#utility.yul\":7860:7923   */\n      swap2\n      pop\n        /* \"#utility.yul\":7816:7933   */\n      pop\n        /* \"#utility.yul\":7611:7940   */\n      swap3\n      swap2\n      pop\n      pop\n      jump\t// out\n        /* \"#utility.yul\":7946:8168   */\n    tag_67:\n        /* \"#utility.yul\":8039:8043   */\n      0x00\n        /* \"#utility.yul\":8077:8079   */\n      0x20\n        /* \"#utility.yul\":8066:8075   */\n      dup3\n        /* \"#utility.yul\":8062:8080   */\n      add\n        /* \"#utility.yul\":8054:8080   */\n      swap1\n      pop\n        /* \"#utility.yul\":8090:8161   */\n      tag_292\n        /* \"#utility.yul\":8158:8159   */\n      0x00\n        /* \"#utility.yul\":8147:8156   */\n      dup4\n        /* \"#utility.yul\":8143:8160   */\n      add\n        /* \"#utility.yul\":8134:8140   */\n      dup5\n        /* \"#utility.yul\":8090:8161   */\n      tag_170\n      jump\t// in\n    tag_292:\n        /* \"#utility.yul\":7946:8168   */\n      swap3\n      swap2\n      pop\n      pop\n      jump\t// out\n        /* \"#utility.yul\":8174:8929   */\n    tag_71:\n        /* \"#utility.yul\":8399:8403   */\n      0x00\n        /* \"#utility.yul\":8437:8440   */\n      0xa0\n        /* \"#utility.yul\":8426:8435   */\n      dup3\n        /* \"#utility.yul\":8422:8441   */\n      add\n        /* \"#utility.yul\":8414:8441   */\n      swap1\n      pop\n        /* \"#utility.yul\":8487:8496   */\n      dup2\n        /* \"#utility.yul\":8481:8485   */\n      dup2\n        /* \"#utility.yul\":8477:8497   */\n      sub\n        /* \"#utility.yul\":8473:8474   */\n      0x00\n        /* \"#utility.yul\":8462:8471   */\n      dup4\n        /* \"#utility.yul\":8458:8475   */\n      add\n        /* \"#utility.yul\":8451:8498   */\n      mstore\n        /* \"#utility.yul\":8515:8593   */\n      tag_294\n        /* \"#utility.yul\":8588:8592   */\n      dup2\n        /* \"#utility.yul\":8579:8585   */\n      dup9\n        /* \"#utility.yul\":8515:8593   */\n      tag_167\n      jump\t// in\n    tag_294:\n        /* \"#utility.yul\":8507:8593   */\n      swap1\n      pop\n        /* \"#utility.yul\":8603:8675   */\n      tag_295\n        /* \"#utility.yul\":8671:8673   */\n      0x20\n        /* \"#utility.yul\":8660:8669   */\n      dup4\n        /* \"#utility.yul\":8656:8674   */\n      add\n        /* \"#utility.yul\":8647:8653   */\n      dup8\n        /* \"#utility.yul\":8603:8675   */\n      tag_155\n      jump\t// in\n    tag_295:\n        /* \"#utility.yul\":8685:8757   */\n      tag_296\n        /* \"#utility.yul\":8753:8755   */\n      0x40\n        /* \"#utility.yul\":8742:8751   */\n      dup4\n        /* \"#utility.yul\":8738:8756   */\n      add\n        /* \"#utility.yul\":8729:8735   */\n      dup7\n        /* \"#utility.yul\":8685:8757   */\n      tag_155\n      jump\t// in\n    tag_296:\n        /* \"#utility.yul\":8767:8839   */\n      tag_297\n        /* \"#utility.yul\":8835:8837   */\n      0x60\n        /* \"#utility.yul\":8824:8833   */\n      dup4\n        /* \"#utility.yul\":8820:8838   */\n      add\n        /* \"#utility.yul\":8811:8817   */\n      dup6\n        /* \"#utility.yul\":8767:8839   */\n      tag_170\n      jump\t// in\n    tag_297:\n        /* \"#utility.yul\":8849:8922   */\n      tag_298\n        /* \"#utility.yul\":8917:8920   */\n      0x80\n        /* \"#utility.yul\":8906:8915   */\n      dup4\n        /* \"#utility.yul\":8902:8921   */\n      add\n        /* \"#utility.yul\":8893:8899   */\n      dup5\n        /* \"#utility.yul\":8849:8922   */\n      tag_155\n      jump\t// in\n    tag_298:\n        /* \"#utility.yul\":8174:8929   */\n      swap7\n      swap6\n      pop\n      pop\n      pop\n      pop\n      pop\n      pop\n      jump\t// out\n        /* \"#utility.yul\":8935:9165   */\n    tag_182:\n        /* \"#utility.yul\":9075:9109   */\n      0x4f6e6c7920646f63746f727320696e206e6574776f726b2063616e20646f2074\n        /* \"#utility.yul\":9071:9072   */\n      0x00\n        /* \"#utility.yul\":9063:9069   */\n      dup3\n        /* \"#utility.yul\":9059:9073   */\n      add\n        /* \"#utility.yul\":9052:9110   */\n      mstore\n        /* \"#utility.yul\":9144:9157   */\n      0x68697320616374696f6e2e000000000000000000000000000000000000000000\n        /* \"#utility.yul\":9139:9141   */\n      0x20\n        /* \"#utility.yul\":9131:9137   */\n      dup3\n        /* \"#utility.yul\":9127:9142   */\n      add\n        /* \"#utility.yul\":9120:9158   */\n      mstore\n        /* \"#utility.yul\":8935:9165   */\n      pop\n      jump\t// out\n        /* \"#utility.yul\":9171:9537   */\n    tag_183:\n        /* \"#utility.yul\":9313:9316   */\n      0x00\n        /* \"#utility.yul\":9334:9401   */\n      tag_301\n        /* \"#utility.yul\":9398:9400   */\n      0x2b\n        /* \"#utility.yul\":9393:9396   */\n      dup4\n        /* \"#utility.yul\":9334:9401   */\n      tag_164\n      jump\t// in\n    tag_301:\n        /* \"#utility.yul\":9327:9401   */\n      swap2\n      pop\n        /* \"#utility.yul\":9410:9503   */\n      tag_302\n        /* \"#utility.yul\":9499:9502   */\n      dup3\n        /* \"#utility.yul\":9410:9503   */\n      tag_182\n      jump\t// in\n    tag_302:\n        /* \"#utility.yul\":9528:9530   */\n      0x40\n        /* \"#utility.yul\":9523:9526   */\n      dup3\n        /* \"#utility.yul\":9519:9531   */\n      add\n        /* \"#utility.yul\":9512:9531   */\n      swap1\n      pop\n        /* \"#utility.yul\":9171:9537   */\n      swap2\n      swap1\n      pop\n      jump\t// out\n        /* \"#utility.yul\":9543:9962   */\n    tag_82:\n        /* \"#utility.yul\":9709:9713   */\n      0x00\n        /* \"#utility.yul\":9747:9749   */\n      0x20\n        /* \"#utility.yul\":9736:9745   */\n      dup3\n        /* \"#utility.yul\":9732:9750   */\n      add\n        /* \"#utility.yul\":9724:9750   */\n      swap1\n      pop\n        /* \"#utility.yul\":9796:9805   */\n      dup2\n        /* \"#utility.yul\":9790:9794   */\n      dup2\n        /* \"#utility.yul\":9786:9806   */\n      sub\n        /* \"#utility.yul\":9782:9783   */\n      0x00\n        /* \"#utility.yul\":9771:9780   */\n      dup4\n        /* \"#utility.yul\":9767:9784   */\n      add\n        /* \"#utility.yul\":9760:9807   */\n      mstore\n        /* \"#utility.yul\":9824:9955   */\n      tag_304\n        /* \"#utility.yul\":9950:9954   */\n      dup2\n        /* \"#utility.yul\":9824:9955   */\n      tag_183\n      jump\t// in\n    tag_304:\n        /* \"#utility.yul\":9816:9955   */\n      swap1\n      pop\n        /* \"#utility.yul\":9543:9962   */\n      swap2\n      swap1\n      pop\n      jump\t// out\n        /* \"#utility.yul\":9968:10147   */\n    tag_184:\n        /* \"#utility.yul\":10108:10139   */\n      0x43616e27742076657269667920796f7572206f776e207265706f72742e000000\n        /* \"#utility.yul\":10104:10105   */\n      0x00\n        /* \"#utility.yul\":10096:10102   */\n      dup3\n        /* \"#utility.yul\":10092:10106   */\n      add\n        /* \"#utility.yul\":10085:10140   */\n      mstore\n        /* \"#utility.yul\":9968:10147   */\n      pop\n      jump\t// out\n        /* \"#utility.yul\":10153:10519   */\n    tag_185:\n        /* \"#utility.yul\":10295:10298   */\n      0x00\n        /* \"#utility.yul\":10316:10383   */\n      tag_307\n        /* \"#utility.yul\":10380:10382   */\n      0x1d\n        /* \"#utility.yul\":10375:10378   */\n      dup4\n        /* \"#utility.yul\":10316:10383   */\n      tag_164\n      jump\t// in\n    tag_307:\n        /* \"#utility.yul\":10309:10383   */\n      swap2\n      pop\n        /* \"#utility.yul\":10392:10485   */\n      tag_308\n        /* \"#utility.yul\":10481:10484   */\n      dup3\n        /* \"#utility.yul\":10392:10485   */\n      tag_184\n      jump\t// in\n    tag_308:\n        /* \"#utility.yul\":10510:10512   */\n      0x20\n        /* \"#utility.yul\":10505:10508   */\n      dup3\n        /* \"#utility.yul\":10501:10513   */\n      add\n        /* \"#utility.yul\":10494:10513   */\n      swap1\n      pop\n        /* \"#utility.yul\":10153:10519   */\n      swap2\n      swap1\n      pop\n      jump\t// out\n        /* \"#utility.yul\":10525:10944   */\n    tag_86:\n        /* \"#utility.yul\":10691:10695   */\n      0x00\n        /* \"#utility.yul\":10729:10731   */\n      0x20\n        /* \"#utility.yul\":10718:10727   */\n      dup3\n        /* \"#utility.yul\":10714:10732   */\n      add\n        /* \"#utility.yul\":10706:10732   */\n      swap1\n      pop\n        /* \"#utility.yul\":10778:10787   */\n      dup2\n        /* \"#utility.yul\":10772:10776   */\n      dup2\n        /* \"#utility.yul\":10768:10788   */\n      sub\n        /* \"#utility.yul\":10764:10765   */\n      0x00\n        /* \"#utility.yul\":10753:10762   */\n      dup4\n        /* \"#utility.yul\":10749:10766   */\n      add\n        /* \"#utility.yul\":10742:10789   */\n      mstore\n        /* \"#utility.yul\":10806:10937   */\n      tag_310\n        /* \"#utility.yul\":10932:10936   */\n      dup2\n        /* \"#utility.yul\":10806:10937   */\n      tag_185\n      jump\t// in\n    tag_310:\n        /* \"#utility.yul\":10798:10937   */\n      swap1\n      pop\n        /* \"#utility.yul\":10525:10944   */\n      swap2\n      swap1\n      pop\n      jump\t// out\n        /* \"#utility.yul\":10950:11130   */\n    tag_186:\n        /* \"#utility.yul\":10998:11075   */\n      0x4e487b7100000000000000000000000000000000000000000000000000000000\n        /* \"#utility.yul\":10995:10996   */\n      0x00\n        /* \"#utility.yul\":10988:11076   */\n      mstore\n        /* \"#utility.yul\":11095:11099   */\n      0x11\n        /* \"#utility.yul\":11092:11093   */\n      0x04\n        /* \"#utility.yul\":11085:11100   */\n      mstore\n        /* \"#utility.yul\":11119:11123   */\n      0x24\n        /* \"#utility.yul\":11116:11117   */\n      0x00\n        /* \"#utility.yul\":11109:11124   */\n      revert\n        /* \"#utility.yul\":11136:11369   */\n    tag_88:\n        /* \"#utility.yul\":11175:11178   */\n      0x00\n        /* \"#utility.yul\":11198:11222   */\n      tag_313\n        /* \"#utility.yul\":11216:11221   */\n      dup3\n        /* \"#utility.yul\":11198:11222   */\n      tag_154\n      jump\t// in\n    tag_313:\n        /* \"#utility.yul\":11189:11222   */\n      swap2\n      pop\n        /* \"#utility.yul\":11244:11310   */\n      0xffffffffffffffffffffffffffffffffffffffffffffffffffffffffffffffff\n        /* \"#utility.yul\":11237:11242   */\n      dup3\n        /* \"#utility.yul\":11234:11311   */\n      eq\n        /* \"#utility.yul\":11231:11334   */\n      iszero\n      tag_314\n      jumpi\n        /* \"#utility.yul\":11314:11332   */\n      tag_315\n      tag_186\n      jump\t// in\n    tag_315:\n        /* \"#utility.yul\":11231:11334   */\n    tag_314:\n        /* \"#utility.yul\":11361:11362   */\n      0x01\n        /* \"#utility.yul\":11354:11359   */\n      dup3\n        /* \"#utility.yul\":11350:11363   */\n      add\n        /* \"#utility.yul\":11343:11363   */\n      swap1\n      pop\n        /* \"#utility.yul\":11136:11369   */\n      swap2\n      swap1\n      pop\n      jump\t// out\n        /* \"#utility.yul\":11375:11601   */\n    tag_187:\n        /* \"#utility.yul\":11515:11549   */\n      0x546865206e6574776f726b206861732072656163686564206974732066756c6c\n        /* \"#utility.yul\":11511:11512   */\n      0x00\n        /* \"#utility.yul\":11503:11509   */\n      dup3\n        /* \"#utility.yul\":11499:11513   */\n      add\n        /* \"#utility.yul\":11492:11550   */\n      mstore\n        /* \"#utility.yul\":11584:11593   */\n      0x206c696d69742e00000000000000000000000000000000000000000000000000\n        /* \"#utility.yul\":11579:11581   */\n      0x20\n        /* \"#utility.yul\":11571:11577   */\n      dup3\n        /* \"#utility.yul\":11567:11582   */\n      add\n        /* \"#utility.yul\":11560:11594   */\n      mstore\n        /* \"#utility.yul\":11375:11601   */\n      pop\n      jump\t// out\n        /* \"#utility.yul\":11607:11973   */\n    tag_188:\n        /* \"#utility.yul\":11749:11752   */\n      0x00\n        /* \"#utility.yul\":11770:11837   */\n      tag_318\n        /* \"#utility.yul\":11834:11836   */\n      0x27\n        /* \"#utility.yul\":11829:11832   */\n      dup4\n        /* \"#utility.yul\":11770:11837   */\n      tag_164\n      jump\t// in\n    tag_318:\n        /* \"#utility.yul\":11763:11837   */\n      swap2\n      pop\n        /* \"#utility.yul\":11846:11939   */\n      tag_319\n        /* \"#utility.yul\":11935:11938   */\n      dup3\n        /* \"#utility.yul\":11846:11939   */\n      tag_187\n      jump\t// in\n    tag_319:\n        /* \"#utility.yul\":11964:11966   */\n      0x40\n        /* \"#utility.yul\":11959:11962   */\n      dup3\n        /* \"#utility.yul\":11955:11967   */\n      add\n        /* \"#utility.yul\":11948:11967   */\n      swap1\n      pop\n        /* \"#utility.yul\":11607:11973   */\n      swap2\n      swap1\n      pop\n      jump\t// out\n        /* \"#utility.yul\":11979:12398   */\n    tag_92:\n        /* \"#utility.yul\":12145:12149   */\n      0x00\n        /* \"#utility.yul\":12183:12185   */\n      0x20\n        /* \"#utility.yul\":12172:12181   */\n      dup3\n        /* \"#utility.yul\":12168:12186   */\n      add\n        /* \"#utility.yul\":12160:12186   */\n      swap1\n      pop\n        /* \"#utility.yul\":12232:12241   */\n      dup2\n        /* \"#utility.yul\":12226:12230   */\n      dup2\n        /* \"#utility.yul\":12222:12242   */\n      sub\n        /* \"#utility.yul\":12218:12219   */\n      0x00\n        /* \"#utility.yul\":12207:12216   */\n      dup4\n        /* \"#utility.yul\":12203:12220   */\n      add\n        /* \"#utility.yul\":12196:12243   */\n      mstore\n        /* \"#utility.yul\":12260:12391   */\n      tag_321\n        /* \"#utility.yul\":12386:12390   */\n      dup2\n        /* \"#utility.yul\":12260:12391   */\n      tag_188\n      jump\t// in\n    tag_321:\n        /* \"#utility.yul\":12252:12391   */\n      swap1\n      pop\n        /* \"#utility.yul\":11979:12398   */\n      swap2\n      swap1\n      pop\n      jump\t// out\n        /* \"#utility.yul\":12404:12584   */\n    tag_189:\n        /* \"#utility.yul\":12544:12576   */\n      0x416c7265616479207265676973746572656420746f206e6574776f726b2e0000\n        /* \"#utility.yul\":12540:12541   */\n      0x00\n        /* \"#utility.yul\":12532:12538   */\n      dup3\n        /* \"#utility.yul\":12528:12542   */\n      add\n        /* \"#utility.yul\":12521:12577   */\n      mstore\n        /* \"#utility.yul\":12404:12584   */\n      pop\n      jump\t// out\n        /* \"#utility.yul\":12590:12956   */\n    tag_190:\n        /* \"#utility.yul\":12732:12735   */\n      0x00\n        /* \"#utility.yul\":12753:12820   */\n      tag_324\n        /* \"#utility.yul\":12817:12819   */\n      0x1e\n        /* \"#utility.yul\":12812:12815   */\n      dup4\n        /* \"#utility.yul\":12753:12820   */\n      tag_164\n      jump\t// in\n    tag_324:\n        /* \"#utility.yul\":12746:12820   */\n      swap2\n      pop\n        /* \"#utility.yul\":12829:12922   */\n      tag_325\n        /* \"#utility.yul\":12918:12921   */\n      dup3\n        /* \"#utility.yul\":12829:12922   */\n      tag_189\n      jump\t// in\n    tag_325:\n        /* \"#utility.yul\":12947:12949   */\n      0x20\n        /* \"#utility.yul\":12942:12945   */\n      dup3\n        /* \"#utility.yul\":12938:12950   */\n      add\n        /* \"#utility.yul\":12931:12950   */\n      swap1\n      pop\n        /* \"#utility.yul\":12590:12956   */\n      swap2\n      swap1\n      pop\n      jump\t// out\n        /* \"#utility.yul\":12962:13381   */\n    tag_95:\n        /* \"#utility.yul\":13128:13132   */\n      0x00\n        /* \"#utility.yul\":13166:13168   */\n      0x20\n        /* \"#utility.yul\":13155:13164   */\n      dup3\n        /* \"#utility.yul\":13151:13169   */\n      add\n        /* \"#utility.yul\":13143:13169   */\n      swap1\n      pop\n        /* \"#utility.yul\":13215:13224   */\n      dup2\n        /* \"#utility.yul\":13209:13213   */\n      dup2\n        /* \"#utility.yul\":13205:13225   */\n      sub\n        /* \"#utility.yul\":13201:13202   */\n      0x00\n        /* \"#utility.yul\":13190:13199   */\n      dup4\n        /* \"#utility.yul\":13186:13203   */\n      add\n        /* \"#utility.yul\":13179:13226   */\n      mstore\n        /* \"#utility.yul\":13243:13374   */\n      tag_327\n        /* \"#utility.yul\":13369:13373   */\n      dup2\n        /* \"#utility.yul\":13243:13374   */\n      tag_190\n      jump\t// in\n    tag_327:\n        /* \"#utility.yul\":13235:13374   */\n      swap1\n      pop\n        /* \"#utility.yul\":12962:13381   */\n      swap2\n      swap1\n      pop\n      jump\t// out\n        /* \"#utility.yul\":13387:13567   */\n    tag_191:\n        /* \"#utility.yul\":13435:13512   */\n      0x4e487b7100000000000000000000000000000000000000000000000000000000\n        /* \"#utility.yul\":13432:13433   */\n      0x00\n        /* \"#utility.yul\":13425:13513   */\n      mstore\n        /* \"#utility.yul\":13532:13536   */\n      0x22\n        /* \"#utility.yul\":13529:13530   */\n      0x04\n        /* \"#utility.yul\":13522:13537   */\n      mstore\n        /* \"#utility.yul\":13556:13560   */\n      0x24\n        /* \"#utility.yul\":13553:13554   */\n      0x00\n        /* \"#utility.yul\":13546:13561   */\n      revert\n        /* \"#utility.yul\":13573:13893   */\n    tag_98:\n        /* \"#utility.yul\":13617:13623   */\n      0x00\n        /* \"#utility.yul\":13654:13655   */\n      0x02\n        /* \"#utility.yul\":13648:13652   */\n      dup3\n        /* \"#utility.yul\":13644:13656   */\n      div\n        /* \"#utility.yul\":13634:13656   */\n      swap1\n      pop\n        /* \"#utility.yul\":13701:13702   */\n      0x01\n        /* \"#utility.yul\":13695:13699   */\n      dup3\n        /* \"#utility.yul\":13691:13703   */\n      and\n        /* \"#utility.yul\":13722:13740   */\n      dup1\n        /* \"#utility.yul\":13712:13793   */\n      tag_330\n      jumpi\n        /* \"#utility.yul\":13778:13782   */\n      0x7f\n        /* \"#utility.yul\":13770:13776   */\n      dup3\n        /* \"#utility.yul\":13766:13783   */\n      and\n        /* \"#utility.yul\":13756:13783   */\n      swap2\n      pop\n        /* \"#utility.yul\":13712:13793   */\n    tag_330:\n        /* \"#utility.yul\":13840:13842   */\n      0x20\n        /* \"#utility.yul\":13832:13838   */\n      dup3\n        /* \"#utility.yul\":13829:13843   */\n      lt\n        /* \"#utility.yul\":13809:13827   */\n      dup2\n        /* \"#utility.yul\":13806:13844   */\n      eq\n        /* \"#utility.yul\":13803:13887   */\n      iszero\n      tag_331\n      jumpi\n        /* \"#utility.yul\":13859:13877   */\n      tag_332\n      tag_191\n      jump\t// in\n    tag_332:\n        /* \"#utility.yul\":13803:13887   */\n    tag_331:\n        /* \"#utility.yul\":13624:13893   */\n      pop\n        /* \"#utility.yul\":13573:13893   */\n      swap2\n      swap1\n      pop\n      jump\t// out\n        /* \"#utility.yul\":13899:14125   */\n    tag_192:\n        /* \"#utility.yul\":14039:14073   */\n      0x4f6e6c792063757272656e74206d616e616765722063616e206368616e676520\n        /* \"#utility.yul\":14035:14036   */\n      0x00\n        /* \"#utility.yul\":14027:14033   */\n      dup3\n        /* \"#utility.yul\":14023:14037   */\n      add\n        /* \"#utility.yul\":14016:14074   */\n      mstore\n        /* \"#utility.yul\":14108:14117   */\n      0x6d616e6167657200000000000000000000000000000000000000000000000000\n        /* \"#utility.yul\":14103:14105   */\n      0x20\n        /* \"#utility.yul\":14095:14101   */\n      dup3\n        /* \"#utility.yul\":14091:14106   */\n      add\n        /* \"#utility.yul\":14084:14118   */\n      mstore\n        /* \"#utility.yul\":13899:14125   */\n      pop\n      jump\t// out\n        /* \"#utility.yul\":14131:14497   */\n    tag_193:\n        /* \"#utility.yul\":14273:14276   */\n      0x00\n        /* \"#utility.yul\":14294:14361   */\n      tag_335\n        /* \"#utility.yul\":14358:14360   */\n      0x27\n        /* \"#utility.yul\":14353:14356   */\n      dup4\n        /* \"#utility.yul\":14294:14361   */\n      tag_164\n      jump\t// in\n    tag_335:\n        /* \"#utility.yul\":14287:14361   */\n      swap2\n      pop\n        /* \"#utility.yul\":14370:14463   */\n      tag_336\n        /* \"#utility.yul\":14459:14462   */\n      dup3\n        /* \"#utility.yul\":14370:14463   */\n      tag_192\n      jump\t// in\n    tag_336:\n        /* \"#utility.yul\":14488:14490   */\n      0x40\n        /* \"#utility.yul\":14483:14486   */\n      dup3\n        /* \"#utility.yul\":14479:14491   */\n      add\n        /* \"#utility.yul\":14472:14491   */\n      swap1\n      pop\n        /* \"#utility.yul\":14131:14497   */\n      swap2\n      swap1\n      pop\n      jump\t// out\n        /* \"#utility.yul\":14503:14922   */\n    tag_124:\n        /* \"#utility.yul\":14669:14673   */\n      0x00\n        /* \"#utility.yul\":14707:14709   */\n      0x20\n        /* \"#utility.yul\":14696:14705   */\n      dup3\n        /* \"#utility.yul\":14692:14710   */\n      add\n        /* \"#utility.yul\":14684:14710   */\n      swap1\n      pop\n        /* \"#utility.yul\":14756:14765   */\n      dup2\n        /* \"#utility.yul\":14750:14754   */\n      dup2\n        /* \"#utility.yul\":14746:14766   */\n      sub\n        /* \"#utility.yul\":14742:14743   */\n      0x00\n        /* \"#utility.yul\":14731:14740   */\n      dup4\n        /* \"#utility.yul\":14727:14744   */\n      add\n        /* \"#utility.yul\":14720:14767   */\n      mstore\n        /* \"#utility.yul\":14784:14915   */\n      tag_338\n        /* \"#utility.yul\":14910:14914   */\n      dup2\n        /* \"#utility.yul\":14784:14915   */\n      tag_193\n      jump\t// in\n    tag_338:\n        /* \"#utility.yul\":14776:14915   */\n      swap1\n      pop\n        /* \"#utility.yul\":14503:14922   */\n      swap2\n      swap1\n      pop\n      jump\t// out\n        /* \"#utility.yul\":14928:15150   */\n    tag_194:\n        /* \"#utility.yul\":15068:15102   */\n      0x4f6e6c79204d616e616765722063616e20736574206e6574776f726b206c696d\n        /* \"#utility.yul\":15064:15065   */\n      0x00\n        /* \"#utility.yul\":15056:15062   */\n      dup3\n        /* \"#utility.yul\":15052:15066   */\n      add\n        /* \"#utility.yul\":15045:15103   */\n      mstore\n        /* \"#utility.yul\":15137:15142   */\n      0x69742e0000000000000000000000000000000000000000000000000000000000\n        /* \"#utility.yul\":15132:15134   */\n      0x20\n        /* \"#utility.yul\":15124:15130   */\n      dup3\n        /* \"#utility.yul\":15120:15135   */\n      add\n        /* \"#utility.yul\":15113:15143   */\n      mstore\n        /* \"#utility.yul\":14928:15150   */\n      pop\n      jump\t// out\n        /* \"#utility.yul\":15156:15522   */\n    tag_195:\n        /* \"#utility.yul\":15298:15301   */\n      0x00\n        /* \"#utility.yul\":15319:15386   */\n      tag_341\n        /* \"#utility.yul\":15383:15385   */\n      0x23\n        /* \"#utility.yul\":15378:15381   */\n      dup4\n        /* \"#utility.yul\":15319:15386   */\n      tag_164\n      jump\t// in\n    tag_341:\n        /* \"#utility.yul\":15312:15386   */\n      swap2\n      pop\n        /* \"#utility.yul\":15395:15488   */\n      tag_342\n        /* \"#utility.yul\":15484:15487   */\n      dup3\n        /* \"#utility.yul\":15395:15488   */\n      tag_194\n      jump\t// in\n    tag_342:\n        /* \"#utility.yul\":15513:15515   */\n      0x40\n        /* \"#utility.yul\":15508:15511   */\n      dup3\n        /* \"#utility.yul\":15504:15516   */\n      add\n        /* \"#utility.yul\":15497:15516   */\n      swap1\n      pop\n        /* \"#utility.yul\":15156:15522   */\n      swap2\n      swap1\n      pop\n      jump\t// out\n        /* \"#utility.yul\":15528:15947   */\n    tag_128:\n        /* \"#utility.yul\":15694:15698   */\n      0x00\n        /* \"#utility.yul\":15732:15734   */\n      0x20\n        /* \"#utility.yul\":15721:15730   */\n      dup3\n        /* \"#utility.yul\":15717:15735   */\n      add\n        /* \"#utility.yul\":15709:15735   */\n      swap1\n      pop\n        /* \"#utility.yul\":15781:15790   */\n      dup2\n        /* \"#utility.yul\":15775:15779   */\n      dup2\n        /* \"#utility.yul\":15771:15791   */\n      sub\n        /* \"#utility.yul\":15767:15768   */\n      0x00\n        /* \"#utility.yul\":15756:15765   */\n      dup4\n        /* \"#utility.yul\":15752:15769   */\n      add\n        /* \"#utility.yul\":15745:15792   */\n      mstore\n        /* \"#utility.yul\":15809:15940   */\n      tag_344\n        /* \"#utility.yul\":15935:15939   */\n      dup2\n        /* \"#utility.yul\":15809:15940   */\n      tag_195\n      jump\t// in\n    tag_344:\n        /* \"#utility.yul\":15801:15940   */\n      swap1\n      pop\n        /* \"#utility.yul\":15528:15947   */\n      swap2\n      swap1\n      pop\n      jump\t// out\n        /* \"#utility.yul\":15953:16183   */\n    tag_196:\n        /* \"#utility.yul\":16093:16127   */\n      0x4f6e6c79207468652063726561746f72206f66207265706f72742063616e2066\n        /* \"#utility.yul\":16089:16090   */\n      0x00\n        /* \"#utility.yul\":16081:16087   */\n      dup3\n        /* \"#utility.yul\":16077:16091   */\n      add\n        /* \"#utility.yul\":16070:16128   */\n      mstore\n        /* \"#utility.yul\":16162:16175   */\n      0x696e616c6973652069742e000000000000000000000000000000000000000000\n        /* \"#utility.yul\":16157:16159   */\n      0x20\n        /* \"#utility.yul\":16149:16155   */\n      dup3\n        /* \"#utility.yul\":16145:16160   */\n      add\n        /* \"#utility.yul\":16138:16176   */\n      mstore\n        /* \"#utility.yul\":15953:16183   */\n      pop\n      jump\t// out\n        /* \"#utility.yul\":16189:16555   */\n    tag_197:\n        /* \"#utility.yul\":16331:16334   */\n      0x00\n        /* \"#utility.yul\":16352:16419   */\n      tag_347\n        /* \"#utility.yul\":16416:16418   */\n      0x2b\n        /* \"#utility.yul\":16411:16414   */\n      dup4\n        /* \"#utility.yul\":16352:16419   */\n      tag_164\n      jump\t// in\n    tag_347:\n        /* \"#utility.yul\":16345:16419   */\n      swap2\n      pop\n        /* \"#utility.yul\":16428:16521   */\n      tag_348\n        /* \"#utility.yul\":16517:16520   */\n      dup3\n        /* \"#utility.yul\":16428:16521   */\n      tag_196\n      jump\t// in\n    tag_348:\n        /* \"#utility.yul\":16546:16548   */\n      0x40\n        /* \"#utility.yul\":16541:16544   */\n      dup3\n        /* \"#utility.yul\":16537:16549   */\n      add\n        /* \"#utility.yul\":16530:16549   */\n      swap1\n      pop\n        /* \"#utility.yul\":16189:16555   */\n      swap2\n      swap1\n      pop\n      jump\t// out\n        /* \"#utility.yul\":16561:16980   */\n    tag_139:\n        /* \"#utility.yul\":16727:16731   */\n      0x00\n        /* \"#utility.yul\":16765:16767   */\n      0x20\n        /* \"#utility.yul\":16754:16763   */\n      dup3\n        /* \"#utility.yul\":16750:16768   */\n      add\n        /* \"#utility.yul\":16742:16768   */\n      swap1\n      pop\n        /* \"#utility.yul\":16814:16823   */\n      dup2\n        /* \"#utility.yul\":16808:16812   */\n      dup2\n        /* \"#utility.yul\":16804:16824   */\n      sub\n        /* \"#utility.yul\":16800:16801   */\n      0x00\n        /* \"#utility.yul\":16789:16798   */\n      dup4\n        /* \"#utility.yul\":16785:16802   */\n      add\n        /* \"#utility.yul\":16778:16825   */\n      mstore\n        /* \"#utility.yul\":16842:16973   */\n      tag_350\n        /* \"#utility.yul\":16968:16972   */\n      dup2\n        /* \"#utility.yul\":16842:16973   */\n      tag_197\n      jump\t// in\n    tag_350:\n        /* \"#utility.yul\":16834:16973   */\n      swap1\n      pop\n        /* \"#utility.yul\":16561:16980   */\n      swap2\n      swap1\n      pop\n      jump\t// out\n        /* \"#utility.yul\":16986:17166   */\n    tag_198:\n        /* \"#utility.yul\":17034:17111   */\n      0x4e487b7100000000000000000000000000000000000000000000000000000000\n        /* \"#utility.yul\":17031:17032   */\n      0x00\n        /* \"#utility.yul\":17024:17112   */\n      mstore\n        /* \"#utility.yul\":17131:17135   */\n      0x12\n        /* \"#utility.yul\":17128:17129   */\n      0x04\n        /* \"#utility.yul\":17121:17136   */\n      mstore\n        /* \"#utility.yul\":17155:17159   */\n      0x24\n        /* \"#utility.yul\":17152:17153   */\n      0x00\n        /* \"#utility.yul\":17145:17160   */\n      revert\n        /* \"#utility.yul\":17172:17357   */\n    tag_142:\n        /* \"#utility.yul\":17212:17213   */\n      0x00\n        /* \"#utility.yul\":17229:17249   */\n      tag_353\n        /* \"#utility.yul\":17247:17248   */\n      dup3\n        /* \"#utility.yul\":17229:17249   */\n      tag_154\n      jump\t// in\n    tag_353:\n        /* \"#utility.yul\":17224:17249   */\n      swap2\n      pop\n        /* \"#utility.yul\":17263:17283   */\n      tag_354\n        /* \"#utility.yul\":17281:17282   */\n      dup4\n        /* \"#utility.yul\":17263:17283   */\n      tag_154\n      jump\t// in\n    tag_354:\n        /* \"#utility.yul\":17258:17283   */\n      swap3\n      pop\n        /* \"#utility.yul\":17302:17303   */\n      dup3\n        /* \"#utility.yul\":17292:17327   */\n      tag_355\n      jumpi\n        /* \"#utility.yul\":17307:17325   */\n      tag_356\n      tag_198\n      jump\t// in\n    tag_356:\n        /* \"#utility.yul\":17292:17327   */\n    tag_355:\n        /* \"#utility.yul\":17349:17350   */\n      dup3\n        /* \"#utility.yul\":17346:17347   */\n      dup3\n        /* \"#utility.yul\":17342:17351   */\n      div\n        /* \"#utility.yul\":17337:17351   */\n      swap1\n      pop\n        /* \"#utility.yul\":17172:17357   */\n      swap3\n      swap2\n      pop\n      pop\n      jump\t// out\n\n    auxdata: 0xa2646970667358221220c99eeee58c1a1baa2905fcf655dbc3c1f23c3890d405b528985541ee3efb973964736f6c63430008090033\n}\n","bytecode":{"linkReferences":{},"object":"6080604052600560015560006005553480156200001b57600080fd5b5060405162001cb938038062001cb98339818101604052810190620000419190620003c6565b81600290805190602001906200005992919062000114565b50806000806101000a81548173ffffffffffffffffffffffffffffffffffffffff021916908373ffffffffffffffffffffffffffffffffffffffff1602179055506001600360008373ffffffffffffffffffffffffffffffffffffffff1673ffffffffffffffffffffffffffffffffffffffff16815260200190815260200160002060006101000a81548160ff02191690831515021790555060056000815480929190620001079062000465565b9190505550505062000518565b8280546200012290620004e2565b90600052602060002090601f01602090048101928262000146576000855562000192565b82601f106200016157805160ff191683800117855562000192565b8280016001018555821562000192579182015b828111156200019157825182559160200191906001019062000174565b5b509050620001a19190620001a5565b5090565b5b80821115620001c0576000816000905550600101620001a6565b5090565b6000604051905090565b600080fd5b600080fd5b600080fd5b600080fd5b6000601f19601f8301169050919050565b7f4e487b7100000000000000000000000000000000000000000000000000000000600052604160045260246000fd5b6200022d82620001e2565b810181811067ffffffffffffffff821117156200024f576200024e620001f3565b5b80604052505050565b600062000264620001c4565b905062000272828262000222565b919050565b600067ffffffffffffffff821115620002955762000294620001f3565b5b620002a082620001e2565b9050602081019050919050565b60005b83811015620002cd578082015181840152602081019050620002b0565b83811115620002dd576000848401525b50505050565b6000620002fa620002f48462000277565b62000258565b905082815260208101848484011115620003195762000318620001dd565b5b62000326848285620002ad565b509392505050565b600082601f830112620003465762000345620001d8565b5b815162000358848260208601620002e3565b91505092915050565b600073ffffffffffffffffffffffffffffffffffffffff82169050919050565b60006200038e8262000361565b9050919050565b620003a08162000381565b8114620003ac57600080fd5b50565b600081519050620003c08162000395565b92915050565b60008060408385031215620003e057620003df620001ce565b5b600083015167ffffffffffffffff811115620004015762000400620001d3565b5b6200040f858286016200032e565b92505060206200042285828601620003af565b9150509250929050565b7f4e487b7100000000000000000000000000000000000000000000000000000000600052601160045260246000fd5b6000819050919050565b600062000472826200045b565b91507fffffffffffffffffffffffffffffffffffffffffffffffffffffffffffffffff821415620004a857620004a76200042c565b5b600182019050919050565b7f4e487b7100000000000000000000000000000000000000000000000000000000600052602260045260246000fd5b60006002820490506001821680620004fb57607f821691505b60208210811415620005125762000511620004b3565b5b50919050565b61179180620005286000396000f3fe608060405234801561001057600080fd5b50600436106100f55760003560e01c8063975de96011610097578063d478e87911610066578063d478e8791461027a578063da252c9114610298578063e244ebaa146102ba578063fa9c48b7146102ea576100f5565b8063975de960146101e0578063a3fbbaae146101fc578063bdaa06711461022c578063cad9642b1461025c576100f5565b80634c6a6f45116100d35780634c6a6f451461015257806352c19c86146101705780636df0b3a21461018e5780638f5e9de3146101c2576100f5565b806304bb9bc0146100fa57806309208a75146101185780633639f17f14610134575b600080fd5b610102610306565b60405161010f9190610dda565b60405180910390f35b610132600480360381019061012d9190610e35565b61030c565b005b61013c6104c1565b6040516101499190610dda565b60405180910390f35b61015a6104c7565b6040516101679190610dda565b60405180910390f35b6101786104cd565b6040516101859190610e7d565b60405180910390f35b6101a860048036038101906101a39190610e35565b610620565b6040516101b9959493929190610f72565b60405180910390f35b6101ca610793565b6040516101d79190610fd3565b60405180910390f35b6101fa60048036038101906101f5919061112a565b610821565b005b610216600480360381019061021191906111ce565b610982565b6040516102239190610e7d565b60405180910390f35b61024660048036038101906102419190610e35565b610a5b565b6040516102539190610e7d565b60405180910390f35b610264610afb565b6040516102719190610dda565b60405180910390f35b610282610b05565b60405161028f91906111fb565b60405180910390f35b6102a0610b29565b6040516102b1959493929190611216565b60405180910390f35b6102d460048036038101906102cf91906111ce565b610bfa565b6040516102e19190610e7d565b60405180910390f35b61030460048036038101906102ff9190610e35565b610c1a565b005b60055481565b60011515600360003373ffffffffffffffffffffffffffffffffffffffff1673ffffffffffffffffffffffffffffffffffffffff16815260200190815260200160002060009054906101000a900460ff1615151461039f576040517f08c379a0000000000000000000000000000000000000000000000000000000008152600401610396906112e2565b60405180910390fd5b60006006600083815260200190815260200160002090503373ffffffffffffffffffffffffffffffffffffffff168160020160009054906101000a900473ffffffffffffffffffffffffffffffffffffffff1673ffffffffffffffffffffffffffffffffffffffff161415610449576040517f08c379a00000000000000000000000000000000000000000000000000000000081526004016104409061134e565b60405180910390fd5b60018160040160003373ffffffffffffffffffffffffffffffffffffffff1673ffffffffffffffffffffffffffffffffffffffff16815260200190815260200160002060006101000a81548160ff0219169083151502179055508060030160008154809291906104b89061139d565b91905055505050565b60015481565b60045481565b600060015460055410610515576040517f08c379a000000000000000000000000000000000000000000000000000000000815260040161050c90611458565b60405180910390fd5b60011515600360003373ffffffffffffffffffffffffffffffffffffffff1673ffffffffffffffffffffffffffffffffffffffff16815260200190815260200160002060009054906101000a900460ff16151514156105a9576040517f08c379a00000000000000000000000000000000000000000000000000000000081526004016105a0906114c4565b60405180910390fd5b6001600360003373ffffffffffffffffffffffffffffffffffffffff1673ffffffffffffffffffffffffffffffffffffffff16815260200190815260200160002060006101000a81548160ff021916908315150217905550600560008154809291906106149061139d565b91905055506001905090565b600660205280600052604060002060009150905080600001805461064390611513565b80601f016020809104026020016040519081016040528092919081815260200182805461066f90611513565b80156106bc5780601f10610691576101008083540402835291602001916106bc565b820191906000526020600020905b81548152906001019060200180831161069f57829003601f168201915b5050505050908060010180546106d190611513565b80601f01602080910402602001604051908101604052809291908181526020018280546106fd90611513565b801561074a5780601f1061071f5761010080835404028352916020019161074a565b820191906000526020600020905b81548152906001019060200180831161072d57829003601f168201915b5050505050908060020160009054906101000a900473ffffffffffffffffffffffffffffffffffffffff16908060030154908060050160009054906101000a900460ff16905085565b600280546107a090611513565b80601f01602080910402602001604051908101604052809291908181526020018280546107cc90611513565b80156108195780601f106107ee57610100808354040283529160200191610819565b820191906000526020600020905b8154815290600101906020018083116107fc57829003601f168201915b505050505081565b60011515600360003373ffffffffffffffffffffffffffffffffffffffff1673ffffffffffffffffffffffffffffffffffffffff16815260200190815260200160002060009054906101000a900460ff161515146108b4576040517f08c379a00000000000000000000000000000000000000000000000000000000081526004016108ab906112e2565b60405180910390fd5b600060066000600460008154809291906108cd9061139d565b9190505581526020019081526020016000209050828160000190805190602001906108f9929190610d1e565b5081816001019080519060200190610912929190610d1e565b5060008160050160006101000a81548160ff02191690831515021790555060008160030181905550338160020160006101000a81548173ffffffffffffffffffffffffffffffffffffffff021916908373ffffffffffffffffffffffffffffffffffffffff160217905550505050565b60003373ffffffffffffffffffffffffffffffffffffffff1660008054906101000a900473ffffffffffffffffffffffffffffffffffffffff1673ffffffffffffffffffffffffffffffffffffffff1614610a12576040517f08c379a0000000000000000000000000000000000000000000000000000000008152600401610a09906115b7565b60405180910390fd5b816000806101000a81548173ffffffffffffffffffffffffffffffffffffffff021916908373ffffffffffffffffffffffffffffffffffffffff16021790555060019050919050565b60003373ffffffffffffffffffffffffffffffffffffffff1660008054906101000a900473ffffffffffffffffffffffffffffffffffffffff1673ffffffffffffffffffffffffffffffffffffffff1614610aeb576040517f08c379a0000000000000000000000000000000000000000000000000000000008152600401610ae290611649565b60405180910390fd5b8160018190555060019050919050565b6000600454905090565b60008054906101000a900473ffffffffffffffffffffffffffffffffffffffff1681565b6060600080600080600260045460055460008054906101000a900473ffffffffffffffffffffffffffffffffffffffff16600154848054610b6990611513565b80601f0160208091040260200160405190810160405280929190818152602001828054610b9590611513565b8015610be25780601f10610bb757610100808354040283529160200191610be2565b820191906000526020600020905b815481529060010190602001808311610bc557829003601f168201915b50505050509450945094509450945094509091929394565b60036020528060005260406000206000915054906101000a900460ff1681565b60006006600083815260200190815260200160002090503373ffffffffffffffffffffffffffffffffffffffff168160020160009054906101000a900473ffffffffffffffffffffffffffffffffffffffff1673ffffffffffffffffffffffffffffffffffffffff1614610cc3576040517f08c379a0000000000000000000000000000000000000000000000000000000008152600401610cba906116db565b60405180910390fd5b8060050160009054906101000a900460ff1615610cdf57600080fd5b6002600554610cee919061172a565b816003015411610cfd57600080fd5b60018160050160006101000a81548160ff0219169083151502179055505050565b828054610d2a90611513565b90600052602060002090601f016020900481019282610d4c5760008555610d93565b82601f10610d6557805160ff1916838001178555610d93565b82800160010185558215610d93579182015b82811115610d92578251825591602001919060010190610d77565b5b509050610da09190610da4565b5090565b5b80821115610dbd576000816000905550600101610da5565b5090565b6000819050919050565b610dd481610dc1565b82525050565b6000602082019050610def6000830184610dcb565b92915050565b6000604051905090565b600080fd5b600080fd5b610e1281610dc1565b8114610e1d57600080fd5b50565b600081359050610e2f81610e09565b92915050565b600060208284031215610e4b57610e4a610dff565b5b6000610e5984828501610e20565b91505092915050565b60008115159050919050565b610e7781610e62565b82525050565b6000602082019050610e926000830184610e6e565b92915050565b600081519050919050565b600082825260208201905092915050565b60005b83811015610ed2578082015181840152602081019050610eb7565b83811115610ee1576000848401525b50505050565b6000601f19601f8301169050919050565b6000610f0382610e98565b610f0d8185610ea3565b9350610f1d818560208601610eb4565b610f2681610ee7565b840191505092915050565b600073ffffffffffffffffffffffffffffffffffffffff82169050919050565b6000610f5c82610f31565b9050919050565b610f6c81610f51565b82525050565b600060a0820190508181036000830152610f8c8188610ef8565b90508181036020830152610fa08187610ef8565b9050610faf6040830186610f63565b610fbc6060830185610dcb565b610fc96080830184610e6e565b9695505050505050565b60006020820190508181036000830152610fed8184610ef8565b905092915050565b600080fd5b600080fd5b7f4e487b7100000000000000000000000000000000000000000000000000000000600052604160045260246000fd5b61103782610ee7565b810181811067ffffffffffffffff8211171561105657611055610fff565b5b80604052505050565b6000611069610df5565b9050611075828261102e565b919050565b600067ffffffffffffffff82111561109557611094610fff565b5b61109e82610ee7565b9050602081019050919050565b82818337600083830152505050565b60006110cd6110c88461107a565b61105f565b9050828152602081018484840111156110e9576110e8610ffa565b5b6110f48482856110ab565b509392505050565b600082601f83011261111157611110610ff5565b5b81356111218482602086016110ba565b91505092915050565b6000806040838503121561114157611140610dff565b5b600083013567ffffffffffffffff81111561115f5761115e610e04565b5b61116b858286016110fc565b925050602083013567ffffffffffffffff81111561118c5761118b610e04565b5b611198858286016110fc565b9150509250929050565b6111ab81610f51565b81146111b657600080fd5b50565b6000813590506111c8816111a2565b92915050565b6000602082840312156111e4576111e3610dff565b5b60006111f2848285016111b9565b91505092915050565b60006020820190506112106000830184610f63565b92915050565b600060a08201905081810360008301526112308188610ef8565b905061123f6020830187610dcb565b61124c6040830186610dcb565b6112596060830185610f63565b6112666080830184610dcb565b9695505050505050565b7f4f6e6c7920646f63746f727320696e206e6574776f726b2063616e20646f207460008201527f68697320616374696f6e2e000000000000000000000000000000000000000000602082015250565b60006112cc602b83610ea3565b91506112d782611270565b604082019050919050565b600060208201905081810360008301526112fb816112bf565b9050919050565b7f43616e27742076657269667920796f7572206f776e207265706f72742e000000600082015250565b6000611338601d83610ea3565b915061134382611302565b602082019050919050565b600060208201905081810360008301526113678161132b565b9050919050565b7f4e487b7100000000000000000000000000000000000000000000000000000000600052601160045260246000fd5b60006113a882610dc1565b91507fffffffffffffffffffffffffffffffffffffffffffffffffffffffffffffffff8214156113db576113da61136e565b5b600182019050919050565b7f546865206e6574776f726b206861732072656163686564206974732066756c6c60008201527f206c696d69742e00000000000000000000000000000000000000000000000000602082015250565b6000611442602783610ea3565b915061144d826113e6565b604082019050919050565b6000602082019050818103600083015261147181611435565b9050919050565b7f416c7265616479207265676973746572656420746f206e6574776f726b2e0000600082015250565b60006114ae601e83610ea3565b91506114b982611478565b602082019050919050565b600060208201905081810360008301526114dd816114a1565b9050919050565b7f4e487b7100000000000000000000000000000000000000000000000000000000600052602260045260246000fd5b6000600282049050600182168061152b57607f821691505b6020821081141561153f5761153e6114e4565b5b50919050565b7f4f6e6c792063757272656e74206d616e616765722063616e206368616e67652060008201527f6d616e6167657200000000000000000000000000000000000000000000000000602082015250565b60006115a1602783610ea3565b91506115ac82611545565b604082019050919050565b600060208201905081810360008301526115d081611594565b9050919050565b7f4f6e6c79204d616e616765722063616e20736574206e6574776f726b206c696d60008201527f69742e0000000000000000000000000000000000000000000000000000000000602082015250565b6000611633602383610ea3565b915061163e826115d7565b604082019050919050565b6000602082019050818103600083015261166281611626565b9050919050565b7f4f6e6c79207468652063726561746f72206f66207265706f72742063616e206660008201527f696e616c6973652069742e000000000000000000000000000000000000000000602082015250565b60006116c5602b83610ea3565b91506116d082611669565b604082019050919050565b600060208201905081810360008301526116f4816116b8565b9050919050565b7f4e487b7100000000000000000000000000000000000000000000000000000000600052601260045260246000fd5b600061173582610dc1565b915061174083610dc1565b9250826117505761174f6116fb565b5b82820490509291505056fea2646970667358221220c99eeee58c1a1baa2905fcf655dbc3c1f23c3890d405b528985541ee3efb973964736f6c63430008090033","opcodes":"PUSH1 0x80 PUSH1 0x40 MSTORE PUSH1 0x5 PUSH1 0x1 SSTORE PUSH1 0x0 PUSH1 0x5 SSTORE CALLVALUE DUP1 ISZERO PUSH3 0x1B JUMPI PUSH1 0x0 DUP1 REVERT JUMPDEST POP PUSH1 0x40 MLOAD PUSH3 0x1CB9 CODESIZE SUB DUP1 PUSH3 0x1CB9 DUP4 CODECOPY DUP2 DUP2 ADD PUSH1 0x40 MSTORE DUP2 ADD SWAP1 PUSH3 0x41 SWAP2 SWAP1 PUSH3 0x3C6 JUMP JUMPDEST DUP2 PUSH1 0x2 SWAP1 DUP1 MLOAD SWAP1 PUSH1 0x20 ADD SWAP1 PUSH3 0x59 SWAP3 SWAP2 SWAP1 PUSH3 0x114 JUMP JUMPDEST POP DUP1 PUSH1 0x0 DUP1 PUSH2 0x100 EXP DUP2 SLOAD DUP2 PUSH20 0xFFFFFFFFFFFFFFFFFFFFFFFFFFFFFFFFFFFFFFFF MUL NOT AND SWAP1 DUP4 PUSH20 0xFFFFFFFFFFFFFFFFFFFFFFFFFFFFFFFFFFFFFFFF AND MUL OR SWAP1 SSTORE POP PUSH1 0x1 PUSH1 0x3 PUSH1 0x0 DUP4 PUSH20 0xFFFFFFFFFFFFFFFFFFFFFFFFFFFFFFFFFFFFFFFF AND PUSH20 0xFFFFFFFFFFFFFFFFFFFFFFFFFFFFFFFFFFFFFFFF AND DUP2 MSTORE PUSH1 0x20 ADD SWAP1 DUP2 MSTORE PUSH1 0x20 ADD PUSH1 0x0 KECCAK256 PUSH1 0x0 PUSH2 0x100 EXP DUP2 SLOAD DUP2 PUSH1 0xFF MUL NOT AND SWAP1 DUP4 ISZERO ISZERO MUL OR SWAP1 SSTORE POP PUSH1 0x5 PUSH1 0x0 DUP2 SLOAD DUP1 SWAP3 SWAP2 SWAP1 PUSH3 0x107 SWAP1 PUSH3 0x465 JUMP JUMPDEST SWAP2 SWAP1 POP SSTORE POP POP POP PUSH3 0x518 JUMP JUMPDEST DUP3 DUP1 SLOAD PUSH3 0x122 SWAP1 PUSH3 0x4E2 JUMP JUMPDEST SWAP1 PUSH1 0x0 MSTORE PUSH1 0x20 PUSH1 0x0 KECCAK256 SWAP1 PUSH1 0x1F ADD PUSH1 0x20 SWAP1 DIV DUP2 ADD SWAP3 DUP3 PUSH3 0x146 JUMPI PUSH1 0x0 DUP6 SSTORE PUSH3 0x192 JUMP JUMPDEST DUP3 PUSH1 0x1F LT PUSH3 0x161 JUMPI DUP1 MLOAD PUSH1 0xFF NOT AND DUP4 DUP1 ADD OR DUP6 SSTORE PUSH3 0x192 JUMP JUMPDEST DUP3 DUP1 ADD PUSH1 0x1 ADD DUP6 SSTORE DUP3 ISZERO PUSH3 0x192 JUMPI SWAP2 DUP3 ADD JUMPDEST DUP3 DUP2 GT ISZERO PUSH3 0x191 JUMPI DUP3 MLOAD DUP3 SSTORE SWAP2 PUSH1 0x20 ADD SWAP2 SWAP1 PUSH1 0x1 ADD SWAP1 PUSH3 0x174 JUMP JUMPDEST JUMPDEST POP SWAP1 POP PUSH3 0x1A1 SWAP2 SWAP1 PUSH3 0x1A5 JUMP JUMPDEST POP SWAP1 JUMP JUMPDEST JUMPDEST DUP1 DUP3 GT ISZERO PUSH3 0x1C0 JUMPI PUSH1 0x0 DUP2 PUSH1 0x0 SWAP1 SSTORE POP PUSH1 0x1 ADD PUSH3 0x1A6 JUMP JUMPDEST POP SWAP1 JUMP JUMPDEST PUSH1 0x0 PUSH1 0x40 MLOAD SWAP1 POP SWAP1 JUMP JUMPDEST PUSH1 0x0 DUP1 REVERT JUMPDEST PUSH1 0x0 DUP1 REVERT JUMPDEST PUSH1 0x0 DUP1 REVERT JUMPDEST PUSH1 0x0 DUP1 REVERT JUMPDEST PUSH1 0x0 PUSH1 0x1F NOT PUSH1 0x1F DUP4 ADD AND SWAP1 POP SWAP2 SWAP1 POP JUMP JUMPDEST PUSH32 0x4E487B7100000000000000000000000000000000000000000000000000000000 PUSH1 0x0 MSTORE PUSH1 0x41 PUSH1 0x4 MSTORE PUSH1 0x24 PUSH1 0x0 REVERT JUMPDEST PUSH3 0x22D DUP3 PUSH3 0x1E2 JUMP JUMPDEST DUP2 ADD DUP2 DUP2 LT PUSH8 0xFFFFFFFFFFFFFFFF DUP3 GT OR ISZERO PUSH3 0x24F JUMPI PUSH3 0x24E PUSH3 0x1F3 JUMP JUMPDEST JUMPDEST DUP1 PUSH1 0x40 MSTORE POP POP POP JUMP JUMPDEST PUSH1 0x0 PUSH3 0x264 PUSH3 0x1C4 JUMP JUMPDEST SWAP1 POP PUSH3 0x272 DUP3 DUP3 PUSH3 0x222 JUMP JUMPDEST SWAP2 SWAP1 POP JUMP JUMPDEST PUSH1 0x0 PUSH8 0xFFFFFFFFFFFFFFFF DUP3 GT ISZERO PUSH3 0x295 JUMPI PUSH3 0x294 PUSH3 0x1F3 JUMP JUMPDEST JUMPDEST PUSH3 0x2A0 DUP3 PUSH3 0x1E2 JUMP JUMPDEST SWAP1 POP PUSH1 0x20 DUP2 ADD SWAP1 POP SWAP2 SWAP1 POP JUMP JUMPDEST PUSH1 0x0 JUMPDEST DUP4 DUP2 LT ISZERO PUSH3 0x2CD JUMPI DUP1 DUP3 ADD MLOAD DUP2 DUP5 ADD MSTORE PUSH1 0x20 DUP2 ADD SWAP1 POP PUSH3 0x2B0 JUMP JUMPDEST DUP4 DUP2 GT ISZERO PUSH3 0x2DD JUMPI PUSH1 0x0 DUP5 DUP5 ADD MSTORE JUMPDEST POP POP POP POP JUMP JUMPDEST PUSH1 0x0 PUSH3 0x2FA PUSH3 0x2F4 DUP5 PUSH3 0x277 JUMP JUMPDEST PUSH3 0x258 JUMP JUMPDEST SWAP1 POP DUP3 DUP2 MSTORE PUSH1 0x20 DUP2 ADD DUP5 DUP5 DUP5 ADD GT ISZERO PUSH3 0x319 JUMPI PUSH3 0x318 PUSH3 0x1DD JUMP JUMPDEST JUMPDEST PUSH3 0x326 DUP5 DUP3 DUP6 PUSH3 0x2AD JUMP JUMPDEST POP SWAP4 SWAP3 POP POP POP JUMP JUMPDEST PUSH1 0x0 DUP3 PUSH1 0x1F DUP4 ADD SLT PUSH3 0x346 JUMPI PUSH3 0x345 PUSH3 0x1D8 JUMP JUMPDEST JUMPDEST DUP2 MLOAD PUSH3 0x358 DUP5 DUP3 PUSH1 0x20 DUP7 ADD PUSH3 0x2E3 JUMP JUMPDEST SWAP2 POP POP SWAP3 SWAP2 POP POP JUMP JUMPDEST PUSH1 0x0 PUSH20 0xFFFFFFFFFFFFFFFFFFFFFFFFFFFFFFFFFFFFFFFF DUP3 AND SWAP1 POP SWAP2 SWAP1 POP JUMP JUMPDEST PUSH1 0x0 PUSH3 0x38E DUP3 PUSH3 0x361 JUMP JUMPDEST SWAP1 POP SWAP2 SWAP1 POP JUMP JUMPDEST PUSH3 0x3A0 DUP2 PUSH3 0x381 JUMP JUMPDEST DUP2 EQ PUSH3 0x3AC JUMPI PUSH1 0x0 DUP1 REVERT JUMPDEST POP JUMP JUMPDEST PUSH1 0x0 DUP2 MLOAD SWAP1 POP PUSH3 0x3C0 DUP2 PUSH3 0x395 JUMP JUMPDEST SWAP3 SWAP2 POP POP JUMP JUMPDEST PUSH1 0x0 DUP1 PUSH1 0x40 DUP4 DUP6 SUB SLT ISZERO PUSH3 0x3E0 JUMPI PUSH3 0x3DF PUSH3 0x1CE JUMP JUMPDEST JUMPDEST PUSH1 0x0 DUP4 ADD MLOAD PUSH8 0xFFFFFFFFFFFFFFFF DUP2 GT ISZERO PUSH3 0x401 JUMPI PUSH3 0x400 PUSH3 0x1D3 JUMP JUMPDEST JUMPDEST PUSH3 0x40F DUP6 DUP3 DUP7 ADD PUSH3 0x32E JUMP JUMPDEST SWAP3 POP POP PUSH1 0x20 PUSH3 0x422 DUP6 DUP3 DUP7 ADD PUSH3 0x3AF JUMP JUMPDEST SWAP2 POP POP SWAP3 POP SWAP3 SWAP1 POP JUMP JUMPDEST PUSH32 0x4E487B7100000000000000000000000000000000000000000000000000000000 PUSH1 0x0 MSTORE PUSH1 0x11 PUSH1 0x4 MSTORE PUSH1 0x24 PUSH1 0x0 REVERT JUMPDEST PUSH1 0x0 DUP2 SWAP1 POP SWAP2 SWAP1 POP JUMP JUMPDEST PUSH1 0x0 PUSH3 0x472 DUP3 PUSH3 0x45B JUMP JUMPDEST SWAP2 POP PUSH32 0xFFFFFFFFFFFFFFFFFFFFFFFFFFFFFFFFFFFFFFFFFFFFFFFFFFFFFFFFFFFFFFFF DUP3 EQ ISZERO PUSH3 0x4A8 JUMPI PUSH3 0x4A7 PUSH3 0x42C JUMP JUMPDEST JUMPDEST PUSH1 0x1 DUP3 ADD SWAP1 POP SWAP2 SWAP1 POP JUMP JUMPDEST PUSH32 0x4E487B7100000000000000000000000000000000000000000000000000000000 PUSH1 0x0 MSTORE PUSH1 0x22 PUSH1 0x4 MSTORE PUSH1 0x24 PUSH1 0x0 REVERT JUMPDEST PUSH1 0x0 PUSH1 0x2 DUP3 DIV SWAP1 POP PUSH1 0x1 DUP3 AND DUP1 PUSH3 0x4FB JUMPI PUSH1 0x7F DUP3 AND SWAP2 POP JUMPDEST PUSH1 0x20 DUP3 LT DUP2 EQ ISZERO PUSH3 0x512 JUMPI PUSH3 0x511 PUSH3 0x4B3 JUMP JUMPDEST JUMPDEST POP SWAP2 SWAP1 POP JUMP JUMPDEST PUSH2 0x1791 DUP1 PUSH3 0x528 PUSH1 0x0 CODECOPY PUSH1 0x0 RETURN INVALID PUSH1 0x80 PUSH1 0x40 MSTORE CALLVALUE DUP1 ISZERO PUSH2 0x10 JUMPI PUSH1 0x0 DUP1 REVERT JUMPDEST POP PUSH1 0x4 CALLDATASIZE LT PUSH2 0xF5 JUMPI PUSH1 0x0 CALLDATALOAD PUSH1 0xE0 SHR DUP1 PUSH4 0x975DE960 GT PUSH2 0x97 JUMPI DUP1 PUSH4 0xD478E879 GT PUSH2 0x66 JUMPI DUP1 PUSH4 0xD478E879 EQ PUSH2 0x27A JUMPI DUP1 PUSH4 0xDA252C91 EQ PUSH2 0x298 JUMPI DUP1 PUSH4 0xE244EBAA EQ PUSH2 0x2BA JUMPI DUP1 PUSH4 0xFA9C48B7 EQ PUSH2 0x2EA JUMPI PUSH2 0xF5 JUMP JUMPDEST DUP1 PUSH4 0x975DE960 EQ PUSH2 0x1E0 JUMPI DUP1 PUSH4 0xA3FBBAAE EQ PUSH2 0x1FC JUMPI DUP1 PUSH4 0xBDAA0671 EQ PUSH2 0x22C JUMPI DUP1 PUSH4 0xCAD9642B EQ PUSH2 0x25C JUMPI PUSH2 0xF5 JUMP JUMPDEST DUP1 PUSH4 0x4C6A6F45 GT PUSH2 0xD3 JUMPI DUP1 PUSH4 0x4C6A6F45 EQ PUSH2 0x152 JUMPI DUP1 PUSH4 0x52C19C86 EQ PUSH2 0x170 JUMPI DUP1 PUSH4 0x6DF0B3A2 EQ PUSH2 0x18E JUMPI DUP1 PUSH4 0x8F5E9DE3 EQ PUSH2 0x1C2 JUMPI PUSH2 0xF5 JUMP JUMPDEST DUP1 PUSH4 0x4BB9BC0 EQ PUSH2 0xFA JUMPI DUP1 PUSH4 0x9208A75 EQ PUSH2 0x118 JUMPI DUP1 PUSH4 0x3639F17F EQ PUSH2 0x134 JUMPI JUMPDEST PUSH1 0x0 DUP1 REVERT JUMPDEST PUSH2 0x102 PUSH2 0x306 JUMP JUMPDEST PUSH1 0x40 MLOAD PUSH2 0x10F SWAP2 SWAP1 PUSH2 0xDDA JUMP JUMPDEST PUSH1 0x40 MLOAD DUP1 SWAP2 SUB SWAP1 RETURN JUMPDEST PUSH2 0x132 PUSH1 0x4 DUP1 CALLDATASIZE SUB DUP2 ADD SWAP1 PUSH2 0x12D SWAP2 SWAP1 PUSH2 0xE35 JUMP JUMPDEST PUSH2 0x30C JUMP JUMPDEST STOP JUMPDEST PUSH2 0x13C PUSH2 0x4C1 JUMP JUMPDEST PUSH1 0x40 MLOAD PUSH2 0x149 SWAP2 SWAP1 PUSH2 0xDDA JUMP JUMPDEST PUSH1 0x40 MLOAD DUP1 SWAP2 SUB SWAP1 RETURN JUMPDEST PUSH2 0x15A PUSH2 0x4C7 JUMP JUMPDEST PUSH1 0x40 MLOAD PUSH2 0x167 SWAP2 SWAP1 PUSH2 0xDDA JUMP JUMPDEST PUSH1 0x40 MLOAD DUP1 SWAP2 SUB SWAP1 RETURN JUMPDEST PUSH2 0x178 PUSH2 0x4CD JUMP JUMPDEST PUSH1 0x40 MLOAD PUSH2 0x185 SWAP2 SWAP1 PUSH2 0xE7D JUMP JUMPDEST PUSH1 0x40 MLOAD DUP1 SWAP2 SUB SWAP1 RETURN JUMPDEST PUSH2 0x1A8 PUSH1 0x4 DUP1 CALLDATASIZE SUB DUP2 ADD SWAP1 PUSH2 0x1A3 SWAP2 SWAP1 PUSH2 0xE35 JUMP JUMPDEST PUSH2 0x620 JUMP JUMPDEST PUSH1 0x40 MLOAD PUSH2 0x1B9 SWAP6 SWAP5 SWAP4 SWAP3 SWAP2 SWAP1 PUSH2 0xF72 JUMP JUMPDEST PUSH1 0x40 MLOAD DUP1 SWAP2 SUB SWAP1 RETURN JUMPDEST PUSH2 0x1CA PUSH2 0x793 JUMP JUMPDEST PUSH1 0x40 MLOAD PUSH2 0x1D7 SWAP2 SWAP1 PUSH2 0xFD3 JUMP JUMPDEST PUSH1 0x40 MLOAD DUP1 SWAP2 SUB SWAP1 RETURN JUMPDEST PUSH2 0x1FA PUSH1 0x4 DUP1 CALLDATASIZE SUB DUP2 ADD SWAP1 PUSH2 0x1F5 SWAP2 SWAP1 PUSH2 0x112A JUMP JUMPDEST PUSH2 0x821 JUMP JUMPDEST STOP JUMPDEST PUSH2 0x216 PUSH1 0x4 DUP1 CALLDATASIZE SUB DUP2 ADD SWAP1 PUSH2 0x211 SWAP2 SWAP1 PUSH2 0x11CE JUMP JUMPDEST PUSH2 0x982 JUMP JUMPDEST PUSH1 0x40 MLOAD PUSH2 0x223 SWAP2 SWAP1 PUSH2 0xE7D JUMP JUMPDEST PUSH1 0x40 MLOAD DUP1 SWAP2 SUB SWAP1 RETURN JUMPDEST PUSH2 0x246 PUSH1 0x4 DUP1 CALLDATASIZE SUB DUP2 ADD SWAP1 PUSH2 0x241 SWAP2 SWAP1 PUSH2 0xE35 JUMP JUMPDEST PUSH2 0xA5B JUMP JUMPDEST PUSH1 0x40 MLOAD PUSH2 0x253 SWAP2 SWAP1 PUSH2 0xE7D JUMP JUMPDEST PUSH1 0x40 MLOAD DUP1 SWAP2 SUB SWAP1 RETURN JUMPDEST PUSH2 0x264 PUSH2 0xAFB JUMP JUMPDEST PUSH1 0x40 MLOAD PUSH2 0x271 SWAP2 SWAP1 PUSH2 0xDDA JUMP JUMPDEST PUSH1 0x40 MLOAD DUP1 SWAP2 SUB SWAP1 RETURN JUMPDEST PUSH2 0x282 PUSH2 0xB05 JUMP JUMPDEST PUSH1 0x40 MLOAD PUSH2 0x28F SWAP2 SWAP1 PUSH2 0x11FB JUMP JUMPDEST PUSH1 0x40 MLOAD DUP1 SWAP2 SUB SWAP1 RETURN JUMPDEST PUSH2 0x2A0 PUSH2 0xB29 JUMP JUMPDEST PUSH1 0x40 MLOAD PUSH2 0x2B1 SWAP6 SWAP5 SWAP4 SWAP3 SWAP2 SWAP1 PUSH2 0x1216 JUMP JUMPDEST PUSH1 0x40 MLOAD DUP1 SWAP2 SUB SWAP1 RETURN JUMPDEST PUSH2 0x2D4 PUSH1 0x4 DUP1 CALLDATASIZE SUB DUP2 ADD SWAP1 PUSH2 0x2CF SWAP2 SWAP1 PUSH2 0x11CE JUMP JUMPDEST PUSH2 0xBFA JUMP JUMPDEST PUSH1 0x40 MLOAD PUSH2 0x2E1 SWAP2 SWAP1 PUSH2 0xE7D JUMP JUMPDEST PUSH1 0x40 MLOAD DUP1 SWAP2 SUB SWAP1 RETURN JUMPDEST PUSH2 0x304 PUSH1 0x4 DUP1 CALLDATASIZE SUB DUP2 ADD SWAP1 PUSH2 0x2FF SWAP2 SWAP1 PUSH2 0xE35 JUMP JUMPDEST PUSH2 0xC1A JUMP JUMPDEST STOP JUMPDEST PUSH1 0x5 SLOAD DUP2 JUMP JUMPDEST PUSH1 0x1 ISZERO ISZERO PUSH1 0x3 PUSH1 0x0 CALLER PUSH20 0xFFFFFFFFFFFFFFFFFFFFFFFFFFFFFFFFFFFFFFFF AND PUSH20 0xFFFFFFFFFFFFFFFFFFFFFFFFFFFFFFFFFFFFFFFF AND DUP2 MSTORE PUSH1 0x20 ADD SWAP1 DUP2 MSTORE PUSH1 0x20 ADD PUSH1 0x0 KECCAK256 PUSH1 0x0 SWAP1 SLOAD SWAP1 PUSH2 0x100 EXP SWAP1 DIV PUSH1 0xFF AND ISZERO ISZERO EQ PUSH2 0x39F JUMPI PUSH1 0x40 MLOAD PUSH32 0x8C379A000000000000000000000000000000000000000000000000000000000 DUP2 MSTORE PUSH1 0x4 ADD PUSH2 0x396 SWAP1 PUSH2 0x12E2 JUMP JUMPDEST PUSH1 0x40 MLOAD DUP1 SWAP2 SUB SWAP1 REVERT JUMPDEST PUSH1 0x0 PUSH1 0x6 PUSH1 0x0 DUP4 DUP2 MSTORE PUSH1 0x20 ADD SWAP1 DUP2 MSTORE PUSH1 0x20 ADD PUSH1 0x0 KECCAK256 SWAP1 POP CALLER PUSH20 0xFFFFFFFFFFFFFFFFFFFFFFFFFFFFFFFFFFFFFFFF AND DUP2 PUSH1 0x2 ADD PUSH1 0x0 SWAP1 SLOAD SWAP1 PUSH2 0x100 EXP SWAP1 DIV PUSH20 0xFFFFFFFFFFFFFFFFFFFFFFFFFFFFFFFFFFFFFFFF AND PUSH20 0xFFFFFFFFFFFFFFFFFFFFFFFFFFFFFFFFFFFFFFFF AND EQ ISZERO PUSH2 0x449 JUMPI PUSH1 0x40 MLOAD PUSH32 0x8C379A000000000000000000000000000000000000000000000000000000000 DUP2 MSTORE PUSH1 0x4 ADD PUSH2 0x440 SWAP1 PUSH2 0x134E JUMP JUMPDEST PUSH1 0x40 MLOAD DUP1 SWAP2 SUB SWAP1 REVERT JUMPDEST PUSH1 0x1 DUP2 PUSH1 0x4 ADD PUSH1 0x0 CALLER PUSH20 0xFFFFFFFFFFFFFFFFFFFFFFFFFFFFFFFFFFFFFFFF AND PUSH20 0xFFFFFFFFFFFFFFFFFFFFFFFFFFFFFFFFFFFFFFFF AND DUP2 MSTORE PUSH1 0x20 ADD SWAP1 DUP2 MSTORE PUSH1 0x20 ADD PUSH1 0x0 KECCAK256 PUSH1 0x0 PUSH2 0x100 EXP DUP2 SLOAD DUP2 PUSH1 0xFF MUL NOT AND SWAP1 DUP4 ISZERO ISZERO MUL OR SWAP1 SSTORE POP DUP1 PUSH1 0x3 ADD PUSH1 0x0 DUP2 SLOAD DUP1 SWAP3 SWAP2 SWAP1 PUSH2 0x4B8 SWAP1 PUSH2 0x139D JUMP JUMPDEST SWAP2 SWAP1 POP SSTORE POP POP POP JUMP JUMPDEST PUSH1 0x1 SLOAD DUP2 JUMP JUMPDEST PUSH1 0x4 SLOAD DUP2 JUMP JUMPDEST PUSH1 0x0 PUSH1 0x1 SLOAD PUSH1 0x5 SLOAD LT PUSH2 0x515 JUMPI PUSH1 0x40 MLOAD PUSH32 0x8C379A000000000000000000000000000000000000000000000000000000000 DUP2 MSTORE PUSH1 0x4 ADD PUSH2 0x50C SWAP1 PUSH2 0x1458 JUMP JUMPDEST PUSH1 0x40 MLOAD DUP1 SWAP2 SUB SWAP1 REVERT JUMPDEST PUSH1 0x1 ISZERO ISZERO PUSH1 0x3 PUSH1 0x0 CALLER PUSH20 0xFFFFFFFFFFFFFFFFFFFFFFFFFFFFFFFFFFFFFFFF AND PUSH20 0xFFFFFFFFFFFFFFFFFFFFFFFFFFFFFFFFFFFFFFFF AND DUP2 MSTORE PUSH1 0x20 ADD SWAP1 DUP2 MSTORE PUSH1 0x20 ADD PUSH1 0x0 KECCAK256 PUSH1 0x0 SWAP1 SLOAD SWAP1 PUSH2 0x100 EXP SWAP1 DIV PUSH1 0xFF AND ISZERO ISZERO EQ ISZERO PUSH2 0x5A9 JUMPI PUSH1 0x40 MLOAD PUSH32 0x8C379A000000000000000000000000000000000000000000000000000000000 DUP2 MSTORE PUSH1 0x4 ADD PUSH2 0x5A0 SWAP1 PUSH2 0x14C4 JUMP JUMPDEST PUSH1 0x40 MLOAD DUP1 SWAP2 SUB SWAP1 REVERT JUMPDEST PUSH1 0x1 PUSH1 0x3 PUSH1 0x0 CALLER PUSH20 0xFFFFFFFFFFFFFFFFFFFFFFFFFFFFFFFFFFFFFFFF AND PUSH20 0xFFFFFFFFFFFFFFFFFFFFFFFFFFFFFFFFFFFFFFFF AND DUP2 MSTORE PUSH1 0x20 ADD SWAP1 DUP2 MSTORE PUSH1 0x20 ADD PUSH1 0x0 KECCAK256 PUSH1 0x0 PUSH2 0x100 EXP DUP2 SLOAD DUP2 PUSH1 0xFF MUL NOT AND SWAP1 DUP4 ISZERO ISZERO MUL OR SWAP1 SSTORE POP PUSH1 0x5 PUSH1 0x0 DUP2 SLOAD DUP1 SWAP3 SWAP2 SWAP1 PUSH2 0x614 SWAP1 PUSH2 0x139D JUMP JUMPDEST SWAP2 SWAP1 POP SSTORE POP PUSH1 0x1 SWAP1 POP SWAP1 JUMP JUMPDEST PUSH1 0x6 PUSH1 0x20 MSTORE DUP1 PUSH1 0x0 MSTORE PUSH1 0x40 PUSH1 0x0 KECCAK256 PUSH1 0x0 SWAP2 POP SWAP1 POP DUP1 PUSH1 0x0 ADD DUP1 SLOAD PUSH2 0x643 SWAP1 PUSH2 0x1513 JUMP JUMPDEST DUP1 PUSH1 0x1F ADD PUSH1 0x20 DUP1 SWAP2 DIV MUL PUSH1 0x20 ADD PUSH1 0x40 MLOAD SWAP1 DUP2 ADD PUSH1 0x40 MSTORE DUP1 SWAP3 SWAP2 SWAP1 DUP2 DUP2 MSTORE PUSH1 0x20 ADD DUP3 DUP1 SLOAD PUSH2 0x66F SWAP1 PUSH2 0x1513 JUMP JUMPDEST DUP1 ISZERO PUSH2 0x6BC JUMPI DUP1 PUSH1 0x1F LT PUSH2 0x691 JUMPI PUSH2 0x100 DUP1 DUP4 SLOAD DIV MUL DUP4 MSTORE SWAP2 PUSH1 0x20 ADD SWAP2 PUSH2 0x6BC JUMP JUMPDEST DUP3 ADD SWAP2 SWAP1 PUSH1 0x0 MSTORE PUSH1 0x20 PUSH1 0x0 KECCAK256 SWAP1 JUMPDEST DUP2 SLOAD DUP2 MSTORE SWAP1 PUSH1 0x1 ADD SWAP1 PUSH1 0x20 ADD DUP1 DUP4 GT PUSH2 0x69F JUMPI DUP3 SWAP1 SUB PUSH1 0x1F AND DUP3 ADD SWAP2 JUMPDEST POP POP POP POP POP SWAP1 DUP1 PUSH1 0x1 ADD DUP1 SLOAD PUSH2 0x6D1 SWAP1 PUSH2 0x1513 JUMP JUMPDEST DUP1 PUSH1 0x1F ADD PUSH1 0x20 DUP1 SWAP2 DIV MUL PUSH1 0x20 ADD PUSH1 0x40 MLOAD SWAP1 DUP2 ADD PUSH1 0x40 MSTORE DUP1 SWAP3 SWAP2 SWAP1 DUP2 DUP2 MSTORE PUSH1 0x20 ADD DUP3 DUP1 SLOAD PUSH2 0x6FD SWAP1 PUSH2 0x1513 JUMP JUMPDEST DUP1 ISZERO PUSH2 0x74A JUMPI DUP1 PUSH1 0x1F LT PUSH2 0x71F JUMPI PUSH2 0x100 DUP1 DUP4 SLOAD DIV MUL DUP4 MSTORE SWAP2 PUSH1 0x20 ADD SWAP2 PUSH2 0x74A JUMP JUMPDEST DUP3 ADD SWAP2 SWAP1 PUSH1 0x0 MSTORE PUSH1 0x20 PUSH1 0x0 KECCAK256 SWAP1 JUMPDEST DUP2 SLOAD DUP2 MSTORE SWAP1 PUSH1 0x1 ADD SWAP1 PUSH1 0x20 ADD DUP1 DUP4 GT PUSH2 0x72D JUMPI DUP3 SWAP1 SUB PUSH1 0x1F AND DUP3 ADD SWAP2 JUMPDEST POP POP POP POP POP SWAP1 DUP1 PUSH1 0x2 ADD PUSH1 0x0 SWAP1 SLOAD SWAP1 PUSH2 0x100 EXP SWAP1 DIV PUSH20 0xFFFFFFFFFFFFFFFFFFFFFFFFFFFFFFFFFFFFFFFF AND SWAP1 DUP1 PUSH1 0x3 ADD SLOAD SWAP1 DUP1 PUSH1 0x5 ADD PUSH1 0x0 SWAP1 SLOAD SWAP1 PUSH2 0x100 EXP SWAP1 DIV PUSH1 0xFF AND SWAP1 POP DUP6 JUMP JUMPDEST PUSH1 0x2 DUP1 SLOAD PUSH2 0x7A0 SWAP1 PUSH2 0x1513 JUMP JUMPDEST DUP1 PUSH1 0x1F ADD PUSH1 0x20 DUP1 SWAP2 DIV MUL PUSH1 0x20 ADD PUSH1 0x40 MLOAD SWAP1 DUP2 ADD PUSH1 0x40 MSTORE DUP1 SWAP3 SWAP2 SWAP1 DUP2 DUP2 MSTORE PUSH1 0x20 ADD DUP3 DUP1 SLOAD PUSH2 0x7CC SWAP1 PUSH2 0x1513 JUMP JUMPDEST DUP1 ISZERO PUSH2 0x819 JUMPI DUP1 PUSH1 0x1F LT PUSH2 0x7EE JUMPI PUSH2 0x100 DUP1 DUP4 SLOAD DIV MUL DUP4 MSTORE SWAP2 PUSH1 0x20 ADD SWAP2 PUSH2 0x819 JUMP JUMPDEST DUP3 ADD SWAP2 SWAP1 PUSH1 0x0 MSTORE PUSH1 0x20 PUSH1 0x0 KECCAK256 SWAP1 JUMPDEST DUP2 SLOAD DUP2 MSTORE SWAP1 PUSH1 0x1 ADD SWAP1 PUSH1 0x20 ADD DUP1 DUP4 GT PUSH2 0x7FC JUMPI DUP3 SWAP1 SUB PUSH1 0x1F AND DUP3 ADD SWAP2 JUMPDEST POP POP POP POP POP DUP2 JUMP JUMPDEST PUSH1 0x1 ISZERO ISZERO PUSH1 0x3 PUSH1 0x0 CALLER PUSH20 0xFFFFFFFFFFFFFFFFFFFFFFFFFFFFFFFFFFFFFFFF AND PUSH20 0xFFFFFFFFFFFFFFFFFFFFFFFFFFFFFFFFFFFFFFFF AND DUP2 MSTORE PUSH1 0x20 ADD SWAP1 DUP2 MSTORE PUSH1 0x20 ADD PUSH1 0x0 KECCAK256 PUSH1 0x0 SWAP1 SLOAD SWAP1 PUSH2 0x100 EXP SWAP1 DIV PUSH1 0xFF AND ISZERO ISZERO EQ PUSH2 0x8B4 JUMPI PUSH1 0x40 MLOAD PUSH32 0x8C379A000000000000000000000000000000000000000000000000000000000 DUP2 MSTORE PUSH1 0x4 ADD PUSH2 0x8AB SWAP1 PUSH2 0x12E2 JUMP JUMPDEST PUSH1 0x40 MLOAD DUP1 SWAP2 SUB SWAP1 REVERT JUMPDEST PUSH1 0x0 PUSH1 0x6 PUSH1 0x0 PUSH1 0x4 PUSH1 0x0 DUP2 SLOAD DUP1 SWAP3 SWAP2 SWAP1 PUSH2 0x8CD SWAP1 PUSH2 0x139D JUMP JUMPDEST SWAP2 SWAP1 POP SSTORE DUP2 MSTORE PUSH1 0x20 ADD SWAP1 DUP2 MSTORE PUSH1 0x20 ADD PUSH1 0x0 KECCAK256 SWAP1 POP DUP3 DUP2 PUSH1 0x0 ADD SWAP1 DUP1 MLOAD SWAP1 PUSH1 0x20 ADD SWAP1 PUSH2 0x8F9 SWAP3 SWAP2 SWAP1 PUSH2 0xD1E JUMP JUMPDEST POP DUP2 DUP2 PUSH1 0x1 ADD SWAP1 DUP1 MLOAD SWAP1 PUSH1 0x20 ADD SWAP1 PUSH2 0x912 SWAP3 SWAP2 SWAP1 PUSH2 0xD1E JUMP JUMPDEST POP PUSH1 0x0 DUP2 PUSH1 0x5 ADD PUSH1 0x0 PUSH2 0x100 EXP DUP2 SLOAD DUP2 PUSH1 0xFF MUL NOT AND SWAP1 DUP4 ISZERO ISZERO MUL OR SWAP1 SSTORE POP PUSH1 0x0 DUP2 PUSH1 0x3 ADD DUP2 SWAP1 SSTORE POP CALLER DUP2 PUSH1 0x2 ADD PUSH1 0x0 PUSH2 0x100 EXP DUP2 SLOAD DUP2 PUSH20 0xFFFFFFFFFFFFFFFFFFFFFFFFFFFFFFFFFFFFFFFF MUL NOT AND SWAP1 DUP4 PUSH20 0xFFFFFFFFFFFFFFFFFFFFFFFFFFFFFFFFFFFFFFFF AND MUL OR SWAP1 SSTORE POP POP POP POP JUMP JUMPDEST PUSH1 0x0 CALLER PUSH20 0xFFFFFFFFFFFFFFFFFFFFFFFFFFFFFFFFFFFFFFFF AND PUSH1 0x0 DUP1 SLOAD SWAP1 PUSH2 0x100 EXP SWAP1 DIV PUSH20 0xFFFFFFFFFFFFFFFFFFFFFFFFFFFFFFFFFFFFFFFF AND PUSH20 0xFFFFFFFFFFFFFFFFFFFFFFFFFFFFFFFFFFFFFFFF AND EQ PUSH2 0xA12 JUMPI PUSH1 0x40 MLOAD PUSH32 0x8C379A000000000000000000000000000000000000000000000000000000000 DUP2 MSTORE PUSH1 0x4 ADD PUSH2 0xA09 SWAP1 PUSH2 0x15B7 JUMP JUMPDEST PUSH1 0x40 MLOAD DUP1 SWAP2 SUB SWAP1 REVERT JUMPDEST DUP2 PUSH1 0x0 DUP1 PUSH2 0x100 EXP DUP2 SLOAD DUP2 PUSH20 0xFFFFFFFFFFFFFFFFFFFFFFFFFFFFFFFFFFFFFFFF MUL NOT AND SWAP1 DUP4 PUSH20 0xFFFFFFFFFFFFFFFFFFFFFFFFFFFFFFFFFFFFFFFF AND MUL OR SWAP1 SSTORE POP PUSH1 0x1 SWAP1 POP SWAP2 SWAP1 POP JUMP JUMPDEST PUSH1 0x0 CALLER PUSH20 0xFFFFFFFFFFFFFFFFFFFFFFFFFFFFFFFFFFFFFFFF AND PUSH1 0x0 DUP1 SLOAD SWAP1 PUSH2 0x100 EXP SWAP1 DIV PUSH20 0xFFFFFFFFFFFFFFFFFFFFFFFFFFFFFFFFFFFFFFFF AND PUSH20 0xFFFFFFFFFFFFFFFFFFFFFFFFFFFFFFFFFFFFFFFF AND EQ PUSH2 0xAEB JUMPI PUSH1 0x40 MLOAD PUSH32 0x8C379A000000000000000000000000000000000000000000000000000000000 DUP2 MSTORE PUSH1 0x4 ADD PUSH2 0xAE2 SWAP1 PUSH2 0x1649 JUMP JUMPDEST PUSH1 0x40 MLOAD DUP1 SWAP2 SUB SWAP1 REVERT JUMPDEST DUP2 PUSH1 0x1 DUP2 SWAP1 SSTORE POP PUSH1 0x1 SWAP1 POP SWAP2 SWAP1 POP JUMP JUMPDEST PUSH1 0x0 PUSH1 0x4 SLOAD SWAP1 POP SWAP1 JUMP JUMPDEST PUSH1 0x0 DUP1 SLOAD SWAP1 PUSH2 0x100 EXP SWAP1 DIV PUSH20 0xFFFFFFFFFFFFFFFFFFFFFFFFFFFFFFFFFFFFFFFF AND DUP2 JUMP JUMPDEST PUSH1 0x60 PUSH1 0x0 DUP1 PUSH1 0x0 DUP1 PUSH1 0x2 PUSH1 0x4 SLOAD PUSH1 0x5 SLOAD PUSH1 0x0 DUP1 SLOAD SWAP1 PUSH2 0x100 EXP SWAP1 DIV PUSH20 0xFFFFFFFFFFFFFFFFFFFFFFFFFFFFFFFFFFFFFFFF AND PUSH1 0x1 SLOAD DUP5 DUP1 SLOAD PUSH2 0xB69 SWAP1 PUSH2 0x1513 JUMP JUMPDEST DUP1 PUSH1 0x1F ADD PUSH1 0x20 DUP1 SWAP2 DIV MUL PUSH1 0x20 ADD PUSH1 0x40 MLOAD SWAP1 DUP2 ADD PUSH1 0x40 MSTORE DUP1 SWAP3 SWAP2 SWAP1 DUP2 DUP2 MSTORE PUSH1 0x20 ADD DUP3 DUP1 SLOAD PUSH2 0xB95 SWAP1 PUSH2 0x1513 JUMP JUMPDEST DUP1 ISZERO PUSH2 0xBE2 JUMPI DUP1 PUSH1 0x1F LT PUSH2 0xBB7 JUMPI PUSH2 0x100 DUP1 DUP4 SLOAD DIV MUL DUP4 MSTORE SWAP2 PUSH1 0x20 ADD SWAP2 PUSH2 0xBE2 JUMP JUMPDEST DUP3 ADD SWAP2 SWAP1 PUSH1 0x0 MSTORE PUSH1 0x20 PUSH1 0x0 KECCAK256 SWAP1 JUMPDEST DUP2 SLOAD DUP2 MSTORE SWAP1 PUSH1 0x1 ADD SWAP1 PUSH1 0x20 ADD DUP1 DUP4 GT PUSH2 0xBC5 JUMPI DUP3 SWAP1 SUB PUSH1 0x1F AND DUP3 ADD SWAP2 JUMPDEST POP POP POP POP POP SWAP5 POP SWAP5 POP SWAP5 POP SWAP5 POP SWAP5 POP SWAP5 POP SWAP1 SWAP2 SWAP3 SWAP4 SWAP5 JUMP JUMPDEST PUSH1 0x3 PUSH1 0x20 MSTORE DUP1 PUSH1 0x0 MSTORE PUSH1 0x40 PUSH1 0x0 KECCAK256 PUSH1 0x0 SWAP2 POP SLOAD SWAP1 PUSH2 0x100 EXP SWAP1 DIV PUSH1 0xFF AND DUP2 JUMP JUMPDEST PUSH1 0x0 PUSH1 0x6 PUSH1 0x0 DUP4 DUP2 MSTORE PUSH1 0x20 ADD SWAP1 DUP2 MSTORE PUSH1 0x20 ADD PUSH1 0x0 KECCAK256 SWAP1 POP CALLER PUSH20 0xFFFFFFFFFFFFFFFFFFFFFFFFFFFFFFFFFFFFFFFF AND DUP2 PUSH1 0x2 ADD PUSH1 0x0 SWAP1 SLOAD SWAP1 PUSH2 0x100 EXP SWAP1 DIV PUSH20 0xFFFFFFFFFFFFFFFFFFFFFFFFFFFFFFFFFFFFFFFF AND PUSH20 0xFFFFFFFFFFFFFFFFFFFFFFFFFFFFFFFFFFFFFFFF AND EQ PUSH2 0xCC3 JUMPI PUSH1 0x40 MLOAD PUSH32 0x8C379A000000000000000000000000000000000000000000000000000000000 DUP2 MSTORE PUSH1 0x4 ADD PUSH2 0xCBA SWAP1 PUSH2 0x16DB JUMP JUMPDEST PUSH1 0x40 MLOAD DUP1 SWAP2 SUB SWAP1 REVERT JUMPDEST DUP1 PUSH1 0x5 ADD PUSH1 0x0 SWAP1 SLOAD SWAP1 PUSH2 0x100 EXP SWAP1 DIV PUSH1 0xFF AND ISZERO PUSH2 0xCDF JUMPI PUSH1 0x0 DUP1 REVERT JUMPDEST PUSH1 0x2 PUSH1 0x5 SLOAD PUSH2 0xCEE SWAP2 SWAP1 PUSH2 0x172A JUMP JUMPDEST DUP2 PUSH1 0x3 ADD SLOAD GT PUSH2 0xCFD JUMPI PUSH1 0x0 DUP1 REVERT JUMPDEST PUSH1 0x1 DUP2 PUSH1 0x5 ADD PUSH1 0x0 PUSH2 0x100 EXP DUP2 SLOAD DUP2 PUSH1 0xFF MUL NOT AND SWAP1 DUP4 ISZERO ISZERO MUL OR SWAP1 SSTORE POP POP POP JUMP JUMPDEST DUP3 DUP1 SLOAD PUSH2 0xD2A SWAP1 PUSH2 0x1513 JUMP JUMPDEST SWAP1 PUSH1 0x0 MSTORE PUSH1 0x20 PUSH1 0x0 KECCAK256 SWAP1 PUSH1 0x1F ADD PUSH1 0x20 SWAP1 DIV DUP2 ADD SWAP3 DUP3 PUSH2 0xD4C JUMPI PUSH1 0x0 DUP6 SSTORE PUSH2 0xD93 JUMP JUMPDEST DUP3 PUSH1 0x1F LT PUSH2 0xD65 JUMPI DUP1 MLOAD PUSH1 0xFF NOT AND DUP4 DUP1 ADD OR DUP6 SSTORE PUSH2 0xD93 JUMP JUMPDEST DUP3 DUP1 ADD PUSH1 0x1 ADD DUP6 SSTORE DUP3 ISZERO PUSH2 0xD93 JUMPI SWAP2 DUP3 ADD JUMPDEST DUP3 DUP2 GT ISZERO PUSH2 0xD92 JUMPI DUP3 MLOAD DUP3 SSTORE SWAP2 PUSH1 0x20 ADD SWAP2 SWAP1 PUSH1 0x1 ADD SWAP1 PUSH2 0xD77 JUMP JUMPDEST JUMPDEST POP SWAP1 POP PUSH2 0xDA0 SWAP2 SWAP1 PUSH2 0xDA4 JUMP JUMPDEST POP SWAP1 JUMP JUMPDEST JUMPDEST DUP1 DUP3 GT ISZERO PUSH2 0xDBD JUMPI PUSH1 0x0 DUP2 PUSH1 0x0 SWAP1 SSTORE POP PUSH1 0x1 ADD PUSH2 0xDA5 JUMP JUMPDEST POP SWAP1 JUMP JUMPDEST PUSH1 0x0 DUP2 SWAP1 POP SWAP2 SWAP1 POP JUMP JUMPDEST PUSH2 0xDD4 DUP2 PUSH2 0xDC1 JUMP JUMPDEST DUP3 MSTORE POP POP JUMP JUMPDEST PUSH1 0x0 PUSH1 0x20 DUP3 ADD SWAP1 POP PUSH2 0xDEF PUSH1 0x0 DUP4 ADD DUP5 PUSH2 0xDCB JUMP JUMPDEST SWAP3 SWAP2 POP POP JUMP JUMPDEST PUSH1 0x0 PUSH1 0x40 MLOAD SWAP1 POP SWAP1 JUMP JUMPDEST PUSH1 0x0 DUP1 REVERT JUMPDEST PUSH1 0x0 DUP1 REVERT JUMPDEST PUSH2 0xE12 DUP2 PUSH2 0xDC1 JUMP JUMPDEST DUP2 EQ PUSH2 0xE1D JUMPI PUSH1 0x0 DUP1 REVERT JUMPDEST POP JUMP JUMPDEST PUSH1 0x0 DUP2 CALLDATALOAD SWAP1 POP PUSH2 0xE2F DUP2 PUSH2 0xE09 JUMP JUMPDEST SWAP3 SWAP2 POP POP JUMP JUMPDEST PUSH1 0x0 PUSH1 0x20 DUP3 DUP5 SUB SLT ISZERO PUSH2 0xE4B JUMPI PUSH2 0xE4A PUSH2 0xDFF JUMP JUMPDEST JUMPDEST PUSH1 0x0 PUSH2 0xE59 DUP5 DUP3 DUP6 ADD PUSH2 0xE20 JUMP JUMPDEST SWAP2 POP POP SWAP3 SWAP2 POP POP JUMP JUMPDEST PUSH1 0x0 DUP2 ISZERO ISZERO SWAP1 POP SWAP2 SWAP1 POP JUMP JUMPDEST PUSH2 0xE77 DUP2 PUSH2 0xE62 JUMP JUMPDEST DUP3 MSTORE POP POP JUMP JUMPDEST PUSH1 0x0 PUSH1 0x20 DUP3 ADD SWAP1 POP PUSH2 0xE92 PUSH1 0x0 DUP4 ADD DUP5 PUSH2 0xE6E JUMP JUMPDEST SWAP3 SWAP2 POP POP JUMP JUMPDEST PUSH1 0x0 DUP2 MLOAD SWAP1 POP SWAP2 SWAP1 POP JUMP JUMPDEST PUSH1 0x0 DUP3 DUP3 MSTORE PUSH1 0x20 DUP3 ADD SWAP1 POP SWAP3 SWAP2 POP POP JUMP JUMPDEST PUSH1 0x0 JUMPDEST DUP4 DUP2 LT ISZERO PUSH2 0xED2 JUMPI DUP1 DUP3 ADD MLOAD DUP2 DUP5 ADD MSTORE PUSH1 0x20 DUP2 ADD SWAP1 POP PUSH2 0xEB7 JUMP JUMPDEST DUP4 DUP2 GT ISZERO PUSH2 0xEE1 JUMPI PUSH1 0x0 DUP5 DUP5 ADD MSTORE JUMPDEST POP POP POP POP JUMP JUMPDEST PUSH1 0x0 PUSH1 0x1F NOT PUSH1 0x1F DUP4 ADD AND SWAP1 POP SWAP2 SWAP1 POP JUMP JUMPDEST PUSH1 0x0 PUSH2 0xF03 DUP3 PUSH2 0xE98 JUMP JUMPDEST PUSH2 0xF0D DUP2 DUP6 PUSH2 0xEA3 JUMP JUMPDEST SWAP4 POP PUSH2 0xF1D DUP2 DUP6 PUSH1 0x20 DUP7 ADD PUSH2 0xEB4 JUMP JUMPDEST PUSH2 0xF26 DUP2 PUSH2 0xEE7 JUMP JUMPDEST DUP5 ADD SWAP2 POP POP SWAP3 SWAP2 POP POP JUMP JUMPDEST PUSH1 0x0 PUSH20 0xFFFFFFFFFFFFFFFFFFFFFFFFFFFFFFFFFFFFFFFF DUP3 AND SWAP1 POP SWAP2 SWAP1 POP JUMP JUMPDEST PUSH1 0x0 PUSH2 0xF5C DUP3 PUSH2 0xF31 JUMP JUMPDEST SWAP1 POP SWAP2 SWAP1 POP JUMP JUMPDEST PUSH2 0xF6C DUP2 PUSH2 0xF51 JUMP JUMPDEST DUP3 MSTORE POP POP JUMP JUMPDEST PUSH1 0x0 PUSH1 0xA0 DUP3 ADD SWAP1 POP DUP2 DUP2 SUB PUSH1 0x0 DUP4 ADD MSTORE PUSH2 0xF8C DUP2 DUP9 PUSH2 0xEF8 JUMP JUMPDEST SWAP1 POP DUP2 DUP2 SUB PUSH1 0x20 DUP4 ADD MSTORE PUSH2 0xFA0 DUP2 DUP8 PUSH2 0xEF8 JUMP JUMPDEST SWAP1 POP PUSH2 0xFAF PUSH1 0x40 DUP4 ADD DUP7 PUSH2 0xF63 JUMP JUMPDEST PUSH2 0xFBC PUSH1 0x60 DUP4 ADD DUP6 PUSH2 0xDCB JUMP JUMPDEST PUSH2 0xFC9 PUSH1 0x80 DUP4 ADD DUP5 PUSH2 0xE6E JUMP JUMPDEST SWAP7 SWAP6 POP POP POP POP POP POP JUMP JUMPDEST PUSH1 0x0 PUSH1 0x20 DUP3 ADD SWAP1 POP DUP2 DUP2 SUB PUSH1 0x0 DUP4 ADD MSTORE PUSH2 0xFED DUP2 DUP5 PUSH2 0xEF8 JUMP JUMPDEST SWAP1 POP SWAP3 SWAP2 POP POP JUMP JUMPDEST PUSH1 0x0 DUP1 REVERT JUMPDEST PUSH1 0x0 DUP1 REVERT JUMPDEST PUSH32 0x4E487B7100000000000000000000000000000000000000000000000000000000 PUSH1 0x0 MSTORE PUSH1 0x41 PUSH1 0x4 MSTORE PUSH1 0x24 PUSH1 0x0 REVERT JUMPDEST PUSH2 0x1037 DUP3 PUSH2 0xEE7 JUMP JUMPDEST DUP2 ADD DUP2 DUP2 LT PUSH8 0xFFFFFFFFFFFFFFFF DUP3 GT OR ISZERO PUSH2 0x1056 JUMPI PUSH2 0x1055 PUSH2 0xFFF JUMP JUMPDEST JUMPDEST DUP1 PUSH1 0x40 MSTORE POP POP POP JUMP JUMPDEST PUSH1 0x0 PUSH2 0x1069 PUSH2 0xDF5 JUMP JUMPDEST SWAP1 POP PUSH2 0x1075 DUP3 DUP3 PUSH2 0x102E JUMP JUMPDEST SWAP2 SWAP1 POP JUMP JUMPDEST PUSH1 0x0 PUSH8 0xFFFFFFFFFFFFFFFF DUP3 GT ISZERO PUSH2 0x1095 JUMPI PUSH2 0x1094 PUSH2 0xFFF JUMP JUMPDEST JUMPDEST PUSH2 0x109E DUP3 PUSH2 0xEE7 JUMP JUMPDEST SWAP1 POP PUSH1 0x20 DUP2 ADD SWAP1 POP SWAP2 SWAP1 POP JUMP JUMPDEST DUP3 DUP2 DUP4 CALLDATACOPY PUSH1 0x0 DUP4 DUP4 ADD MSTORE POP POP POP JUMP JUMPDEST PUSH1 0x0 PUSH2 0x10CD PUSH2 0x10C8 DUP5 PUSH2 0x107A JUMP JUMPDEST PUSH2 0x105F JUMP JUMPDEST SWAP1 POP DUP3 DUP2 MSTORE PUSH1 0x20 DUP2 ADD DUP5 DUP5 DUP5 ADD GT ISZERO PUSH2 0x10E9 JUMPI PUSH2 0x10E8 PUSH2 0xFFA JUMP JUMPDEST JUMPDEST PUSH2 0x10F4 DUP5 DUP3 DUP6 PUSH2 0x10AB JUMP JUMPDEST POP SWAP4 SWAP3 POP POP POP JUMP JUMPDEST PUSH1 0x0 DUP3 PUSH1 0x1F DUP4 ADD SLT PUSH2 0x1111 JUMPI PUSH2 0x1110 PUSH2 0xFF5 JUMP JUMPDEST JUMPDEST DUP2 CALLDATALOAD PUSH2 0x1121 DUP5 DUP3 PUSH1 0x20 DUP7 ADD PUSH2 0x10BA JUMP JUMPDEST SWAP2 POP POP SWAP3 SWAP2 POP POP JUMP JUMPDEST PUSH1 0x0 DUP1 PUSH1 0x40 DUP4 DUP6 SUB SLT ISZERO PUSH2 0x1141 JUMPI PUSH2 0x1140 PUSH2 0xDFF JUMP JUMPDEST JUMPDEST PUSH1 0x0 DUP4 ADD CALLDATALOAD PUSH8 0xFFFFFFFFFFFFFFFF DUP2 GT ISZERO PUSH2 0x115F JUMPI PUSH2 0x115E PUSH2 0xE04 JUMP JUMPDEST JUMPDEST PUSH2 0x116B DUP6 DUP3 DUP7 ADD PUSH2 0x10FC JUMP JUMPDEST SWAP3 POP POP PUSH1 0x20 DUP4 ADD CALLDATALOAD PUSH8 0xFFFFFFFFFFFFFFFF DUP2 GT ISZERO PUSH2 0x118C JUMPI PUSH2 0x118B PUSH2 0xE04 JUMP JUMPDEST JUMPDEST PUSH2 0x1198 DUP6 DUP3 DUP7 ADD PUSH2 0x10FC JUMP JUMPDEST SWAP2 POP POP SWAP3 POP SWAP3 SWAP1 POP JUMP JUMPDEST PUSH2 0x11AB DUP2 PUSH2 0xF51 JUMP JUMPDEST DUP2 EQ PUSH2 0x11B6 JUMPI PUSH1 0x0 DUP1 REVERT JUMPDEST POP JUMP JUMPDEST PUSH1 0x0 DUP2 CALLDATALOAD SWAP1 POP PUSH2 0x11C8 DUP2 PUSH2 0x11A2 JUMP JUMPDEST SWAP3 SWAP2 POP POP JUMP JUMPDEST PUSH1 0x0 PUSH1 0x20 DUP3 DUP5 SUB SLT ISZERO PUSH2 0x11E4 JUMPI PUSH2 0x11E3 PUSH2 0xDFF JUMP JUMPDEST JUMPDEST PUSH1 0x0 PUSH2 0x11F2 DUP5 DUP3 DUP6 ADD PUSH2 0x11B9 JUMP JUMPDEST SWAP2 POP POP SWAP3 SWAP2 POP POP JUMP JUMPDEST PUSH1 0x0 PUSH1 0x20 DUP3 ADD SWAP1 POP PUSH2 0x1210 PUSH1 0x0 DUP4 ADD DUP5 PUSH2 0xF63 JUMP JUMPDEST SWAP3 SWAP2 POP POP JUMP JUMPDEST PUSH1 0x0 PUSH1 0xA0 DUP3 ADD SWAP1 POP DUP2 DUP2 SUB PUSH1 0x0 DUP4 ADD MSTORE PUSH2 0x1230 DUP2 DUP9 PUSH2 0xEF8 JUMP JUMPDEST SWAP1 POP PUSH2 0x123F PUSH1 0x20 DUP4 ADD DUP8 PUSH2 0xDCB JUMP JUMPDEST PUSH2 0x124C PUSH1 0x40 DUP4 ADD DUP7 PUSH2 0xDCB JUMP JUMPDEST PUSH2 0x1259 PUSH1 0x60 DUP4 ADD DUP6 PUSH2 0xF63 JUMP JUMPDEST PUSH2 0x1266 PUSH1 0x80 DUP4 ADD DUP5 PUSH2 0xDCB JUMP JUMPDEST SWAP7 SWAP6 POP POP POP POP POP POP JUMP JUMPDEST PUSH32 0x4F6E6C7920646F63746F727320696E206E6574776F726B2063616E20646F2074 PUSH1 0x0 DUP3 ADD MSTORE PUSH32 0x68697320616374696F6E2E000000000000000000000000000000000000000000 PUSH1 0x20 DUP3 ADD MSTORE POP JUMP JUMPDEST PUSH1 0x0 PUSH2 0x12CC PUSH1 0x2B DUP4 PUSH2 0xEA3 JUMP JUMPDEST SWAP2 POP PUSH2 0x12D7 DUP3 PUSH2 0x1270 JUMP JUMPDEST PUSH1 0x40 DUP3 ADD SWAP1 POP SWAP2 SWAP1 POP JUMP JUMPDEST PUSH1 0x0 PUSH1 0x20 DUP3 ADD SWAP1 POP DUP2 DUP2 SUB PUSH1 0x0 DUP4 ADD MSTORE PUSH2 0x12FB DUP2 PUSH2 0x12BF JUMP JUMPDEST SWAP1 POP SWAP2 SWAP1 POP JUMP JUMPDEST PUSH32 0x43616E27742076657269667920796F7572206F776E207265706F72742E000000 PUSH1 0x0 DUP3 ADD MSTORE POP JUMP JUMPDEST PUSH1 0x0 PUSH2 0x1338 PUSH1 0x1D DUP4 PUSH2 0xEA3 JUMP JUMPDEST SWAP2 POP PUSH2 0x1343 DUP3 PUSH2 0x1302 JUMP JUMPDEST PUSH1 0x20 DUP3 ADD SWAP1 POP SWAP2 SWAP1 POP JUMP JUMPDEST PUSH1 0x0 PUSH1 0x20 DUP3 ADD SWAP1 POP DUP2 DUP2 SUB PUSH1 0x0 DUP4 ADD MSTORE PUSH2 0x1367 DUP2 PUSH2 0x132B JUMP JUMPDEST SWAP1 POP SWAP2 SWAP1 POP JUMP JUMPDEST PUSH32 0x4E487B7100000000000000000000000000000000000000000000000000000000 PUSH1 0x0 MSTORE PUSH1 0x11 PUSH1 0x4 MSTORE PUSH1 0x24 PUSH1 0x0 REVERT JUMPDEST PUSH1 0x0 PUSH2 0x13A8 DUP3 PUSH2 0xDC1 JUMP JUMPDEST SWAP2 POP PUSH32 0xFFFFFFFFFFFFFFFFFFFFFFFFFFFFFFFFFFFFFFFFFFFFFFFFFFFFFFFFFFFFFFFF DUP3 EQ ISZERO PUSH2 0x13DB JUMPI PUSH2 0x13DA PUSH2 0x136E JUMP JUMPDEST JUMPDEST PUSH1 0x1 DUP3 ADD SWAP1 POP SWAP2 SWAP1 POP JUMP JUMPDEST PUSH32 0x546865206E6574776F726B206861732072656163686564206974732066756C6C PUSH1 0x0 DUP3 ADD MSTORE PUSH32 0x206C696D69742E00000000000000000000000000000000000000000000000000 PUSH1 0x20 DUP3 ADD MSTORE POP JUMP JUMPDEST PUSH1 0x0 PUSH2 0x1442 PUSH1 0x27 DUP4 PUSH2 0xEA3 JUMP JUMPDEST SWAP2 POP PUSH2 0x144D DUP3 PUSH2 0x13E6 JUMP JUMPDEST PUSH1 0x40 DUP3 ADD SWAP1 POP SWAP2 SWAP1 POP JUMP JUMPDEST PUSH1 0x0 PUSH1 0x20 DUP3 ADD SWAP1 POP DUP2 DUP2 SUB PUSH1 0x0 DUP4 ADD MSTORE PUSH2 0x1471 DUP2 PUSH2 0x1435 JUMP JUMPDEST SWAP1 POP SWAP2 SWAP1 POP JUMP JUMPDEST PUSH32 0x416C7265616479207265676973746572656420746F206E6574776F726B2E0000 PUSH1 0x0 DUP3 ADD MSTORE POP JUMP JUMPDEST PUSH1 0x0 PUSH2 0x14AE PUSH1 0x1E DUP4 PUSH2 0xEA3 JUMP JUMPDEST SWAP2 POP PUSH2 0x14B9 DUP3 PUSH2 0x1478 JUMP JUMPDEST PUSH1 0x20 DUP3 ADD SWAP1 POP SWAP2 SWAP1 POP JUMP JUMPDEST PUSH1 0x0 PUSH1 0x20 DUP3 ADD SWAP1 POP DUP2 DUP2 SUB PUSH1 0x0 DUP4 ADD MSTORE PUSH2 0x14DD DUP2 PUSH2 0x14A1 JUMP JUMPDEST SWAP1 POP SWAP2 SWAP1 POP JUMP JUMPDEST PUSH32 0x4E487B7100000000000000000000000000000000000000000000000000000000 PUSH1 0x0 MSTORE PUSH1 0x22 PUSH1 0x4 MSTORE PUSH1 0x24 PUSH1 0x0 REVERT JUMPDEST PUSH1 0x0 PUSH1 0x2 DUP3 DIV SWAP1 POP PUSH1 0x1 DUP3 AND DUP1 PUSH2 0x152B JUMPI PUSH1 0x7F DUP3 AND SWAP2 POP JUMPDEST PUSH1 0x20 DUP3 LT DUP2 EQ ISZERO PUSH2 0x153F JUMPI PUSH2 0x153E PUSH2 0x14E4 JUMP JUMPDEST JUMPDEST POP SWAP2 SWAP1 POP JUMP JUMPDEST PUSH32 0x4F6E6C792063757272656E74206D616E616765722063616E206368616E676520 PUSH1 0x0 DUP3 ADD MSTORE PUSH32 0x6D616E6167657200000000000000000000000000000000000000000000000000 PUSH1 0x20 DUP3 ADD MSTORE POP JUMP JUMPDEST PUSH1 0x0 PUSH2 0x15A1 PUSH1 0x27 DUP4 PUSH2 0xEA3 JUMP JUMPDEST SWAP2 POP PUSH2 0x15AC DUP3 PUSH2 0x1545 JUMP JUMPDEST PUSH1 0x40 DUP3 ADD SWAP1 POP SWAP2 SWAP1 POP JUMP JUMPDEST PUSH1 0x0 PUSH1 0x20 DUP3 ADD SWAP1 POP DUP2 DUP2 SUB PUSH1 0x0 DUP4 ADD MSTORE PUSH2 0x15D0 DUP2 PUSH2 0x1594 JUMP JUMPDEST SWAP1 POP SWAP2 SWAP1 POP JUMP JUMPDEST PUSH32 0x4F6E6C79204D616E616765722063616E20736574206E6574776F726B206C696D PUSH1 0x0 DUP3 ADD MSTORE PUSH32 0x69742E0000000000000000000000000000000000000000000000000000000000 PUSH1 0x20 DUP3 ADD MSTORE POP JUMP JUMPDEST PUSH1 0x0 PUSH2 0x1633 PUSH1 0x23 DUP4 PUSH2 0xEA3 JUMP JUMPDEST SWAP2 POP PUSH2 0x163E DUP3 PUSH2 0x15D7 JUMP JUMPDEST PUSH1 0x40 DUP3 ADD SWAP1 POP SWAP2 SWAP1 POP JUMP JUMPDEST PUSH1 0x0 PUSH1 0x20 DUP3 ADD SWAP1 POP DUP2 DUP2 SUB PUSH1 0x0 DUP4 ADD MSTORE PUSH2 0x1662 DUP2 PUSH2 0x1626 JUMP JUMPDEST SWAP1 POP SWAP2 SWAP1 POP JUMP JUMPDEST PUSH32 0x4F6E6C79207468652063726561746F72206F66207265706F72742063616E2066 PUSH1 0x0 DUP3 ADD MSTORE PUSH32 0x696E616C6973652069742E000000000000000000000000000000000000000000 PUSH1 0x20 DUP3 ADD MSTORE POP JUMP JUMPDEST PUSH1 0x0 PUSH2 0x16C5 PUSH1 0x2B DUP4 PUSH2 0xEA3 JUMP JUMPDEST SWAP2 POP PUSH2 0x16D0 DUP3 PUSH2 0x1669 JUMP JUMPDEST PUSH1 0x40 DUP3 ADD SWAP1 POP SWAP2 SWAP1 POP JUMP JUMPDEST PUSH1 0x0 PUSH1 0x20 DUP3 ADD SWAP1 POP DUP2 DUP2 SUB PUSH1 0x0 DUP4 ADD MSTORE PUSH2 0x16F4 DUP2 PUSH2 0x16B8 JUMP JUMPDEST SWAP1 POP SWAP2 SWAP1 POP JUMP JUMPDEST PUSH32 0x4E487B7100000000000000000000000000000000000000000000000000000000 PUSH1 0x0 MSTORE PUSH1 0x12 PUSH1 0x4 MSTORE PUSH1 0x24 PUSH1 0x0 REVERT JUMPDEST PUSH1 0x0 PUSH2 0x1735 DUP3 PUSH2 0xDC1 JUMP JUMPDEST SWAP2 POP PUSH2 0x1740 DUP4 PUSH2 0xDC1 JUMP JUMPDEST SWAP3 POP DUP3 PUSH2 0x1750 JUMPI PUSH2 0x174F PUSH2 0x16FB JUMP JUMPDEST JUMPDEST DUP3 DUP3 DIV SWAP1 POP SWAP3 SWAP2 POP POP JUMP INVALID LOG2 PUSH5 0x6970667358 0x22 SLT KECCAK256 0xC9 SWAP15 0xEE 0xE5 DUP13 BYTE SHL 0xAA 0x29 SDIV 0xFC 0xF6 SSTORE 0xDB 0xC3 0xC1 CALLCODE EXTCODECOPY CODESIZE SWAP1 0xD4 SDIV 0xB5 0x28 SWAP9 SSTORE COINBASE 0xEE RETURNDATACOPY 0xFB SWAP8 CODECOPY PUSH5 0x736F6C6343 STOP ADDMOD MULMOD STOP CALLER "},"gasEstimates":{"creation":{"codeDepositCost":"1206600","executionCost":"infinite","totalCost":"infinite"},"external":{"changeManager(address)":"27136","createPatientReport(string,string)":"infinite","doctorsCount()":"2453","finalizeReport(uint256)":"infinite","getNetworkSummary()":"infinite","getReportCount()":"2526","networkLimit()":"2497","networkSpecialisation()":"infinite","network_doctors(address)":"2911","network_head()":"2533","numPatientReportCount()":"2452","patientReports(uint256)":"infinite","registerToNetwork()":"55590","setNetworkLimit(uint256)":"24956","verifyReport(uint256)":"infinite"}},"methodIdentifiers":{"changeManager(address)":"a3fbbaae","createPatientReport(string,string)":"975de960","doctorsCount()":"04bb9bc0","finalizeReport(uint256)":"fa9c48b7","getNetworkSummary()":"da252c91","getReportCount()":"cad9642b","networkLimit()":"3639f17f","networkSpecialisation()":"8f5e9de3","network_doctors(address)":"e244ebaa","network_head()":"d478e879","numPatientReportCount()":"4c6a6f45","patientReports(uint256)":"6df0b3a2","registerToNetwork()":"52c19c86","setNetworkLimit(uint256)":"bdaa0671","verifyReport(uint256)":"09208a75"}},"storageLayout":{"storage":[{"astId":69,"contract":"DoctorNetwork.sol:Network","label":"network_head","offset":0,"slot":"0","type":"t_address"},{"astId":72,"contract":"DoctorNetwork.sol:Network","label":"networkLimit","offset":0,"slot":"1","type":"t_uint256"},{"astId":74,"contract":"DoctorNetwork.sol:Network","label":"networkSpecialisation","offset":0,"slot":"2","type":"t_string_storage"},{"astId":78,"contract":"DoctorNetwork.sol:Network","label":"network_doctors","offset":0,"slot":"3","type":"t_mapping(t_address,t_bool)"},{"astId":80,"contract":"DoctorNetwork.sol:Network","label":"numPatientReportCount","offset":0,"slot":"4","type":"t_uint256"},{"astId":83,"contract":"DoctorNetwork.sol:Network","label":"doctorsCount","offset":0,"slot":"5","type":"t_uint256"},{"astId":88,"contract":"DoctorNetwork.sol:Network","label":"patientReports","offset":0,"slot":"6","type":"t_mapping(t_uint256,t_struct(PatientReport)67_storage)"}],"types":{"t_address":{"encoding":"inplace","label":"address","numberOfBytes":"20"},"t_bool":{"encoding":"inplace","label":"bool","numberOfBytes":"1"},"t_mapping(t_address,t_bool)":{"encoding":"mapping","key":"t_address","label":"mapping(address => bool)","numberOfBytes":"32","value":"t_bool"},"t_mapping(t_uint256,t_struct(PatientReport)67_storage)":{"encoding":"mapping","key":"t_uint256","label":"mapping(uint256 => struct Network.PatientReport)","numberOfBytes":"32","value":"t_struct(PatientReport)67_storage"},"t_string_storage":{"encoding":"bytes","label":"string","numberOfBytes":"32"},"t_struct(PatientReport)67_storage":{"encoding":"inplace","label":"struct Network.PatientReport","members":[{"astId":54,"contract":"DoctorNetwork.sol:Network","label":"description","offset":0,"slot":"0","type":"t_string_storage"},{"astId":56,"contract":"DoctorNetwork.sol:Network","label":"fileUrl","offset":0,"slot":"1","type":"t_string_storage"},{"astId":58,"contract":"DoctorNetwork.sol:Network","label":"requestedDoctor","offset":0,"slot":"2","type":"t_address"},{"astId":60,"contract":"DoctorNetwork.sol:Network","label":"approvalCount","offset":0,"slot":"3","type":"t_uint256"},{"astId":64,"contract":"DoctorNetwork.sol:Network","label":"approvals","offset":0,"slot":"4","type":"t_mapping(t_address,t_bool)"},{"astId":66,"contract":"DoctorNetwork.sol:Network","label":"verified","offset":0,"slot":"5","type":"t_bool"}],"numberOfBytes":"192"},"t_uint256":{"encoding":"inplace","label":"uint256","numberOfBytes":"32"}}},"userdoc":{"kind":"user","methods":{},"version":1}}